:020000040002F8
:10600000B0970020DD630200E5630200E763020051
:10601000E9630200EB630200ED6302000000000090
:10602000000000000000000000000000EF6302001C
:10603000F163020000000000F3630200F563020058
:106040003D6A0200F763020045710200816E0200A2
:10605000F7630200F763020069690200296C02001D
:10606000F7630200F7630200F7630200F7630200C0
:10607000F7630200F7630200F7630200F7630200B0
:10608000F7630200FD6B0200F7630200F763020092
:10609000F7630200F7630200956E0200F7630200E7
:1060A000F7630200F7630200F7630200F763020080
:1060B000F7630200F7630200000000000000000028
:1060C000F7630200F7630200F7630200F763020060
:1060D000156C0200F7630200F76302000000000085
:1060E00000000000000000000000000000000000B0
:1060F00000000000000000000000000000000000A0
:10610000000000000000000000000000000000008F
:10611000000000000000000000000000000000007F
:10612000000000000000000000000000000000006F
:10613000000000000000000000000000000000005F
:10614000000000000000000000000000000000004F
:10615000000000000000000000000000000000003F
:10616000000000000000000000000000000000002F
:10617000000000000000000000000000000000001F
:10618000000000000000000000000000000000000F
:1061900000000000000000000000000000000000FF
:1061A00000000000000000000000000000000000EF
:1061B00000000000000000000000000000000000DF
:1061C00000000000000000000000000000000000CF
:1061D00000000000000000000000000000000000BF
:1061E00000000000000000000000000000000000AF
:1061F000000000000000000000000000000000009F
:10620000DFF80CD000F054FB0048004795E702008F
:10621000B097002000B583B002900091019244F243
:10622000010071466A4601F017FE03B000BD000090
:1062300030B450E8012F93B2C48923448489A34227
:1062400028BF1B1B0489A34202BFBFF32F8F00206E
:1062500007E0C3EA020340E80134002CE9D14FF023
:1062600001000A6030BC704750E8012FC2EA0242C8
:1062700040E801210029F7D1704730B450E8022FDF
:106280001FFAA2F3C488A34202BFBFF32F8F0020DE
:106290000DE0C48923448489A34228BF1B1BC2EAA2
:1062A000034340E80234002CE8D14FF001000A60BB
:1062B00030BC704750E8022FC2EA224240E8022177
:1062C0000029F7D17047034653E8022FD988B2EB73
:1062D000324F4FF0000017BF92B241EA014142EA4B
:1062E000014104E05A68B2EB324F08BF012043E895
:1062F0000212002AE8D1704730B4044654E8000F77
:106300000D4644E80053002BF8D1156030BC7047AF
:1063100030B4044654E8000F40EA010544E8005355
:10632000002BF7D1156030BC704730B4044654E8F8
:10633000000F00EA010544E80053002BF7D1156077
:1063400030BC704730B4044654E8000F80EA0105C1
:1063500044E80053002BF7D1156030BC704730B4CF
:10636000044654E8000F00EB010544E80053002BFD
:10637000F7D1156030BC704730B4044654E8000FC4
:10638000A0EB010544E80053002BF7D1156030BCA9
:10639000704770B404464FF0000054E8006F0D6879
:1063A000AE4207BF44E80023012044E800630E60CA
:1063B000002B1CBF0020F0E770BC704730B40446CF
:1063C00054E8000F88422CBF451A054644E80053A4
:1063D000002BF5D1156030BC70470000064880479F
:1063E00006480047FEE7FEE7FEE7FEE7FEE7FEE7BA
:1063F000FEE7FEE7FEE7FEE7AD6E02000162020087
:106400002DE9F05F0546002092469B4688460646E9
:10641000814640241BE0284641464746224600F07C
:10642000A2F953465A46C01A914110D31146184654
:10643000224600F016F82D1A67EB01084F46224657
:106440000120002100F00DF817EB00094E41201E3D
:10645000A4F10104DFDC484631462A464346BDE844
:10646000F09F202A04DB203A00FA02F10020704756
:106470009140C2F1200320FA03F319439040704782
:1064800000487047B8C003000649074A08685043EF
:1064900043F239021044086040087047014908601F
:1064A00070470000083500206D4EC64110B5431AF4
:1064B000934209D28318881803E010F8011D03F8ED
:1064C000011D521EF9D210BD40EA01039B0703D003
:1064D00009E008C9121F08C0042AFAD203E011F823
:1064E000013B00F8013B521EF9D210BDD2B201E0CF
:1064F00000F8012B491EFBD270470022F6E710B5C9
:1065000013460A4604461946FFF7F0FF204610BD21
:10651000421C10F8011B0029FBD1801A704730B5CE
:1065200004460020034600E05B1C934203D2E05C7B
:10653000CD5C401BF8D030BD034611F8012B00F8AC
:10654000012B002AF9D1184670472DE9FE4F81EA48
:10655000030404F0004421F0004100944FF0000BCC
:1065600023F0004350EA01045ED052EA03045BD0FA
:10657000C3F30A54C1F30A552C44A4F2F334019432
:10658000A0FB0254C1F3130141F48011C3F31303C0
:1065900043F4801301FB024400FB034E840A970A74
:1065A00044EA815447EA8357A4FB076802958D0AA1
:1065B00005FB07854FEA932C04FB0C542705029D2D
:1065C0004FEA065847EA1637B5EB08056EEB070C9D
:1065D000870E920E47EA811742EA8312A7FB020157
:1065E000B6EB0B0164EB00042B0D43EA0C335E1891
:1065F00044EB1C50DA465146E7FB0201C5F3130495
:106600004FEA0B3343EA14534FEA0432019C43EA46
:106610000603A4F10C040294009CCDE900B400F040
:10662000F8F803B0BDE8F08F00200146F9E72DE946
:10663000F04D81EA030404F0004B21F000451446BC
:106640004FF0000A23F0004150EA050220D054EA3E
:1066500001021DD0C5F30A570246C5F31303C1F367
:106660001300C1F30A5640F4801543F48013A7EBDE
:106670000608101BD64608F2FD3873EB050002D35E
:1066800008F1010801E092185B41B8F1000F03DA4C
:1066900000200146BDE8F08D00204FF48011064631
:1066A00084460EE0171B73EB050705D3121B63EB43
:1066B000050306434CEA010C49084FEA30009218E2
:1066C0005B4150EA0107EDD152EA030012D082EAA1
:1066D000040083EA0501084305D0101BAB4106D234
:1066E0000122002306E000224FF0004302E06FF099
:1066F000010253101AEB06004CEB085110EB0A0094
:1067000041EB0B01BDE8F04D00F074B80EB5C10FC0
:1067100080EAE0700844CA07002140F233438DE864
:106720000E000A460B4600F074F803B000BD01F0FD
:10673000004330B421F0004150EA010206D00A0DB6
:10674000A2F56072C1F31301002A02DC30BC002004
:106750007047440F44EAC104C100E01830BC00EBAC
:10676000C25000F010B8202A04DB203A21FA02F0CF
:106770000021704721FA02F3D040C2F1200291407B
:106780000843194670470029A8BF7047401C4900BC
:1067900008BF20F00100704710B4B0FA80FC00FA86
:1067A0000CF050EA010404BF10BC704749B1CCF1B1
:1067B000200421FA04F411FA0CF118BF012121433D
:1067C0000843A3EB0C01CB1D4FEA00614FEA1020F8
:1067D00042BF002010BC704700EBC350104400299A
:1067E000A4BF10BC7047401C490008BF20F0010046
:1067F00010BC704710B5141E73F1000408DA401C79
:1068000041F1000192185B411A4301D120F00100CF
:1068100010BD2DE9F04D92469B4611B1B1FA81F2BF
:1068200002E0B0FA80F220329046FFF71AFE0446EA
:106830000F4640EA0A0041EA0B0153465A46084314
:1068400013D0114653EA010019D0C8F14002504656
:10685000FFF789FF05460E46504659464246FFF768
:1068600000FE084305D0012004E020463946BDE87B
:10687000F08D0020054346EAE0762C4337430A9822
:106880006305E40AA0EB08000022FD0A44EA47542D
:106890000A3002D500200146E9E7010510196941D7
:1068A000DDE9084500196941BDE8F04DA2E70000A7
:1068B000064C074D06E0E06840F0010394E807004D
:1068C00098471034AC42F6D3FFF79EFCB8D50300CE
:1068D000D8D5030070B58C1810F8015B15F00703CC
:1068E00001D110F8013B2A1106D110F8012B03E069
:1068F00010F8016B01F8016B5B1EF9D12B0705D471
:106900000023521E0DD401F8013BFAE710F8013BB9
:10691000CB1A921C03E013F8015B01F8015B521ED5
:10692000F9D5A142D8D3002070BD30B502460B4640
:106930004FF6FF71002010E0145C6140002409E074
:1069400001F0010525B14AF2010585EA610100E087
:106950004910641C082CF3DB401C9842ECDB081245
:1069600040EA012080B230BD2DE9F84F002600201A
:1069700000904FF480770125002410E0384609F09C
:1069800033FF40B100BF25480068284018B13846A1
:1069900009F01CFF2E436D00381D87B2641C082CC3
:1069A000ECD34FF4BE7009F01FFF50B14FF4BE702E
:1069B00009F00CFF46F000466A460121002009F06C
:1069C00067FEF0B210B3012500241DE005EA0600C1
:1069D000C0B100BF124850F82400C0F30420814623
:1069E00000BF0F4850F82400C0F301408246204603
:1069F00003F028FD8046B8F1000F02D0514648460A
:106A0000C04700BF6D00641C082CDFD306F00040B7
:106A100010B168460EF0E0FABDE8F88F046300405C
:106A20001065004010B514200BF0C8F910BD10B56A
:106A3000012114200BF0ECF910BD000010B54FF44B
:106A4000807008F056FF80B14FF4807008F05AFF54
:106A5000012008F061FF0D48407930B901200B4951
:106A6000487108460168002088474FF4827008F09A
:106A700040FF50B14FF4827008F044FF022008F04C
:106A80004BFF024801680120884710BDE033002019
:106A90002DE9F04FA9B04FF0000900202490824664
:106AA0004FF0020B0FF096FD0FF02AF924AA25A94A
:106AB00001200FF0D3FC0746002F67D19DF890000E
:106AC000002863DD01203B4908703B48007800281E
:106AD00061D1012038490870384800683849086099
:106AE0000DF1960102200FF05BFE07460DF19605B1
:106AF000EE1D06E095F80080307805F8010B06F8E9
:106B00000189B542F6D34FF0010908210DF1960035
:106B100006F0A4FA04462B492B4A891AC908032215
:106B200042EA0140224629A10AF030F931480146E3
:106B30000A6882604968C160DDF896100160DDF87E
:106B40009A1041600FBB00241BE003A88021CDE90F
:106B500000100AEB0400C2B204AB002158460FF04B
:106B6000C1FD074667B9002008E004AA411C525C39
:106B700000EBC4031F491831CA54401C0828F4DB39
:106B8000641C2B2CE1DB07F0D9FA04E000200A4951
:106B90000870084908700948006809490968401ADE
:106BA0001549884202D9002003490870484629B097
:106BB000BDE8F08F343300202E330020A4310020B4
:106BC00030330020B8D60300F8D5030049534F31C5
:106BD000353639332F4E46432D562063617264207B
:106BE000666F756E642E205549443A2025730D0A50
:106BF00000000000A83E0020E093040010B5034A06
:106C00001068034A1168884710BD0000383400201E
:106C10003434002010B504220021024806F0DCFEC6
:106C200010BD000000400240FEB54FF482700AF033
:106C3000C9FB002837D04FF482700AF0CDFB6C48B6
:106C400090F82E0018B16A4890F82F0058B3002031
:106C50008DF8000066484068019065480189ADF8EC
:106C60000810C06818B900206149087412E0604833
:106C7000008B5F4948830846C06848600846008B1F
:106C800008810020C860084690F82E0010B9002046
:106C90000AF0BAFB56480168684688470020544904
:106CA00081F82F0000BF524890F82E00002852D0E3
:106CB0004FF480700AF086FB00284CD04FF48070AF
:106CC0000AF08AFB4A48408B494991F82D108842C6
:106CD00016DD4748408B464991F82D10401A44492B
:106CE00048830A4612890B465B8BD21A0B465B68B7
:106CF00003EB42000A4692F82D100AF04FFB23E006
:106D00003B48408B3A4991F82D1088420FD13848C2
:106D1000C06860B10120364981F82F000020488307
:106D20000A4692F82D10D0680AF038FB0CE0304883
:106D3000408B2F4991F82D10884205D101202C4914
:106D400081F82F00002048834FF482700AF044FB42
:106D500004200AF059FB4FF488700AF033FB70B13D
:106D60004FF488700AF038FB002021490874022093
:106D70008DF80000084601686846884700BF4FF458
:106D80008A700AF01FFB38B14FF48A700AF024FBB6
:106D90000020174908742AE01548456924E0B5FA2F
:106DA00085F64FF00040F0408543B00000F58C744C
:106DB00020460AF007FBB8B120460AF00DFB01207F
:106DC0008DF80000A4F58C70C0F3C7008DF80400A6
:106DD000A4F58C70012121EA90018DF8051004487A
:106DE00001686846884700BF002DD8D100BFFEBDAE
:106DF000004B002010B500F0ADF910BD2DE9F047B3
:106E0000074688461646C24607EB47011B4800EB7B
:106E1000C109D9F8140020B1012811D0022826D1C7
:106E20001EE0484600F0CEF90546B54201D20024E6
:106E300005E0344632465146484600F00AFA18E06A
:106E4000484600F0BFF90546B54201D2284600E0A9
:106E50003046044622465146484600F0FAF908E01A
:106E600032465146484600F0BBF9044601E0002492
:106E700000BF00BF2046BDE8F08700003C55002061
:106E800010B50249024806F094FD10BDDC4A00200E
:106E90000030004010B50AF00FFD10BD0148024956
:106EA000086070470090D0030435002010B508F04A
:106EB000E7F828B192480088C0F30420914908609F
:106EC00008F036F910B190489049486708F06CF91D
:106ED00030B18B48E0380068C0F342308C4908601C
:106EE00008F08EF928B18B48006820F0807089493D
:106EF000086008F0A3F948B10020874908604FF006
:106F00008041C1F810018249091F086008F0C2F9E8
:106F100018B103207E496431086008F0D9F968B1DE
:106F200005207E49086001207C49783108600020F6
:106F30007A49083108603F20091F086008F0E6F927
:106F4000002855D06E48E0300068754908606C48EC
:106F5000E4300068091D08606948E8300068091DD0
:106F600008606748EC300068091D08606448F0302C
:106F70000068091D08606248F4300068091D086057
:106F80005F48F83000686649203108605C48FC3092
:106F90000068091D086063480068091D08606148B1
:106FA000001D0068091D08605E4808300068091D62
:106FB00008605C480C300068091D086059481030B2
:106FC0000068574940310860564814300068091D70
:106FD0000860544818300068091D086051481C308A
:106FE0000068091D08604F4820300068091D0860CE
:106FF00008F01AF830B14248CC38006800F04F0071
:107000004949086008F068F840B14848006800F055
:10701000010018B16FF001004449086008F0A6F8BB
:1070200028B14348006840F480604149086039480D
:107030007438006840F4700036497439086000BF45
:1070400000BF00BFBFF34F8F00BF00BF00BF00BF36
:1070500000BF00BFBFF36F8F00BF00BF00BF354848
:10706000006800F0004028B93248001D006800F0B8
:107070000040E8B301203049086000BF2F48006895
:107080000028FBD015202B49086000BF2B48006862
:107090000028FBD015212748001D016000BF2748AC
:1070A00000680028FBD000202349086000BF234867
:1070B00000680028FBD000BF00BF00BF00BF00BFBA
:1070C000BFF34F8F00BF00BF00BF1248F038006809
:1070D00000F4E0601A490843001D0E49F0390860C9
:1070E00000BF00BF00BFBFF34F8F00BF00BF00E075
:1070F00003E000BF00BF00BFFDE7FFF7CFFE10BDFC
:1071000024030010403501400DF0ADBA00C0074027
:107110003C050040FCED00E00C0100401056004032
:1071200020C5004024040010E40E0040000400408C
:107130003C1700400012001004E5014000E401404B
:107140000000FA0510B502490868804710BD00002C
:10715000E833002010B5124C02202061606111A0BC
:10716000A0611349E1614FF4007121620021A16225
:107170006162E1620BA0A0640E49E1641021216507
:107180000021A1656165E1650BA1E01DFFF7D4F960
:107190000AA12046FFF7D0F92020A07110BD000001
:1071A000245500205465726D696E616C000000000A
:1071B0009C5500209C57002052545400534547478B
:1071C0004552000010B501460A69CB689A4204D8BE
:1071D0008C68641EE41AA01801E0D41A601E10BD69
:1071E0002DE9F0470446894617464FF0000AE56846
:1071F00000BFD4F81080A84503D9A8EB0500461EAF
:1072000004E0A5EB0800401CA1680E1AA068401B12
:10721000B04201D9304601E0A068401B0646BE429C
:1072200001D2304600E038460646616848193246C9
:107230004946FFF73BF9B244B144BF1B3544A0684F
:10724000A84200D10025E560002FD2D15046BDE80C
:10725000F0872DE9F047044689461546E668A068A0
:10726000871BAF4208D9616888192A464946FFF74B
:107270001DF97019E06010E0B8466168881942464F
:107280004946FFF713F9A5EB070809EB070142464A
:107290006068FFF70BF9C4F80C80BDE8F0870000C8
:1072A0000FB4084B10B504A902AA039800F03EF8E9
:1072B000044602A9002000F06AFA204610BC5DF8DE
:1072C00014FB00008F77020002E008C8121F08C1FB
:1072D000002AFAD170477047002001E001C1121F57
:1072E000002AFBD1704700000146202908DA01205E
:1072F00088400A4A104008B1012070470020FCE78E
:10730000402909DAA1F12000012202FA00F008B1B7
:107310000120F2E70020F0E70120EEE7FC06FFBDC8
:1073200000BFEFF31081084672B670472DE9FF4F9A
:107330008DB00F460546002606E025280BD0DDE976
:107340000F1290476D1C761C28780028F5D111B0DB
:107350003046BDE8F08F0024A246A1460122EC4948
:1073600000E0044315F8013F203B02FA03F0084215
:10737000F7D128782A2810D06FF02F022878A0F1B2
:107380003001092914D80AEB8A0102EB410144F0CB
:10739000020400EB010A6D1CF0E701CF5FEA000A6E
:1073A00003D544F40054CAF1000A44F002046D1CF1
:1073B00028782E2817D115F8010F44F004042A2844
:1073C0000ED06FF02F022878A0F1300109290AD8D9
:1073D00009EB890102EB410100EB01096D1CF2E7A9
:1073E00057F8049B6D1C28786C280FD006DC4C28BD
:1073F00017D068280DD06A2814D104E0742810D062
:107400007A280FD10DE044F400140AE044F480140B
:1074100001E044F440146978814202D104F58014FB
:107420006D1C6D1C2A786E2A1FD00CDC632A31D0AB
:1074300004DC002A8BD0582A11D1A3E0642A68D03A
:10744000692A0CD165E0732A2ED004DC6F2A73D030
:10745000702A04D19BE0752A6FD0782A6ED010462E
:10746000DDE90F129047761C50E1C4F30250022868
:1074700006D0032809D0042801CF09D0066045E1D1
:1074800001CFF117C0E9006140E101CF06803DE185
:1074900006703BE117F8040B8DF8000000208DF812
:1074A0000100EB46012003E057F804BB4FF0FF302A
:1074B00061074FF0000102D40DE008F10101884698
:1074C00049450FDA8045F8DB1BF808100029F4D194
:1074D00008E008F1010188468142FADB1BF8081038
:1074E0000029F6D1DDE90F23AAEB080081462146E9
:1074F00000F036F9304400EB080604E0DDE90F1235
:107500001BF8010B9047B8F10108F7D22146484615
:10751000F7E00A21C4F302534FF0000B0891022B4D
:1075200004D001CFC117032B09D00AE0FF1D27F0BB
:107530000707F7E8020108E032E01FE020E000B2B0
:10754000C117042B01D140B2C117031E71F1000312
:1075500007DA4FF0000CD0EB0C006CEB01012D238F
:1075600002E0230504D52B238DF82430012303E00A
:10757000E30701D02023F7E7984658E00A2110E0FE
:1075800010210EE010204FF0000B08900CE01021AD
:107590004FF0000B44F004044FF00809089103E099
:1075A00008214FF0000B0891C4F30253022B04D0C2
:1075B00001CF0021032B06D006E0FF1D27F00707AF
:1075C000F7E8020103E080B2042B00D1C0B24FF013
:1075D000000823072BD5702A07D0DDF820C08CF0D7
:1075E000100C5CEA0B0C05D00EE040238DF8243023
:1075F000012308E050EA010306D030238DF824303F
:107600008DF8252002239846DDF820C08CF0080C68
:107610005CEA0B0C0BD150EA010301D1630706D5DC
:1076200030238DF824304FF00108A9F10109582AC0
:1076300004D038A20B9208AA0A920BE03AA2F9E70A
:107640005B46089AFEF7DCFE0B9B9B5C0A9A521E77
:107650000A92137050EA0102F2D10A98ADEB0000D1
:1076600000F1200B600702D524F4803401E04FF0D4
:107670000109D94502DDA9EB0B0000E0002000EB79
:107680000B0141440890AAEB010AE00306D4DDE9AE
:107690000F232146504600F063F806444FF00009DE
:1076A00008E009A911F80900DDE90F12904709F176
:1076B0000109761CC145F4DBE0030CD5DDE90F239D
:1076C0002146504600F04CF8064404E0DDE90F1274
:1076D00030209047761C0899481E08900029F5DC58
:1076E00008E00A980A990078491C0A91DDE90F120E
:1076F0009047761CBBF10001ABF1010BF1DC214698
:107700005046DDE90F2300F019F806446D1C1BE616
:107710000928010030313233343536373839616267
:10772000636465660000000030313233343536372B
:107730003839414243444546000000002DE9F041FC
:10774000044600251E461746880404D405E0394641
:107750002020B0476D1C641EF9D52846BDE8F08195
:107760002DE9F041044600251E469046C80301D588
:10777000302700E02027880404D505E0414638463C
:10778000B0476D1C641EF9D52846BDE8F0810A6833
:10779000531C0B601070704770B505460C4605B160
:1077A0000CB9002070BD287840082178B0EB510F4B
:1077B00001D00020F6E70622611C681CFEF7AFFE30
:1077C00008B90120EEE70020ECE7014601F00300D4
:1077D00008B9012070470020FCE7024650680068A5
:1077E000401E084008B9012070470020FCE702460F
:1077F000002104E0505C08B101207047491C0629B3
:10780000F8D30020F9E710B50346D868884206D8B7
:107810008818401E1C69A04201D8012010BD00201C
:10782000FCE7000010B504466CB10848C068A042EF
:1078300009D806480069A04205D3204606F077F92A
:1078400008B1012010BD0020FCE700001435002025
:1078500070B5AC2400252C48007848BB22462B4943
:107860002B48FEF723FE00202949491E0870611CA1
:107870002748401EFFF759F80546290A244A521E98
:10788000601C1154A01C1554104603F05FFB2149E5
:10789000214A891AC908032242EA01402B461A49A3
:1078A0000A781EA109F07EFA0120174908702AE023
:1078B00015480078012826D1144801192246144899
:1078C000FEF7F4FD01201249491E0870611C1048A2
:1078D000401EFFF72AF80546290A0D4A521E601C71
:1078E0001154A01C1554104603F030FB09490A4AF4
:1078F000891AC908032242EA01402B4602490A7844
:1079000006A109F04FFA70BD9F310020C03E002053
:107910007D3B0020B8D60300F8D503007374657072
:107920003A2025642C20636865636B6372633A2593
:10793000303478002DE9F041AC240025544800781B
:1079400000284BD1002721E0C7F10E0000EB4000DA
:10795000042101EB4000C6B2042E02DA06F16000F9
:10796000C6B2FEF791FDC82190FBF1F201FB1200B7
:1079700014301FFA80F84FEA0820C1B2454A06F1D8
:1079800019001154401E02F800807F1C0F2FDBDB12
:10799000002721E0C7F11F0000EB4000642101EB4C
:1079A000400086B2642E02DA06F1C00086B2FEF70D
:1079B0006BFDC82190FBF1F201FB120014301FFA9D
:1079C00080F84FEA0820C1B2324A06F1190011547A
:1079D000401E02F800807F1C202FDBDB2C48007843
:1079E00048BB22462B492C48FEF760FD00202A495F
:1079F000491E0870611C2848401EFEF796FF054688
:107A0000290A254A521E601C1154A01C1554104608
:107A100003F09CFA2149224A891AC908032242EA42
:107A200001402B461A490A781EA109F0BBF9012032
:107A3000174908702AE016480078012826D1154811
:107A4000011922461448FEF731FD01201249491E52
:107A50000870611C1048401EFEF767FF0546290AA2
:107A60000D4A521E601C1154A01C1554104603F000
:107A70006DFA0A490A4A891AC908032242EA0140F2
:107A80002B4603490A7807A109F08CF9BDE8F0817B
:107A9000A0310020A83100207D3B0020B8D6030093
:107AA000F8D5030066616B6520737465703A202514
:107AB000642C20636865636B6372633A25303478A5
:107AC0000000000070B504460D4604F22740FFF7A1
:107AD0008EFE0646012D06D0022D0DD0032D11D0AD
:107AE000042D19D113E0A07928B194F8240010B91D
:107AF0000EB1012070BD00BFE07910B10EB10220BF
:107B0000F8E700BF207A08B10320F3E700BF607AEE
:107B100008B10420EEE700BF0020EBE70146481C57
:107B2000052290FBF2F302FB1300C0B2704701463E
:107B300091F82420012A01D1EE2000E01F20704797
:107B400010B501220221002002F086F8044600BF91
:107B50001CB1072C01D0204610BD00BF0722022116
:107B6000012002F079F8044600BF1CB1072C01D0B7
:107B70002046F1E700BF0A220021084602F06CF817
:107B8000044600BF1CB1072C01D02046E4E700BF2B
:107B900010220121022002F05FF8044600BF1CB150
:107BA000072C01D02046D7E700BF0020D4E7000013
:107BB00030B5B3B0AC2108A8FEF79FFC04A86DDF78
:107BC000044600BF25463DB100BF29A24FF4A7617E
:107BD0002846FEF71FFB00BF00BF002007E0C0F1F2
:107BE00005020DF11101895C06AA1154401C0628FA
:107BF000F5DB3320ADF8040006A903910620ADF8AB
:107C0000080002208DF8200001A8119000208DF8B6
:107C1000220006208DF8230001218DF89C104FF4DE
:107C2000F0712A9144F250612B9101218DF89D1041
:107C30004FF4F0712C9144F250612D911048319025
:107C400008A9104800F02BFE044600BF25463DB1B0
:107C500000BF07A240F256512846FEF7DBFA00BFEC
:107C600000BF0121074800F017FE33B030BD00000F
:107C70002E2E5C2E2E5C2E2E5C6D61696E2E6300A6
:107C8000A12B03004835002070B50446012C02D119
:107C900002F0EEFF1BE003210D4800F0C7FE054691
:107CA00000BF2E463EB100BF0AA240F299513046B5
:107CB000FEF7B0FA00BF00BF0A490B4A891AC9088B
:107CC000042242EA014009A109F056F800BF70BD44
:107CD000483500202E2E5C2E2E5C2E2E5C6D6169A8
:107CE0006E2E6300B8D60300F8D5030041647665B4
:107CF00072746973696E6720737461727465642E3F
:107D00000000000070B58CB004460D4616460020F9
:107D100005E0C0F10F01615C0DF80010401C102857
:107D2000F7D30D2104A8FEF7E8FB002005E02A5C4C
:107D3000C0F10F0304A9CA54401C0328F7D36846B6
:107D400046DF002005E0C0F10F0208A9895C31542C
:107D5000401C0328F7D30CB070BD10B504460020BA
:107D600001F0E8FD10BD000010B50446024801789E
:107D7000204601F015F810BDB733002010B50024DF
:107D800007E00749096811F8340001210AF040F8BA
:107D9000641C044800788442F3D3002010BD000026
:107DA000F8330020FC3300202DE9F84306460D4649
:107DB00017460A2F02D20720BDE8F8830AF06CF9B3
:107DC00038B90AF0FFF8044600BF204600B1F3E7D7
:107DD00000BF184806601848057018480760184822
:107DE0000021016041608160C160164A11605160EC
:107DF00015E006EBC50814480068009098F80200EA
:107E00008DF8010098F80000104A69460AF056F80B
:107E1000044600BF204600B1CEE700BF00BF281EC9
:107E2000A5F10101CDB2E4D1094A0021094800F0D1
:107E300043F9C1E7F8330020FC3300200034002070
:107E4000504B00200834002000BD0300C9CC0200C4
:107E500041AE0200FCBC03002DE9FE4307460E467E
:107E6000144672B600BF09F07BF800BF00BF08F0EF
:107E7000F5FD0028FBD100BF00BF012F0CD06FF42F
:107E80008050384498B1B0F5405F2CD06FF4405129
:107E90000844002847D115E03149324A891AC908F7
:107EA000012242EA014030A108F066FF47E02C4978
:107EB0002C4A891AC908012242EA014032A108F07D
:107EC0005BFF3CE025462649DFF898C0A1EB0C019A
:107ED000C9084FF0010C4CEA014034A1D5E9003249
:107EE00008F060FF2BE02546A86809F059FE80469F
:107EF000D5E900108DE8430019491A4BC91AC90881
:107F0000012343EA014043462FA1AA6808F06EFF0F
:107F10001349144A891AC908012242EA014034A1CE
:107F200008F02AFF0BE00E490E4A891AC9080122FF
:107F300042EA0140324633A108F028FF00BF00BFEB
:107F400000BF3648006800F0010000B100BE00BF6D
:107F500022463146384600F063F8BDE8FE83000053
:107F6000B8D60300F8D50300534F4654444556494C
:107F700043453A20415353455254494F4E204641C0
:107F8000494C454400000000534F4654444556496F
:107F900043453A20494E56414C4944204D454D4FAA
:107FA0005259204143434553530000004153534528
:107FB0005254494F4E204641494C4544206174205B
:107FC00025733A25750000004552524F5220257501
:107FD000205B25735D2061742025733A25750D0A99
:107FE00050432061743A2030782530387800000002
:107FF000456E64206F66206572726F7220726570C4
:108000006F727400554E4B4E4F574E204641554CA3
:10801000542061742030782530385800F0ED00E0AD
:1080200018B5012300939DF800301E4B186059606D
:108030009A606FF48043034463B1012B19D1194B4B
:10804000DA60DB681B68174CA3612346DB685B685A
:10805000E3610EE0134B1A611B699B68114C63616D
:1080600023461B691B68A36123461B695B68E361A8
:1080700000BF00BF0B4B1B680A4B5B68094B9B683A
:10808000084BDB68074B1B69064B5B69054B9B691B
:10809000044BDB6972B600BF9DF80030002BFBD1AA
:1080A00062B618BD604B002010B5024803F008F816
:1080B00010BD00001034002010B503460C460AB96C
:1080C000072010BD19684A61012C01D1012000E090
:1080D000002008610020F4E738B5134800680090DC
:1080E0000823582211491248006807F046F904464F
:1080F0000CB1204638BD0F4A69460F4802F0E6FF32
:1081000004460CB12046F5E701210B4803F084F842
:1081100001230A4A1946084802F0A4FF0120084931
:1081200008702046E6E7000014BD0300804B0020E5
:1081300004BD0300317E030010340020FFFF7F00E8
:108140001C3400202DE9F04106460D461746344602
:10815000207F10B10020BDE8F081A76104F032FD5E
:10816000401941F10001C4E90201206900B1256113
:108170002146002012F062FAEDE770B5044625466C
:10818000002028772946012012F058FA70BD10B55A
:108190000446204610F062F810BD000070B5044699
:1081A00025460E488068B0B1ADB9FFF7B9F806466C
:1081B0000A4800680A490860084840684FF0E02112
:1081C000C1F804010020054988601EB900BF62B6ED
:1081D00000BF00BF00BF00BF70BD0000E84B002023
:1081E00000E100E0F8B505460C4617462088001D62
:1081F000B84201D90C20F8BD684679DF064600BFB9
:10820000304600B1F7E700BF03202188685420887A
:10821000401C20801920218868542088401C208020
:1082200020884119BDF8000012F008FD218808449B
:1082300020800020DFE7000070B500224FF480416D
:1082400008480068FFF77EFF044600BF25463DB1A1
:1082500000BF05A240F245412846FDF7DBFF00BF05
:1082600000BF70BD94B703002E2E5C2E2E5C2E2E08
:108270005C6D61696E2E630070B505460C46206822
:10828000401C28B1206808F05CFA206808F0C2F9A8
:108290006068401C18B10021606808F0A1F92868E6
:1082A000A169C0F8241500BF617D227D286841EADC
:1082B0000203C0F86C3500BFD4E90012286809F049
:1082C000A8FC207D012814D1A068401C18B1002111
:1082D000A06808F085F9E068401C28B1E06808F063
:1082E00030FAE06808F096F9D4E90221286809F02C
:1082F00079FC70BD70B505460C462068401C28B15D
:10830000206808F029FA206808F090F96068401C9D
:1083100018B10021606808F070F92868A169C0F8F8
:10832000241500BF617D227D286841EA0203C0F860
:108330006C3500BFD4E90012286809F0A2FC207D4A
:10834000012814D1A068401C18B10021A06808F0D1
:1083500054F9E068401C28B1E06808F0FDF9E068D5
:1083600008F064F9D4E90221286809F06BFC70BDBB
:1083700070B504460D46204606F08AF870BD10B56B
:108380000446637903F003022179208806F038F867
:1083900010BD10B50446207918B9204600F008F841
:1083A00003E02046FFF7EBFF00BF00BF10BD000059
:1083B0002DE9FE4307463E884FF000080022594849
:1083C0000178304600F002FD7879C0F3800028B9CA
:1083D000002138460BF0ACFBBDE8FE8306F580714A
:1083E00088B201AB012207210BF0C2FC0546C5B1E2
:1083F000284609F0D5FB81464B494C4A891AC908E1
:10840000012242EA014033464A46494908F0CAFC83
:108410002946304610F046FA002138460BF088FB1A
:10842000DAE7304605F008F804464FF6FF718C4253
:108430001BD1029804F050FF04464FF6FF708442AF
:1084400013D02146304604F0D5FF3046FFF78CFCB0
:1084500058B9304610F0BAF93046FFF785FC20B91C
:10846000002138460BF064FBB6E74FF6FF708442FC
:108470001FD10BF093FE04464FF6FF70844212D1D9
:1084800029492A4A891AC908012242EA014029A138
:1084900008F072FC0421304610F004FA002138463E
:1084A0000BF046FB98E72146304604F0A3FF4FF05F
:1084B000010806F5807188B2224607210BF0E0FC26
:1084C000054625B9012138460BF032FB28E0862D00
:1084D00007D1304610F0ACF9012138460BF028FBEB
:1084E0001EE0284609F05CFB81460F490F4A891AB5
:1084F000C908012242EA014033464A461A4900941B
:1085000008F060FC2946304610F0CCF900213846CE
:108510000BF00EFBB8F1000F02D0204604F074FF00
:1085200000BF59E7B433002038D60300F8D5030064
:1085300054C90300436F756C64206E6F7420616CC6
:108540006C6F63617465206E657720706565725F1E
:10855000696420666F7220696E636F6D696E672053
:10856000626F6E642E00000070CA0300002114E0E8
:108570000C48D0F81024012308E000BFD06800792F
:10858000884201D1002303E0D0680268002AF4D1B8
:1085900000BF0BB108467047491C0A29E8DB4FF0C1
:1085A000FF30F8E70451002038B5044620788DF8F4
:1085B000000020780002C0B28DF801000222694656
:1085C000024800F0FCFAC0B238BD0000AC490020FF
:1085D00010B50FF055FD0248FFF7E6FF10BD000093
:1085E0009C3100207047000030B58DB0054600BFBB
:1085F00015B90E200DB030BD00BF294928680861AB
:10860000284B0FCB8DE80F002549684662DF0446F2
:1086100000BF204600B1EDE700BF214800788DF88B
:1086200032000120ADF830001D4A921C0CA9A8DFD1
:10863000044600BF204600B1DCE700BF202104A8AB
:10864000FDF75BFF0220ADF81000154800788DF8AB
:1086500012000120ADF816000220ADF814009DF8BC
:108660001D0020F00200801C8DF81D009DF81D00EB
:1086700020F0100010308DF81D0001208DF8210031
:108680008DF82300064948888A1D04A901F028FFB7
:10869000044600BF204600B1ACE700BF2046A9E772
:1086A000AC49002048BB03002DE9FC410546884643
:1086B0001646002437880020308095F82D0058B1E8
:1086C0003A463146404600F0A5FB044600BF20462E
:1086D00008B1BDE8FC8100BFA87850B13A463146E8
:1086E0004046FFF77FFD044600BF204600B1F0E79B
:1086F00000BFE87860B1E97848B23B46324641466F
:1087000003F06DFD044600BF204600B1E1E700BF65
:10871000686868B1696891F900003B463246414695
:1087200012F0B6F8044600BF204600B1D1E700BF02
:10873000288900280EDD43460622022105F10800A3
:10874000CDE9006712F081FB044600BF204600B16E
:10875000BFE700BF288A00280EDD43460722032119
:1087600005F11000CDE9006712F06FFB044600BF71
:10877000204600B1ADE700BF288B00280EDD434640
:108780001522142105F11800CDE9006712F05DFBF8
:10879000044600BF204600B19BE700BF286A58B1DD
:1087A0003B4632464146286A02F042F8044600BF82
:1087B000204600B18DE700BF686A58B13B4632469B
:1087C0004146686A06F096F8044600BF204600B1AC
:1087D0007FE700BF95F82C0000280BDD3B463246B2
:1087E0004146284610F056FA044600BF204600B124
:1087F0006FE700BF287858B13B46324641462846CD
:1088000006F067F9044600BF204600B161E700BFEB
:1088100020465EE7F8B504460E4615460020009057
:108820002B466A463146204600F008F807460FB945
:108830000020F8BDBDF800002044FAE7F0B504467A
:108840000D461E4604B10AB90020F0BD002103E028
:10885000605C401C084481B2481CA84206DA1088BB
:108860008842F5DC481C205CB042F1D1A94201DB12
:108870000020EAE7881C87B2605C10B1605C401E93
:1088800000E0002083B213B1F818A84201DD0020F7
:10889000DBE717801846D8E780F83010704770B5CE
:1088A00004460D4605B10CB90E2070BD05F17800E7
:1088B00001F05FFF08B90720F7E70020A0702C2225
:1088C00005F17801201DFDF7F1FD002084F830004E
:1088D000D5F8A4006063D5F8A800A0634FF6FF7038
:1088E000A4F8240404F58260C4F82004002140F2B6
:1088F0002C40C4F82614A4F82A140155207810B985
:10890000FF2084F8540004F15500C4F810042046F8
:10891000FFF70DF940F21441085304F2144204F138
:1089200055012846FFF7C0FE064600BF304600B19D
:10893000BBE700BF04F231204FF4836108512046A9
:10894000FFF7F5F8A4F81C044FF48360015904F212
:108950001C4205F13C00FFF7A7FE064600BF30466B
:1089600000B1A2E700BF012151200155208B81B247
:1089700048200153012084F83C000021216450204C
:1089800001556169616404F13C02002104F1540065
:1089900072DF064600BF304600B186E700BF012007
:1089A0002070304681E770B504460D462E4620887B
:1089B000102804D0112807D026280FD109E021461D
:1089C00030460AF0C7F90AE0214630460AF0BCFBFF
:1089D00005E0214630460AF0B6FD00E000BF00BFCA
:1089E00070BD70B5044694F8540074DF012084F81B
:1089F0002E04002084F83004002150200155062167
:108A0000204603F007FC054600BF284600B170BDB4
:108A100000BFA178204600F009F8054625B1A06BFB
:108A200010B12846A16B88470020F0E770B50446D6
:108A30000E46207808B9082070BDA670002140F2CB
:108A40002C40C4F82614A4F82A140155A07910B1BA
:108A5000A078012809D0E07910B1A078012804D0CD
:108A6000E07970B1A07802280BD1606B30B10120A1
:108A700084F82D040820616B884702E0002084F808
:108A80002D0431462046FFF71DF8A070606BA0B1A1
:108A9000A078032802D0A07804280ED1607960B1B4
:108AA00094F82E0448B9002084F83004012084F89A
:108AB0002F040720616B884702E0002084F82F0410
:108AC000182104F13C00FDF718FD012084F83C005A
:108AD00004F12C000BF04CFD20B194F82C10512027
:108AE000015502E001215120015594F8240060B1A4
:108AF00004F128000BF03CFD20B194F8281052201E
:108B0000015502E00121522001550021502001555C
:108B1000A078052824D2DFE800F01F030A1118000E
:108B200004F13C01204610F0B7F9054619E004F1C4
:108B30003C01204610F098F9054612E004F13C0192
:108B4000204610F0BBF905460BE004F13C0120463D
:108B500010F0E2F9054604E0002084F8310000E05E
:108B600000BF00BFA07898B104F13C0204F15400AA
:108B7000D4F8201472DF05460DB128465CE794F85E
:108B8000301094F8540073DF05460DB1284653E7C2
:108B9000606B18B194F83100616B884700204BE797
:108BA00070B504460D462E462088502804D1214633
:108BB00030460AF0B5FD00E000BF00BF70BDF0B563
:108BC00085B004460D4617460097A0884FF6FF7102
:108BD000884215D000200190029003900490E08814
:108BE000ADF8040001208DF806000020ADF8080063
:108BF000CDF80CD00495A08801A9AEDF05B0F0BD7A
:108C000043F202063046F9E72DE9F041044600BF81
:108C100014B90E20BDE8F08100BF1C2221461C487B
:108C2000FDF744FC1B481A490860206860B12068C1
:108C30007ADF05460DB12846ECE7164821680A6838
:108C400002604968416005E012487BDF05460DB1CE
:108C50002846DFE7002617E006EB86000E4901EB09
:108C6000800700BF4FF6FF70388000BF0B4800EB55
:108C7000461078600A4A0021381DFFF71DFA0546A4
:108C80000DB10320C6E7761C002EE5D00020C1E719
:108C90004445002068330020304500201045002066
:108CA00059AD030010B50446204600F0A5F820B1E8
:108CB0002146034806F003FC10BD0020FCE700003D
:108CC0007045002070B504460D461646204612F049
:108CD0008DF808B9002070BD034951F824003246D0
:108CE000294603F00BFBF6E77C45002010B504464F
:108CF000204600F081F820B12146034806F0DFFB52
:108D000010BD0020FCE700007845002010B50446A7
:108D1000204600F071F820B12146034806F0CFFB51
:108D200010BD0020FCE700007445002070B504462B
:108D30000025204600F060F850B12146054806F0B5
:108D4000BEFB06460EB1022000E00120054600BF32
:108D5000284670BD6C45002070B5044600252046AD
:108D600000F04AF850B12146054806F0A8FB064637
:108D70000EB1022000E00120054600BF284670BD6C
:108D80006845002010B51821044806F068FB044629
:108D9000182C00D110BDE0B2FCE7000060450020B7
:108DA00070B505460C46204612F020F850B1284612
:108DB00000F022F830B1044901EB8400294606F0A6
:108DC0007EFB70BD0020FCE77C45002070B50546A9
:108DD0000C461646204612F009F850B1284600F01D
:108DE0000BF830B1034901EB84003246294603F009
:108DF000E7F970BD7C45002010B50446142C01DB5A
:108E0000002010BD2146024806F059FBF9E700009A
:108E1000644500202DE9FC4105460C461746208894
:108E20000930B84202D90C20BDE8FC8168466DDFEC
:108E3000064600BF304600B1F6E700BF0820218893
:108E400068542088401C20801B202188685420887A
:108E5000401C208020882844DDF801100160BDF806
:108E6000051081802088801D20809DF8000040082A
:108E700018B900202188685402E001202188685434
:108E80002088401C20800020CEE7000070B506F04E
:108E90006BFD044600BF204600B170BD00BF00BF9F
:108EA000084D28464FF0030C00DF00BF044600BF0A
:108EB000204600B1F1E700BF06F0D0FD0446204691
:108EC000EBE70000DC490020014600BF09B90E2095
:108ED000704700BF014801600020F9E7D03300204F
:108EE00010B51349134A891AC908042242EA0140FD
:108EF00011A107F041FF4FF0FF3100203DDF044694
:108F000000BF204600B110BD00BFB12100203CDFF2
:108F1000044600BF204600B1F5E700BF1348416991
:108F200001208847022008F0A1F90020EBE70000AB
:108F3000B8D60300F8D50300496E20626C655F6403
:108F400066755F627574746F6E6C6573735F626F64
:108F50006F746C6F616465725F73746172745F6665
:108F6000696E616C697A650D0A000000C0490020D5
:108F700010B505480068416900208847FFF7B0FF39
:108F80000446204610BD0000D033002010B588B044
:108F9000044620216846FDF7B0FA0320ADF8000032
:108FA00020788DF802009DF80D0020F02000203080
:108FB0008DF80D009DF80D0020F0080008308DF8A8
:108FC0000D0001208DF810008DF80C001720ADF871
:108FD000040001208DF813008DF812008DF81100A7
:108FE0006088A21D694601F07BFA08B010BD000040
:108FF00030B585B00546244B0FCB8DE80F0000BF80
:1090000015B90E2005B030BD00BF4FF6FF701F49E7
:10901000888028684861002008760846406908B9B9
:109020001B4848611948FFF74FFF044600BF204620
:1090300000B1E7E700BF00BF01208DF812004FF636
:109040005960ADF8100000BF104A921C04A901201D
:10905000A8DF044600BF204600B1D3E700BF0B499C
:10906000684662DF044600BF204600B1CAE700BF81
:109070000648FFF78BFF044600BF204600B1C1E75A
:1090800000BF0020BEE7000060BB0300C049002015
:1090900055B3020070B504460D4600BF04B970BD5B
:1090A00000BF2088102806D0112808D051280AD0E7
:1090B000532810D10BE0204609F046FE0CE0204674
:1090C0000AF034F808E020460AF0E6F904E0204609
:1090D0000AF07CF900E000BF00BF00BFDFE700003E
:1090E00070B504460426207B012802D0022822D134
:1090F00009E002F061F905460DB9012602E0112DE3
:1091000000D1062619E0607B142801DC607B08B9D9
:1091100005260FE0627B04F10E011248FDF7C6F947
:10912000607B1049091F886108460FF023FF054640
:1091300005B9012601E0022600BF00BF012E0FD0B5
:10914000207B314600F058F8054625B106480068F6
:109150004169032088470448006841690220884724
:1091600070BD0000EC490020D033002070B50546EA
:109170000E4600BF1E48006820B11D48406808B177
:10918000012000E0002000B970BD00BF184800F1C8
:109190000801426828469047044600BF082C24D0A6
:1091A0007CB900201349096848760121022000F0AB
:1091B00023F80446CCB10F48006841690320884772
:1091C00013E000200B49096848760621022000F0D0
:1091D00013F8044624B10748006841690320884712
:1091E0000448006841690220884700BFCCE70000BE
:1091F000DC490020D0330020F0B587B004460D468E
:109200000327002001900290039004900320069011
:1092100020208DF814008DF815408DF816500E485A
:10922000C088ADF8040002208DF806000020ADF8DB
:10923000080006A8039005A804900749888801A99A
:10924000AEDF064626B9BDF81800032800D00C266C
:10925000304607B0F0BD0000C049002010B50446FC
:1092600034B1012C0FD0022C18D0032C2FD120E0C8
:109270001D491E4A891AC908032242EA01401CA15D
:1092800007F07AFD2EE01849184A891AC908032206
:1092900042EA014022A107F06FFD23E01249134A80
:1092A000891AC908012242EA014026A107F064FD9B
:1092B00018E00D490D4A891AC908012242EA014005
:1092C0002FA107F059FD00BF002000BF0AE00649AA
:1092D000064A891AC908012242EA014034A107F06E
:1092E0004BFD00BF00BF10BDB8D60300F8D503008A
:1092F0004465766963652069732070726570617278
:10930000696E6720746F20656E74657220626F6F7E
:10931000746C6F61646572206D6F64652E0000006F
:109320004465766963652077696C6C20656E746549
:109330007220626F6F746C6F61646572206D6F6410
:10934000652E00005265717565737420746F206519
:109350006E74657220626F6F746C6F6164657220E9
:109360006D6F6465206661696C6564206173796EF8
:109370006368726F6E656F75736C792E0000000004
:109380005265717565737420746F2073656E642007
:109390006120726573706F6E736520746F20636CEB
:1093A00069656E74206661696C65642E000000005A
:1093B000556E6B6E6F776E206576656E7420667283
:1093C0006F6D20626C655F6466755F627574746F43
:1093D0006E6C6573732E000070B504460D462E4604
:1093E0002088502804D1214630460AF009F900E0CF
:1093F00000BF00BF70BDF0B585B004460D461746EE
:109400000097A0884FF6FF71884215D00020019088
:10941000029003900490E088ADF8040001208DF8DC
:1094200006000020ADF80800CDF80CD00495A08807
:1094300001A9AEDF05B0F0BD43F202063046F9E700
:1094400070B504460D462E462088502804D121468A
:1094500030460AF0FFF800E000BF00BF70BD00001A
:10946000F8B505460F460024288821283BD004DCA7
:10947000102815D011286ED104E03B2850D0562872
:10948000F9D169E04349444A891AC908032242EAEA
:10949000014042A107F070FC00204449087077E0C9
:1094A0003C493D4A891AC908032242EA014040A1C9
:1094B00007F062FC01203D490870A8883F490880F8
:1094C000084601883E4806F0ADF9044600BF26462E
:1094D0003EB100BF3BA240F296413046FCF79AFEF7
:1094E00000BF00BF54E02B492B4A891AC908042247
:1094F00042EA014037A107F03FFC00200090A88815
:1095000069468FDF044600BF26463EB100BF2DA24C
:1095100040F2A2413046FCF77DFE00BF00BF37E0BD
:109520001C491D4A891AC908042242EA01402EA199
:1095300007F022FCA888132176DF044600BF2646E8
:109540003EB100BF1FA240F2AB413046FCF762FEC5
:1095500000BF00BF1CE01AE00E490F4A891AC90873
:10956000042242EA014026A107F006FCA888132144
:1095700076DF044600BF26463EB100BF11A240F28E
:10958000B3413046FCF746FE00BF00BF00E000BF1D
:1095900000BFF8BDB8D60300F8D503004469736373
:1095A0006F6E6E65637465642E0000009931002053
:1095B000436F6E6E65637465642E00009031002009
:1095C0003C3500202E2E5C2E2E5C2E2E5C6D6169AB
:1095D0006E2E630050485920757064617465207266
:1095E0006571756573742E004741545420436C694E
:1095F000656E742054696D656F75742E00000000EF
:1096000047415454205365727665722054696D65E4
:109610006F75742E0000000070B505460E46288850
:10962000102802D011282CD115E01748006860B925
:1096300001F0F6F9044600BF34B11448006818B1CF
:10964000204612490968884700BF0F480068401C3F
:109650000D49086016E00C480068401E0A49086081
:109660000846006860B9FEF76BFA044600BF34B1E3
:109670000648006818B1204604490968884700BFB9
:1096800000E000BF00BF70BD6433002060330020E5
:1096900070B504460D462088102806D0112808D041
:1096A00012280ED0502810D107E0204609F014FBF4
:1096B0000CE0204609F020FD08E0204609F074FF88
:1096C00004E0204609F0F0FA00E000BF00BF70BDE2
:1096D0002DE9F04104460F46A6882088102806D0C0
:1096E000112819D019283FD01A284AD118E00CF0B7
:1096F000E5F830460BF056FF30B900BF22A2F0214A
:109700000420FCF787FD06E0E07B022803D1314608
:109710002C4805F0E3FE34E030460CF0F3F830E07E
:10972000207A0509042D01DB012000E0002002461B
:10973000314624480C3002F043FD032D01DB0120AB
:1097400000E00020024631461E48083002F038FD95
:10975000022D01DB012000E00020024631461948BD
:10976000001D02F02DFD0CE0207A48B9607AC0F3AC
:10977000C0052A46314613480C3002F021FD00BFD7
:1097800000BF00BFBDE8F0812E2E5C2E2E5C2E2E79
:109790005C2E2E5C2E2E5C2E2E5C636F6D706F6EB9
:1097A000656E74735C626C655C636F6D6D6F6E5C2F
:1097B000626C655F636F6E6E5F73746174652E6358
:1097C000000000006C45002070B504460D4600BF47
:1097D0000748007800B970BD00BF204603F0E6FCE2
:1097E00020460FF0F5FC204602F0CCFF00BFF2E768
:1097F000A433002070B50446204611F019FA05463E
:10980000C5F3400070BD70B50446204611F010FA53
:10981000054605F0010070BD38B508F00BF80446A8
:1098200000BF25463DB100BF15A240F2C541284604
:10983000FCF7F0FC00BF00BF00200090694601204B
:1098400007F0F4FD044600BF25463DB100BF0CA261
:1098500040F2CB412846FCF7DDFC00BF00BF684664
:1098600007F0B4FE044600BF25463DB100BF04A288
:1098700040F2CF412846FCF7CDFC00BF00BF38BD09
:109880002E2E5C2E2E5C2E2E5C6D61696E2E63007A
:1098900070B504460D462E462088502804D1214636
:1098A000304609F001FF00E000BF00BF70BD0000BE
:1098B00001460148405C704779B9030010B5014684
:1098C000094B585C00BF4FF0A044234600BFD3F8BB
:1098D0001045C44004F001040CB1012000E0002058
:1098E000024682F0010010BD79B903007CB5002466
:1098F0000DE00848055D032600200090334602462F
:1099000001460190284606F0EFFD00BF641C032CC1
:10991000EFD37CBD79B9030010B5044604F0010013
:1099200008B100F04BF804F0020008B1FFF7DEFFC9
:1099300010BD000010B502460949885C00BF4FF019
:10994000A0442146D1F80435012484409C43C1F849
:109950000845012484401C40C1F80C4500BF10BDDF
:1099600076B9030010B504460249085D012106F0EE
:1099700009FF10BD76B9030010B504460249085D21
:10998000002106F0FFFE10BD76B9030010B50146B8
:10999000094B585C00BF4FF0A044234600BFD3F8EA
:1099A0000445C44004F001040CB1012000E0002093
:1099B000024682F0010010BD76B903007CB5002498
:1099C0000CE00948055D0020009003460122114685
:1099D0000190284606F088FD00BF641C032CF0D3DC
:1099E00000F004F87CBD000076B9030010B5002437
:1099F00003E02046FFF7B6FF641C032CF9D310BD2B
:109A000010B5002403E02046FFF7B6FF641C032CCA
:109A1000F9D310BD02464FF0FF30002106E0054BA0
:109A20005B5C934201D1084602E0491C0329F6D34E
:109A300000BF704779B9030070B505460C46002693
:109A40000648056014B1204610F074FB0448006815
:109A500010B9FEF775F80646304670BD6033002039
:109A60006433002010B5002000F0A2FB044600BFC4
:109A70001CB1062C01D0204610BD00BF012000F013
:109A800097FB044600BF1CB1062C01D02046F3E72B
:109A900000BF0020F0E700002DE9F04106460F4628
:109AA0004FF0000800243046FFF7B4FF0446032CB3
:109AB0003ED20FB3012F02D0022F38D130E004EB99
:109AC0004400214911F8008004EB44000844407828
:109AD00050B11E4A4FF480411D480068FEF732FB2A
:109AE00005460DB91948067004EB440016490844B0
:109AF0008078184908551AE015480068FEF73DFBC4
:109B00001448005D04EB44010F4A114489788842EF
:109B100005D104EB44001146084490F8028006E0A9
:109B200004EB44000849084490F8018000BF00BFDE
:109B3000B8F1000F06D00848006818B14046064941
:109B400009688847BDE8F081E04400205C330020CC
:109B500084B903005D3300205833002010B504465B
:109B6000032C03D22046FFF7A9FE10BD0020FCE71E
:109B700070B50546042D09D0072D1BD00A2D02D043
:109B8000102D4DD12FE00FF0EBFA4AE013212648BB
:109B9000008876DF0446082C0BD000BF26463EB175
:109BA00000BF22A240F215513046FCF733FB00BF44
:109BB00000BF36E01C4800884FF6FF71884211D183
:109BC0001E48FEF70EFF0446082C0BD000BF2646A9
:109BD0003EB100BF15A240F21F513046FCF71AFB00
:109BE00000BF00BF1DE0122000BF4FF0A043194688
:109BF000D1F80425012383409343C1F8083501239C
:109C000083401340C1F80C3500BF0D490D4A891A35
:109C1000C908032242EA01400BA107F0ADF800E0B9
:109C200000BF00BF70BD0000903100202E2E5C2EC2
:109C30002E5C2E2E5C6D61696E2E6300483500200F
:109C4000B8D60300F8D503006273705F6576656E61
:109C5000745F6B65795F320030B503460020032BDB
:109C600023D2012A07D1012903D103F10E04E4B262
:109C700000E00024224679B1012902D0022911D145
:109C800004E003EB43040A4D2A550DE003EB4304C3
:109C9000074D2C44627007E003EB4304044D2C4451
:109CA000A27001E0072000BF00E0072030BD0000E7
:109CB000E044002070B5044600250548007800F017
:109CC000010018B1204600F05BF80546284670BD3B
:109CD000503300202DE9F04105460F4600241F486F
:109CE00005601F48076005F0020000B3002606E08B
:109CF000012211463046FFF7AFFF0446761C032EC3
:109D000001D2002CF4D034B940F23332032115488B
:109D1000FEF74AF8044614B9FEF730F804462CB9A9
:109D2000114A00211148FEF7C7F9044600BF05F0AB
:109D3000010080B10120FFF7EFFD2CB90C4A002192
:109D40000C48FEF7B9F904462CB90B4A01210B481F
:109D5000FEF7B2F904462046BDE8F08150330020FA
:109D60005833002088B9030019A3020084B9030006
:109D7000CDE002007CB903005B7D020080B90300E6
:109D80002DE9F047044600260025F848007820B168
:109D90000020F649087004F085F9182C7ED2DFE81F
:109DA00004F00C16175085B9FDFBFAF9F8F7F6F533
:109DB000F4F3F2F1F0EFEEEDECEB04F073F9EC48B4
:109DC0000068FEF7DAF90646EA480470E9E100BFE8
:109DD0000120FFF7DBFD70B10120FFF7C3FD00207C
:109DE000FFF7C0FD022C02D14FF4E16001E04FF417
:109DF0007A6005460CE00120FFF7BEFD0020FFF76A
:109E0000BBFD022C01D1C82001E04FF4C87005460B
:109E1000D84804704FF40040A5FB00204FF47A733B
:109E2000D71840F100015A0000233846FCF7E8FA41
:109E3000814600224946CE480068FEF783F906466F
:109E4000AFE10120FFF7A2FD58B10120FFF78AFD25
:109E5000032C02D14FF4487001E04FF47A600546BC
:109E600009E00120FFF788FD032C01D1C82001E0A3
:109E70004FF4C8700546BF4804704FF40040A5FB7E
:109E800000104FF47A73CF1840F100015A000023FC
:109E90003846FCF7B5FA8146002200E080E14946E9
:109EA000B3480068FEF74EF906467AE10120FFF755
:109EB0006DFD58B10120FFF755FD042C02D14FF480
:109EC0007A6001E04FF47A6005460AE00120FFF76E
:109ED00053FD042C02D14FF4C87001E04FF4C87058
:109EE0000546A44804704FF40040A5FB00104FF451
:109EF0007A728F1840F10001520000233846FCF7B7
:109F00007FFA81460022494699480068FEF71AF90F
:109F1000064646E10120FFF739FD50B10120FFF769
:109F200021FD052C01D1C82001E04FF47A600546DF
:109F300009E00120FFF720FD052C01D1C82001E038
:109F40004FF4C87005468B4804704FF40040A5FBE1
:109F500000304FF47A729F1840F100015200002344
:109F60003846FCF74DFA8146002249468048006891
:109F7000FEF7E8F8064614E10DE106E100E1CBE06A
:109F80009CE096E063E061E05FE05DE05BE055E06F
:109F900045E035E025E015E00EE0FFE70120FFF7A2
:109FA000C9FC74480470002240F266617048006881
:109FB000FEF7C8F80646F4E00120FFF7DDFC6D4827
:109FC0000470EEE00120694908700220FFF7B2FC3E
:109FD000002240F2666166480068FEF7B3F8064664
:109FE000DFE00120614908700220FFF7A3FC002296
:109FF0004FF400515E480068FEF7A4F80646D0E032
:10A0000001205A4908700220FFF794FC002240F218
:10A01000666157480068FEF795F80646C1E00120E2
:10A02000524908700220FFF785FC00224FF40051CE
:10A030004F480068FEF786F80646B2E0FFF7E0FCFE
:10A040004C480470ADE000BF00BF00BF00BF4A48ED
:10A050000068FEF792F80646C4F1110515B30EBB71
:10A06000012D18D9A8B2C82148434FF4004180FB04
:10A0700001104FF47A73CF1840F100015A00002309
:10A080003846FCF7BDF98146002249463A48006847
:10A09000FEF758F806460020FFF76EFC012037490E
:10A0A000087005E00020FFF75DFC002033490870D0
:10A0B00077E003F0F7FF2F48047072E00020FFF70D
:10A0C00065FC40B10120FFF74DFC0020FFF74AFC82
:10A0D00040F6863506E00120FFF74EFC0020FFF732
:10A0E0004BFC3225234804704FF40040A5FB0030A0
:10A0F0004FF47A715F1840F100014FF4FA620023C7
:10A100003846FCF77DF98146002249461848006828
:10A11000FEF718F8064644E00020FFF737FC70B160
:10A120000020FFF71FFC0120FFF726FC002240F271
:10A1300033310F480068FEF705F8064612E00120AB
:10A14000FFF724FC18B10120FFF70CFC0AE0002007
:10A15000FFF712FC002243F2333105480068FDF797
:10A16000F1FF0646034804701BE000004D33002059
:10A170007CB903004C33002080B903005433002025
:10A1800003F090FF094804700BE00120FFF7F4FB97
:10A190000648047005E0FFF733FC0448047000E053
:10A1A00000BF00BF3046BDE8F08700004C33002000
:10A1B00010B504460121204610F0D9FE10BD000064
:10A1C0002DE9FC4704460D461646A71C4FF0010832
:10A1D0000020019001A8FDF7DAFF304840682860B0
:10A1E0002E4840682D498968411A2D480068401C56
:10A1F000A0EB010915E001212A4805F093F904F0CC
:10A2000063FA82465146274805F08CF92348406896
:10A2100022498968411A22480068401CA0EB0109C4
:10A2200000BF4F45E7D8B8F1000F30D000210091B2
:10A2300076B1009921F00301491C0091009921F0A9
:10A240000401091D0091009964F3891100910DE04A
:10A25000009921F00301891C0091009921F004016B
:10A26000091D0091009964F39F5100910B494968C1
:10A270000B4A12681140094A0C3202EB8100009926
:10A2800001600649496839440C3A516000BF9DF8A5
:10A290000400FDF783FF4046BDE8FC870451002021
:10A2A000BC3400202055002070B504460D460A2D10
:10A2B00003D10D212046FFF7F7FFA168481CA060DD
:10A2C00020684554D4E90110884202D3204605F0A5
:10A2D00046FD70BD0448806803494968884201D141
:10A2E000012070470020FCE70451002002460021B5
:10A2F00008E0074B1B6803EBC1000378934200D1D1
:10A300007047491C034800788142F2DB0020F7E7E0
:10A31000F8330020FC33002010B5044620780221D9
:10A32000FFF7BAFB10BD0000F8B50546154901203E
:10A33000FFF7D0FC044600BF26463EB100BF12A284
:10A3400040F265513046FBF765FF00BF00BF69462C
:10A350000020FFF771FB044600BF26463EB100BF58
:10A3600009A24FF4AD613046FBF754FF00BF00BFB8
:10A370009DF80000022801D1012000E00020287093
:10A38000F8BD0000719B02002E2E5C2E2E5C2E2E3E
:10A390005C6D61696E2E63007CB50446204603F057
:10A3A0004BF8054600236A46092109F03FFE0528BF
:10A3B00005D10122024801782046FEF707FD7CBD49
:10A3C000803300207CB504460E460020019042F602
:10A3D000A620ADF8040001208DF8060007480068AB
:10A3E00000906A4601A92046A0DF05462DB901224A
:10A3F000034801782046FEF7E9FC7CBDE4B9030080
:10A400008133002001468879012809D10879012883
:10A4100006D1488842F60212904201D101207047CD
:10A420000020FCE74FF0FF31054A42F820100828D1
:10A4300004DBFF23A0F108015032535470470000A1
:10A44000304A00200146024850F8210070470000C1
:10A45000304A00202DE9F04F03460C464FF0FF39FB
:10A460000AB1002000E0082084460AB1082000E07C
:10A470000C208046614624E0154850F82100401C1D
:10A48000F0B91D460846274616464FFA80FBDFF80E
:10A4900040A00AF1300A0AF805B0DFF834A04AF803
:10A4A00020704EB94FFA85FBA0F1080ADFF820E0D2
:10A4B0000EF1500E0EF80AB000BF4FFA81F902E01B
:10A4C000491C4145D8D300BF4846BDE8F08F000085
:10A4D000304A00200146014840567047604A00203B
:10A4E00070B590B006460C461546A07818B9012004
:10A4F0008DF80E0002E0A0788DF80E002088ADF8EF
:10A500000C0000200290607C02A90EF063FDA07C8C
:10A510000DF109010EF05EFDE07B08B1012000E0C5
:10A5200000209DF80A1060F3C3018DF80A10207C0A
:10A5300008B1012000E000209DF80A1060F304112A
:10A540008DF80A10207B08B1012000E000209DF862
:10A550000A1060F300018DF80A10207D08B1022076
:10A5600000E001209DF80A1060F342018DF80A1006
:10A570001C2109A8FBF7C1FF607BC0F3001018B9CC
:10A58000607BC0F34010F8B100200090E07C0DF13A
:10A5900001010EF01FFD00BF9DF8000020F00F002C
:10A5A000401C8DF800009DF8000020F0F0001030F5
:10A5B0008DF8000000BF9DF8020020F00600801C0E
:10A5C0008DF80200CDF838D0607B8DF82400A07B98
:10A5D0008DF82500142104A8FBF78FFF03A8049031
:10A5E00002A80590A088ADF81C00A06820B1E08802
:10A5F000ADF81800A0680890A069002849D0002094
:10A600000190A0690088ADF82C00A0694088ADF8E1
:10A610002E00A06940680A9001A80D90A169087BEE
:10A6200001A90EF0D7FCA169487B0DF105010EF0E0
:10A63000D1FCA069807A08B1012000E000209DF8DB
:10A64000061060F3C3018DF80610A069C07A08B146
:10A65000012000E000209DF8061060F304118DF841
:10A660000610A069007A08B1012000E000209DF8E2
:10A67000061060F300018DF80610A069807B08B118
:10A68000022000E001209DF8061060F342018DF8E1
:10A690000610E06908B1E0690C902B4604AA09A9EC
:10A6A0003046AADF10B070BD2DE9F04104460D46DA
:10A6B0004FF6FF76304684420AD14FF48071284627
:10A6C00004F0CDFE86B2B6F5807F10D126460EE0AE
:10A6D000FF2C0CDC2146284604F0AAFE80F001077E
:10A6E0000FB1204601E04FF6FF70064600BF30462E
:10A6F000BDE8F08170B505460DB9094C01E0084C84
:10A70000083409E0204603F08FFC064606B904E051
:10A7100028467168884700BFF4E700BF70BD00009D
:10A720000C4A002010B504462CB901200649487097
:10A730000020FFF7DFFF012C04D1012002498870BF
:10A74000FFF7D8FF10BD0000044A00202DE9F047B4
:10A75000024613468C46D3E90245DCE90267B6EBB4
:10A76000040877EB050002D30120BDE8F087002044
:10A77000FBE701468878012805D191F820000128DF
:10A7800001D100207047886A042802D0486A042852
:10A7900001D10020F6E70120F4E733B58BB0054680
:10A7A000002000900C9878B100240BE021460CA802
:10A7B00004F085FE28B1009A501C009001A820F8F2
:10A7C0001240641C142CF1D32C2269462846FBF756
:10A7D0006DFE0DB030BD01460888062808DB0888EC
:10A7E000B0F5486F06DD08884FF6FF72904201D041
:10A7F000072070474888062808DB4888B0F5486F6E
:10A8000006DD48884FF6FF72904201D00720F0E73E
:10A8100008884FF6FF72904208D04888904205D0D1
:10A8200008884A88904201DD0720E2E70020E0E73F
:10A830002DE9F04107460D46144698462088801DB4
:10A84000404502D90C20BDE8F0813846FFF7C3FF30
:10A85000064600BF304600B1F5E700BF052021885D
:10A8600068542088401C2080122021886854208849
:10A87000401C208022885119388810F0DFF9218887
:10A880000844208022885119788810F0D7F921884F
:10A89000084420800020D6E710B5044600BF04A27B
:10A8A00040F225412046FBF7B5FC00BF10BD00007B
:10A8B0002E2E5C2E2E5C2E2E5C6D61696E2E63003A
:10A8C00030B587B01C216846FBF717FE00200090CA
:10A8D0004FF4A03001904FF4F020029003208DF847
:10A8E0000C000020ADF80E008DF810000A4805900D
:10A8F0000A4806906846FEF787F9044600BF2546D9
:10A900003DB100BF06A240F23B412846FBF782FC66
:10A9100000BF00BF07B030BD692C030099A802003A
:10A920002E2E5C2E2E5C2E2E5C6D61696E2E6300C9
:10A93000F8B505460C46607A88B9207A10B91048F7
:10A94000476801E00E4887682A4639466068FDF787
:10A95000F9FB064616B130460DF04AFF0EE0002026
:10A9600020720748406948B101208DF80000ADF819
:10A970000250034841696846884700BFF8BD00009F
:10A9800044450020F0B585B004460D4617461E46E6
:10A9900014220B496846FBF789FDADF802408DF89B
:10A9A0000850ADF80A708DF80C6000220548017857
:10A9B0002046FEF70BFA684600F080FF05B0F0BDB8
:10A9C000D8BA0300B433002010B586B004462088FE
:10A9D00009F064F800BB2088FEF764F930B92088DC
:10A9E000012241F2060100F0DBFC15E02088002284
:10A9F0000A490978FEF7EAF902208DF80400208858
:10AA0000ADF8060000208DF80C0000218DF80D1027
:10AA100001A800F053FF00BF06B010BDB433002002
:10AA200010B5012200210846FFF716F9044600BFC1
:10AA30001CB1072C01D0204610BD00BF0722022107
:10AA40000120FFF709F9044600BF1CB1072C01D013
:10AA50002046F1E700BF042202210020FFF7FCF8A6
:10AA60000446122201210420FFF7F6F8044600BF35
:10AA70001CB1072C01D02046DEE700BF0020DBE739
:10AA800030B503460C4612B94FF6FF7100E011884D
:10AA90000846002110E0051245EA0025A8B25D5CD9
:10AAA0006840C0F30315684080EA0035A8B2050687
:10AAB0002D0D80EA4500491CA142ECD330BDF8B50C
:10AAC00005460E461446002206212046FFF7D8FF11
:10AAD0000090701C81006A4604F10800FFF7D0FF67
:10AAE0000090BDF80000A84201D10120F8BD00206F
:10AAF000FCE700002DE9FF4105460C4629492A4A9A
:10AB0000891AC908042242EA01402B46224627A19D
:10AB100006F048F9002002900390ADF80840ADF827
:10AB20000A40009001906A4602A9284690DF064636
:10AB3000002E32D0304607F033F8074619491A4A3A
:10AB4000891AC908012242EA01403B462A462349A4
:10AB500006F028F9BDF8000010B9BDF8020068B190
:10AB6000BDF80230BDF800200E490F4FC91BC908BF
:10AB7000012747EA01401AA106F014F9BDF80400C4
:10AB800058B1BDF804200749074BC91AC908012369
:10AB900043EA0140224906F0F9F8304604B0BDE826
:10ABA000F081000010D60300F8D5030055706461F1
:10ABB00074696E672064617461206C656E67746887
:10ABC00020746F202575206F6E20636F6E6E656335
:10ABD00074696F6E20307825782E000088C40300D9
:10ABE0005468652072657175657374656420545886
:10ABF0002F5258207061636B6574206C656E6774AA
:10AC00006820697320746F6F206C6F6E67206279A3
:10AC10002025752F2575206F63746574732E0000D1
:10AC2000D4C403002DE9F04105460F460F4C012125
:10AC3000204604F0AEFC064600BF00BF00BF00BFC8
:10AC4000BFF35F8F00BF00BF00BF0EB9012000E05F
:10AC5000002040B1284603F089FC08B1BDE8F0812E
:10AC6000024806F097FA00BFF8E7000078330020AA
:10AC700070B50D490D4A891AC908032242EA0140FC
:10AC80000BA106F079F80AF00FF9044600BF25463B
:10AC90003DB100BF0AA240F2FF412846FBF7BAFAD5
:10ACA00000BF00BF70BD0000B8D60300F8D5030098
:10ACB000457261736520626F6E647321000000004D
:10ACC0002E2E5C2E2E5C2E2E5C6D61696E2E630026
:10ACD00070B506460D4616B14FF4064070BD287992
:10ACE00020B1012809D0022815D111E002202871D5
:10ACF00028460AF0B5FC044610E0284601F00CFA9C
:10AD0000044648F20960844201D141F61D5405E031
:10AD100041F61D5402E048F20E6400BF00BF204619
:10AD2000DCE70000F0B587B004460D4617461E4626
:10AD300002948DF80C5000208DF80F008DF8100053
:10AD400003208DF8110000208DF80D008DF80E0005
:10AD500014208DF81800084805908DF804700E2016
:10AD60008DF805000BF02CFA3246022101A80BF0F9
:10AD70005FFA07B0F0BD00001833002070B5002462
:10AD80003AE00CB1002000E0022002460CB10020A5
:10AD900000E00220014609200CF084F8054601205D
:10ADA0000CF052F840200CF055F800200CF05EF842
:10ADB00013480CF069F80AF0A3FF0546114B012275
:10ADC0000A211148FFF7AEFF054695B90A210D4843
:10ADD000801C02F043F906460C490D4A891AC9083D
:10ADE000032242EA014032460AA105F0CFFF0120CA
:10ADF00070BD01240AF076FF002CC2D00020F7E7D6
:10AE000010350600503C00200E330020B8D6030059
:10AE1000F8D503004E46432041637469766520509F
:10AE200032502064657669636520666F756E642EA6
:10AE3000204E46434944333A2025730D0A00000052
:10AE40002DE9F0418046002414E01248006800EB30
:10AE5000C405287807F0ACF807466878012800D1C7
:10AE600000E00020784080F001062878314600F0AC
:10AE700053FC641C084800788442E6DB0748D0E9AC
:10AE80000010002359405840014301D00FF0F6FB59
:10AE9000BDE8F081F8330020FC33002008340020A6
:10AEA00070B500240D490E4A891AC908032242EAE6
:10AEB00001400CA105F060FF1420FEF7FBFE0446E4
:10AEC00000BF25463DB100BF0DA240F2A451284667
:10AED000FBF7A0F900BF00BF70BD0000B8D60300AB
:10AEE000F8D503006469616D6574657220646576E8
:10AEF00069636520737461727465642E00000000DC
:10AF00002E2E5C2E2E5C2E2E5C6D61696E2E6300E3
:10AF100070B5044620793D2802D141F23D0001E0A0
:10AF20004FF48850054620880022294603F068FA2D
:10AF300070BD000010B50021034804F02AFB044650
:10AF400084F3100010BD00002055002010B5044609
:10AF5000AF2221460448FBF7A9FAAF220249034871
:10AF6000FEF749FA002010BDD4480020C048002058
:10AF70007047000030B58DB0054600BF15B90E20F2
:10AF80000DB030BD00BF294928680861284B0FCBA0
:10AF90008DE80F002549684662DF044600BF204661
:10AFA00000B1EDE700BF214800788DF832000120A4
:10AFB000ADF830001D4A921C0CA9A8DF044600BF62
:10AFC000204600B1DCE700BF202104A8FBF795FA7A
:10AFD0000220ADF81000154800788DF8120001200D
:10AFE000ADF81600AF20ADF814009DF81D0020F05C
:10AFF0000200801C8DF81D009DF81D0020F010003F
:10B0000010308DF81D0001208DF821008DF82300EF
:10B01000064948888A1D04A9FFF762FA044600BF62
:10B02000204600B1ACE700BF2046A9E7C048002099
:10B0300018BB030070B505460C464FF4803000FA8B
:10B0400004F1284600F048FB70BD70B505460C467B
:10B050004FF4A07000EB840086B23146284600F021
:10B06000D3FB70BD2DE9F04704460D4616461F463A
:10B070004FF4803000FA05F84FF4A07000EB850023
:10B080001FFA80F926F07F464146206806F071F9E4
:10B090004146206806F05EF94946206806F050F9FE
:10B0A00032462946206806F03BF94146206806F002
:10B0B00057F91FB14146206806F061F9BDE8F087F5
:10B0C00010B50446206806F030F910BD2DE9F047B0
:10B0D00004460D4617466079324941F82070607980
:10B0E000314901EBC000007968B108262F49304A88
:10B0F000891AC908022242EA01402EA105F03CFE4D
:10B100003046BDE8F08729882068C0F8081500BFE0
:10B1100094F90420AB7810461946002808DB4FEA62
:10B12000417C4FEA1C68DFF8B0C00CF800800BE0EF
:10B130004FEA417C4FEA1C69DFF8A0C000F00F081D
:10B14000A8F104080CF8089000BF00BF94F904109F
:10B15000084600280DDB00BF00BF00F01F030122DE
:10B160009A4043099B0003F1E023C3F8002100BF8C
:10B1700000BF00BF00BF012061790B4A02EBC10193
:10B1800008716079114641F8304000260749084AA5
:10B19000891AC908032242EA014011A105F0ECFD19
:10B1A0003046AEE7343400203834002098D603000F
:10B1B000F8D5030052544320696E7374616E636561
:10B1C00020616C726561647920696E697469616C73
:10B1D000697A65642E00000000E400E018ED00E0EC
:10B1E0005254433A20696E697469616C697A656486
:10B1F0002E00000010B5014691F90400002807DB7D
:10B2000000F01F0301229A40024B440943F8242016
:10B2100000BF10BD00E200E070B505460C462246B6
:10B220000221284600F064FA70BD10B504464FF4C0
:10B230008271204600F0E8FA10BD10B504460021E6
:10B24000206806F0A7F810BD10B504460421206858
:10B2500006F0A0F810BD2DE9F84F044688461546C3
:10B2600099464FF4803000FA08FA4FF4A07000EBD2
:10B2700088001FFA80FB25F07F455146204600F0EC
:10B280002BFA206806F051F806464146206806F081
:10B2900041F8009032464146206806F041F8594690
:10B2A000206806F04DF8314600980FF06BF8012841
:10B2B00006D1102006F062FD5946206806F040F8DD
:10B2C000206806F032F80646314628460FF05AF854
:10B2D00007465146206806F043F8012F0FD16A1C3B
:10B2E0004146206806F01CF8102006F047FD206853
:10B2F00006F01BF8B04225D00D20BDE8F88F2A4695
:10B300004146206806F00CF8206806F00EF8064664
:10B31000681E31460FF036F807466FF07F40A0EB0D
:10B320000900B84201D20D20E7E75FB96A1C414627
:10B33000206805F0F5FF206805F0F7FFB04201D066
:10B340000D20DAE701225146204600F0D1F9002015
:10B35000D3E7000010B504460549064A891AC90812
:10B36000042242EA0140224603A105F00FFD10BD70
:10B37000B8D60300F8D5030044756D6D7920657665
:10B38000656E742068616E646C65722072656365B9
:10B3900069766564206576656E742030782578005E
:10B3A00070B506460C4615462B462246002130460F
:10B3B000FFF7E8FA70BD000010B510480068407E45
:10B3C00060B106210120FDF717FF044624B10B48A8
:10B3D0000068416903208847002010BD012007490B
:10B3E0000968087601210846FDF706FF04461CB1EE
:10B3F00000200249096808762046EEE7D033002095
:10B400002DE9F84305460E4617469846694610480A
:10B41000006803F0C6FF044614B90420BDE8F883B1
:10B420001C212046FBF769F8012020712560C4F833
:10B43000088008480068B6FBF0F0E0606761694684
:10B440000348006803F0D7FF0AF02CF80020E5E776
:10B45000BCBD0300B0BD030010B50446D4E9032110
:10B46000501828DF10BD704730B58DB0054600BFBD
:10B4700015B90E200DB030BD00BF294928680861FC
:10B48000284B0FCB8DE80F002549684662DF044644
:10B4900000BF204600B1EDE700BF214800788DF8DD
:10B4A00032000120ADF830001D4A921C0CA9A8DF23
:10B4B000044600BF204600B1DCE700BF202104A8FD
:10B4C000FBF71BF80220ADF81000154800788DF846
:10B4D00012000120ADF816000220ADF814009DF80E
:10B4E0001D0020F00200801C8DF81D009DF81D003D
:10B4F00020F0100010308DF81D0001208DF8210083
:10B500008DF82300064948888A1D04A9FEF7E8FF44
:10B51000044600BF204600B1ACE700BF2046A9E7C3
:10B520008449002028BB03000278072A38D2DFE8CC
:10B5300002F037040712222B340000220A7030E098
:10B5400001220A7003898B818388CB81C2688A605B
:10B5500000230B7425E002220A7003898B81838803
:10B56000CB81C2688A60827D062A01D1012300E076
:10B5700000230B7415E003220A70C3888B810389B2
:10B58000CB81C2688A600CE004220A70C3888B8178
:10B590000023CB8100228A6003E005220A7000E0CC
:10B5A00000BF00BF7047000070B50546002409E0E9
:10B5B000064850F8240020B1044850F824102846CA
:10B5C0008847641C042CF3D370BD0000F44B0020AA
:10B5D00030B587B004460D462068806808B907B0CA
:10B5E00030BD182101A8FAF788FF0295A0680690DF
:10B5F000207910B1012815D109E001208DF804004F
:10B6000020690390E0680490606905900BE00220D7
:10B610008DF804000749E0680968484303906069B1
:10B62000059000E000BF00BF2068816801A888473E
:10B6300000BFD4E7B0BD0300F0B585B005460C46A9
:10B640001646002C3ED0112C3CD0082C3AD00D2CA4
:10B6500024D11D491D4A891AC908022242EA014023
:10B660002A461B4905F092FB2A460321684603F04F
:10B67000A5FA2EB1307800F0010008B1012000E0F9
:10B6800002208DF8080000218DF80C1041F2011104
:10B69000ADF80A10684600F025F913E0204606F0E0
:10B6A0007FFA07460849094A891AC908012242EA6D
:10B6B00001402B463A46074905F074FB21462846CF
:10B6C0000DF004F905B0F0BD40D60300F8D5030035
:10B6D0002CCB03003CCC030070B504460D46294634
:10B6E000206805F037FE2946206805F042FE70BD4F
:10B6F00070B504460E4615463146206805F030FE0A
:10B700001DB13146206805F03AFE70BD10B5044603
:10B71000204600F0E7F810BDF8B505460C4628466F
:10B720000EF01CFD05286AD2DFE800F003212A395B
:10B730003F00DCB1012128460EF020FD00200090E2
:10B740006846FCF724FD2A46012600273046394684
:10B75000FAF787FE2B4AD2E9003218431143294AEF
:10B7600003C29DF80000FCF719FD00BF47E00CB1D3
:10B77000022000E00020014628460EF0FFFC3EE0DB
:10B7800044B1032128460EF0F9FC012128460FF0B0
:10B790004DFB03E0012128460EF0F0FC2FE01CB920
:10B7A000042128460EF0EAFC29E024B103212846B2
:10B7B0000EF0E4FC22E0002128460EF0DFFC002120
:10B7C00028460FF033FB002000906846FCF7DFFCB2
:10B7D0002A460126002730463946FAF742FE0A4635
:10B7E000C143D043074B0CCB11401840054AC2E976
:10B7F00000109DF80000FCF7D1FC00BF00BF00BFA7
:10B80000F8BD00000834002070B505460C462868D5
:10B81000015929B12146286805F092FD012070BD2B
:10B820000020FCE770B50446608801F005FEA080AA
:10B83000002505E0044850F82510204688476D1C77
:10B84000002DF7D070BD00007033002070B50446A5
:10B85000A08801F021FD6080002505E0044850F833
:10B860002510204688476D1C002DF7D070BD0000C4
:10B870008433002070B50546002405E0044850F8E4
:10B88000241028468847641C022CF7D370BD0000A2
:10B8900024BA030070B50546002405E0054850F8B9
:10B8A000241028468847641C034800788442F5DB4E
:10B8B00070BD000074480020B233002070B504460B
:10B8C000608801F0B9FDA080002505E0044850F82B
:10B8D0002510204688476D1C002DF7D070BD000054
:10B8E00098BA030070B50546002405E0044850F8F6
:10B8F000241028468847641C002CF7D070BD000037
:10B9000010BB030010B50446207820B1012808D0F0
:10B91000032822D113E0606810B901201049087093
:10B920001CE0606850B9A2890E490F4BC91AC908BA
:10B93000032343EA01400DA105F028FA0EE06068F8
:10B9400050B9A2890749084BC91AC908032343EA19
:10B95000014009A105F01AFA00E000BF00BF10BDC8
:10B960009A310020B8D60300F8D503003A093078A0
:10B97000253034780000000044656C65746520460D
:10B98000696C652049443A093078253034780000E4
:10B9900010B586B00446142101A8FAF7AEFDA089BF
:10B9A00000F0D4FBADF80800207806285ED2DFE86E
:10B9B00000F05D0304052E4A00BF00BFA08900F01F
:10B9C000CAFB18B9E08909F06CFFF8B1E08909F009
:10B9D00065FF8DF80C002078032801D1012100E0DB
:10B9E00000218DF80D10A1680491606830B908201D
:10B9F0008DF8040001218DF8141004E009208DF861
:10BA000004006168059101A808F05CFA2FE0A089A4
:10BA100000F0A1FBB0B1E089A0B9606838B90A2094
:10BA20008DF80400BDF8080008F09CFC04E00B2031
:10BA30008DF804006068039001201149087001A886
:10BA400008F040FA13E0606818B913208DF804007C
:10BA500004E014208DF80400606803904FF6FF7036
:10BA6000ADF8080001A808F02DFA00E000BF00BF03
:10BA70000348007808B108F0BBFB06B010BD000019
:10BA80009133002038B505461048007810B948F2C7
:10BA9000016038BD4FF6FF70854202D148F2036065
:10BAA000F7E7684609F0DEFB044614B948F2076080
:10BAB000EFE70520207001202071E580684609F03D
:10BAC000E1FB09F0E3FC0020E3E700004034002044
:10BAD00038B50E48007810B948F2016038BD6846A4
