:020000040002F8
:10600000807E0020DD630200E5630200E76302009A
:10601000E9630200EB630200ED6302000000000090
:10602000000000000000000000000000EF6302001C
:10603000F163020000000000F3630200F563020058
:1060400099660200F76302008D6C0200C9690200C4
:10605000F7630200F7630200C5650200F763020000
:10606000F7630200F7630200F763020011690200A0
:10607000F7630200F7630200F7630200F7630200B0
:10608000F763020025690200F7630200F76302006C
:10609000F7630200F7630200DD690200F7630200A4
:1060A000F7630200F7630200F7630200F763020080
:1060B000F7630200F7630200000000000000000028
:1060C000F7630200F7630200F7630200F763020060
:1060D000F7630200F7630200F763020000000000AC
:1060E00000000000000000000000000000000000B0
:1060F00000000000000000000000000000000000A0
:10610000000000000000000000000000000000008F
:10611000000000000000000000000000000000007F
:10612000000000000000000000000000000000006F
:10613000000000000000000000000000000000005F
:10614000000000000000000000000000000000004F
:10615000000000000000000000000000000000003F
:10616000000000000000000000000000000000002F
:10617000000000000000000000000000000000001F
:10618000000000000000000000000000000000000F
:1061900000000000000000000000000000000000FF
:1061A00000000000000000000000000000000000EF
:1061B00000000000000000000000000000000000DF
:1061C00000000000000000000000000000000000CF
:1061D00000000000000000000000000000000000BF
:1061E00000000000000000000000000000000000AF
:1061F000000000000000000000000000000000009F
:10620000DFF80CD000F0A0F9004800471DD20200D2
:10621000807E002000B583B002900091019244F28C
:10622000010071466A4601F077FA03B000BD000034
:1062300030B450E8012F93B2C48923448489A34227
:1062400028BF1B1B0489A34202BFBFF32F8F00206E
:1062500007E0C3EA020340E80134002CE9D14FF023
:1062600001000A6030BC704750E8012FC2EA0242C8
:1062700040E801210029F7D1704730B450E8022FDF
:106280001FFAA2F3C488A34202BFBFF32F8F0020DE
:106290000DE0C48923448489A34228BF1B1BC2EAA2
:1062A000034340E80234002CE8D14FF001000A60BB
:1062B00030BC704750E8022FC2EA224240E8022177
:1062C0000029F7D17047034653E8022FD988B2EB73
:1062D000324F4FF0000017BF92B241EA014142EA4B
:1062E000014104E05A68B2EB324F08BF012043E895
:1062F0000212002AE8D1704730B4044654E8000F77
:106300000D4644E80053002BF8D1156030BC7047AF
:1063100030B4044654E8000F40EA010544E8005355
:10632000002BF7D1156030BC704730B4044654E8F8
:10633000000F00EA010544E80053002BF7D1156077
:1063400030BC704730B4044654E8000F80EA0105C1
:1063500044E80053002BF7D1156030BC704730B4CF
:10636000044654E8000F00EB010544E80053002BFD
:10637000F7D1156030BC704730B4044654E8000FC4
:10638000A0EB010544E80053002BF7D1156030BCA9
:10639000704770B404464FF0000054E8006F0D6879
:1063A000AE4207BF44E80023012044E800630E60CA
:1063B000002B1CBF0020F0E770BC704730B40446CF
:1063C00054E8000F88422CBF451A054644E80053A4
:1063D000002BF5D1156030BC70470000064880479F
:1063E00006480047FEE7FEE7FEE7FEE7FEE7FEE7BA
:1063F000FEE7FEE7FEE7FEE7F56902000162020044
:106400002DE9F05F0546002092469B4688460646E9
:10641000814640241BE0284641464746224600F07C
:1064200082F853465A46C01A914110D31146184675
:10643000224600F016F82D1A67EB01084F46224657
:106440000120002100F00DF817EB00094E41201E3D
:10645000A4F10104DFDC484631462A464346BDE844
:10646000F09F202A04DB203A00FA02F10020704756
:106470009140C2F1200320FA03F319439040704782
:1064800000487047B899030010B5431A934209D2E7
:106490008318881803E010F8011D03F8011D521E2F
:1064A000F9D210BD40EA01039B0703D009E008C9F7
:1064B000121F08C0042AFAD203E011F8013B00F8C9
:1064C000013B521EF9D210BDD2B201E000F8012BFF
:1064D000491EFBD270470022F6E710B513460A4664
:1064E00004461946FFF7F0FF204610BD421C10F885
:1064F000011B0029FBD1801A704730B504460020EB
:10650000034600E05B1C934203D2E05CCD5C401B81
:10651000F8D030BD034611F8012B00F8012B002AFA
:10652000F9D118467047202A04DB203A21FA02F0FC
:106530000021704721FA02F3D040C2F120029140BD
:106540000843194670470000064C074D06E0E06816
:1065500040F0010394E8070098471034AC42F6D3AA
:10656000FFF752FE24AE030044AE030070B58C1852
:1065700010F8015B15F0070301D110F8013B2A1157
:1065800006D110F8012B03E010F8016B01F8016B44
:106590005B1EF9D12B0705D40023521E0DD401F840
:1065A000013BFAE710F8013BCB1A921C03E013F809
:1065B000015B01F8015B521EF9D5A142D8D300203E
:1065C00070BD00002DE9F84F0026002000904FF428
:1065D00080770125002410E0384608F01DFB40B10B
:1065E00000BF25480068284018B1384608F006FB6F
:1065F0002E436D00381D87B2641C082CECD34FF479
:10660000BE7008F009FB50B14FF4BE7008F0F6FA06
:1066100046F000466A460121002008F04BFAF0B22D
:1066200010B3012500241DE005EA0600C0B100BF3B
:10663000124850F82400C0F30420814600BF0F48E0
:1066400050F82400C0F301408246204603F0E2F8EF
:106650008046B8F1000F02D051464846C04700BFFF
:106660006D00641C082CDFD306F0004010B16846B2
:106670000CF006FCBDE8F88F046300401065004094
:1066800010B5142009F00EFD10BD10B50121142025
:1066900009F032FD10BD000010B54FF4807007F016
:1066A00072FC80B14FF4807007F076FC012007F097
:1066B0007DFC0D48407930B901200B4948710846EE
:1066C0000168002088474FF4827007F05CFC50B1ED
:1066D0004FF4827007F060FC022007F067FC02486C
:1066E00001680120884710BD4C2300202DE9F04FA0
:1066F000ABB04FF0000B002026904FF004084FF095
:1067000004090220049003240DF02CFC0DF0C0F9C4
:1067100026AA27A901200DF069FB0546002D7DD191
:106720009DF89800002879DD0DF19E0102200DF002
:106730006DFD05460DF19E06F71D06E096F800A0DA
:10674000387806F8010B07F801A9BE42F6D34FF0DE
:10675000010B08210DF19E0005F0CAFA4C494D4A83
:10676000891AC9080322039042EA01404AA1039A08
:1067700008F024FD002D34D105A8802106AB424647
:10678000CDE90010002104980DF0E2FC0546F5B9B2
:10679000BDF81400411E0DF1190005F0A9FA3C499D
:1067A0003C4A891ACA080321039041EA024044A1E5
:1067B000039A08F003FD9DF81A00401CC0B28DF842
:1067C0001A009DF81900401EC0B28DF819000DF195
:1067D000190342460021CDF8009004980DF050FDB9
:1067E000054605A8802106AACDE900210290601E79
:1067F000C3B24246002104980DF03CFC0546002D32
:1068000040D1BDF81400411E0DF1190005F070FAD9
:106810001F49204A891AC908032200E033E0039087
:1068200042EA014030A1039A08F0C8FC601E04212E
:1068300001EB800006A9085C401CC1B2601E042266
:1068400002EB800006AA1154601E032101EB8000B8
:1068500006A9085C401EC1B2601E032202EB800044
:1068600006AA1154601E012101EB800006A94318FD
:1068700008EB0400401EC2B20021CDF8009004983D
:106880000DF0FEFC00BF58462BB0BDE8F08F0000B5
:106890001CAF030064AE030049534F313536393322
:1068A0002F4E46432D56206361726420666F756ECD
:1068B000642E205549443A2025730D0A000000003B
:1068C00049534F31353639332F4E46432D562063C9
:1068D00061726420626C6F636B2034206461746148
:1068E0003A2025730D0A000049534F3135363933AC
:1068F0002F4E46432D56206361726420626C6F6395
:106900006B732020646174613A2025730D0A0000C6
:1069100010B503220021024805F0A8FE10BD0000BA
:1069200000B0004010B5034A1068034A1168884758
:1069300010BD0000A8230020A423002010B500F003
:10694000ADF910BD2DE9F047074688461646C24608
:1069500007EB47011B4800EBC109D9F8140020B12F
:10696000012811D0022826D11EE0484600F0CEF9B9
:106970000546B54201D2002405E034463246514670
:10698000484600F00AFA18E0484600F0BFF905460C
:10699000B54201D2284600E0304604462246514620
:1069A000484600F0FAF908E032465146484600F001
:1069B000BBF9044601E0002400BF00BF2046BDE84B
:1069C000F0870000103C002010B50249024805F095
:1069D0003AFE10BD683300200030004010B509F0C9
:1069E0001BF910BD01480249086070470090D003B0
:1069F0007424002010B506F08DFE28B1924800885E
:106A0000C0F304209149086006F0DCFE10B1904804
:106A10009049486706F012FF30B18B48E0380068B3
:106A2000C0F342308C49086006F034FF28B18B482F
:106A3000006820F080708949086006F049FF48B17D
:106A40000020874908604FF08041C1F81001824959
:106A5000091F086006F068FF18B103207E49643101
:106A6000086006F07FFF68B105207E4908600120BC
:106A70007C497831086000207A49083108603F205D
:106A8000091F086006F08CFF002855D06E48E030E2
:106A90000068754908606C48E4300068091D0860AA
:106AA0006948E8300068091D08606748EC300068F4
:106AB000091D08606448F0300068091D08606248DC
:106AC000F4300068091D08605F48F83000686649C6
:106AD000203108605C48FC300068091D086063488C
:106AE0000068091D08606148001D0068091D0860F4
:106AF0005E4808300068091D08605C480C3000687A
:106B0000091D086059481030006857494031086035
:106B1000564814300068091D086054481830006851
:106B2000091D086051481C300068091D08604F4865
:106B300020300068091D086006F0C0FD30B14248F1
:106B4000CC38006800F04F004949086006F00EFE9E
:106B500040B14848006800F0010018B16FF0010032
:106B60004449086006F04CFE28B14348006840F4F0
:106B700080604149086039487438006840F470000A
:106B800036497439086000BF00BF00BFBFF34F8FA4
:106B900000BF00BF00BF00BF00BF00BFBFF36F8FCB
:106BA00000BF00BF00BF3548006800F0004028B9B2
:106BB0003248001D006800F00040E8B30120304971
:106BC000086000BF2F4800680028FBD015202B4923
:106BD000086000BF2B4800680028FBD0152127481B
:106BE000001D016000BF274800680028FBD000207E
:106BF0002349086000BF234800680028FBD000BF7D
:106C000000BF00BF00BF00BFBFF34F8F00BF00BF7A
:106C100000BF1248F038006800F4E0601A490843E9
:106C2000001D0E49F039086000BF00BF00BFBFF370
:106C30004F8F00BF00BF00E003E000BF00BF00BFF8
:106C4000FDE7FFF7CFFE10BD2403001040350140E3
:106C50000DF0ADBA00C007403C050040FCED00E07F
:106C60000C0100401056004020C5004024040010D4
:106C7000E40E0040000400403C17004000120010E9
:106C800004E5014000E401400000FA0510B50249A6
:106C90000868804710BD00005423002010B5124C36
:106CA00002202061606111A0A0611349E1614FF4ED
:106CB000007121620021A1626162E1620BA0A06407
:106CC0000E49E164102121650021A1656165E1653E
:106CD0000BA1E01DFFF71EFC0AA12046FFF71AFCDE
:106CE0002020A07110BD0000F83B00205465726D9B
:106CF000696E616C00000000703C0020703E002056
:106D000052545400534547474552000010B50146C0
:106D10000A69CB689A4204D88C68641EE41AA018E9
:106D200001E0D41A601E10BD2DE9F04704468946E3
:106D300017464FF0000AE56800BFD4F81080A84558
:106D400003D9A8EB0500461E04E0A5EB0800401C93
:106D5000A1680E1AA068401BB04201D9304601E07C
:106D6000A068401B0646BE4201D2304600E03846CD
:106D700006466168481932464946FFF785FBB2442A
:106D8000B144BF1B3544A068A84200D10025E5608E
:106D9000002FD2D15046BDE8F0872DE9F0470446D8
:106DA00089461546E668A068871BAF4208D9616826
:106DB00088192A464946FFF767FB7019E06010E022
:106DC000B8466168881942464946FFF75DFBA5EB66
:106DD000070809EB070142466068FFF755FBC4F856
:106DE0000C80BDE8F08700000FB4084B10B504A973
:106DF00002AA039800F03EF8044602A9002000F021
:106E00006AFA204610BC5DF814FB0000D77202003D
:106E100002E008C8121F08C1002AFAD17047704763
:106E2000002001E001C1121F002AFBD170470000C1
:106E30000146202908DA012088400A4A104008B19A
:106E4000012070470020FCE7402909DAA1F1200069
:106E5000012202FA00F008B10120F2E70020F0E779
:106E60000120EEE7FC06FFBD00BFEFF310810846EE
:106E700072B670472DE9FF4F8DB00F4605460026CC
:106E800006E025280BD0DDE90F1290476D1C761C1B
:106E900028780028F5D111B03046BDE8F08F0024E5
:106EA000A246A1460122EC4900E0044315F8013F47
:106EB000203B02FA03F00842F7D128782A2810D0A4
:106EC0006FF02F022878A0F13001092914D80AEBBD
:106ED0008A0102EB410144F0020400EB010A6D1C3F
:106EE000F0E701CF5FEA000A03D544F40054CAF189
:106EF000000A44F002046D1C28782E2817D115F8DA
:106F0000010F44F004042A280ED06FF02F022878D5
:106F1000A0F1300109290AD809EB890102EB4101EE
:106F200000EB01096D1CF2E757F8049B6D1C2878F3
:106F30006C280FD006DC4C2817D068280DD06A28A2
:106F400014D104E0742810D07A280FD10DE044F455
:106F500000140AE044F4801401E044F44014697819
:106F6000814202D104F580146D1C6D1C2A786E2AB2
:106F70001FD00CDC632A31D004DC002A8BD0582AC5
:106F800011D1A3E0642A68D0692A0CD165E0732A84
:106F90002ED004DC6F2A73D0702A04D19BE0752AAE
:106FA0006FD0782A6ED01046DDE90F129047761C1C
:106FB00050E1C4F30250022806D0032809D0042867
:106FC00001CF09D0066045E101CFF117C0E90061AA
:106FD00040E101CF06803DE106703BE117F8040B6C
:106FE0008DF8000000208DF80100EB46012003E041
:106FF00057F804BB4FF0FF3061074FF0000102D497
:107000000DE008F10101884649450FDA8045F8DBBB
:107010001BF808100029F4D108E008F101018846A6
:107020008142FADB1BF808100029F6D1DDE90F23B5
:10703000AAEB08008146214600F036F9304400EB07
:10704000080604E0DDE90F121BF8010B9047B8F1C8
:107050000108F7D221464846F7E00A21C4F302535B
:107060004FF0000B0891022B04D001CFC117032B66
:1070700009D00AE0FF1D27F00707F7E8020108E042
:1070800032E01FE020E000B2C117042B01D140B272
:10709000C117031E71F1000307DA4FF0000CD0EBAB
:1070A0000C006CEB01012D2302E0230504D52B23FA
:1070B0008DF82430012303E0E30701D02023F7E714
:1070C000984658E00A2110E010210EE010204FF001
:1070D000000B08900CE010214FF0000B44F004046A
:1070E0004FF00809089103E008214FF0000B0891C8
:1070F000C4F30253022B04D001CF0021032B06D08E
:1071000006E0FF1D27F00707F7E8020103E080B261
:10711000042B00D1C0B24FF0000823072BD5702AF2
:1071200007D0DDF820C08CF0100C5CEA0B0C05D009
:107130000EE040238DF82430012308E050EA0103DB
:1071400006D030238DF824308DF825200223984670
:10715000DDF820C08CF0080C5CEA0B0C0BD150EA77
:10716000010301D1630706D530238DF824304FF099
:107170000108A9F10109582A04D038A20B9208AAE3
:107180000A920BE03AA2F9E75B46089AFFF738F952
:107190000B9B9B5C0A9A521E0A92137050EA0102E2
:1071A000F2D10A98ADEB000000F1200B600702D588
:1071B00024F4803401E04FF00109D94502DDA9EB48
:1071C0000B0000E0002000EB0B0141440890AAEB0B
:1071D000010AE00306D4DDE90F232146504600F002
:1071E00063F806444FF0000908E009A911F8090006
:1071F000DDE90F12904709F10109761CC145F4DB66
:10720000E0030CD5DDE90F232146504600F04CF891
:10721000064404E0DDE90F1230209047761C0899FF
:10722000481E08900029F5DC08E00A980A990078C1
:10723000491C0A91DDE90F129047761CBBF1000151
:10724000ABF1010BF1DC21465046DDE90F2300F0E4
:1072500019F806446D1C1BE6092801003031323351
:107260003435363738396162636465660000000082
:10727000303132333435363738394142434445466C
:10728000000000002DE9F041044600251E46174687
:10729000880404D405E039462020B0476D1C641EE4
:1072A000F9D52846BDE8F0812DE9F04104460025D6
:1072B0001E469046C80301D5302700E020278804E9
:1072C00004D505E041463846B0476D1C641EF9D52B
:1072D0002846BDE8F0810A68531C0B6010707047A7
:1072E00070B505460C4605B10CB9002070BD287874
:1072F00040082178B0EB510F01D00020F6E70622BC
:10730000611C681CFFF7F9F808B90120EEE70020BE
:10731000ECE7014601F0030008B9012070470020A6
:10732000FCE7024650680068401E084008B901208A
:1073300070470020FCE70246002104E0505C08B1E1
:1073400001207047491C0629F8D30020F9E710B541
:107350000346D868884206D88818401E1C69A04297
:1073600001D8012010BD0020FCE7000010B5044644
:107370006CB10848C068A04209D806480069A0421C
:1073800005D3204605F01DFA08B1012010BD0020EC
:10739000FCE700008024002070B504460D4604F28E
:1073A0002740FFF7C8FF0646012D06D0022D0DD05D
:1073B000032D11D0042D19D113E0A07928B194F830
:1073C000240010B90EB1012070BD00BFE07910B1EA
:1073D0000EB10220F8E700BF207A08B10320F3E7DE
:1073E00000BF607A08B10420EEE700BF0020EBE7A1
:1073F0000146481C052290FBF2F302FB1300C0B2C9
:107400007047014691F82420012A01D1EE2000E0C6
:107410001F20704710B501220221002001F054FE08
:10742000044600BF1CB1072C01D0204610BD00BF90
:1074300007220221012001F047FE044600BF1CB1D3
:10744000072C01D02046F1E700BF0A2200210846A0
:1074500001F03AFE044600BF1CB1072C01D02046C3
:10746000E4E700BF10220121022001F02DFE0446B6
:1074700000BF1CB1072C01D02046D7E700BF002079
:10748000D4E7000030B5B3B0AC2108A8FFF723F86B
:1074900004A86DDF044600BF25463DB100BF24A20D
:1074A00040F2CD312846FEF7B5FE00BF00BF0020F8
:1074B00007E0C0F105020DF11101895C06AA115423
:1074C000401C0628F5DB3320ADF8040006A9039123
:1074D0000620ADF8080002208DF8200001A81190C8
:1074E00000208DF8220006208DF8230001218DF860
:1074F0009C104FF4F0712A9144F250612B91104886
:10750000319008A90F4800F0C0FD044600BF254691
:107510003DB100BF06A240F2E7312846FEF77AFEF1
:1075200000BF00BF0121074800F0ACFD33B030BD03
:107530002E2E5C2E2E5C2E2E5C6D61696E2E6300ED
:10754000A10A0300B824002070B50446012C02D122
:1075500002F03CFD1BE003210D4800F05DFE0546F6
:1075600000BF2E463EB100BF0AA240F22A4130467B
:10757000FEF750FE00BF00BF0A490B4A891AC9082E
:10758000042242EA014009A107F00EFE00BF70BDCF
:10759000B82400202E2E5C2E2E5C2E2E5C6D616990
:1075A0006E2E63001CAF030064AE03004164766579
:1075B00072746973696E6720737461727465642E86
:1075C0000000000070B58CB004460D461646002041
:1075D00005E0C0F10F01615C0DF80010401C10289F
:1075E000F7D30D2104A8FEF776FF002005E02A5C02
:1075F000C0F10F0304A9CA54401C0328F7D36846FE
:1076000046DF002005E0C0F10F0208A9895C315473
:10761000401C0328F7D30CB070BD10B50446002001
:1076200001F0C0FB10BD000010B50446024801780F
:10763000204600F077FF10BD2323002010B5002462
:1076400007E00749096811F83400012108F054FDEA
:10765000641C044800788442F3D3002010BD00006D
:10766000682300206C2300202DE9F84306460D46D0
:1076700017460A2F02D20720BDE8F88308F080FEE3
:1076800038B908F013FE044600BF204600B1F3E706
:1076900000BF184806601848057018480760184869
:1076A0000021016041608160C160164A1160516033
:1076B00015E006EBC50814480068009098F8020031
:1076C0008DF8010098F80000104A694608F06AFD3C
:1076D000044600BF204600B1CEE700BF00BF281E11
:1076E000A5F10101CDB2E4D1094A0021094800F019
:1076F00043F9C1E7682300206C2300207023002099
:10770000B033002078230020049603007DB90200E6
:1077100081A00200009603002DE9FE4307460E46B5
:10772000144672B600BF07F033FE00BF00BF07F07B
:10773000ADFB0028FBD100BF00BF012F0CD06FF4C0
:107740008050384498B1B0F5405F2CD06FF4405170
:107750000844002847D115E03149324A891AC9083E
:10776000012242EA014030A107F01EFD47E02C490A
:107770002C4A891AC908012242EA014032A107F0C5
:1077800013FD3CE025462649DFF898C0A1EB0C012B
:10779000C9084FF0010C4CEA014034A1D5E9003290
:1077A00007F018FD2BE02546A86808F0A7FB8046E7
:1077B000D5E900108DE8430019491A4BC91AC908C8
:1077C000012343EA014043462FA1AA6807F026FDA2
:1077D0001349144A891AC908012242EA014034A116
:1077E00007F0E2FC0BE00E490E4A891AC908012293
:1077F00042EA0140324633A107F0E0FC00BF00BF7F
:1078000000BF3648006800F0010000B100BE00BFB4
:1078100022463146384600F063F8BDE8FE8300009A
:107820001CAF030064AE0300534F46544445564911
:1078300043453A20415353455254494F4E20464107
:10784000494C454400000000534F465444455649B6
:1078500043453A20494E56414C4944204D454D4FF1
:10786000525920414343455353000000415353456F
:107870005254494F4E204641494C454420617420A2
:1078800025733A25750000004552524F5220257548
:10789000205B25735D2061742025733A25750D0AE0
:1078A00050432061743A2030782530387800000049
:1078B000456E64206F66206572726F72207265700B
:1078C0006F727400554E4B4E4F574E204641554CEB
:1078D000542061742030782530385800F0ED00E0F5
:1078E00018B5012300939DF800301E4B18605960B5
:1078F0009A606FF48043034463B1012B19D1194B93
:10790000DA60DB681B68174CA3612346DB685B68A1
:10791000E3610EE0134B1A611B699B68114C6361B4
:1079200023461B691B68A36123461B695B68E361EF
:1079300000BF00BF0B4B1B680A4B5B68094B9B6881
:10794000084BDB68074B1B69064B5B69054B9B6962
:10795000044BDB6972B600BF9DF80030002BFBD1F1
:1079600062B618BDC033002010B5024802F07EFC9C
:1079700010BD00008023002010B503460C460AB954
:10798000072010BD19684A61012C01D1012000E0D7
:10799000002008610020F4E738B513480068009023
:1079A0000823582211491248006806F030F80446AE
:1079B0000CB1204638BD0F4A69460F4802F05CFC06
:1079C00004460CB12046F5E701210B4802F0FAFC11
:1079D00001230A4A1946084802F01AFC0120084906
:1079E00008702046E6E7000018960300E033002008
:1079F000089603001F5B030080230020FFFF7F0029
:107A00008C2300202DE9F04106460D4617463446EA
:107A1000207F10B10020BDE8F081A76103F056FF80
:107A2000401941F10001C4E90201206900B125615A
:107A30002146002010F02CFBEDE770B504462546EA
:107A4000002028772946012010F022FB70BD10B5D8
:107A5000044620460EF0EEF910BD000070B5044655
:107A600025460E488068B0B1ADB9FFF7FDF906466E
:107A70000A4800680A490860084840684FF0E02159
:107A8000C1F804010020054988601EB900BF62B634
:107A900000BF00BF00BF00BF70BD00004834002021
:107AA00000E100E0F8B505460C4617462088001DA9
:107AB000B84201D90C20F8BD684679DF064600BF00
:107AC000304600B1F7E700BF0320218868542088C2
:107AD000401C20801920218868542088401C208068
:107AE00020884119BDF8000010F0E6FD2188084407
:107AF00020800020DFE7000070B500224FF48041B5
:107B000012480068FFF77EFF044600BF25463DB1DE
:107B100000BF0FA240F287212846FEF77BFB00BF83
:107B200000BF002210210E480068FFF76BFF0446DB
:107B300000BF25463DB100BF05A240F2892128467D
:107B4000FEF768FB00BF00BF70BD0000749103002A
:107B50002E2E5C2E2E5C2E2E5C6D61696E2E6300C7
:107B60007891030070B505460C462068401C28B18A
:107B7000206806F0E1FF206806F05EFF6068401CA8
:107B800018B10021606806F03DFF2868A169C0F8BF
:107B9000241500BF617D227D286841EA0203C0F8F8
:107BA0006C3500BFD4E90012286808F0E0F9207DA8
:107BB000012814D1A068401C18B10021A06806F06B
:107BC00021FFE068401C28B1E06806F0B5FFE068DE
:107BD00006F032FFD4E90221286808F0B1F970BD3F
:107BE00070B505460C462068401C28B1206806F098
:107BF000AEFF206806F02CFF6068401C18B1002121
:107C0000606806F00CFF2868A169C0F8241500BF61
:107C1000617D227D286841EA0203C0F86C3500BF0F
:107C2000D4E90012286808F0DAF9207D012814D17F
:107C3000A068401C18B10021A06806F0F0FEE068C2
:107C4000401C28B1E06806F082FFE06806F000FF03
:107C5000D4E90221286808F0A3F970BD70B5044684
:107C60000D46204605F058F970BD10B504466379FD
:107C700003F003022179208805F006F910BD10B544
:107C80000446207918B9204600F008F803E02046A1
:107C9000FFF7EBFF00BF00BF10BD00002DE9FE4362
:107CA00007463E884FF000080022594801783046C8
:107CB00000F04EFC7879C0F3800028B900213846E6
:107CC00009F08AFEBDE8FE8306F5807188B201AB3B
:107CD0000122072109F0A0FF0546C5B1284608F09A
:107CE0000DF981464B494C4A891AC908012242EADA
:107CF000014033464A46494907F06CFA2946304666
:107D00000EF0BCFB0021384609F066FEDAE730468B
:107D100004F0DCF904464FF6FF718C421BD1029847
:107D200004F024F904464FF6FF70844213D0214634
:107D3000304604F0A9F93046FFF776FC58B93046D2
:107D40000EF030FB3046FFF76FFC20B900213846BB
:107D500009F042FEB6E74FF6FF7084421FD10AF0E9
:107D600071F904464FF6FF70844212D129492A4A1C
:107D7000891AC908012242EA014029A107F014FA30
:107D8000042130460EF07AFB0021384609F024FE2B
:107D900098E72146304604F077F94FF0010806F5E0
:107DA000807188B22246072109F0BEFF054625B939
:107DB0000121384609F010FE28E0862D07D1304613
:107DC0000EF022FB0121384609F006FE1EE028468F
:107DD00008F094F881460F490F4A891AC908012210
:107DE00042EA014033464A461A49009407F002FA33
:107DF000294630460EF042FB0021384609F0ECFDE2
:107E0000B8F1000F02D0204604F048F900BF59E74E
:107E100020230020A4AE030064AE030010A20300E0
:107E2000436F756C64206E6F7420616C6C6F63615E
:107E30007465206E657720706565725F6964206681
:107E40006F7220696E636F6D696E6720626F6E641A
:107E50002E0000002CA30300002114E00C48D0F8F1
:107E60001024012308E000BFD0680079884201D1C6
:107E7000002303E0D0680268002AF4D100BF0BB1F0
:107E800008467047491C0A29E8DB4FF0FF30F8E745
:107E9000D83700202DE9FC410546884616460024C7
:107EA00037880020308095F82D0058B13A46314689
:107EB000404600F071FB044600BF204608B1BDE813
:107EC000FC8100BFA87850B13A4631464046FFF7E2
:107ED000E9FD044600BF204600B1F0E700BFE878A6
:107EE00060B1E97848B23B463246414602F0FBFFBA
:107EF000044600BF204600B1E1E700BF686868B1F2
:107F0000696891F900003B463246414610F0FEF99F
:107F1000044600BF204600B1D1E700BF28890028F1
:107F20000EDD43460622022105F10800CDE9006777
:107F300010F0C9FC044600BF204600B1BFE700BFF7
:107F4000288A00280EDD43460722032105F1100090
:107F5000CDE9006710F0B7FC044600BF204600B131
:107F6000ADE700BF288B00280EDD43461522142103
:107F700005F11800CDE9006710F0A5FC044600BF2C
:107F8000204600B19BE700BF286A58B13B46324605
:107F90004146286A01F034FE044600BF204600B185
:107FA0008DE700BF686A58B13B4632464146686A71
:107FB00005F0ECF9044600BF204600B17FE700BFA2
:107FC00095F82C0000280BDD3B46324641462846FA
:107FD0000EF04CFC044600BF204600B16FE700BF26
:107FE000287858B13B4632464146284605F0BDFA4E
:107FF000044600BF204600B161E700BF20465EE7AF
:10800000F8B504460E461546002000902B466A46F9
:108010003146204600F008F807460FB90020F8BDA9
:10802000BDF800002044FAE7F0B504460D461E46B0
:1080300004B10AB90020F0BD002103E0605C401CDF
:10804000084481B2481CA84206DA10888842F5DC50
:10805000481C205CB042F1D1A94201DB0020EAE7D4
:10806000881C87B2605C10B1605C401E00E000209C
:1080700083B213B1F818A84201DD0020DBE71780B6
:108080001846D8E780F83010704770B504460D46A2
:1080900005B10CB90E2070BD05F1780001F051FD5D
:1080A00008B90720F7E70020A0702C2205F178011D
:1080B000201DFEF7E9F9002084F83000D5F8A4006F
:1080C0006063D5F8A800A0634FF6FF70A4F82404FD
:1080D00004F58260C4F82004002140F22C40C4F86A
:1080E0002614A4F82A140155207810B9FF2084F82A
:1080F000540004F15500C4F810042046FFF781F93C
:1081000040F21441085304F2144204F15501284688
:10811000FFF7C0FE064600BF304600B1BBE700BF18
:1081200004F231204FF4836108512046FFF769F9CA
:10813000A4F81C044FF48360015904F21C4205F1B9
:108140003C00FFF7A7FE064600BF304600B1A2E79D
:1081500000BF012151200155208B81B248200153DD
:10816000012084F83C000021216450200155616900
:10817000616404F13C02002104F1540072DF064600
:1081800000BF304600B186E700BF012020703046B6
:1081900081E770B504460D462E462088102804D08D
:1081A000112807D026280FD109E02146304608F0D3
:1081B00053FD0AE02146304608F048FF05E021461D
:1081C000304609F042F900E000BF00BF70BD70B555
:1081D000044694F8540074DF012084F82E04002033
:1081E00084F830040021502001550621204602F079
:1081F00095FE054600BF284600B170BD00BFA178BE
:10820000204600F009F8054625B1A06B10B12846BC
:10821000A16B88470020F0E770B504460E46207831
:1082200008B9082070BDA670002140F22C40C4F8A7
:108230002614A4F82A140155A07910B1A0780128B9
:1082400009D0E07910B1A078012804D0E07970B1AC
:10825000A07802280BD1606B30B1012084F82D0486
:108260000820616B884702E0002084F82D04314625
:108270002046FFF791F8A070606BA0B1A0780328AA
:1082800002D0A07804280ED1607960B194F82E0451
:1082900048B9002084F83004012084F82F04072016
:1082A000616B884702E0002084F82F04182104F154
:1082B0003C00FEF710F9012084F83C0004F12C008A
:1082C0000AF0AAF820B194F82C105120015502E0D0
:1082D00001215120015594F8240060B104F12800D7
:1082E0000AF09AF820B194F828105220015502E0C3
:1082F000012152200155002150200155A078052868
:1083000024D2DFE800F01F030A11180004F13C0139
:1083100020460EF071FB054619E004F13C012046B1
:108320000EF052FB054612E004F13C0120460EF02F
:1083300075FB05460BE004F13C0120460EF09CFB6A
:10834000054604E0002084F8310000E000BF00BFD3
:10835000A07898B104F13C0204F15400D4F8201440
:1083600072DF05460DB128465CE794F8301094F8AA
:10837000540073DF05460DB1284653E7606B18B112
:1083800094F83100616B884700204BE72DE9F041FC
:10839000044600BF14B90E20BDE8F08100BF1C22C6
:1083A00021461C48FEF770F81B481A4908602068EF
:1083B00060B120687ADF05460DB12846ECE7164823
:1083C00021680A6802604968416005E012487BDF65
:1083D00005460DB12846DFE7002617E006EB8600CC
:1083E0000E4901EB800700BF4FF6FF70388000BFD9
:1083F0000B4800EB461078600A4A0021381DFFF751
:10840000BBFA05460DB10320C6E7761C002EE5D069
:108410000020C1E7942E0020D4220020802E0020CE
:10842000602E0020D587030010B50446204600F0DA
:10843000A5F820B12146034805F08BFB10BD0020B4
:10844000FCE70000C02E002070B504460D4616461D
:10845000204610F009FA08B9002070BD034951F810
:1084600024003246294602F0CDFDF6E7CC2E00204E
:1084700010B50446204600F081F820B1214603489B
:1084800005F067FB10BD0020FCE70000C82E0020AF
:1084900010B50446204600F071F820B1214603488B
:1084A00005F057FB10BD0020FCE70000C42E0020A3
:1084B00070B504460025204600F060F850B1214612
:1084C000054805F046FB06460EB1022000E00120FB
:1084D000054600BF284670BDBC2E002070B504467E
:1084E0000025204600F04AF850B12146054805F025
:1084F00030FB06460EB1022000E00120054600BF19
:10850000284670BDB82E002010B51821044805F08B
:10851000F0FA0446182C00D110BDE0B2FCE70000D0
:10852000B02E002070B505460C46204610F09CF990
:1085300050B1284600F022F830B1044901EB840024
:10854000294605F006FB70BD0020FCE7CC2E00207C
:1085500070B505460C461646204610F085F950B118
:10856000284600F00BF830B1034901EB8400324695
:10857000294602F0A9FC70BDCC2E002010B504469F
:10858000142C01DB002010BD2146024805F0E1FA61
:10859000F9E70000B42E00202DE9FC4105460C4609
:1085A000174620880930B84202D90C20BDE8FC816A
:1085B00068466DDF064600BF304600B1F6E700BFF3
:1085C0000820218868542088401C20801B20218896
:1085D00068542088401C208020882844DDF8011041
:1085E0000160BDF8051081802088801D20809DF8E5
:1085F0000000400818B900202188685402E00120DA
:10860000218868542088401C20800020CEE700008C
:1086100010B51349134A891AC908042242EA0140D5
:1086200011A106F0C1FD4FF0FF3100203DDF0446EF
:1086300000BF204600B110BD00BFB12100203CDFCB
:10864000044600BF204600B1F5E700BF134841696A
:1086500001208847022007F021F80020EBE7000006
:108660001CAF030064AE0300496E20626C655F645A
:1086700066755F627574746F6E6C6573735F626F3D
:108680006F746C6F616465725F73746172745F663E
:10869000696E616C697A650D0A0000004C32002039
:1086A00010B505480068416900208847FFF7B0FF12
:1086B0000446204610BD00003C23002070B504464F
:1086C0000D4600BF04B970BD00BF2088102806D039
:1086D000112808D051280AD0532810D10BE0204689
:1086E00008F0B4FA0CE0204608F0A2FC08E02046AE
:1086F00008F054FE04E0204608F0EAFD00E000BF68
:1087000000BF00BFDFE7000070B504460426207BF1
:10871000012802D0022822D109E001F0FBFE054623
:108720000DB9012602E0112D00D1062619E0607B6B
:10873000142801DC607B08B905260FE0627B04F198
:108740000E011248FDF7A0FE607B1049091F8861E9
:1087500008460EF0BFF9054605B9012601E00226DC
:1087600000BF00BF012E0FD0207B314600F058F82B
:10877000054625B10648006841690320884704483A
:10878000006841690220884770BD000078320020EF
:108790003C23002070B505460E4600BF1E48006809
:1087A00020B11D48406808B1012000E0002000B958
:1087B00070BD00BF184800F1080142682846904784
:1087C000044600BF082C24D07CB900201349096856
:1087D00048760121022000F023F80446CCB10F486E
:1087E000006841690320884713E000200B490968AD
:1087F00048760621022000F013F8044624B1074809
:1088000000684169032088470448006841690220E4
:10881000884700BFCCE70000683200203C230020DE
:10882000F0B587B004460D46032700200190029062
:10883000039004900320069020208DF814008DF8FA
:1088400015408DF816500E48C088ADF8040002207F
:108850008DF806000020ADF8080006A8039005A8D2
:1088600004900749888801A9AEDF064626B9BDF8FD
:108870001800032800D00C26304607B0F0BD0000D9
:108880004C32002070B504460D462E4620885028F4
:1088900004D12146304608F035FE00E000BF00BF9D
:1088A00070BD70B504460D462E462088502804D170
:1088B0002146304608F050FE00E000BF00BF70BD0A
:1088C000F8B505460F4600242888212845D004DC49
:1088D000102812D0112878D104E03B285AD056280D
:1088E000F9D173E04849494A891AC908032242EA82
:1088F000014047A106F058FC84E04349434A891AE5
:10890000C908032242EA014045A106F04DFC0720B8
:1089100000F008FC044600BF26463EB100BF43A25B
:1089200040F2CF213046FDF775FC00BF00BFA8889C
:108930004249088008460188414805F0BDFA0446CE
:1089400000BF26463EB100BF38A240F2D2213046D9
:10895000FDF760FC00BF00BF54E02B492B4A891A89
:10896000C908042242EA014036A106F01DFC00209D
:108970000090A88869468FDF044600BF26463EB1B6
:1089800000BF2AA240F2DE213046FDF743FC00BFC3
:1089900000BF37E01C491D4A891AC908042242EA6F
:1089A00001402DA106F000FCA888132176DF0446C3
:1089B00000BF26463EB100BF1CA240F2E721304670
:1089C000FDF728FC00BF00BF1CE01AE00E490F4A6B
:1089D000891AC908042242EA014025A106F0E4FBF5
:1089E000A888132176DF044600BF26463EB100BFAB
:1089F0000EA240F2EF213046FDF70CFC00BF00BF95
:108A000000E000BF00BFF8BD1CAF030064AE030070
:108A1000446973636F6E6E65637465642E00000055
:108A2000436F6E6E65637465642E00002E2E5C2E9F
:108A30002E5C2E2E5C6D61696E2E630090220020EC
:108A4000AC24002050485920757064617465207210
:108A50006571756573742E004741545420436C69E9
:108A6000656E742054696D656F75742E000000008A
:108A700047415454205365727665722054696D6580
:108A80006F75742E0000000070B505460E462888EC
:108A9000102802D011282CD115E01748006860B9C1
:108AA00001F0A6F9044600BF34B11448006818B1BB
:108AB000204612490968884700BF0F480068401CDB
:108AC0000D49086016E00C480068401E0A4908601D
:108AD0000846006860B9FEF79DFC044600BF34B14B
:108AE0000648006818B1204604490968884700BF55
:108AF00000E000BF00BF70BDD0220020CC220020CB
:108B000070B504460D462088102806D0112808D0DC
:108B100012280ED0502810D107E0204608F05EF849
:108B20000CE0204608F06AFA08E0204608F0BEFC97
:108B300004E0204608F03AF800E000BF00BF70BD36
:108B40002DE9F04104460F46A6882088102806D05B
:108B5000112819D019283FD01A284AD118E00AF054
:108B6000C7FD30460AF038FC30B900BF22A2F02120
:108B70000420FDF74FFB06E0E07B022803D13146DD
:108B80002C4804F0F5FF34E030460AF0D5FD30E023
:108B9000207A0509042D01DB012000E000200246B7
:108BA000314624480C3002F08FF9032D01DB0120FF
:108BB00000E00020024631461E48083002F084F9E9
:108BC000022D01DB012000E0002002463146194859
:108BD000001D02F079F90CE0207A48B9607AC0F300
:108BE000C0052A46314613480C3002F06DF900BF2B
:108BF00000BF00BFBDE8F0812E2E5C2E2E5C2E2E15
:108C00005C2E2E5C2E2E5C2E2E5C636F6D706F6E54
:108C1000656E74735C626C655C636F6D6D6F6E5CCA
:108C2000626C655F636F6E6E5F73746174652E63F3
:108C300000000000BC2E002070B504460D4600BFA9
:108C40000748007800B970BD00BF204603F0F8F86F
:108C500020460EF06DF8204602F018FC00BFF2E747
:108C60001023002070B5044620460FF01FFD054676
:108C7000C5F3400070BD70B5044620460FF016FDE8
:108C8000054605F0010070BD38B506F083FF0446C7
:108C900000BF25463DB100BF15A240F25A3128461B
:108CA000FDF7B8FA00BF00BF002000906946012020
:108CB00006F08EFD044600BF25463DB100BF0CA264
:108CC0004FF458712846FDF7A5FA00BF00BF68466B
:108CD00006F02EFE044600BF25463DB100BF04A2AB
:108CE0004FF459712846FDF795FA00BF00BF38BD13
:108CF0002E2E5C2E2E5C2E2E5C6D61696E2E630016
:108D000070B504460D462E462088502804D12146D1
:108D1000304608F04BFC00E000BF00BF70BD000013
:108D200001460148405C70473993030010B5014685
:108D3000094B585C00BF4FF0A044234600BFD3F856
:108D40001045C44004F001040CB1012000E00020F3
:108D5000024682F0010010BD399303007CB5002467
:108D60000DE00848055D03260020009033460246CA
:108D700001460190284605F0C9FD00BF641C032C84
:108D8000EFD37CBD3993030010B5044604F0010015
:108D900008B100F04BF804F0020008B1FFF7DEFF65
:108DA00010BD000010B502460949885C00BF4FF0B5
:108DB000A0442146D1F80435012484409C43C1F8E5
:108DC0000845012484401C40C1F80C4500BF10BD7B
:108DD0003693030010B504460249085D012105F0F1
:108DE000E9FE10BD3693030010B504460249085D44
:108DF000002105F0DFFE10BD3693030010B50146DB
:108E0000094B585C00BF4FF0A044234600BFD3F885
:108E10000445C44004F001040CB1012000E000202E
:108E2000024682F0010010BD369303007CB5002499
:108E30000CE00948055D0020009003460122114620
:108E40000190284605F062FD00BF641C032CF0D39E
:108E500000F004F87CBD00003693030010B5002438
:108E600003E02046FFF7B6FF641C032CF9D310BDC6
:108E700010B5002403E02046FFF7B6FF641C032C66
:108E8000F9D310BD02464FF0FF30002106E0054B3C
:108E90005B5C934201D1084602E0491C0329F6D3EA
:108EA00000BF70473993030070B505460C46002695
:108EB0000648056014B120460EF006FF044800681D
:108EC00010B9FEF7A7FA0646304670BDCC22002046
:108ED000D022002010B5002000F052FB044600BF55
:108EE0001CB1062C01D0204610BD00BF012000F0AF
:108EF00047FB044600BF1CB1062C01D02046F3E717
:108F000000BF0020F0E700002DE9F04106460F46C3
:108F10004FF0000800243046FFF7B4FF0446032C4E
:108F20003ED20FB3012F02D0022F38D130E004EB34
:108F30004400214911F8008004EB440008444078C3
:108F400050B11E4A4FF480411D480068FEF75AFD9B
:108F500005460DB91948067004EB4400164908444B
:108F60008078184908551AE015480068FEF765FD35
:108F70001448005D04EB44010F4A1144897888428B
:108F800005D104EB44001146084490F8028006E045
:108F900004EB44000849084490F8018000BF00BF7A
:108FA000B8F1000F06D00848006818B140460649DD
:108FB00009688847BDE8F081302E0020C8220020D3
:108FC00044930300C9220020C422002010B50446A7
:108FD000032C03D22046FFF7A9FE10BD0020FCE7BA
:108FE00070B50546042D09D0072D1BD00A2D02D0DF
:108FF000102D4DD12FE00DF063FE4AE013212648DD
:10900000008876DF0446082C0BD000BF26463EB110
:1090100000BF22A240F2AA313046FDF7FBF800BFA4
:1090200000BF36E01C4800884FF6FF71884211D11E
:109030001E48FFF7CCF80446082C0BD000BF26468C
:109040003EB100BF15A24FF46D713046FDF7E2F856
:1090500000BF00BF1DE0122000BF4FF0A043194623
:10906000D1F80425012383409343C1F80835012337
:1090700083401340C1F80C3500BF0D490D4A891AD1
:10908000C908032242EA01400BA106F08DF800E076
:1090900000BF00BF70BD0000902200202E2E5C2E6D
:1090A0002E5C2E2E5C6D61696E2E6300B82400204C
:1090B0001CAF030064AE03006273705F6576656E7B
:1090C000745F6B65795F320030B503460020032B77
:1090D00023D2012A07D1012903D103F10E04E4B2FE
:1090E00000E00024224679B1012902D0022911D1E1
:1090F00004E003EB43040A4D2A550DE003EB43045F
:10910000074D2C44627007E003EB4304044D2C44EC
:10911000A27001E0072000BF00E0072030BD000082
:10912000302E002070B5044600250548007800F078
:10913000010018B1204600F05BF80546284670BDD6
:10914000BC2200202DE9F04105460F4600241F48AF
:1091500005601F48076005F0020000B3002606E026
:10916000012211463046FFF7AFFF0446761C032E5E
:1091700001D2002CF4D034B940F233320321154827
:10918000FEF772FA044614B9FEF758FA04462CB9F1
:10919000114A00211148FEF7EFFB044600BF05F01D
:1091A000010080B10120FFF7EFFD2CB90C4A00212E
:1091B0000C48FEF7E1FB04462CB90B4A01210B4891
:1091C000FEF7DAFB04462046BDE8F081BC22002011
:1091D000C422002048930300E99602004493030050
:1091E0003DCD02003C9303001B7602004093030038
:1091F0002DE9F047044600260025DC48007820B120
:109200000020DA49087003F085FD182C7ED2DFE8D3
:1092100004F00C16174A7EB2F6F4F3F2F1F0EFEE1A
:10922000EDECEBEAE9E8E7E6E5E403F073FDD048AE
:109230000068FEF702FC0646CE48047091E100BFCC
:109240000120FFF7DBFD58B10120FFF7C3FD022C21
:1092500002D14FF4E16001E04FF47A60054609E085
:109260000120FFF7C1FD022C01D1C82001E04FF41D
:10927000C8700546BF4804704FF40040A5FB0010BD
:109280004FF47A73CF1840F100015A00002338469A
:10929000FDF7B6F8814600224946B5480068FEF75A
:1092A000B1FB06465DE10120FFF7A8FD58B10120A2
:1092B000FFF790FD032C02D14FF4487001E04FF40A
:1092C0007A60054609E00120FFF78EFD032C01D1ED
:1092D000C82001E04FF4C8700546A64804704FF45A
:1092E0000040A5FB00104FF47A728F1840F1000186
:1092F000520000233846FDF783F881460022494694
:109300009B480068FEF77EFB06462AE128E1012023
:10931000FFF774FD58B10120FFF75CFD042C02D16A
:109320004FF47A6001E04FF47A6005460AE00120CC
:10933000FFF75AFD042C02D14FF4C87001E04FF43E
:10934000C87005468B4804704FF40040A5FB001020
:109350004FF47A73CF1840F100015A0000233846C9
:10936000FDF74EF881460022494681480068FEF725
:1093700049FB0646F5E00120FFF740FD50B1012012
:10938000FFF728FD052C01D1C82001E04FF47A60D9
:10939000054609E00120FFF727FD052C01D1C82073
:1093A00001E04FF4C8700546724804704FF4004065
:1093B000A5FB00204FF47A73D71840F100015A0042
:1093C00000233846FDF71CF88146002249466848CC
:1093D0000068FEF717FB0646C3E0BCE0BAE0AEE06B
:1093E000A5E09CE096E063E061E05FE05DE05BE0CB
:1093F00055E045E035E025E015E00EE0FFE701200F
:10940000FFF7D0FC5B480470002240F266615848C8
:109410000068FEF7F7FA0646A3E00120FFF7E4FC38
:10942000544804709DE00120504908700220FFF765
:10943000B9FC002240F266614D480068FEF7E2FA8E
:1094400006468EE00120494908700220FFF7AAFC79
:1094500000224FF4005146480068FEF7D3FA064652
:109460007FE00120414908700220FFF79BFC0022A9
:1094700040F266613E480068FEF7C4FA064670E0B6
:1094800001203A4908700220FFF78CFC00224FF4BB
:10949000005137480068FEF7B5FA064661E0FFF76D
:1094A000E7FC344804705CE000BF00BF00BF00BFB1
:1094B00031480068FEF7C1FA0646C4F1110515B33C
:1094C0000EBB012D18D9A8B2C82148434FF4004162
:1094D00080FB01104FF47A728F1840F100015200A6
:1094E00000233846FCF78CFF81460022494622487B
:1094F0000068FEF787FA06460020FFF775FC01209A
:109500001E49087005E00020FFF764FC00201B499D
:10951000087026E003F0FEFB1648047021E003F01B
:10952000F9FB0020FFF760FC1248047019E003F01B
:10953000F1FB0120FFF758FC0E48047011E003F026
:10954000E9FB0020FFF750FC0120FFF74DFC094824
:10955000047006E000BFFFF78BFC0648047000E0D3
:1095600000BF00BF3046BDE8F0870000B9220020F0
:109570003C930300B822002040930300C022002047
:1095800010B50446012120460FF02FFA10BD00004F
:109590002DE9FC4704460D461646A71C4FF001086E
:1095A0000020019001A8FEF752FA30484068286078
:1095B0002E4840682D498968411A2D480068401C92
:1095C000A0EB010915E001212A4804F0F5FA03F0A7
:1095D000BFFD82465146274804F0EEFA2348406812
:1095E00022498968411A22480068401CA0EB010901
:1095F00000BF4F45E7D8B8F1000F30D000210091EF
:1096000076B1009921F00301491C0091009921F0E5
:109610000401091D0091009964F3891100910DE086
:10962000009921F00301891C0091009921F00401A7
:10963000091D0091009964F39F5100910B494968FD
:109640000B4A12681140094A0C3202EB8100009962
:1096500001600649496839440C3A516000BF9DF8E1
:109660000400FEF7FBF94046BDE8FC87D837002030
:109670002C240020F43B002070B504460D460A2D32
:1096800003D10D212046FFF7F7FFA168481CA06019
:1096900020684554D4E90110884202D3204604F0E2
:1096A00084FD70BD0448806803494968884201D13F
:1096B000012070470020FCE7D83700200246002137
:1096C00008E0074B1B6803EBC1000378934200D10D
:1096D0007047491C034800788142F2DB0020F7E71D
:1096E000682300206C23002010B504462078022156
:1096F000FFF70AFC10BD0000F8B50546154901202A
:10970000FFF720FD044600BF26463EB100BF12A26F
:1097100040F2F6313046FCF77DFD00BF00BF6946E0
:109720000020FFF7C1FB044600BF26463EB100BF44
:1097300009A240F2F9313046FCF76CFD00BF00BFD2
:109740009DF80000022801D1012000E000202870CF
:10975000F8BD0000E18F02002E2E5C2E2E5C2E2E16
:109760005C6D61696E2E63007CB50446204602F094
:10977000ADFC054600236A46092108F0ABFB05282D
:1097800005D10122024801782046FEF7E1FE7CBDAA
:10979000EC2200207CB504460E460020019042F6E3
:1097A000A620ADF8040001208DF8060007480068E7
:1097B00000906A4601A92046A0DF05462DB9012286
:1097C000034801782046FEF7C3FE7CBDA493030046
:1097D000ED22002001468879012809D10879012865
:1097E00006D1488842F60212904201D1012070470A
:1097F0000020FCE74FF0FF31054A42F8201008280E
:1098000004DBFF23A0F108015032535470470000DD
:10981000BC3200200146024850F821007047000089
:10982000BC3200202DE9F04F03460C464FF0FF39C3
:109830000AB1002000E0082084460AB1082000E0B8
:109840000C208046614624E0154850F82100401C59
:10985000F0B91D460846274616464FFA80FBDFF84A
:1098600040A00AF1300A0AF805B0DFF834A04AF83F
:1098700020704EB94FFA85FBA0F1080ADFF820E00E
:109880000EF1500E0EF80AB000BF4FFA81F902E057
:10989000491C4145D8D300BF4846BDE8F08F0000C1
:1098A000BC3200200146014840567047EC3200208F
:1098B00070B590B006460C461546A07818B9012040
:1098C0008DF80E0002E0A0788DF80E002088ADF82B
:1098D0000C0000200290607C02A90DF02BF9A07C06
:1098E0000DF109010DF026F9E07B08B1012000E03F
:1098F00000209DF80A1060F3C3018DF80A10207C47
:1099000008B1012000E000209DF80A1060F3041166
:109910008DF80A10207B08B1012000E000209DF89E
:109920000A1060F300018DF80A10207D08B10220B2
:1099300000E001209DF80A1060F342018DF80A1042
:109940001C2109A8FCF7C7FD607BC0F3001018B903
:10995000607BC0F34010F8B100200090E07C0DF176
:1099600001010DF0E7F800BF9DF8000020F00F00A6
:10997000401C8DF800009DF8000020F0F000103031
:109980008DF8000000BF9DF8020020F00600801C4A
:109990008DF80200CDF838D0607B8DF82400A07BD4
:1099A0008DF82500142104A8FCF795FD03A8049068
:1099B00002A80590A088ADF81C00A06820B1E0883E
:1099C000ADF81800A0680890A069002849D00020D0
:1099D0000190A0690088ADF82C00A0694088ADF81E
:1099E0002E00A06940680A9001A80D90A169087B2B
:1099F00001A90DF09FF8A169487B0DF105010DF05B
:109A000099F8A069807A08B1012000E000209DF853
:109A1000061060F3C3018DF80610A069C07A08B182
:109A2000012000E000209DF8061060F304118DF87D
:109A30000610A069007A08B1012000E000209DF81E
:109A4000061060F300018DF80610A069807B08B154
:109A5000022000E001209DF8061060F342018DF81D
:109A60000610E06908B1E0690C902B4604AA09A928
:109A70003046AADF10B070BD2DE9F04104460D4616
:109A80004FF6FF76304684420AD14FF48071284663
:109A900004F02FF886B2B6F5807F10D126460EE08E
:109AA000FF2C0CDC2146284604F00CF880F001075E
:109AB0000FB1204601E04FF6FF70064600BF30466A
:109AC000BDE8F08170B505460DB9094C01E0084CC0
:109AD000083409E0204603F0F1F8064606B904E030
:109AE00028467168884700BFF4E700BF70BD0000DA
:109AF0009832002010B504462CB901200649487060
:109B00000020FFF7DFFF012C04D1012002498870FB
:109B1000FFF7D8FF10BD0000903200202DE9F0477C
:109B2000024613468C46D3E90245DCE90267B6EBF0
:109B3000040877EB050002D30120BDE8F087002080
:109B4000FBE701468878012805D191F8200001281B
:109B500001D100207047886A042802D0486A04288E
:109B600001D10020F6E70120F4E733B58BB00546BC
:109B7000002000900C9878B100240BE021460CA83E
:109B800003F0E7FF28B1009A501C009001A820F8CC
:109B90001240641C142CF1D32C2269462846FCF791
:109BA00073FC0DB030BD01460888062808DB088824
:109BB000B0F5486F06DD08884FF6FF72904201D07D
:109BC000072070474888062808DB4888B0F5486FAA
:109BD00006DD48884FF6FF72904201D00720F0E77B
:109BE00008884FF6FF72904208D04888904205D00E
:109BF00008884A88904201DD0720E2E70020E0E77C
:109C00002DE9F04107460D46144698462088801DF0
:109C1000404502D90C20BDE8F0813846FFF7C3FF6C
:109C2000064600BF304600B1F5E700BF0520218899
:109C300068542088401C2080122021886854208885
:109C4000401C20802288511938880EF035FD21886B
:109C5000084420802288511978880EF02DFD218833
:109C6000084420800020D6E710B5044600BF04A2B7
:109C700040F263212046FCF7CDFA00BF10BD000082
:109C80002E2E5C2E2E5C2E2E5C6D61696E2E630076
:109C900030B587B01C216846FCF71DFC0020009001
:109CA0004FF4A03001904FF4F020029003208DF883
:109CB0000C000020ADF80E008DF810000A48059049
:109CC0000A4806906846FEF761FB044600BF254639
:109CD0003DB100BF06A240F279212846FCF79AFA6E
:109CE00000BF00BF07B030BD6D0B0300699C0200D0
:109CF0002E2E5C2E2E5C2E2E5C6D61696E2E630006
:109D0000F8B505460C46607A88B9207A10B9104833
:109D1000476801E00E4887682A4639466068FDF7C3
:109D200071FE064616B130460CF04EFB0EE00020E8
:109D300020720748406948B101208DF80000ADF855
:109D40000250034841696846884700BFF8BD0000DB
:109D5000942E0020F0B585B004460D4617461E46E9
:109D600014220B496846FCF78FFBADF802408DF8D2
:109D70000850ADF80A708DF80C6000220548017893
:109D80002046FEF7E5FB684600F046FE05B0F0BD54
:109D9000989403002023002010B586B00446208844
:109DA00007F0D0FD00BB2088FEF73EFB30B92088CD
:109DB000012241F2060100F0A2FB15E020880022FA
:109DC0000A490978FEF7C4FB02208DF804002088B8
:109DD000ADF8060000208DF80C0000218DF80D1064
:109DE00001A800F019FE00BF06B010BD202300201E
:109DF00010B5012200210846FFF766F9044600BFAE
:109E00001CB1072C01D0204610BD00BF0722022143
:109E10000120FFF759F9044600BF1CB1072C01D0FF
:109E20002046F1E700BF042202210020FFF74CF991
:109E30000446122201210420FFF746F9044600BF20
:109E40001CB1072C01D02046DEE700BF0020DBE775
:109E50002DE9FF4105460C4629492A4A891AC908B5
:109E6000042242EA01402B46224627A105F0B2F91E
:109E7000002002900390ADF80840ADF80A40009031
:109E800001906A4602A9284690DF0646002E32D08D
:109E9000304606F033F8074619491A4A891AC908A4
:109EA000012242EA01403B462A46234905F092F945
:109EB000BDF8000010B9BDF8020068B1BDF802306D
:109EC000BDF800200E490F4FC91BC908012747EAFA
:109ED00001401AA105F07EF9BDF8040058B1BDF8A3
:109EE00004200749074BC91AC908012343EA014066
:109EF000224905F063F9304604B0BDE8F081000066
:109F00007CAE030064AE03005570646174696E67D3
:109F10002064617461206C656E67746820746F20C2
:109F20002575206F6E20636F6E6E656374696F6E4A
:109F300020307825782E0000449D03005468652069
:109F40007265717565737465642054582F5258207A
:109F50007061636B6574206C656E677468206973EB
:109F600020746F6F206C6F6E672062792025752FCB
:109F70002575206F63746574732E0000909D030037
:109F80002DE9F04105460F460F4C0121204603F014
:109F90004AFE064600BF00BF00BF00BFBFF35F8F91
:109FA00000BF00BF00BF0EB9012000E0002040B19B
:109FB000284603F01FF808B1BDE8F081024805F01B
:109FC00001FB00BFF8E70000E422002070B50D4956
:109FD0000D4A891AC908032242EA01400BA105F083
:109FE000E3F808F0B5FE044600BF25463DB100BFCA
:109FF0000AA24FF465712846FCF70CF900BF00BFB8
:10A0000070BD00001CAF030064AE030045726173B5
:10A010006520626F6E647321000000002E2E5C2E9E
:10A020002E5C2E2E5C6D61696E2E630070B5064647
:10A030000D4616B14FF4064070BD287920B10128B5
:10A0400009D0022815D111E002202871284609F014
:10A0500021FA044610E0284600F0E2FE044648F2E9
:10A060000960844201D141F61D5405E041F61D54BA
:10A0700002E048F20E6400BF00BF2046DCE70000AB
:10A080002DE9F0418046002414E01248006800EBFE
:10A09000C405287806F000F907466878012800D141
:10A0A00000E00020784080F001062878314600F07A
:10A0B000E1FB641C084800788442E6DB0748D0E9ED
:10A0C0000010002359405840014301D00EF000F821
:10A0D000BDE8F081682300206C2300207823002055
:10A0E00070B5044620793D2802D141F23D0001E0DF
:10A0F0004FF48850054620880022294602F0C4FE0D
:10A1000070BD000010B50021034803F08CFD04462B
:10A1100084F3100010BD0000F43B002070470000E5
:10A1200030B58DB0054600BF15B90E200DB030BD5D
:10A1300000BF294928680861284B0FCB8DE80F0024
:10A140002549684662DF044600BF204600B1EDE7BE
:10A1500000BF214800788DF832000120ADF83000B2
:10A160001D4A921C0CA9A8DF044600BF204600B17E
:10A17000DCE700BF202104A8FCF7ADF90220ADF810
:10A180001000154800788DF812000120ADF8160077
:10A190001420ADF814009DF81D0020F00200801C72
:10A1A0008DF81D009DF81D0020F0100010308DF876
:10A1B0001D0001208DF821008DF8230006494888F4
:10A1C0008A1D04A9FFF774FB044600BF204600B1B6
:10A1D000ACE700BF2046A9E710320020D894030066
:10A1E00070B505460C464FF4803000FA04F128465D
:10A1F00000F020FB70BD70B505460C464FF4A07012
:10A2000000EB840086B23146284600F0ABFB70BDFF
:10A210002DE9F04704460D4616461F464FF48030A0
:10A2200000FA05F84FF4A07000EB85001FFA80F9E2
:10A2300026F07F464146206805F0B0FA4146206886
:10A2400005F0A0FA4946206805F092FA3246294600
:10A25000206805F07DFA4146206805F096FA1FB1A6
:10A260004146206805F09DFABDE8F08710B5044628
:10A27000206805F072FA10BD2DE9F04704460D463E
:10A2800017466079324941F820706079314901EB15
:10A29000C000007968B108262F49304A891AC908D8
:10A2A000022242EA01402EA104F07EFF3046BDE8C2
:10A2B000F08729882068C0F8081500BF94F90420A9
:10A2C000AB7810461946002808DB4FEA417C4FEA7C
:10A2D0001C68DFF8B0C00CF800800BE04FEA417C4E
:10A2E0004FEA1C69DFF8A0C000F00F08A8F10408CD
:10A2F0000CF8089000BF00BF94F90410084600282D
:10A300000DDB00BF00BF00F01F0301229A4043098C
:10A310009B0003F1E023C3F8002100BF00BF00BF92
:10A3200000BF012061790B4A02EBC101087160791D
:10A33000114641F8304000260749084A891AC908E1
:10A34000032242EA014011A104F02EFF3046AEE79D
:10A35000A4230020A8230020FCAE030064AE030069
:10A3600052544320696E7374616E636520616C7230
:10A370006561647920696E697469616C697A656484
:10A380002E00000000E400E018ED00E05254433AD3
:10A3900020696E697469616C697A65642E000000D9
:10A3A00010B5014691F90400002807DB00F01F03F7
:10A3B00001229A40024B440943F8242000BF10BDFB
:10A3C00000E200E070B505460C4622460221284610
:10A3D00000F03CFA70BD10B504464FF4827120467F
:10A3E00000F0C0FA10BD10B504460021206805F049
:10A3F000E0F910BD10B504460421206805F0D9F934
:10A4000010BD2DE9F84F04468846154699464FF48D
:10A41000803000FA08FA4FF4A07000EB88001FFAB1
:10A4200080FB25F07F455146204600F003FA206866
:10A4300005F093F906464146206805F083F900903F
:10A4400032464146206805F083F95946206805F0F8
:10A450008FF9314600980DF067FD012806D11020D4
:10A4600005F000FE5946206805F082F9206805F0E5
:10A4700074F90646314628460DF056FD074651460A
:10A48000206805F082F9012F0FD16A1C414620682F
:10A4900005F05EF9102005F0E5FD206805F05DF996
:10A4A000B04225D00D20BDE8F88F2A4641462068ED
:10A4B00005F04EF9206805F050F90646681E314651
:10A4C0000DF032FD07466FF07F40A0EB0900B84267
:10A4D00001D20D20E7E75FB96A1C4146206805F00C
:10A4E00037F9206805F039F9B04201D00D20DAE7DC
:10A4F00001225146204600F0A9F90020D3E770B5AB
:10A5000006460C4615462B46224600213046FFF7EC
:10A5100021FC70BD10B510480068407E60B1062176
:10A520000120FEF77DF9044624B10B48006841691B
:10A5300003208847002010BD0120074909680876DC
:10A5400001210846FEF76CF904461CB100200249BF
:10A55000096808762046EEE73C2300202DE9F84301
:10A5600005460E461746984669461048006803F0AF
:10A5700062FA044614B90420BDE8F8831C21204681
:10A58000FBF7A9FF012020712560C4F80880084866
:10A590000068B6FBF0F0E060676169460348006858
:10A5A00003F073FA08F098FE0020E5E7BC9603007C
:10A5B000B096030010B50446D4E90321501828DFF3
:10A5C00010BD704730B58DB0054600BF15B90E20DF
:10A5D0000DB030BD00BF294928680861284B0FCB5A
:10A5E0008DE80F002549684662DF044600BF20461B
:10A5F00000B1EDE700BF214800788DF8320001205E
:10A60000ADF830001D4A921C0CA9A8DF044600BF1B
:10A61000204600B1DCE700BF202104A8FBF75BFF68
:10A620000220ADF81000154800788DF812000120C6
:10A63000ADF816001420ADF814009DF81D0020F0B0
:10A640000200801C8DF81D009DF81D0020F01000F8
:10A6500010308DF81D0001208DF821008DF82300A9
:10A66000064948888A1D04A9FFF722F9044600BF5D
:10A67000204600B1ACE700BF2046A9E72432002005
:10A68000E89403000278072A38D2DFE802F03704A2
:10A690000712222B340000220A7030E001220A70D7
:10A6A00003898B818388CB81C2688A6000230B7405
:10A6B00025E002220A7003898B818388CB81C268DE
:10A6C0008A60827D062A01D1012300E000230B74F9
:10A6D00015E003220A70C3888B810389CB81C2688D
:10A6E0008A600CE004220A70C3888B810023CB812E
:10A6F00000228A6003E005220A7000E000BF00BF6C
:10A700007047000070B50546002409E0064850F87F
:10A71000240020B1044850F8241028468847641CBF
:10A72000042CF3D370BD00005434002030B587B042
:10A7300004460D462068806808B907B030BD18216E
:10A7400001A8FBF7C8FE0295A0680690207910B119
:10A75000012815D109E001208DF80400206903903B
:10A76000E0680490606905900BE002208DF8040019
:10A770000749E0680968484303906069059000E074
:10A7800000BF00BF2068816801A8884700BFD4E7E8
:10A79000B0960300F0B585B005460C461646002C71
:10A7A0003ED0112C3CD0082C3AD00D2C24D11D4980
:10A7B0001D4A891AC908022242EA01402A461B4959
:10A7C00004F0FCFC2A460321684602F043FF2EB148
:10A7D000307800F0010008B1012000E002208DF87F
:10A7E000080000218DF80C1041F20111ADF80A109B
:10A7F000684600F025F913E0204605F07FFB074688
:10A800000849094A891AC908012242EA01402B462F
:10A810003A46074904F0DEFC214628460BF042FE8A
:10A8200005B0F0BDACAE030064AE0300E8A30300C6
:10A83000F8A4030070B504460D462946206804F0CC
:10A84000A1FF2946206804F0A9FF70BD70B5044639
:10A850000E4615463146206804F097FF1DB131467B
:10A86000206804F09EFF70BD10B50446204600F03D
:10A87000E7F810BDF8B505460C4628460DF038FA45
:10A8800005286AD2DFE800F003212A393F00DCB155
:10A89000012128460DF03CFA002000906846FDF7A3
:10A8A000D6F82A460126002730463946FBF7D9FD5F
:10A8B0002B4AD2E9003218431143294A03C29DF8BA
:10A8C0000000FDF7CBF800BF47E00CB1022000E02C
:10A8D0000020014628460DF01BFA3EE044B103215A
:10A8E00028460DF015FA012128460DF0DDFF03E0A2
:10A8F000012128460DF00CFA2FE01CB9042128464E
:10A900000DF006FA29E024B1032128460DF000FAE3
:10A9100022E0002128460DF0FBF9002128460DF029
:10A92000C3FF002000906846FDF791F82A460126F3
:10A93000002730463946FBF794FD0A46C143D04311
:10A94000074B0CCB11401840054AC2E900109DF896
:10A950000000FDF783F800BF00BF00BFF8BD000096
:10A960007823002070B505460C462868015929B1A6
:10A970002146286804F0FCFE012070BD0020FCE7A1
:10A9800070B50446608801F0A1FBA080002505E0B9
:10A99000044850F82510204688476D1C002DF7D03C
:10A9A00070BD0000DC22002070B50446A08801F0D4
:10A9B000BDFA6080002505E0044850F825102046C7
:10A9C00088476D1C002DF7D070BD0000F0220020DC
:10A9D00070B50546002405E0044850F824102846C8
:10A9E0008847641C022CF7D370BD0000E493030079
:10A9F00070B50546002405E0054850F824102846A7
:10AA00008847641C034800788442F5DB70BD000071
:10AA1000C43100201E23002070B50446608801F078
:10AA200055FBA080002505E0044850F8251020467D
:10AA300088476D1C002DF7D070BD000058940300AE
:10AA400070B50546002405E0044850F82410284657
:10AA50008847641C002CF7D070BD0000D094030020
:10AA600010B586B00446142101A8FBF734FDA08977
:10AA700000F0F0F9ADF80800207806285ED2DFE893
:10AA800000F05D0304052E4A00BF00BFA08900F05E
:10AA9000E6F918B9E08908F01EFEF8B1E08908F07F
:10AAA00017FE8DF80C002078032801D1012100E069
:10AAB00000218DF80D10A1680491606830B908205C
:10AAC0008DF8040001218DF8141004E009208DF8A0
:10AAD00004006168059101A807F048F92FE0A089FA
:10AAE00000F0BDF9B0B1E089A0B9606838B90A20BA
:10AAF0008DF80400BDF8080007F088FB04E00B2087
:10AB00008DF804006068039001201149087001A8C5
:10AB100007F02CF913E0606818B913208DF80400D1
:10AB200004E014208DF80400606803904FF6FF7075
:10AB3000ADF8080001A807F019F900E000BF00BF58
:10AB40000348007808B107F0A7FA06B010BD00006E
:10AB5000FD22002038B505461048007810B948F2AB
:10AB6000016038BD4FF6FF70854202D148F20360A4
:10AB7000F7E7684608F090FA044614B948F207600F
:10AB8000EFE70520207001202071E580684608F07D
:10AB900093FA08F095FB0020E3E70000B0230020C3
:10ABA00038B50E48007810B948F2016038BD6846E3
:10ABB00008F072FA044614B948F20760F6E7062076
:10ABC0002070684608F078FA0548007810B1012036
:10ABD0000349087308F074FB0020E7E7B023002066
:10ABE0002835002070B586B0142101A8FBF773FC4E
:10ABF0002E48007828B101A8FFF784FD002006B098
:10AC000070BD2A48001D02F0D0FF08B10020F6E711
:10AC100000F0EAF906460EB13046F0E708F078FA9F
:10AC200006F0D8FD054625B1022D03D0062D0ED124
:10AC300003E000BF48F20A60E1E701201B49087009
:10AC40000020486001A8FFF75DFD0020D7E700BFA6
:10AC500000BF684608F020FA044614B948F20760BD
:10AC6000CDE7012020700C2D16D2DFE805F0150687
:10AC7000150715111512150A0E0B00BF00202071C3
:10AC80000BE000BF0320207107E00220207104E0E8
:10AC900000BF0120207100E000BF00BF684608F03F
:10ACA0000BFA08F00DFB0020A9E70000B0230020FC
:10ACB00038B5044614B948F2046038BD69462046E8
:10ACC00008F006FC08B3BDF8000000EB8000114955
:10ACD00001EB8000C068A8B1A07A98B1BDF800006F
:10ACE00000EB800001EB8000C068401EBDF8001042
:10ACF00001EB8101074A02EB8101C8600020A072CC
:10AD0000002504E048F2056501E048F2096528469F
:10AD1000D3E70000003500207FB514461D462B46C2
:10AD2000224601A9684608F06BFB04B070BD37B538
:10AD30000C4615462B4622466946002008F060FB6B
:10AD40003EBD37B50C4615462B46224600216846C7
:10AD500008F056FB3EBD024602B111B948F204604C
:10AD60007047106808600020FAE70000F8B5044654
:10AD70000D4604B115B948F20460F8BD6946204695
:10AD800008F0A6FBA0B16668BDF8001001EB8101D8
:10AD9000094A02EB810101F10C00012102F00CFFD4
:10ADA0002E6060680C3068600120A0720020E4E72B
:10ADB00048F20960E1E700000035002070B5044664
:10ADC0000D4614B948F2046070BD032300222946E1
:10ADD00020460EF073F8F7E770B504460D460223DF
:10ADE0000022294620460EF069F870BD70B5054670
:10ADF00009480068042802D148F20B6409E00748BA
:10AE00000549096840F821500121034802F0D4FEA9
:10AE10000024204670BD0000BC23002054340020D4
:10AE20003EB504460A4B6A460021A01D08F0E8FA28
:10AE3000054635B9064A9188019808F0C3FB0546D6
:10AE400003E0034800210160416028463EBD000048
:10AE5000CC2300200146A1F5404080B27047014656
:10AE6000B1F5404F05DB4FF6FE70814201DC012059
:10AE700070470020FCE710B50446E07FFF2808D0AB
:10AE8000A07F18B1E07F03F02FFE02E0E07F03F027
:10AE900069FE00206077207204F10800D4E90021E7
:10AEA000904710BD10B504462078182802D1FDF750
:10AEB0002BFB207010BD10B504462078182802D155
:10AEC000FDF722FB207010BD70B505460E461446F6
:10AED00024B13146284602F04BFE03E031462846B5
:10AEE00002F0E1FD70BD30B504461088C01C9842E8
:10AEF00001D90C2030BD0220158848551088401C0F
:10AF000010800120158848551088401C1080158835
:10AF10004C551088401C10800020EBE770B50446AB
:10AF20000D4640F21442115B0122D4F81004FDF7E3
:10AF300067F8064606B1357004F13C0204F58261FB
:10AF400004F1540072DF70BD2DE9F04106460C4655
:10AF500015460027112C01D1012700E0002765B11B
:10AF60003A460A4801783046FDF7F2FA00220848CE
:10AF700001783046FDF7ECFA05E03A4604480178DE
:10AF80003046FDF7E5FABDE8F08100003B230020E4
:10AF90003823002010B54FF4405400F009F803495D
:10AFA000086108460069001BC86010BD80240020AD
:10AFB00010B540F6F8700068401C18B94FF010202A
:10AFC000406902E040F6F870006803464FF0805098
:10AFD00001694269581C08B1184601E002FB01F002
:10AFE0000446204610BD000010B5FFF7D3FF002235
:10AFF0000249034803F098FA10BD0000C096030010
:10B0000080240020F7B50D4617460DB90020FEBD7F
:10B010000026009868B1002409E02146684602F045
:10B0200098FD18B1A0B23946A847761C641C142CB0
:10B03000F3D33046EBE710B50446606808F096F8A5
:10B0400010BD000070B586B000BF9DF80C0020F068
:10B050000F00401C03909DF80C0020F0F000103011
:10B06000039000BF01A86DDF044600BF25463DB137
:10B0700000BF26A24FF4D1712846FBF7CBF800BFE2
:10B0800000BF0E2002F04CF906469DF80500009026
:10B090009DF8063021A224A13046FBF7A5FE3046DC
:10B0A000FBF724FA85B22A46314603A87CDF044622
:10B0B00000BF25463DB100BF14A24FF4D57128460C
:10B0C000FBF7A8F800BF00BF0020049005905020B7
:10B0D000ADF81000A020ADF812000020ADF814006B
:10B0E0004FF4C870ADF8160004A87ADF044600BF1C
:10B0F00025463DB100BF05A24FF4DC712846FBF7A1
:10B1000089F800BF00BF06B070BD00002E2E5C2E77
:10B110002E5C2E2E5C6D61696E2E63006D69616F11
:10B120006D69616F335F00002573253032782530FB
:10B130003278000070B50021084802F00DFE044688
:10B1400000BF25463DB100BF05A24FF4E07128467F
:10B15000FBF760F800BF00BF70BD0000982400201E
:10B160002E2E5C2E2E5C2E2E5C6D61696E2E630081
:10B1700070B5054615B14FF4064070BD1848007B08
:10B1800018B100201649087301E000F0DFF81448F8
:10B19000007808281DD2DFE800F01C04080C101C01
:10B1A000141800F03FF8044616E000F0BDF804461D
:10B1B00012E000F099F804460EE000F047F804466B
:10B1C0000AE000F035F9044606E000F043F90446D1
:10B1D00002E048F20E6400BF00BF2046CDE7000049
:10B1E000283500200D480089401C0C4908810020AA
:10B1F0004880087300BF0DE000EB8001084A12F898
:10B20000211009B9012200E0002204490A310A5440
:10B21000411C88B20228EFDB70470000283500206F
:10B220000035002010B5084800F036F840B900207D
:10B230000549891E08704880486041F61D5010BDC0
:10B2400000F072F8FBE700002A35002070B50F48C7
:10B25000458805EB85000E4901EB8000C06878B990
:10B2600004200A49087005EB8500094A02EB8000BA
:10B27000002301224168074803F09EF8044602E0DB
:10B2800000F090F80446204670BD000028350020EC
:10B29000003500208024002010B501460022002047
:10B2A00018E00F4B1B5C9BB100240D4B1C5400EBB2
:10B2B00080030C4C04EB8303DB684BB900EB800389
:10B2C00004EB83031B7C012B02D10880012203E0E5
:10B2D000431C98B20228E4DB00BF104610BD0000FA
:10B2E0003235002000350020F8B50C4844680C4881
:10B2F00000680B49898800EB81056088C01C86B214
:10B300000320064908700020B30000900846294633
:10B310004268044803F0C8F9F8BD00002835002051
:10B32000C42300208024002010B507494888091D47
:10B3300008F00CF918B1FFF7D7FF044602E0FFF759
:10B3400085FF0446204610BD2835002010B514485E
:10B350000078082820D2DFE800F0041F1F0A10162A
:10B36000171BFFF73FFF01200D49087015E000F0A3
:10B370007DF802200A4908700FE000F029F8062045
:10B380000749087009E000BF07200549087004E07C
:10B3900001200349087000E000BF00BF10BD00009D
:10B3A0002835002010B505200649087002200649FE
:10B3B00088800846002301220168044802F0FCFF4F
:10B3C00010BD000028350020C42300208024002068
:10B3D000144908681449498801EB8101134A02EBBA
:10B3E000810149680F4A11600F49498801EB8101C9
:10B3F0000E4A02EB810148600A4989880A4A52884C
:10B4000002EB8202094B03EB820211810221054A01
:10B4100091800021044A528802EB820203EB8202EF
:10B4200011747047C4230020283500200035002007
:10B4300010B5062005490870498801EB8101044ACE
:10B4400002EB8101486806F0A3F910BD2835002001
:10B450000035002010B5072003490870002048601F
:10B4600006F0A6F910BD000028350020054A5068F6
:10B470004288D21C91B2044A92880A44024B9A80B4
:10B480007047000028350020C42300202DE9F0413A
:10B4900086B00446A688208850282ED004DC3528A3
:10B4A00036D0362808D189E0522802D05428F9D164
:10B4B00003E0304601F030FDB9E01422634901A8F1
:10B4C000FAF7E2FFADF80660304600F0FFFDADF898
:10B4D0000800BDF8080000F075FA00225C48017809
:10B4E0003046FDF735F800225A4801783046FDF71E
:10B4F0002FF801A8FFF744FA99E0A01DFEF76AF9BA
:10B5000028B10121304601F069FD0DF049F98EE0C6
:10B510000027A68804F10A054F4801783046FDF758
:10B5200001F800B983E000224B4801783046FDF76E
:10B530000FF8E088B0F5857F3AD0E08858B1E2880E
:10B540004649474BC91AC908022343EA014045A1AD
:10B5500003F034FE2CE0288801280AD02A883F49CD
:10B560003F4BC91AC908022343EA01404CA103F02A
:10B5700025FE688801280BD06A883849384BC91ADB
:10B58000C908022343EA014054A103F017FE0FE06B
:10B59000A98800223046A1DF8046B8F1000F06D10D
:10B5A000012701225C4801783046FCF7D1FF00BF3B
:10B5B0001FB9002130460CF039FC38E00027A6887E
:10B5C00004F10A05544801783046FCF7ABFF00B996
:10B5D0002DE00022504801783046FCF7B9FFE088A2
:10B5E00058B1E2881D491E4BC91AC908022343EA13
:10B5F00001401CA103F0E2FD14E0A88801280BD053
:10B60000AA881649164BC91AC908022343EA014001
:10B6100032A103F0D3FD05E0A87908B1012000E0D4
:10B6200000200746394630460CF000FC00BF00BF42
:10B6300000BF002239493A480078FCF705FF00BFF7
:10B640000BF022F806B0BDE8F0810000B8930300CB
:10B65000EB220020EA220020ED22002064AE03004D
:10B6600064AE0300556E6578706563746564204749
:10B6700041545420737461747573207768696C65E4
:10B680002067657474696E67204341522063686166
:10B69000722076616C75653A20307825780000005C
:10B6A0004D756C7469706C652028256429204341B0
:10B6B000522063686172616374657269737469634F
:10B6C0007320666F756E642C207573696E672074C5
:10B6D00068652066697273742E000000556E657887
:10B6E00070656374656420434152206368617261D0
:10B6F0006374657269737469632076616C75652023
:10B700006C656E67746820282564292C2073746F1B
:10B71000726520302E000000EE2200205D7C0200C9
:10B72000E922002010B50446207858B9608801F05D
:10B73000F3FB60880AF098FF6088FEF715F80DF0BB
:10B740002FF800E000BF00BF10BD000010B500F0F2
:10B7500025FEFCF7D9FE2A490870FCF7D5FE2949D9
:10B760000870FCF7D1FE28490870FCF7CDFE274988
:10B770000870FCF7C9FE26490870FCF7C5FE25498C
:10B780000870FCF7C1FE244908701D48007818288D
:10B7900017D01C480078182813D01B4800781828A8
:10B7A0000FD01A48007818280BD0194800781828AC
:10B7B00007D018480078182803D0084600781828C1
:10B7C0000BD11649164A891AC908012242EA0140DA
:10B7D000144903F0E9FC032010BD00BF002012490A
:10B7E000086000BF00BF00BF00BFBFF35F8F00BF96
:10B7F00000BF00BF00BF01200C4908700020EBE72C
:10B80000E8220020E9220020EA220020EB2200208A
:10B81000EC220020ED220020EE22002064AE030086
:10B8200064AE0300BC990300E4220020E022002063
:10B830007CB504462078082840D1607A00283DD1A4
:10B84000207A012814D0072802D0082834D12BE010
:10B85000A08800F06BFB05464FF6FF70854206D0CE
:10B860000121284601F0BAFB2846FDF77DFF24E0C0
:10B87000A0886A46012106F06DF906469EB9019836
:10B88000007880B1A08800F051FB05464FF6FF70AC
:10B89000854207D001220B4801782846FCF758FE64
:10B8A0000AF0F2FE00BF08E007480068012802D154
:10B8B000054803F087FE00E000BF00BF0CF070FFFA
:10B8C0007CBD0000EA220020E422002070B50B4875
:10B8D000FEF7CCFC0A4B0CCB841843F10005094958
:10B8E00003C9201A75EB010004D24FF08073E418ED
:10B8F00045F100052046294670BD00008023002048
:10B900009023002098230020014800687047000021
:10B910009822002038B504F0C9FC044600BF254633
:10B9200035B100BF0FA2A9212846FAF773FC00BF6A
:10B9300000BF10480068009000208DF801000E4AFA
:10B940006946142004F02EFC044600BF254635B19C
:10B9500000BF04A2B0212846FAF75CFC00BF00BF7C
:10B9600038BD00002E2E5C2E2E5C2E2E5C6D616983
:10B970006E2E63007C91030035C102002DE9F04179
:10B9800004468846E0B2FDF799FE0546287804F0A3
:10B9900083FC07466878012800D100E00020784049
:10B9A00080F001064EB10648D0E90010002359404E
:10B9B0005840014301D10CF08BFBBDE8F081000041
:10B9C000782300201CB50446044903C9CDE90001D1
:10B9D00000226946204606F0CBFA1CBDDC9303002A
:10B9E00010B500F0E1FC012001490870002010BDF5
:10B9F000F42200202DE9FC470546284600F066FBAE
:10BA000006460027B8464FF003094FF0010A4FF6EB
:10BA1000FF7086420DD06A460821304606F09AF83B
:10BA2000044634B90198871DB0F80480D0F800901E
:10BA300000BF00BF4B46424639462846B1DF0446A8
:10BA4000042C01D1112422E0082C01D100241EE095
:10BA50000B2C1CD14FF0000A09F0020010B14FF07E
:10BA6000010914E017B9B8F1000F04D00027B84657
:10BA70004FF003090BE00A490A4A891AC908012252
:10BA800042EA01402A46084903F098FB03240B2CA4
:10BA9000D0D0BAF1000F00D10B242046BDE8FC87BE
:10BAA0006CAE030064AE0300849C03002DE9FC5FD0
:10BAB0008046404600F00AFB06464FF6FF7086427D
:10BAC00003D143F20200BDE8FC9F4FF001094FF0A3
:10BAD000000A00BF4FF0000A4A46511C1FFA81F9C4
