:020000040002F8
:1060000088940020DD630200E5630200E76302007C
:10601000E9630200EB630200ED6302000000000090
:10602000000000000000000000000000EF6302001C
:10603000F163020000000000F3630200F563020058
:10604000BD660200F76302008D6A0200C9670200A4
:10605000F7630200F7630200E9650200F7630200DC
:10606000F7630200F7630200F7630200F7630200C0
:10607000F7630200F7630200F7630200F7630200B0
:10608000F763020011670200F7630200F763020082
:10609000F7630200F7630200DD670200F7630200A6
:1060A000F7630200F7630200F7630200F763020080
:1060B000F7630200F7630200000000000000000028
:1060C000F7630200F7630200F7630200F763020060
:1060D00029670200F7630200F76302000000000076
:1060E00000000000000000000000000000000000B0
:1060F00000000000000000000000000000000000A0
:10610000000000000000000000000000000000008F
:10611000000000000000000000000000000000007F
:10612000000000000000000000000000000000006F
:10613000000000000000000000000000000000005F
:10614000000000000000000000000000000000004F
:10615000000000000000000000000000000000003F
:10616000000000000000000000000000000000002F
:10617000000000000000000000000000000000001F
:10618000000000000000000000000000000000000F
:1061900000000000000000000000000000000000FF
:1061A00000000000000000000000000000000000EF
:1061B00000000000000000000000000000000000DF
:1061C00000000000000000000000000000000000CF
:1061D00000000000000000000000000000000000BF
:1061E00000000000000000000000000000000000AF
:1061F000000000000000000000000000000000009F
:10620000DFF80CD000F0B2F90048004761DD020071
:106210008894002000B583B002900091019244F26E
:10622000010071466A4601F073FA03B000BD000038
:1062300030B450E8012F93B2C48923448489A34227
:1062400028BF1B1B0489A34202BFBFF32F8F00206E
:1062500007E0C3EA020340E80134002CE9D14FF023
:1062600001000A6030BC704750E8012FC2EA0242C8
:1062700040E801210029F7D1704730B450E8022FDF
:106280001FFAA2F3C488A34202BFBFF32F8F0020DE
:106290000DE0C48923448489A34228BF1B1BC2EAA2
:1062A000034340E80234002CE8D14FF001000A60BB
:1062B00030BC704750E8022FC2EA224240E8022177
:1062C0000029F7D17047034653E8022FD988B2EB73
:1062D000324F4FF0000017BF92B241EA014142EA4B
:1062E000014104E05A68B2EB324F08BF012043E895
:1062F0000212002AE8D1704730B4044654E8000F77
:106300000D4644E80053002BF8D1156030BC7047AF
:1063100030B4044654E8000F40EA010544E8005355
:10632000002BF7D1156030BC704730B4044654E8F8
:10633000000F00EA010544E80053002BF7D1156077
:1063400030BC704730B4044654E8000F80EA0105C1
:1063500044E80053002BF7D1156030BC704730B4CF
:10636000044654E8000F00EB010544E80053002BFD
:10637000F7D1156030BC704730B4044654E8000FC4
:10638000A0EB010544E80053002BF7D1156030BCA9
:10639000704770B404464FF0000054E8006F0D6879
:1063A000AE4207BF44E80023012044E800630E60CA
:1063B000002B1CBF0020F0E770BC704730B40446CF
:1063C00054E8000F88422CBF451A054644E80053A4
:1063D000002BF5D1156030BC70470000064880479F
:1063E00006480047FEE7FEE7FEE7FEE7FEE7FEE7BA
:1063F000FEE7FEE7FEE7FEE7F56702000162020046
:106400002DE9F05F0546002092469B4688460646E9
:10641000814640241BE0284641464746224600F07C
:1064200094F853465A46C01A914110D31146184663
:10643000224600F016F82D1A67EB01084F46224657
:106440000120002100F00DF817EB00094E41201E3D
:10645000A4F10104DFDC484631462A464346BDE844
:10646000F09F202A04DB203A00FA02F10020704756
:106470009140C2F1200320FA03F319439040704782
:1064800000487047987C03000649074A0868504353
:1064900043F239021044086040087047014908601F
:1064A00070470000F82D00206D4EC64110B5431A0C
:1064B000934209D28318881803E010F8011D03F8ED
:1064C000011D521EF9D210BD40EA01039B0703D003
:1064D00009E008C9121F08C0042AFAD203E011F823
:1064E000013B00F8013B521EF9D210BDD2B201E0CF
:1064F00000F8012B491EFBD270470022F6E710B5C9
:1065000013460A4604461946FFF7F0FF204610BD21
:10651000421C10F8011B0029FBD1801A704730B5CE
:1065200004460020034600E05B1C934203D2E05C7B
:10653000CD5C401BF8D030BD034611F8012B00F8AC
:10654000012B002AF9D118467047202A04DB203A93
:1065500021FA02F00021704721FA02F3D040C2F183
:10656000200291400843194670470000064C074D31
:1065700006E0E06840F0010394E807009847103413
:10658000AC42F6D3FFF740FE90910300B0910300B8
:1065900070B58C1810F8015B15F0070301D110F8E5
:1065A000013B2A1106D110F8012B03E010F8016B12
:1065B00001F8016B5B1EF9D12B0705D40023521E95
:1065C0000DD401F8013BFAE710F8013BCB1A921CFD
:1065D00003E013F8015B01F8015B521EF9D5A142FB
:1065E000D8D3002070BD00002DE9F84F0026002010
:1065F00000904FF480770125002410E0384609F020
:106600003FF940B100BF25480068284018B138461E
:1066100009F028F92E436D00381D87B2641C082C40
:10662000ECD34FF4BE7009F02BF950B14FF4BE70AB
:1066300009F018F946F000466A460121002009F0E9
:106640007FF8F0B210B3012500241DE005EA060032
:10665000C0B100BF124850F82400C0F304208146A6
:1066600000BF0F4850F82400C0F301408246204686
:1066700003F0B4FA8046B8F1000F02D05146484604
:10668000C04700BF6D00641C082CDFD306F000403B
:1066900010B168460DF018FBBDE8F88F04630040A8
:1066A0001065004010B514200AF090FB10BD10B525
:1066B000012114200AF0B4FB10BD000010B54FF406
:1066C000807008F0B4F980B14FF4807008F0B8F928
:1066D000012008F0BFF90D48407930B901200B497D
:1066E000487108460168002088474FF4827008F01E
:1066F0009EF950B14FF4827008F0A2F9022008F020
:10670000A9F9024801680120884710BDCC2C00205F
:1067100010B5034A1068034A1168884710BD00008D
:10672000282D0020242D002010B50422002102482D
:1067300006F084FF10BD00000040024010B500F0DC
:10674000ADF910BD2DE9F047074688461646C2460A
:1067500007EB47011B4800EBC109D9F8140020B131
:10676000012811D0022826D11EE0484600F0CEF9BB
:106770000546B54201D2002405E034463246514672
:10678000484600F00AFA18E0484600F0BFF905460E
:10679000B54201D2284600E0304604462246514622
:1067A000484600F0FAF908E032465146484600F003
:1067B000BBF9044601E0002400BF00BF2046BDE84D
:1067C000F08700001452002010B50249024806F07C
:1067D00022FF10BDE04700200030004010B50AF055
:1067E0007DF810BD01480249086070470090D00351
:1067F000F42D002010B507F0E1FC28B19248008884
:10680000C0F304209149086007F030FD10B19048B2
:106810009049486707F066FD30B18B48E038006862
:10682000C0F342308C49086007F088FD28B18B48DE
:10683000006820F080708949086007F09DFD48B12C
:106840000020874908604FF08041C1F8100182495B
:10685000091F086007F0BCFD18B103207E496431B0
:10686000086007F0D3FD68B105207E49086001206B
:106870007C497831086000207A49083108603F205F
:10688000091F086007F0E0FD002855D06E48E03091
:106890000068754908606C48E4300068091D0860AC
:1068A0006948E8300068091D08606748EC300068F6
:1068B000091D08606448F0300068091D08606248DE
:1068C000F4300068091D08605F48F83000686649C8
:1068D000203108605C48FC300068091D086063488E
:1068E0000068091D08606148001D0068091D0860F6
:1068F0005E4808300068091D08605C480C3000687C
:10690000091D086059481030006857494031086037
:10691000564814300068091D086054481830006853
:10692000091D086051481C300068091D08604F4867
:1069300020300068091D086007F014FC30B142489F
:10694000CC38006800F04F004949086007F062FC4D
:1069500040B14848006800F0010018B16FF0010034
:106960004449086007F0A0FC28B14348006840F49F
:1069700080604149086039487438006840F470000C
:1069800036497439086000BF00BF00BFBFF34F8FA6
:1069900000BF00BF00BF00BF00BF00BFBFF36F8FCD
:1069A00000BF00BF00BF3548006800F0004028B9B4
:1069B0003248001D006800F00040E8B30120304973
:1069C000086000BF2F4800680028FBD015202B4925
:1069D000086000BF2B4800680028FBD0152127481D
:1069E000001D016000BF274800680028FBD0002080
:1069F0002349086000BF234800680028FBD000BF7F
:106A000000BF00BF00BF00BFBFF34F8F00BF00BF7C
:106A100000BF1248F038006800F4E0601A490843EB
:106A2000001D0E49F039086000BF00BF00BFBFF372
:106A30004F8F00BF00BF00E003E000BF00BF00BFFA
:106A4000FDE7FFF7CFFE10BD2403001040350140E5
:106A50000DF0ADBA00C007403C050040FCED00E081
:106A60000C0100401056004020C5004024040010D6
:106A7000E40E0040000400403C17004000120010EB
:106A800004E5014000E401400000FA0510B50249A8
:106A90000868804710BD0000D42C002010B5124CAF
:106AA00002202061606111A0A0611349E1614FF4EF
:106AB000007121620021A1626162E1620BA0A06409
:106AC0000E49E164102121650021A1656165E16540
:106AD0000BA1E01DFFF730FD0AA12046FFF72CFDBA
:106AE0002020A07110BD0000FC5100205465726D83
:106AF000696E616C00000000745200207454002024
:106B000052545400534547474552000010B50146C2
:106B10000A69CB689A4204D88C68641EE41AA018EB
:106B200001E0D41A601E10BD2DE9F04704468946E5
:106B300017464FF0000AE56800BFD4F81080A8455A
:106B400003D9A8EB0500461E04E0A5EB0800401C95
:106B5000A1680E1AA068401BB04201D9304601E07E
:106B6000A068401B0646BE4201D2304600E03846CF
:106B700006466168481932464946FFF797FCB24419
:106B8000B144BF1B3544A068A84200D10025E56090
:106B9000002FD2D15046BDE8F0872DE9F0470446DA
:106BA00089461546E668A068871BAF4208D9616828
:106BB00088192A464946FFF779FC7019E06010E011
:106BC000B8466168881942464946FFF76FFCA5EB55
:106BD000070809EB070142466068FFF767FCC4F845
:106BE0000C80BDE8F08700000FB4084B10B504A975
:106BF00002AA039800F03EF8044602A9002000F023
:106C00006AFA204610BC5DF814FB0000D770020041
:106C100002E008C8121F08C1002AFAD17047704765
:106C2000002001E001C1121F002AFBD170470000C3
:106C30000146202908DA012088400A4A104008B19C
:106C4000012070470020FCE7402909DAA1F120006B
:106C5000012202FA00F008B10120F2E70020F0E77B
:106C60000120EEE7FC06FFBD00BFEFF310810846F0
:106C700072B670472DE9FF4F8DB00F4605460026CE
:106C800006E025280BD0DDE90F1290476D1C761C1D
:106C900028780028F5D111B03046BDE8F08F0024E7
:106CA000A246A1460122EC4900E0044315F8013F49
:106CB000203B02FA03F00842F7D128782A2810D0A6
:106CC0006FF02F022878A0F13001092914D80AEBBF
:106CD0008A0102EB410144F0020400EB010A6D1C41
:106CE000F0E701CF5FEA000A03D544F40054CAF18B
:106CF000000A44F002046D1C28782E2817D115F8DC
:106D0000010F44F004042A280ED06FF02F022878D7
:106D1000A0F1300109290AD809EB890102EB4101F0
:106D200000EB01096D1CF2E757F8049B6D1C2878F5
:106D30006C280FD006DC4C2817D068280DD06A28A4
:106D400014D104E0742810D07A280FD10DE044F457
:106D500000140AE044F4801401E044F4401469781B
:106D6000814202D104F580146D1C6D1C2A786E2AB4
:106D70001FD00CDC632A31D004DC002A8BD0582AC7
:106D800011D1A3E0642A68D0692A0CD165E0732A86
:106D90002ED004DC6F2A73D0702A04D19BE0752AB0
:106DA0006FD0782A6ED01046DDE90F129047761C1E
:106DB00050E1C4F30250022806D0032809D0042869
:106DC00001CF09D0066045E101CFF117C0E90061AC
:106DD00040E101CF06803DE106703BE117F8040B6E
:106DE0008DF8000000208DF80100EB46012003E043
:106DF00057F804BB4FF0FF3061074FF0000102D499
:106E00000DE008F10101884649450FDA8045F8DBBD
:106E10001BF808100029F4D108E008F101018846A8
:106E20008142FADB1BF808100029F6D1DDE90F23B7
:106E3000AAEB08008146214600F036F9304400EB09
:106E4000080604E0DDE90F121BF8010B9047B8F1CA
:106E50000108F7D221464846F7E00A21C4F302535D
:106E60004FF0000B0891022B04D001CFC117032B68
:106E700009D00AE0FF1D27F00707F7E8020108E044
:106E800032E01FE020E000B2C117042B01D140B274
:106E9000C117031E71F1000307DA4FF0000CD0EBAD
:106EA0000C006CEB01012D2302E0230504D52B23FC
:106EB0008DF82430012303E0E30701D02023F7E716
:106EC000984658E00A2110E010210EE010204FF003
:106ED000000B08900CE010214FF0000B44F004046C
:106EE0004FF00809089103E008214FF0000B0891CA
:106EF000C4F30253022B04D001CF0021032B06D090
:106F000006E0FF1D27F00707F7E8020103E080B263
:106F1000042B00D1C0B24FF0000823072BD5702AF4
:106F200007D0DDF820C08CF0100C5CEA0B0C05D00B
:106F30000EE040238DF82430012308E050EA0103DD
:106F400006D030238DF824308DF825200223984672
:106F5000DDF820C08CF0080C5CEA0B0C0BD150EA79
:106F6000010301D1630706D530238DF824304FF09B
:106F70000108A9F10109582A04D038A20B9208AAE5
:106F80000A920BE03AA2F9E75B46089AFFF738FA53
:106F90000B9B9B5C0A9A521E0A92137050EA0102E4
:106FA000F2D10A98ADEB000000F1200B600702D58A
:106FB00024F4803401E04FF00109D94502DDA9EB4A
:106FC0000B0000E0002000EB0B0141440890AAEB0D
:106FD000010AE00306D4DDE90F232146504600F004
:106FE00063F806444FF0000908E009A911F8090008
:106FF000DDE90F12904709F10109761CC145F4DB68
:10700000E0030CD5DDE90F232146504600F04CF893
:10701000064404E0DDE90F1230209047761C089901
:10702000481E08900029F5DC08E00A980A990078C3
:10703000491C0A91DDE90F129047761CBBF1000153
:10704000ABF1010BF1DC21465046DDE90F2300F0E6
:1070500019F806446D1C1BE6092801003031323353
:107060003435363738396162636465660000000084
:10707000303132333435363738394142434445466E
:10708000000000002DE9F041044600251E46174689
:10709000880404D405E039462020B0476D1C641EE6
:1070A000F9D52846BDE8F0812DE9F04104460025D8
:1070B0001E469046C80301D5302700E020278804EB
:1070C00004D505E041463846B0476D1C641EF9D52D
:1070D0002846BDE8F0810A68531C0B6010707047A9
:1070E00070B505460C4605B10CB9002070BD287876
:1070F00040082178B0EB510F01D00020F6E70622BE
:10710000611C681CFFF70BFA08B90120EEE70020AC
:10711000ECE7014601F0030008B9012070470020A8
:10712000FCE7024650680068401E084008B901208C
:1071300070470020FCE70246002104E0505C08B1E3
:1071400001207047491C0629F8D30020F9E710B543
:107150000346D868884206D88818401E1C69A04299
:1071600001D8012010BD0020FCE7000010B5044646
:107170006CB10848C068A04209D806480069A0421E
:1071800005D3204606F005FB08B1012010BD002004
:10719000FCE70000042E002000B587B0002000901E
:1071A00068480068401C67490860084600689028E5
:1071B00001D9002008606448006818B96348624932
:1071C000086004E060480068401E5F4908600220D3
:1071D0008DF8040011208DF805000120ADF808009D
:1071E0005848007800F001008DF80A00FFF74CF9CC
:1071F000C82190FBF1F201FB1200143080B2ADF80F
:10720000100051480168059151480168069101201C
:1072100050490870112048704A48008888804948C1
:10722000007800F001008871BDF810104548006832
:10723000401E00EB400247480C3020F82210414825
:1072400005990068401E00EB400242480C3000EBFC
:10725000820041603B4806990068401E00EB4002F6
:107260003C480C3000EB8200816036480068401ECC
:1072700000EB400137480C3030F8211031480068ED
:10728000401E00EB4000344A42F820102D480068B0
:10729000401E00EB40012F480C3000EB810041689C
:1072A00028480068401E00EB400002EB800041606F
:1072B00024480068401E00EB400126480C3000EBDB
:1072C000810081681F480068401E00EB400002EB0F
:1072D0008000816004F00EF904F026F81F48007861
:1072E000012804D100201D49087004F061FA1548F6
:1072F00000680C21B0FBF1F201FB120018B101A8EB
:1073000003F024FA05E000200E490860012014492A
:1073100008701449144A891AC908032242EA014034
:1073200008490A6811A108F07DFD0648006803219C
:10733000B0FBF1F201FB12000090684603F0D2FCB2
:1073400007B000BD182C0020282C0020007512006A
:10735000142C00202C3B00206C3200201F2C00201D
:10736000202C002088920300D09103006461746196
:107370004E756D626572203A2564000070B5044652
:107380000D4604F22740FFF7D6FE0646012D06D033
:10739000022D0DD0032D11D0042D19D113E0A079A9
:1073A00028B194F8240010B90EB1012070BD00BFBF
:1073B000E07910B10EB10220F8E700BF207A08B1E1
:1073C0000320F3E700BF607A08B10420EEE700BFB6
:1073D0000020EBE70146481C052290FBF2F302FB7C
:1073E0001300C0B27047014691F82420012A01D150
:1073F000EE2000E01F20704710B50122022100207E
:1074000001F0F6FF044600BF1CB1072C01D0204656
:1074100010BD00BF07220221012001F0E9FF044650
:1074200000BF1CB1072C01D02046F1E700BF0A22A3
:107430000021084601F0DCFF044600BF1CB1072C08
:1074400001D02046E4E700BF10220121022001F014
:10745000CFFF044600BF1CB1072C01D02046D7E760
:1074600000BF0020D4E7000030B5B3B0AC2108A8BD
:10747000FFF743F804A86DDF044600BF25463DB181
:1074800000BF29A240F2D4512846FEF7C3FE00BF38
:1074900000BF002007E0C0F105020DF11101895C79
:1074A00006AA1154401C0628F5DB3320ADF8040071
:1074B00006A903910620ADF8080002208DF82000EF
:1074C00001A8119000208DF8220006208DF82300DD
:1074D00001218DF89C104FF4F0712A9144F2506113
:1074E0002B9101218DF89D104FF4F0712C9144F2F5
:1074F00050612D911048319008A9104800F0ABFD63
:10750000044600BF25463DB100BF07A240F2F2513C
:107510002846FEF77FFE00BF00BF0121074800F0AC
:1075200097FD33B030BD00002E2E5C2E2E5C2E2E2B
:107530005C6D61696E2E6300E5180300382E002033
:1075400070B50446012C02D102F05EFF1BE003215E
:107550000D4800F047FE054600BF2E463EB100BF75
:107560000AA240F235613046FEF754FE00BF00BF6C
:107570000A490B4A891AC908042242EA014009A1B2
:1075800008F046FC00BF70BD382E00202E2E5C2E69
:107590002E5C2E2E5C6D61696E2E63008892030056
:1075A000D09103004164766572746973696E6720D7
:1075B000737461727465642E0000000070B58CB045
:1075C00004460D461646002005E0C0F10F01615C3F
:1075D0000DF80010401C1028F7D30D2104A8FEF769
:1075E0008CFF002005E02A5CC0F10F0304A9CA54F7
:1075F000401C0328F7D3684646DF002005E0C0F1B1
:107600000F0208A9895C3154401C0328F7D30CB041
:1076100070BD10B50446002001F058FD10BD0000FB
:1076200010B5044602480178204600F061FF10BD05
:107630009F2C002010B5002407E00749096811F8C5
:107640003400012109F0ECFB641C044800788442FA
:10765000F3D3002010BD0000E82C0020EC2C00200B
:107660002DE9F84306460D4617460A2F02D2072099
:10767000BDE8F88309F018FD38B909F0ABFC044601
:1076800000BF204600B1F3E700BF18480660184865
:10769000057018480760184800210160416081604A
:1076A000C160164A1160516015E006EBC508144828
:1076B0000068009098F802008DF8010098F800002A
:1076C000104A694609F002FC044600BF204600B19A
:1076D000CEE700BF00BF281EA5F10101CDB2E4D165
:1076E000094A0021094800F043F9C1E7E82C0020CD
:1076F000EC2C0020F02C002028480020F82C002042
:10770000E878030009CA0200BDA40200E47803007F
:107710002DE9FE4307460E46144672B600BF08F038
:107720006BFC00BF00BF08F0E5F90028FBD100BFEB
:1077300000BF012F0CD06FF48050384498B1B0F5E1
:10774000405F2CD06FF440510844002847D115E029
:107750003149324A891AC908012242EA014030A15E
:1077600008F056FB47E02C492C4A891AC908012227
:1077700042EA014032A108F04BFB3CE02546264995
:10778000DFF898C0A1EB0C01C9084FF0010C4CEADE
:10779000014034A1D5E9003208F050FB2BE025462A
:1077A000A86809F011FA8046D5E900108DE8430079
:1077B00019491A4BC91AC908012343EA0140434633
:1077C0002FA1AA6808F05EFB1349144A891AC90858
:1077D000012242EA014034A108F01AFB0BE00E49F5
:1077E0000E4A891AC908012242EA0140324633A1F1
:1077F00008F018FB00BF00BF00BF3648006800F06B
:10780000010000B100BE00BF22463146384600F0FC
:1078100063F8BDE8FE83000088920300D091030066
:10782000534F46544445564943453A2041535345E6
:107830005254494F4E204641494C454400000000F7
:10784000534F46544445564943453A20494E5641C4
:107850004C4944204D454D4F5259204143434553D7
:1078600053000000415353455254494F4E20464166
:10787000494C45442061742025733A257500000069
:107880004552524F52202575205B25735D2061744F
:107890002025733A25750D0A50432061743A203033
:1078A0007825303878000000456E64206F662065CA
:1078B00072726F72207265706F727400554E4B4E0B
:1078C0004F574E204641554C542061742030782546
:1078D00030385800F0ED00E018B5012300939DF812
:1078E00000301E4B186059609A606FF48043034467
:1078F00063B1012B19D1194BDA60DB681B68174C97
:10790000A3612346DB685B68E3610EE0134B1A61F9
:107910001B699B68114C636123461B691B68A3614B
:1079200023461B695B68E36100BF00BF0B4B1B680C
:107930000A4B5B68094B9B68084BDB68074B1B696C
:10794000064B5B69054B9B69044BDB6972B600BF54
:107950009DF80030002BFBD162B618BD38480020DE
:1079600010B5024802F0EAFF10BD0000002D002013
:1079700010B503460C460AB9072010BD19684A61C4
:10798000012C01D1012000E0002008610020F4E773
:1079900038B513480068009008235822114912484E
:1079A000006806F088FD04460CB1204638BD0F4A39
:1079B00069460F4802F0C8FF04460CB12046F5E7BF
:1079C00001210B4803F066F801230A4A19460848CA
:1079D00002F086FF0120084908702046E6E7000013
:1079E000FC78030058480020EC7803006D47030042
:1079F000002D0020FFFF7F000C2D00202DE9F0411D
:107A000006460D4617463446207F10B10020BDE8DB
:107A1000F081A76104F06EFF401941F10001C4E953
:107A20000201206900B12561214600200EF0CAFD47
:107A3000EDE770B504462546002028772946012049
:107A40000EF0C0FD70BD10B5044620460DF01AF8CA
:107A500010BD000070B5044625460E488068B0B1E0
:107A6000ADB9FFF701F906460A4800680A490860FF
:107A7000084840684FF0E021C1F8040100200549A2
:107A800088601EB900BF62B600BF00BF00BF00BF64
:107A900070BD0000C048002000E100E0F8B50546D8
:107AA0000C4617462088001DB84201D90C20F8BDAD
:107AB000684679DF064600BF304600B1F7E700BFF1
:107AC0000320218868542088401C208019202188A8
:107AD00068542088401C208020884119BDF800008F
:107AE0000FF070F82188084420800020DFE70000B4
:107AF00070B500224FF4804108480068FFF77EFF10
:107B0000044600BF25463DB100BF05A240F28641B4
:107B10002846FEF77FFB00BF00BF70BDF87503006D
:107B20002E2E5C2E2E5C2E2E5C6D61696E2E6300F7
:107B300070B505460C462068401C28B1206807F047
:107B40004DFE206807F0BEFD6068401C18B10021A2
:107B5000606807F09DFD2868A169C0F8241500BF82
:107B6000617D227D286841EA0203C0F86C3500BFC0
:107B7000D4E90012286809F060F8207D012814D1AA
:107B8000A068401C18B10021A06807F081FDE068E2
:107B9000401C28B1E06807F021FEE06807F092FD84
:107BA000D4E90221286809F031F870BD70B50546A6
:107BB0000C462068401C28B1206807F01AFE206897
:107BC00007F08CFD6068401C18B10021606807F068
:107BD0006CFD2868A169C0F8241500BF617D227D75
:107BE000286841EA0203C0F86C3500BFD4E90012EE
:107BF000286809F05AF8207D012814D1A068401C9B
:107C000018B10021A06807F050FDE068401C28B1C1
:107C1000E06807F0EEFDE06807F060FDD4E90221BE
:107C2000286809F023F870BD70B504460D4620465B
:107C300005F014FF70BD10B50446637903F003022C
:107C40002179208805F0C2FE10BD10B504462079C8
:107C500018B9204600F008F803E02046FFF7EBFFD4
:107C600000BF00BF10BD00002DE9FE4307463E885F
:107C70004FF00008002259480178304600F04EFCD1
:107C80007879C0F3800028B9002138460AF0C8FD91
:107C9000BDE8FE8306F5807188B201AB01220721A1
:107CA0000AF0DEFE0546C5B1284608F08DFF814684
:107CB0004B494C4A891AC908012242EA014033461D
:107CC0004A46494908F0BAF8294630460DF0FEF90F
:107CD000002138460AF0A4FDDAE7304605F0DEF967
:107CE00004464FF6FF718C421BD1029805F026F92D
:107CF00004464FF6FF70844213D02146304605F00B
:107D0000ABF93046FFF78CFC58B930460DF072F9EC
:107D10003046FFF785FC20B9002138460AF080FD87
:107D2000B6E74FF6FF7084421FD10BF0AFF8044660
:107D30004FF6FF70844212D129492A4A891AC9088C
:107D4000012242EA014029A108F062F804213046EC
:107D50000DF0BCF9002138460AF062FD98E7214693
:107D6000304605F079F94FF0010806F5807188B2C8
:107D7000224607210AF0FCFE054625B901213846B6
:107D80000AF04EFD28E0862D07D130460DF064F94B
:107D9000012138460AF044FD1EE0284608F014FF91
:107DA00081460F490F4A891AC908012242EA014057
:107DB00033464A461A49009408F050F8294630469E
:107DC0000DF084F9002138460AF02AFDB8F1000FC1
:107DD00002D0204605F04AF900BF59E79C2C00204C
:107DE00010920300D091030034850300436F756C3B
:107DF00064206E6F7420616C6C6F63617465206EBB
:107E0000657720706565725F696420666F722069AE
:107E10006E636F6D696E6720626F6E642E00000086
:107E200050860300002114E00C48D0F810240123F0
:107E300008E000BFD0680079884201D1002303E048
:107E4000D0680268002AF4D100BF0BB10846704721
:107E5000491C0A29E8DB4FF0FF30F8E7DC4D002031
:107E60002DE9FC4105468846164600243788002047
:107E7000308095F82D0058B13A463146404600F022
:107E800071FB044600BF204608B1BDE8FC8100BF7D
:107E9000A87850B13A4631464046FFF7FFFD044608
:107EA00000BF204600B1F0E700BFE87860B1E97894
:107EB00048B23B463246414604F001F8044600BF52
:107EC000204600B1E1E700BF686868B1696891F9D0
:107ED00000003B46324641460EF09EFC044600BF81
:107EE000204600B1D1E700BF288900280EDD4346B7
:107EF0000622022105F10800CDE900670EF069FFB6
:107F0000044600BF204600B1BFE700BF288A002812
:107F10000EDD43460722032105F11000CDE900677D
:107F20000EF057FF044600BF204600B1ADE700BF8A
:107F3000288B00280EDD43461522142105F1180078
:107F4000CDE900670EF045FF044600BF204600B1B2
:107F50009BE700BF286A58B13B4632464146286A33
:107F600002F032F8044600BF204600B18DE700BFA2
:107F7000686A58B13B4632464146686A05F05AFF86
:107F8000044600BF204600B17FE700BF95F82C00F3
:107F900000280BDD3B463246414628460DF08EFA5E
:107FA000044600BF204600B16FE700BF287858B1F3
:107FB0003B4632464146284606F02BF8044600BFB1
:107FC000204600B161E700BF20465EE7F8B50446F1
:107FD0000E461546002000902B466A463146204644
:107FE00000F008F807460FB90020F8BDBDF8000002
:107FF0002044FAE7F0B504460D461E4604B10AB91E
:108000000020F0BD002103E0605C401C084481B208
:10801000481CA84206DA10888842F5DC481C205C1F
:10802000B042F1D1A94201DB0020EAE7881C87B207
:10803000605C10B1605C401E00E0002083B213B1B0
:10804000F818A84201DD0020DBE717801846D8E7C2
:1080500080F83010704770B504460D4605B10CB974
:108060000E2070BD05F1780001F04FFF08B9072020
:10807000F7E70020A0702C2205F17801201DFEF703
:1080800015FA002084F83000D5F8A4006063D5F814
:10809000A800A0634FF6FF70A4F8240404F58260E2
:1080A000C4F82004002140F22C40C4F82614A4F89F
:1080B0002A140155207810B9FF2084F8540004F1E7
:1080C0005500C4F810042046FFF78DF940F2144122
:1080D000085304F2144204F155012846FFF7C0FE8C
:1080E000064600BF304600B1BBE700BF04F23120B6
:1080F0004FF4836108512046FFF775F9A4F81C047A
:108100004FF48360015904F21C4205F13C00FFF773
:10811000A7FE064600BF304600B1A2E700BF01211E
:1081200051200155208B81B248200153012084F851
:108130003C0000212164502001556169616404F113
:108140003C02002104F1540072DF064600BF3046B5
:1081500000B186E700BF01202070304681E770B58E
:1081600004460D462E462088102804D0112807D03A
:1081700026280FD109E02146304609F08DFC0AE09F
:108180002146304609F082FE05E0214630460AF0DD
:108190007CF800E000BF00BF70BD70B5044694F8E5
:1081A000540074DF012084F82E04002084F8300489
:1081B0000021502001550621204603F09BFE054674
:1081C00000BF284600B170BD00BFA178204600F076
:1081D00009F8054625B1A06B10B12846A16B884768
:1081E0000020F0E770B504460E46207808B9082054
:1081F00070BDA670002140F22C40C4F82614A4F8EB
:108200002A140155A07910B1A078012809D0E0798D
:1082100010B1A078012804D0E07970B1A0780228CC
:108220000BD1606B30B1012084F82D040820616B04
:10823000884702E0002084F82D0431462046FFF7ED
:108240009DF8A070606BA0B1A078032802D0A07840
:1082500004280ED1607960B194F82E0448B900204A
:1082600084F83004012084F82F040720616B8847CC
:1082700002E0002084F82F04182104F13C00FEF7EE
:108280003CF9012084F83C0004F12C000AF0E8FFDE
:1082900020B194F82C105120015502E00121512009
:1082A000015594F8240060B104F128000AF0D8FFC9
:1082B00020B194F828105220015502E001215220EB
:1082C0000155002150200155A078052824D2DFE86F
:1082D00000F01F030A11180004F13C0120460DF0C4
:1082E000D9F9054619E004F13C0120460DF0BAF930
:1082F000054612E004F13C0120460DF0DDF905468B
:108300000BE004F13C0120460DF004FA054604E0C0
:10831000002084F8310000E000BF00BFA07898B1D1
:1083200004F13C0204F15400D4F8201472DF054635
:108330000DB128465CE794F8301094F8540073DFD0
:1083400005460DB1284653E7606B18B194F831002B
:10835000616B884700204BE72DE9F041044600BFE0
:1083600014B90E20BDE8F08100BF1C2221461C4834
:10837000FEF79CF81B481A490860206860B1206825
:108380007ADF05460DB12846ECE7164821680A68F1
:1083900002604968416005E012487BDF05460DB187
:1083A0002846DFE7002617E006EB86000E4901EBC2
:1083B000800700BF4FF6FF70388000BF0B4800EB0E
:1083C000461078600A4A0021381DFFF7D1FA0546A9
:1083D0000DB10320C6E7761C002EE5D00020C1E7D2
:1083E0000C430020502C0020F8420020D8420020EE
:1083F000E16C030010B50446204600F0A5F820B15A
:108400002146034806F0F9F810BD0020FCE7000003
:108410003843002070B504460D46164620460EF03F
:10842000A9FC08B9002070BD034951F82400324668
:10843000294603F0D3FDF6E74443002010B5044677
:10844000204600F081F820B12146034806F0D5F817
:1084500010BD0020FCE700004043002010B504469A
:10846000204600F071F820B12146034806F0C5F817
:1084700010BD0020FCE700003C43002070B504461E
:108480000025204600F060F850B12146054806F06E
:10849000B4F806460EB1022000E00120054600BFF8
:1084A000284670BD3443002070B5044600252046A0
:1084B00000F04AF850B12146054806F09EF80646FD
:1084C0000EB1022000E00120054600BF284670BD25
:1084D0003043002010B51821044806F05EF8044629
:1084E000182C00D110BDE0B2FCE7000028430020AA
:1084F00070B505460C4620460EF03CFC50B12846AF
:1085000000F022F830B1044901EB8400294606F05E
:1085100074F870BD0020FCE74443002070B50546A8
:108520000C46164620460EF025FC50B1284600F0B9
:108530000BF830B1034901EB84003246294603F0C1
:10854000AFFC70BD4443002010B50446142C01DB81
:10855000002010BD2146024806F04FF8F9E7000060
:108560002C4300202DE9FC4105460C461746208887
:108570000930B84202D90C20BDE8FC8168466DDFA5
:10858000064600BF304600B1F6E700BF082021884C
:1085900068542088401C20801B2021886854208833
:1085A000401C208020882844DDF801100160BDF8BF
:1085B000051081802088801D20809DF800004008E3
:1085C00018B900202188685402E0012021886854ED
:1085D0002088401C20800020CEE7000070B506F007
:1085E00049FA044600BF204600B170BD00BF00BF7D
:1085F000084D28464FF0030C00DF00BF044600BFC3
:10860000204600B1F1E700BF06F0AEFA044620466E
:10861000EBE70000E0460020014600BF09B90E204C
:10862000704700BF014801600020F9E7BC2C002022
:1086300010B51349134A891AC908042242EA0140B5
:1086400011A107F0E5FB4FF0FF3100203DDF0446AC
:1086500000BF204600B110BD00BFB12100203CDFAB
:10866000044600BF204600B1F5E700BF134841694A
:1086700001208847022007F045FE0020EBE70000BC
:1086800088920300D0910300496E20626C655F649C
:1086900066755F627574746F6E6C6573735F626F1D
:1086A0006F746C6F616465725F73746172745F661E
:1086B000696E616C697A650D0A000000C44600208D
:1086C00010B505480068416900208847FFF7B0FFF2
:1086D0000446204610BD0000BC2C002010B588B018
:1086E000044620216846FDF708FF0320ADF800008E
:1086F00020788DF802009DF80D0020F02000203039
:108700008DF80D009DF80D0020F0080008308DF860
:108710000D0001208DF810008DF80C001720ADF829
:10872000040001208DF813008DF812008DF811005F
:108730006088A21D694601F09FFA08B010BD0000D4
:1087400030B585B00546244B0FCB8DE80F0000BF38
:1087500015B90E2005B030BD00BF4FF6FF701F49A0
:10876000888028684861002008760846406908B972
:108770001B4848611948FFF74FFF044600BF2046D9
:1087800000B1E7E700BF00BF01208DF812004FF6EF
:108790005960ADF8100000BF104A921C04A90120D6
:1087A000A8DF044600BF204600B1D3E700BF0B4955
:1087B000684662DF044600BF204600B1CAE700BF3A
:1087C0000648FFF78BFF044600BF204600B1C1E713
:1087D00000BF0020BEE70000F4770300C44600207D
:1087E000D1AB020070B504460D4600BF04B970BDA0
:1087F00000BF2088102806D0112808D051280AD0A0
:10880000532810D10BE0204609F040F90CE0204637
:1088100009F02EFB08E0204609F0E0FC04E02046C9
:1088200009F076FC00E000BF00BF00BFDFE70000FA
:1088300070B504460426207B012802D0022822D1EC
:1088400009E002F0F7F905460DB9012602E0112D05
:1088500000D1062619E0607B142801DC607B08B992
:1088600005260FE0627B04F10E011248FDF71EFEA3
:10887000607B1049091F886108460CF079FF0546A6
:1088800005B9012601E0022600BF00BF012E0FD06E
:10889000207B314600F058F8054625B106480068AF
:1088A00041690320884704480068416902208847DD
:1088B00070BD0000F0460020BC2C002070B50546BD
:1088C0000E4600BF1E48006820B11D48406808B130
:1088D000012000E0002000B970BD00BF184800F181
:1088E0000801426828469047044600BF082C24D05F
:1088F0007CB900201349096848760121022000F064
:1089000023F80446CCB10F4800684169032088472A
:1089100013E000200B49096848760621022000F088
:1089200013F8044624B107480068416903208847CA
:108930000448006841690220884700BFCCE7000076
:10894000E0460020BC2C0020F0B587B004460D4660
:1089500003270020019002900390049003200690CA
:1089600020208DF814008DF815408DF816500E4813
:10897000C088ADF8040002208DF806000020ADF894
:10898000080006A8039005A804900749888801A953
:10899000AEDF064626B9BDF81800032800D00C2625
:1089A000304607B0F0BD0000C446002010B50446B4
:1089B00034B1012C0FD0022C18D0032C2FD120E081
:1089C0001D491E4A891AC908032242EA01401CA116
:1089D00007F01EFA2EE01849184A891AC90803221E
:1089E00042EA014022A107F013FA23E01249134A98
:1089F000891AC908012242EA014026A107F008FAB3
:108A000018E00D490D4A891AC908012242EA0140BD
:108A10002FA107F0FDF900BF002000BF0AE00649C2
:108A2000064A891AC908012242EA014034A107F026
:108A3000EFF900BF00BF10BD88920300D091030082
:108A40004465766963652069732070726570617230
:108A5000696E6720746F20656E74657220626F6F37
:108A6000746C6F61646572206D6F64652E00000028
:108A70004465766963652077696C6C20656E746502
:108A80007220626F6F746C6F61646572206D6F64C9
:108A9000652E00005265717565737420746F2065D2
:108AA0006E74657220626F6F746C6F6164657220A2
:108AB0006D6F6465206661696C6564206173796EB1
:108AC0006368726F6E656F75736C792E00000000BD
:108AD0005265717565737420746F2073656E6420C0
:108AE0006120726573706F6E736520746F20636CA4
:108AF00069656E74206661696C65642E0000000013
:108B0000556E6B6E6F776E206576656E742066723B
:108B10006F6D20626C655F6466755F627574746FFB
:108B20006E6C6573732E000070B504460D462E46BC
:108B30002088502804D12146304609F003FC00E08B
:108B400000BF00BF70BDF0B585B004460D461746A6
:108B50000097A0884FF6FF71884215D00020019041
:108B6000029003900490E088ADF8040001208DF895
:108B700006000020ADF80800CDF80CD00495A088C0
:108B800001A9AEDF05B0F0BD43F202063046F9E7B9
:108B900070B504460D462E462088502804D1214643
:108BA000304609F0F9FB00E000BF00BF70BDF0B532
:108BB00085B004460D4617460097A0884FF6FF7112
:108BC000884215D000200190029003900490E08824
:108BD000ADF8040001208DF806000020ADF8080073
:108BE000CDF80CD00495A08801A9AEDF05B0F0BD8A
:108BF00043F202063046F9E7F8B505460F46002471
:108C0000288821283BD004DC102815D011286ED1EB
:108C100004E03B2850D05628F9D169E04349444A42
:108C2000891AC908032242EA014042A107F0F0F87C
:108C300000204449087077E03C493D4A891AC90838
:108C4000032242EA014040A107F0E2F801203D4939
:108C50000870A8883F490880084601883E4805F00A
:108C60007FFE044600BF26463EB100BF3BA240F255
:108C7000D9413046FDF7CEFA00BF00BF54E02B4982
:108C80002B4A891AC908042242EA014037A107F099
:108C9000BFF800200090A88869468FDF044600BF17
:108CA00026463EB100BF2DA240F2E5413046FDF719
:108CB000B1FA00BF00BF37E01C491D4A891AC90834
:108CC000042242EA01402EA107F0A2F8A88813214D
:108CD00076DF044600BF26463EB100BF1FA240F229
:108CE000EE413046FDF796FA00BF00BF1CE01AE0E7
:108CF0000E490F4A891AC908042242EA014026A1F6
:108D000007F086F8A888132176DF044600BF2646C0
:108D10003EB100BF11A240F2F6413046FDF77AFAAB
:108D200000BF00BF00E000BF00BFF8BD8892030095
:108D3000D0910300446973636F6E6E6563746564FC
:108D40002E0000001D2C0020436F6E6E656374655D
:108D5000642E0000102C00202C2E00202E2E5C2EC5
:108D60002E5C2E2E5C6D61696E2E6300504859207A
:108D700075706461746520726571756573742E0019
:108D80004741545420436C69656E742054696D6585
:108D90006F75742E000000004741545420536572D3
:108DA0007665722054696D656F75742E0000000041
:108DB00070B505460E462888102802D011282CD1FF
:108DC00015E01748006860B901F0F6F9044600BFE5
:108DD00034B11448006818B1204612490968884720
:108DE00000BF0F480068401C0D49086016E00C48A1
:108DF0000068401E0A4908600846006860B9FEF72E
:108E0000FBFA044600BF34B10648006818B120469A
:108E100004490968884700BF00E000BF00BF70BD7B
:108E20004C2C0020482C002070B504460D462088AC
:108E3000102806D0112808D012280ED0502810D1A2
:108E400007E0204608F0EAFD0CE0204608F0F6FFB7
:108E500008E0204609F04AFA04E0204608F0C6FD82
:108E600000E000BF00BF70BD2DE9F04104460F4691
:108E7000A6882088102806D0112819D019283FD09C
:108E80001A284AD118E00BF091FB30460BF002FA99
:108E900030B900BF22A2F0210420FDF7BBF906E0A3
:108EA000E07B022803D131462C4805F0B5FB34E0C5
:108EB00030460BF09FFB30E0207A0509042D01DBE2
:108EC000012000E000200246314624480C3002F028
:108ED000E7FF032D01DB012000E0002002463146C0
:108EE0001E48083002F0DCFF022D01DB012000E00B
:108EF0000020024631461948001D02F0D1FF0CE067
:108F0000207A48B9607AC0F3C0052A463146134832
:108F10000C3002F0C5FF00BF00BF00BFBDE8F0810C
:108F20002E2E5C2E2E5C2E2E5C2E2E5C2E2E5C2E7B
:108F30002E5C636F6D706F6E656E74735C626C65D2
:108F40005C636F6D6D6F6E5C626C655F636F6E6EA0
:108F50005F73746174652E63000000003443002069
:108F600070B504460D4600BF0748007800B970BDD3
:108F700000BF204603F04CFF20460CF027FD2046A2
:108F800003F098FA00BFF2E78C2C002070B504467D
:108F900020460DF011FE0546C5F3400070BD70B5CA
:108FA000044620460DF008FE054605F0010070BDA0
:108FB00038B507F051FC044600BF25463DB100BF5F
:108FC00015A240F261512846FDF724F900BF00BF09
:108FD000002000906946012007F038FA044600BFDF
:108FE00025463DB100BF0CA240F267512846FDF76F
:108FF00011F900BF00BF684607F0F8FA044600BF49
:1090000025463DB100BF04A240F26B512846FDF752
:1090100001F900BF00BF38BD2E2E5C2E2E5C2E2E17
:109020005C6D61696E2E630070B504460D462E4678
:109030002088502804D12146304609F0D7F900E0B5
:1090400000BF00BF70BD000001460148405C704792
:109050001D76030010B50146094B585C00BF4FF068
:10906000A044234600BFD3F81045C44004F00104D7
:109070000CB1012000E00020024682F0010010BD8A
:109080001D7603007CB500240DE00848055D03262D
:10909000002000903346024601460190284606F023
:1090A0007BFA00BF641C032CEFD37CBD1D7603004C
:1090B00010B5044604F0010008B100F04BF804F0CC
:1090C000020008B1FFF7DEFF10BD000010B5024638
:1090D0000949885C00BF4FF0A0442146D1F804350F
:1090E000012484409C43C1F80845012484401C406D
:1090F000C1F80C4500BF10BD1A76030010B5044638
:109100000249085D012106F08AFB10BD1A760300B2
:1091100010B504460249085D002106F080FB10BD31
:109120001A76030010B50146094B585C00BF4FF09A
:10913000A044234600BFD3F80445C44004F0010412
:109140000CB1012000E00020024682F0010010BDB9
:109150001A7603007CB500240CE00948055D002068
:1091600000900346012211460190284606F014FAA9
:1091700000BF641C032CF0D300F004F87CBD000099
:109180001A76030010B5002403E02046FFF7B6FF6F
:10919000641C032CF9D310BD10B5002403E0204655
:1091A000FFF7B6FF641C032CF9D310BD02464FF045
:1091B000FF30002106E0054B5B5C934201D108467D
:1091C00002E0491C0329F6D300BF70471D76030057
:1091D00070B505460C4600260648056014B12046C9
:1091E0000CF0A5FF0448006810B9FEF705F9064623
:1091F000304670BD482C00204C2C002010B50020BB
:1092000000F0A2FB044600BF1CB1062C01D0204692
:1092100010BD00BF012000F097FB044600BF1CB149
:10922000062C01D02046F3E700BF0020F0E7000045
:109230002DE9F04106460F464FF000080024304665
:10924000FFF7B4FF0446032C3ED20FB3012F02D028
:10925000022F38D130E004EB4400214911F800809E
:1092600004EB44000844407850B11E4A4FF480415A
:109270001D480068FEF7C2FB05460DB91948067087
:1092800004EB4400164908448078184908551AE050
:1092900015480068FEF7CDFB1448005D04EB44015F
:1092A0000F4A11448978884205D104EB44001146E5
:1092B000084490F8028006E004EB440008490844A2
:1092C00090F8018000BF00BFB8F1000F06D0084839
:1092D000006818B14046064909688847BDE8F08132
:1092E000A8420020442C002028760300452C0020B2
:1092F000402C002010B50446032C03D22046FFF773
:10930000A9FE10BD0020FCE770B50546042D09D06C
:10931000072D1BD00A2D02D0102D4DD12FE00CF0BF
:109320001DFB4AE013212648008876DF0446082CFE
:109330000BD000BF26463EB100BF22A240F2B15181
:109340003046FCF767FF00BF00BF36E01C480088CE
:109350004FF6FF71884211D11E48FEF71EFF0446EA
:10936000082C0BD000BF26463EB100BF15A240F22C
:10937000BB513046FCF74EFF00BF00BF1DE012207E
:1093800000BF4FF0A0431946D1F8042501238340C4
:109390009343C1F80835012383401340C1F80C35CD
:1093A00000BF0D490D4A891AC908032242EA01404B
:1093B0000BA106F02DFD00E000BF00BF70BD000056
:1093C000102C00202E2E5C2E2E5C2E2E5C6D6169E2
:1093D0006E2E6300382E002088920300D091030087
:1093E0006273705F6576656E745F6B65795F32007E
:1093F00030B503460020032B23D2012A07D10129CF
:1094000003D103F10E04E4B200E00024224679B156
:10941000012902D0022911D104E003EB43040A4DD3
:109420002A550DE003EB4304074D2C44627007E01E
:1094300003EB4304044D2C44A27001E0072000BF5D
:1094400000E0072030BD0000A842002070B50446AF
:1094500000250548007800F0010018B1204600F012
:109460005BF80546284670BD382C00202DE9F041F8
:1094700005460F4600241F4805601F48076005F099
:10948000020000B3002606E0012211463046FFF735
:10949000AFFF0446761C032E01D2002CF4D034B961
:1094A00040F2333203211548FEF7DAF8044614B9C6
:1094B000FEF7C0F804462CB9114A00211148FEF706
:1094C00057FA044600BF05F0010080B10120FFF704
:1094D000EFFD2CB90C4A00210C48FEF749FA04466E
:1094E0002CB90B4A01210B48FEF742FA04462046EC
:1094F000BDE8F081382C0020402C00202C760300A1
:10950000B19A02002876030045D8020020760300B5
:1095100013760200247603002DE9F0470446002666
:109520000025F848007820B10020F649087004F0C2
:1095300075F9182C7ED2DFE804F00C16175085B9A7
:10954000FDFBFAF9F8F7F6F5F4F3F2F1F0EFEEEDD2
:10955000ECEB04F063F9EC480068FEF76AFA0646A3
:10956000EA480470E9E100BF0120FFF7DBFD70B1BC
:109570000120FFF7C3FD0020FFF7C0FD022C02D140
:109580004FF4E16001E04FF47A6005460CE0012001
:10959000FFF7BEFD0020FFF7BBFD022C01D1C82064
:1095A00001E04FF4C8700546D84804704FF40040FD
:1095B000A5FB00204FF47A73D71840F100015A0040
:1095C00000233846FCF71CFF814600224946CE485E
:1095D0000068FEF713FA0646AFE10120FFF7A2FD8F
:1095E00058B10120FFF78AFD032C02D14FF44870D7
:1095F00001E04FF47A60054609E00120FFF788FD9D
:10960000032C01D1C82001E04FF4C8700546BF48C3
:1096100004704FF40040A5FB00104FF47A73CF188C
:1096200040F100015A0000233846FCF7E9FE81466C
:10963000002200E080E14946B3480068FEF7DEF909
:1096400006467AE10120FFF76DFD58B10120FFF7D2
:1096500055FD042C02D14FF47A6001E04FF47A609A
:1096600005460AE00120FFF753FD042C02D14FF418
:10967000C87001E04FF4C8700546A44804704FF468
:109680000040A5FB00104FF47A728F1840F10001E2
:10969000520000233846FCF7B3FE814600224946BB
:1096A00099480068FEF7AAF9064646E10120FFF74F
:1096B00039FD50B10120FFF721FD052C01D1C82053
:1096C00001E04FF47A60054609E00120FFF720FD34
:1096D000052C01D1C82001E04FF4C87005468B4825
:1096E00004704FF40040A5FB00304FF47A729F18CD
:1096F00040F10001520000233846FCF781FE81460C
:109700000022494680480068FEF778F9064614E1D1
:109710000DE106E100E1CBE09CE096E063E061E072
:109720005FE05DE05BE055E045E035E025E015E019
:109730000EE0FFE70120FFF7C9FC74480470002227
:1097400040F2666170480068FEF758F90646F4E09A
:109750000120FFF7DDFC6D480470EEE0012069494F
:1097600008700220FFF7B2FC002240F266616648F2
:109770000068FEF743F90646DFE001206149087002
:109780000220FFF7A3FC00224FF400515E4800685E
:10979000FEF734F90646D0E001205A49087002204D
:1097A000FFF794FC002240F2666157480068FEF71C
:1097B00025F90646C1E00120524908700220FFF752
:1097C00085FC00224FF400514F480068FEF716F95F
:1097D0000646B2E0FFF7E0FC4C480470ADE000BF85
:1097E00000BF00BF00BF4A480068FEF722F90646E6
:1097F000C4F1110515B30EBB012D18D9A8B2C821AB
:1098000048434FF4004180FB01104FF47A73CF18A6
:1098100040F100015A0000233846FCF7F1FD814673
:10982000002249463A480068FEF7E8F8064600205C
:10983000FFF76EFC01203749087005E00020FFF7B4
:109840005DFC00203349087077E003F0E7FF2F4804
:10985000047072E00020FFF765FC40B10120FFF7C3
:109860004DFC0020FFF74AFC40F6863506E001205B
:10987000FFF74EFC0020FFF74BFC32252348047015
:109880004FF40040A5FB00304FF47A715F1840F1AF
:1098900000014FF4FA6200233846FCF7B1FD81461F
:1098A0000022494618480068FEF7A8F8064644E03A
:1098B0000020FFF737FC70B10020FFF71FFC0120EC
:1098C000FFF726FC002240F233310F480068FEF714
:1098D00095F8064612E00120FFF724FC18B101209C
:1098E000FFF70CFC0AE00020FFF712FC002243F215
:1098F000333105480068FEF781F8064603480470D6
:109900001BE00000352C002020760300342C0020C2
:10991000247603003C2C002003F080FF09480470EB
:109920000BE00120FFF7F4FB0648047005E0FFF7A9
:1099300033FC0448047000E000BF00BF3046BDE8BF
:10994000F0870000342C002010B504460121204689
:109950000DF0D1FA10BD00002DE9FC4704460D467C
:109960001646A71C4FF001080020019001A8FEF741
:109970006AF83048406828602E4840682D49896858
:10998000411A2D480068401CA0EB010915E0012197
:109990002A4804F065FE04F07DF9824651462748C6
:1099A00004F05EFE2348406822498968411A224833
:1099B0000068401CA0EB010900BF4F45E7D8B8F193
:1099C000000F30D00021009176B1009921F0030101
:1099D000491C0091009921F00401091D0091009992
:1099E00064F3891100910DE0009921F00301891CB5
:1099F0000091009921F00401091D0091009964F380
:109A00009F5100910B4949680B4A12681140094A5D
:109A10000C3202EB81000099016006494968394423
:109A20000C3A516000BF9DF80400FEF713F8404661
:109A3000BDE8FC87DC4D0020AC2D0020F851002053
:109A400070B504460D460A2D03D10D212046FFF7BF
:109A5000F7FFA168481CA06020684554D4E90110B4
:109A6000884202D3204605F0E6F970BD04488068BC
:109A700003494968884201D1012070470020FCE772
:109A8000DC4D00200246002108E0074B1B6803EB79
:109A9000C1000378934200D17047491C0348007805
:109AA0008142F2DB0020F7E7E82C0020EC2C0020BC
:109AB00010B5044620780221FFF7BAFB10BD000064
:109AC000F8B5054615490120FFF7D0FC044600BF54
:109AD00026463EB100BF12A240F201613046FCF7BB
:109AE00099FB00BF00BF69460020FFF771FB0446E9
:109AF00000BF26463EB100BF09A240F204613046D5
:109B0000FCF788FB00BF00BF9DF80000022801D1D0
:109B1000012000E000202870F8BD00000993020039
:109B20002E2E5C2E2E5C2E2E5C6D61696E2E6300D7
:109B30007CB50446204603F0B1FA054600236A4688
:109B4000092109F0EBF8052805D101220248017826
:109B50002046FEF7E3FC7CBD682C00207CB5044663
:109B60000E460020019042F6A620ADF80400012028
:109B70008DF806000748006800906A4601A9204653
:109B8000A0DF05462DB90122034801782046FEF7E3
:109B9000C5FC7CBD88760300692C002001468879CD
:109BA000012809D10879012806D1488842F6021215
:109BB000904201D1012070470020FCE74FF0FF31B7
:109BC000054A42F82010082804DBFF23A0F1080111
:109BD0005032535470470000344700200146024879
:109BE00050F8210070470000344700202DE9F04F65
:109BF00003460C464FF0FF390AB1002000E0082070
:109C000084460AB1082000E00C208046614624E02A
:109C1000154850F82100401CF0B91D46084627465B
:109C200016464FFA80FBDFF840A00AF1300A0AF826
:109C300005B0DFF834A04AF820704EB94FFA85FB22
:109C4000A0F1080ADFF820E00EF1500E0EF80AB07D
:109C500000BF4FFA81F902E0491C4145D8D300BF4B
:109C60004846BDE8F08F0000344700200146014817
:109C7000405670476447002070B590B006460C46C9
:109C80001546A07818B901208DF80E0002E0A078E2
:109C90008DF80E002088ADF80C0000200290607C4A
:109CA00002A90BF095FDA07C0DF109010BF090FDD0
:109CB000E07B08B1012000E000209DF80A1060F36D
:109CC000C3018DF80A10207C08B1012000E00020BB
:109CD0009DF80A1060F304118DF80A10207B08B17A
:109CE000012000E000209DF80A1060F300018DF8CB
:109CF0000A10207D08B1022000E001209DF80A1022
:109D000060F342018DF80A101C2109A8FCF7F5FB4D
:109D1000607BC0F3001018B9607BC0F34010F8B14D
:109D200000200090E07C0DF101010BF051FD00BF1F
:109D30009DF8000020F00F00401C8DF800009DF8F9
:109D4000000020F0F00010308DF8000000BF9DF8FA
:109D5000020020F00600801C8DF80200CDF838D0FB
:109D6000607B8DF82400A07B8DF82500142104A8C9
:109D7000FCF7C3FB03A8049002A80590A088ADF8E7
:109D80001C00A06820B1E088ADF81800A068089019
:109D9000A069002849D000200190A0690088ADF892
:109DA0002C00A0694088ADF82E00A06940680A9098
:109DB00001A80D90A169087B01A90BF009FDA1691B
:109DC000487B0DF105010BF003FDA069807A08B115
:109DD000012000E000209DF8061060F3C3018DF81B
:109DE0000610A069C07A08B1012000E000209DF8AB
:109DF000061060F304118DF80610A069007A08B10E
:109E0000012000E000209DF8061060F300018DF8AD
:109E10000610A069807B08B1022000E001209DF8B7
:109E2000061060F342018DF80610E06908B1E069A0
:109E30000C902B4604AA09A93046AADF10B070BDC9
:109E40002DE9F04104460D464FF6FF763046844238
:109E50000AD14FF48071284604F09FFB86B2B6F514
:109E6000807F10D126460EE0FF2C0CDC21462846D0
:109E700004F07CFB80F001070FB1204601E04FF6B3
:109E8000FF70064600BF3046BDE8F08170B505465C
:109E90000DB9094C01E0084C083409E0204603F0F4
:109EA00080FC064606B904E028467168884700BF72
:109EB000F4E700BF70BD00001047002010B5044655
:109EC0002CB90120064948700020FFF7DFFF012C64
:109ED00004D1012002498870FFF7D8FF10BD0000AF
:109EE000084700202DE9F047024613468C46D3E987
:109EF0000245DCE90267B6EB040877EB050002D304
:109F00000120BDE8F0870020FBE7014688780128A2
:109F100005D191F82000012801D100207047886AFE
:109F2000042802D0486A042801D10020F6E7012065
:109F3000F4E733B58BB00546002000900C9878B15B
:109F400000240BE021460CA804F057FB28B1009A2E
:109F5000501C009001A820F81240641C142CF1D36E
:109F60002C2269462846FCF7A1FA0DB030BD014607
:109F70000888062808DB0888B0F5486F06DD0888E1
:109F80004FF6FF72904201D007207047488806289C
:109F900008DB4888B0F5486F06DD48884FF6FF7249
:109FA000904201D00720F0E708884FF6FF729042F8
:109FB00008D04888904205D008884A88904201DD40
:109FC0000720E2E70020E0E72DE9F04107460D46D3
:109FD000144698462088801D404502D90C20BDE8D3
:109FE000F0813846FFF7C3FF064600BF304600B198
:109FF000F5E700BF0520218868542088401C208098
:10A000001220218868542088401C20802288511901
:10A0100038880CF0D7FD2188084420802288511907
:10A0200078880CF0CFFD2188084420800020D6E7F6
:10A0300010B5044600BF04A240F262412046FCF77E
:10A04000E9F800BF10BD00002E2E5C2E2E5C2E2ED7
:10A050005C6D61696E2E630030B587B01C21684667
:10A06000FCF74BFA002000904FF4A03001904FF421
:10A07000F020029003208DF80C000020ADF80E00B7
:10A080008DF810000A4805900A4806906846FEF7C9
:10A0900063F9044600BF25463DB100BF06A24FF458
:10A0A0008F612846FCF7B6F800BF00BF07B030BD8F
:10A0B000AD19030031A002002E2E5C2E2E5C2E2E38
:10A0C0005C6D61696E2E6300F8B505460C46607ADA
:10A0D00088B9207A10B91048476801E00E488768AF
:10A0E0002A4639466068FDF789FC064616B13046B7
:10A0F0000AF092FF0EE0002020720748406948B144
:10A1000001208DF80000ADF802500348416968460F
:10A11000884700BFF8BD00000C430020F0B585B0B3
:10A1200004460D4617461E4614220B496846FCF7A6
:10A13000BDF9ADF802408DF80850ADF80A708DF801
:10A140000C600022054801782046FEF7E7F96846D2
:10A1500001F008F805B0F0BD7C7703009C2C0020CE
:10A1600010B586B00446208808F010FB00BB20889C
:10A17000FEF740F930B92088012241F2060100F0D3
:10A180004DFD15E0208800220A490978FEF7C6F93E
:10A1900002208DF804002088ADF8060000208DF81C
:10A1A0000C0000218DF80D1001A800F0DBFF00BFAE
:10A1B00006B010BD9C2C002010B5012200210846DD
:10A1C000FFF716F9044600BF1CB1072C01D020464A
:10A1D00010BD00BF072202210120FFF709F9044644
:10A1E00000BF1CB1072C01D02046F1E700BF0422BC
:10A1F00002210020FFF7FCF804461222012104206E
:10A20000FFF7F6F8044600BF1CB1072C01D020462A
:10A21000DEE700BF0020DBE730B503460C4612B98D
:10A220004FF6FF7100E011880846002110E005128A
:10A2300045EA0025A8B25D5C6840C0F3031568409C
:10A2400080EA0035A8B205062D0D80EA4500491CBC
:10A25000A142ECD330BDF8B505460E4614460022A7
:10A2600006212046FFF7D8FF0090701C81006A4647
:10A2700004F10800FFF7D0FF0090BDF80000A842ED
:10A2800001D10120F8BD0020FCE700002DE9FF41CD
:10A2900005460C4629492A4A891AC908042242EA75
:10A2A00001402B46224627A105F0C8FD0020029060
:10A2B0000390ADF80840ADF80A40009001906A465E
:10A2C00002A9284690DF0646002E32D0304606F01E
:10A2D0007BFC074619491A4A891AC908012242EA31
:10A2E00001403B462A46234905F0A8FDBDF8000081
:10A2F00010B9BDF8020068B1BDF80230BDF8002009
:10A300000E490F4FC91BC908012747EA01401AA18E
:10A3100005F094FDBDF8040058B1BDF804200749CC
:10A32000074BC91AC908012343EA0140224905F035
:10A3300079FD304604B0BDE8F0810000E8910300EB
:10A34000D09103005570646174696E672064617414
:10A3500061206C656E67746820746F202575206FAE
:10A360006E20636F6E6E656374696F6E2030782542
:10A37000782E00006880030054686520726571754E
:10A3800065737465642054582F5258207061636B54
:10A390006574206C656E67746820697320746F6FD4
:10A3A000206C6F6E672062792025752F2575206FD0
:10A3B00063746574732E0000B48003002DE9F041CE
:10A3C00005460F460F4C0121204604F080F9064651
:10A3D00000BF00BF00BF00BFBFF35F8F00BF00BF63
:10A3E00000BF0EB9012000E0002040B1284603F074
:10A3F000A3FB08B1BDE8F081024805F017FF00BFDC
:10A40000F8E70000602C002070B50D490D4A891A4C
:10A41000C908032242EA01400BA105F0F9FC09F04A
:10A42000BBFB044600BF25463DB100BF0AA240F277
:10A430009B512846FBF7EEFE00BF00BF70BD000039
:10A4400088920300D0910300457261736520626FAA
:10A450006E647321000000002E2E5C2E2E5C2E2ECA
:10A460005C6D61696E2E630070B506460D4616B1CF
:10A470004FF4064070BD287920B1012809D0022888
:10A4800015D111E002202871284609F061FF044629
:10A4900010E0284601F0B0FC044648F2096084420E
:10A4A00001D141F61D5405E041F61D5402E048F289
:10A4B0000E6400BF00BF2046DCE700002DE9F0413C
:10A4C0008046002414E01248006800EBC405287898
:10A4D00006F076FD07466878012800D100E00020EC
:10A4E000784080F001062878314600F069FD641C50
:10A4F000084800788442E6DB0748D0E900100023D2
:10A5000059405840014301D00CF07CF8BDE8F0817F
:10A51000E82C0020EC2C0020F82C002070B5002442
:10A520000D490E4A891AC908032242EA01400CA1CA
:10A5300005F06EFC1420FEF789FF044600BF254697
:10A540003DB100BF0DA24FF4C8612846FBF762FE83
:10A5500000BF00BF70BD000088920300D0910300CF
:10A560006D69616F6D69616F3320646576696365DC
:10A5700020737461727465642E0000002E2E5C2EB0
:10A580002E5C2E2E5C6D61696E2E630070B50446E4
:10A5900020793D2802D141F23D0001E04FF488507E
:10A5A000054620880022294603F010FA70BD0000FD
:10A5B00010B50021034804F08AF8044684F3100023
:10A5C00010BD0000F851002010B586B00446207878
:10A5D0008DF8040060788DF80500A088000A8DF8D9
:10A5E000080020798DF80900A0798DF80A002089EB
:10A5F000000A8DF80B00207A8DF80C00A0885149D4
:10A60000098888427DD04F480088401C4D49088009
:10A6100008460088000A8DF80600084600788DF884
:10A62000070008460088401E00EB400104F10C00C2
:10A6300030F82100000A8DF80D0042480088401EC5
:10A6400000EB400104F10C0010F821008DF80E0021
:10A650003C480088401E00EB400104F10C0000EB78
:10A6600081004068000E8DF80F0036480088401EBB
:10A6700000EB400104F10C0000EB81004068000C8D
:10A680008DF810002F480088401E00EB400104F1B7
:10A690000C0000EB81008088000A8DF81100294829
:10A6A0000088401E00EB400104F10C0000EB81002B
:10A6B00000798DF8120023480088401E00EB40010D
:10A6C00004F10C0000EB81008068000E8DF813008F
:10A6D0001C480088401E00EB400104F10C0000EB18
:10A6E00081008068000C8DF8140016480088401E18
:10A6F00000EB400104F10C0000EB81000089000A2E
:10A7000000E012E08DF815000E480088401E00EBB6
:10A71000400104F10C0000EB8100007A8DF8160076
:10A72000132201A90848FEF70EFAA08805490988F6
:10A73000884204D100200349088006B010BD0120E2
:10A74000FBE70000B82C00208846002010B586B03A
:10A75000044620788DF8040060788DF8050000200C
:10A760008DF8060001208DF80700A088000A8DF8FA
:10A77000080020798DF80900A0798DF80A00208959
:10A78000000A8DF80B00207A8DF80C00A089000AD1
:10A790008DF80D00207B8DF80E002069000E8DF8DD
:10A7A0000F002069000C8DF81000208A000A8DF837
:10A7B0001100207C8DF812006069000E8DF81300E6
:10A7C0006069000C8DF81400A08A000A8DF815004D
:10A7D000207D8DF81600132201A90348FEF7B3F976
:10A7E000002006B010BD0000884600207047000021
:10A7F00030B58DB0054600BF15B90E200DB030BD87
:10A8000000BF294928680861284B0FCB8DE80F004D
:10A810002549684662DF044600BF204600B1EDE7E7
:10A8200000BF214800788DF832000120ADF83000DB
:10A830001D4A921C0CA9A8DF044600BF204600B1A7
:10A84000DCE700BF202104A8FBF757FE0220ADF88B
:10A850001000154800788DF812000120ADF81600A0
:10A860001320ADF814009DF81D0020F00200801C9C
:10A870008DF81D009DF81D0020F0100010308DF89F
:10A880001D0001208DF821008DF82300064948881D
:10A890008A1D04A9FFF7F0F9044600BF204600B165
:10A8A000ACE700BF2046A9E788460020BC7703003C
:10A8B00070B505460C464FF4803000FA04F1284686
:10A8C00000F05EFB70BD70B505460C464FF4A070FD
:10A8D00000EB840086B23146284600F0E9FB70BDEB
:10A8E0002DE9F04704460D4616461F464FF48030CA
:10A8F00000FA05F84FF4A07000EB85001FFA80F90C
:10A9000026F07F464146206805F07FFD41462068DD
:10A9100005F06CFD4946206805F05EFD324629468B
:10A92000206805F049FD4146206805F065FD1FB12E
:10A930004146206805F06FFDBDE8F08710B504467C
:10A94000206805F03EFD10BD2DE9F04704460D4698
:10A9500017466079324941F820706079314901EB3E
:10A96000C000007968B108262F49304A891AC90801
:10A97000022242EA01402EA105F04AFA3046BDE823
:10A98000F08729882068C0F8081500BF94F90420D2
:10A99000AB7810461946002808DB4FEA417C4FEAA5
:10A9A0001C68DFF8B0C00CF800800BE04FEA417C77
:10A9B0004FEA1C69DFF8A0C000F00F08A8F10408F6
:10A9C0000CF8089000BF00BF94F904100846002856
:10A9D0000DDB00BF00BF00F01F0301229A404309B6
:10A9E0009B0003F1E023C3F8002100BF00BF00BFBC
:10A9F00000BF012061790B4A02EBC1010871607947
:10AA0000114641F8304000260749084A891AC9080A
:10AA1000032242EA014011A105F0FAF93046AEE7FF
:10AA2000242D0020282D002068920300D0910300DF
:10AA300052544320696E7374616E636520616C7259
:10AA40006561647920696E697469616C697A6564AD
:10AA50002E00000000E400E018ED00E05254433AFC
:10AA600020696E697469616C697A65642E00000002
:10AA700010B5014691F90400002807DB00F01F0320
:10AA800001229A40024B440943F8242000BF10BD24
:10AA900000E200E070B505460C4622460221284639
:10AAA00000F07AFA70BD10B504464FF4827120466A
:10AAB00000F0FEFA10BD10B504460021206805F034
:10AAC000B5FC10BD10B504460421206805F0AEFCAD
:10AAD00010BD2DE9F84F04468846154699464FF4B7
:10AAE000803000FA08FA4FF4A07000EB88001FFADB
:10AAF00080FB25F07F455146204600F041FA206852
:10AB000005F05FFC06464146206805F04FFC0090CA
:10AB100032464146206805F04FFC5946206805F052
:10AB20005BFC314600980BF029FC012806D110206F
:10AB300006F02CF95946206805F04EFC206805F017
:10AB400040FC0646314628460BF018FC07465146A5
:10AB5000206805F051FC012F0FD16A1C4146206886
:10AB600005F02AFC102006F011F9206805F029FCF8
:10AB7000B04225D00D20BDE8F88F2A464146206816
:10AB800005F01AFC206805F01CFC0646681E3146DC
:10AB90000BF0F4FB07466FF07F40A0EB0900B842D2
:10ABA00001D20D20E7E75FB96A1C4146206805F035
:10ABB00003FC206805F005FCB04201D00D20DAE767
:10ABC00001225146204600F0E7F90020D3E70000BB
:10ABD00010B504460549064A891AC908042242EA02
:10ABE0000140224603A105F01DF910BD8892030023
:10ABF000D091030044756D6D79206576656E742083
:10AC000068616E646C6572207265636569766564FF
:10AC1000206576656E7420307825780070B506461C
:10AC20000C4615462B46224600213046FFF776FAA1
:10AC300070BD000010B510480068407E60B106216C
:10AC40000120FDF781FE044624B10B4800684169EC
:10AC500003208847002010BD0120074909680876B5
:10AC600001210846FDF770FE04461CB10020024990
:10AC7000096808762046EEE7BC2C00202DE9F84351
:10AC800005460E461746984669461048006803F088
:10AC900026FC044614B90420BDE8F8831C21204694
:10ACA000FBF72BFC012020712560C4F808800848C0
:10ACB0000068B6FBF0F0E060676169460348006831
:10ACC00003F037FC09F066FA0020E5E79C79030001
:10ACD0009079030010B50446D4E90321501828DF09
:10ACE00010BD000038B5044620788DF800002078AB
:10ACF0000002C0B28DF80100022269460248FDF749
:10AD000056FFC0B238BD00009C46002070470000CE
:10AD100030B58DB0054600BF15B90E200DB030BD61
:10AD200000BF294928680861284B0FCB8DE80F0028
:10AD30002549684662DF044600BF204600B1EDE7C2
:10AD400000BF214800788DF832000120ADF83000B6
:10AD50001D4A921C0CA9A8DF044600BF204600B182
:10AD6000DCE700BF202104A8FBF7C7FB0220ADF8F9
:10AD70001000154800788DF812000120ADF816007B
:10AD80000220ADF814009DF81D0020F00200801C88
:10AD90008DF81D009DF81D0020F0100010308DF87A
:10ADA0001D0001208DF821008DF8230006494888F8
:10ADB0008A1D04A9FEF760FF044600BF204600B1CB
:10ADC000ACE700BF2046A9E79C460020CC770300F3
:10ADD0000278072A38D2DFE802F037040712222B64
:10ADE000340000220A7030E001220A7003898B814E
:10ADF0008388CB81C2688A6000230B7425E002221D
:10AE00000A7003898B818388CB81C2688A60827DC6
:10AE1000062A01D1012300E000230B7415E0032270
:10AE20000A70C3888B810389CB81C2688A600CE079
:10AE300004220A70C3888B810023CB8100228A60A0
:10AE400003E005220A7000E000BF00BF7047000069
:10AE500070B50546002409E0064850F8240020B1EA
:10AE6000044850F8241028468847641C042CF3D367
:10AE700070BD0000CC48002030B587B004460D46B8
:10AE80002068806808B907B030BD182101A8FBF719
:10AE900034FB0295A0680690207910B1012815D1E5
:10AEA00009E001208DF8040020690390E068049017
:10AEB000606905900BE002208DF804000749E06806
:10AEC0000968484303906069059000E000BF00BF37
:10AED0002068816801A8884700BFD4E79079030003
:10AEE000F0B585B005460C461646002C3ED0112C18
:10AEF0003CD0082C3AD00D2C24D11D491D4A891A6A
:10AF0000C908022242EA01402A461B4904F08AFF8E
:10AF10002A460321684603F0F1F82EB1307800F09C
:10AF2000010008B1012000E002208DF80800002196
:10AF30008DF80C1041F20111ADF80A10684600F0CE
:10AF400025F913E0204605F03FFE07460849094A67
:10AF5000891AC908012242EA01402B463A460749AC
:10AF600004F06CFF214628460AF0C4F805B0F0BD95
:10AF700018920300D09103000C8703001C88030083
:10AF800070B504460D462946206805F02FFA29467B
:10AF9000206805F03AFA70BD70B504460E461546B5
:10AFA0003146206805F028FA1DB13146206805F0C9
:10AFB00032FA70BD10B50446204600F0E7F810BD27
:10AFC000F8B505460C4628460BF0C4F805286AD2A9
:10AFD000DFE800F003212A393F00DCB101212846D7
:10AFE0000BF0C8F8002000906846FCF72CFD2A46BC
:10AFF0000126002730463946FBF733FA2B4AD2E9BF
:10B00000003218431143294A03C29DF80000FCF79F
:10B0100021FD00BF47E00CB1022000E00020014606
:10B0200028460BF0A7F83EE044B1032128460BF078
:10B03000A1F8012128460BF0BDFE03E001212846BE
:10B040000BF098F82FE01CB9042128460BF092F879
:10B0500029E024B1032128460BF08CF822E00021DE
:10B0600028460BF087F8002128460BF0A3FE0020AD
:10B0700000906846FCF7E7FC2A4601260027304688
:10B080003946FBF7EEF90A46C143D043074B0CCBD8
:10B0900011401840054AC2E900109DF80000FCF775
:10B0A000D9FC00BF00BF00BFF8BD0000F82C002095
:10B0B00070B505460C462868015929B12146286813
:10B0C00005F08AF9012070BD0020FCE770B5044648
:10B0D000608801F0E3FFA080002505E0044850F8F7
:10B0E0002510204688476D1C002DF7D070BD00004C
:10B0F000582C002070B50446A08801F0FFFE608047
:10B10000002505E0044850F82510204688476D1CAE
:10B11000002DF7D070BD00006C2C002070B50546E6
:10B12000002405E0044850F8241028468847641C91
:10B13000022CF7D370BD0000C876030070B5054639
:10B14000002405E0054850F8241028468847641C70
:10B15000034800788442F5DB70BD00003C460020C7
:10B160009A2C002070B50446608801F097FFA080FB
:10B17000002505E0044850F82510204688476D1C3E
:10B18000002DF7D070BD00003C77030070B5054678
:10B19000002405E0044850F8241028468847641C21
:10B1A000002CF7D070BD0000B4770300F0B587B075
:10B1B0000020049005900690029003900026002540
:10B1C00002AB04AA41F62F7141F6017000F052FC67
:10B1D0000446002C78D100900190694604A800F044
:10B1E00073FC044600BF27463FB100BF40A240F2B7
:10B1F0005A213846FBF70EF800BF00BF019E002021
:10B2000019E056F8201005EB45023D4B43F822109B
:10B21000411C56F8211005EB450203EB82025160F8
:10B22000811C56F8211005EB450203EB8202916068
:10B23000C01C691C8DB2009949888142E1DC002064
:10B2400023E000EB40012E4A32F821108AB200EBD5
:10B2500040032C4921F8232000EB4001284A02EB4F
:10B26000810100EB40034A68264901EB83014A60F3
:10B2700000EB4001224A02EB810100EB40038A68A7
:10B28000204901EB83018A60401C9028D9DB04A887
:10B2900000F0BCFB044600BF27463FB100BF14A22C
:10B2A00040F26F213846FAF7B5FF00BF00BF1649DC
:10B2B000164A891AC908032242EA01402A4614A103
:10B2C00004F0B0FD11E0FFE7164904A800F03AFCD5
:10B2D000044600BF27463FB100BF05A240F27521DA
:10B2E0003846FAF797FF00BF00BF07B0F0BD000077
:10B2F0002E2E5C2E2E5C2E2E5C6D61696E2E6300F0
:10B300006C320020383B002088920300D09103006B
:10B31000616476206461746120636F756E74203A95
:10B3200025640000E075030030B585B00020029070
:10B3300003900490009001906B4602AA41F62F7191
:10B3400041F6017000F096FB044604BB2B4902A8AD
:10B3500000F0EAFB044674B148F2066084420AD168
:10B360002749284A891AC908032242EA0140264986
:10B3700004F04EFD0BE000BF25463DB100BF23A207
:10B3800040F23B212846FAF745FF00BF00BF2348A3
:10B390000078401C2149087048F20660844203D0BE
:10B3A0000846007805280FDB00201C4908700120A2
:10B3B0001B4908701249134A891AC908032242EA34
:10B3C000014018A104F024FD00BF25463DB100BF97
:10B3D0000EA24FF412712846FAF71CFF00BF00BFFF
:10B3E00006498A680649074BC91AC908032343EA74
:10B3F00001400FA104F016FD05B030BDE07503005B
:10B4000088920300D09103009C7C03002E2E5C2EBA
:10B410002E5C2E2E5C6D61696E2E63002D2C00203B
:10B420001F2C00206664735F6763282900000000FA
:10B4300064617461203A25640000000070B588B032
:10B44000002005900690079003900490002603AB1F
:10B4500005AA41F63F7141F6027000F00BFB04466D
:10B46000002C27D10190029001A905A800F02CFB27
:10B47000044600BF25463DB100BF18A240F2BF21DF
:10B480002846FAF7C7FE00BF00BF029E1749306882
:10B49000086005A800F0BAFA044600BF25463DB191
:10B4A00000BF0EA240F2C7212846FAF7B3FE00BF44
:10B4B00000BF10E00E4905A800F044FB044600BFA1
:10B4C00025463DB100BF05A24FF433712846FAF777
:10B4D000A1FE00BF00BF08B070BD00002E2E5C2E84
:10B4E0002E5C2E2E5C6D61696E2E6300182C002080
:10B4F000EC75030030B585B00020029003900490F5
:10B50000009001906B4602AA41F63F7141F602702D
:10B5100000F0B0FA044604BB254902A800F004FB81
:10B52000044674B148F2066084420AD12149224A95
:10B53000891AC908032242EA0140204904F068FC44
:10B540000BE000BF25463DB100BF1DA240F2A22185
:10B550002846FAF75FFE00BF00BF1D480078401C78
:10B560001B49087048F20660844203D00846007800
:10B5700005280FDB002016490870012015490870C6
:10B580000C490D4A891AC908032242EA014012A156
:10B5900004F03EFC00BF25463DB100BF08A240F2CA
:10B5A000AF212846FAF736FE00BF00BF05B030BD18
:10B5B000EC75030088920300D09103009C7C03008B
:10B5C0002E2E5C2E2E5C2E2E5C6D61696E2E63001D
:10B5D0002E2C00201F2C00206664735F67632829CF
:10B5E0000000000010B50446207820B1012808D0E2
:10B5F000032822D113E0606810B9012010490870B7
:10B600001CE0606850B9A2890E490F4BC91AC908DD
:10B61000032343EA01400DA104F004FC0EE060683E
:10B6200050B9A2890749084BC91AC908032343EA3C
:10B63000014009A104F0F6FB00E000BF00BF10BD0F
:10B640001E2C002088920300D09103003A09307824
:10B65000253034780000000044656C657465204630
:10B66000696C652049443A09307825303478000007
:10B6700010B586B00446142101A8FAF73EFFA08950
:10B6800000F0D4FBADF80800207806285ED2DFE891
:10B6900000F05D0304052E4A00BF00BFA08900F042
:10B6A000CAFB18B9E08908F074FFF8B1E08908F026
:10B6B0006DFF8DF80C002078032801D1012100E0F6
:10B6C00000218DF80D10A1680491606830B9082040
:10B6D0008DF8040001218DF8141004E009208DF884
:10B6E00004006168059101A807F064FA2FE0A089C1
:10B6F00000F0A1FBB0B1E089A0B9606838B90A20B8
:10B700008DF80400BDF8080007F0A4FC04E00B204D
:10B710008DF804006068039001201149087001A8A9
:10B7200007F048FA13E0606818B913208DF8040098
:10B7300004E014208DF80400606803904FF6FF7059
:10B74000ADF8080001A807F035FA00E000BF00BF1F
:10B750000348007808B107F0C3FB06B010BD000035
:10B76000792C002038B505461048007810B948F209
:10B77000016038BD4FF6FF70854202D148F2036088
:10B78000F7E7684608F0E6FB044614B948F207609C
:10B79000EFE70520207001202071E580684608F061
:10B7A000E9FB08F0EBFC0020E3E70000302D00206F
:10B7B00038B50E48007810B948F2016038BD6846C7
:10B7C00008F0C8FB044614B948F20760F6E7062003
:10B7D0002070684608F0CEFB0548007810B10120C3
:10B7E0000349C87308F0CAFC0020E7E7302D0020A9
:10B7F0002C4B002070B586B0142101A8FAF77DFE0D
:10B800002E48007828B101A8FFF722FB002006B0DF
:10B8100070BD2A48001D02F01CFF08B10020F6E7A9
:10B8200000F0CEFB06460EB13046F0E708F0CEFB46
:10B8300006F0F4FE054625B1022D03D0062D0ED1EB
:10B8400003E000BF48F20A60E1E701201B490870ED
:10B850000020486001A8FFF7FBFA0020D7E700BFEF
:10B8600000BF684608F076FB044614B948F207604A
:10B87000CDE7012020700C2D16D2DFE805F015066B
:10B88000150715111512150A0E0B00BF00202071A7
:10B890000BE000BF0320207107E00220207104E0CC
:10B8A00000BF0120207100E000BF00BF684608F023
:10B8B00061FB08F063FC0020A9E70000302D0020A8
:10B8C00030B585B02A4800F047F9FFF793FF0446EA
:10B8D00000BF25463DB100BF26A240F2AF11284669
:10B8E000FAF798FC00BF00BF00E041DF2548007870
:10B8F0000028FAD014216846FAF7FFFD684600F0E8
:10B9000045F9044600BF25463DB100BF19A24FF4DA
:10B91000DB712846FAF77EFC00BF00BFBDF80420AB
:10B9200019491A4BC91AC908032343EA014018A14F
:10B9300004F078FABDF806201349144BC91AC90857
:10B94000032343EA014018A104F06CFABDF8060095
:10B950000A280BDBFFF72CFF0B490C4A891AC90890
:10B96000032242EA01401EA104F052FA05B030BDA4
:10B97000E5B502002E2E5C2E2E5C2E2E5C6D6169CC
:10B980006E2E63001E2C002088920300D0910300CD
:10B99000466F756E642025642076616C6964207240
:10B9A00065636F7264732E00466F756E6420256444
:10B9B000206469727479207265636F7264732028E1
:10B9C000726561647920746F2062652067617262BC
:10B9D00061676520636F6C6C6563746564292E0014
:10B9E000546F6F206D616E79206469727479207272
:10B9F00065636F7264732C20676172626167652092
:10BA0000636F6C6C656374696E672E0038B50446AD
:10BA100014B948F2046038BD6946204608F0B6FC07
:10BA200008B3BDF8000000EB8000114901EB800075
:10BA3000C068A8B1A07A98B1BDF8000000EB800002
:10BA400001EB8000C068401EBDF8001001EB8101D1
:10BA5000074A02EB8101C8600020A072002504E0C3
:10BA600048F2056501E048F209652846D3E7000081
:10BA7000C84A00207FB514461D462B46224601A920
:10BA8000684608F01BFC04B070BD37B50C4615467F
:10BA90002B4622466946002008F010FC3EBD37B513
:10BAA0000C4615462B4622460021684608F006FC47
:10BAB0003EBD024602B111B948F2046070471068F9
:10BAC00008600020FAE70000F8B504460D4604B10E
:10BAD00015B948F20460F8BD6946204608F056FCE6
