:020000040002F8
:10600000787C0020DD630200E5630200E7630200A4
:10601000E9630200EB630200ED6302000000000090
:10602000000000000000000000000000EF6302001C
:10603000F163020000000000F3630200F563020058
:1060400081660200F7630200516A02008D67020058
:10605000F7630200F7630200C5650200F763020000
:10606000F7630200F7630200F7630200D5660200DF
:10607000F7630200F7630200F7630200F7630200B0
:10608000F7630200E9660200F7630200F7630200AB
:10609000F7630200F7630200A1670200F7630200E2
:1060A000F7630200F7630200F7630200F763020080
:1060B000F7630200F7630200000000000000000028
:1060C000F7630200F7630200F7630200F763020060
:1060D000F7630200F7630200F763020000000000AC
:1060E00000000000000000000000000000000000B0
:1060F00000000000000000000000000000000000A0
:10610000000000000000000000000000000000008F
:10611000000000000000000000000000000000007F
:10612000000000000000000000000000000000006F
:10613000000000000000000000000000000000005F
:10614000000000000000000000000000000000004F
:10615000000000000000000000000000000000003F
:10616000000000000000000000000000000000002F
:10617000000000000000000000000000000000001F
:10618000000000000000000000000000000000000F
:1061900000000000000000000000000000000000FF
:1061A00000000000000000000000000000000000EF
:1061B00000000000000000000000000000000000DF
:1061C00000000000000000000000000000000000CF
:1061D00000000000000000000000000000000000BF
:1061E00000000000000000000000000000000000AF
:1061F000000000000000000000000000000000009F
:10620000DFF80CD000F0A0F90048004781CE020072
:10621000787C002000B583B002900091019244F296
:10622000010071466A4601F059F903B000BD000053
:1062300030B450E8012F93B2C48923448489A34227
:1062400028BF1B1B0489A34202BFBFF32F8F00206E
:1062500007E0C3EA020340E80134002CE9D14FF023
:1062600001000A6030BC704750E8012FC2EA0242C8
:1062700040E801210029F7D1704730B450E8022FDF
:106280001FFAA2F3C488A34202BFBFF32F8F0020DE
:106290000DE0C48923448489A34228BF1B1BC2EAA2
:1062A000034340E80234002CE8D14FF001000A60BB
:1062B00030BC704750E8022FC2EA224240E8022177
:1062C0000029F7D17047034653E8022FD988B2EB73
:1062D000324F4FF0000017BF92B241EA014142EA4B
:1062E000014104E05A68B2EB324F08BF012043E895
:1062F0000212002AE8D1704730B4044654E8000F77
:106300000D4644E80053002BF8D1156030BC7047AF
:1063100030B4044654E8000F40EA010544E8005355
:10632000002BF7D1156030BC704730B4044654E8F8
:10633000000F00EA010544E80053002BF7D1156077
:1063400030BC704730B4044654E8000F80EA0105C1
:1063500044E80053002BF7D1156030BC704730B4CF
:10636000044654E8000F00EB010544E80053002BFD
:10637000F7D1156030BC704730B4044654E8000FC4
:10638000A0EB010544E80053002BF7D1156030BCA9
:10639000704770B404464FF0000054E8006F0D6879
:1063A000AE4207BF44E80023012044E800630E60CA
:1063B000002B1CBF0020F0E770BC704730B40446CF
:1063C00054E8000F88422CBF451A054644E80053A4
:1063D000002BF5D1156030BC70470000064880479F
:1063E00006480047FEE7FEE7FEE7FEE7FEE7FEE7BA
:1063F000FEE7FEE7FEE7FEE7B96702000162020082
:106400002DE9F05F0546002092469B4688460646E9
:10641000814640241BE0284641464746224600F07C
:1064200082F853465A46C01A914110D31146184675
:10643000224600F016F82D1A67EB01084F46224657
:106440000120002100F00DF817EB00094E41201E3D
:10645000A4F10104DFDC484631462A464346BDE844
:10646000F09F202A04DB203A00FA02F10020704756
:106470009140C2F1200320FA03F319439040704782
:10648000004870479881030010B5431A934209D21F
:106490008318881803E010F8011D03F8011D521E2F
:1064A000F9D210BD40EA01039B0703D009E008C9F7
:1064B000121F08C0042AFAD203E011F8013B00F8C9
:1064C000013B521EF9D210BDD2B201E000F8012BFF
:1064D000491EFBD270470022F6E710B513460A4664
:1064E00004461946FFF7F0FF204610BD421C10F885
:1064F000011B0029FBD1801A704730B504460020EB
:10650000034600E05B1C934203D2E05CCD5C401B81
:10651000F8D030BD034611F8012B00F8012B002AFA
:10652000F9D118467047202A04DB203A21FA02F0FC
:106530000021704721FA02F3D040C2F120029140BD
:106540000843194670470000064C074D06E0E06816
:1065500040F0010394E8070098471034AC42F6D3AA
:10656000FFF752FE049603002496030070B58C18C2
:1065700010F8015B15F0070301D110F8013B2A1157
:1065800006D110F8012B03E010F8016B01F8016B44
:106590005B1EF9D12B0705D40023521E0DD401F840
:1065A000013BFAE710F8013BCB1A921C03E013F809
:1065B000015B01F8015B521EF9D5A142D8D300203E
:1065C00070BD00002DE9F84F0026002000904FF428
:1065D00080770125002410E0384608F033F940B1F7
:1065E00000BF25480068284018B1384608F01CF95B
:1065F0002E436D00381D87B2641C082CECD34FF479
:10660000BE7008F01FF950B14FF4BE7008F00CF9DD
:1066100046F000466A460121002008F061F8F0B219
:1066200010B3012500241DE005EA0600C0B100BF3B
:10663000124850F82400C0F30420814600BF0F48E0
:1066400050F82400C0F301408246204602F0C4FF07
:106650008046B8F1000F02D051464846C04700BFFF
:106660006D00641C082CDFD306F0004010B16846B2
:106670000CF0F0F9BDE8F88F0463004010650040AD
:1066800010B54FF4807007F0ACFA80B14FF4807011
:1066900007F0B0FA012007F0B7FA0D48407930B999
:1066A00001200B49487108460168002088474FF4D3
:1066B000827007F096FA50B14FF4827007F09AFAA0
:1066C000022007F0A1FA024801680120884710BDA6
:1066D0004423002010B503220021024805F00CFEDF
:1066E00010BD000000B0004010B5034A1068034A16
:1066F0001168884710BD0000A02300209C230020C3
:1067000010B500F0ADF910BD2DE9F04707468846F9
:106710001646C24607EB47011B4800EBC109D9F8F2
:10672000140020B1012811D0022826D11EE04846CD
:1067300000F0CEF90546B54201D2002405E034460A
:1067400032465146484600F00AFA18E0484600F042
:10675000BFF90546B54201D2284600E0304604465E
:1067600022465146484600F0FAF908E032465146C2
:10677000484600F0BBF9044601E0002400BF00BF1A
:106780002046BDE8F0870000083A002010B5024915
:10679000024805F09EFD10BD603100200030004031
:1067A00010B509F04FF810BD014802490860704764
:1067B0000090D0036C24002010B506F0D9FD28B15C
:1067C00092480088C0F304209149086006F028FE32
:1067D00010B190489049486706F05EFE30B18B4892
:1067E000E0380068C0F342308C49086006F080FE53
:1067F00028B18B48006820F080708949086006F055
:1068000095FE48B10020874908604FF08041C1F8EB
:1068100010018249091F086006F0B4FE18B1032078
:106820007E496431086006F0CBFE68B105207E49E0
:10683000086001207C497831086000207A490831DD
:1068400008603F20091F086006F0D8FE002855D0D8
:106850006E48E0300068754908606C48E4300068B4
:10686000091D08606948E8300068091D086067482C
:10687000EC300068091D08606448F0300068091DAC
:1068800008606248F4300068091D08605F48F8300D
:1068900000686649203108605C48FC300068091DCA
:1068A000086063480068091D08606148001D0068B1
:1068B000091D08605E4808300068091D08605C48D2
:1068C0000C300068091D08605948103000685749AD
:1068D00040310860564814300068091D086054486B
:1068E00018300068091D086051481C300068091DF7
:1068F00008604F4820300068091D086006F00CFD54
:1069000030B14248CC38006800F04F004949086077
:1069100006F05AFD40B14848006800F0010018B187
:106920006FF001004449086006F098FD28B1434823
:10693000006840F480604149086039487438006854
:1069400040F4700036497439086000BF00BF00BFD2
:10695000BFF34F8F00BF00BF00BF00BF00BF00BF2D
:10696000BFF36F8F00BF00BF00BF3548006800F065
:10697000004028B93248001D006800F00040E8B32C
:1069800001203049086000BF2F4800680028FBD074
:1069900015202B49086000BF2B4800680028FBD059
:1069A00015212748001D016000BF27480068002806
:1069B000FBD000202349086000BF2348006800285E
:1069C000FBD000BF00BF00BF00BF00BFBFF34F8FB1
:1069D00000BF00BF00BF1248F038006800F4E0605C
:1069E0001A490843001D0E49F039086000BF00BF76
:1069F00000BFBFF34F8F00BF00BF00E003E000BF48
:106A000000BF00BFFDE7FFF7CFFE10BD240300105D
:106A1000403501400DF0ADBA00C007403C050040D4
:106A2000FCED00E00C0100401056004020C5004085
:106A300024040010E40E0040000400403C17004015
:106A40000012001004E5014000E401400000FA05D6
:106A500010B502490868804710BD00004C23002093
:106A600010B5124C02202061606111A0A061134991
:106A7000E1614FF4007121620021A1626162E16273
:106A80000BA0A0640E49E164102121650021A165DD
:106A90006165E1650BA1E01DFFF73CFD0AA1204601
:106AA000FFF738FD2020A07110BD0000F039002054
:106AB0005465726D696E616C00000000683A0020D8
:106AC000683C00205254540053454747455200004B
:106AD00010B501460A69CB689A4204D88C68641ED6
:106AE000E41AA01801E0D41A601E10BD2DE9F04789
:106AF0000446894617464FF0000AE56800BFD4F8FF
:106B00001080A84503D9A8EB0500461E04E0A5EBBC
:106B10000800401CA1680E1AA068401BB04201D9B1
:106B2000304601E0A068401B0646BE4201D2304616
:106B300000E0384606466168481932464946FFF784
:106B4000A3FCB244B144BF1B3544A068A84200D1A5
:106B50000025E560002FD2D15046BDE8F0872DE931
:106B6000F047044689461546E668A068871BAF4291
:106B700008D9616888192A464946FFF785FC7019CB
:106B8000E06010E0B8466168881942464946FFF760
:106B90007BFCA5EB070809EB070142466068FFF79D
:106BA00073FCC4F80C80BDE8F08700000FB4084BFC
:106BB00010B504A902AA039800F03EF8044602A901
:106BC000002000F06AFA204610BC5DF814FB0000BB
:106BD0009B70020002E008C8121F08C1002AFAD107
:106BE00070477047002001E001C1121F002AFBD14D
:106BF000704700000146202908DA012088400A4A2F
:106C0000104008B1012070470020FCE7402909DA54
:106C1000A1F12000012202FA00F008B10120F2E700
:106C20000020F0E70120EEE7FC06FFBD00BFEFF318
:106C30001081084672B670472DE9FF4F8DB00F46A0
:106C40000546002606E025280BD0DDE90F12904707
:106C50006D1C761C28780028F5D111B03046BDE8AF
:106C6000F08F0024A246A1460122EC4900E0044333
:106C700015F8013F203B02FA03F00842F7D12878CB
:106C80002A2810D06FF02F022878A0F130010929AE
:106C900014D80AEB8A0102EB410144F0020400EB34
:106CA000010A6D1CF0E701CF5FEA000A03D544F446
:106CB0000054CAF1000A44F002046D1C28782E2802
:106CC00017D115F8010F44F004042A280ED06FF0F4
:106CD0002F022878A0F1300109290AD809EB89018F
:106CE00002EB410100EB01096D1CF2E757F8049B30
:106CF0006D1C28786C280FD006DC4C2817D068282B
:106D00000DD06A2814D104E0742810D07A280FD14D
:106D10000DE044F400140AE044F4801401E044F46B
:106D200040146978814202D104F580146D1C6D1CF9
:106D30002A786E2A1FD00CDC632A31D004DC002AAA
:106D40008BD0582A11D1A3E0642A68D0692A0CD1CB
:106D500065E0732A2ED004DC6F2A73D0702A04D128
:106D60009BE0752A6FD0782A6ED01046DDE90F12AD
:106D70009047761C50E1C4F30250022806D0032845
:106D800009D0042801CF09D0066045E101CFF117F1
:106D9000C0E9006140E101CF06803DE106703BE1C2
:106DA00017F8040B8DF8000000208DF80100EB4669
:106DB000012003E057F804BB4FF0FF3061074FF0AC
:106DC000000102D40DE008F10101884649450FDABF
:106DD0008045F8DB1BF808100029F4D108E008F121
:106DE000010188468142FADB1BF808100029F6D120
:106DF000DDE90F23AAEB08008146214600F036F9B1
:106E0000304400EB080604E0DDE90F121BF8010B2B
:106E10009047B8F10108F7D221464846F7E00A2129
:106E2000C4F302534FF0000B0891022B04D001CFA2
:106E3000C117032B09D00AE0FF1D27F00707F7E869
:106E4000020108E032E01FE020E000B2C117042B8D
:106E500001D140B2C117031E71F1000307DA4FF0F0
:106E6000000CD0EB0C006CEB01012D2302E023059C
:106E700004D52B238DF82430012303E0E30701D050
:106E80002023F7E7984658E00A2110E010210EE091
:106E900010204FF0000B08900CE010214FF0000B79
:106EA00044F004044FF00809089103E008214FF072
:106EB000000B0891C4F30253022B04D001CF002130
:106EC000032B06D006E0FF1D27F00707F7E80201B5
:106ED00003E080B2042B00D1C0B24FF000082307BA
:106EE0002BD5702A07D0DDF820C08CF0100C5CEA9E
:106EF0000B0C05D00EE040238DF82430012308E070
:106F000050EA010306D030238DF824308DF8252077
:106F100002239846DDF820C08CF0080C5CEA0B0CCC
:106F20000BD150EA010301D1630706D530238DF858
:106F300024304FF00108A9F10109582A04D038A2E1
:106F40000B9208AA0A920BE03AA2F9E75B46089A6C
:106F5000FFF756FA0B9B9B5C0A9A521E0A9213701B
:106F600050EA0102F2D10A98ADEB000000F1200BCB
:106F7000600702D524F4803401E04FF00109D945BF
:106F800002DDA9EB0B0000E0002000EB0B01414407
:106F90000890AAEB010AE00306D4DDE90F2321469D
:106FA000504600F063F806444FF0000908E009A9D4
:106FB00011F80900DDE90F12904709F10109761C6B
:106FC000C145F4DBE0030CD5DDE90F232146504633
:106FD00000F04CF8064404E0DDE90F123020904741
:106FE000761C0899481E08900029F5DC08E00A98EC
:106FF0000A990078491C0A91DDE90F129047761C26
:10700000BBF10001ABF1010BF1DC21465046DDE99B
:107010000F2300F019F806446D1C1BE60928010037
:1070200030313233343536373839616263646566FE
:1070300000000000303132333435363738394142C0
:1070400043444546000000002DE9F0410446002578
:107050001E461746880404D405E039462020B04770
:107060006D1C641EF9D52846BDE8F0812DE9F0417C
:10707000044600251E469046C80301D5302700E08F
:107080002027880404D505E041463846B0476D1CEA
:10709000641EF9D52846BDE8F0810A68531C0B60D0
:1070A0001070704770B505460C4605B10CB900204C
:1070B00070BD287840082178B0EB510F01D0002036
:1070C000F6E70622611C681CFFF717FA08B90120D1
:1070D000EEE70020ECE7014601F0030008B90120CB
:1070E00070470020FCE7024650680068401E0840D8
:1070F00008B9012070470020FCE70246002104E0A7
:10710000505C08B101207047491C0629F8D30020C3
:10711000F9E710B50346D868884206D88818401E9B
:107120001C69A04201D8012010BD0020FCE700002E
:1071300010B504466CB10848C068A04209D806489A
:107140000069A04205D3204605F081F908B101206D
:1071500010BD0020FCE700007824002070B5044634
:107160000D4604F22740FFF7C8FF0646012D06D062
:10717000022D0DD0032D11D0042D19D113E0A079CB
:1071800028B194F8240010B90EB1012070BD00BFE1
:10719000E07910B10EB10220F8E700BF207A08B103
:1071A0000320F3E700BF607A08B10420EEE700BFD8
:1071B0000020EBE70146481C052290FBF2F302FB9E
:1071C0001300C0B27047014691F82420012A01D172
:1071D000EE2000E01F20704710B5012202210020A0
:1071E00001F054FE044600BF1CB1072C01D020461C
:1071F00010BD00BF07220221012001F047FE044616
:1072000000BF1CB1072C01D02046F1E700BF0A22C5
:107210000021084601F03AFE044600BF1CB1072CCD
:1072200001D02046E4E700BF10220121022001F036
:107230002DFE044600BF1CB1072C01D02046D7E725
:1072400000BF0020D4E7000030B5B3B0AC2108A8DF
:10725000FFF741F904A86DDF044600BF25463DB1A4
:1072600000BF24A240F2AA312846FEF7D3FF00BF98
:1072700000BF002007E0C0F105020DF11101895C9B
:1072800006AA1154401C0628F5DB3320ADF8040093
:1072900006A903910620ADF8080002208DF8200011
:1072A00001A8119000208DF8220006208DF82300FF
:1072B00001218DF89C104FF4F0712A9144F2506135
:1072C0002B911048319008A90F4800F0C0FD0446EA
:1072D00000BF25463DB100BF06A24FF4717128469C
:1072E000FEF798FF00BF00BF0121074800F0ACFD8A
:1072F00033B030BD2E2E5C2E2E5C2E2E5C6D61695F
:107300006E2E630079060300B024002070B5044699
:10731000012C02D102F03CFD1BE003210D4800F0DE
:107320005DFE054600BF2E463EB100BF0AA240F2F8
:1073300007413046FEF76EFF00BF00BF0A490B4A07
:10734000891AC908042242EA014009A107F042FD56
:1073500000BF70BDB02400202E2E5C2E2E5C2E2E81
:107360005C6D61696E2E6300FC9603004496030019
:107370004164766572746973696E672073746172B3
:107380007465642E0000000070B58CB004460D4694
:107390001646002005E0C0F10F01615C0DF80010F9
:1073A000401C1028F7D30D2104A8FFF794F8002003
:1073B00005E02A5CC0F10F0304A9CA54401C03284D
:1073C000F7D3684646DF002005E0C0F10F0208A9A8
:1073D000895C3154401C0328F7D30CB070BD10B544
:1073E0000446002001F0C0FB10BD000010B50446AB
:1073F00002480178204600F077FF10BD1B230020D3
:1074000010B5002407E00749096811F8340001218C
:1074100008F05EFC641C044800788442F3D300202A
:1074200010BD000060230020642300202DE9F843F4
:1074300006460D4617460A2F02D20720BDE8F883FC
:1074400008F08AFD38B908F01DFD044600BF20464B
:1074500000B1F3E700BF18480660184805701848E7
:10746000076018480021016041608160C160164AD0
:107470001160516015E006EBC508144800680090E3
:1074800098F802008DF8010098F80000104A69464B
:1074900008F074FC044600BF204600B1CEE700BFF0
:1074A00000BF281EA5F10101CDB2E4D1094A002197
:1074B000094800F043F9C1E760230020642300205D
:1074C00068230020A831002070230020E47D030001
:1074D000D9B60200459E0200E07D03002DE9FE437F
:1074E00007460E46144672B600BF07F067FD00BFA0
:1074F00000BF07F0E1FA0028FBD100BF00BF012F59
:107500000CD06FF48050384498B1B0F5405F2CD067
:107510006FF440510844002847D115E03149324A00
:10752000891AC908012242EA014030A107F052FC41
:1075300047E02C492C4A891AC908012242EA014035
:1075400032A107F047FC3CE025462649DFF898C009
:10755000A1EB0C01C9084FF0010C4CEA014034A129
:10756000D5E9003207F04CFC2BE02546A86808F06E
:10757000DBFA8046D5E900108DE8430019491A4B23
:10758000C91AC908012343EA014043462FA1AA684A
:1075900007F05AFC1349144A891AC908012242EA21
:1075A000014034A107F016FC0BE00E490E4A891A7F
:1075B000C908012242EA0140324633A107F014FC17
:1075C00000BF00BF00BF3648006800F0010000B1F6
:1075D00000BE00BF22463146384600F063F8BDE8E1
:1075E000FE830000FC96030044960300534F46546C
:1075F0004445564943453A20415353455254494F17
:107600004E204641494C454400000000534F46542B
:107610004445564943453A20494E56414C49442039
:107620004D454D4F525920414343455353000000AF
:10763000415353455254494F4E204641494C4544CD
:107640002061742025733A25750000004552524F81
:1076500052202575205B25735D2061742025733AC7
:1076600025750D0A50432061743A20307825303852
:1076700078000000456E64206F66206572726F723C
:10768000207265706F727400554E4B4E4F574E20EE
:107690004641554C542061742030782530385800CC
:1076A000F0ED00E018B5012300939DF800301E4B6B
:1076B000186059609A606FF48043034463B1012BF2
:1076C00019D1194BDA60DB681B68174CA36123469C
:1076D000DB685B68E3610EE0134B1A611B699B6812
:1076E000114C636123461B691B68A36123461B6918
:1076F0005B68E36100BF00BF0B4B1B680A4B5B6814
:10770000094B9B68084BDB68074B1B69064B5B69A1
:10771000054B9B69044BDB6972B600BF9DF80030D6
:10772000002BFBD162B618BDB831002010B502485D
:1077300002F07EFC10BD00007823002010B5034647
:107740000C460AB9072010BD19684A61012C01D105
:10775000012000E0002008610020F4E738B513485C
:10776000006800900823582211491248006805F06B
:107770007CFF04460CB1204638BD0F4A69460F48CD
:1077800002F05CFC04460CB12046F5E701210B48F1
:1077900002F0FAFC01230A4A1946084802F01AFCD2
:1077A0000120084908702046E6E70000F87D030044
:1077B000D8310020E87D0300D7460300782300205D
:1077C000FFFF7F00842300202DE9F04106460D468F
:1077D00017463446207F10B10020BDE8F081A76134
:1077E00003F056FF401941F10001C4E9020120698C
:1077F00000B12561214600200FF0B2F8EDE770B529
:107800000446254600202877294601200FF0A8F8D5
:1078100070BD10B5044620460DF0E8F810BD00001C
:1078200070B5044625460E488068B0B1ADB9FFF783
:10783000FDF906460A4800680A4908600848406899
:107840004FF0E021C1F804010020054988601EB90D
:1078500000BF62B600BF00BF00BF00BF70BD000028
:107860004032002000E100E0F8B505460C4617461E
:107870002088001DB84201D90C20F8BD684679DF88
:10788000064600BF304600B1F7E700BF032021885D
:1078900068542088401C2080192021886854208842
:1078A000401C208020884119BDF800000FF06CFBBF
:1078B0002188084420800020DFE7000070B5002206
:1078C0004FF4804112480068FFF77EFF044600BF76
:1078D00025463DB100BF0FA24FF419712846FEF7AF
:1078E00099FC00BF00BF002210210E480068FFF77E
:1078F0006BFF044600BF25463DB100BF05A240F224
:1079000066212846FEF786FC00BF00BF70BD000060
:107910006C7903002E2E5C2E2E5C2E2E5C6D616920
:107920006E2E63007079030070B505460C46206822
:10793000401C28B1206806F015FF206806F092FE72
:107940006068401C18B10021606806F071FE28686C
:10795000A169C0F8241500BF617D227D286841EA35
:107960000203C0F86C3500BFD4E90012286808F0A3
:1079700014F9207D012814D1A068401C18B1002101
:10798000A06806F055FEE068401C28B1E06806F0EB
:10799000E9FEE06806F066FED4E90221286808F0F6
:1079A000E5F870BD70B505460C462068401C28B14E
:1079B000206806F0E2FE206806F060FE6068401C69
:1079C00018B10021606806F040FE2868A169C0F87F
:1079D000241500BF617D227D286841EA0203C0F8BA
:1079E0006C3500BFD4E90012286808F00EF9207D3C
:1079F000012814D1A068401C18B10021A06806F02D
:107A000024FEE068401C28B1E06806F0B6FEE0689D
:107A100006F034FED4E90221286808F0D7F870BDDA
:107A200070B504460D46204605F0A8F870BD10B5A7
:107A30000446637903F003022179208805F056F8A3
:107A400010BD10B50446207918B9204600F008F89A
:107A500003E02046FFF7EBFF00BF00BF10BD0000B2
:107A60002DE9FE4307463E884FF0000800225948A2
:107A70000178304600F04EFC7879C0F3800028B9D8
:107A80000021384609F094FDBDE8FE8306F58071BB
:107A900088B201AB0122072109F0AAFE0546C5B153
:107AA000284608F041F881464B494C4A891AC908D2
:107AB000012242EA014033464A46494907F0A0F90B
:107AC000294630460DF0B6FA0021384609F070FD1F
:107AD000DAE7304604F046F904464FF6FF718C426F
:107AE0001BD1029804F08EF804464FF6FF708442D2
:107AF00013D02146304604F013F93046FFF776FCE8
:107B000058B930460DF02AFA3046FFF76FFC20B91D
:107B10000021384609F04CFDB6E74FF6FF7084426D
:107B20001FD10AF07BF804464FF6FF70844212D151
:107B300029492A4A891AC908012242EA014029A191
:107B400007F048F9042130460DF074FA0021384658
:107B500009F02EFD98E72146304604F0E1F84FF099
:107B6000010806F5807188B22246072109F0C8FE97
:107B7000054625B90121384609F01AFD28E0862D71
:107B800007D130460DF01CFA0121384609F010FDEE
:107B90001EE0284607F0C8FF81460F490F4A891AA0
:107BA000C908012242EA014033464A461A49009474
:107BB00007F036F9294630460DF03CFA00213846E8
:107BC00009F0F6FCB8F1000F02D0204604F0B2F83C
:107BD00000BF59E718230020849603004496030051
:107BE000F0890300436F756C64206E6F7420616CC4
:107BF0006C6F63617465206E657720706565725F78
:107C0000696420666F7220696E636F6D696E6720AC
:107C1000626F6E642E0000000C8B0300002114E0E4
:107C20000C48D0F81024012308E000BFD068007988
:107C3000884201D1002303E0D0680268002AF4D111
:107C400000BF0BB108467047491C0A29E8DB4FF01A
:107C5000FF30F8E7D03500202DE9FC410546884685
:107C60001646002437880020308095F82D0058B142
:107C70003A463146404600F071FB044600BF2046BC
:107C800008B1BDE8FC8100BFA87850B13A46314642
:107C90004046FFF7E9FD044600BF204600B1F0E78B
:107CA00000BFE87860B1E97848B23B4632464146C9
:107CB00002F0FBFF044600BF204600B1E1E700BF31
:107CC000686868B1696891F900003B4632464146F0
:107CD0000EF084FF044600BF204600B1D1E700BF8C
:107CE000288900280EDD43460622022105F10800FE
:107CF000CDE900670FF04FFA044600BF204600B1FF
:107D0000BFE700BF288A00280EDD43460722032173
:107D100005F11000CDE900670FF03DFA044600BF01
:107D2000204600B1ADE700BF288B00280EDD43469A
:107D30001522142105F11800CDE900670FF02BFA88
:107D4000044600BF204600B19BE700BF286A58B137
:107D50003B4632464146286A01F034FE044600BFE5
:107D6000204600B18DE700BF686A58B13B463246F5
:107D70004146686A05F038F9044600BF204600B164
:107D80007FE700BF95F82C0000280BDD3B4632460C
:107D9000414628460DF046FB044600BF204600B190
:107DA0006FE700BF287858B13B4632464146284627
:107DB00005F009FA044600BF204600B161E700BFA4
:107DC00020465EE7F8B504460E46154600200090B2
:107DD0002B466A463146204600F008F807460FB9A0
:107DE0000020F8BDBDF800002044FAE7F0B50446D5
:107DF0000D461E4604B10AB90020F0BD002103E083
:107E0000605C401C084481B2481CA84206DA108815
:107E10008842F5DC481C205CB042F1D1A94201DB6C
:107E20000020EAE7881C87B2605C10B1605C401EED
:107E300000E0002083B213B1F818A84201DD002051
:107E4000DBE717801846D8E780F83010704770B528
:107E500004460D4605B10CB90E2070BD05F1780041
:107E600001F051FD08B90720F7E70020A0702C228F
:107E700005F17801201DFEF707FB002084F8300093
:107E8000D5F8A4006063D5F8A800A0634FF6FF7092
:107E9000A4F8240404F58260C4F82004002140F210
:107EA0002C40C4F82614A4F82A140155207810B9DF
:107EB000FF2084F8540004F15500C4F81004204653
:107EC000FFF781F940F21441085304F2144204F11F
:107ED00055012846FFF7C0FE064600BF304600B1F8
:107EE000BBE700BF04F231204FF483610851204604
:107EF000FFF769F9A4F81C044FF48360015904F2F8
:107F00001C4205F13C00FFF7A7FE064600BF3046C5
:107F100000B1A2E700BF012151200155208B81B2A1
:107F200048200153012084F83C00002121645020A6
:107F300001556169616404F13C02002104F15400BF
:107F400072DF064600BF304600B186E700BF012061
:107F50002070304681E770B504460D462E462088D5
:107F6000102804D0112807D026280FD109E0214677
:107F7000304608F05DFC0AE02146304608F052FE2B
:107F800005E02146304609F04CF800E000BF00BF94
:107F900070BD70B5044694F8540074DF012084F875
:107FA0002E04002084F830040021502001550621C1
:107FB000204602F095FE054600BF284600B170BD80
:107FC00000BFA178204600F009F8054625B1A06B56
:107FD00010B12846A16B88470020F0E770B5044631
:107FE0000E46207808B9082070BDA670002140F226
:107FF0002C40C4F82614A4F82A140155A07910B115
:10800000A078012809D0E07910B1A078012804D027
:10801000E07970B1A07802280BD1606B30B10120FB
:1080200084F82D040820616B884702E0002084F862
:108030002D0431462046FFF791F8A070606BA0B187
:10804000A078032802D0A07804280ED1607960B10E
:1080500094F82E0448B9002084F83004012084F8F4
:108060002F040720616B884702E0002084F82F046A
:10807000182104F13C00FEF72EFA012084F83C00A0
:1080800004F12C0009F0B4FF20B194F82C10512019
:10809000015502E001215120015594F8240060B1FE
:1080A00004F1280009F0A4FF20B194F82810522010
:1080B000015502E0012152200155002150200155B7
:1080C000A078052824D2DFE800F01F030A11180069
:1080D00004F13C0120460DF06BFA054619E004F16D
:1080E0003C0120460DF04CFA054612E004F13C013B
:1080F00020460DF06FFA05460BE004F13C012046E6
:108100000DF096FA054604E0002084F8310000E006
:1081100000BF00BFA07898B104F13C0204F1540004
:10812000D4F8201472DF05460DB128465CE794F8B8
:10813000301094F8540073DF05460DB1284653E71C
:10814000606B18B194F83100616B884700204BE7F1
:108150002DE9F041044600BF14B90E20BDE8F081BE
:1081600000BF1C2221461C48FEF78EF91B481A4905
:108170000860206860B120687ADF05460DB12846A6
:10818000ECE7164821680A6802604968416005E02A
:1081900012487BDF05460DB12846DFE7002617E0D1
:1081A00006EB86000E4901EB800700BF4FF6FF701B
:1081B000388000BF0B4800EB461078600A4A002167
:1081C000381DFFF7BBFA05460DB10320C6E7761C44
:1081D000002EE5D00020C1E78C2C0020CC2200200E
:1081E000782C0020582C0020A570030010B5044600
:1081F000204600F0A5F820B12146034805F0D7FA43
:1082000010BD0020FCE70000B82C002070B504462B
:108210000D46164620460EF08FFF08B9002070BDAF
:10822000034951F824003246294602F0CDFDF6E715
:10823000C42C002010B50446204600F081F820B17F
:108240002146034805F0B3FA10BD0020FCE700000A
:10825000C02C002010B50446204600F071F820B173
:108260002146034805F0A3FA10BD0020FCE70000FA
:10827000BC2C002070B504460025204600F060F8B4
:1082800050B12146054805F092FA06460EB102208B
:1082900000E00120054600BF284670BDB42C002038
:1082A00070B504460025204600F04AF850B121463A
:1082B000054805F07CFA06460EB1022000E00120D8
:1082C000054600BF284670BDB02C002010B518210F
:1082D000044805F03CFA0446182C00D110BDE0B269
:1082E000FCE70000A82C002070B505460C4620468F
:1082F0000EF022FF50B1284600F022F830B10449B8
:1083000001EB8400294605F052FA70BD0020FCE71D
:10831000C42C002070B505460C46164620460EF0CB
:108320000BFF50B1284600F00BF830B1034901EBC8
:1083300084003246294602F0A9FC70BDC42C0020FE
:1083400010B50446142C01DB002010BD2146024864
:1083500005F02DFAF9E70000AC2C00202DE9FC41D6
:1083600005460C46174620880930B84202D90C2031
:10837000BDE8FC8168466DDF064600BF304600B1AF
:10838000F6E700BF0820218868542088401C208020
:108390001B20218868542088401C20802088284485
:1083A000DDF801100160BDF8051081802088801D76
:1083B00020809DF80000400818B9002021886854EA
:1083C00002E00120218868542088401C2080002081
:1083D000CEE7000010B51349134A891AC9080422D0
:1083E00042EA014011A106F0F5FC4FF0FF310020F8
:1083F0003DDF044600BF204600B110BD00BFB121E3
:1084000000203CDF044600BF204600B1F5E700BF76
:108410001348416901208847022006F055FF0020DB
:10842000EBE70000FC96030044960300496E2062CF
:108430006C655F6466755F627574746F6E6C65738E
:10844000735F626F6F746C6F616465725F73746188
:1084500072745F66696E616C697A650D0A0000006E
:108460004430002010B50548006841690020884765
:10847000FFF7B0FF0446204610BD00003423002063
:1084800070B504460D4600BF04B970BD00BF20881A
:10849000102806D0112808D051280AD0532810D10E
:1084A0000BE0204608F0BEF90CE0204608F0ACFBDB
:1084B00008E0204608F05EFD04E0204608F0F4FCE9
:1084C00000E000BF00BF00BFDFE7000070B504465A
:1084D0000426207B012802D0022822D109E001F0E5
:1084E000FBFE05460DB9012602E0112D00D106263E
:1084F00019E0607B142801DC607B08B905260FE0D9
:10850000627B04F10E011248FDF7BEFF607B10494B
:10851000091F886108460DF0B9F8054605B901261E
:1085200001E0022600BF00BF012E0FD0207B3146A4
:1085300000F058F8054625B1064800684169032057
:1085400088470448006841690220884770BD0000E0
:10855000703000203423002070B505460E4600BF61
:108560001E48006820B11D48406808B1012000E0A5
:10857000002000B970BD00BF184800F10801426832
:1085800028469047044600BF082C24D07CB9002020
:108590001349096848760121022000F023F80446B7
:1085A000CCB10F48006841690320884713E00020E0
:1085B0000B49096848760621022000F013F80446AA
:1085C00024B10748006841690320884704480068CF
:1085D00041690220884700BFCCE7000060300020DE
:1085E00034230020F0B587B004460D460327002051
:1085F00001900290039004900320069020208DF8B3
:1086000014008DF815408DF816500E48C088ADF84E
:10861000040002208DF806000020ADF8080006A82E
:10862000039005A804900749888801A9AEDF064693
:1086300026B9BDF81800032800D00C26304607B034
:10864000F0BD00004430002070B504460D462E46B3
:108650002088502804D12146304608F03FFD00E034
:1086600000BF00BF70BD70B504460D462E46208881
:10867000502804D12146304608F05AFD00E000BFE2
:1086800000BF70BDF8B505460F4600242888212894
:1086900045D004DC102812D0112878D104E03B2802
:1086A0005AD05628F9D173E04849494A891AC9086D
:1086B000032242EA014047A106F08CFB84E04349D3
:1086C000434A891AC908032242EA014045A106F03B
:1086D00081FB072000F008FC044600BF26463EB19F
:1086E00000BF43A24FF42B713046FDF793FD00BF4E
:1086F00000BFA8884249088008460188414805F023
:1087000009FA044600BF26463EB100BF38A240F237
:10871000AF213046FDF77EFD00BF00BF54E02B497E
:108720002B4A891AC908042242EA014036A106F000
:1087300051FB00200090A88869468FDF044600BFE7
:1087400026463EB100BF2AA240F2BB213046FDF7CB
:1087500061FD00BF00BF37E01C491D4A891AC908E6
:10876000042242EA01402DA106F034FBA88813211F
:1087700076DF044600BF26463EB100BF1CA24FF480
:1087800031713046FDF746FD00BF00BF1CE01AE026
:108790000E490F4A891AC908042242EA014025A15C
:1087A00006F018FBA888132176DF044600BF264692
:1087B0003EB100BF0EA24FF433713046FDF72AFDE3
:1087C00000BF00BF00E000BF00BFF8BDFC96030083
:1087D00044960300446973636F6E6E6563746564E9
:1087E0002E000000436F6E6E65637465642E00009A
:1087F0002E2E5C2E2E5C2E2E5C6D61696E2E63001B
:1088000090220020A42400205048592075706461F3
:10881000746520726571756573742E0047415454F8
:1088200020436C69656E742054696D656F75742E94
:108830000000000047415454205365727665722051
:1088400054696D656F75742E0000000070B50546A3
:108850000E462888102802D011282CD115E0174880
:10886000006860B901F0A6F9044600BF34B11448AD
:10887000006818B1204612490968884700BF0F48B0
:108880000068401C0D49086016E00C480068401E56
:108890000A4908600846006860B9FEF79DFC044676
:1088A00000BF34B10648006818B120460449096881
:1088B000884700BF00E000BF00BF70BDC822002095
:1088C000C422002070B504460D462088102806D02A
:1088D000112808D012280ED0502810D107E02046C9
:1088E00007F068FF0CE0204608F074F908E0204625
:1088F00008F0C8FB04E0204607F044FF00E000BF9A
:1089000000BF70BD2DE9F04104460F46A6882088BF
:10891000102806D0112819D019283FD01A284AD17A
:1089200018E00AF0CFFC30460AF040FB30B900BF37
:1089300022A2F0210420FDF76DFC06E0E07B022876
:1089400003D131462C4804F041FF34E030460AF0B0
:10895000DDFC30E0207A0509042D01DB012000E078
:1089600000200246314624480C3002F08FF9032DD6
:1089700001DB012000E00020024631461E4808309D
:1089800002F084F9022D01DB012000E00020024604
:1089900031461948001D02F079F90CE0207A48B9F7
:1089A000607AC0F3C0052A46314613480C3002F005
:1089B0006DF900BF00BF00BFBDE8F0812E2E5C2E18
:1089C0002E5C2E2E5C2E2E5C2E2E5C2E2E5C636F6B
:1089D0006D706F6E656E74735C626C655C636F6DF9
:1089E0006D6F6E5C626C655F636F6E6E5F737461FA
:1089F00074652E6300000000B42C002070B504469E
:108A00000D4600BF0748007800B970BD00BF204682
:108A100003F062F820460CF067FF204602F018FCD5
:108A200000BFF2E70823002070B5044620460EF090
:108A3000A5FA0546C5F3400070BD70B50446204652
:108A40000EF09CFA054605F0010070BD38B506F041
:108A5000B7FE044600BF25463DB100BF15A240F257
:108A600037312846FDF7D6FB00BF00BF002000903D
:108A70006946012006F0C2FC044600BF25463DB110
:108A800000BF0CA240F23D312846FDF7C3FB00BFFA
:108A900000BF684606F062FD044600BF25463DB1B2
:108AA00000BF04A240F241312846FDF7B3FB00BFEE
:108AB00000BF38BD2E2E5C2E2E5C2E2E5C6D6169A3
:108AC0006E2E630070B504460D462E462088502851
:108AD00004D12146304608F055FB00E000BF00BF3E
:108AE00070BD000001460148405C7047167B0300E2
:108AF00010B50146094B585C00BF4FF0A044234617
:108B000000BFD3F81045C44004F001040CB10120AB
:108B100000E00020024682F0010010BD167B030039
:108B20007CB500240DE00848055D03260020009078
:108B30003346024601460190284605F0FDFC00BF81
:108B4000641C032CEFD37CBD167B030010B50446D8
:108B500004F0010008B100F04BF804F0020008B185
:108B6000FFF7DEFF10BD000010B502460949885C22
:108B700000BF4FF0A0442146D1F8043501248440C1
:108B80009C43C1F80845012484401C40C1F80C45B1
:108B900000BF10BD137B030010B504460249085DF9
:108BA000012105F01DFE10BD137B030010B5044626
:108BB0000249085D002105F013FE10BD137B030080
:108BC00010B50146094B585C00BF4FF0A044234646
:108BD00000BFD3F80445C44004F001040CB10120E7
:108BE00000E00020024682F0010010BD137B03006C
:108BF0007CB500240CE00948055D00200090034688
:108C0000012211460190284605F096FC00BF641C25
:108C1000032CF0D300F004F87CBD0000137B0300AC
:108C200010B5002403E02046FFF7B6FF641C032CB8
:108C3000F9D310BD10B5002403E02046FFF7B6FFBE
:108C4000641C032CF9D310BD02464FF0FF30002105
:108C500006E0054B5B5C934201D1084602E0491CEB
:108C60000329F6D300BF7047167B030070B5054695
:108C70000C4600260648056014B120460DF08CFC19
:108C80000448006810B9FEF7A7FA0646304670BDE2
:108C9000C4220020C822002010B5002000F052FBA2
:108CA000044600BF1CB1062C01D0204610BD00BFF9
:108CB000012000F047FB044600BF1CB1062C01D088
:108CC0002046F3E700BF0020F0E700002DE9F04167
:108CD00006460F464FF0000800243046FFF7B4FF69
:108CE0000446032C3ED20FB3012F02D0022F38D1FD
:108CF00030E004EB4400214911F8008004EB44000B
:108D00000844407850B11E4A4FF480411D48006825
:108D1000FEF75AFD05460DB91948067004EB4400EC
:108D2000164908448078184908551AE01548006823
:108D3000FEF765FD1448005D04EB44010F4A114441
:108D40008978884205D104EB44001146084490F824
:108D5000028006E004EB44000849084490F80180D2
:108D600000BF00BFB8F1000F06D00848006818B176
:108D70004046064909688847BDE8F081282C002054
:108D8000C0220020247B0300C1220020BC2200203E
:108D900010B50446032C03D22046FFF7A9FE10BDF0
:108DA0000020FCE770B50546042D09D0072D1BD027
:108DB0000A2D02D0102D4DD12FE00CF05DFD4AE0C0
:108DC00013212648008876DF0446082C0BD000BF0C
:108DD00026463EB100BF22A240F287313046FDF761
:108DE00019FA00BF00BF36E01C4800884FF6FF713B
:108DF000884211D11E48FFF7CCF80446082C0BD04E
:108E000000BF26463EB100BF15A240F29131304668
:108E1000FDF700FA00BF00BF1DE0122000BF4FF0B9
:108E2000A0431946D1F80425012383409343C1F898
:108E30000835012383401340C1F80C3500BF0D49AC
:108E40000D4A891AC908032242EA01400BA105F024
:108E5000C1FF00E000BF00BF70BD000090220020F5
:108E60002E2E5C2E2E5C2E2E5C6D61696E2E6300A4
:108E7000B0240020FC960300449603006273705FE8
:108E80006576656E745F6B65795F320030B5034659
:108E90000020032B23D2012A07D1012903D103F19A
:108EA0000E04E4B200E00024224679B1012902D088
:108EB000022911D104E003EB43040A4D2A550DE0C9
:108EC00003EB4304074D2C44627007E003EB4304BB
:108ED000044D2C44A27001E0072000BF00E00720F1
:108EE00030BD0000282C002070B504460025054840
:108EF000007800F0010018B1204600F05BF805464C
:108F0000284670BDB42200202DE9F04105460F46E9
:108F100000241F4805601F48076005F0020000B3E9
:108F2000002606E0012211463046FFF7AFFF044657
:108F3000761C032E01D2002CF4D034B940F2333227
:108F400003211548FEF772FA044614B9FEF758FAE1
:108F500004462CB9114A00211148FEF7EFFB0446E4
:108F600000BF05F0010080B10120FFF7EFFD2CB933
:108F70000C4A00210C48FEF7E1FB04462CB90B4AD1
:108F800001210B48FEF7DAFB04462046BDE8F081DC
:108F9000B4220020BC220020287B0300AD940200F4
:108FA000247B0300A1C902001C7B0300DF730200C5
:108FB000207B03002DE9F047044600260025DC480D
:108FC000007820B10020DA49087003F0D5FC182C95
:108FD0007ED2DFE804F00C16174A7EB2F6F4F3F204
:108FE000F1F0EFEEEDECEBEAE9E8E7E6E5E403F0BB
:108FF000C3FCD0480068FEF702FC0646CE48047069
:1090000091E100BF0120FFF7DBFD58B10120FFF720
:10901000C3FD022C02D14FF4E16001E04FF47A600D
:10902000054609E00120FFF7C1FD022C01D1C8204F
:1090300001E04FF4C8700546BF4804704FF400408B
:10904000A5FB00104FF47A73CF1840F100015A00CD
:1090500000233846FDF7D4F9814600224946B54839
:109060000068FEF7B1FB06465DE10120FFF7A8FDB1
:1090700058B10120FFF790FD032C02D14FF4487046
:1090800001E04FF47A60054609E00120FFF78EFD0C
:10909000032C01D1C82001E04FF4C8700546A64852
:1090A00004704FF40040A5FB00104FF47A728F1843
:1090B00040F10001520000233846FDF7A1F9814636
:1090C000002249469B480068FEF77EFB06462AE1DF
:1090D00028E10120FFF774FD58B10120FFF75CFD86
:1090E000042C02D14FF47A6001E04FF47A60054617
:1090F0000AE00120FFF75AFD042C02D14FF4C8709A
:1091000001E04FF4C87005468B4804704FF40040EE
:10911000A5FB00104FF47A73CF1840F100015A00FC
:1091200000233846FDF76CF9814600224946814804
:109130000068FEF749FB0646F5E00120FFF740FD19
:1091400050B10120FFF728FD052C01D1C82001E016
:109150004FF47A60054609E00120FFF727FD052C52
:1091600001D1C82001E04FF4C87005467248047070
:109170004FF40040A5FB00204FF47A73D71840F15C
:1091800000015A0000233846FDF73AF981460022D3
:10919000494668480068FEF717FB0646C3E0BCE096
:1091A000BAE0AEE0A5E09CE096E063E061E05FE05D
:1091B0005DE05BE055E045E035E025E015E00EE0E0
:1091C000FFE70120FFF7D0FC5B480470002240F26B
:1091D000666158480068FEF7F7FA0646A3E00120EA
:1091E000FFF7E4FC544804709DE0012050490870EA
:1091F0000220FFF7B9FC002240F266614D4800688A
:10920000FEF7E2FA06468EE0012049490870022086
:10921000FFF7AAFC00224FF4005146480068FEF711
:10922000D3FA06467FE00120414908700220FFF78B
:109230009BFC002240F266613E480068FEF7C4FADB
:10924000064670E001203A4908700220FFF78CFCC6
:1092500000224FF4005137480068FEF7B5FA064681
:1092600061E0FFF7E7FC344804705CE000BF00BF3A
:1092700000BF00BF31480068FEF7C1FA0646C4F1DE
:10928000110515B30EBB012D18D9A8B2C82148434A
:109290004FF4004180FB01104FF47A728F1840F1B7
:1092A0000001520000233846FDF7AAF8814600224B
:1092B000494622480068FEF787FA06460020FFF775
:1092C00075FC01201E49087005E00020FFF764FCD2
:1092D00000201B49087026E003F04EFB164804707E
:1092E00021E003F049FB0020FFF760FC1248047006
:1092F00019E003F041FB0120FFF758FC0E48047011
:1093000011E003F039FB0020FFF750FC0120FFF7CC
:109310004DFC0948047006E000BFFFF78BFC0648CF
:10932000047000E000BF00BF3046BDE8F0870000D9
:10933000B12200201C7B0300B0220020207B030010
:10934000B822002010B50446012120460DF0B5FFDB
:1093500010BD00002DE9FC4704460D461646A71C2B
:109360004FF001080020019001A8FEF752FA3048A2
:10937000406828602E4840682D498968411A2D4868
:109380000068401CA0EB010915E001212A4804F007
:1093900041FA03F00FFD82465146274804F03AFA9D
:1093A0002348406822498968411A22480068401CC5
:1093B000A0EB010900BF4F45E7D8B8F1000F30D04E
:1093C0000021009176B1009921F00301491C009120
:1093D000009921F00401091D0091009964F389119D
:1093E00000910DE0009921F00301891C0091009982
:1093F00021F00401091D0091009964F39F5100912F
:109400000B4949680B4A12681140094A0C3202EBB9
:109410008100009901600649496839440C3A51605D
:1094200000BF9DF80400FEF7FBF94046BDE8FC874D
:10943000D035002024240020EC39002070B50446EB
:109440000D460A2D03D10D212046FFF7F7FFA16835
:10945000481CA06020684554D4E90110884202D31A
:10946000204604F0B8FC70BD044880680349496890
:10947000884201D1012070470020FCE7D035002050
:109480000246002108E0074B1B6803EBC10003788C
:10949000934200D17047491C034800788142F2DBB7
:1094A0000020F7E7602300206423002010B5044665
:1094B00020780221FFF70AFC10BD0000F8B5054630
:1094C00015490120FFF720FD044600BF26463EB1A6
:1094D00000BF12A240F2D3313046FCF79BFE00BF22
:1094E00000BF69460020FFF7C1FB044600BF2646C7
:1094F0003EB100BF09A240F2D6313046FCF78AFEE9
:1095000000BF00BF9DF80000022801D1012000E04B
:1095100000202870F8BD0000A58D02002E2E5C2EC4
:109520002E5C2E2E5C6D61696E2E63007CB5044648
:10953000204602F017FC054600236A46092108F080
:10954000B5FA052805D10122024801782046FEF728
:10955000E1FE7CBDE42200207CB504460E460020DE
:10956000019042F6A620ADF8040001208DF8060017
:109570000748006800906A4601A92046A0DF05461A
:109580002DB90122034801782046FEF7C3FE7CBDB9
:10959000847B0300E522002001468879012809D157
:1095A0000879012806D1488842F60212904201D17A
:1095B000012070470020FCE74FF0FF31054A42F8D8
:1095C0002010082804DBFF23A0F108015032535477
:1095D00070470000B43000200146024850F82100D6
:1095E00070470000B43000202DE9F04F03460C46D0
:1095F0004FF0FF390AB1002000E0082084460AB18C
:10960000082000E00C208046614624E0154850F810
:109610002100401CF0B91D460846274616464FFA61
:1096200080FBDFF840A00AF1300A0AF805B0DFF845
:1096300034A04AF820704EB94FFA85FBA0F1080A11
:10964000DFF820E00EF1500E0EF80AB000BF4FFA1E
:1096500081F902E0491C4145D8D300BF4846BDE826
:10966000F08F0000B430002001460148405670479A
:10967000E430002070B590B006460C461546A07840
:1096800018B901208DF80E0002E0A0788DF80E00C8
:109690002088ADF80C0000200290607C02A90CF03C
:1096A00025F8A07C0DF109010CF020F8E07B08B151
:1096B000012000E000209DF80A1060F3C3018DF83E
:1096C0000A10207C08B1012000E000209DF80A105B
:1096D00060F304118DF80A10207B08B1012000E02E
:1096E00000209DF80A1060F300018DF80A10207D1B
:1096F00008B1022000E001209DF80A1060F3420149
:109700008DF80A101C2109A8FCF7E5FE607BC0F368
:10971000001018B9607BC0F34010F8B10020009031
:10972000E07C0DF101010BF0E1FF00BF9DF80000AE
:1097300020F00F00401C8DF800009DF8000020F084
:10974000F00010308DF8000000BF9DF8020020F0FE
:109750000600801C8DF80200CDF838D0607B8DF8B3
:109760002400A07B8DF82500142104A8FCF7B3FE8B
:1097700003A8049002A80590A088ADF81C00A0687A
:1097800020B1E088ADF81800A0680890A069002812
:1097900049D000200190A0690088ADF82C00A06994
:1097A0004088ADF82E00A06940680A9001A80D908D
:1097B000A169087B01A90BF099FFA169487B0DF114
:1097C00005010BF093FFA069807A08B1012000E049
:1097D00000209DF8061060F3C3018DF80610A06903
:1097E000C07A08B1012000E000209DF8061060F367
:1097F00004118DF80610A069007A08B1012000E07C
:1098000000209DF8061060F300018DF80610A06995
:10981000807B08B1022000E001209DF8061060F373
:1098200042018DF80610E06908B1E0690C902B4602
:1098300004AA09A93046AADF10B070BD2DE9F04195
:1098400004460D464FF6FF76304684420AD14FF467
:109850008071284603F07BFF86B2B6F5807F10D179
:1098600026460EE0FF2C0CDC2146284603F058FF6C
:1098700080F001070FB1204601E04FF6FF70064669
:1098800000BF3046BDE8F08170B505460DB9094C02
:1098900001E0084C083409E0204603F041F8064690
:1098A00006B904E028467168884700BFF4E700BFA6
:1098B00070BD00009030002010B504462CB9012086
:1098C000064948700020FFF7DFFF012C04D101207A
:1098D00002498870FFF7D8FF10BD000088300020D3
:1098E0002DE9F047024613468C46D3E90245DCE9F0
:1098F0000267B6EB040877EB050002D30120BDE850
:10990000F0870020FBE701468878012805D191F80F
:109910002000012801D100207047886A042802D065
:10992000486A042801D10020F6E70120F4E733B5A6
:109930008BB00546002000900C9878B100240BE015
:1099400021460CA803F033FF28B1009A501C009068
:1099500001A820F81240641C142CF1D32C22694673
:109960002846FCF791FD0DB030BD01460888062859
:1099700008DB0888B0F5486F06DD08884FF6FF72EF
:10998000904201D0072070474888062808DB4888A5
:10999000B0F5486F06DD48884FF6FF72904201D05F
:1099A0000720F0E708884FF6FF72904208D04888F9
:1099B000904205D008884A88904201DD0720E2E7FE
:1099C0000020E0E72DE9F04107460D461446984691
:1099D0002088801D404502D90C20BDE8F081384622
:1099E000FFF7C3FF064600BF304600B1F5E700BFF2
:1099F0000520218868542088401C2080122021885E
:109A000068542088401C20802288511938880DF025
:109A1000BBFA2188084420802288511978880DF0EB
:109A2000B3FA2188084420800020D6E710B5044608
:109A300000BF04A24FF410712046FCF7EBFB00BFFF
:109A400010BD00002E2E5C2E2E5C2E2E5C6D6169EA
:109A50006E2E630030B587B01C216846FCF73BFDD5
:109A6000002000904FF4A03001904FF4F0200290BD
:109A700003208DF80C000020ADF80E008DF81000CA
:109A80000A4805900A4806906846FEF761FB0446BE
:109A900000BF25463DB100BF06A240F25621284630
:109AA000FCF7B8FB00BF00BF07B030BD450703009F
:109AB0002D9A02002E2E5C2E2E5C2E2E5C6D61697E
:109AC0006E2E6300F8B505460C46607A88B9207A98
:109AD00010B91048476801E00E4887682A463946A1
:109AE0006068FDF771FE064616B130460BF048FA85
:109AF0000EE0002020720748406948B101208DF82F
:109B00000000ADF80250034841696846884700BF2D
:109B1000F8BD00008C2C0020F0B585B004460D4641
:109B200017461E4614220B496846FCF7ADFCADF8FB
:109B300002408DF80850ADF80A708DF80C600022D4
:109B4000054801782046FEF7E5FB684600F046FE32
:109B500005B0F0BD787C03001823002010B586B056
:109B60000446208807F0DAFC00BB2088FEF73EFBA5
:109B700030B92088012241F2060100F0A2FB15E075
:109B8000208800220A490978FEF7C4FB02208DF8DC
:109B900004002088ADF8060000208DF80C0000219C
:109BA0008DF80D1001A800F019FE00BF06B010BD21
:109BB0001823002010B5012200210846FFF766F99E
:109BC000044600BF1CB1072C01D0204610BD00BFC9
:109BD000072202210120FFF759F9044600BF1CB1FA
:109BE000072C01D02046F1E700BF0422022100200B
:109BF000FFF74CF90446122201210420FFF746F931
:109C0000044600BF1CB1072C01D02046DEE700BF90
:109C10000020DBE72DE9FF4105460C4629492A4A89
:109C2000891AC908042242EA01402B46224627A18C
:109C300005F0E6F8002002900390ADF80840ADF87A
:109C40000A40009001906A4602A9284690DF064625
:109C5000002E32D0304605F067FF074619491A4AF0
:109C6000891AC908012242EA01403B462A46234993
:109C700005F0C6F8BDF8000010B9BDF8020068B1E3
:109C8000BDF80230BDF800200E490F4FC91BC908AE
:109C9000012747EA01401AA105F0B2F8BDF8040017
:109CA00058B1BDF804200749074BC91AC908012358
:109CB00043EA0140224905F097F8304604B0BDE878
:109CC000F08100005C9603004496030055706461C7
:109CD00074696E672064617461206C656E67746876
:109CE00020746F202575206F6E20636F6E6E656324
:109CF00074696F6E20307825782E0000248503006B
:109D00005468652072657175657374656420545874
:109D10002F5258207061636B6574206C656E677498
:109D20006820697320746F6F206C6F6E6720627992
:109D30002025752F2575206F63746574732E0000C0
:109D4000708503002DE9F04105460F460F4C0121B7
:109D5000204603F096FD064600BF00BF00BF00BFCF
:109D6000BFF35F8F00BF00BF00BF0EB9012000E04E
:109D7000002040B1284602F06FFF08B1BDE8F08135
:109D8000024805F035FA00BFF8E70000DC220020A9
:109D900070B50D490D4A891AC908032242EA0140EB
:109DA0000BA105F017F808F0BDFD044600BF2546DD
:109DB0003DB100BF0AA240F271312846FCF72AFAF1
:109DC00000BF00BF70BD0000FC9603004496030076
:109DD000457261736520626F6E647321000000003C
:109DE0002E2E5C2E2E5C2E2E5C6D61696E2E630015
:109DF00070B506460D4616B14FF4064070BD287981
:109E000020B1012809D0022815D111E002202871C3
:109E1000284609F029F9044610E0284600F0E2FE41
:109E2000044648F20960844201D141F61D5405E020
:109E300041F61D5402E048F20E6400BF00BF204608
:109E4000DCE700002DE9F0418046002414E01248D0
:109E5000006800EBC405287806F00AF80746687821
:109E6000012800D100E00020784080F00106287829
:109E7000314600F0E1FB641C084800788442E6DBD0
:109E80000748D0E90010002359405840014301D051
:109E90000CF086FDBDE8F0816023002064230020E3
:109EA0007023002070B5044620793D2802D141F28C
:109EB0003D0001E04FF488500546208800222946E5
:109EC00002F014FE70BD000010B50021034803F03D
:109ED000D8FC044684F3100010BD0000EC390020CB
:109EE0007047000030B58DB0054600BF15B90E2093
:109EF0000DB030BD00BF294928680861284B0FCB41
:109F00008DE80F002549684662DF044600BF204601
:109F100000B1EDE700BF214800788DF83200012044
:109F2000ADF830001D4A921C0CA9A8DF044600BF02
:109F3000204600B1DCE700BF202104A8FCF7CBFAE3
:109F40000220ADF81000154800788DF812000120AD
:109F5000ADF816001420ADF814009DF81D0020F097
:109F60000200801C8DF81D009DF81D0020F01000DF
:109F700010308DF81D0001208DF821008DF8230090
:109F8000064948888A1D04A9FFF774FB044600BFF0
:109F9000204600B1ACE700BF2046A9E7083000200A
:109FA000B87C030070B505460C464FF4803000FACB
:109FB00004F1284600F020FB70BD70B505460C4644
:109FC0004FF4A07000EB840086B23146284600F0C2
:109FD000ABFB70BD2DE9F04704460D4616461F4603
:109FE0004FF4803000FA05F84FF4A07000EB8500C4
:109FF0001FFA80F926F07F464146206805F0E4F913
:10A000004146206805F0D4F94946206805F0C6F9B4
:10A0100032462946206805F0B1F94146206805F02E
:10A02000CAF91FB14146206805F0D1F9BDE8F087B3
:10A0300010B50446206805F0A6F910BD2DE9F047DB
:10A0400004460D4617466079324941F82070607920
:10A05000314901EBC000007968B108262F49304A28
:10A06000891AC908022242EA01402EA104F0B2FE78
:10A070003046BDE8F08729882068C0F8081500BF81
:10A0800094F90420AB7810461946002808DB4FEA03
:10A09000417C4FEA1C68DFF8B0C00CF800800BE090
:10A0A0004FEA417C4FEA1C69DFF8A0C000F00F08BE
:10A0B000A8F104080CF8089000BF00BF94F9041040
:10A0C000084600280DDB00BF00BF00F01F0301227F
:10A0D0009A4043099B0003F1E023C3F8002100BF2D
:10A0E00000BF00BF00BF012061790B4A02EBC10134
:10A0F00008716079114641F8304000260749084A46
:10A10000891AC908032242EA014011A104F062FE43
:10A110003046AEE79C230020A0230020DC960300FD
:10A120004496030052544320696E7374616E6365F4
:10A1300020616C726561647920696E697469616C13
:10A14000697A65642E00000000E400E018ED00E08C
:10A150005254433A20696E697469616C697A656426
:10A160002E00000010B5014691F90400002807DB1D
:10A1700000F01F0301229A40024B440943F82420B7
:10A1800000BF10BD00E200E070B505460C46224657
:10A190000221284600F03CFA70BD10B504464FF489
:10A1A0008271204600F0C0FA10BD10B504460021AF
:10A1B000206805F014F910BD10B50446042120688C
:10A1C00005F00DF910BD2DE9F84F044688461546F7
:10A1D00099464FF4803000FA08FA4FF4A07000EB73
:10A1E00088001FFA80FB25F07F455146204600F08D
:10A1F00003FA206805F0C7F806464146206805F0D6
:10A20000B7F8009032464146206805F0B7F8594645
:10A21000206805F0C3F8314600980CF0EDFA0128EB
:10A2200006D1102005F034FD5946206805F0B6F837
:10A23000206805F0A8F80646314628460CF0DCFAFE
:10A2400007465146206805F0B6F8012F0FD16A1C69
:10A250004146206805F092F8102005F019FD2068AD
:10A2600005F091F8B04225D00D20BDE8F88F2A46C0
:10A270004146206805F082F8206805F084F806461B
:10A28000681E31460CF0B8FA07466FF07F40A0EB2D
:10A290000900B84201D20D20E7E75FB96A1C4146C8
:10A2A000206805F06BF8206805F06DF8B04201D029
:10A2B0000D20DAE701225146204600F0A9F90020DE
:10A2C000D3E770B506460C4615462B4622460021BC
:10A2D0003046FFF721FC70BD10B510480068407E85
:10A2E00060B106210120FEF77DF9044624B10B4838
:10A2F0000068416903208847002010BD01200749FC
:10A300000968087601210846FEF76CF904461CB17D
:10A3100000200249096808762046EEE73423002031
:10A320002DE9F84305460E461746984669461048FB
:10A33000006803F0AEF9044614B90420BDE8F883C0
:10A340001C212046FCF7C7F8012020712560C4F8C5
:10A35000088008480068B6FBF0F0E0606761694675
:10A360000348006803F0BFF908F0A0FD0020E5E70E
:10A370009C7E0300907E030010B50446D4E90321BF
:10A38000501828DF10BD704730B58DB0054600BFAE
:10A3900015B90E200DB030BD00BF294928680861ED
:10A3A000284B0FCB8DE80F002549684662DF044635
:10A3B00000BF204600B1EDE700BF214800788DF8CE
:10A3C00032000120ADF830001D4A921C0CA9A8DF14
:10A3D000044600BF204600B1DCE700BF202104A8EE
:10A3E000FCF779F80220ADF81000154800788DF8D8
:10A3F00012000120ADF816001420ADF814009DF8ED
:10A400001D0020F00200801C8DF81D009DF81D002D
:10A4100020F0100010308DF81D0001208DF8210073
:10A420008DF82300064948888A1D04A9FFF722F900
:10A43000044600BF204600B1ACE700BF2046A9E7B4
:10A440001C300020C87C03000278072A38D2DFE8DD
:10A4500002F037040712222B340000220A7030E089
:10A4600001220A7003898B818388CB81C2688A604C
:10A4700000230B7425E002220A7003898B818388F4
:10A48000CB81C2688A60827D062A01D1012300E067
:10A4900000230B7415E003220A70C3888B810389A3
:10A4A000CB81C2688A600CE004220A70C3888B8169
:10A4B0000023CB8100228A6003E005220A7000E0BD
:10A4C00000BF00BF7047000070B50546002409E0DA
:10A4D000064850F8240020B1044850F824102846BB
:10A4E0008847641C042CF3D370BD00004C3200205C
:10A4F00030B587B004460D462068806808B907B0BB
:10A5000030BD182101A8FBF7E6FF0295A068069070
:10A51000207910B1012815D109E001208DF804003F
:10A5200020690390E0680490606905900BE00220C8
:10A530008DF804000749E0680968484303906069A2
:10A54000059000E000BF00BF2068816801A888472F
:10A5500000BFD4E7907E0300F0B585B005460C46F9
:10A560001646002C3ED0112C3CD0082C3AD00D2C95
:10A5700024D11D491D4A891AC908022242EA014014
:10A580002A461B4904F030FC2A460321684602F0A3
:10A590008FFE2EB1307800F0010008B1012000E0FC
:10A5A00002208DF8080000218DF80C1041F20111F5
:10A5B000ADF80A10684600F025F913E0204605F0D2
:10A5C000B3FA07460849094A891AC908012242EA2A
:10A5D00001402B463A46074904F012FC2146284622
:10A5E0000AF03CFD05B0F0BD8C96030044960300D4
:10A5F000C88B0300D88C030070B504460D4629466D
:10A60000206804F0D5FE2946206804F0DDFE70BD08
:10A6100070B504460E4615463146206804F0CBFE60
:10A620001DB13146206804F0D2FE70BD10B504465D
:10A63000204600F0E7F810BDF8B505460C46284660
:10A640000BF0BEFF05286AD2DFE800F003212A39AB
:10A650003F00DCB1012128460BF0C2FF0020009032
:10A660006846FDF7D6F82A460126002730463946C7
:10A67000FBF7F7FE2B4AD2E9003218431143294A6F
:10A6800003C29DF80000FDF7CBF800BF47E00CB116
:10A69000022000E00020014628460BF0A1FF3EE02A
:10A6A00044B1032128460BF09BFF012128460CF002
:10A6B00063FD03E0012128460BF092FF2FE01CB957
:10A6C000042128460BF08CFF29E024B10321284601
:10A6D0000BF086FF22E0002128460BF081FF0021CD
:10A6E00028460CF049FD002000906846FDF791F8DF
:10A6F0002A460126002730463946FBF7B2FE0A46B5
:10A70000C143D043074B0CCB11401840054AC2E966
:10A7100000109DF80000FDF783F800BF00BF00BFE8
:10A72000F8BD00007023002070B505460C4628686F
:10A73000015929B12146286804F030FE012070BD7E
:10A740000020FCE770B50446608801F00BFBA08098
:10A75000002505E0044850F82510204688476D1C68
:10A76000002DF7D070BD0000D422002070B5044643
:10A77000A08801F027FA6080002505E0044850F821
:10A780002510204688476D1C002DF7D070BD0000B5
:10A79000E822002070B50546002405E0044850F882
:10A7A000241028468847641C022CF7D370BD000093
:10A7B000C47B030070B50546002405E0054850F849
:10A7C000241028468847641C034800788442F5DB3F
:10A7D00070BD0000BC2F00201623002070B5044679
:10A7E000608801F0BFFAA080002505E0044850F819
:10A7F0002510204688476D1C002DF7D070BD000045
:10A80000387C030070B50546002405E0044850F884
:10A81000241028468847641C002CF7D070BD000027
:10A82000B07C030010B586B00446142101A8FBF7E4
:10A8300052FEA08900F0F0F9ADF808002078062853
:10A840005ED2DFE800F05D0304052E4A00BF00BFC2
:10A85000A08900F0E6F918B9E08908F026FDF8B102
:10A86000E08908F01FFD8DF80C002078032801D145
:10A87000012100E000218DF80D10A16804916068AD
:10A8800030B908208DF8040001218DF8141004E07F
:10A8900009208DF804006168059101A807F052F8BD
:10A8A0002FE0A08900F0BDF9B0B1E089A0B96068DF
:10A8B00038B90A208DF80400BDF8080007F092FAB4
:10A8C00004E00B208DF8040060680390012011491A
:10A8D000087001A807F036F813E0606818B9132073
:10A8E0008DF8040004E014208DF8040060680390E3
:10A8F0004FF6FF70ADF8080001A807F023F800E05C
:10A9000000BF00BF0348007808B107F0B1F906B0F6
:10A9100010BD0000F522002038B50546104800782B
:10A9200010B948F2016038BD4FF6FF70854202D180
:10A9300048F20360F7E7684608F098F9044614B94E
:10A9400048F20760EFE70520207001202071E580C4
:10A95000684608F09BF908F09DFA0020E3E7000044
:10A96000A823002038B50E48007810B948F20160DD
:10A9700038BD684608F07AF9044614B948F2076011
:10A98000F6E706202070684608F080F90548007850
:10A9900010B101200349087308F07CFA0020E7E7B2
:10A9A000A82300202033002070B586B0142101A810
:10A9B000FBF791FD2E48007828B101A8FFF784FD30
:10A9C000002006B070BD2A48001D02F01CFF08B12F
:10A9D0000020F6E700F0EAF906460EB13046F0E74F
:10A9E00008F080F906F0E2FC054625B1022D03D0FF
:10A9F000062D0ED103E000BF48F20A60E1E7012016
:10AA00001B4908700020486001A8FFF75DFD002089
:10AA1000D7E700BF00BF684608F028F9044614B91C
:10AA200048F20760CDE7012020700C2D16D2DFE838
:10AA300005F01506150715111512150A0E0B00BFA6
:10AA4000002020710BE000BF0320207107E00220EE
:10AA5000207104E000BF0120207100E000BF00BFB2
:10AA6000684608F013F908F015FA0020A9E700007D
:10AA7000A823002038B5044614B948F2046038BD54
:10AA80006946204608F00EFB08B3BDF8000000EB55
:10AA90008000114901EB8000C068A8B1A07A98B18C
:10AAA000BDF8000000EB800001EB8000C068401E94
:10AAB000BDF8001001EB8101074A02EB8101C8607B
:10AAC0000020A072002504E048F2056501E048F28C
:10AAD00009652846D3E70000F83200207FB5144608
:10AAE0001D462B46224601A9684608F073FA04B0B9
:10AAF00070BD37B50C4615462B46224669460020E8
:10AB000008F068FA3EBD37B50C4615462B4622467E
:10AB10000021684608F05EFA3EBD024602B111B956
:10AB200048F204607047106808600020FAE70000EF
:10AB3000F8B504460D4604B115B948F20460F8BDF5
:10AB40006946204608F0AEFAA0B16668BDF800106C
:10AB500001EB8101094A02EB810101F10C000121A5
:10AB600002F058FE2E6060680C3068600120A07210
:10AB70000020E4E748F20960E1E70000F832002035
:10AB800070B504460D4614B948F2046070BD032345
:10AB90000022294620460CF089FDF7E770B50446EF
:10ABA0000D4602230022294620460CF07FFD70BD91
:10ABB00070B5054609480068042802D148F20B64C4
:10ABC00009E007480549096840F821500121034878
:10ABD00002F020FE0024204670BD0000B4230020B7
:10ABE0004C3200203EB504460A4B6A460021A01DA7
:10ABF00008F0F0F9054635B9064A9188019808F041
:10AC0000CBFA054603E00348002101604160284675
:10AC10003EBD0000C42300200146A1F5404080B2A3
:10AC200070470146B1F5404F05DB4FF6FE7081429B
:10AC300001DC012070470020FCE710B50446E07FEE
:10AC4000FF2808D0A07F18B1E07F03F063FD02E089
:10AC5000E07F03F09DFD00206077207204F1080082
:10AC6000D4E90021904710BD10B50446207818287B
:10AC700002D1FDF72BFB207010BD10B504462078E3
:10AC8000182802D1FDF722FB207010BD70B50546D3
:10AC90000E46144624B13146284602F097FD03E0E3
:10ACA0003146284602F02DFD70BD30B504461088AF
:10ACB000C01C984201D90C2030BD0220158848558F
:10ACC0001088401C10800120158848551088401CB1
:10ACD000108015884C551088401C10800020EBE730
:10ACE00070B504460D4640F21442115B0122D4F8BF
:10ACF0001004FDF767F8064606B1357004F13C0212
:10AD000004F5826104F1540072DF70BD2DE9F04159
:10AD100006460C4615460027112C01D1012700E0FC
:10AD2000002765B13A460A4801783046FDF7F2FA45
:10AD30000022084801783046FDF7ECFA05E03A4673
:10AD4000044801783046FDF7E5FABDE8F0810000DF
:10AD5000332300203023002010B54FF4405400F07E
:10AD600009F80349086108460069001BC86010BD66
:10AD70007824002010B540F6F8700068401C18B91F
:10AD80004FF01020406902E040F6F870006803467A
:10AD90004FF0805001694269581C08B1184601E023
:10ADA00002FB01F00446204610BD000010B5FFF77D
:10ADB000D3FF00220249034803F0CCF910BD000084
:10ADC000A07E030078240020F7B50D4617460DB984
:10ADD0000020FEBD0026009868B1002409E021464D
:10ADE000684602F0E4FC18B1A0B23946A847761CC8
:10ADF000641C142CF3D33046EBE710B504466068AE
:10AE000007F09EFF10BD000070B586B000BF9DF832
:10AE10000C0020F00F00401C03909DF80C0020F067
:10AE2000F0001030039000BF01A86DDF044600BFA2
:10AE300025463DB100BF26A240F27F112846FBF710
:10AE4000E9F900BF00BF0E2002F098F806469DF811
:10AE5000050000909DF8063021A224A13046FBF7A2
:10AE6000A5FE3046FBF742FB85B22A46314603A8D1
:10AE70007CDF044600BF25463DB100BF14A240F26E
:10AE800087112846FBF7C6F900BF00BF00200490D9
:10AE900005905020ADF81000A020ADF81200002061
:10AEA000ADF814004FF4C870ADF8160004A87ADFAE
:10AEB000044600BF25463DB100BF05A240F29511F2
:10AEC0002846FBF7A7F900BF00BF06B070BD000021
:10AED0002E2E5C2E2E5C2E2E5C6D61696E2E630014
:10AEE0006D69616F6D69616F335F00002573253097
:10AEF000327825303278000070B50021084802F021
:10AF000059FD044600BF25463DB100BF05A240F2F1
:10AF10009D112846FBF77EF900BF00BF70BD000001
:10AF2000902400202E2E5C2E2E5C2E2E5C6D6169EE
:10AF30006E2E630070B5054615B14FF4064070BD26
:10AF40001848007B18B100201649087301E000F092
:10AF5000DFF81448007808281DD2DFE800F01C0450
:10AF6000080C101C141800F03FF8044616E000F01E
:10AF7000BDF8044612E000F099F804460EE000F037
:10AF800047F804460AE000F035F9044606E000F010
:10AF900043F9044602E048F20E6400BF00BF2046B9
:10AFA000CDE70000203300200D480089401C0C49EB
:10AFB000088100204880087300BF0DE000EB80018D
:10AFC000084A12F8211009B9012200E000220449C0
:10AFD0000A310A54411C88B20228EFDB7047000096
:10AFE00020330020F832002010B5084800F036F871
:10AFF00040B900200549891E08704880486041F624
:10B000001D5010BD00F072F8FBE700002233002055
:10B0100070B50F48458805EB85000E4901EB8000AF
:10B02000C06878B904200A49087005EB8500094A10
:10B0300002EB8000002301224168074802F0D2FFA2
:10B04000044602E000F090F80446204670BD00007F
:10B0500020330020F83200207824002010B501466B
:10B060000022002018E00F4B1B5C9BB100240D4B0D
:10B070001C5400EB80030C4C04EB8303DB684BB9DE
:10B0800000EB800304EB83031B7C012B02D10880BF
:10B09000012203E0431C98B20228E4DB00BF104603
:10B0A00010BD00002A330020F8320020F8B50C480B
:10B0B00044680C4800680B49898800EB810560886A
:10B0C000C01C86B20320064908700020B30000901F
:10B0D000084629464268044803F0FCF8F8BD000021
:10B0E00020330020BC2300207824002010B507491D
:10B0F0004888091D08F014F818B1FFF7D7FF044677
:10B1000002E0FFF785FF0446204610BD20330020F3
:10B1100010B514480078082820D2DFE800F0041F9A
:10B120001F0A1016171BFFF73FFF01200D4908707B
:10B1300015E000F07DF802200A4908700FE000F0E9
:10B1400029F806200749087009E000BF07200549D3
:10B15000087004E001200349087000E000BF00BF50
:10B1600010BD00002033002010B5052006490870EE
:10B17000022006498880084600230122016804480D
:10B1800002F030FF10BD000020330020BC2300205F
:10B1900078240020144908681449498801EB81018A
:10B1A000134A02EB810149680F4A11600F4949882F
:10B1B00001EB81010E4A02EB810148600A4989884E
:10B1C0000A4A528802EB8202094B03EB8202118188
:10B1D0000221054A91800021044A528802EB820232
:10B1E00003EB820211747047BC230020203300203F
:10B1F000F832002010B5062005490870498801EB97
:10B200008101044A02EB8101486806F0ADF810BDE7
:10B2100020330020F832002010B5072003490870C1
:10B220000020486006F0B0F810BD00002033002078
:10B23000054A50684288D21C91B2044A92880A4456
:10B24000024B9A807047000020330020BC2300206E
:10B250002DE9F04186B00446A688208850282ED0DB
:10B2600004DC352836D0362808D189E0522802D0AF
:10B270005428F9D103E0304601F080FCB9E01422F3
:10B28000634901A8FBF700F9ADF80660304600F00D
:10B2900069FDADF80800BDF8080000F041FA002291
:10B2A0005C4801783046FDF735F800225A480178AD
:10B2B0003046FDF72FF801A8FFF744FA99E0A01DEA
:10B2C000FEF76AF928B10121304601F0B9FC0BF014
:10B2D000CFFE8EE00027A68804F10A054F480178CA
:10B2E0003046FDF701F800B983E000224B480178B1
:10B2F0003046FDF70FF8E088B0F5857F3AD0E0885A
:10B3000058B1E2884649474BC91AC908022343EAA3
:10B31000014045A103F068FD2CE0288801280AD0EF
:10B320002A883F493F4BC91AC908022343EA014012
:10B330004CA103F059FD688801280BD06A88384970
:10B34000384BC91AC908022343EA014054A103F04B
:10B350004BFD0FE0A98800223046A1DF8046B8F1FE
:10B36000000F06D1012701225C4801783046FCF726
:10B37000D1FF00BF1FB9002130460BF0BFF938E004
:10B380000027A68804F10A05544801783046FCF7E6
:10B39000ABFF00B92DE00022504801783046FCF7A1
:10B3A000B9FFE08858B1E2881D491E4BC91AC90887
:10B3B000022343EA01401CA103F016FD14E0A88813
:10B3C00001280BD0AA881649164BC91AC9080223AE
:10B3D00043EA014032A103F007FD05E0A87908B176
:10B3E000012000E000200746394630460BF086F980
:10B3F00000BF00BF00BF002239493A480078FCF77F
:10B4000005FF00BF09F01CFF06B0BDE8F081000099
:10B41000987B0300E3220020E2220020E5220020A6
:10B420004496030044960300556E65787065637416
:10B430006564204741545420737461747573207798
:10B4400068696C652067657474696E672043415252
:10B4500020636861722076616C75653A20307825CA
:10B46000780000004D756C7469706C652028256447
:10B470002920434152206368617261637465726977
:10B48000737469637320666F756E642C20757369BD
:10B490006E67207468652066697273742E00000000
:10B4A000556E65787065637465642043415220630E
:10B4B000686172616374657269737469632076612F
:10B4C0006C7565206C656E67746820282564292C6E
:10B4D0002073746F726520302E000000E622002079
:10B4E000217A0200E122002010B50446207858B9E4
:10B4F000608801F043FB608809F092FE6088FEF7E7
:10B5000015F80BF0B5FD00E000BF00BF10BD000056
:10B5100010B500F089FDFCF7D9FE2A490870FCF748
:10B52000D5FE29490870FCF7D1FE28490870FCF7C0
:10B53000CDFE27490870FCF7C9FE26490870FCF7C4
:10B54000C5FE25490870FCF7C1FE244908701D4856
:10B550000078182817D01C480078182813D01B48EA
:10B56000007818280FD01A48007818280BD01948EE
:10B570000078182807D018480078182803D0084603
:10B58000007818280BD11649164A891AC9080122D1
:10B5900042EA0140144903F01DFC032010BD00BF26
:10B5A00000201249086000BF00BF00BF00BFBFF30A
:10B5B0005F8F00BF00BF00BF00BF01200C490870B3
:10B5C0000020EBE7E0220020E1220020E222002020
:10B5D000E3220020E4220020E5220020E6220020D1
:10B5E00044960300449603009C810300DC22002063
:10B5F000D82200207CB504462078082840D1607A03
:10B6000000283DD1207A012814D0072802D008282C
:10B6100034D12BE0A08800F0D5FA05464FF6FF7034
:10B62000854206D00121284601F00AFB2846FDF795
:10B630007DFF24E0A0886A46012106F077F80646DF
:10B640009EB90198007880B1A08800F0BBFA054649
:10B650004FF6FF70854207D001220B48017828463B
:10B66000FCF758FE09F0ECFD00BF08E00748006851
:10B67000012802D1054803F0BBFD00E000BF00BF78
:10B680000BF0F6FC7CBD0000E2220020DC22002052
:10B6900070B50B48FEF7CCFC0A4B0CCB841843F179
:10B6A0000005094903C9201A75EB010004D24FF0C7
:10B6B0008073E41845F100052046294670BD00005E
:10B6C0007823002088230020902300200148006870
:10B6D00070470000982200202DE9F041044688467A
:10B6E000E0B2FDF7CDFE0546287804F0C1FB074621
:10B6F0006878012800D100E00020784080F0010641
:10B700004EB10648D0E9001000235940584001438B
:10B7100001D10BF045F9BDE8F08100007023002055
:10B720001CB50446044903C9CDE90001002269465D
:10B73000204606F009FA1CBDBC7B030010B500F0E2
:10B7400079FC012001490870002010BDEC22002086
:10B750002DE9FC470546284600F004FB0646002775
:10B76000B8464FF003094FF0010A4FF6FF708642CA
:10B770000DD06A460821304605F0D8FF044634B99A
:10B780000198871DB0F80480D0F8009000BF00BF7A
:10B790004B46424639462846B1DF0446042C01D1C7
:10B7A000112422E0082C01D100241EE00B2C1CD116
:10B7B0004FF0000A09F0020010B14FF0010914E047
:10B7C00017B9B8F1000F04D00027B8464FF00309AD
:10B7D0000BE00A490A4A891AC908012242EA0140D3
:10B7E0002A46084903F000FB03240B2CD0D0BAF101
:10B7F000000F00D10B242046BDE8FC874C960300C7
:10B8000044960300648403002DE9FC5F80464046B3
:10B8100000F0A8FA06464FF6FF70864203D143F2C5
:10B820000200BDE8FC9F4FF001094FF0000A00BF85
:10B830004FF0000A4A46511C1FFA81F96B46082155
:10B84000304605F0D5FF0446002C31D1019D032080
:10B8500028602A1DA91D40462B68B2DF044634B972
:10B8600032460821304606F04BF804461FE00C2C07
:10B8700002D14FF0010A02E0052C00D1002408217A
:10B88000304606F02DF8074687B1384604F04CF9EB
:10B8900083460C490C4A891AC908012242EA014030
:10B8A0005B463246094903F0ABFA032400BF02E0CD
:10B8B000072C00D10C24BAF1000FB9D100BF2046EB
:10B8C000AFE700004C96030044960300E4830300B6
:10B8D00010B50446044800884FF6FF71884201D035
:10B8E00009F0BAFC10BD0000EE220020FEB50446AF
:10B8F00002A80190204600F035FA06466A4601216A
:10B90000304605F013FF05460DB10020FEBD01983D
:10B910000078FBE72DE9F04105464FF6FF76164823
:10B92000B3DF04468CB1204604F0FEF80746134905
:10B93000134A891AC908012242EA01403A461149CC
:10B9400003F052FA0320BDE8F08100BF4FF6FF720A
:10B95000094801882846AFDF044643F203008442C9
:10B9600004D105480088401C0349088043F20300C5
:10B970008442EBD02046E6E7F02200204C960300FC
:10B9800044960300988303001FB5124B0FCB8DE83C
:10B990000F0002208DF8030003208DF80200042020
:10B9A0008DF8010005208DF8000003208DF80C00B3
:10B9B00000BF0023084A6946084802F06DF90446B2
:10B9C00034B100BF06A2AA212046FAF723FC00BF2B
:10B9D00000BF1FBD74790300415E03005C79030062
:10B9E0002E2E5C2E2E5C2E2E5C6D61696E2E6300F9
:10B9F00070B504460D46204600F01DF8A84201D956
:10BA0000022070BDA0884FF6FF71884204D02088C4
:10BA100010B1A068401C08B90120F2E70020F0E74F
:10BA2000024613468B4204D21868401C08B101201C
:10BA300070470020FCE701464A8801F10C0000EB4A
:10BA40008200704710B503F037F808B903F006FC20
:10BA500010BD3EB504460D4620780221B1EB500FD3
:10BA600001D000203EBDB4F80100ADF80800E07838
:10BA70008DF80A00A188ADF80010A0798DF80200B9
:10BA800001AA69462846FBF77FFC032201A902A808
:10BA9000FAF733FD08B90120E4E70020E2E70000EF
:10BAA00070B504460D46142C03DA2046FCF748FC1A
:10BAB00010B943F2020070BD04EB8400054901EBAC
:10BAC0004000D0F802102960C188A980007AA871CE
:10BAD0000020F0E7242D002030B591B005462888DD
