:020000040002F8
:1060000050970020DD630200E5630200E7630200B1
:10601000E9630200EB630200ED6302000000000090
:10602000000000000000000000000000EF6302001C
:10603000F163020000000000F3630200F563020058
:1060400099660200F7630200C56B02000169020055
:10605000F7630200F7630200C5650200F763020000
:10606000F7630200F7630200F7630200F7630200C0
:10607000F7630200F7630200F7630200F7630200B0
:10608000F763020049680200F7630200F763020049
:10609000F7630200F763020015690200F76302006C
:1060A000F7630200F7630200F7630200F763020080
:1060B000F7630200F7630200000000000000000028
:1060C000F7630200F7630200F7630200F763020060
:1060D00061680200F7630200F7630200000000003D
:1060E00000000000000000000000000000000000B0
:1060F00000000000000000000000000000000000A0
:10610000000000000000000000000000000000008F
:10611000000000000000000000000000000000007F
:10612000000000000000000000000000000000006F
:10613000000000000000000000000000000000005F
:10614000000000000000000000000000000000004F
:10615000000000000000000000000000000000003F
:10616000000000000000000000000000000000002F
:10617000000000000000000000000000000000001F
:10618000000000000000000000000000000000000F
:1061900000000000000000000000000000000000FF
:1061A00000000000000000000000000000000000EF
:1061B00000000000000000000000000000000000DF
:1061C00000000000000000000000000000000000CF
:1061D00000000000000000000000000000000000BF
:1061E00000000000000000000000000000000000AF
:1061F000000000000000000000000000000000009F
:10620000DFF80CD000F0A0F90048004739DD0200AB
:106210005097002000B583B002900091019244F2A3
:10622000010071466A4601F033FA03B000BD000078
:1062300030B450E8012F93B2C48923448489A34227
:1062400028BF1B1B0489A34202BFBFF32F8F00206E
:1062500007E0C3EA020340E80134002CE9D14FF023
:1062600001000A6030BC704750E8012FC2EA0242C8
:1062700040E801210029F7D1704730B450E8022FDF
:106280001FFAA2F3C488A34202BFBFF32F8F0020DE
:106290000DE0C48923448489A34228BF1B1BC2EAA2
:1062A000034340E80234002CE8D14FF001000A60BB
:1062B00030BC704750E8022FC2EA224240E8022177
:1062C0000029F7D17047034653E8022FD988B2EB73
:1062D000324F4FF0000017BF92B241EA014142EA4B
:1062E000014104E05A68B2EB324F08BF012043E895
:1062F0000212002AE8D1704730B4044654E8000F77
:106300000D4644E80053002BF8D1156030BC7047AF
:1063100030B4044654E8000F40EA010544E8005355
:10632000002BF7D1156030BC704730B4044654E8F8
:10633000000F00EA010544E80053002BF7D1156077
:1063400030BC704730B4044654E8000F80EA0105C1
:1063500044E80053002BF7D1156030BC704730B4CF
:10636000044654E8000F00EB010544E80053002BFD
:10637000F7D1156030BC704730B4044654E8000FC4
:10638000A0EB010544E80053002BF7D1156030BCA9
:10639000704770B404464FF0000054E8006F0D6879
:1063A000AE4207BF44E80023012044E800630E60CA
:1063B000002B1CBF0020F0E770BC704730B40446CF
:1063C00054E8000F88422CBF451A054644E80053A4
:1063D000002BF5D1156030BC70470000064880479F
:1063E00006480047FEE7FEE7FEE7FEE7FEE7FEE7BA
:1063F000FEE7FEE7FEE7FEE72D690200016202000C
:106400002DE9F05F0546002092469B4688460646E9
:10641000814640241BE0284641464746224600F07C
:1064200082F853465A46C01A914110D31146184675
:10643000224600F016F82D1A67EB01084F46224657
:106440000120002100F00DF817EB00094E41201E3D
:10645000A4F10104DFDC484631462A464346BDE844
:10646000F09F202A04DB203A00FA02F10020704756
:106470009140C2F1200320FA03F319439040704782
:106480000048704738B2030010B5431A934209D24E
:106490008318881803E010F8011D03F8011D521E2F
:1064A000F9D210BD40EA01039B0703D009E008C9F7
:1064B000121F08C0042AFAD203E011F8013B00F8C9
:1064C000013B521EF9D210BDD2B201E000F8012BFF
:1064D000491EFBD270470022F6E710B513460A4664
:1064E00004461946FFF7F0FF204610BD421C10F885
:1064F000011B0029FBD1801A704730B504460020EB
:10650000034600E05B1C934203D2E05CCD5C401B81
:10651000F8D030BD034611F8012B00F8012B002AFA
:10652000F9D118467047202A04DB203A21FA02F0FC
:106530000021704721FA02F3D040C2F120029140BD
:106540000843194670470000064C074D06E0E06816
:1065500040F0010394E8070098471034AC42F6D3AA
:10656000FFF752FE30C7030050C7030070B58C1808
:1065700010F8015B15F0070301D110F8013B2A1157
:1065800006D110F8012B03E010F8016B01F8016B44
:106590005B1EF9D12B0705D40023521E0DD401F840
:1065A000013BFAE710F8013BCB1A921C03E013F809
:1065B000015B01F8015B521EF9D5A142D8D300203E
:1065C00070BD00002DE9F84F0026002000904FF428
:1065D00080770125002410E0384609F0D3FB40B154
:1065E00000BF25480068284018B1384609F0BCFBB8
:1065F0002E436D00381D87B2641C082CECD34FF479
:10660000BE7009F0BFFB50B14FF4BE7009F0ACFB97
:1066100046F000466A460121002009F007FBF0B26F
:1066200010B3012500241DE005EA0600C0B100BF3B
:10663000124850F82400C0F30420814600BF0F48E0
:1066400050F82400C0F301408246204603F086FA49
:106650008046B8F1000F02D051464846C04700BFFF
:106660006D00641C082CDFD306F0004010B16846B2
:106670000DF0ACFDBDE8F88F0463004010650040EC
:1066800010B514200AF024FE10BD10B5012114200D
:106690000AF048FE10BD000010B54FF4807008F0FD
:1066A000F6FB80B14FF4807008F0FAFB012008F08F
:1066B00001FC0D48407930B901200B49487108466A
:1066C0000168002088474FF4827008F0E0FB50B169
:1066D0004FF4827008F0E4FB022008F0EBFB024864
:1066E00001680120884710BD6C3200202DE9F04F71
:1066F000A9B04FF000090020249082464FF0020B11
:106700000FF062F80EF0F6FB24AA25A901200EF086
:106710009FFF0746002F62D19DF8900000285EDDA4
:106720003848007800285DD1012036490870364885
:106730000068364908600DF1960102200FF02AF931
:1067400007460DF19605EE1D06E095F800803078BD
:1067500005F8010B06F80189B542F6D34FF001099F
:1067600008210DF1960006F021F804462849294A2F
:10677000891AC908032242EA0140224626A109F0EB
:10678000D3FD2F4801460A6882604968C160DDF880
:1067900096100160DDF89A104160FFB900241BE0FB
:1067A00003A88021CDE900100AEB0400C2B204ABBB
:1067B000002158460FF090F8074667B9002008E01E
:1067C00004AA411C525C00EBC4031D491831CA5491
:1067D000401C0828F4DB641C2B2CE1DB02E00020C9
:1067E000084908700848006808490968401A1549AE
:1067F000884202D9002003490870484629B0BDE804
:10680000F08F0000BD3100208C310020C03100200D
:1068100028C8030070C7030049534F313536393358
:106820002F4E46432D56206361726420666F756E4D
:10683000642E205549443A2025730D0A00000000BB
:10684000E03D0020A0BB0D0010B5034A1068034ACC
:106850001168884710BD0000C8320020C4320020F3
:1068600010B504220021024806F05EFC10BD0000B5
:106870000040024010B500F0ADF910BD2DE9F04721
:10688000074688461646C24607EB47011B4800EB01
:10689000C109D9F8140020B1012811D0022826D14D
:1068A0001EE0484600F0CEF90546B54201D200246C
:1068B00005E0344632465146484600F00AFA18E0F0
:1068C000484600F0BFF90546B54201D2284600E02F
:1068D0003046044622465146484600F0FAF908E0A0
:1068E00032465146484600F0BBF9044601E0002418
:1068F00000BF00BF2046BDE8F0870000DC54002048
:1069000010B50249024806F0FCFB10BDA84A002061
:106910000030004010B50AF065FA10BD0148024988
:10692000086070470090D0039433002010B507F042
:1069300073FE28B192480088C0F304209149086092
:1069400007F0C2FE10B190489049486707F0F8FE82
:1069500030B18B48E0380068C0F342308C490860A1
:1069600007F01AFF28B18B48006820F08070894931
:10697000086007F02FFF48B10020874908604FF0FA
:106980008041C1F810018249091F086007F04EFFDD
:1069900018B103207E496431086007F065FF68B1D3
:1069A00005207E49086001207C497831086000207C
:1069B0007A49083108603F20091F086007F072FF1C
:1069C000002855D06E48E0300068754908606C4872
:1069D000E4300068091D08606948E8300068091D56
:1069E00008606748EC300068091D08606448F030B2
:1069F0000068091D08606248F4300068091D0860DD
:106A00005F48F83000686649203108605C48FC3017
:106A10000068091D086063480068091D0860614836
:106A2000001D0068091D08605E4808300068091DE7
:106A300008605C480C300068091D08605948103037
:106A40000068574940310860564814300068091DF5
:106A50000860544818300068091D086051481C300F
:106A60000068091D08604F4820300068091D086053
:106A700007F0A6FD30B14248CC38006800F04F0066
:106A80004949086007F0F4FD40B14848006800F04B
:106A9000010018B16FF001004449086007F032FEB0
:106AA00028B14348006840F4806041490860394893
:106AB0007438006840F4700036497439086000BFCB
:106AC00000BF00BFBFF34F8F00BF00BF00BF00BFBC
:106AD00000BF00BFBFF36F8F00BF00BF00BF3548CE
:106AE000006800F0004028B93248001D006800F03E
:106AF0000040E8B301203049086000BF2F4800681B
:106B00000028FBD015202B49086000BF2B480068E7
:106B10000028FBD015212748001D016000BF274831
:106B200000680028FBD000202349086000BF2348EC
:106B300000680028FBD000BF00BF00BF00BF00BF3F
:106B4000BFF34F8F00BF00BF00BF1248F03800688E
:106B500000F4E0601A490843001D0E49F03908604E
:106B600000BF00BF00BFBFF34F8F00BF00BF00E0FA
:106B700003E000BF00BF00BFFDE7FFF7CFFE10BD81
:106B800024030010403501400DF0ADBA00C00740AD
:106B90003C050040FCED00E00C01004010560040B8
:106BA00020C5004024040010E40E00400004004012
:106BB0003C1700400012001004E5014000E40140D1
:106BC0000000FA0510B502490868804710BD0000B2
:106BD0007432002010B5124C02202061606111A0B7
:106BE000A0611349E1614FF4007121620021A162AB
:106BF0006162E1620BA0A0640E49E164102121658D
:106C00000021A1656165E1650BA1E01DFFF782FC34
:106C10000AA12046FFF77EFC2020A07110BD0000D5
:106C2000C45400205465726D696E616C00000000F0
:106C30003C5500203C5700205254540053454747D0
:106C40004552000010B501460A69CB689A4204D843
:106C50008C68641EE41AA01801E0D41A601E10BDEE
:106C60002DE9F0470446894617464FF0000AE568CB
:106C700000BFD4F81080A84503D9A8EB0500461E34
:106C800004E0A5EB0800401CA1680E1AA068401B98
:106C9000B04201D9304601E0A068401B0646BE4222
:106CA00001D2304600E0384606466168481932464F
:106CB0004946FFF7E9FBB244B144BF1B3544A06825
:106CC000A84200D10025E560002FD2D15046BDE892
:106CD000F0872DE9F047044689461546E668A06826
:106CE000871BAF4208D9616888192A464946FFF7D1
:106CF000CBFB7019E06010E0B84661688819424625
:106D00004946FFF7C1FBA5EB070809EB070142461F
:106D10006068FFF7B9FBC4F80C80BDE8F08700009D
:106D20000FB4084B10B504A902AA039800F03EF86E
:106D3000044602A9002000F06AFA204610BC5DF863
:106D400014FB00000F72020002E008C8121F08C105
:106D5000002AFAD170477047002001E001C1121FDC
:106D6000002AFBD1704700000146202908DA0120E3
:106D700088400A4A104008B1012070470020FCE713
:106D8000402909DAA1F12000012202FA00F008B13D
:106D90000120F2E70020F0E70120EEE7FC06FFBD4E
:106DA00000BFEFF31081084672B670472DE9FF4F20
:106DB0008DB00F460546002606E025280BD0DDE9FC
:106DC0000F1290476D1C761C28780028F5D111B061
:106DD0003046BDE8F08F0024A246A1460122EC49CE
:106DE00000E0044315F8013F203B02FA03F008429B
:106DF000F7D128782A2810D06FF02F022878A0F138
:106E00003001092914D80AEB8A0102EB410144F050
:106E1000020400EB010A6D1CF0E701CF5FEA000AF3
:106E200003D544F40054CAF1000A44F002046D1C76
:106E300028782E2817D115F8010F44F004042A28C9
:106E40000ED06FF02F022878A0F1300109290AD85E
:106E500009EB890102EB410100EB01096D1CF2E72E
:106E600057F8049B6D1C28786C280FD006DC4C2842
:106E700017D068280DD06A2814D104E0742810D0E7
:106E80007A280FD10DE044F400140AE044F4801491
:106E900001E044F440146978814202D104F5801481
:106EA0006D1C6D1C2A786E2A1FD00CDC632A31D031
:106EB00004DC002A8BD0582A11D1A3E0642A68D0C0
:106EC000692A0CD165E0732A2ED004DC6F2A73D0B6
:106ED000702A04D19BE0752A6FD0782A6ED01046B4
:106EE000DDE90F129047761C50E1C4F302500228EE
:106EF00006D0032809D0042801CF09D0066045E157
:106F000001CFF117C0E9006140E101CF06803DE10A
:106F100006703BE117F8040B8DF8000000208DF897
:106F20000100EB46012003E057F804BB4FF0FF30AF
:106F300061074FF0000102D40DE008F1010188461D
:106F400049450FDA8045F8DB1BF808100029F4D119
:106F500008E008F1010188468142FADB1BF80810BD
:106F60000029F6D1DDE90F23AAEB0800814621466E
:106F700000F036F9304400EB080604E0DDE90F12BA
:106F80001BF8010B9047B8F10108F7D2214648469B
:106F9000F7E00A21C4F302534FF0000B0891022BD3
:106FA00004D001CFC117032B09D00AE0FF1D27F041
:106FB0000707F7E8020108E032E01FE020E000B236
:106FC000C117042B01D140B2C117031E71F1000398
:106FD00007DA4FF0000CD0EB0C006CEB01012D2315
:106FE00002E0230504D52B238DF82430012303E090
:106FF000E30701D02023F7E7984658E00A2110E084
:1070000010210EE010204FF0000B08900CE0102132
:107010004FF0000B44F004044FF00809089103E01E
:1070200008214FF0000B0891C4F30253022B04D047
:1070300001CF0021032B06D006E0FF1D27F0070734
:10704000F7E8020103E080B2042B00D1C0B24FF098
:10705000000823072BD5702A07D0DDF820C08CF05C
:10706000100C5CEA0B0C05D00EE040238DF82430A8
:10707000012308E050EA010306D030238DF82430C4
:107080008DF8252002239846DDF820C08CF0080CEE
:107090005CEA0B0C0BD150EA010301D1630706D562
:1070A00030238DF824304FF00108A9F10109582A46
:1070B00004D038A20B9208AA0A920BE03AA2F9E790
:1070C0005B46089AFFF79CF90B9B9B5C0A9A521E41
:1070D0000A92137050EA0102F2D10A98ADEB000057
:1070E00000F1200B600702D524F4803401E04FF05A
:1070F0000109D94502DDA9EB0B0000E0002000EBFF
:107100000B0141440890AAEB010AE00306D4DDE933
:107110000F232146504600F063F806444FF0000963
:1071200008E009A911F80900DDE90F12904709F1FB
:107130000109761CC145F4DBE0030CD5DDE90F2322
:107140002146504600F04CF8064404E0DDE90F12F9
:1071500030209047761C0899481E08900029F5DCDD
:1071600008E00A980A990078491C0A91DDE90F1293
:107170009047761CBBF10001ABF1010BF1DC21461D
:107180005046DDE90F2300F019F806446D1C1BE69C
:1071900009280100303132333435363738396162ED
:1071A00063646566000000003031323334353637B1
:1071B0003839414243444546000000002DE9F04182
:1071C000044600251E461746880404D405E03946C7
:1071D0002020B0476D1C641EF9D52846BDE8F0811B
:1071E0002DE9F041044600251E469046C80301D50E
:1071F000302700E02027880404D505E041463846C2
:10720000B0476D1C641EF9D52846BDE8F0810A68B8
:10721000531C0B601070704770B505460C4605B1E5
:107220000CB9002070BD287840082178B0EB510FD0
:1072300001D00020F6E70622611C681CFFF75DF90B
:1072400008B90120EEE70020ECE7014601F0030059
:1072500008B9012070470020FCE70246506800682A
:10726000401E084008B9012070470020FCE7024694
:10727000002104E0505C08B101207047491C062938
:10728000F8D30020F9E710B50346D868884206D83D
:107290008818401E1C69A04201D8012010BD0020A2
:1072A000FCE7000010B504466CB10848C068A04275
:1072B00009D806480069A04205D3204605F0DFFF43
:1072C00008B1012010BD0020FCE70000A033002021
:1072D00008B5002000904FF4AC7206490648FFF74D
:1072E000D3F8054803F0BEF903200090684603F088
:1072F0004BFC08BDF83D00200C3A002070B5044658
:107300000D4604F22740FFF7B2FF0646012D06D0D6
:10731000022D0DD0032D11D0042D19D113E0A07929
:1073200028B194F8240010B90EB1012070BD00BF3F
:10733000E07910B10EB10220F8E700BF207A08B161
:107340000320F3E700BF607A08B10420EEE700BF36
:107350000020EBE70146481C052290FBF2F302FBFC
:107360001300C0B27047014691F82420012A01D1D0
:10737000EE2000E01F20704710B5012202210020FE
:1073800001F0F6FF044600BF1CB1072C01D02046D7
:1073900010BD00BF07220221012001F0E9FF0446D1
:1073A00000BF1CB1072C01D02046F1E700BF0A2224
:1073B0000021084601F0DCFF044600BF1CB1072C89
:1073C00001D02046E4E700BF10220121022001F095
:1073D000CFFF044600BF1CB1072C01D02046D7E7E1
:1073E00000BF0020D4E7000030B5B3B0AC2108A83E
:1073F000FFF771F804A86DDF044600BF25463DB1D4
:1074000000BF29A240F2EF512846FEF703FF00BF5C
:1074100000BF002007E0C0F105020DF11101895CF9
:1074200006AA1154401C0628F5DB3320ADF80400F1
:1074300006A903910620ADF8080002208DF820006F
:1074400001A8119000208DF8220006208DF823005D
:1074500001218DF89C104FF4F0712A9144F2506193
:107460002B9101218DF89D104FF4F0712C9144F275
:1074700050612D911048319008A9104800F0ABFDE3
:10748000044600BF25463DB100BF07A240F20D6192
:107490002846FEF7BFFE00BF00BF0121074800F0ED
:1074A00097FD33B030BD00002E2E5C2E2E5C2E2EAC
:1074B0005C6D61696E2E6300E91D0300D833002006
:1074C00070B50446012C02D102F05EFF1BE00321DF
:1074D0000D4800F047FE054600BF2E463EB100BFF6
:1074E0000AA24FF4CA613046FEF794FE00BF00BF07
:1074F0000A490B4A891AC908042242EA014009A133
:1075000008F008FF00BF70BDD83300202E2E5C2E7F
:107510002E5C2E2E5C6D61696E2E630028C8030000
:1075200070C703004164766572746973696E672081
:10753000737461727465642E0000000070B58CB0C5
:1075400004460D461646002005E0C0F10F01615CBF
:107550000DF80010401C1028F7D30D2104A8FEF7E9
:10756000BAFF002005E02A5CC0F10F0304A9CA5449
:10757000401C0328F7D3684646DF002005E0C0F131
:107580000F0208A9895C3154401C0328F7D30CB0C2
:1075900070BD10B50446002001F058FD10BD00007C
:1075A00010B5044602480178204600F061FF10BD86
:1075B0004332002010B5002407E00749096811F89C
:1075C0003400012109F0AEFE641C044800788442B6
:1075D000F3D3002010BD0000883200208C32002040
:1075E0002DE9F84306460D4617460A2F02D207201A
:1075F000BDE8F88309F0DAFF38B909F06DFF0446F9
:1076000000BF204600B1F3E700BF184806601848E5
:1076100005701848076018480021016041608160CA
:10762000C160164A1160516015E006EBC5081448A8
:107630000068009098F802008DF8010098F80000AA
:10764000104A694609F0C4FE044600BF204600B156
:10765000CEE700BF00BF281EA5F10101CDB2E4D1E5
:10766000094A0021094800F043F9C1E788320020A7
:107670008C32002090320020F04A00209832002006
:1076800084AE030015C4020059A5020080AE0300B9
:107690002DE9FE4307460E46144672B600BF08F0B9
:1076A0002DFF00BF00BF08F0A7FC0028FBD100BFE2
:1076B00000BF012F0CD06FF48050384498B1B0F562
:1076C000405F2CD06FF440510844002847D115E0AA
:1076D0003149324A891AC908012242EA014030A1DF
:1076E00008F018FE47E02C492C4A891AC9080122E3
:1076F00042EA014032A108F00DFE3CE02546264951
:10770000DFF898C0A1EB0C01C9084FF0010C4CEA5E
:10771000014034A1D5E9003208F012FE2BE02546E5
:10772000A86809F0D3FC8046D5E900108DE8430035
:1077300019491A4BC91AC908012343EA01404346B3
:107740002FA1AA6808F020FE1349144A891AC90813
:10775000012242EA014034A108F0DCFD0BE00E49B1
:107760000E4A891AC908012242EA0140324633A171
:1077700008F0DAFD00BF00BF00BF3648006800F027
:10778000010000B100BE00BF22463146384600F07D
:1077900063F8BDE8FE83000028C8030070C703003B
:1077A000534F46544445564943453A204153534567
:1077B0005254494F4E204641494C45440000000078
:1077C000534F46544445564943453A20494E564145
:1077D0004C4944204D454D4F525920414343455358
:1077E00053000000415353455254494F4E204641E7
:1077F000494C45442061742025733A2575000000EA
:107800004552524F52202575205B25735D206174CF
:107810002025733A25750D0A50432061743A2030B3
:107820007825303878000000456E64206F6620654A
:1078300072726F72207265706F727400554E4B4E8B
:107840004F574E204641554C5420617420307825C6
:1078500030385800F0ED00E018B5012300939DF892
:1078600000301E4B186059609A606FF480430344E7
:1078700063B1012B19D1194BDA60DB681B68174C17
:10788000A3612346DB685B68E3610EE0134B1A617A
:107890001B699B68114C636123461B691B68A361CC
:1078A00023461B695B68E36100BF00BF0B4B1B688D
:1078B0000A4B5B68094B9B68084BDB68074B1B69ED
:1078C000064B5B69054B9B69044BDB6972B600BFD5
:1078D0009DF80030002BFBD162B618BD004B002094
:1078E00010B5024802F07CFF10BD0000A03200205D
:1078F00010B503460C460AB9072010BD19684A6145
:10790000012C01D1012000E0002008610020F4E7F3
:1079100038B51348006800900823582211491248CE
:10792000006806F0F6FF04460CB1204638BD0F4A49
:1079300069460F4802F05AFF04460CB12046F5E7AD
:1079400001210B4802F0F8FF01230A4A19460848B2
:1079500002F018FF0120084908702046E6E7000001
:1079600098AE0300204B002088AE03004572030050
:10797000A0320020FFFF7F00AC3200202DE9F04153
:1079800006460D4617463446207F10B10020BDE85C
:10799000F081A76104F0BCFC401941F10001C4E989
:1079A0000201206900B125612146002011F08CFF01
:1079B000EDE770B5044625460020287729460120CA
:1079C00011F082FF70BD10B5044620460FF0C6FDD1
:1079D00010BD000070B5044625460E488068B0B161
:1079E000ADB9FFF7DDF906460A4800680A490860A4
:1079F000084840684FF0E021C1F804010020054923
:107A000088601EB900BF62B600BF00BF00BF00BFE4
:107A100070BD0000884B002000E100E0F8B505468D
:107A20000C4617462088001DB84201D90C20F8BD2D
:107A3000684679DF064600BF304600B1F7E700BF71
:107A40000320218868542088401C20801920218828
:107A500068542088401C208020884119BDF800000F
:107A600012F032FA2188084420800020DFE700006D
:107A700070B500224FF4804108480068FFF77EFF90
:107A8000044600BF25463DB100BF05A240F2A1411A
:107A90002846FEF7BFFB00BF00BF70BDECA9030086
:107AA0002E2E5C2E2E5C2E2E5C6D61696E2E630078
:107AB00070B505460C462068401C28B1206808F0C7
:107AC0000EF9206808F074F86068401C18B10021B5
:107AD000606808F053F82868A169C0F8241500BF51
:107AE000617D227D286841EA0203C0F86C3500BF41
:107AF000D4E90012286809F022FB207D012814D166
:107B0000A068401C18B10021A06808F037F8E068B0
:107B1000401C28B1E06808F0E2F8E06808F048F896
:107B2000D4E90221286809F0F3FA70BD70B5054662
:107B30000C462068401C28B1206808F0DBF820685B
:107B400008F042F86068401C18B10021606808F035
:107B500022F82868A169C0F8241500BF617D227D44
:107B6000286841EA0203C0F86C3500BFD4E900126E
:107B7000286809F01CFB207D012814D1A068401C56
:107B800018B10021A06808F006F8E068401C28B190
:107B9000E06808F0AFF8E06808F016F8D4E90221D0
:107BA000286809F0E5FA70BD70B504460D46204618
:107BB00005F040FF70BD10B50446637903F0030281
:107BC0002179208805F0EEFE10BD10B5044620791D
:107BD00018B9204600F008F803E02046FFF7EBFF55
:107BE00000BF00BF10BD00002DE9FE4307463E88E0
:107BF0004FF00008002259480178304600F04EFC52
:107C00007879C0F3800028B9002138460BF08AF853
:107C1000BDE8FE8306F5807188B201AB0122072121
:107C20000BF0A0F90546C5B1284609F04FFA814688
:107C30004B494C4A891AC908012242EA014033469D
:107C40004A46494908F07CFB294630460FF0AAFF16
:107C5000002138460BF066F8DAE7304604F094FF6E
:107C600004464FF6FF718C421BD1029804F0DCFEF3
:107C700004464FF6FF70844213D02146304604F08C
:107C800061FF3046FFF78CFC58B930460FF01EFFFD
:107C90003046FFF785FC20B9002138460BF042F84A
:107CA000B6E74FF6FF7084421FD10BF071FB04461C
:107CB0004FF6FF70844212D129492A4A891AC9080D
:107CC000012242EA014029A108F024FB04213046A8
:107CD0000FF068FF002138460BF024F898E72146A2
:107CE000304604F02FFF4FF0010806F5807188B28E
:107CF000224607210BF0BEF9054625B90121384679
:107D00000BF010F828E0862D07D130460FF010FF59
:107D1000012138460BF006F81EE0284609F0D6F996
:107D200081460F490F4A891AC908012242EA0140D7
:107D300033464A461A49009408F012FB2946304659
:107D40000FF030FF002138460AF0ECFFB8F1000FC9
:107D500002D0204604F000FF00BF59E74032002067
:107D6000B0C7030070C70300D4BA0300436F756C3B
:107D700064206E6F7420616C6C6F63617465206E3B
:107D8000657720706565725F696420666F7220692F
:107D90006E636F6D696E6720626F6E642E00000007
:107DA000F0BB0300002114E00C48D0F8102401239C
:107DB00008E000BFD0680079884201D1002303E0C9
:107DC000D0680268002AF4D100BF0BB108467047A2
:107DD000491C0A29E8DB4FF0FF30F8E7A4500020E7
:107DE0002DE9FC41054688461646002437880020C8
:107DF000308095F82D0058B13A463146404600F0A3
:107E000071FB044600BF204608B1BDE8FC8100BFFD
:107E1000A87850B13A4631464046FFF7FFFD044688
:107E200000BF204600B1F0E700BFE87860B1E97814
:107E300048B23B463246414603F077FD044600BF58
:107E4000204600B1E1E700BF686868B1696891F950
:107E500000003B463246414611F060FE044600BF3A
:107E6000204600B1D1E700BF288900280EDD434637
:107E70000622022105F10800CDE9006712F02BF976
:107E8000044600BF204600B1BFE700BF288A002893
:107E90000EDD43460722032105F11000CDE90067FE
:107EA00012F019F9044600BF204600B1ADE700BF4B
:107EB000288B00280EDD43461522142105F11800F9
:107EC000CDE9006712F007F9044600BF204600B173
:107ED0009BE700BF286A58B13B4632464146286AB4
:107EE00002F032F8044600BF204600B18DE700BF23
:107EF000686A58B13B4632464146686A05F0C6FF9B
:107F0000044600BF204600B17FE700BF95F82C0073
:107F100000280BDD3B4632464146284610F03AF831
:107F2000044600BF204600B16FE700BF287858B173
:107F30003B4632464146284606F097F8044600BFC5
:107F4000204600B161E700BF20465EE7F8B5044671
:107F50000E461546002000902B466A4631462046C4
:107F600000F008F807460FB90020F8BDBDF8000082
:107F70002044FAE7F0B504460D461E4604B10AB99E
:107F80000020F0BD002103E0605C401C084481B289
:107F9000481CA84206DA10888842F5DC481C205CA0
:107FA000B042F1D1A94201DB0020EAE7881C87B288
:107FB000605C10B1605C401E00E0002083B213B131
:107FC000F818A84201DD0020DBE717801846D8E743
:107FD00080F83010704770B504460D4605B10CB9F5
:107FE0000E2070BD05F1780001F04FFF08B90720A1
:107FF000F7E70020A0702C2205F17801201DFEF784
:1080000043FA002084F83000D5F8A4006063D5F866
:10801000A800A0634FF6FF70A4F8240404F5826062
:10802000C4F82004002140F22C40C4F82614A4F81F
:108030002A140155207810B9FF2084F8540004F167
:108040005500C4F810042046FFF78DF940F21441A2
:10805000085304F2144204F155012846FFF7C0FE0C
:10806000064600BF304600B1BBE700BF04F2312036
:108070004FF4836108512046FFF775F9A4F81C04FA
:108080004FF48360015904F21C4205F13C00FFF7F4
:10809000A7FE064600BF304600B1A2E700BF01219F
:1080A00051200155208B81B248200153012084F8D2
:1080B0003C0000212164502001556169616404F194
:1080C0003C02002104F1540072DF064600BF304636
:1080D00000B186E700BF01202070304681E770B50F
:1080E00004460D462E462088102804D0112807D0BB
:1080F00026280FD109E02146304609F04FFF0AE05B
:10810000214630460AF044F905E0214630460AF09F
:108110003EFB00E000BF00BF70BD70B5044694F8A0
:10812000540074DF012084F82E04002084F8300409
:108130000021502001550621204603F011FC054680
:1081400000BF284600B170BD00BFA178204600F0F6
:1081500009F8054625B1A06B10B12846A16B8847E8
:108160000020F0E770B504460E46207808B90820D4
:1081700070BDA670002140F22C40C4F82614A4F86B
:108180002A140155A07910B1A078012809D0E0790E
:1081900010B1A078012804D0E07970B1A07802284D
:1081A0000BD1606B30B1012084F82D040820616B85
:1081B000884702E0002084F82D0431462046FFF76E
:1081C0009DF8A070606BA0B1A078032802D0A078C1
:1081D00004280ED1607960B194F82E0448B90020CB
:1081E00084F83004012084F82F040720616B88474D
:1081F00002E0002084F82F04182104F13C00FEF76F
:108200006AF9012084F83C0004F12C000BF0AAFA72
:1082100020B194F82C105120015502E00121512089
:10822000015594F8240060B104F128000BF09AFA8B
:1082300020B194F828105220015502E0012152206B
:108240000155002150200155A078052824D2DFE8EF
:1082500000F01F030A11180004F13C0120460FF042
:1082600085FF054619E004F13C0120460FF066FF4A
:10827000054612E004F13C0120460FF089FF054657
:108280000BE004F13C0120460FF0B0FF054604E08E
:10829000002084F8310000E000BF00BFA07898B152
:1082A00004F13C0204F15400D4F8201472DF0546B6
:1082B0000DB128465CE794F8301094F8540073DF51
:1082C00005460DB1284653E7606B18B194F83100AC
:1082D000616B884700204BE72DE9F041044600BF61
:1082E00014B90E20BDE8F08100BF1C2221461C48B5
:1082F000FEF7CAF81B481A490860206860B1206878
:108300007ADF05460DB12846ECE7164821680A6871
:1083100002604968416005E012487BDF05460DB107
:108320002846DFE7002617E006EB86000E4901EB42
:10833000800700BF4FF6FF70388000BF0B4800EB8E
:10834000461078600A4A0021381DFFF7D1FA054629
:108350000DB10320C6E7761C002EE5D00020C1E752
:108360007C440020F4310020684400204844002070
:10837000E59F030010B50446204600F0A5F820B1A3
:108380002146034806F067FB10BD0020FCE7000013
:10839000A844002070B504460D461646204611F04C
:1083A0006BFE08B9002070BD034951F82400324625
:1083B000294603F049FBF6E7B444002010B5044613
:1083C000204600F081F820B12146034806F043FB27
:1083D00010BD0020FCE70000B044002010B50446AA
:1083E000204600F071F820B12146034806F033FB27
:1083F00010BD0020FCE70000AC44002070B504462E
:108400000025204600F060F850B12146054806F0EE
:1084100022FB06460EB1022000E00120054600BF07
:10842000284670BDA444002070B5044600252046AF
:1084300000F04AF850B12146054806F00CFB06460C
:108440000EB1022000E00120054600BF284670BDA5
:10845000A044002010B51821044806F0CCFA0446C8
:10846000182C00D110BDE0B2FCE7000098440020B9
:1084700070B505460C46204611F0FEFD50B1284669
:1084800000F022F830B1044901EB8400294606F0DF
:10849000E2FA70BD0020FCE7B444002070B5054648
:1084A0000C461646204611F0E7FD50B1284600F074
:1084B0000BF830B1034901EB84003246294603F042
:1084C00025FA70BDB444002010B50446142C01DB1D
:1084D000002010BD2146024806F0BDFAF9E7000071
:1084E0009C4400202DE9FC4105460C461746208897
:1084F0000930B84202D90C20BDE8FC8168466DDF26
:10850000064600BF304600B1F6E700BF08202188CC
:1085100068542088401C20801B20218868542088B3
:10852000401C208020882844DDF801100160BDF83F
:10853000051081802088801D20809DF80000400863
:1085400018B900202188685402E00120218868546D
:108550002088401C20800020CEE7000070B506F087
:10856000D1FC044600BF204600B170BD00BF00BF73
:10857000084D28464FF0030C00DF00BF044600BF43
:10858000204600B1F1E700BF06F036FD0446204664
:10859000EBE70000A8490020014600BF09B90E2002
:1085A000704700BF014801600020F9E75C320020FD
:1085B00010B51349134A891AC908042242EA014036
:1085C00011A107F0A7FE4FF0FF3100203DDF044668
:1085D00000BF204600B110BD00BFB12100203CDF2C
:1085E000044600BF204600B1F5E700BF13484169CB
:1085F00001208847022008F007F90020EBE700007F
:1086000028C8030070C70300496E20626C655F6470
:1086100066755F627574746F6E6C6573735F626F9D
:108620006F746C6F616465725F73746172745F669E
:10863000696E616C697A650D0A0000008C49002042
:1086400010B505480068416900208847FFF7B0FF72
:108650000446204610BD00005C32002010B588B0F2
:10866000044620216846FDF736FF0320ADF80000E0
:1086700020788DF802009DF80D0020F020002030B9
:108680008DF80D009DF80D0020F0080008308DF8E1
:108690000D0001208DF810008DF80C001720ADF8AA
:1086A000040001208DF813008DF812008DF81100E0
:1086B0006088A21D694601F09FFA08B010BD000055
:1086C00030B585B00546244B0FCB8DE80F0000BFB9
:1086D00015B90E2005B030BD00BF4FF6FF701F4921
:1086E000888028684861002008760846406908B9F3
:1086F0001B4848611948FFF74FFF044600BF20465A
:1087000000B1E7E700BF00BF01208DF812004FF66F
:108710005960ADF8100000BF104A921C04A9012056
:10872000A8DF044600BF204600B1D3E700BF0B49D5
:10873000684662DF044600BF204600B1CAE700BFBA
:108740000648FFF78BFF044600BF204600B1C1E793
:1087500000BF0020BEE7000090AD03008C49002060
:1087600075AA020070B504460D4600BF04B970BD7D
:1087700000BF2088102806D0112808D051280AD020
:10878000532810D10BE0204609F002FC0CE02046F3
:1087900009F0F0FD08E0204609F0A2FF04E02046C1
:1087A00009F038FF00E000BF00BF00BFDFE70000B6
:1087B00070B504460426207B012802D0022822D16D
:1087C00009E002F089F905460DB9012602E0112DF4
:1087D00000D1062619E0607B142801DC607B08B913
:1087E00005260FE0627B04F10E011248FDF74CFEF6
:1087F000607B1049091F886108460FF025FD05467A
:1088000005B9012601E0022600BF00BF012E0FD0EE
:10881000207B314600F058F8054625B1064800682F
:10882000416903208847044800684169022088475D
:1088300070BD0000B84900205C32002070B50546CC
:108840000E4600BF1E48006820B11D48406808B1B0
:10885000012000E0002000B970BD00BF184800F101
:108860000801426828469047044600BF082C24D0DF
:108870007CB900201349096848760121022000F0E4
:1088800023F80446CCB10F480068416903208847AB
:1088900013E000200B49096848760621022000F009
:1088A00013F8044624B1074800684169032088474B
:1088B0000448006841690220884700BFCCE70000F7
:1088C000A84900205C320020F0B587B004460D4670
:1088D000032700200190029003900490032006904B
:1088E00020208DF814008DF815408DF816500E4894
:1088F000C088ADF8040002208DF806000020ADF815
:10890000080006A8039005A804900749888801A9D3
:10891000AEDF064626B9BDF81800032800D00C26A5
:10892000304607B0F0BD00008C49002010B5044669
:1089300034B1012C0FD0022C18D0032C2FD120E001
:108940001D491E4A891AC908032242EA01401CA196
:1089500007F0E0FC2EE01849184A891AC9080322DA
:1089600042EA014022A107F0D5FC23E01249134A54
:10897000891AC908012242EA014026A107F0CAFC6F
:1089800018E00D490D4A891AC908012242EA01403E
:108990002FA107F0BFFC00BF002000BF0AE006497E
:1089A000064A891AC908012242EA014034A107F0A7
:1089B000B1FC00BF00BF10BD28C8030070C7030092
:1089C00044657669636520697320707265706172B1
:1089D000696E6720746F20656E74657220626F6FB8
:1089E000746C6F61646572206D6F64652E000000A9
:1089F0004465766963652077696C6C20656E746583
:108A00007220626F6F746C6F61646572206D6F6449
:108A1000652E00005265717565737420746F206552
:108A20006E74657220626F6F746C6F616465722022
:108A30006D6F6465206661696C6564206173796E31
:108A40006368726F6E656F75736C792E000000003D
:108A50005265717565737420746F2073656E642040
:108A60006120726573706F6E736520746F20636C24
:108A700069656E74206661696C65642E0000000093
:108A8000556E6B6E6F776E206576656E74206672BC
:108A90006F6D20626C655F6466755F627574746F7C
:108AA0006E6C6573732E000070B504460D462E463D
:108AB0002088502804D12146304609F0C5FE00E048
:108AC00000BF00BF70BDF0B585B004460D46174627
:108AD0000097A0884FF6FF71884215D000200190C2
:108AE000029003900490E088ADF8040001208DF816
:108AF00006000020ADF80800CDF80CD00495A08841
:108B000001A9AEDF05B0F0BD43F202063046F9E739
:108B100070B504460D462E462088502804D12146C3
:108B2000304609F0BBFE00E000BF00BF70BDF0B5ED
:108B300085B004460D4617460097A0884FF6FF7192
:108B4000884215D000200190029003900490E088A4
:108B5000ADF8040001208DF806000020ADF80800F3
:108B6000CDF80CD00495A08801A9AEDF05B0F0BD0A
:108B700043F202063046F9E7F8B505460F460024F1
:108B8000288821283BD004DC102815D011286ED16C
:108B900004E03B2850D05628F9D169E04349444AC3
:108BA000891AC908032242EA014042A107F0B2FB38
:108BB00000204449087077E03C493D4A891AC908B9
:108BC000032242EA014040A107F0A4FB01203D49F5
:108BD0000870A8883F490880084601883E4806F08A
:108BE000EFF8044600BF26463EB100BF3BA240F26C
:108BF000F4413046FDF70EFB00BF00BF54E02B49A7
:108C00002B4A891AC908042242EA014037A107F019
:108C100081FB00200090A88869468FDF044600BFD2
:108C200026463EB100BF2DA24FF4A0613046FDF7AD
:108C3000F1FA00BF00BF37E01C491D4A891AC90874
:108C4000042242EA01402EA107F064FBA888132108
:108C500076DF044600BF26463EB100BF1FA240F2A9
:108C600009513046FDF7D6FA00BF00BF1CE01AE0FC
:108C70000E490F4A891AC908042242EA014026A176
:108C800007F048FBA888132176DF044600BF26467C
:108C90003EB100BF11A240F211513046FDF7BAFAC1
:108CA00000BF00BF00E000BF00BFF8BD28C8030040
:108CB00070C70300446973636F6E6E6563746564A7
:108CC0002E00000089310020436F6E6E656374656D
:108CD000642E000080310020CC3300202E2E5C2E2C
:108CE0002E5C2E2E5C6D61696E2E630050485920FB
:108CF00075706461746520726571756573742E009A
:108D00004741545420436C69656E742054696D6505
:108D10006F75742E00000000474154542053657253
:108D20007665722054696D656F75742E00000000C1
:108D300070B505460E462888102802D011282CD17F
:108D400015E01748006860B901F0F6F9044600BF65
:108D500034B11448006818B12046124909688847A0
:108D600000BF0F480068401C0D49086016E00C4821
:108D70000068401E0A4908600846006860B9FEF7AE
:108D8000FBFA044600BF34B10648006818B120461B
:108D900004490968884700BF00E000BF00BF70BDFC
:108DA000F0310020EC31002070B504460D462088DB
:108DB000102806D0112808D012280ED0502810D123
:108DC00007E0204609F0ACF80CE0204609F0B8FABC
:108DD00008E0204609F00CFD04E0204609F088F880
:108DE00000E000BF00BF70BD2DE9F04104460F4612
:108DF000A6882088102806D0112819D019283FD01D
:108E00001A284AD118E00BF053FE30460BF0C4FC90
:108E100030B900BF22A2F0210420FDF7FBF906E0E3
:108E2000E07B022803D131462C4805F023FE34E0D4
:108E300030460BF061FE30E0207A0509042D01DB9D
:108E4000012000E000200246314624480C3002F0A8
:108E50005DFD032D01DB012000E0002002463146CC
:108E60001E48083002F052FD022D01DB012000E017
:108E70000020024631461948001D02F047FD0CE073
:108E8000207A48B9607AC0F3C0052A4631461348B3
:108E90000C3002F03BFD00BF00BF00BFBDE8F08119
:108EA0002E2E5C2E2E5C2E2E5C2E2E5C2E2E5C2EFC
:108EB0002E5C636F6D706F6E656E74735C626C6553
:108EC0005C636F6D6D6F6E5C626C655F636F6E6E21
:108ED0005F73746174652E6300000000A444002079
:108EE00070B504460D4600BF0748007800B970BD54
:108EF00000BF204603F002FD20460FF0D3FA2046C3
:108F000002F0E6FF00BFF2E73032002070B5044601
:108F1000204610F0D3FF0546C5F3400070BD70B584
:108F20000446204610F0CAFF054605F0010070BD5A
:108F300038B507F015FF044600BF25463DB100BF18
:108F400015A240F27C512846FDF764F900BF00BF2E
:108F5000002000906946012007F0FAFC044600BF9B
:108F600025463DB100BF0CA240F282512846FDF7D4
:108F700051F900BF00BF684607F0BCFD044600BFC2
:108F800025463DB100BF04A240F286512846FDF7B8
:108F900041F900BF00BF38BD2E2E5C2E2E5C2E2E58
:108FA0005C6D61696E2E630070B504460D462E46F9
:108FB0002088502804D12146304609F099FC00E071
:108FC00000BF00BF70BD000001460148405C704713
:108FD000B9AB030010B50146094B585C00BF4FF018
:108FE000A044234600BFD3F81045C44004F0010458
:108FF0000CB1012000E00020024682F0010010BD0B
:10900000B9AB03007CB500240DE00848055D0326DC
:10901000002000903346024601460190284606F0A3
:1090200031FD00BF641C032CEFD37CBDB9AB030042
:1090300010B5044604F0010008B100F04BF804F04C
:10904000020008B1FFF7DEFF10BD000010B50246B8
:109050000949885C00BF4FF0A0442146D1F804358F
:10906000012484409C43C1F80845012484401C40ED
:10907000C1F80C4500BF10BDB6AB030010B50446E7
:109080000249085D012106F04BFE10BDB6AB03009E
:1090900010B504460249085D002106F041FE10BDEE
:1090A000B6AB030010B50146094B585C00BF4FF04A
:1090B000A044234600BFD3F80445C44004F0010493
:1090C0000CB1012000E00020024682F0010010BD3A
:1090D000B6AB03007CB500240CE00948055D002018
:1090E00000900346012211460190284606F0CAFC72
:1090F00000BF641C032CF0D300F004F87CBD00001A
:10910000B6AB030010B5002403E02046FFF7B6FF1E
:10911000641C032CF9D310BD10B5002403E02046D5
:10912000FFF7B6FF641C032CF9D310BD02464FF0C5
:10913000FF30002106E0054B5B5C934201D10846FD
:1091400002E0491C0329F6D300BF7047B9AB030006
:1091500070B505460C4600260648056014B1204649
:1091600010F064F90448006810B9FEF705F90646E6
:10917000304670BDEC310020F031002010B50020E9
:1091800000F0A2FB044600BF1CB1062C01D0204613
:1091900010BD00BF012000F097FB044600BF1CB1CA
:1091A000062C01D02046F3E700BF0020F0E70000C6
:1091B0002DE9F04106460F464FF0000800243046E6
:1091C000FFF7B4FF0446032C3ED20FB3012F02D0A9
:1091D000022F38D130E004EB4400214911F800801F
:1091E00004EB44000844407850B11E4A4FF48041DB
:1091F0001D480068FEF7C2FB05460DB91948067008
:1092000004EB4400164908448078184908551AE0D0
:1092100015480068FEF7CDFB1448005D04EB4401DF
:109220000F4A11448978884205D104EB4400114665
:10923000084490F8028006E004EB44000849084422
:1092400090F8018000BF00BFB8F1000F06D00848B9
:10925000006818B14046064909688847BDE8F081B2
:1092600018440020E8310020C4AB0300E93100209D
:10927000E431002010B50446032C03D22046FFF74A
:10928000A9FE10BD0020FCE770B50546042D09D0ED
:10929000072D1BD00A2D02D0102D4DD12FE00FF03D
:1092A000C9F84AE013212648008876DF0446082CD6
:1092B0000BD000BF26463EB100BF22A240F2CC51E7
:1092C0003046FCF7A7FF00BF00BF36E01C4800880F
:1092D0004FF6FF71884211D11E48FEF71EFF04466B
:1092E000082C0BD000BF26463EB100BF15A240F2AD
:1092F000D6513046FCF78EFF00BF00BF1DE01220A4
:1093000000BF4FF0A0431946D1F804250123834044
:109310009343C1F80835012383401340C1F80C354D
:1093200000BF0D490D4A891AC908032242EA0140CB
:109330000BA106F0EFFF00E000BF00BF70BD000012
:10934000803100202E2E5C2E2E5C2E2E5C6D6169ED
:109350006E2E6300D833002028C8030070C70300B6
:109360006273705F6576656E745F6B65795F3200FE
:1093700030B503460020032B23D2012A07D101294F
:1093800003D103F10E04E4B200E00024224679B1D7
:10939000012902D0022911D104E003EB43040A4D54
:1093A0002A550DE003EB4304074D2C44627007E09F
:1093B00003EB4304044D2C44A27001E0072000BFDE
:1093C00000E0072030BD00001844002070B50446BE
:1093D00000250548007800F0010018B1204600F093
:1093E0005BF80546284670BDDC3100202DE9F041D0
:1093F00005460F4600241F4805601F48076005F01A
:10940000020000B3002606E0012211463046FFF7B5
:10941000AFFF0446761C032E01D2002CF4D034B9E1
:1094200040F2333203211548FEF7DAF8044614B946
:10943000FEF7C0F804462CB9114A00211148FEF786
:1094400057FA044600BF05F0010080B10120FFF784
:10945000EFFD2CB90C4A00210C48FEF749FA0446EE
:109460002CB90B4A01210B48FEF742FA044620466C
:10947000BDE8F081DC310020E4310020C8AB0300FE
:10948000319A0200C4AB03001DD80200BCAB03003C
:1094900093750200C0AB03002DE9F0470446002697
:1094A0000025F848007820B10020F649087004F043
:1094B000A1F9182C7ED2DFE804F00C16175085B9FC
:1094C000FDFBFAF9F8F7F6F5F4F3F2F1F0EFEEED53
:1094D000ECEB04F08FF9EC480068FEF76AFA0646F8
:1094E000EA480470E9E100BF0120FFF7DBFD70B13D
:1094F0000120FFF7C3FD0020FFF7C0FD022C02D1C1
:109500004FF4E16001E04FF47A6005460CE0012081
:10951000FFF7BEFD0020FFF7BBFD022C01D1C820E4
:1095200001E04FF4C8700546D84804704FF400407D
:10953000A5FB00204FF47A73D71840F100015A00C0
:1095400000233846FCF75CFF814600224946CE489E
:109550000068FEF713FA0646AFE10120FFF7A2FD0F
:1095600058B10120FFF78AFD032C02D14FF4487057
:1095700001E04FF47A60054609E00120FFF788FD1D
:10958000032C01D1C82001E04FF4C8700546BF4844
:1095900004704FF40040A5FB00104FF47A73CF180D
:1095A00040F100015A0000233846FCF729FF8146AC
:1095B000002200E080E14946B3480068FEF7DEF98A
:1095C00006467AE10120FFF76DFD58B10120FFF753
:1095D00055FD042C02D14FF47A6001E04FF47A601B
:1095E00005460AE00120FFF753FD042C02D14FF499
:1095F000C87001E04FF4C8700546A44804704FF4E9
:109600000040A5FB00104FF47A728F1840F1000162
:10961000520000233846FCF7F3FE814600224946FB
:1096200099480068FEF7AAF9064646E10120FFF7CF
:1096300039FD50B10120FFF721FD052C01D1C820D3
:1096400001E04FF47A60054609E00120FFF720FDB4
:10965000052C01D1C82001E04FF4C87005468B48A5
:1096600004704FF40040A5FB00304FF47A729F184D
:1096700040F10001520000233846FCF7C1FE81464C
:109680000022494680480068FEF778F9064614E152
:109690000DE106E100E1CBE09CE096E063E061E0F3
:1096A0005FE05DE05BE055E045E035E025E015E09A
:1096B0000EE0FFE70120FFF7C9FC744804700022A8
:1096C00040F2666170480068FEF758F90646F4E01B
:1096D0000120FFF7DDFC6D480470EEE001206949D0
:1096E00008700220FFF7B2FC002240F26661664873
:1096F0000068FEF743F90646DFE001206149087083
:109700000220FFF7A3FC00224FF400515E480068DE
:10971000FEF734F90646D0E001205A4908700220CD
:10972000FFF794FC002240F2666157480068FEF79C
:1097300025F90646C1E00120524908700220FFF7D2
:1097400085FC00224FF400514F480068FEF716F9DF
:109750000646B2E0FFF7E0FC4C480470ADE000BF05
:1097600000BF00BF00BF4A480068FEF722F9064666
:10977000C4F1110515B30EBB012D18D9A8B2C8212B
:1097800048434FF4004180FB01104FF47A73CF1827
:1097900040F100015A0000233846FCF731FE8146B3
:1097A000002249463A480068FEF7E8F806460020DD
:1097B000FFF76EFC01203749087005E00020FFF735
:1097C0005DFC00203349087077E004F013F82F485F
:1097D000047072E00020FFF765FC40B10120FFF744
:1097E0004DFC0020FFF74AFC40F6863506E00120DC
:1097F000FFF74EFC0020FFF74BFC32252348047096
:109800004FF40040A5FB00304FF47A715F1840F12F
:1098100000014FF4FA6200233846FCF7F1FD81465F
:109820000022494618480068FEF7A8F8064644E0BA
:109830000020FFF737FC70B10020FFF71FFC01206C
:10984000FFF726FC002240F233310F480068FEF794
:1098500095F8064612E00120FFF724FC18B101201C
:10986000FFF70CFC0AE00020FFF712FC002243F295
:10987000333105480068FEF781F806460348047056
:109880001BE00000D9310020BCAB0300D831002020
:10989000C0AB0300E031002003F0ACFF09480470C6
:1098A0000BE00120FFF7F4FB0648047005E0FFF72A
:1098B00033FC0448047000E000BF00BF3046BDE840
:1098C000F0870000D831002010B504460121204661
:1098D00010F093FC10BD00002DE9FC4704460D4636
:1098E0001646A71C4FF001080020019001A8FEF7C2
:1098F0006AF83048406828602E4840682D498968D9
:10990000411A2D480068401CA0EB010915E0012117
:109910002A4805F0D3F804F0A9F9824651462748B1
:1099200005F0CCF82348406822498968411A22484A
:109930000068401CA0EB010900BF4F45E7D8B8F113
:10994000000F30D00021009176B1009921F0030181
:10995000491C0091009921F00401091D0091009912
:1099600064F3891100910DE0009921F00301891C35
:109970000091009921F00401091D0091009964F300
:109980009F5100910B4949680B4A12681140094ADE
:109990000C3202EB810000990160064949683944A4
:1099A0000C3A516000BF9DF80400FEF713F84046E2
:1099B000BDE8FC87A45000204C330020C054002098
:1099C00070B504460D460A2D03D10D212046FFF740
:1099D000F7FFA168481CA06020684554D4E9011035
:1099E000884202D3204605F088FC70BD0448806898
:1099F00003494968884201D1012070470020FCE7F3
:109A0000A45000200246002108E0074B1B6803EB2E
:109A1000C1000378934200D17047491C0348007885
:109A20008142F2DB0020F7E7883200208C320020F0
:109A300010B5044620780221FFF7BAFB10BD0000E4
:109A4000F8B5054615490120FFF7D0FC044600BFD4
:109A500026463EB100BF12A240F21C613046FCF720
:109A6000D9FB00BF00BF69460020FFF771FB044629
:109A700000BF26463EB100BF09A240F21F6130463A
:109A8000FCF7C8FB00BF00BF9DF80000022801D111
:109A9000012000E000202870F8BD0000899202003B
:109AA0002E2E5C2E2E5C2E2E5C6D61696E2E630058
:109AB0007CB50446204603F067F8054600236A4655
:109AC000092109F0ADFB052805D1012202480178E2
:109AD0002046FEF7E3FC7CBD0C3200207CB504463A
:109AE0000E460020019042F6A620ADF804000120A9
:109AF0008DF806000748006800906A4601A92046D4
:109B0000A0DF05462DB90122034801782046FEF763
:109B1000C5FC7CBD24AC03000D32002001468879D1
:109B2000012809D10879012806D1488842F6021295
:109B3000904201D1012070470020FCE74FF0FF3137
:109B4000054A42F82010082804DBFF23A0F1080191
:109B50005032535470470000FC490020014602482F
:109B600050F8210070470000FC4900202DE9F04F1B
:109B700003460C464FF0FF390AB1002000E00820F0
:109B800084460AB1082000E00C208046614624E0AB
:109B9000154850F82100401CF0B91D4608462746DC
:109BA00016464FFA80FBDFF840A00AF1300A0AF8A7
:109BB00005B0DFF834A04AF820704EB94FFA85FBA3
:109BC000A0F1080ADFF820E00EF1500E0EF80AB0FE
:109BD00000BF4FFA81F902E0491C4145D8D300BFCC
:109BE0004846BDE8F08F0000FC49002001460148CE
:109BF000405670472C4A002070B590B006460C467F
:109C00001546A07818B901208DF80E0002E0A07862
:109C10008DF80E002088ADF80C0000200290607CCA
:109C200002A90EF041FBA07C0DF109010EF03CFBF6
:109C3000E07B08B1012000E000209DF80A1060F3ED
:109C4000C3018DF80A10207C08B1012000E000203B
:109C50009DF80A1060F304118DF80A10207B08B1FA
:109C6000012000E000209DF80A1060F300018DF84B
:109C70000A10207D08B1022000E001209DF80A10A2
:109C800060F342018DF80A101C2109A8FCF723FC9F
:109C9000607BC0F3001018B9607BC0F34010F8B1CE
:109CA00000200090E07C0DF101010EF0FDFA00BFF4
:109CB0009DF8000020F00F00401C8DF800009DF87A
:109CC000000020F0F00010308DF8000000BF9DF87B
:109CD000020020F00600801C8DF80200CDF838D07C
:109CE000607B8DF82400A07B8DF82500142104A84A
:109CF000FCF7F1FB03A8049002A80590A088ADF83A
:109D00001C00A06820B1E088ADF81800A068089099
:109D1000A069002849D000200190A0690088ADF812
:109D20002C00A0694088ADF82E00A06940680A9018
:109D300001A80D90A169087B01A90EF0B5FAA169EF
:109D4000487B0DF105010EF0AFFAA069807A08B1E9
:109D5000012000E000209DF8061060F3C3018DF89B
:109D60000610A069C07A08B1012000E000209DF82B
:109D7000061060F304118DF80610A069007A08B18E
:109D8000012000E000209DF8061060F300018DF82E
:109D90000610A069807B08B1022000E001209DF838
:109DA000061060F342018DF80610E06908B1E06921
:109DB0000C902B4604AA09A93046AADF10B070BD4A
:109DC0002DE9F04104460D464FF6FF7630468442B9
:109DD0000AD14FF48071284604F00DFE86B2B6F524
:109DE000807F10D126460EE0FF2C0CDC2146284651
:109DF00004F0EAFD80F001070FB1204601E04FF6C4
:109E0000FF70064600BF3046BDE8F08170B50546DC
:109E10000DB9094C01E0084C083409E0204603F074
:109E2000ABFC064606B904E028467168884700BFC7
:109E3000F4E700BF70BD0000D849002010B504460B
:109E40002CB90120064948700020FFF7DFFF012CE4
:109E500004D1012002498870FFF7D8FF10BD00002F
:109E6000D04900202DE9F047024613468C46D3E93D
:109E70000245DCE90267B6EB040877EB050002D384
:109E80000120BDE8F0870020FBE701468878012823
:109E900005D191F82000012801D100207047886A7F
:109EA000042802D0486A042801D10020F6E70120E6
:109EB000F4E733B58BB00546002000900C9878B1DC
:109EC00000240BE021460CA804F0C5FD28B1009A3F
:109ED000501C009001A820F81240641C142CF1D3EF
:109EE0002C2269462846FCF7CFFA0DB030BD01465A
:109EF0000888062808DB0888B0F5486F06DD088862
:109F00004FF6FF72904201D007207047488806281C
:109F100008DB4888B0F5486F06DD48884FF6FF72C9
:109F2000904201D00720F0E708884FF6FF72904278
:109F300008D04888904205D008884A88904201DDC0
:109F40000720E2E70020E0E72DE9F04107460D4653
:109F5000144698462088801D404502D90C20BDE853
:109F6000F0813846FFF7C3FF064600BF304600B118
:109F7000F5E700BF0520218868542088401C208018
:109F80001220218868542088401C20802288511982
:109F900038880FF099FF21880844208022885119C1
:109FA00078880FF091FF2188084420800020D6E7B0
:109FB00010B5044600BF04A240F27D412046FCF7E4
:109FC00029F900BF10BD00002E2E5C2E2E5C2E2E17
:109FD0005C6D61696E2E630030B587B01C216846E8
:109FE000FCF779FA002000904FF4A03001904FF474
:109FF000F020029003208DF80C000020ADF80E0038
:10A000008DF810000A4805900A4806906846FEF749
:10A0100063F9044600BF25463DB100BF06A240F2E9
:10A0200093412846FCF7F6F800BF00BF07B030BDEB
:10A03000B11E0300B19F02002E2E5C2E2E5C2E2E30
:10A040005C6D61696E2E6300F8B505460C46607A5A
:10A0500088B9207A10B91048476801E00E4887682F
:10A060002A4639466068FDF789FC064616B1304637
:10A070000DF03EFD0EE0002020720748406948B117
:10A0800001208DF80000ADF8025003484169684690
:10A09000884700BFF8BD00007C440020F0B585B0C3
:10A0A00004460D4617461E4614220B496846FCF727
:10A0B000EBF9ADF802408DF80850ADF80A708DF854
:10A0C0000C600022054801782046FEF7E7F9684653
:10A0D00000F09AFF05B0F0BD18AD0300403200203B
:10A0E00010B586B00446208808F0D2FD00BB208859
:10A0F000FEF740F930B92088012241F2060100F054
:10A10000DFFC15E0208800220A490978FEF7C6F92D
:10A1100002208DF804002088ADF8060000208DF89C
:10A120000C0000218DF80D1001A800F06DFF00BF9C
:10A1300006B010BD4032002010B5012200210846B3
:10A14000FFF716F9044600BF1CB1072C01D02046CA
:10A1500010BD00BF072202210120FFF709F90446C4
:10A1600000BF1CB1072C01D02046F1E700BF04223C
:10A1700002210020FFF7FCF80446122201210420EE
:10A18000FFF7F6F8044600BF1CB1072C01D02046AB
:10A19000DEE700BF0020DBE730B503460C4612B90E
:10A1A0004FF6FF7100E011880846002110E005120B
:10A1B00045EA0025A8B25D5C6840C0F3031568401D
:10A1C00080EA0035A8B205062D0D80EA4500491C3D
:10A1D000A142ECD330BDF8B505460E461446002228
:10A1E00006212046FFF7D8FF0090701C81006A46C8
:10A1F00004F10800FFF7D0FF0090BDF80000A8426E
:10A2000001D10120F8BD0020FCE700002DE9FF414D
:10A2100005460C4629492A4A891AC908042242EAF5
:10A2200001402B46224627A106F08AF80020029022
:10A230000390ADF80840ADF80A40009001906A46DE
:10A2400002A9284690DF0646002E32D0304606F09E
:10A250003DFF074619491A4A891AC908012242EAEC
:10A2600001403B462A46234906F06AF8BDF8000043
:10A2700010B9BDF8020068B1BDF80230BDF8002089
:10A280000E490F4FC91BC908012747EA01401AA10F
:10A2900006F056F8BDF8040058B1BDF8042007498F
:10A2A000074BC91AC908012343EA0140224906F0B5
:10A2B0003BF8304604B0BDE8F081000088C70300D9
:10A2C00070C703005570646174696E6720646174BF
:10A2D00061206C656E67746820746F202575206F2F
:10A2E0006E20636F6E6E656374696F6E20307825C3
:10A2F000782E000008B603005468652072657175F9
:10A3000065737465642054582F5258207061636BD4
:10A310006574206C656E67746820697320746F6F54
:10A32000206C6F6E672062792025752F2575206F50
:10A3300063746574732E000054B603002DE9F04178
:10A3400005460F460F4C0121204604F0EEFB064661
:10A3500000BF00BF00BF00BFBFF35F8F00BF00BFE3
:10A3600000BF0EB9012000E0002040B1284603F0F4
:10A37000CFFB08B1BDE8F081024806F0D9F900BF73
:10A38000F8E700000432002070B50D490D4A891A23
:10A39000C908032242EA01400BA105F0BBFF09F006
:10A3A0007DFE044600BF25463DB100BF0AA240F233
:10A3B000B6512846FBF72EFF00BF00BF70BD00005E
:10A3C00028C8030070C70300457261736520626F7F
:10A3D0006E647321000000002E2E5C2E2E5C2E2E4B
:10A3E0005C6D61696E2E630070B506460D4616B150
:10A3F0004FF4064070BD287920B1012809D0022809
:10A4000015D111E00220287128460AF023FA0446EB
:10A4100010E0284601F026FA044648F2096084421A
:10A4200001D141F61D5405E041F61D5402E048F209
:10A430000E6400BF00BF2046DCE70000F0B587B027
:10A4400004460D4617461E4602948DF80C50002017
:10A450008DF80F008DF8100003208DF811000020FA
:10A460008DF80D008DF80E0014208DF818000848A6
:10A4700005908DF804700E208DF805000AF09AFF03
:10A480003246022101A80AF0CDFF07B0F0BD00005E
:10A49000A631002070B500243AE00CB1002000E0A5
:10A4A000022002460CB1002000E0022001460920F3
:10A4B0000BF0F2FD054601200BF0C0FD40200BF033
:10A4C000C3FD00200BF0CCFD13480BF0D7FD0AF0C4
:10A4D00011FD0546114B01220A211148FFF7AEFF7D
:10A4E000054695B90A210D48801C02F05FF9064621
:10A4F0000C490D4A891AC908032242EA0140324632
:10A500000AA105F011FF012070BD01240AF0E4FC4E
:10A51000002CC2D00020F7E710350600883B002051
:10A520009C31002028C8030070C703004E4643201A
:10A5300041637469766520503250206465766963A2
:10A540006520666F756E642E204E46434944333A4B
:10A550002025730D0A0000002DE9F04180460024FB
:10A5600014E01248006800EBC405287806F0AAFF42
:10A5700007466878012800D100E00020784080F08C
:10A5800001062878314600F06DFC641C084800780C
:10A590008442E6DB0748D0E90010002359405840C8
:10A5A000014301D00FF0B0F9BDE8F08188320020FE
:10A5B0008C3200209832002070B500240D490E4ADC
:10A5C000891AC908032242EA01400CA105F0A2FE43
:10A5D0001420FEF7FBFE044600BF25463DB100BF38
:10A5E0000DA240F25B612846FBF714FE00BF00BFDE
:10A5F00070BD000028C8030070C703006469616D66
:10A600006574657220646576696365207374617230
:10A610007465642E000000002E2E5C2E2E5C2E2E03
:10A620005C6D61696E2E630070B5044620793D282B
:10A6300002D141F23D0001E04FF4885005462088E8
:10A640000022294603F0AEF970BD000010B50021CC
:10A65000034804F06AFA044684F3100010BD0000B9
:10A66000C054002010B504464FF4AC722146054892
:10A67000FBF70AFF4FF4AC7202490348FEF723FAD6
:10A68000002010BD0C480020F84700207047000053
:10A6900030B58DB0054600BF15B90E200DB030BDE8
:10A6A00000BF2A4928680861294B0FCB8DE80F00AD
:10A6B0002649684662DF044600BF204600B1EDE748
:10A6C00000BF224800788DF832000120ADF830003C
:10A6D0001E4A921C0CA9A8DF044600BF204600B108
:10A6E000DCE700BF202104A8FBF7F5FE0220ADF84F
:10A6F0001000164800788DF812000120ADF8160001
:10A700004FF4AF70ADF814009DF81D0020F002006A
:10A71000801C8DF81D009DF81D0020F010001030E9
:10A720008DF81D0001208DF821008DF823000749C8
:10A7300048888A1D04A9FFF75FFA044600BF204637
:10A7400000B1ABE700BF2046A8E70000F8470020B3
:10A7500058AD030070B505460C464FF4803000FA42
:10A7600004F1284600F05EFB70BD70B505460C464E
:10A770004FF4A07000EB840086B23146284600F00A
:10A78000E9FB70BD2DE9F04704460D4616461F460D
:10A790004FF4803000FA05F84FF4A07000EB85000C
:10A7A0001FFA80F926F07F464146206806F0AFF890
:10A7B0004146206806F09CF84946206806F08EF86D
:10A7C00032462946206806F079F84146206806F0AE
:10A7D00095F81FB14146206806F09FF8BDE8F08764
:10A7E00010B50446206806F06EF810BD2DE9F0475C
:10A7F00004460D4617466079324941F82070607969
:10A80000314901EBC000007968B108262F49304A70
:10A81000891AC908022242EA01402EA105F07AFDF8
:10A820003046BDE8F08729882068C0F8081500BFC9
:10A8300094F90420AB7810461946002808DB4FEA4B
:10A84000417C4FEA1C68DFF8B0C00CF800800BE0D8
:10A850004FEA417C4FEA1C69DFF8A0C000F00F0806
:10A86000A8F104080CF8089000BF00BF94F9041088
:10A87000084600280DDB00BF00BF00F01F030122C7
:10A880009A4043099B0003F1E023C3F8002100BF75
:10A8900000BF00BF00BF012061790B4A02EBC1017C
:10A8A00008716079114641F8304000260749084A8E
:10A8B000891AC908032242EA014011A105F02AFDC4
:10A8C0003046AEE7C4320020C832002008C803007A
:10A8D00070C7030052544320696E7374616E6365E0
:10A8E00020616C726561647920696E697469616C5C
:10A8F000697A65642E00000000E400E018ED00E0D5
:10A900005254433A20696E697469616C697A65646E
:10A910002E00000010B5014691F90400002807DB65
:10A9200000F01F0301229A40024B440943F82420FF
:10A9300000BF10BD00E200E070B505460C4622469F
:10A940000221284600F07AFA70BD10B504464FF493
:10A950008271204600F0FEFA10BD10B504460021B9
:10A96000206805F0E5FF10BD10B5044604212068FD
:10A9700005F0DEFF10BD2DE9F84F04468846154668
:10A9800099464FF4803000FA08FA4FF4A07000EBBB
:10A9900088001FFA80FB25F07F455146204600F0D5
:10A9A00041FA206805F08FFF06464146206805F011
:10A9B0007FFF009032464146206805F07FFF5946F0
:10A9C000206805F08BFF314600980EF057FE0128F5
:10A9D00006D1102006F05CFC5946206805F07EFF89
:10A9E000206805F070FF0646314628460EF046FE08
:10A9F00007465146206805F081FF012F0FD16A1CE0
:10AA00004146206805F05AFF102006F041FC2068FE
:10AA100005F059FFB04225D00D20BDE8F88F2A4639
:10AA20004146206805F04AFF206805F04CFF0646C5
:10AA3000681E31460EF022FE07466FF07F40A0EB05
:10AA40000900B84201D20D20E7E75FB96A1C414610
:10AA5000206805F033FF206805F035FFB04201D0D3
:10AA60000D20DAE701225146204600F0E7F90020E8
:10AA7000D3E7000010B504460549064A891AC908FB
:10AA8000042242EA0140224603A105F04DFC10BD1C
:10AA900028C8030070C7030044756D6D7920657682
:10AAA000656E742068616E646C65722072656365A2
:10AAB00069766564206576656E7420307825780047
:10AAC00070B506460C4615462B46224600213046F8
:10AAD000FFF7E4FA70BD000010B510480068407E32
:10AAE00060B106210120FDF7EFFE044624B10B48BA
:10AAF0000068416903208847002010BD01200749F4
:10AB00000968087601210846FDF7DEFE04461CB1FF
:10AB100000200249096808762046EEE75C320020F2
:10AB20002DE9F84305460E461746984669461048F3
:10AB3000006803F002FF044614B90420BDE8F8835E
:10AB40001C212046FBF7C7FC012020712560C4F8BA
:10AB5000088008480068B6FBF0F0E060676169466D
:10AB60000348006803F013FF09F096FD0020E5E7B5
:10AB70003CAF030030AF030010B50446D4E9032115
:10AB8000501828DF10BD000038B5044620788DF835
:10AB9000000020780002C0B28DF801000222694650
:10ABA0000248FDF7C4FFC0B238BD00006449002070
:10ABB0007047000030B58DB0054600BF15B90E20B6
:10ABC0000DB030BD00BF294928680861284B0FCB64
:10ABD0008DE80F002549684662DF044600BF204625
:10ABE00000B1EDE700BF214800788DF83200012068
:10ABF000ADF830001D4A921C0CA9A8DF044600BF26
:10AC0000204600B1DCE700BF202104A8FBF763FC6D
:10AC10000220ADF81000154800788DF812000120D0
:10AC2000ADF816000220ADF814009DF81D0020F0CC
:10AC30000200801C8DF81D009DF81D0020F0100002
:10AC400010308DF81D0001208DF821008DF82300B3
:10AC5000064948888A1D04A9FEF7CEFF044600BFB6
:10AC6000204600B1ACE700BF2046A9E764490020B8
:10AC700068AD03000278072A38D2DFE802F0370413
:10AC80000712222B340000220A7030E001220A70E1
:10AC900003898B818388CB81C2688A6000230B740F
:10ACA00025E002220A7003898B818388CB81C268E8
:10ACB0008A60827D062A01D1012300E000230B7403
:10ACC00015E003220A70C3888B810389CB81C26897
:10ACD0008A600CE004220A70C3888B810023CB8138
:10ACE00000228A6003E005220A7000E000BF00BF76
:10ACF0007047000070B50546002409E0064850F88A
:10AD0000240020B1044850F8241028468847641CC9
:10AD1000042CF3D370BD0000944B002030B587B0F5
:10AD200004460D462068806808B907B030BD182178
:10AD300001A8FBF7D0FB0295A0680690207910B11E
:10AD4000012815D109E001208DF804002069039045
:10AD5000E0680490606905900BE002208DF8040023
:10AD60000749E0680968484303906069059000E07E
:10AD700000BF00BF2068816801A8884700BFD4E7F2
:10AD800030AF0300F0B585B005460C461646002CE2
:10AD90003ED0112C3CD0082C3AD00D2C24D11D498A
:10ADA0001D4A891AC908022242EA01402A461B4963
:10ADB00005F0BAFA2A460321684603F0CBF92EB112
:10ADC000307800F0010008B1012000E002208DF889
:10ADD000080000218DF80C1041F20111ADF80A10A5
:10ADE000684600F025F913E0204606F06FF90746A3
:10ADF0000849094A891AC908012242EA01402B463A
:10AE00003A46074905F09CFA214628460CF0DEFE3A
:10AE100005B0F0BDB8C7030070C70300ACBC0300A9
:10AE2000BCBD030070B504460D462946206805F0F8
:10AE30005FFD2946206805F06AFD70BD70B50446C7
:10AE40000E4615463146206805F058FD1DB13146C5
:10AE5000206805F062FD70BD10B50446204600F084
:10AE6000E7F810BDF8B505460C4628460EF0F2FA94
:10AE700005286AD2DFE800F003212A393F00DCB15F
:10AE8000012128460EF0F6FA002000906846FCF7F3
:10AE90009AFD2A460126002730463946FBF7E1FA9B
:10AEA0002B4AD2E9003218431143294A03C29DF8C4
:10AEB0000000FCF78FFD00BF47E00CB1022000E06E
:10AEC0000020014628460EF0D5FA3EE044B10321A9
:10AED00028460EF0CFFA012128460FF0EDF803E0E6
:10AEE000012128460EF0C6FA2FE01CB9042128469D
:10AEF0000EF0C0FA29E024B1032128460EF0BAFA78
:10AF000022E0002128460EF0B5FA002128460FF075
:10AF1000D3F8002000906846FCF755FD2A4601262C
:10AF2000002730463946FBF79CFA0A46C143D04316
:10AF3000074B0CCB11401840054AC2E900109DF8A0
:10AF40000000FCF747FD00BF00BF00BFF8BD0000D8
:10AF50009832002070B505460C462868015929B181
:10AF60002146286805F0BAFC012070BD0020FCE7EE
:10AF700070B50446608801F007FEA080002505E05A
:10AF8000044850F82510204688476D1C002DF7D046
:10AF900070BD0000FC31002070B50446A08801F0AF
:10AFA00023FD6080002505E0044850F82510204668
:10AFB00088476D1C002DF7D070BD000010320020B6
:10AFC00070B50546002405E0044850F824102846D2
:10AFD0008847641C022CF7D370BD000064AC0300EA
:10AFE00070B50546002405E0054850F824102846B1
:10AFF0008847641C034800788442F5DB70BD00007C
:10B00000AC4700203E32002070B50446608801F055
:10B01000BBFDA080002505E0044850F8251020461F
:10B0200088476D1C002DF7D070BD0000D8AC030020
:10B0300070B50546002405E0044850F82410284661
:10B040008847641C002CF7D070BD000050AD030091
:10B0500010B50446207820B1012808D0032822D159
:10B0600013E0606810B90120104908701CE06068A6
:10B0700050B9A2890E490F4BC91AC908032343EAE4
:10B0800001400DA105F050F90EE0606850B9A289A9
:10B090000749084BC91AC908032343EA014009A11B
:10B0A00005F042F900E000BF00BF10BD8A3100206A
:10B0B00028C8030070C703003A0930782530347877
:10B0C0000000000044656C6574652046696C65206D
:10B0D00049443A09307825303478000010B586B0FC
:10B0E0000446142101A8FBF7F6F9A08900F0D4FB6F
:10B0F000ADF80800207806285ED2DFE800F05D0396
:10B1000004052E4A00BF00BFA08900F0CAFB18B991
:10B11000E08909F0C0FCF8B1E08909F0B9FC8DF8CC
:10B120000C002078032801D1012100E000218DF8D6
:10B130000D10A1680491606830B908208DF80400F2
:10B1400001218DF8141004E009208DF804006168D5
:10B15000059101A807F0B0FF2FE0A08900F0A1FB46
:10B16000B0B1E089A0B9606838B90A208DF8040050
:10B17000BDF8080008F0F0F904E00B208DF8040099
:10B180006068039001201149087001A807F094FF3E
:10B1900013E0606818B913208DF8040004E014204F
:10B1A0008DF80400606803904FF6FF70ADF808005A
:10B1B00001A807F081FF00E000BF00BF034800784E
:10B1C00008B108F00FF906B010BD00001D320020D4
:10B1D00038B505461048007810B948F2016038BD0E
:10B1E0004FF6FF70854202D148F20360F7E76846E8
:10B1F00009F032F9044614B948F20760EFE7052078
:10B20000207001202071E580684609F035F909F0C9
:10B2100037FA0020E3E70000D032002038B50E48AE
:10B22000007810B948F2016038BD684609F014F999
:10B23000044614B948F20760F6E706202070684615
:10B2400009F01AF90548007810B101200349C873C4
:10B2500009F016FA0020E7E7D0320020F44D002074
:10B2600070B586B0142101A8FBF735F92E48007897
:10B2700028B101A8FFF73EFD002006B070BD2A48A6
:10B28000001D03F014FC08B10020F6E700F0CEFB2F
:10B2900006460EB13046F0E709F01AF907F040FC17
:10B2A000054625B1022D03D0062D0ED103E000BFC7
:10B2B00048F20A60E1E701201B490870002048605D
:10B2C00001A8FFF717FD0020D7E700BF00BF6846C1
:10B2D00009F0C2F8044614B948F20760CDE701202E
:10B2E00020700C2D16D2DFE805F015061507151194
:10B2F0001512150A0E0B00BF002020710BE000BFD5
:10B300000320207107E00220207104E000BF01202B
:10B31000207100E000BF00BF684609F0ADF809F0F9
:10B32000AFF90020A9E70000D032002030B585B089
:10B330002A4800F047F9FFF793FF044600BF25466F
:10B340003DB100BF26A24FF4E3712846FAF762FF31
:10B3500000BF00BF00E041DF254800780028FAD098
:10B3600014216846FBF7B7F8684600F045F9044633
:10B3700000BF25463DB100BF19A240F2CD112846BD
:10B38000FAF748FF00BF00BFBDF8042019491A4B67
:10B39000C91AC908032343EA014018A104F0C4FFF5
:10B3A000BDF806201349144BC91AC908032343EA00
:10B3B000014018A104F0B8FFBDF806000A280BDB15
:10B3C000FFF72CFF0B490C4A891AC908032242EAED
:10B3D00001401EA104F09EFF05B030BD51B0020037
:10B3E0002E2E5C2E2E5C2E2E5C6D61696E2E6300FF
:10B3F0008A31002028C8030070C70300466F756EAD
:10B40000642025642076616C6964207265636F72C4
:10B4100064732E00466F756E642025642064697223
:10B420007479207265636F72647320287265616439
:10B430007920746F206265206761726261676520A0
:10B44000636F6C6C6563746564292E00546F6F20A4
:10B450006D616E79206469727479207265636F72B0
:10B4600064732C206761726261676520636F6C6C26
:10B47000656374696E672E0038B5044614B948F2E6
:10B48000046038BD6946204609F002FA08B3BDF8E9
:10B49000000000EB8000114901EB8000C068A8B1FA
:10B4A000A07A98B1BDF8000000EB800001EB8000AD
:10B4B000C068401EBDF8001001EB8101074A02EB95
:10B4C0008101C8600020A072002504E048F20565F3
:10B4D00001E048F209652846D3E70000904D0020BE
:10B4E0007FB514461D462B46224601A9684609F041
:10B4F00067F904B070BD37B50C4615462B46224699
:10B500006946002009F05CF93EBD37B50C4615468A
:10B510002B4622460021684609F052F93EBD0246FC
:10B5200002B111B948F20460704710680860002049
:10B53000FAE70000F8B504460D4604B115B948F223
:10B540000460F8BD6946204609F0A2F9E8B16668D2
:10B550007188F0886268FEF73EFE10B948F20C6010
:10B56000EFE7BDF8001001EB8101094A02EB810110
:10B5700001F10C00012103F0A1FA2E6060680C308B
:10B5800068600120A0720020DBE748F20960D8E77C
:10B59000904D002070B504460D4614B948F2046081
:10B5A00070BD03230022294620460FF0A3F8F7E7D9
:10B5B00070B504460D4602230022294620460FF0AE
:10B5C00099F870BD70B5054609480068042802D195
:10B5D00048F20B6409E007480549096840F8215022
:10B5E0000121034803F06AFA0024204670BD0000E0
:10B5F000DC320020944B00202DE9F84304464FF440
:10B60000806800262B48007818B948F20160BDE830
:10B61000F88314B948F20460F9E712212046FAF7DA
:10B620005AFF0620208000253FE005EB85002249D7
:10B6300001EB8000008905EB85011F4A02EB8101C7
:10B640004989084487B205EB850102EB810148680E
:10B6500007F0E2F9032802D12088401E208060888C
:10B6600005EB8501144A02EB8101C968084460803A
:10B67000208905EB850102EB81014989084420817D
:10B68000608938446081C7F5806086B2A089B04285
:10B6900000DAA68104F11000831EA21D211D009076
:10B6A000284609F04BFA681C85B2052DBDDB002049
:10B6B000ADE70000D0320020904D002070B588B07A
:10B6C000002005900690079003900490002603AB9D
:10B6D00005AA41F61F714FF4F850FFF701FF044629
:10B6E000002C27D10190029001A905A8FFF722FFA5
:10B6F000044600BF25463DB100BF18A240F21A2102
:10B700002846FAF787FD00BF00BF029E1749306840
:10B71000086005A8FFF7B0FE044600BF25463DB10E
:10B7200000BF0EA240F222212846FAF773FD00BFA7
:10B7300000BF10E00E4905A8FFF73AFF044600BF1E
:10B7400025463DB100BF05A240F227212846FAF761
:10B7500061FD00BF00BF08B070BD00002E2E5C2E42
:10B760002E5C2E2E5C6D61696E2E6300843100208C
:10B77000E0A9030030B585B000200290039004904A
:10B78000009001906B4602AA41F61F714FF4F850E9
:10B79000FFF7A6FE044604BB254902A8FFF7FAFE00
:10B7A000044674B148F2066084420AD12149224A13
:10B7B000891AC908032242EA0140204904F0AAFD7F
:10B7C0000BE000BF25463DB100BF1DA24FF4FF7145
:10B7D0002846FAF71FFD00BF00BF1D480078401C37
:10B7E0001B49087048F20660844203D0084600787E
:10B7F00005280FDB00201649087001201549087044
:10B800000C490D4A891AC908032242EA014012A1D3
:10B8100004F080FD00BF25463DB100BF08A240F204
:10B820000A212846FAF7F6FC00BF00BF05B030BD7C
:10B83000E0A9030028C8030070C703003CB203005E
:10B840002E2E5C2E2E5C2E2E5C6D61696E2E63009A
:10B85000903100208B3100206664735F6763282974
:10B86000000000003EB504460A4B6A460021A01DB8
:10B8700008F0A6FF054635B9064A9188019809F0F7
:10B8800081F8054603E00348002101604160284635
:10B890003EBD0000EC3200200146A1F5404080B2E0
:10B8A00070470146B1F5404F05DB4FF6FE7081420F
:10B8B00001DC012070470020FCE710B50446E07F62
:10B8C000FF2808D0A07F18B1E07F04F0C9F902E09A
:10B8D000E07F04F01AFA00206077207204F108007B
:10B8E000D4E90021904710BD10B5044620781828EF
:10B8F00002D1FCF7AFFD207010BD10B504462078D2
:10B90000182802D1FCF7A6FD207010BD70B50546C1
:10B910000E46144624B13146284603F0ABF803E046
:10B920003146284603F041F870BD30B50446108812
:10B93000C01C984201D90C2030BD02201588485502
:10B940001088401C10800120158848551088401C24
:10B95000108015884C551088401C10800020EBE7A3
:10B9600070B504460D4640F21442115B0122D4F832
:10B970001004FCF7EBFA064606B1357004F13C0200
:10B9800004F5826104F1540072DF70BD2DE9F041CD
:10B9900006460C4615460027112C01D1012700E070
:10B9A000002765B13A460A4801783046FCF776FD33
:10B9B0000022084801783046FCF770FD05E03A4661
:10B9C000044801783046FCF769FDBDE8F0810000CD
:10B9D0005B3200205832002010B54FF4C04400F014
:10B9E00009F80349086108460069001BC86010BDDA
:10B9F000A033002010B540F6F8700068401C18B95C
:10BA00004FF01020406902E040F6F87000680346ED
:10BA10004FF0805001694269581C08B1184601E096
:10BA200002FB01F00446204610BD000010B5FFF7F0
:10BA3000D3FF00220249034803F01EFE10BD0000A0
:10BA400040AF0300A0330020F7B50D4617460DB9EF
:10BA50000020FEBD0026009868B1002409E02146C0
:10BA6000684602F0F8FF18B1A0B23946A847761C24
:10BA7000641C142CF3D33046EBE710B50446606821
:10BA800008F054FD10BD000070B586B000BF9DF8F1
:10BA90000C0020F00F00401C03909DF80C0020F0DB
:10BAA000F0001030039000BF01A86DDF044600BF16
:10BAB00025463DB100BF26A240F275312846FAF76F
:10BAC000A9FB00BF00BF0D2002F0AAF906469DF8B1
:10BAD000050000909DF8063021A224A13046FBF716
