:020000040002F8
:10600000B0620020C1630200C9630200CB630200DA
:10601000CD630200CF630200D163020000000000E4
:10602000000000000000000000000000D363020038
:10603000D563020000000000D7630200D9630200AC
:106040005D660200DB630200ED6C0200FD68020089
:10605000DB630200DB630200A9650200DB63020070
:10606000DB630200DB630200DB630200DB63020030
:10607000DB630200DB630200DB630200DB63020020
:10608000DB6302007D680200DB630200DB63020069
:10609000DB630200DB63020051690200DB63020084
:1060A000DB630200DB630200DB630200DB630200F0
:1060B000DB630200DB630200000000000000000060
:1060C000DB630200DB630200DB630200DB630200D0
:1060D0008D680200DB630200DB6302000000000049
:1060E00000000000000000000000000000000000B0
:1060F00000000000000000000000000000000000A0
:10610000000000000000000000000000000000008F
:10611000000000000000000000000000000000007F
:10612000000000000000000000000000000000006F
:10613000000000000000000000000000000000005F
:10614000000000000000000000000000000000004F
:10615000000000000000000000000000000000003F
:10616000000000000000000000000000000000002F
:10617000000000000000000000000000000000001F
:10618000000000000000000000000000000000000F
:1061900000000000000000000000000000000000FF
:1061A00000000000000000000000000000000000EF
:1061B00000000000000000000000000000000000DF
:1061C00000000000000000000000000000000000CF
:1061D00000000000000000000000000000000000BF
:1061E00000000000000000000000000000000000AF
:1061F000000000000000000000000000000000009F
:10620000DFF80CD000F092F900480047A9BA02006C
:10621000B062002030B4044654E8000F0D4644E854
:106220000053002BF8D1156030BC704730B40446E1
:1062300054E8000F40EA010544E80053002BF7D171
:10624000156030BC704730B4044654E8000F00EAD3
:10625000010544E80053002BF7D1156030BC7047AE
:1062600030B4044654E8000F80EA010544E80053C6
:10627000002BF7D1156030BC704730B4044654E8A9
:10628000000F00EB010544E80053002BF7D1156027
:1062900030BC704730B4044654E8000FA0EB010551
:1062A00044E80053002BF7D1156030BC704770B440
:1062B00004464FF0000054E8006F0D68AE4207BF7F
:1062C00044E80023012044E800630E60002B1CBF5B
:1062D0000020F0E770BC704730B4044654E8000F6B
:1062E00088422CBF451A054644E80053002BF5D1DF
:1062F000156030BC7047000030B450E8012F93B2F5
:10630000C48923448489A34228BF1B1B0489A34258
:1063100002BFBFF32F8F002007E0C3EA020340E86B
:106320000134002CE9D14FF001000A6030BC704705
:1063300050E8012FC2EA024240E801210029F7D1CA
:10634000704730B450E8022F1FFAA2F3C488A3426A
:1063500002BFBFF32F8F00200DE0C489234484893E
:10636000A34228BF1B1BC2EA034340E80234002CAF
:10637000E8D14FF001000A6030BC704750E8022FAE
:10638000C2EA224240E802210029F7D170470346C1
:1063900053E8022FD988B2EB324F4FF0000017BFFD
:1063A00092B241EA014142EA014104E05A68B2EB8B
:1063B000324F08BF012043E80212002AE8D170479B
:1063C0000648804706480047FEE7FEE7FEE7FEE78F
:1063D000FEE7FEE7FEE7FEE7FEE7FEE7556902009F
:1063E000016202002DE9F05F0546002092469B46BF
:1063F00088460646814640241BE0284641464746DB
:10640000224600F082F853465A46C01A914110D3F2
:1064100011461846224600F016F82D1A67EB0108BF
:106420004F4622460120002100F00DF817EB00092D
:106430004E41201EA4F10104DFDC484631462A46C5
:106440004346BDE8F09F202A04DB203A00FA02F11F
:10645000002070479140C2F1200320FA03F3194352
:106460009040704700487047C852030010B5431A67
:10647000934209D28318881803E010F8011D03F82D
:10648000011D521EF9D210BD40EA01039B0703D043
:1064900009E008C9121F08C0042AFAD203E011F863
:1064A000013B00F8013B521EF9D210BDD2B201E00F
:1064B00000F8012B491EFBD270470022F6E710B509
:1064C00013460A4604461946FFF7F0FF204610BD62
:1064D000421C10F8011B0029FBD1801A704730B50F
:1064E00004460020034600E05B1C934203D2E05CBC
:1064F000CD5C401BF8D030BD034611F8012B00F8ED
:10650000012B002AF9D118467047202A04DB203AD3
:1065100021FA02F00021704721FA02F3D040C2F1C3
:10652000200291400843194670470000064C074D71
:1065300006E0E06840F0010394E807009847103453
:10654000AC42F6D3FFF760FEEC6603000C67030075
:1065500070B58C1810F8015B15F0070301D110F825
:10656000013B2A1106D110F8012B03E010F8016B52
:1065700001F8016B5B1EF9D12B0705D40023521ED5
:106580000DD401F8013BFAE710F8013BCB1A921C3D
:1065900003E013F8015B01F8015B521EF9D5A1423B
:1065A000D8D3002070BD00002DE9F8430025DFF8A6
:1065B00094804FF4807601242F460095304606F0F3
:1065C000BBFD38B1D8F80403204203D0304606F0B2
:1065D000A9FD2543361D64007F1CB6B2082FEDD3FC
:1065E0004FF4BE74204606F0A7FD48B1204606F0E1
:1065F00099FD45F000456A460121002006F046FD60
:1066000015F0FF0F16D0012600242E420ED008EB05
:106610008401D1F81005D1F81015C0F304200A4AFE
:10662000C1F3014152F8242002B190477600641C66
:10663000082CEAD3002D02DA684609F063FDBDE8B4
:10664000F883000000600040CC380020142007F0E0
:10665000ADBC0121142007F0CDBC000070B54FF493
:106660008076304606F02CF8114CB50560B1304606
:1066700006F02DF80120C5F80803607920B9012043
:1066800060712168002088474FF48276304606F01A
:1066900017F800280AD0304606F019F80220C5F88D
:1066A00008032168BDE870400120084770BD000064
:1066B000402400202DE9F04FABB04FF000094FF01F
:1066C000040A02208DF890905646032523900AF084
:1066D000C5FC0AF043F924AA26A901200AF028FCE7
:1066E00000287DD19DF89000002879D026AC0220AA
:1066F000A11C0AF09DFD074604F102080DF1A1005E
:1067000007E000BF98F80010027808F8012B00F8A5
:1067100001198045F6D34FF001090821A01C04F0AF
:1067200053FA024635483649401AC108032000EBA7
:106730000140044633A106F021FF0DF1940B0DF149
:106740000C083FBB8020CDE9000B43465246002198
:1067500023980AF031FDA8B9BDF8941008F10100A2
:10676000491E04F031FA0246204630A106F006FF29
:106770009DF80E00401C8DF80E009DF80D00401E87
:106780008DF80D00009608F1010352460021239870
:106790000AF07EFD8021CDE90081681EC3B2524619
:1067A000CDF808B0002123980AF0C4FCC0B9BDF8A8
:1067B000941008F10100491E04F006FA0246204632
:1067C00024A106F0DBFE18F8250008EB8503401C29
:1067D00008F8250013F8010D401E03F8020900E037
:1067E00008E00AEB0500401EC2B200960021239883
:1067F0000AF04EFD2BB04846BDE8F08F8C670300D1
:106800002C67030049534F31353639332F4E4643F9
:106810002D56206361726420666F756E642E20555C
:1068200049443A2025730D0A0000000049534F31B6
:10683000353639332F4E46432D562063617264201E
:10684000626C6F636B203420646174613A2025733D
:106850000D0A000049534F31353639332F4E464328
:106860002D56206361726420626C6F636B7320200D
:10687000646174613A2025730D0A000002490248E0
:10688000091F096800680847282400200422002105
:10689000014804F0AFBC00000040024000F02CBAF8
:1068A00070B50E46144900EB400001EBC0051446DC
:1068B000E86A183520B101280FD0022805D113E06D
:1068C000284600F04DFAA04201D2002411E02246F1
:1068D0003146284600F07CFA0BE0284600F040FAEA
:1068E000A042F4D20446F2E73146284600F043FACB
:1068F0000446204670BD000018360020F8B5124846
:10690000124E04464FF48C7107F094FA00281AD006
:106910000025C4F81851D4F818010090F07F3446CF
:10692000FF2806D0A17F11B106F0CDFB01E006F0F3
:10693000E7FB65772572D4E9002101B004F1080076
:10694000BDE8F0401047F8BD003000402839002075
:1069500007F0B2B9F0B5D34AD3494FF08054136869
:10696000D4F830010978D4F83421451CC1F303115F
:1069700007D08446164601270025BCF1060F04D037
:1069800013E003F0FF0C0E46F5E7032E05D0042EAE
:1069900003D0052E01D0062E07D1B4F82463DFF80A
:1069A0000CC3C6F30426CCF80060DEB2062E06D176
:1069B000032904D1DFF8FCC2BD4ECCF87460461C3C
:1069C00006D084464FEA0206BCF1060F04D013E05D
:1069D00003F0FF0C0E46F7E7032E05D0042E03D07C
:1069E000052E01D0062E07D1D4F84462DFF8C8C2C4
:1069F000C6F34236CCF80060DEB2062E08D1032979
:106A000006D1AE4ED6F800C02CF0807CC6F800C08F
:106A1000461C05D084461646BCF1060F04D014E08F
:106A200003F0FF0C0E46F7E7032E05D0042E03D02B
:106A3000052E01D0062E08D14FF08046C6F80C5125
:106A4000C6F810519C4E361F3560DEB2062E08D1B6
:106A5000032906D1DFF860C203260CF1640CCCF8E0
:106A60000060DEB2062E11D103290FD1DFF850C22B
:106A70000526CCF80060924E78363760904E083686
:106A800035600CF1040C3F26CCF80060461C05D0A4
:106A900084461646BCF1060F04D087E003F0FF0CD5
:106AA0000E46F7E7032E7CD0042E7FD0052E01D0B2
:106AB000062E7BD1834E3668DFF80CC2CCF800601E
:106AC000804E361D36680CF1040CCCF800607D4E0B
:106AD000083636680CF1040CCCF80060794E0C36A0
:106AE00036680CF1040CCCF80060764E103636682F
:106AF0000CF1040CCCF80060724E143636680CF1C0
:106B0000040CCCF800606F4E18363668DFF8B8C158
:106B10000CF1200CCCF800606A4E1C3636680CF183
:106B2000040CCCF80060674E203636680CF1040C7B
:106B3000CCF80060634E243636680CF1040CCCF8B7
:106B40000060604E283636680CF1040CCCF800600A
:106B50005C4E2C3636680CF1040CCCF80060594EB3
:106B600030363668DFF860C10CF1400CCCF80060BC
:106B7000544E343636680CF1040CCCF80060514E9B
:106B8000383636680CF1040CCCF800604D4E3C36BB
:106B900036680CF1040CCCF800604A4E403636687A
:106BA00000E003E00CF1040CCCF80060461C05D0BA
:106BB00084461646BCF1060F04D011E003F0FF0C2A
:106BC0000E46F7E7032E05D0042E03D0052E01D084
:106BD000062E05D1D4F858423C4E04F04F043460E0
:106BE000441C04D003461146062B02D010E0DBB251
:106BF000FAE7032905D0042903D0052901D0062985
:106C000006D133490B68DB0702D06FF001030B603C
:106C100006280CD1032A0AD0042A08D0052A06D057
:106C2000062A04D12B48016841F4806101602348A1
:106C30007438016841F470010160BFF34F8FBFF3F6
:106C40006F8F4FF01021D1F80002002803DBD1F83C
:106C50000402002822DA204A176020480368002B2B
:106C6000FCD01523C1F800320468002CFCD0C1F818
:106C7000043201680029FCD0156001680029FCD0AD
:106C8000BFF34F8F0D48F0380168154A01F4E061F9
:106C900011430160BFF34F8F00BFFDE71249114858
:106CA0000860F0BDE00F00F0E80F00F04035014053
:106CB0000DF0ADBA00C007403C050040FCED00E01F
:106CC000105600400404001020C50040E40E0040AF
:106CD000000400403C17004004E5014000E401408E
:106CE0000400FA050090D0038C24002001480068BD
:106CF000004700005024002010B5124C02202061F3
:106D0000606111A0A06104F17800E0614FF40070AF
:106D100020620020A06260620BA1A164E06204F521
:106D20001E71E1641021A065C4E91410E06509A199
:106D3000E01DFFF7E1FB08A12046FFF7DDFB202067
:106D4000A07110BD183600205465726D696E616CBB
:106D5000000000005254540053454747455200007C
:106D60000269C1688A4203D88068401A104400E072
:106D7000501A401E70472DE9F047C46817468946EF
:106D800006464FF000083069A04201D9051B02E019
:106D9000B168201A0D1AB0686D1E001BA84200D8F9
:106DA0000546BD4200D33D4670682A462044494608
:106DB000FFF75CFBB0687F1B2C44A844A944A042A9
:106DC00000D10024F460002FDDD14046BDE8F087FB
:106DD0002DE9F04104468846D4E90207C51BE16865
:106DE000606816460844B54206D94146FFF73EFBA7
:106DF000B819E060BDE8F0812A464146FFF736FB4E
:106E0000761B08EB050132466068FFF72FFBE66052
:106E1000F0E700000FB4084B10B504A902AA0398CC
:106E200000F02EF8044602A9002000F05AFA20468D
:106E300010BC5DF814FB0000E372020002E008C819
:106E4000121F08C1002AFAD170477047002001E0E4
:106E500001C1121F002AFBD1704700000121202828
:106E600003DA81400548014003E0402802DA203877
:106E7000814009B10120704700207047FC06FFBD2A
:106E80002DE9FF4F8DB00F460546002606E0252868
:106E90000BD0DDE90F1290476D1C761C2878002876
:106EA000F5D111B03046BDE8F08F0024A246A146CE
:106EB0000122EC4900E0044315F8013F203B02FAAF
:106EC00003F00842F7D128782A2810D06FF02F025B
:106ED0002878A0F13001092914D80AEB8A0102EBC5
:106EE000410144F0020400EB010A6D1CF0E701CF00
:106EF0005FEA000A03D544F40054CAF1000A44F0E2
:106F000002046D1C28782E2817D115F8010F44F0C3
:106F100004042A280ED06FF02F022878A0F1300147
:106F200009290AD809EB890102EB410100EB0109AB
:106F30006D1CF2E757F8049B6D1C28786C280FD065
:106F400006DC4C2817D068280DD06A2814D104E03C
:106F5000742810D07A280FD10DE044F400140AE010
:106F600044F4801401E044F440146978814202D171
:106F700004F580146D1C6D1C2A786E2A1FD00CDC61
:106F8000632A31D004DC002A8BD0582A11D1A3E027
:106F9000642A68D0692A0CD165E0732A2ED004DCFB
:106FA0006F2A73D0702A04D19BE0752A6FD0782A9B
:106FB0006ED01046DDE90F129047761C50E1C4F305
:106FC0000250022806D0032809D0042801CF09D096
:106FD000066045E101CFF117C0E9006140E101CF52
:106FE00006803DE106703BE117F8040B8DF80000C8
:106FF00000208DF80100EB46012003E057F804BBA8
:107000004FF0FF3061074FF0000102D40DE008F1AE
:107010000101884649450FDA8045F8DB1BF8081066
:107020000029F4D108E008F1010188468142FADB29
:107030001BF808100029F6D1DDE90F23AAEB0800A0
:107040008146214600F036F9304400EB080604E0A2
:10705000DDE90F121BF8010B9047B8F10108F7D2D8
:1070600021464846F7E00A21C4F302534FF0000BD3
:107070000891022B04D001CFC117032B09D00AE0DD
:10708000FF1D27F00707F7E8020108E032E01FE0E4
:1070900020E000B2C117042B01D140B2C117031E7A
:1070A00071F1000307DA4FF0000CD0EB0C006CEB31
:1070B00001012D2302E0230504D52B238DF8243074
:1070C000012303E0E30701D02023F7E7984658E0C7
:1070D0000A2110E010210EE010204FF0000B089064
:1070E0000CE010214FF0000B44F004044FF00809AD
:1070F000089103E008214FF0000B0891C4F30253FC
:10710000022B04D001CF0021032B06D006E0FF1D87
:1071100027F00707F7E8020103E080B2042B00D153
:10712000C0B24FF0000823072BD5702A07D0DDF836
:1071300020C08CF0100C5CEA0B0C05D00EE0402354
:107140008DF82430012308E050EA010306D03023F3
:107150008DF824308DF8252002239846DDF820C0D4
:107160008CF0080C5CEA0B0C0BD150EA010301D146
:10717000630706D530238DF824304FF00108A9F1BC
:107180000109582A04D038A20B9208AA0A920BE0EF
:107190003AA2F9E75B46089AFFF724F90B9B9B5C40
:1071A0000A9A521E0A92137050EA0102F2D10A980A
:1071B000ADEB000000F1200B600702D524F4803411
:1071C00001E04FF00109D94502DDA9EB0B0000E019
:1071D000002000EB0B0141440890AAEB010AE003F8
:1071E00006D4DDE90F232146504600F063F806443B
:1071F0004FF0000908E009A911F80900DDE90F12B4
:10720000904709F10109761CC145F4DBE0030CD578
:10721000DDE90F232146504600F04CF8064404E017
:10722000DDE90F1230209047761C0899481E08901F
:107230000029F5DC08E00A980A990078491C0A91AF
:10724000DDE90F129047761CBBF10001ABF1010B99
:10725000F1DC21465046DDE90F2300F019F8064421
:107260006D1C1BE6092801003031323334353637C6
:107270003839616263646566000000003031323382
:107280003435363738394142434445460000000022
:107290002DE9F041044600251E461746880404D413
:1072A00005E039462020B0476D1C641EF9D52846FC
:1072B000BDE8F0812DE9F041044600251E469046C8
:1072C000C80301D5302700E02027880404D505E055
:1072D00041463846B0476D1C641EF9D52846BDE8C6
:1072E000F0810A68531C0B601070704710B560B1D4
:1072F00059B102780B785208B2EB530F05D1062230
:10730000401C491CFFF7EBF808B1002010BD01201C
:1073100010BD800701D00020704701207047C3686E
:107320008B4206D811440069491E814201D80120D0
:1073300070470020704790F82400012801D01F20DA
:107340007047EE20704710B501220221002001F0A5
:1073500073FC08B1072818D107220221012001F08F
:107360006BFC08B1072810D100210A22084601F061
:1073700063FC08B1072808D110220121022001F086
:107380005BFC08B1072800D1002010BD00B5B3B0E8
:10739000AC216846FFF791F830A86DDF08B100F026
:1073A0003DF900202EA930AAC0F1050313445B78F3
:1073B0000B54401C0628F7DB33202D91ADF8AC00B0
:1073C000022106208DF80010ADF8B0002BA909911C
:1073D00000218DF802108DF8030001208DF87C004B
:1073E0004FF4F070229044F25060239007482990A7
:1073F0006946074800F0FBFB08B100F00FF90121D6
:10740000034800F0F1FB33B000BD0000B9E9020011
:10741000203A00201149124A10B5891ACC0868B1E7
:10742000032000EB04400FA106F0A4F808F0FAFDD9
:10743000002812D0BDE8104000F0F0B803210D483C
:1074400000F0A3FC08B100F0E9F8042000EB0440D0
:10745000BDE8104008A106F08DB810BD8C67030090
:107460002C670300457261736520626F6E6473213F
:1074700000000000203A0020416476657274697350
:10748000696E6720737461727465642E0000000079
:1074900070B58CB015460E4600236C46C3F10F0143
:1074A000415CE1545B1C102BF8D30D2104F110005A
:1074B000FFF703F80020C0F10F02315C2244401CAA
:1074C00011740328F7D3684646DF0020C0F10F018E
:1074D000214491F820102954401C0328F6D30CB005
:1074E00070BD002001F08CBA0149C97800F010BECF
:1074F000F022002070B50024064D06E068680121E6
:1075000010F8340006F076FD641C28788442F5D328
:10751000002070BD28230020F8B516460C4605460D
:107520000A2A01D20720F8BD06F05EFE18B906F05F
:1075300021FE0028F7D1134F102113487D603C70C5
:10754000BE60FEF7BAFF0020C7E904000F4E0DE051
:1075500005EBC4003168009181788DF80110007846
:107560000B4A694606F096FD0028DCD1641EE4B2A1
:10757000EED2BDE8F84005480021064A001D00F0A3
:107580005FB8000028230020F02D0020A44E030047
:107590004DA902001597020072B606F08BF800BFE5
:1075A00005F0CCFE0028FBD111481249401AC4084E
:1075B000012000EB044010A105F0DCFF1148006839
:1075C000C00700D000BE022000EB04400EA105F071
:1075D000D1FFBFF34F8F0B48E43801680E4A01F426
:1075E000E06111430160BFF34F8F00BFFDE7000072
:1075F0008C6703002C670300466174616C20657220
:10760000726F7200F0ED00E053797374656D207253
:1076100065736574000000000400FA050EB50021D2
:107620000091CDE901106A4644F20100FFF7B4FF72
:107630000EBD0000014802F018B900000824002027
:107640003AB100680129426100D0002101610020A7
:10765000704707207047000038B5114808235822AA
:10766000416800910F49006804F008FE002815D118
:107670000D4A69460D4802F0FDF804000ED10121C3
:107680000A4802F072F90123094A1946074802F034
:10769000C4F80649012008390870204638BD0000AA
:1076A00000510300B43500201524030008240020F5
:1076B000FFFF7F0070B50446007F0D4608B1002033
:1076C00070BDA26103F022F9401941F10001C4E943
:1076D0000201206900B125612146BDE8704000200B
:1076E0000CF0C6BB01460020087701200CF0C0BB9F
:1076F00030B5EFF3108172B60D4A9468012324B1BE
:107700000370002900D162B630BD93604FF0E023D2
:10771000D3F88051074C25401560C3F88041D3F859
:10772000844154605A17C3F8842100220270E8E7AC
:107730000C360020FC06FFBD0B498A68002A11D0D8
:1077400000280FD1EFF3108072B60B684FF0E022E3
:10775000C2F800314B68C2F8043100228A60002868
:1077600000D162B6704700000C3600202DE9F041D0
:10777000064608680C46411C4FF0A0474FF0010533
:1077800006D005FA00F1C7F80815206805F058FC86
:107790006068411C02D0002105F036FC3168A06908
:1077A000C1F82405607D227D31681043C1F86C0565
:1077B000D4E900123068C0F81425C0F80C15207DFB
:1077C000012815D1A068411C02D0002105F01CFC45
:1077D000E068411C05D08540C7F80855E06805F011
:1077E0002FFCD4E902123068C0F80825C0F8101543
:1077F000BDE8F0812DE9F041064608680C46411CC1
:107800004FF0A0474FF0010506D005FA00F1C7F888
:107810000815206805F01EFC6068411C02D000219C
:1078200005F0FBFB3168A069C1F82405607D217D6E
:1078300032680843C2F86C05D4E900123068C0F819
:107840000C15C0F81425207D012815D1A068411C15
:1078500002D0002105F0E1FBE068411C05D0854025
:10786000C7F80855E06805F0F5FBD4E90212306866
:10787000C0F80825C0F81015BDE8F08103F0E0BF9E
:107880002DE9F047814605884A484FF000088AB044
:1078900001784246284600F053FC99F8050040075D
:1078A00001D4002176E005F58077B8B205AB01225E
:1078B000072107F099FD04003F48404A4FF00101BD
:1078C000A0EB02004FEAD00001EB00460AD02046B0
:1078D00006F0D2FA024630462B46394905F055FEED
:1078E000214629E0284603F019FB4FF6FF710446B4
:1078F00088422BD18A46069803F07AFA044650450E
:1079000010D00146284603F0E9FA2846FFF7ECFDBF
:10791000E0B928460BF034F82846FFF7E5FD0028CB
:10792000BFD013E007F036FF0446504508D130467B
:1079300024A105F01FFE042128460BF04FF8B0E704
:107940000146284603F0CAFA4FF00108B8B22246B1
:10795000072107F0C1FD07001BD0862F1ED006F0BF
:107960008BFA024630462B462349009405F015FE5B
:10797000394628460BF032F80021484607F02CFC27
:10798000B8F1000F02D0204603F0B2FA0AB0BDE809
:10799000F0870121484607F01FFCF7E7142217493A
:1079A0006846FEF763FDADF80250684602F042FA01
:1079B000EFE70000F02200206C6703002C67030053
:1079C000F05B0300436F756C64206E6F7420616C14
:1079D0006C6F63617465206E657720706565725F9A
:1079E000696420666F7220696E636F6D696E6720CF
:1079F000626F6E642E0000000C5D0300244E0300D5
:107A00002DE9FC47002517880646158090F82D00C3
:107A10001446894630B13A462146484600F0B6FB46
:107A2000051E09D1B0784FF00C0A18B32088C8465B
:107A3000001DB84202D95046BDE8FC87684679DF90
:107A40000028F9D12088032108F800102088192186
:107A5000401C80B2208008F800102088401C80B2B2
:107A6000208000EB0801BDF800000CF02AFC218802
:107A700008442080F0780222C8B1218896F90330AA
:107A800001F1030C4846BC45D5D8425421884FF03B
:107A9000010C491C89B2218000F801C02188491CD1
:107AA00089B2218009F801302088401C208070684C
:107AB000B8B1218890F9003001F1030C4846BC456B
:107AC000B9D8425421880A22491C89B221804254E3
:107AD0002188491C89B2218009F801302088401C86
:107AE0002080308950B1CDE900474B460622022163
:107AF00006F108000CF0D4FC051E9DD1308A50B16F
:107B0000CDE900474B460722032106F110000CF097
:107B1000C7FC051E90D1308B50B1CDE900474B46D4
:107B20001522142106F118000CF0BAFC051E83D1B1
:107B3000306A30B13B462246494601F006FC051E3C
:107B4000DBD1706A30B13B462246494604F024F945
:107B5000051ED2D196F82C0038B13B462246494644
:107B600030460BF09FF8051EC7D1307838B13B4640
:107B700022464946304604F09DF9051EBDD12846EF
:107B80005AE718B504460020ADF8000013466A46CF
:107B9000204600F006F8002802D0BDF8000020447E
:107BA00018BD70B5E0B1DAB1002402E0045D2C44E8
:107BB000A4B2651C8D4206D21688A642F6D80619D4
:107BC00076789E42F2D18C420AD2A31C005D9BB211
:107BD00000B1401E0004000C02D01C188C4201D9D8
:107BE000002070BD138070BD80F8301070472DE903
:107BF000F0410D00044606D02CB195F87A0000261D
:107C0000012803D006E00E20BDE8F08195F8980029
:107C1000012829D0D5F8A000042825D0D5F89C004B
:107C2000042821D04FF00108A6702C2205F178011C
:107C3000201DFEF71BFC84F83060D5F8A4006063BB
:107C4000D5F8A800A0634FF6FF70A4F8240404F54B
:107C50008260C4F82004C4F82664A4F82A6484F876
:107C60002C64207810B104E00720CDE7FF2084F8D1
:107C7000540004F155072046C4F81074FFF75BFB6D
:107C8000A4F8140404F2144239462846FFF7B8FE5B
:107C90000028B9D104F23120C4F818042046FFF7B7
:107CA0004AFBA4F81C0404F21C4205F13C00D4F881
:107CB0001814FFF7A5FE0028A6D184F85180208B68
:107CC000A4F8480084F83C80266484F85060606919
:107CD00000216064454604F13C02781E72DF0028F2
:107CE00092D1257090E710B50288102A1BD0112A76
:107CF00020D0262A1DD1007A0C46012801D0022866
:107D000017D1A0780521401CB0FBF1F201FB120154
:107D1000204600F03AF800280BD0A16B002908D0CB
:107D2000BDE810400847C27B012A02D18088A1F833
:107D3000240410BD0C46002184F82E148088B4F869
:107D400024148842F5D120790028F2D10121DFE7FF
:107D500010B5044690F8540074DF012084F82E0416
:107D6000002084F8300484F850000621204602F0F8
:107D70004AFA002808D1A178204600F006F810B190
:107D8000A16B01B18847002010BD2DE9F05F0446CA
:107D900000780F4698B1A7700025C4F82654A4F8BF
:107DA0002A5484F82C54A079012608B1012F09D057
:107DB000E07980B1012F05D0022F03D00BE008201D
:107DC000BDE8F09F616B21B184F82D6408208847DD
:107DD00001E084F82D5404F2274100200A5C0AB126
:107DE000304603E0401C0628F8D300204FF002087C
:107DF0004FF0030B012F06D0022F0CD0032F0FD012
:107E0000042F15D110E0A17929B194F8241011B9EB
:107E100008B130460DE0E17911B108B1404608E003
:107E2000207A08B1584604E0607A08B1042000E0E6
:107E30002846A070616B41B1032801D0042804D109
:107E4000607910B194F82E0498B184F82F5404F19D
:107E50003C0018210746FEF730FB84F83C6004F133
:107E60002C0007F0C9FD58B194F82C0084F851009B
:107E700008E084F8305484F82F6407208847E6E748
:107E800084F8516094F8240058B104F1280007F0F8
:107E9000B3FD20B194F8280084F8520001E084F882
:107EA000526084F85050A27804F2264104F58269A9
:107EB0004FF0060A052A64D2DFE802F07C030F22A5
:107EC000420084F83160C4F82054C4E9101584F8E5
:107ED0003C808020A4F8480055E084F8318094F874
:107EE0002420384612B10722027001E080F800B069
:107EF000228A8281C4F820544160E168B96042E07E
:107F00006069B860208BB88194F824003D46002851
:107F1000204602D084F83CA001E084F83C600CF0DC
:107F20008BFA50B185F814800421204602F06BF9D9
:107F300038BB052184F8311021E084F831B01EE00F
:107F4000E069B860208CB88194F824003D46002890
:107F5000204602D084F83CA001E084F83C600CF09C
:107F60006BFA48B185F814800421204602F04BF9E1
:107F700038B984F831A002E0042084F83100C4F854
:107F80002094A07878B13A4604F15400D4F8201433
:107F900072DF00287FF414AF94F8301094F8540086
:107FA00073DF0028F6D1616B11B194F83100884776
:107FB000002005E784F83150F5E7000070B50400B3
:107FC00012D001461C221448FEF750FA1248134DF5
:107FD0000560206850B17ADF002806D1206801686A
:107FE00029604068686005E00E2070BD0B487BDFAB
:107FF0000028FAD108484FF6FF711438084A20F8D3
:10800000041B0549343901600021FFF719FB0028E2
:10801000EBD0032070BD0000E4290020A82200203E
:10802000D143030010B5044600F0A6F8002805D09F
:108030002146BDE81040024804F09FB910BD000081
:10804000102A002070B515460E4604460CF000FAC2
:10805000002809D0054800EB8400C0692A46314653
:10806000BDE8704002F0FCB870BD0000002A00209E
:1080700010B5044600F080F8002805D02146BDE880
:108080001040024804F079B910BD0000182A002001
:1080900010B5044600F070F8002805D02146BDE870
:1080A0001040024804F069B910BD0000142A0020F5
:1080B00070B50546002400F05FF838B12946044841
:1080C00004F05BF908B1022400E00124204670BDF1
:1080D0000C2A002070B50546002400F04DF838B198
:1080E0002946044804F049F908B1022400E00124BB
:1080F000204670BD082A002010B51821034804F05E
:1081000017F9182800D0C0B210BD0000002A0020C6
:1081100070B505460C4608460CF09AF960B1284641
:1081200000F02AF840B10548294600EB8400BDE87C
:1081300070401C3004F021B9002070BD002A0020DE
:1081400070B5054616460C4608460CF081F9002825
:108150000ED0284600F010F8002809D00548324615
:1081600000EB84002946BDE870401C3002F046B8A0
:1081700070BD0000002A0020142801D300207047A1
:108180000146014804F0F9B8042A00207CB50546F0
:1081900008880C460930904201D90C207CBD684605
:1081A0006DDF0028FAD121880820685420881B211F
:1081B000401C80B2208029542088401C80B220803E
:1081C0002844DDF801100160BDF805108180208889
:1081D000801D80B220809DF80010490800D0012148
:1081E00029542088401C208000207CBD0E480F4967
:1081F00010B5401AC008042101EB00400CA105F0A5
:10820000B9F94FF0FF3100203DDF00280BD1B1213B
:108210003CDF002807D1134841690120884702202C
:1082200005F05CFB002010BD8C6703002C67030089
:10823000496E20626C655F6466755F627574746F09
:108240006E6C6573735F626F6F746C6F616465727F
:108250005F73746172745F66696E616C697A650DD3
:108260000A00000030290020044810B50068416968
:1082700000208847BDE81040FFF7B8BFA4220020C7
:1082800010B5002823D003881C4C102B17D0214692
:10829000112B8A8815D0C988512B19D0532B16D190
:1082A000C088884213D1207E002810D0FFF7DCFF61
:1082B00000280CD06169BDE8104002200847808882
:1082C00004E08088824202D14FF6FF70A08010BD8A
:1082D00083889342FBD110F8062F022AF7D14288F7
:1082E0008A42F4D1017A0429F1D00629EFD0052978
:1082F000EDD0BDE81040801C06F026BC30290020DF
:108300002DE9F0410546007B042601272E4C01286B
:1083100011D002282CD00226287B314600F08EF89E
:1083200018B120684169032088472068416902200C
:10833000BDE8F041084720684FF00008417E49B190
:108340000621012000F07AF800283BD0206841691E
:108350000320EDE707760121084600F06FF80028BA
:1083600030D02268112882F81880D5D10626D3E7AC
:108370006A7B142A22D80AB3DFF8508005F10E0177
:1083800008F10400FEF772F8697BC8F8181021683C
:108390004046497E0029BFD1A0F10C010A68011FA7
:1083A000904768B10F28B7D109480A49401AC00858
:1083B00007EB0040084905F0DDF8ADE70526ABE71F
:1083C00020684776BDE8F081A422002058290020CB
:1083D0008C6703002C670300CC52030070B515496D
:1083E00000250A68002A24D04A68002A21D00831D2
:1083F000904708281DD0104C0028206845760ED0E4
:108400000621022000F01AF818B120684169032003
:108410008847206841690220BDE870400847012173
:10842000022000F00BF8002803D0206841690320E7
:10843000F2E770BD4C290020A422002086B003235F
:10844000ADF8003020238DF814308DF8150000228F
:108450000E48019202928DF81610C188ADF80410F2
:1084600002218DF8061005A90491ADF80820CDF879
:108470000CD0808801A9AEDF002804D1BDF800101F
:10848000032900D00C2006B07047000030290020DE
:1084900010B50288502A13D1C088CA8890420FD1E3
:1084A000086900280CD0804706480749BDE81040FD
:1084B000401AC008032101EB004004A105F05AB89E
:1084C00010BD00008C6703002C670300445253204A
:1084D000636861726163746572697374696320773C
:1084E00072697474656E000010B50288502A13D149
:1084F000C088CA8890420FD1086900280CD08047F4
:1085000006480749BDE81040401AC008032101EBA6
:10851000004004A105F02EB810BD00008C670300D8
:108520002C67030045525253206368617261637483
:1085300065726973746963207772697474656E001B
:108540002DE9F04701883B4E40F2F3194FF6FF75D5
:1085500010291BD011293ED0122954D0502946D1C0
:10856000C188F289841D914241D1618902293ED19D
:108570008688304602F082FD050038D004F10C00F8
:1085800000F0C8F9A8B3294630464EE0C17B878881
:10859000044601292BD1A846284602F06FFD0500AC
:1085A00017D02F8000202872234843464A4601688E
:1085B000C5F80A104068C5F80E0004F1100105F175
:1085C0000A0002F06FFE6872F08900280FD1294678
:1085D0002AE0042013E0808802F050FD040006D059
:1085E0006068FFF77FF808B10AF0DCF92580BDE884
:1085F000F087FFE76868FFF775F80028F7D0BDE857
:10860000F0470AF0CFB987880646384602F036FDB3
:108610000400ECD02B464A4606F1080104F10A009A
:1086200002F040FE607221463846BDE8F04700F097
:10863000D3BE0000E4290020A82200202DE9F04F3D
:10864000044686880188424897B0834610290CD09A
:10865000112950D0103019296AD01A2974D1217AE1
:108660000C09042C4DD301224CE0394D083DA8687B
:10867000C0430B9069680BA803F0A3FE0B990CA8EC
:1086800000F044FE2C220CA96846FDF7EFFE0027FF
:10869000E946A84610E000BF09EB47005FF000057F
:1086A000B0F804A008EB85005146001D03F025FE3C
:1086B0006D1C1E2DF6D37F1C0098B842ECD8142EEA
:1086C00005D317B00420BDE8F04FFEF7A7BF314631
:1086D000584603F05DFE314608F1040003F058FEF1
:1086E000E07B022830D117B03146BDE8F04F184882
:1086F000001D03F04DBE17B03146BDE8F04F03F04A
:10870000FCBD0022314601F079FD032C01D301228A
:1087100000E000220E4831460C3001F06FFD022CC3
:1087200001D3012200E0002209483146083006E06A
:10873000217A002908D1617AC1F3C002314617B00D
:10874000BDE8F04F01F05ABD17B0BDE8F08F000052
:10875000082A002010B504460748007800280AD0EF
:10876000204602F0B7FA20460AF07CFB2046BDE81E
:10877000104001F007BF10BDE022002010B51C4CD6
:108780000188606810290ED0112930D1401E606028
:108790002DD1FEF7D8FD002829D02168002926D048
:1087A000BDE810400847F8B900210122084600F052
:1087B00043FA08B1072814D107220221012000F052
:1087C0003BFA08B107280CD104220221002000F056
:1087D00033FA12220121042000F02EFA20B10728DA
:1087E00002D0216801B188476068401C606010BDFC
:1087F0002023002038B5044601882848284A801ADA
:10880000C008042202EB0040212933D012DC244AA4
:10881000224B4FF00300A3EB02024FEAD20200EB1F
:108820000240102911D0112930D1BDE838401DA1D6
:1088300004F0A0BE3B292AD0562927D11DA104F05F
:1088400099FEA088132176DF0EE020A104F092FEAD
:10885000072000F013FA08B1FEF7E0FE1E48A188D9
:1088600041801E4803F0B4FE00280FD0BDE8384018
:10887000FEF7D4BE1AA104F07DFE00200090A0886F
:1088800069468FDF002801D0FEF7C8FE38BD19A168
:1088900004F070FEA088132176DFE5E78C67030003
:1088A0002C670300446973636F6E6E65637465645F
:1088B0002E000000474154542053657276657220A3
:1088C00054696D656F75742E00000000436F6E6E05
:1088D00065637465642E000058240020143A00205B
:1088E00050485920757064617465207265717565B2
:1088F00073742E004741545420436C69656E742094
:1089000054696D656F75742E000000000078C0F327
:1089100040007047007800F00100704710B50288F1
:10892000502A1AD1821DC088CB88984215D1096976
:10893000002912D0D068D27B00BA20F0FF0010438B
:10894000884706480649BDE81040401AC008032180
:1089500001EB004003A104F00DBE10BD8C670300C5
:108960002C6703005453532063686172616374651C
:10897000726973746963207772697474656E00003C
:108980000149085C704700007B4E03000649095C02
:108990004FF0A040D0F81005C84010F0010000D002
:1089A000012080F0010070477B4E03002DE9FC415F
:1089B0000646C0074FF000050ED0104F00240122DC
:1089C000385D009500231146019504F0B1FA641C4E
:1089D000032CF4D300F046F8B0070DD5074E002461
:1089E000F61C0022305D032300951146019504F02A
:1089F0009FFA641C032CF4D3BDE8FC81784E03007D
:108A000007490B5C4FF0A041D1F8042501209840A4
:108A100020EA0203C1F808351040C1F80C05704780
:108A2000784E03000249085C012104F070BB00008D
:108A3000784E03000249085C002104F068BB000086
:108A4000784E03000649095C4FF0A040D0F80405B9
:108A5000C84010F0010000D0012080F001007047F4
:108A6000784E030010B500242046FFF7DBFF641C9E
:108A7000032CF9D310BD10B500242046FFF7DAFF10
:108A8000641C032CF9D310BD10B50246064B4FF001
:108A9000FF3000215C5C944201D1084610BD491CA6
:108AA0000329F7D310BD00007B4E030070B50C4EB8
:108AB0000C004FF0000530600BD0012000F06AF888
:108AC00008B1022004E0002000F064F800B10B209F
:108AD0002070706810B9FEF736FC0546284670BD58
:108AE0002023002010B5002000F002FA08B106286B
:108AF00006D1012000F0FCF908B1062800D10020C1
:108B000010BD00002DE9F0470D468146FFF7BCFF80
:108B10000446032836D2DFF874801B481C4EA8F1A7
:108B2000040725B3012D0ED0022D2BD104EB4400F8
:108B300030444578002D25D0F968002922D02846F8
:108B4000BDE8F047084704EB4401755C0E447178BA
:108B500049B10E4A4FF48041521E8068FEF7AAFDCB
:108B600008B987F80390B17808F80410E2E7806844
:108B7000FEF7B8FD04EB4401314418F804008D7889
:108B8000A842D7D0BDE8F087804E03001423002010
:108B9000A02D0020032801D2FFF7F8BE0020704767
:108BA00010B51D4A042822D007282AD00A281AD036
:108BB000102830D14FF0A040D0F804154FF4802297
:108BC0008A43C0F8082501F48021C0F80C15134829
:108BD0001349BDE81040401AC008032101EB0040D2
:108BE00010A104F0C7BCBDE810400AF027B913215A
:108BF000508876DF0DE000280DD0BDE81040FEF76C
:108C00000DBD5088A0F57F41FF3904D10948FFF719
:108C10009FF80828EFD110BD582400208C6703006E
:108C20002C6703006273705F6576656E745F6B65B9
:108C3000795F3200203A002070B50023032810D25B
:108C40000D4D00EB4004012A02D101290CD0002275
:108C5000094E00EB4000304461B1012906D00229E1
:108C600006D00723184670BD0E30C2B22A55F9E768
:108C70004270F7E78270F5E7A02D0020044A014614
:108C80000020127AD20702D0084600F04DB8704793
:108C90001023002070B506461E480024C0E902617A
:108CA000B00720D50025012211462846FFF7C4FF52
:108CB0006D1C0446032D02D2002CF4D013E094B9AD
:108CC00040F2333203211448FEF726FC04000AD197
:108CD000FEF710FC040006D10F48104A0021001FC7
:108CE000FEF7AEFC0446F00712D00120FFF75EFE4F
:108CF00074B909480A4A00210C38FEF7A1FC0400A7
:108D000006D10548074A01210838FEF799FC0446B8
:108D1000204670BD102300208C4E0300FD8F020002
:108D2000E1B60200E37402002DE9F05F6E4C0546E7
:108D300000266078B34618B184F801B002F0BAFC9E
:108D40006A4F4FF001084FF47A694FF4C87A182D32
:108D500069D2DFE805F00C1313384754696E727B53
:108D6000727BC58484848484B3B6BCBFC5C502F05D
:108D7000A1FC3868FEF7B6FC06465CE00120FFF770
:108D800061FE00284FF0010008D0FFF74BFE022DD6
:108D900002D14FF4E16008E0484606E0FFF74AFEE2
:108DA000022D01D1C82000E05046410CC0034FF411
:108DB0007A72801841F10001257052000023FDF7FE
:108DC00011FB01462AE00120FFF73CFE00284FF08E
:108DD000010004D0FFF726FE4FF44870E5E7FFF7E7
:108DE00029FEDFE70120FFF72DFE00284FF00100EC
:108DF00002D0FFF717FECFE7FFF71CFED4E70120F4
:108E0000FFF720FE00284FF0010002D0FFF70AFE16
:108E100001E0FFF70FFE257040F6CD4100223868D3
:108E2000FEF748FC064646E00120FFF7E9FD257005
:108E300008E0012048E025703DE084F80180022030
:108E4000FFF7DEFD002240F26661E8E784F801806A
:108E50000220FFF7D5FD00224FF40051DFE77868CC
:108E6000FEF740FC0646D5F1110000D02EB10020DF
:108E7000FFF7D8FD84F802B01DE0012816D980B2B2
:108E8000C8214843C117C90341EA5041C0034FF408
:108E90007A72801841F1000152000023FDF7A2FA16
:108EA000014600227868FEF705FC06460020FFF721
:108EB000C1FD84F802803046BDE8F09F02F0FAFB65
:108EC000B9E702F0F7FB0020FFF7B4FDB3E702F0CB
:108ED000F1FBAEE702F0EEFB0020FFF7ABFDA8E7E9
:108EE000FFF7C9FDA7E7000010230020804E030014
:108EF00001210BF03CBB00002DE9F84F0546861C14
:108F000000208DF8000091460F464FF0010A684698
:108F1000FEF7EEFB1B4C04F21C4860683860D4E995
:108F20000101194F401A3968081A0EE00121404624
:108F300003F041FA02F066FD0146404603F03BFAB9
:108F4000D4E90101401A3968081A401C8642EDD85C
:108F5000B9F1000F03D0052065F3891002E0062067
:108F600065F39F5061683A68114004EB8101C86065
:108F70006068304460609DF80000FEF7DDFB5046FD
:108F8000BDE8F88F78310020A423002070B50D468D
:108F900004460A2902D10D21FFF7F8FFA0682268D4
:108FA000411CA1601554D4E90101814204D320463B
:108FB000BDE8704003F081BC70BD000004488168CA
:108FC0004068814201D101207047002070470000B5
:108FD00078310020034630B5074800210478426804
:108FE00006E000BF02EBC10005789D4203D0491C9A
:108FF000A142F7DB002030BD2823002000780221A9
:10900000FFF780BD1CB5044601F088FF00236A46C7
:10901000092106F02BFB052805D1034801224179DF
:109020002046FFF78DF81CBDB02200201CB5044679
:109030000020009042F6A620ADF8000001208DF837
:109040000200084801AA6946006801902046A0DF96
:10905000002805D10448012281792046FFF770F8E5
:109060001CBD0000184D0300B022002005494FF040
:10907000FF32082841F8202002D3084480F8482015
:1090800070470000CC380020F0B54FF0FF3512B12A
:109090000023082601E008230C260C4C05E000BF45
:1090A00054F823707F1C04D05B1CB342F8D32846CD
:1090B000F0BD26185DB286F8305044F82310002A1F
:1090C000F5D1E11881F84800F1E70000CC38002024
:1090D0000249084490F9300070470000CC38002065
:1090E0002DE9F0438146887891B090460C4600B94E
:1090F00001208DF83E002088ADF83C000025009549
:10910000607C694609F044FE6E46A07C711C09F043
:109110003FFEE07B00289DF8020002D040F00800EE
:1091200001E020F008008DF80200217C11B140F030
:10913000100001E020F010008DF80200217B11B139
:1091400040F0010001E020F001008DF80200217DD7
:1091500009B1022100E0012161F342008DF8020013
:109160001C2102A8FDF7A9F9607BC10601D4800685
:1091700017D50E950EAFE07C791C09F009FE9DF81D
:109180003800079720F00F00401C20F0F00010304E
:109190008DF838009DF83A0020F00600801C8DF80C
:1091A0003A00607B8DF80800A07B8DF8090014213F
:1091B00009A8FDF782F90FA8CDE90906A088ADF846
:1091C0003000A06820B1E088ADF82C00A0680D90B8
:1091D000A06998B301950088ADF81000A06901ADB1
:1091E00001A94088ADF81200A06940680695039077
:1091F000A069007B09F0CCFDA069691C407B09F0E7
:10920000C7FDA069807A00289DF8060002D040F0D2
:10921000080001E020F008008DF80600A169C97A75
:1092200011B140F0100001E020F010008DF80600B0
:10923000A169097A19B140F0010002E00DE020F0C7
:1092400001008DF80600A169897B09B1022100E0C7
:10925000012161F342008DF80600E06900B105903C
:10926000434609AA02A94846AADF11B0BDE8F08327
:1092700070B504464FF6FF750A462846AC4209D140
:109280004FF480742146104603F052F880B2A04299
:109290000BD070BDFF2CFCD82146104603F038F8E7
:1092A00090F0010F01D0204670BD284670BD00002F
:1092B00070B5084C050009D010342168002907D08A
:1092C00008682060496828468847F6E70834F4E7CC
:1092D00070BD0000A0380020054A012120B10128FE
:1092E00005D19170FFF7E4BF51700020FAE7704795
:1092F000A038002010B5D0E90234D1E90220D11AFB
:10930000A04101D3012010BD002010BD73B58CB069
:109310000646002000900D9880B100246D4621463D
:109320000DA803F02AF830B1009805EB40008480C6
:109330000098401C0090641C142CF0D32C22694629
:109340003046FDF793F80EB070BD2DE9F041178857
:109350000646B81D14460D46984202D90C20BDE8B9
:10936000F0813188072206290AD34FF4486C4FF662
:10937000FF73614501D9994202D17088062801D254
:109380001046ECE7604501D99842F9D1994203D0E3
:10939000984201D08142F3D80520E8552088122157
:1093A000401C80B2208029542088401C80B220803C
:1093B000411930880AF085FF2188084480B2208056
:1093C000411970880AF07DFF218808442080002020
:1093D000C5E7FEF723B9000038B54A7A0F4B62B1F2
:1093E00000220A725969002906D001228DF8002056
:1093F000ADF802006846884738BD0A7A62B19B68BA
:109400004C68024619462046FEF754F90028F3D06E
:10941000BDE8384009F0C6BA5B68F1E7E4290020EE
:10942000F0B585B016460F4604461D4614220B497A
:109430006846FDF71BF80A488DF80870ADF8024041
:10944000ADF80A608DF80C50017800222046FEF736
:1094500077FE684600F0EEFC05B0F0BD384E030024
:10946000F0220020F0B50C4606461E481E4987B083
:10947000401AC708042000EB0740334622461BA1D0
:1094800004F083F8002004900590ADF8104001909E
:109490000290ADF8124001AA04A9304690DF050001
:1094A0001DD004F0E9FC0346012000EB0740044610
:1094B00032461A4904F069F8BDF8042012B9BDF823
:1094C000060028B1BDF80630204615A104F05DF86D
:1094D000BDF808201AB12046214904F04FF807B022
:1094E0002846F0BD2C6703002C67030055706461AB
:1094F00074696E672064617461206C656E6774685E
:1095000020746F202575206F6E20636F6E6E65630B
:1095100074696F6E20307825782E0000E4530300C4
:10952000546865207265717565737465642054585C
:109530002F5258207061636B6574206C656E677480
:109540006820697320746F6F206C6F6E672062797A
:109550002025752F2575206F63746574732E0000A8
:109560003054030070B504460948012102F03EFF63
:10957000BFF35F8F0025002808D1204602F0BCF918
:10958000002803D1BFF35F8F0148056070BD000064
:10959000BC2200202DE9FF410C4620B14FF40640CB
:1095A00004B0BDE8F0812079002748F2096538B1A0
:1095B00041F61D5601281BD0022826D0681DEFE772
:1095C0000220207102970397E0680190694601A884
:1095D00007F010F850B102988188E180008820815E
:1095E000BDF80010029807F083F8D9E72846D7E7BE
:1095F0000A4B6A460021A01D06F0B4FF38B10749A6
:1096000018398F61CF61A842CAD13046C8E70348F4
:109610008188019807F06CF8F5E7000058230020D6
:1096200010B586B01C4601908DF8081000208DF80A
:109630000B008DF80C008DF809008DF80A0014203D
:109640008DF814000948049003218DF800200E20A5
:109650008DF80D108DF8010007F076FB22460221EF
:10966000684607F097FB06B010BD00007524002087
:1096700010B502221146092008F09AF8012008F0DE
:109680006FF8402008F072F8002008F079F81148CF
:1096900008F082F807F062F90F4B01220A210F4807
:1096A000FFF7BEFF18B107F04BF9002010BD0A48C4
:1096B0000A21801C01F088FA024609480949401A2B
:1096C000C008032101EB004007A103F057FF012070
:1096D00010BD000010350600544000206B2400200F
:1096E0008C6703002C6703004E4643204163746976
:1096F0007665205032502064657669636520666F18
:10970000756E642E204E46434944333A2025730D2E
:109710000A00000070B500240F4D10E0686800EBEF
:10972000C406307804F01CFD7178012901D00121B4
:1097300000E000214140307800F0D0FA641C287825
:109740008442EBDBD5E90401084303D0BDE8704057
:109750000AF0AABB70BD00002823002010B500212C
:10976000024802F043FE80F3100010BD9435002043
:109770007047000030B58DB0B8B31D4C1D4B00686C
:1097800020610FCB8DE80F002146684662DF00287C
:1097900029D1207801258DF83200ADF83050A21C77
:1097A0000CA92846A8DF00281DD1202104A8FCF719
:1097B00084FE0220ADF8100020788DF81200ADF87C
:1097C00016501420ADF814009DF81D008DF821509E
:1097D00040F012008DF81D008DF823506088A21D06
:1097E00004A9FFF77DFC0DB030BDFFE70E20FAE7BE
:1097F00074290020D04C03004FF480328A40016865
:10980000C1F848230068C0F8082370474FF4A072DD
:1098100002EB810189B200F0D1BA2DE9F041054691
:109820000E464FF4A07000EB860081B228684FF41A
:109830008034B440984622F07F47C0F80843286837
:10984000C0F84843286804F077F8286800EB8600E1
:10985000C0F840752868C0F84443B8F1000F02D042
:109860002868C0F80443BDE8F0810068D0F804051A
:109870007047000070B54379234C44F823204279A7
:10988000231D03EBC202224C1579204A121BD40877
:109890002DB10825022000EB04401EA130E0056830
:1098A0000A88C5F8082590F904208978002A4FEA2B
:1098B000411104DB02F1E02282F8001405E002F01D
:1098C0000F0202F1E02282F8141D90F90410012227
:1098D000002909DB01F01F0502FA05F54909890095
:1098E00001F1E021C1F800514179002503EBC101EC
:1098F0000A71417943F83100032000EB04400EA1C6
:1099000003F038FE284670BD24240020A46703001D
:109910002C67030052544320696E7374616E636553
:1099200020616C726561647920696E697469616C2B
:10993000697A65642E0000005254433A20696E69CA
:109940007469616C697A65642E00000090F9040006
:10995000002809DB00F01F0201219140400980002E
:1099600000F1E020C0F8001270470A46022100F022
:10997000ABB94FF4827100F021BA00680121016097
:10998000704700680121416070472DE9F05F07468C
:109990000C464FF4A07000EB84001FFA80FA386880
:1099A0004FF48036A6409B4622F07F45C0F84863BE
:1099B0003868C0F808633868D0F8048500EB840282
:1099C000D2F84095C2F840855146386803F0B4FF9C
:1099D000A9EB080020F07F40012806D1102004F0F8
:1099E000DDFA5146386803F0A7FF3868D0F80485DF
:1099F000C0F84463A5EB080121F07F4138680129D4
:109A000000EB840010D0C0F840553868D0F8041539
:109A10006FF07F4C6A1A521E22F07F42ACEB0B03B0
:109A2000934217D362B118E06D1CC0F84055102066
:109A300004F0B4FA3868D0F8040540450AD10CE0C7
:109A400000EB84006D1CC0F840553868D0F8040560
:109A5000884202D00D20BDE8F09F012231463846F1
:109A600000F032F90020F6E713460A460021FFF71E
:109A7000D7BC00002DE9F843104D0F4680461E4626
:109A800091466946286802F00CFC040014D01C21A1
:109A9000FCF713FD01202071C4F81490380BC4F8B2
:109AA0000080C4E902606946286802F01BFC06F0E9
:109AB000D1FC0020BDE8F8830420FBE7244F03001D
:109AC0007047000030B58DB0B8B31D4C1D4B006819
:109AD00020610FCB8DE80F002146684662DF002829
:109AE00029D1207801258DF83200ADF83050A21C24
:109AF0000CA92846A8DF00281DD1202104A8FCF7C6
:109B0000DCFC0220ADF8100020788DF81200ADF8D2
:109B100016501420ADF814009DF81D008DF821504A
:109B200040F012008DF81D008DF823506088A21DB2
:109B300004A9FFF7D5FA0DB030BDFFE70E20FAE714
:109B400088290020E04C030010B503780022072B81
:109B500006D2DFE803F005040610202930000A7061
:109B600010BD01230B7003898B818388CB81C06872
:109B700088600A7410BD02220A7002898A81828874
:109B8000CA81C2688A60807D062802D000200874DD
:109B900010BD0120FBE703220A70C2888A81028976
:109BA000CA81C068886010BD04230B70C08888819A
:109BB000CA818A6010BD0520087010BD70B5064DC1
:109BC0000646002455F8241009B130468847641C25
:109BD000042CF7D370BD00001C2E002030B50446C5
:109BE000006887B00D46806800281FD0182168469D
:109BF000FCF763FC0195A0680590207910B101285D
:109C000010D107E001208DF8000020690290E06883
:109C1000039005E002208DF80000E0680003029048
:109C200060690490206881686846884707B030BD45
:109C3000F0B585B017460C0005463AD0112C38D047
:109C4000082C36D01C481D49401AC6080D2C11D0CE
:109C5000204604F011F90246012000EB06402B4695
:109C6000174903F092FC2A460721684602F080F962
:109C700002941BE0022000EB06402A46114903F043
:109C80007DFC2A460321684602F072F927B1387834
:109C9000C00701D0012000E002208DF8080000205C
:109CA0008DF80C0041F20110ADF80A00684600F092
:109CB000CFF805B0F0BD0000746703002C67030007
:109CC000D85E0300C85D03000368C3F84413002A8C
:109CD00002D00068C0F80413704700002DE9F84F67
:109CE0000E463449804601EB5001C007097801D087
:109CF0000F0901E001F00F074FF000094246012073
:109D00004946FCF7A0FBDFF8B0A004460D46052F3E
:109D10004ED2DFE807F003161B282C00002E47D098
:109D20000121404609F094FF8DF800906846FDF748
:109D3000DFFC5046D0E904120C431543CAE9044540
:109D400032E00EB1022114E0002112E04EB10321F5
:109D5000404609F07DFF4046BDE8F84F01210AF07A
:109D60008FBB012105E0002E22D1042101E02EB19C
:109D700003214046BDE8F84F09F06ABF0021404684
:109D800009F066FF002140460AF07AFB8DF800904A
:109D90006846FDF7ADFC5046E243D0E904341A4072
:109DA00024EA0501CAE904219DF80000FDF7C4FC7E
:109DB000BDE8F88FF02D00202823002010B50068A2
:109DC00042581AB103F0B8FD012010BD002010BDAB
:109DD00010B50446408801F0A1F8A080024801684F
:109DE0002046BDE810400847B822002010B50446C0
:109DF000808800F0DDFF6080024801682046BDE8F1
:109E000010400847C82200202DE9F04107460024F1
:109E1000064E074D05E000BF56F824103846884727
:109E2000641CE8788442F7DBBDE8F081142D002043
:109E3000E022002010B50446408801F06FF8A080B1
:109E4000024801682046BDE810400847F84D03006D
:109E50000149096808470000744E030070B586B0D8
:109E6000044614216846FCF728FBA0890125A0F5CB
:109E70004040ADF8040020782F4E062833D2DFE8AA
:109E800000F0320303032C4AA08900F09BF930B99B
:109E9000E08943F6FE71A0F54040884223D8A07BBC
:109EA0008DF80800207803280FD000208DF80900D5
:109EB000A0680390606850B109208DF800006068C8
:109EC0000490684605F024FB0DE00120EEE7082031
:109ED0008DF800008DF81050F3E7A08900F072F9BA
:109EE00008B1E08930B17078002801D005F064FC39
:109EF00006B070BD606830B10B208DF8000060685E
:109F000002907570DDE70A208DF80000BDF80400AE
:109F100005F0F6FCF5E7606848B114208DF8000004
:109F2000606802904FF6FF70ADF80400C9E7132097
:109F30008DF80000F6E70000CC22002038B504467A
:109F40000F480078B0B1A4F57F40FF380FD06846C5
:109F500006F0B0F988B10521017001210171C480BA
:109F6000684606F0B5F906F067FA002038BD48F2F9
:109F7000036038BD48F2016038BD48F2076038BD63
:109F8000602300200D4808B5007888B1684606F0C7
:109F900091F980B106210170684606F099F90848E8
:109FA000017809B10121017306F046FA002008BDCD
:109FB00048F2016008BD48F2076008BD6023002038
:109FC000E02E0020F0B587B014216846FCF775FA42
:109FD000304C207818B16846FFF7F0FD57E0201D9F
:109FE00002F0E6F998BB40F6F8700168481C02D10F
:109FF0004FF0102041694FF08050026940694B1CBE
:10A0000001D100FB02F1244800220161A1F5405179
:10A01000C160224902F0E6FD002823D121481C231B
:10A020008C221F49006802F029F904F0FDFF0500A9
:10A0300016D0022D14D000270126062D14D005A815
:10A0400006F038F998B106700C2D1BD200E01EE026
:10A05000DFE805F018101810181718171812141246
:10A0600048F20A6007B0F0BD26706760B3E748F2B7
:10A070000760F7E7077105E0032100E002210171A5
:10A0800000E0067105A806F023F906F0D5F90020D6
:10A09000E8E700006023002098240020344F0300EC
:10A0A0002C2E0020AC4E030038B5040014D06946B5
:10A0B00006F0A0FAB0B1BDF8000000EB80010B483B
:10A0C00000EB8100C16851B1A17A41B1C168491E5C
:10A0D000C1600020A07238BD48F2046038BD48F26B
:10A0E000056038BD48F2096038BD0000B82E002078
:10A0F0001FB501A9684606F035FA04B010BD07B5D2
:10A1000013460A466946002006F02CFA0EBD07B534
:10A1100013460A460021684606F024FA0EBD20B117
:10A1200019B1006808600020704748F20460704769
:10A13000F8B50D46040018D0BDB1694606F05AFACC
:10A14000B0B1BDF800000C4900EB800001EB8000CD
:10A1500001210C30666802F02EF92E6060680C3028
:10A1600068600120A0720020F8BD48F20460F8BDCC
:10A1700048F20960F8BD0000B82E002018B1032392
:10A1800000220AF099BB48F20460704702230022C3
:10A190000AF092BB094910B50A69042A0AD0084A94
:10A1A000096942F8210005480121103002F003F945
:10A1B000002010BD48F20B6010BD000040230020BD
:10A1C0001C2E002043F6FE71A0F54040884201D8C5
:10A1D000012070470020704710B504460078182809
:10A1E00002D1FDF789FF207010BD10B5044600783C
:10A1F000182802D1FDF780FF207010BD0AB102F0CF
:10A20000C7B802F07AB870B50D460446B0F8141419
:10A21000D0F810040122FDF7B4FC00B1057004F180
:10A220003C0204F5826104F1540072DF70BD00004D
:10A2300070B5134600220546112900D10122074CB2
:10A2400033B12179FDF77CFF00226178284600E0D8
:10A250006178BDE87040FDF773BF0000F822002070
:10A26000F7B517460E0011D00098002560B1002404
:10A270002146684602F081F818B1A0B23946B047CD
:10A280006D1C641C142CF3D32846FEBD0020FEBDBB
:10A2900010B5002821D0114B0022001F196803E0DF
:10A2A000814203D80A4649680029F9D152B113689E
:10A2B000841A9C4204D1006818441060104602E0E1
:10A2C000506000E0186039B102680B1A934203D164
:10A2D0000B681A4402604968416010BD9024002058
:10A2E000406806F007B8000010B586B09DF80C0075
:10A2F00020F00F00401C20F0F00010308DF80C0012
:10A3000001A86DDF08B1FDF789F90E2001F00EFDFF
:10A3100004469DF8050000909DF8063012A215A194
:10A320002046FCF777FD2046FCF7D2F882B22146A2
:10A3300003A87CDF08B1FDF771F9002004900590B7
:10A340005021ADF81400ADF810104FF4C870A021E2
:10A35000ADF81600ADF8121004A87ADF002801D07D
:10A36000FDF75CF906B010BD6D69616F6D69616FD5
:10A37000335F0000257325303278253032780000B5
:10A3800070B510B14FF4064070BD1C4C0025207B09
:10A3900008B1257301E000F0A5F8207808282AD23A
:10A3A000DFE800F02904080C10291422BDE87040F1
:10A3B00000F026B8BDE8704000F082B8BDE87040FB
:10A3C00000F064B8BDE8704000F040B8062020708E
:10A3D00060880A4900EB8000283901EB8000406862
:10A3E000BDE8704004F000BE072020706560BDE845
:10A3F000704004F007BE48F20E6070BDE02E0020F1
:10A400001149F0B48A1C00200346A1F128050C185C
:10A41000A67A4EB1A37200EB800405EB8404E668D3
:10A4200016B9247C012C0AD0401C80B20228EED33D
:10A430000B704B804B60F0BC41F61D507047108094
:10A44000F0BC00F03DB80000E02E00200C48418830
:10A4500001EB8102A0F1280101EB8201CA6852B12F
:10A460000521017007480221818001680023012233
:10A47000054802F01BBB042202704968F6E70000A1
:10A48000E02E0020682300209824002038B50A49D7
:10A49000084803240B684268898803EB81015388CC
:10A4A0000470DB1C00201B0400909B0B034802F08F
:10A4B00051FC38BDE02E00206823002098240020A5
:10A4C000074910B54888091D06F0E4F818B1BDE841
:10A4D0001040FFF7DBBFBDE81040FFF7B7BF00003B
:10A4E000E02E002070B5194C0121207808281AD2DE
:10A4F000DFE800F00419191C252929182089134ABE
:10A50000401C2081002060802073283A00EB8003EB
:10A5100012F8233043B100232518401C80B2AB72DF
:10A520000228F3D3217070BD0123F5E76068084964
:10A5300040888A88C01C10448880022004E000F013
:10A5400009F8062000E00720207070BDE02E0020F2
:10A55000682300200A4909484988026801EB810301
:10A560000749283901EB83014B6803604A60828800
:10A570000A8102228280002008747047682300202C
:10A58000E02E00202DE9F043064680883288DFF86F
:10A590005C8185B00746502A37D010DC5449554BB2
:10A5A00006F10A05A1EB03014FEAD1014FF00203C6
:10A5B00003EB0144352A3AD0362A07D168E0522A03
:10A5C00002D0542AF9D102E001F03AF982E01422D3
:10A5D00049496846FBF74AFFADF80270384600F07B
:10A5E0009DFCADF8040000F0CFF90022444698F835
:10A5F00004103846FDF7A4FD0022E1783846FDF747
:10A600009FFD6846FFF7E4FB64E0307B012861D1E1
:10A61000B07A01285ED13089A0F52451023959D190
:10A620000121384601F060F909F0BAFE52E098F8CD
:10A630000610FDF76DFD00284CD0002298F806109A
:10A640003846FDF77DFDF288B2F5857F17D012B14F
:10A6500020462AA10BE02A88012A03D0204636A1F1
:10A6600002F08CFF6A88012A04D0204641A102F042
:10A6700085FF04E0A98800223846A1DF08B1002147
:10A6800025E0012298F807103846FDF759FD21E032
:10A690004FF0000998F80710FDF73AFDD0B10022FD
:10A6A00098F807103846FDF74BFDF28812B12046A6
:10A6B00012A104E0AA88012A04D020462DA102F0AC
:10A6C0005DFF03E0A87900B1012081464946384684
:10A6D00009F020FB0022364998F80200FDF7B2FC91
:10A6E00005B0BDE8F04308F0D5B90000B022002065
:10A6F000346703002C670300704D0300556E6578C6
:10A7000070656374656420474154542073746174A8
:10A710007573207768696C652067657474696E6706
:10A720002043415220636861722076616C75653AFE
:10A7300020307825780000004D756C7469706C6568
:10A740002028256429204341522063686172616397
:10A7500074657269737469637320666F756E642CB7
:10A76000207573696E6720746865206669727374FA
:10A770002E000000556E6578706563746564204333
:10A7800041522063686172616374657269737469B0
:10A79000632076616C7565206C656E67746820282F
:10A7A0002564292C2073746F726520302E00000000
:10A7B0007D78020070B504460078002814D16088C6
:10A7C00001F03EF86588284600F0A0F928B1074856
:10A7D0000122C1782846FDF7B3FC6088FEF712FC21
:10A7E000BDE8704009F0DCBD70BD0000B022002063
:10A7F00070B5204C00252570FDF77EFC6070FDF7DC
:10A800007BFCA070FDF778FCE070FDF775FC207113
:10A81000FDF772FC6071FDF76FFCA071FDF76CFC39
:10A82000E07162780121182A18D0A278182A15D070
:10A83000E278182A12D02279182A0FD06279182AC1
:10A840000CD0A279182A09D0182807D004F10C00DE
:10A850000560BFF35F8F2170002070BD0648074A76
:10A86000801AC00801EB0040054902F083FE032076
:10A8700070BD0000B0220020346703002C67030085
:10A88000DC5403007CB504460078082837D1607A90
:10A8900058BB207A1C4E4FF6FF75012811D00728AF
:10A8A00002D008282BD121E0A08800F081FA0446CC
:10A8B000A84224D0012101F017F82046FEF7A2FBA0
:10A8C0001DE0A0886A46012104F044FD68B90198A2
:10A8D000007850B1A08800F06BFAA8420FD0012296
:10A8E000F178FDF72DFC08F0D5F808E0F0680128B4
:10A8F00005D1BFF35F8F044900200C310860BDE82B
:10A900007C4009F04DBD0000B022002010B50B487E
:10A91000FEF7ABFF094A083AD2E90434C018D2E97D
:10A92000063244F10001C31A71EB020204D24FF067
:10A930008072801841F1000110BD00000824002041
:10A9400001488068704700005824002010B5C0B24C
:10A95000FEF740FB0446007803F002FC01466078F5
:10A96000012801D0012000E0002090EA010F08D06A
:10A970000449D1E90401084303D1BDE8104009F0BE
:10A9800093BA10BD282300201CB5054AD2E9021253
:10A99000CDE900120022694604F0A2FE1CBD0000B1
:10A9A000884D030003484FF6FF718180012101703B
:10A9B00000207047C02200202DE9FC41804600F0B5
:10A9C000ADFA002403250127A0F57F412646FF3973
:10A9D00008D06A46082104F0BDFC18B90198841D0E
:10A9E0008688056832462B4621464046B1DF04285A
:10A9F00004D0082804D00B2808D002E0112000E081
:10AA00000020002F00D10B20BDE8FC810027A80703
:10AA100001D50125E6E7344303D00024264603256B
:10AA2000E0E7064806494246401AC008012101EB0A
:10AA30000040044902F0A2FDE5E700003C67030086
:10AA40002C670300A45703002DE9FC41804600F069
:10AA500065FAA0F57F410646FF390ED001252A464A
:10AA60006D1C0027ADB26B460821304604F0BCFCDB
:10AA7000040006D0072C33D033E043F20200BDE8D7
:10AA8000FC81019903230A1D0B604046891DB2DF3A
:10AA9000040004D00C2C09D0052C09D009E0324662
:10AAA0000821104604F018FD04461AE0012700E0D2
:10AAB00000240821304604F005FD70B103F0DCF9F4
:10AAC0000346094809493246401AC008012101EBF2
:10AAD0000040074902F059FD0324002FBFD100E0D8
:10AAE0000C242046CBE700003C6703002C670300E2
:10AAF0002457030004488088A0F57F41FF3901D026
:10AB000007F0D2BF70470000C02200200EB502A996
:10AB1000019100F003FA6A46012104F01BFC08B120
:10AB200000200EBD019800780EBD00002DE9F04117
:10AB300007464FF6FF761048B3DF78B103F09CF973
:10AB400002460E480E49401AC008012101EB0040A0
:10AB50000C4902F013FD0320BDE8F081064C43F2DE
:10AB60000305A41E324661883846AFDFA842F3D100
:10AB70006088401C6080F5E7C22200203C6703002B
:10AB80002C670300D8560300428800EB82020C3287
:10AB90008A4201D9022070478188A1F57F42FF3A9D
:10ABA00006D0018821B18068401C01D00020704788
:10ABB00001207047884204D20068401C01D0012067
:10ABC0007047002070470000F0B5214C1F4E4FF039
:10ABD000000C257818A306EBC5126746B9B1491ECB
:10ABE0008C4516D290F800E00CF1010C03EB1E1E10
:10ABF0000CF0FF0C9EF800E002F801EB10F801EBFE
:10AC00000EF00F0E13F80EE002F801EBE8E71770F4
:10AC10000AE0017803EB111109781170007800F057
:10AC20000F00185C507097702078401C00F00300F3
:10AC3000207006EBC510F0BD303132333435363775
:10AC4000383941424344454600000000AC400020F2
:10AC5000642400203EB5027802230C46B3EB520F69
:10AC600017D1B0F80110ADF80010C1788DF80210BE
:10AC70008188ADF8041080798DF8060002AA01A938
:10AC80002046FCF705FC032202A96846FBF727FCD7
:10AC900008B100203EBD01203EBD000070B50D464C
:10ACA0000446142810D2FDF767FA68B1084904EB8E
:10ACB000840001EB4000D0F802102960C188A9800F
:10ACC000007AA871002070BD43F2020070BD000040
:10ACD0007C2A002070B5018890B0102961D1011D37
:10ACE0002C226846FBF7C2FB9DF804004FF6FF7666
:10ACF00003213446B1EB500F2BD004F0AFFC9DF88C
:10AD000004006D4640080ED001280CD0022820D146
:10AD100018E00D99281D1131FCF7E8FA18B100BFB1
:10AD2000BDF82C4015E00CAA0BA9072004F06AFC22
:10AD30000028EED10DE00D99281D491CFFF78AFF70
:10AD40000028EDD10CAA0BA9072004F05BFC002819
:10AD5000F1D1BDF80000B44200EB8001124820F8A8
:10AD6000114000EB41000199C0F80210BDF8081035
:10AD7000C1809DF80A10017213D0BDF80000ADF833
:10AD80002E000020ADF83040084E8DF82C000BADA1
:10AD9000044600BF56F8241028468847641C022C3D
:10ADA000F8D310B070BD00007C2A00209C4D030039
:10ADB0002DE9F0414FF6FF760546B04213D00B4F18
:10ADC000002400BF04EB840037F81000A84206D12D
:10ADD0002046FDF7D1F910B12046BDE8F081641C92
:10ADE000A4B2142CEED33046F7E700007C2A0020F2
:10ADF0003EB50C46054604F031FC0BE0BDF8000002
:10AE0000A04207D02846029900F00EF810B1BDF814
:10AE100000003EBD01AA6946072004F0F3FB0028AC
:10AE2000ECD14FF6FF703EBD2DE9F0410C460546D2
:10AE300000F1110701F111061022491C401CFBF71B
:10AE40004EFB48B9681C00F04FFA28B1601C00F0B6
:10AE50004BFA08B1012400E0002431463846FCF7E3
:10AE600045FA3B780222B2EB530F0CD00321B1EB31
:10AE7000530F08D03378B2EB530F04D0B1EB530F1C
:10AE800001D0012100E00021084201D18C4302D011
:10AE90000120BDE8F0810020FBE7018811B94218CC
:10AEA00092780AB101207047491C0829F7D3002085
:10AEB000704710B50C460346FFF7EFFF00280AD095
:10AEC00018882188884205D10822A11C981CFBF70C
:10AED00006FB08B1002010BD012010BD142804D2CB
:10AEE000024A00EB800022F8101070477C2A0020F4
:10AEF00070B50546FFF75CFF0446284604F02EFABD
:10AF0000002808D1142C06D2034B04EB84024FF620
:10AF1000FF7123F8121070BD7C2A002010B5044682
:10AF2000142808D2FDF728F928B1044904EB84005D
:10AF300031F8100010BD4FF6FF7010BD7C2A0020C4
:10AF40003EB5044604F08AFB0EE0019920464631E6
:10AF5000FFF7AFFF28B9019920462A31FFF7A9FF73
:10AF600010B1BDF808003EBD6A4602A9072004F0F2
:10AF700049FB0028E9D14FF6FF703EBD08F0ECBB5D
:10AF800010B50A4941600A4801F012FA58B902F0B6
:10AF9000A5FE07491C238C22087404488C39001F25
:10AFA000006801F06BF9002010BD0000284F03007D
:10AFB0008C2F00202DE9F0412D4F002520B17D6020
:10AFC0004FF40640BDE8F0810879012258B1294EBE
:10AFD00001280CD0264C4FF002080834022820D05B
:10AFE000032841D127E00A7104F00CF83AE0002070
:10AFF00000EB800116F82110022908D0401C80B215
:10B000000228F5D33A707D6041F61D50DAE700EB77
:10B01000800006F8205006EB8000406803F0E4FF53
:10B0200020E00D71A4F80480002301221248216859
:10B0300001F03CFD16E00D71206803F0D5FF0D49CD
:10B0400023682831498801EB810206EB8201D1F89F
:10B0500004C0C4F800C04B60A3880B81A4F804802E
:10B0600006F822500028ADD07D6048F20D60A9E7B7
:10B0700060230020B82E00209824002001460348B9
:10B0800002888A4200D0002070470000D0290020AA
:10B090002DE9FC5F0E008346DDE90C47C6F1000098
:10B0A00098469246814600D40846012503E000BF39
:10B0B00090FBFAF06D1C5045FADAA84500D94546D8
:10B0C00024B1002E01DB780700D5641EB80702D535
:10B0D000B8F1000F0AD0F80708D13CB1A54205D25B
:10B0E00020215846641EFDF751FFF6E7002E02DAD4
:10B0F0004E462D2102E0780703D52B215846FDF757
:10B1000045FF07F0030002280BD1B8F1000F08D16A
:10B110003CB1A54205D230215846641EFDF736FFEA
:10B12000F6E7CDE90047434652463146584609F016
:10B13000DDF8BDE8FC9F000070B50D4604460068D0
:10B140004FF4887102F0B8FE4FF49071206802F05D
:10B15000B3FE4FF49271206802F0AEFE4FF4A2717C
:10B16000206802F0A9FE4FF4AC71206802F0A4FE42
:10B1700020681249C0F804132068690740F30730BB
:10B18000090E002804DB00F1E02080F8001405E03F
:10B1900000F00F0000F1E02080F8141D206840F35B
:10B1A0000730002809DB00F01F020121914040090F
:10B1B000800000F1E020C0F8001170BD10034200D3
:10B1C000024600201268530713D502F0030001283D
:10B1D00002D002280CD105E0C2F383100B68801C5A
:10B1E000184404E00223086803EB925210440860FC
:10B1F000012070472DE9F0479146884604464FF4F8
:10B2000080354FF4A0760027DFF884A016E000BF59
:10B21000D4F8040328420DD0A05958B1C4F84853BB
:10B22000C4F808533146204602F08CFB5AF8281027
:10B23000F8B28847361D6D00B6B27F1C4F45E7D384
:10B24000D4F804034FF4807110F0010F09D0D4F842
:10B25000000130B1204602F075FB5AF82810042096
:10B260008847D4F804034FF4827110F0020F0CD019
:10B27000D4F80401002808D0204602F063FB5AF8F5
:10B280002810BDE8F04705200847BDE8F08700001A
:10B290004C2400200248007A002800D0012070478A
:10B2A0008C2F0020F0B58488A518944200D822463F
:10B2B000A41AC288D6189A4200D81346D21A4B88CC
:10B2C0000788BB420CD34088834209D88888A042B3
:10B2D00006D3A84204D8C888904201D3B04201D90D
:10B2E0000020F0BD0120F0BD0021425C0AB1012028
:10B2F0007047491C1029F8D300207047800701D0FF
:10B300000020704701207047064A03881380407868
:10B3100008B1022200E003220248801CC2700860CB
:10B3200000207047982200202DE9F04300252C468C
:10B330001D80402A02D20120BDE8F08300220227AE
:10B340004FF0080C4FF020084FF0800990B1012811
:10B3500012D0022813D0032814D00C701E88001FAE
:10B36000761C521C92B2491C1E80C0B2402AEDD3FA
:10B370002846E1E70F70F1E781F800C0EEE781F8B9
:10B380000080EBE781F80090E8E7F0B500241C802E
:10B39000042A01D20120F0BD0022022608274FF026
:10B3A000200C4FF0800E10F0030506D0012D06D0C2
:10B3B000022D06D0032D09D106E00E7006E00F70B5
:10B3C00004E081F800C001E081F800E01D88521C13
:10B3D0006D1C800892B2491C1D80042AE3D32046CC
:10B3E000F0BD00002DE9FF4F83B00C4611A99A462D
:10B3F00091E82802DDE9146700200090059909B161
:10B40000022200E000220021398056494FF0020C50
:10B41000097869B122440CEB82121A80DFF8488166
:10B420002A8881214FF0040B72B1402E0ED311E017
:10B4300022442121DFF834810CEB82024FF0040B0F
:10B440001A80052E02D305E0412E03D2012007B059
:10B45000BDE8F08F14B12A881AB12FE001211980BC
:10B460002CE0BAF1000F0BD0109A4AB9039A127867
:10B4700022F0010242F00203039A13702A88EAB90B
:10B4800009F8011B3988491C761E3980B6B215E0CF
:10B49000039889B202AB405C32464946C446E04755
:10B4A0003988BDF8082011443980BDF80810894456
:10B4B000711A8EB210B92988491C29802988A142A5
:10B4C00002D20028E4D04AE0A0BB34E0009898B94A
:10B4D000109830B1621E039992B24EF21200491CCC
:10B4E00003E022464FF6FF70039905F07FF91099AB
:10B4F00001B9C04380B200908DF80400009801A902
:10B50000000A8DF80500288802AB001B3246085C53
:10B510004946C446E0473988BDF8082011443980BF
:10B52000BDF808108944711A8EB218B92988491CCF
:10B53000298002E013E004F1020A059931B12A885A
:10B540005245C3D391B2514503D008E02988A142A6
:10B5500005D189F800B03988491C398077E70D207A
:10B5600075E700009822002029B302008BB3020087
:10B570002DE9FF5F8846DDE90E710026DDF844B055
:10B580000E8081463E800078924600F01F0017280A
:10B5900001D009267EE0039800287BD001460525CE
:10B5A00000241046FAF789FFA11E01EBC80245E00E
:10B5B00009EBD50105F007030878D84000F0010336
:10B5C000681C09EBD00C00F007009CF800C02CFAB6
:10B5D00000FC0CF0010043EA4000012802D00228E0
:10B5E00005D001E0641CA4B263070ED016E00AEB9C
:10B5F000D40E04F007089EF800C0012303FA08F3F4
:10B600004CEA030C8EF800C0ECE791F800C005236B
:10B61000B3EB5C1F02D14978032911D008B103288C
:10B6200006D11098844201D31D2609E0641CA4B2FF
:10B630000398B4EBC00F03D2AD1CADB2AA42B7DC85
:10B64000E00838800F98048026BB600721D1388835
:10B6500002281ED9801E82B2BBF1000F02D04EF22A
:10B66000120001E04FF6FF70514605F0BFF8BBF144
:10B67000000F00D1C0433A88AAF1020180B2515CA8
:10B68000C3B28B4205D1AAF10101515CB1EB102F7D
:10B6900000D0152604B03046BDE8F09F026813467E
:10B6A00002E08A4204D01268002AFAD10B600160DD
:10B6B00070470000094810B5807850B1012401E0BE
:10B6C000002CFBD02046FDF7ADF9641C032CF7D30A
:10B6D00010BDBDE81040FDF7C5B9000010230020E3
:10B6E0000348017AC90702D00078FDF71DBB7047F7
:10B6F0001023002017210180418000210171417138
:10B700001B218171C17170472DE9FE4F2E4F984664
:10B7100092460D00814601D000260DE0684600F0FB
:10B720001DFC6A460021484603F070FD3878009EF3
:10B7300010B99DF8090098B152463146484607F0C5
:10B7400043FD0446014600224846FEF771FD0D2CDC
:10B7500037D008DCA4B3082C33D00B2C09D130E04F
:10B760000520BDE8FE8F112C1ED0A4F540500238F4
:10B7700027D0204602F080FB0246144814494B466D
:10B78000401AC008012101EB0040124901F0FDFE02
:10B790005FF00305B8F1000F04D032462146484659
:10B7A000FEF746FA2846DCE72A46F9784846FCF7D1
:10B7B000C7FC5246B9784846FCF7C2FC0025E9E7C9
:10B7C000FFE72546E6E70000F82200207467030043
:10B7D0002C670300805E030070B50E460C491546C9
:10B7E00004460978FCF794FC00280FD0204603F0AB
:10B7F000B3FC00282A463146204603D0BDE87040FD
:10B8000003F0B0BCBDE87040FEF72EB970BD00007B
:10B81000F022002070B5094D0646A978FCF778FCA7
:10B820000446E9783046FCF773FC01462246304670
:10B83000BDE870400123FFF767BF0000F822002039
:10B84000F0B585B00546002714216846FAF735FEA5
:10B85000A5F57F40ADF80250FF3825D02846FFF708
:10B86000ABF8040022D01B481B49401AC6080B2C19
:10B8700022D0112C1ED0A4F5405002380ED0204604
:10B8800002F0FAFA0246012000EB06402B4613496B
:10B8900001F07BFE2146284607F08CF810483A4616
:10B8A00081782846FCF74CFC05B0F0BD0E208DF8E1
:10B8B00000000BE00127F1E70F208DF800000220C7
:10B8C00000EB06402A46074901F058FE6846FEF79D
:10B8D0007FFAE3E7346703002C670300AC550300ED
:10B8E000B0220020005603000A4602494978FCF7BE
:10B8F00027BC0000B02200202DE9F041002786B0CF
:10B9000080463E46FFF7A0F8040022D0112C22D03A
:10B910001B481C49401AC508862C1ED0A4F540506F
:10B9200002380ED0204602F0A7FA0246012000EBB2
:10B930000540434614A101F028FE2146404607F089
:10B9400039F839464046FFF7CFFF06B03046BDE82C
:10B95000F0810126F5E70127F3E714221A4968462A
:10B96000FAF784FD0220ADF8028000EB0540424664
:10B9700016A101F003FE6846FEF72AFAE1E700008F
:10B98000346703002C6703006773636D5F6C6F633C
:10B99000616C5F64625F63616368655F7570646159
:10B9A000746528292072657475726E65642025732C
:10B9B00020666F7220636F6E6E5F68616E646C6587
:10B9C0003A20256400000000484D0300466C617376
:10B9D000682066756C6C2E20436F756C64206E6FEA
:10B9E000742073746F7265206461746120666F7275
:10B9F00020636F6E6E5F68616E646C653A202564CB
:10BA0000000000002DE9FF410026244800F0CDFC95
:10BA10002248001F074600F0C8FC214C2149A068BD
:10BA200000900D6800E000986946284004EB800013
:10BA30000C30FFF7C5FB0028F5D101AA009901EAF7
:10BA4000050304EB8303491CDB6842F82030401CEB
:10BA500000910228F2D3019800F0030001280BD0D6
:10BA6000022810D10198032101EB90500099BDF8F4
:10BA70000A6001EB900005E00198BDF80A60C0F390
:10BA8000831008440090384600F08CFC08B1009800
:10BA9000A06004B03046BDE8F08100009035002081
:10BAA00078310020A42300204FF4804888B041461C
:10BAB000002001F0D3FD08B1FBF7B0FD01F024FC3C
:10BAC000FBF7CAFD08B1FBF7A9FD754A01217548CE
:10BAD000FBF7B6FD08B1FBF7A1FD00F011FE08B1C0
