S31500026000B0690020C1630200C9630200CB630200CB
S31500026010CD630200CF630200D163020000000000DC
S31500026020000000000000000000000000D363020030
S31500026030D563020000000000D7630200D9630200A4
S3150002604081660200DB630200496B020059670200A7
S31500026050DB630200DB630200CD650200DB63020044
S31500026060DB630200DB630200DB630200DB63020028
S31500026070DB630200DB630200DB630200DB63020018
S31500026080DB630200D9660200DB630200DB63020007
S31500026090DB630200DB630200AD670200DB63020022
S315000260A0DB630200DB630200DB630200DB630200E8
S315000260B0DB630200DB630200000000000000000058
S315000260C0DB630200DB630200DB630200DB630200C8
S315000260D0E9660200DB630200DB63020000000000E7
S315000260E000000000000000000000000000000000A8
S315000260F00000000000000000000000000000000098
S315000261000000000000000000000000000000000087
S315000261100000000000000000000000000000000077
S315000261200000000000000000000000000000000067
S315000261300000000000000000000000000000000057
S315000261400000000000000000000000000000000047
S315000261500000000000000000000000000000000037
S315000261600000000000000000000000000000000027
S315000261700000000000000000000000000000000017
S315000261800000000000000000000000000000000007
S3150002619000000000000000000000000000000000F7
S315000261A000000000000000000000000000000000E7
S315000261B000000000000000000000000000000000D7
S315000261C000000000000000000000000000000000C7
S315000261D000000000000000000000000000000000B7
S315000261E000000000000000000000000000000000A7
S315000261F00000000000000000000000000000000097
S31500026200DFF80CD000F0A4F90048004745BB0200B5
S31500026210B069002030B4044654E8000F0D4644E845
S315000262200053002BF8D1156030BC704730B40446D9
S3150002623054E8000F40EA010544E80053002BF7D169
S31500026240156030BC704730B4044654E8000F00EACB
S31500026250010544E80053002BF7D1156030BC7047A6
S3150002626030B4044654E8000F80EA010544E80053BE
S31500026270002BF7D1156030BC704730B4044654E8A1
S31500026280000F00EB010544E80053002BF7D115601F
S3150002629030BC704730B4044654E8000FA0EB010549
S315000262A044E80053002BF7D1156030BC704770B438
S315000262B004464FF0000054E8006F0D68AE4207BF77
S315000262C044E80023012044E800630E60002B1CBF53
S315000262D00020F0E770BC704730B4044654E8000F63
S315000262E088422CBF451A054644E80053002BF5D1D7
S315000262F0156030BC7047000030B450E8012F93B2ED
S31500026300C48923448489A34228BF1B1B0489A34250
S3150002631002BFBFF32F8F002007E0C3EA020340E863
S315000263200134002CE9D14FF001000A6030BC7047FD
S3150002633050E8012FC2EA024240E801210029F7D1C2
S31500026340704730B450E8022F1FFAA2F3C488A34262
S3150002635002BFBFF32F8F00200DE0C4892344848936
S31500026360A34228BF1B1BC2EA034340E80234002CA7
S31500026370E8D14FF001000A6030BC704750E8022FA6
S31500026380C2EA224240E802210029F7D170470346B9
S3150002639053E8022FD988B2EB324F4FF0000017BFF5
S315000263A092B241EA014142EA014104E05A68B2EB83
S315000263B0324F08BF012043E80212002AE8D1704793
S315000263C00648804706480047FEE7FEE7FEE7FEE787
S315000263D0FEE7FEE7FEE7FEE7FEE7FEE7B16702003D
S315000263E0016202002DE9F05F0546002092469B46B7
S315000263F088460646814640241BE0284641464746D3
S31500026400224600F094F853465A46C01A914110D3D8
S3150002641011461846224600F016F82D1A67EB0108B7
S315000264204F4622460120002100F00DF817EB000925
S315000264304E41201EA4F10104DFDC484631462A46BD
S315000264404346BDE8F09F202A04DB203A00FA02F117
S31500026450002070479140C2F1200320FA03F319434A
S315000264609040704700487047EC2A03000649074AE5
S315000264700868504343F239021044086040087047E6
S315000264800149086070470000682400206D4EC6412D
S3150002649010B5431A934209D28318881803E010F8FC
S315000264A0011D03F8011D521EF9D210BD40EA010377
S315000264B09B0703D009E008C9121F08C0042AFAD2B2
S315000264C003E011F8013B00F8013B521EF9D210BD60
S315000264D0D2B201E000F8012B491EFBD2704700221E
S315000264E0F6E710B513460A4604461946FFF7F0FFCB
S315000264F0204610BD421C10F8011B0029FBD1801A50
S31500026500704730B504460020034600E05B1C934208
S3150002651003D2E05CCD5C401BF8D030BD034611F8D7
S31500026520012B00F8012B002AF9D118467047202AC0
S3150002653004DB203A21FA02F00021704721FA02F325
S31500026540D040C2F12002914008431946704700002C
S31500026550064C074D06E0E06840F0010394E80700A8
S3150002656098471034AC42F6D3FFF74EFE583F03006D
S31500026570783F030070B58C1810F8015B15F007031D
S3150002658001D110F8013B2A1106D110F8012B03E0C4
S3150002659010F8016B01F8016B5B1EF9D12B0705D4CC
S315000265A00023521E0DD401F8013BFAE710F8013B15
S315000265B0CB1A921C03E013F8015B01F8015B521E31
S315000265C0F9D5A142D8D3002070BD00002DE9F843C9
S315000265D00025DFF894804FF4807601242F4600953B
S315000265E0304606F059FC38B1D8F80403204203D0ED
S315000265F0304606F047FC2543361D64007F1CB6B2C2
S31500026600082FEDD34FF4BE74204606F045FC48B180
S31500026610204606F037FC45F000456A460121002077
S3150002662006F0F2FB15F0FF0F16D0012600242E42CB
S315000266300ED008EB8401D1F81005D1F81015C0F37D
S3150002664004200A4AC1F3014152F8242002B19047BC
S315000266507600641C082CEAD3002D02DA684609F09B
S315000266601BFCBDE8F883000000600040E034002017
S31500026670142007F067BB0121142007F087BB000036
S3150002668070B54FF48076304605F0E8FE114CB5053C
S3150002669060B1304605F0E9FE0120C5F808036079CD
S315000266A020B9012060712168002088474FF4827664
S315000266B0304605F0D3FE00280AD0304605F0D5FE56
S315000266C00220C5F808032168BDE87040012008478A
S315000266D070BD00003024002002490248091F0968E3
S315000266E0006808471824002004220021014804F00B
S315000266F097BF00000040024000F02CBA70B50E466B
S31500026700144900EB400001EBC0051446E86A18354F
S3150002671020B101280FD0022805D113E0284600F047
S315000267204DFAA04201D2002411E022463146284603
S3150002673000F07CFA0BE0284600F040FAA042F4D2C0
S315000267400446F2E73146284600F043FA044620465C
S3150002675070BD00002C320020F8B51248124E0446D5
S315000267604FF48C7107F032FA00281AD00025C4F8CB
S315000267701851D4F818010090F07F3446FF2806D04D
S31500026780A17F11B106F056FB01E006F069FB6577C1
S315000267902572D4E9002101B004F10800BDE8F040F9
S315000267A01047F8BD003000403C35002007F050B9D4
S315000267B0F0B5D34AD3494FF080541368D4F8300168
S315000267C00978D4F83421451CC1F3031107D0844655
S315000267D0164601270025BCF1060F04D013E003F08C
S315000267E0FF0C0E46F5E7032E05D0042E03D0052E28
S315000267F001D0062E07D1B4F82463DFF80CC3C6F322
S315000268000426CCF80060DEB2062E06D1032904D196
S31500026810DFF8FCC2BD4ECCF87460461C06D0844636
S315000268204FEA0206BCF1060F04D013E003F0FF0C98
S315000268300E46F7E7032E05D0042E03D0052E01D00F
S31500026840062E07D1D4F84462DFF8C8C2C6F3423630
S31500026850CCF80060DEB2062E08D1032906D1AE4E70
S31500026860D6F800C02CF0807CC6F800C0461C05D0C5
S3150002687084461646BCF1060F04D014E003F0FF0C62
S315000268800E46F7E7032E05D0042E03D0052E01D0BF
S31500026890062E08D14FF08046C6F80C51C6F81051A4
S315000268A09C4E361F3560DEB2062E08D1032906D16C
S315000268B0DFF860C203260CF1640CCCF80060DEB28D
S315000268C0062E11D103290FD1DFF850C20526CCF8C6
S315000268D00060924E78363760904E083635600CF17D
S315000268E0040C3F26CCF80060461C05D084461646AA
S315000268F0BCF1060F04D087E003F0FF0C0E46F7E763
S31500026900032E7CD0042E7FD0052E01D0062E7BD1FD
S31500026910834E3668DFF80CC2CCF80060804E361D16
S3150002692036680CF1040CCCF800607D4E08363668E9
S315000269300CF1040CCCF80060794E0C3636680CF17A
S31500026940040CCCF80060764E103636680CF1040C56
S31500026950CCF80060724E143636680CF1040CCCF892
S3150002696000606F4E18363668DFF8B8C10CF1200C9D
S31500026970CCF800606A4E1C3636680CF1040CCCF872
S315000269800060674E203636680CF1040CCCF80060C5
S31500026990634E243636680CF1040CCCF80060604E67
S315000269A0283636680CF1040CCCF800605C4E2C36A6
S315000269B036680CF1040CCCF80060594E3036366855
S315000269C0DFF860C10CF1400CCCF80060544E34364E
S315000269D036680CF1040CCCF80060514E3836366835
S315000269E00CF1040CCCF800604D4E3C3636680CF1C6
S315000269F0040CCCF800604A4E4036366800E003E0EC
S31500026A000CF1040CCCF80060461C05D084461646F0
S31500026A10BCF1060F04D011E003F0FF0C0E46F7E7B7
S31500026A20032E05D0042E03D0052E01D0062E05D145
S31500026A30D4F858423C4E04F04F043460441C04D04F
S31500026A4003461146062B02D010E0DBB2FAE7032911
S31500026A5005D0042903D0052901D0062906D13349D8
S31500026A600B68DB0702D06FF001030B6006280CD11E
S31500026A70032A0AD0042A08D0052A06D0062A04D1F7
S31500026A802B48016841F4806101602348743801682B
S31500026A9041F470010160BFF34F8FBFF36F8F4FF068
S31500026AA01021D1F80002002803DBD1F804020028E5
S31500026AB022DA204A176020480368002BFCD01523EF
S31500026AC0C1F800320468002CFCD0C1F80432016817
S31500026AD00029FCD0156001680029FCD0BFF34F8F56
S31500026AE00D48F0380168154A01F4E061114301606E
S31500026AF0BFF34F8F00BFFDE7124911480860F0BD92
S31500026B00E00F00F0E80F00F0403501400DF0ADBA9D
S31500026B1000C007403C050040FCED00E01056004076
S31500026B200404001020C50040E40E004000040040AA
S31500026B303C17004004E5014000E401400400FA0568
S31500026B400090D0036424002001480068004700003A
S31500026B504024002010B5124C02202061606111A071
S31500026B60A06104F17800E0614FF400702062002019
S31500026B70A06260620BA1A164E06204F51E71E16489
S31500026B801021A065C4E91410E06509A1E01DFFF714
S31500026B90C5FC08A12046FFF7C1FC2020A07110BD4C
S31500026BA02C3200205465726D696E616C0000000023
S31500026BB05254540053454747455200000269C16882
S31500026BC08A4203D88068401A104400E0501A401ED8
S31500026BD070472DE9F047C4681746894606464FF0C6
S31500026BE000083069A04201D9051B02E0B168201AEB
S31500026BF00D1AB0686D1E001BA84200D80546BD429C
S31500026C0000D33D4670682A4620444946FFF740FCB9
S31500026C10B0687F1B2C44A844A944A04200D100249A
S31500026C20F460002FDDD14046BDE8F0872DE9F04142
S31500026C3004468846D4E90207C51BE1686068164621
S31500026C400844B54206D94146FFF722FCB819E0606E
S31500026C50BDE8F0812A464146FFF71AFC761B08EB8F
S31500026C60050132466068FFF713FCE660F0E70000B4
S31500026C700FB4084B10B504A902AA039800F02EF827
S31500026C80044602A9002000F05AFA204610BC5DF81C
S31500026C9014FB00003F71020002E008C8121F08C17F
S31500026CA0002AFAD170477047002001E001C1121F85
S31500026CB0002AFBD1704700000121202803DA814017
S31500026CC00548014003E0402802DA2038814009B134
S31500026CD00120704700207047FC06FFBD2DE9FF4FDB
S31500026CE08DB00F460546002606E025280BD0DDE9C5
S31500026CF00F1290476D1C761C28780028F5D111B02A
S31500026D003046BDE8F08F0024A246A1460122EC4996
S31500026D1000E0044315F8013F203B02FA03F0084263
S31500026D20F7D128782A2810D06FF02F022878A0F100
S31500026D303001092914D80AEB8A0102EB410144F019
S31500026D40020400EB010A6D1CF0E701CF5FEA000ABC
S31500026D5003D544F40054CAF1000A44F002046D1C3F
S31500026D6028782E2817D115F8010F44F004042A2892
S31500026D700ED06FF02F022878A0F1300109290AD827
S31500026D8009EB890102EB410100EB01096D1CF2E7F7
S31500026D9057F8049B6D1C28786C280FD006DC4C280B
S31500026DA017D068280DD06A2814D104E0742810D0B0
S31500026DB07A280FD10DE044F400140AE044F480145A
S31500026DC001E044F440146978814202D104F580144A
S31500026DD06D1C6D1C2A786E2A1FD00CDC632A31D0FA
S31500026DE004DC002A8BD0582A11D1A3E0642A68D089
S31500026DF0692A0CD165E0732A2ED004DC6F2A73D07F
S31500026E00702A04D19BE0752A6FD0782A6ED010467C
S31500026E10DDE90F129047761C50E1C4F302500228B6
S31500026E2006D0032809D0042801CF09D0066045E11F
S31500026E3001CFF117C0E9006140E101CF06803DE1D3
S31500026E4006703BE117F8040B8DF8000000208DF860
S31500026E500100EB46012003E057F804BB4FF0FF3078
S31500026E6061074FF0000102D40DE008F101018846E6
S31500026E7049450FDA8045F8DB1BF808100029F4D1E2
S31500026E8008E008F1010188468142FADB1BF8081086
S31500026E900029F6D1DDE90F23AAEB08008146214637
S31500026EA000F036F9304400EB080604E0DDE90F1283
S31500026EB01BF8010B9047B8F10108F7D22146484664
S31500026EC0F7E00A21C4F302534FF0000B0891022B9C
S31500026ED004D001CFC117032B09D00AE0FF1D27F00A
S31500026EE00707F7E8020108E032E01FE020E000B2FF
S31500026EF0C117042B01D140B2C117031E71F1000361
S31500026F0007DA4FF0000CD0EB0C006CEB01012D23DD
S31500026F1002E0230504D52B238DF82430012303E058
S31500026F20E30701D02023F7E7984658E00A2110E04C
S31500026F3010210EE010204FF0000B08900CE01021FB
S31500026F404FF0000B44F004044FF00809089103E0E7
S31500026F5008214FF0000B0891C4F30253022B04D010
S31500026F6001CF0021032B06D006E0FF1D27F00707FD
S31500026F70F7E8020103E080B2042B00D1C0B24FF061
S31500026F80000823072BD5702A07D0DDF820C08CF025
S31500026F90100C5CEA0B0C05D00EE040238DF8243071
S31500026FA0012308E050EA010306D030238DF824308D
S31500026FB08DF8252002239846DDF820C08CF0080CB7
S31500026FC05CEA0B0C0BD150EA010301D1630706D52B
S31500026FD030238DF824304FF00108A9F10109582A0F
S31500026FE004D038A20B9208AA0A920BE03AA2F9E759
S31500026FF05B46089AFFF7F6F90B9B9B5C0A9A521EB0
S315000270000A92137050EA0102F2D10A98ADEB00001F
S3150002701000F1200B600702D524F4803401E04FF022
S315000270200109D94502DDA9EB0B0000E0002000EBC7
S315000270300B0141440890AAEB010AE00306D4DDE9FC
S315000270400F232146504600F063F806444FF000092C
S3150002705008E009A911F80900DDE90F12904709F1C4
S315000270600109761CC145F4DBE0030CD5DDE90F23EB
S315000270702146504600F04CF8064404E0DDE90F12C2
S3150002708030209047761C0899481E08900029F5DCA6
S3150002709008E00A980A990078491C0A91DDE90F125C
S315000270A09047761CBBF10001ABF1010BF1DC2146E6
S315000270B05046DDE90F2300F019F806446D1C1BE665
S315000270C009280100303132333435363738396162B6
S315000270D0636465660000000030313233343536377A
S315000270E03839414243444546000000002DE9F0414B
S315000270F0044600251E461746880404D405E0394690
S315000271002020B0476D1C641EF9D52846BDE8F081E3
S315000271102DE9F041044600251E469046C80301D5D6
S31500027120302700E02027880404D505E0414638468A
S31500027130B0476D1C641EF9D52846BDE8F0810A6881
S31500027140531C0B601070704710B560B159B10278CC
S315000271500B785208B2EB530F05D10622401C491C8C
S31500027160FFF7CFF908B1002010BD012010BD80073E
S3150002717001D00020704701207047C3688B4206D8B1
S3150002718011440069491E814201D80120704700203E
S3150002719070470000F0B587B0304C0025ADF81850A6
S315000271A0E068401CE0606169E9B3491E61618DF8DF
S315000271B000501121ADF804008DF801108DF806502B
S315000271C0FFF754F9C82190FBF1F201FB12001430CB
S315000271D081B2ADF80C1060690490A0680590204851
S315000271E0012607270670E26802EB820307EB4303D8
S315000271F04370828002EB4202857120F8221000EB76
S315000272008207049B7B600598B860164F07EB8202E3
S3150002721042F80C1DC2E9013002F01AFF02F0A0FE8C
S315000272200C21E06800E008E0B0FBF1F201FB12007D
S3150002723028B1684602F076FA03E00B49B6E7E56044
S315000272402670E0680321B0FBF1F201FB1200ADF8F3
S31500027250180006A802F04AFC07B0F0BD4824002038
S31500027260E4420020243A00200075120090F824001F
S31500027270012801D01F207047EE20704710B5012269
S315000272800221002001F0BEFC08B1072818D107220E
S315000272900221012001F0B6FC08B1072810D1002115
S315000272A00A22084601F0AEFC08B1072808D11022CE
S315000272B00121022001F0A6FC08B1072800D1002016
S315000272C010BD000000B5B3B0AC216846FFF707F960
S315000272D030A86DDF08B100F03DF900202EA930AAD2
S315000272E0C0F1050313445B780B54401C0628F7DBF8
S315000272F033202D91ADF8AC00022106208DF8001046
S31500027300ADF8B0002BA9099100218DF802108DF875
S31500027310030001208DF87C004FF4F070229044F2B5
S3150002732050602390074829906946074800F0FBFB06
S3150002733008B100F00FF90121034800F0F1FB33B068
S3150002734000BD000051E70200F03500201149124A43
S3150002735010B5891ACC0868B1032000EB04400FA1CE
S3150002736005F0B8FF08F028FD002812D0BDE810404D
S3150002737000F0F0B803210D4800F0A3FC08B100F0BC
S31500027380E9F8042000EB0440BDE8104008A105F02E
S31500027390A1BF10BDF83F0300983F03004572617319
S315000273A06520626F6E64732100000000F0350020D4
S315000273B04164766572746973696E6720737461726B
S315000273C07465642E0000000070B58CB015460E463A
S315000273D000236C46C3F10F01415CE1545B1C102B88
S315000273E0F8D30D2104F11000FFF779F80020C0F15F
S315000273F00F02315C2244401C11740328F7D36846FD
S3150002740046DF0020C0F10F01214491F820102954D3
S31500027410401C0328F6D30CB070BD002001F0CCBA94
S315000274200149C97800F010BEE022002070B50024A0
S31500027430064D06E06868012110F8340006F0A6FC45
S31500027440641C28788442F5D3002070BD18230020DE
S31500027450F8B516460C4605460A2A01D20720F8BD9B
S3150002746006F08EFD18B906F051FD0028F7D1134F2C
S31500027470102113487D603C70BE60FFF730F8002093
S31500027480C7E904000F4E0DE005EBC4003168009118
S3150002749081788DF8011000780B4A694606F0C6FC21
S315000274A00028DCD1641EE4B2EED2BDE8F8400548FD
S315000274B00021064A001D00F05FB8000018230020D4
S315000274C058290020AC26030009AE020025960200C8
S315000274D072B605F09FFF00BF05F0E0FD0028FBD164
S315000274E011481249401AC408012000EB044010A1B9
S315000274F005F0F0FE11480068C00700D000BE022069
S3150002750000EB04400EA105F0E5FEBFF34F8F0B48DA
S31500027510E43801680E4A01F4E06111430160BFF3E9
S315000275204F8F00BFFDE70000F83F0300983F0300BE
S31500027530466174616C206572726F7200F0ED00E054
S3150002754053797374656D207265736574000000006B
S315000275500400FA050EB500210091CDE901106A4634
S3150002756044F20100FFF7B4FF0EBD0000014802F02D
S3150002757092B90000F82300203AB10068012942615D
S3150002758000D00021016100207047072070470000EB
S3150002759038B5114808235822416800910F490068FE
S315000275A004F039FD002815D10D4A69460D4802F04E
S315000275B077F904000ED101210A4802F0ECF9012301
S315000275C0094A1946074802F03EF9064901200839D8
S315000275D00870204638BD000010290300C83100207B
S315000275E071050300F8230020FFFF7F0070B50446F3
S315000275F0007F0D4608B1002070BDA26103F0EAFBD0
S31500027600401941F10001C4E90201206900B1256176
S315000276102146BDE8704000200AF02CB90146002040
S31500027620087701200AF026B930B5EFF3108172B659
S315000276300D4A9468012324B10370002900D162B671
S3150002764030BD93604FF0E023D3F88051074C2540BC
S315000276501560C3F88041D3F8844154605A17C3F8C1
S31500027660842100220270E8E720320020FC06FFBDDA
S315000276700B498A68002A11D000280FD1EFF3108037
S3150002768072B60B684FF0E022C2F800314B68C2F8BE
S31500027690043100228A60002800D162B670470000D9
S315000276A0203200202DE9F041064608680C46411CAE
S315000276B04FF0A0474FF0010506D005FA00F1C7F8D2
S315000276C00815206805F07AFB6068411C02D000218B
S315000276D005F058FB3168A069C1F82405607D227D5A
S315000276E031681043C1F86C05D4E900123068C0F85D
S315000276F01425C0F80C15207D012815D1A068411C5F
S3150002770002D0002105F03EFBE068411C05D0854011
S31500027710C7F80855E06805F051FBD4E90212306853
S31500027720C0F80825C0F81015BDE8F0812DE9F04132
S31500027730064608680C46411C4FF0A0474FF001056B
S3150002774006D005FA00F1C7F80815206805F040FBD7
S315000277506068411C02D0002105F01DFB3168A0695A
S31500027760C1F82405607D217D32680843C2F86C05A4
S31500027770D4E900123068C0F80C15C0F81425207D33
S31500027780012815D1A068411C02D0002105F003FB97
S31500027790E068411C05D08540C7F80855E06805F049
S315000277A017FBD4E902123068C0F80825C0F8101594
S315000277B0BDE8F08104F092B82DE9F04781460588CC
S315000277C04A484FF000088AB001784246284600F03F
S315000277D053FC99F80500400701D4002176E005F52F
S315000277E08077B8B205AB0122072107F0C7FC040077
S315000277F03F48404A4FF00101A0EB02004FEAD00099
S3150002780001EB00460AD0204606F002FA024630464E
S315000278102B46394905F069FD214629E0284603F041
S3150002782093FD4FF6FF71044688422BD18A4606988D
S3150002783003F0F4FC0446504510D00146284603F0F6
S3150002784063FD2846FFF7ECFDE0B9284609F046F944
S315000278502846FFF7E5FD0028BFD013E007F064FED7
S315000278600446504508D1304624A105F033FD0421D3
S31500027870284609F061F9B0E70146284603F044FDBF
S315000278804FF00108B8B22246072107F0EFFC0700C5
S315000278901BD0862F1ED006F0BBF9024630462B4679
S315000278A02349009405F029FD3946284609F044F992
S315000278B00021484607F05AFBB8F1000F02D02046D5
S315000278C003F02CFD0AB0BDE8F0870121484607F017
S315000278D04DFBF7E7142217496846FEF7D9FDADF8C6
S315000278E00250684602F0CCFAEFE70000E0220020E0
S315000278F0D83F0300983F030014340300436F756CAE
S3150002790064206E6F7420616C6C6F63617465206EA7
S31500027910657720706565725F696420666F7220699B
S315000279206E636F6D696E6720626F6E642E00000073
S31500027930303503002C2603002DE9FC470025178865
S315000279400646158090F82D001446894630B13A460F
S315000279502146484600F0B6FB051E09D1B0784FF025
S315000279600C0A18B32088C846001DB84202D95046F0
S31500027970BDE8FC87684679DF0028F9D12088032113
S3150002798008F8001020881921401C80B2208008F8CF
S3150002799000102088401C80B2208000EB0801BDF850
S315000279A000000AF0AEF9218808442080F07802220D
S315000279B0C8B1218896F9033001F1030C4846BC454B
S315000279C0D5D8425421884FF0010C491C89B2218036
S315000279D000F801C02188491C89B2218009F80130CA
S315000279E02088401C20807068B8B1218890F9003048
S315000279F001F1030C4846BC45B9D8425421880A22F3
S31500027A00491C89B2218042542188491C89B22180AD
S31500027A1009F801302088401C2080308950B1CDE918
S31500027A2000474B460622022106F108000AF058FAE0
S31500027A30051E9DD1308A50B1CDE900474B4607223B
S31500027A40032106F110000AF04BFA051E90D1308B85
S31500027A5050B1CDE900474B461522142106F1180014
S31500027A600AF03EFA051E83D1306A30B13B46224601
S31500027A70494601F050FC051EDBD1706A30B13B4627
S31500027A802246494604F0A2F9051ED2D196F82C00E8
S31500027A9038B13B4622464946304609F0B1F9051E41
S31500027AA0C7D1307838B13B4622464946304604F0C3
S31500027AB01BFA051EBDD128465AE718B50446002012
S31500027AC0ADF8000013466A46204600F006F8002884
S31500027AD002D0BDF80000204418BD70B5E0B1DAB19D
S31500027AE0002402E0045D2C44A4B2651C8D4206D239
S31500027AF01688A642F6D8061976789E42F2D18C42AC
S31500027B000AD2A31C005D9BB200B1401E0004000C09
S31500027B1002D01C188C4201D9002070BD138070BDA2
S31500027B2080F8301070472DE9F0410D00044606D06A
S31500027B302CB195F87A000026012803D006E00E2023
S31500027B40BDE8F08195F89800012829D0D5F8A00063
S31500027B50042825D0D5F89C00042821D04FF001082E
S31500027B60A6702C2205F17801201DFEF791FC84F8FF
S31500027B703060D5F8A4006063D5F8A800A0634FF67C
S31500027B80FF70A4F8240404F58260C4F82004C4F843
S31500027B902664A4F82A6484F82C64207810B104E0E0
S31500027BA00720CDE7FF2084F8540004F1550720464C
S31500027BB0C4F81074FFF75AFBA4F8140404F2144232
S31500027BC039462846FFF7B8FE0028B9D104F231201B
S31500027BD0C4F818042046FFF749FBA4F81C0404F273
S31500027BE01C4205F13C00D4F81814FFF7A5FE002844
S31500027BF0A6D184F85180208BA4F8480084F83C80F2
S31500027C00266484F85060606900216064454604F188
S31500027C103C02781E72DF002892D1257090E710B5DB
S31500027C200288102A1BD0112A20D0262A1DD1007ABA
S31500027C300C46012801D0022817D1A0780521401C44
S31500027C40B0FBF1F201FB1201204600F03AF80028DF
S31500027C500BD0A16B002908D0BDE810400847C27BB3
S31500027C60012A02D18088A1F8240410BD0C46002105
S31500027C7084F82E148088B4F824148842F5D1207929
S31500027C800028F2D10121DFE710B5044690F854002E
S31500027C9074DF012084F82E04002084F8300484F86E
S31500027CA050000621204602F012FD002808D1A178D4
S31500027CB0204600F006F810B1A16B01B188470020FA
S31500027CC010BD2DE9F05F044600780F4698B1A77003
S31500027CD00025C4F82654A4F82A5484F82C54A07912
S31500027CE0012608B1012F09D0E07980B1012F05D014
S31500027CF0022F03D00BE00820BDE8F09F616B21B193
S31500027D0084F82D640820884701E084F82D5404F293
S31500027D10274100200A5C0AB1304603E0401C0628CF
S31500027D20F8D300204FF002084FF0030B012F06D0C4
S31500027D30022F0CD0032F0FD0042F15D110E0A179FA
S31500027D4029B194F8241011B908B130460DE0E17951
S31500027D5011B108B1404608E0207A08B1584604E05D
S31500027D60607A08B1042000E02846A070616B41B138
S31500027D70032801D0042804D1607910B194F82E04A6
S31500027D8098B184F82F5404F13C0018210746FEF7F7
S31500027D90A6FB84F83C6004F12C0007F0F7FC58B10E
S31500027DA094F82C0084F8510008E084F8305484F8E2
S31500027DB02F6407208847E6E784F8516094F8240088
S31500027DC058B104F1280007F0E1FC20B194F828002C
S31500027DD084F8520001E084F8526084F85050A27888
S31500027DE004F2264104F582694FF0060A052A64D296
S31500027DF0DFE802F07C030F22420084F83160C4F807
S31500027E002054C4E9101584F83C808020A4F8480068
S31500027E1055E084F8318094F82420384612B10722BE
S31500027E20027001E080F800B0228A8281C4F82054F0
S31500027E304160E168B96042E06069B860208BB88150
S31500027E4094F824003D460028204602D084F83CA03F
S31500027E5001E084F83C600AF00FF850B185F814800E
S31500027E600421204602F033FC38BB052184F8311088
S31500027E7021E084F831B01EE0E069B860208CB88158
S31500027E8094F824003D460028204602D084F83CA0FF
S31500027E9001E084F83C6009F0EFFF48B185F81480F0
S31500027EA00421204602F013FC38B984F831A002E01E
S31500027EB0042084F83100C4F82094A07878B13A46B8
S31500027EC004F15400D4F8201472DF00287FF414AFB2
S31500027ED094F8301094F8540073DF0028F6D1616BE1
S31500027EE011B194F831008847002005E784F8315033
S31500027EF0F5E7000070B5040012D001461C221448B2
S31500027F00FEF7C6FA1248134D0560206850B17ADFB3
S31500027F10002806D12068016829604068686005E08B
S31500027F200E2070BD0B487BDF0028FAD108484FF6B9
S31500027F30FF711438084A20F8041B054934390160D8
S31500027F400021FFF719FB0028EBD0032070BD0000CB
S31500027F504C25002096220020111E030010B504466F
S31500027F6000F0A6F8002805D02146BDE810400248D8
S31500027F7004F0D0B810BD00007825002070B5154673
S31500027F800E46044609F084FF002809D0054800EB96
S31500027F908400C0692A463146BDE8704002F0C4BB7F
S31500027FA070BD00006825002010B5044600F080F878
S31500027FB0002805D02146BDE81040024804F0AAB8C0
S31500027FC010BD00008025002010B5044600F070F8B0
S31500027FD0002805D02146BDE81040024804F09AB8B0
S31500027FE010BD00007C25002070B50546002400F077
S31500027FF05FF838B12946044804F08CF808B1022427
S3150002800000E00124204670BD7425002070B50546A7
S31500028010002400F04DF838B12946044804F07AF8F5
S3150002802008B1022400E00124204670BD702500201C
S3150002803010B51821034804F048F8182800D0C0B239
S3150002804010BD00006825002070B505460C4608469E
S3150002805009F01EFF60B1284600F02AF840B1054833
S31500028060294600EB8400BDE870401C3004F052B88B
S31500028070002070BD6825002070B5054616460C46E0
S31500028080084609F005FF00280ED0284600F010F831
S31500028090002809D00548324600EB84002946BDE88F
S315000280A070401C3002F00EBB70BD00006825002037
S315000280B0142801D3002070470146014804F02AB86B
S315000280C06C2500207CB5054608880C46093090428E
S315000280D001D90C207CBD68466DDF0028FAD12188C3
S315000280E00820685420881B21401C80B22080295415
S315000280F02088401C80B220802844DDF801100160EF
S31500028100BDF8051081802088801D80B220809DF8F0
S315000281100010490800D0012129542088401C2080E3
S3150002812000207CBD0E480F4910B5401AC008042134
S3150002813001EB00400CA105F0CDF84FF0FF31002015
S315000281403DDF00280BD1B1213CDF002807D11348BF
S31500028150416901208847022005F070FA002010BD0F
S31500028160F83F0300983F0300496E20626C655F6426
S3150002817066755F627574746F6E6C6573735F626F3A
S315000281806F746C6F616465725F73746172745F663B
S31500028190696E616C697A650D0A00000098240020F8
S315000281A0044810B50068416900208847BDE81040C0
S315000281B0FFF7B8BF9022002010B5002823D003880D
S315000281C01C4C102B17D02146112B8A8815D0C98832
S315000281D0512B19D0532B16D1C088884213D1207E39
S315000281E0002810D0FFF7DCFF00280CD06169BDE83B
S315000281F0104002200847808804E08088824202D12B
S315000282004FF6FF70A08010BD83889342FBD110F811
S31500028210062F022AF7D142888A42F4D1017A04292A
S31500028220F1D00629EFD00529EDD0BDE81040801C1B
S3150002823006F054BB982400202DE9F0410546007B48
S31500028240042601272E4C012811D002282CD0022602
S31500028250287B314600F08EF818B120684169032068
S315000282608847206841690220BDE8F0410847206836
S315000282704FF00008417E49B10621012000F07AF84C
S3150002828000283BD0206841690320EDE707760121EB
S31500028290084600F06FF8002830D02268112882F8CC
S315000282A01880D5D10626D3E76A7B142A22D80AB3C8
S315000282B0DFF8508005F10E0108F10400FEF7E8F838
S315000282C0697BC8F8181021684046497E0029BFD14B
S315000282D0A0F10C010A68011F904768B10F28B7D1B7
S315000282E009480A49401AC00807EB0040084904F049
S315000282F0F1FFADE70526ABE720684776BDE8F081DA
S3150002830090220020C0240020F83F0300983F03007B
S31500028310F02A030070B5154900250A68002A24D000
S315000283204A68002A21D00831904708281DD0104CEF
S315000283300028206845760ED00621022000F01AF8A1
S3150002834018B12068416903208847206841690220E4
S31500028350BDE8704008470121022000F00BF8002812
S3150002836003D0206841690320F2E770BDB4240020DF
S315000283709022002086B00323ADF8003020238DF82A
S3150002838014308DF8150000220E48019202928DF8E3
S315000283901610C188ADF8041002218DF8061005A941
S315000283A00491ADF80820CDF80CD0808801A9AEDF83
S315000283B0002804D1BDF80010032900D00C2006B015
S315000283C0704700009824002010B50288502A13D165
S315000283D0C088CA8890420FD1086900280CD080470D
S315000283E006480749BDE81040401AC008032101EBC0
S315000283F0004004A104F06EBF10BD0000F83F030068
S31500028400983F030044525320636861726163746546
S31500028410726973746963207772697474656E000099
S3150002842086B0ADF810208288A2F57F43FF3B14D0B8
S3150002843000220092019202920392C388ADF80420B0
S3150002844004AACDE90221ADF8003001238DF80230ED
S3150002845080886946AEDF06B0704743F20200FAE74B
S3150002846010B50288502A13D1C088CA8890420FD10B
S31500028470086900280CD0804706480749BDE8104025
S31500028480401AC008032101EB004004A104F022BFF8
S3150002849010BD0000F83F0300983F030045525253B7
S315000284A020636861726163746572697374696320BB
S315000284B07772697474656E0086B0ADF81020828892
S315000284C0A2F57F43FF3B14D0002200920192029252
S315000284D00392C388ADF8042004AACDE90221ADF8BF
S315000284E0003001238DF8023080886946AEDF06B07F
S315000284F0704743F20200FAE72DE9F04701883B4E46
S3150002850040F2F3194FF6FF7510291BD011293ED000
S31500028510122954D0502946D1C188F289841D91422C
S3150002852041D1618902293ED18688304602F0BCFFDC
S31500028530050038D004F10C0000F0C8F9A8B32946AA
S3150002854030464EE0C17B8788044601292BD1A846D6
S31500028550284602F0A9FF050017D02F8000202872B6
S31500028560234843464A460168C5F80A104068C5F8DA
S315000285700E0004F1100105F10A0003F0A9F8687271
S31500028580F08900280FD129462AE0042013E08088CA
S3150002859002F08AFF040006D06068FFF73FF808B1D0
S315000285A008F0AEFA2580BDE8F087FFE76868FFF7B6
S315000285B035F80028F7D0BDE8F04708F0A1BA878859
S315000285C00646384602F070FF0400ECD02B464A46B7
S315000285D006F1080104F10A0003F07AF860722146F6
S315000285E03846BDE8F04700F0DDBE00004C2500200D
S315000285F0962200202DE9F04F0446868801884248DB
S3150002860097B0834610290CD0112950D01030192961
S315000286106AD01A2974D1217A0C09042C4DD301226D
S315000286204CE0394D083DA868C0430B9069680BA819
S3150002863003F094FD0B990CA800F04EFE2C220CA917
S315000286406846FDF725FF0027E946A84610E000BF69
S3150002865009EB47005FF00005B0F804A008EB8500BF
S315000286605146001D03F016FD6D1C1E2DF6D37F1C10
S315000286700098B842ECD8142E05D317B00420BDE8F2
S31500028680F04FFEF767BF3146584603F04EFD3146BE
S3150002869008F1040003F049FDE07B022830D117B04F
S315000286A03146BDE8F04F1848001D03F03EBD17B035
S315000286B03146BDE8F04F03F0EDBC0022314602F030
S315000286C001F8032C01D3012200E000220E483146B4
S315000286D00C3001F0F7FF022C01D3012200E0002248
S315000286E009483146083006E0217A002908D1617A24
S315000286F0C1F3C002314617B0BDE8F04F01F0E2BF48
S3150002870017B0BDE8F08F00007025002010B50446B2
S315000287100748007800280AD0204602F0F1FC2046DD
S3150002872008F03AFC2046BDE8104002F08FB910BDB1
S31500028730D022002010B51C4C0188606810290ED08A
S31500028740112930D1401E60602DD1FEF797FD002819
S3150002875029D02168002926D0BDE810400847F8B97B
S3150002876000210122084600F04DFA08B1072814D16B
S3150002877007220221012000F045FA08B107280CD190
S3150002878004220221002000F03DFA122201210420D7
S3150002879000F038FA20B1072802D0216801B18847D3
S315000287A06068401C606010BD1023002038B5044686
S315000287B001882848284A801AC008042202EB004091
S315000287C0212933D012DC244A224B4FF00300A3EBBB
S315000287D002024FEAD20200EB0240102911D01129FF
S315000287E030D1BDE838401DA104F074BD3B292AD022
S315000287F0562927D11DA104F06DFDA088132176DF2D
S315000288000EE020A104F066FD072000F01DFA08B173
S31500028810FEF7A0FE1E48A18881801E4803F0A6FD31
S3150002882000280FD0BDE83840FEF794BE1AA104F026
S3150002883051FD00200090A08869468FDF002801D0F4
S31500028840FEF788FE38BD19A104F044FDA088132165
S3150002885076DFE5E7F83F0300983F03004469736358
S315000288606F6E6E65637465642E0000004741545452
S31500028870205365727665722054696D656F75742E24
S3150002888000000000436F6E6E65637465642E00001F
S3150002889048240020E4350020504859207570646150
S315000288A0746520726571756573742E004741545460
S315000288B020436C69656E742054696D656F75742EFC
S315000288C0000000000078C0F340007047007800F016
S315000288D00100704710B50288502A1AD1821DC0883D
S315000288E0CB88984215D10969002912D0D068D27B6B
S315000288F000BA20F0FF001043884706480649BDE843
S315000289001040401AC008032101EB004003A104F005
S31500028910E1BC10BDF83F0300983F030054535320B7
S3150002892063686172616374657269737469632077DF
S3150002893072697474656E00000149085C7047000034
S31500028940832603000649095C4FF0A040D0F81005C3
S31500028950C84010F0010000D0012080F001007047ED
S31500028960832603002DE9FC410646C0074FF00005A9
S315000289700ED0104F00240122385D009500231146C7
S31500028980019504F093F9641C032CF4D300F046F825
S31500028990B0070DD5074E0024F61C0022305D0323D6
S315000289A000951146019504F081F9641C032CF4D359
S315000289B0BDE8FC818026030007490B5C4FF0A0410D
S315000289C0D1F804250120984020EA0203C1F80835AF
S315000289D01040C1F80C057047802603000249085C66
S315000289E0012104F044BA0000802603000249085C13
S315000289F0002104F03CBA0000802603000649095C07
S31500028A004FF0A040D0F80405C84010F0010000D095
S31500028A10012080F0010070478026030010B5002473
S31500028A202046FFF7DBFF641C032CF9D310BD10B5FB
S31500028A3000242046FFF7DAFF641C032CF9D310BD8D
S31500028A4010B50246064B4FF0FF3000215C5C9442A3
S31500028A5001D1084610BD491C0329F7D310BD0000F9
S31500028A608326030070B50C4E0C004FF000053060F3
S31500028A700BD0012000F06AF808B1022004E00020C1
S31500028A8000F064F800B10B202070706810B9FEF790
S31500028A90F5FB0546284670BD1023002010B50020C0
S31500028AA000F00CFA08B1062806D1012000F006FAF9
S31500028AB008B1062800D1002010BD00002DE9F047BC
S31500028AC00D468146FFF7BCFF0446032836D2DFF87F
S31500028AD074801B481C4EA8F1040725B3012D0ED045
S31500028AE0022D2BD104EB440030444578002D25D0CD
S31500028AF0F968002922D02846BDE8F047084704EB6A
S31500028B004401755C0E44717849B10E4A4FF48041B6
S31500028B10521E8068FEF76AFD08B987F80390B1789D
S31500028B2008F80410E2E78068FEF778FD04EB4401DA
S31500028B30314418F804008D78A842D7D0BDE8F087F2
S31500028B40882603000423002008290020032801D2D6
S31500028B50FFF7F8BE002070470146224810B580880C
S31500028B6004292BD0072932D00A291AD0102937D145
S31500028B704FF0A040D0F804154FF480228A43C0F883
S31500028B80082501F48021C0F80C1517481749BDE8DD
S31500028B901040401AC008032101EB004014A104F062
S31500028BA099BB002000F050F808B1FEF7D3FCFFF79E
S31500028BB075FF08B1FEF7CEFC33DF02E0132176DF44
S31500028BC00CE000280CD0BDE81040FEF7C3BCA0F5AF
S31500028BD07F41FF3904D10A48FFF756F80828F0D139
S31500028BE010BD000048240020F83F0300983F030010
S31500028BF06273705F6576656E745F6B65795F32006E
S31500028C00F035002070B50023032810D20D4D00EB7D
S31500028C104004012A02D101290CD00022094E00EBA0
S31500028C204000304461B1012906D0022906D007234B
S31500028C30184670BD0E30C2B22A55F9E74270F7E700
S31500028C408270F5E708290020044A01460020127ABC
S31500028C50D20702D0084600F04DB870470023002024
S31500028C6070B506461E480024C0E90261B00720D549
S31500028C700025012211462846FFF7C4FF6D1C044653
S31500028C80032D02D2002CF4D013E094B940F2333211
S31500028C9003211448FEF7DCFB04000AD1FEF7C6FBEB
S31500028CA0040006D10F48104A0021001FFEF764FC9B
S31500028CB00446F00712D00120FFF754FE74B90948A2
S31500028CC00A4A00210C38FEF757FC040006D1054873
S31500028CD0074A01210838FEF74FFC0446204670BDBC
S31500028CE00023002094260300C98F020079B70200F0
S31500028CF01B7402002DE9F05F6E4C05460026607873
S31500028D00B34618B184F801B002F020FD6A4F4FF065
S31500028D1001084FF47A694FF4C87A182D69D2DFE850
S31500028D2005F00C1313384754696E727B727BC58447
S31500028D3084848484B3B6BCBFC5C502F007FD386817
S31500028D40FEF76CFC06465CE00120FFF757FE0028A2
S31500028D504FF0010008D0FFF741FE022D02D14FF479
S31500028D60E16008E0484606E0FFF740FE022D01D129
S31500028D70C82000E05046410CC0034FF47A728018B6
S31500028D8041F10001257052000023FDF72BFB01463D
S31500028D902AE00120FFF732FE00284FF0010004D03E
S31500028DA0FFF71CFE4FF44870E5E7FFF71FFEDFE70B
S31500028DB00120FFF723FE00284FF0010002D0FFF743
S31500028DC00DFECFE7FFF712FED4E70120FFF716FEEE
S31500028DD000284FF0010002D0FFF700FE01E0FFF786
S31500028DE005FE257040F6CD4100223868FEF7FEFBEF
S31500028DF0064646E00120FFF7DFFD257008E0012068
S31500028E0048E025703DE084F801800220FFF7D4FD9A
S31500028E10002240F26661E8E784F801800220FFF74B
S31500028E20CBFD00224FF40051DFE77868FEF7F6FB30
S31500028E300646D5F1110000D02EB10020FFF7CEFD77
S31500028E4084F802B01DE0012816D980B2C821484331
S31500028E50C117C90341EA5041C0034FF47A72801820
S31500028E6041F1000152000023FDF7BCFA014600223F
S31500028E707868FEF7BBFB06460020FFF7B7FD84F8CD
S31500028E8002803046BDE8F09F02F060FCB9E702F0CE
S31500028E905DFC0020FFF7AAFDB3E702F057FCAEE740
S31500028EA002F054FC0020FFF7A1FDA8E7FFF7BFFD83
S31500028EB0A7E700000023002088260300012109F00D
S31500028EC076B800002DE9F84F0546861C00208DF87D
S31500028ED0000091460F464FF0010A6846FEF7A4FBD2
S31500028EE01B4C04F21C4860683860D4E90101194F32
S31500028EF0401A3968081A0EE00121404603F028F9A3
S31500028F0002F0CEFD0146404603F022F9D4E9010102
S31500028F10401A3968081A401C8642EDD8B9F1000F8A
S31500028F2003D0052065F3891002E0062065F39F5001
S31500028F3061683A68114004EB8101C8606068304498
S31500028F4060609DF80000FEF793FB5046BDE8F88F7F
S31500028F508C2D00209423002070B50D4604460A2964
S31500028F6002D10D21FFF7F8FFA0682268411CA1601B
S31500028F701554D4E90101814204D32046BDE870406C
S31500028F8003F059BB70BD0000044881684068814205
S31500028F9001D1012070470020704700008C2D00206F
S31500028FA0034630B5074800210478426806E000BF50
S31500028FB002EBC10005789D4203D0491CA142F7DBB2
S31500028FC0002030BD1823002000780221FFF776BD6D
S31500028FD01CB5044602F0B8F900236A46092106F0D8
S31500028FE00FFA052805D10348012241792046FFF7E9
S31500028FF043F81CBDA02200201CB5044600200090A8
S3150002900042F6A620ADF8000001208DF802000848BD
S3150002901001AA6946006801902046A0DF002805D112
S315000290200448012281792046FFF726F81CBD00007C
S3150002903020250300A022002005494FF0FF32082810
S3150002904041F8202002D3084480F8482070470000E7
S31500029050E0340020F0B54FF0FF3512B100230826A8
S3150002906001E008230C260C4C05E000BF54F82370DF
S315000290707F1C04D05B1CB342F8D32846F0BD2618E9
S315000290805DB286F8305044F82310002AF5D1E11873
S3150002909081F84800F1E70000E03400200249084464
S315000290A090F9300070470000E03400202DE9F043CB
S315000290B08146887891B090460C4600B901208DF819
S315000290C03E002088ADF83C0000250095607C69468C
S315000290D007F00CFF6E46A07C711C07F007FFE07BD1
S315000290E000289DF8020002D040F0080001E020F0BE
S315000290F008008DF80200217C11B140F0100001E059
S3150002910020F010008DF80200217B11B140F0010021
S3150002911001E020F001008DF80200217D09B1022153
S3150002912000E0012161F342008DF802001C2102A831
S31500029130FDF7D5F9607BC10601D4800617D50E95D9
S315000291400EAFE07C791C07F0D1FE9DF83800079738
S3150002915020F00F00401C20F0F00010308DF838008F
S315000291609DF83A0020F00600801C8DF83A00607BDC
S315000291708DF80800A07B8DF80900142109A8FDF7D7
S31500029180AEF90FA8CDE90906A088ADF83000A068AF
S3150002919020B1E088ADF82C00A0680D90A06998B3C4
S315000291A001950088ADF81000A06901AD01A94088BB
S315000291B0ADF81200A069406806950390A069007B8D
S315000291C007F094FEA069691C407B07F08FFEA06938
S315000291D0807A00289DF8060002D040F0080001E0DF
S315000291E020F008008DF80600A169C97A11B140F095
S315000291F0100001E020F010008DF80600A169097A3E
S3150002920019B140F0010002E00DE020F001008DF8F6
S315000292100600A169897B09B1022100E0012161F3FF
S3150002922042008DF80600E06900B10590434609AA9E
S3150002923002A94846AADF11B0BDE8F08370B504461C
S315000292404FF6FF750A462846AC4209D14FF48074A0
S315000292502146104602F039FF80B2A0420BD070BD03
S31500029260FF2CFCD82146104602F01FFF90F0010F9A
S3150002927001D0204670BD284670BD000070B5084C6E
S31500029280050009D010342168002907D0086820603B
S31500029290496828468847F6E70834F4E770BD0000B7
S315000292A0B4340020054A012120B1012805D191706C
S315000292B0FFF7E4BF51700020FAE77047B43400208C
S315000292C010B5D0E90234D1E90220D11AA04101D366
S315000292D0012010BD002010BD73B58CB006460020DB
S315000292E000900D9880B100246D4621460DA802F02B
S315000292F011FF30B1009805EB400084800098401CB5
S315000293000090641C142CF0D32C2269463046FDF7DB
S31500029310BFF80EB070BD2DE9F04117880646B81D9C
S3150002932014460D46984202D90C20BDE8F0813188D8
S31500029330072206290AD34FF4486C4FF6FF7361459C
S3150002934001D9994202D17088062801D21046ECE76B
S31500029350604501D99842F9D1994203D0984201D089
S315000293608142F3D80520E85520881221401C80B29C
S31500029370208029542088401C80B2208041193088E0
S3150002938008F0BFFC2188084480B220804119708809
S3150002939008F0B7FC2188084420800020C5E7FEF7C4
S315000293A0D9B8000038B54A7A0F4B62B100220A7268
S315000293B05969002906D001228DF80020ADF8020075
S315000293C06846884738BD0A7A62B19B684C6802468D
S315000293D019462046FEF70AF90028F3D0BDE83840C0
S315000293E007F08EBB5B68F1E74C250020F0B585B02F
S315000293F016460F4604461D4614220B496846FDF7DB
S3150002940047F80A488DF80870ADF80240ADF80A60D0
S315000294108DF80C50017800222046FEF72DFE684694
S3150002942000F02EFD05B0F0BD40260300E02200202C
S3150002943010B5044612B11088002211E04FF6FF70F3
S31500029440FAE7030A43EA0023A05C5840C0F3031379
S31500029450584080EA003080B2C3B280EA4310521C00
S315000294608A42EED310BD0000F0B50C4606461E48F1
S315000294701E4987B0401AC708042000EB074033464E
S3150002948022461BA103F031FF002004900590ADF89F
S31500029490104001900290ADF8124001AA04A930468C
S315000294A090DF05001DD004F0B3FB0346012000EB5C
S315000294B00740044632461A4903F017FFBDF8042056
S315000294C012B9BDF8060028B1BDF80630204615A12E
S315000294D003F00BFFBDF808201AB12046214903F01C
S315000294E0FDFE07B02846F0BD983F0300983F0300F3
S315000294F05570646174696E672064617461206C657D
S315000295006E67746820746F202575206F6E20636FF6
S315000295106E6E656374696F6E20307825782E000052
S31500029520082C03005468652072657175657374654D
S31500029530642054582F5258207061636B6574206CF6
S31500029540656E67746820697320746F6F206C6F6E26
S31500029550672062792025752F2575206F63746574DF
S31500029560732E0000542C030070B5044609480121ED
S3150002957002F009FEBFF35F8F0025002808D12046BE
S3150002958002F008FA002803D1BFF35F8F0148056095
S3150002959070BD0000AC2200202DE9FF410C4620B12F
S315000295A04FF4064004B0BDE8F0812079002748F266
S315000295B0096538B141F61D5601281BD0022826D06E
S315000295C0681DEFE70220207102970397E068019079
S315000295D0694601A806F0D8FE50B102988188E1805A
S315000295E000882081BDF80010029806F04BFFD9E7EB
S315000295F02846D7E70A4B6A460021A01D06F07CFEE4
S3150002960038B1074918398F61CF61A842CAD13046AD
S31500029610C8E703488188019806F034FFF5E70000A1
S315000296204823002070B500240F4D10E0686800EB57
S31500029630C406307804F060FC7178012901D001215A
S3150002964000E000214140307800F06EFB641C28786F
S315000296508442EBDBD5E90401084303D0BDE8704040
S3150002966008F024B970BD00001823002010B50021AF
S31500029670024802F088FD80F3100010BDA8310020D8
S3150002968070B586B0054600788DF80000687800242B
S315000296908DF801008DF8044028798DF80500A87927
S315000296A08DF806008DF80740287A1C4E8DF80800C2
S315000296B0A9883088814227D0401C80B230808DF83C
S315000296C002408DF8030000EB40008DF8094015F8C2
S315000296D020108DF80A108DF80C4005EB80008DF8ED
S315000296E00B408DF80D4001798DF80E108DF8104063
S315000296F08DF80F408DF81140007A8DF81200132272
S3150002970069460748FEF78CFEA8883188884203D14D
S315000297103480002006B070BD0120FBE794220020B1
S31500029720DC24002000B585B001788DF80010417860
S315000297308DF8011000218DF8021001228DF8032008
S315000297408DF8041002798DF8052082798DF80620AD
S315000297508DF80710027A8DF808208DF80910027B21
S315000297608DF80A208DF80C108DF80B108DF80D105F
S31500029770027C8DF80E208DF810108DF80F108DF8E2
S315000297801110007D8DF81200132269460248FEF779
S3150002979047FE05B0002000BDDC2400207047000013
S315000297A030B58DB0B8B31D4C1D4B006820610FCB90
S315000297B08DE80F002146684662DF002829D120780D
S315000297C001258DF83200ADF83050A21C0CA92846AE
S315000297D0A8DF00281DD1202104A8FCF780FE022064
S315000297E0ADF8100020788DF81200ADF8165013204F
S315000297F0ADF814009DF81D008DF8215040F01200BE
S315000298008DF81D008DF823506088A21D04A9FFF76C
S315000298104DFC0DB030BDFFE70E20FAE7DC24002038
S31500029820D82403004FF480328A400168C1F84823E5
S315000298300068C0F8082370474FF4A07202EB81015A
S3150002984089B200F0E1BA2DE9F04105460E464FF421
S31500029850A07000EB860081B228684FF48034B440D1
S31500029860984622F07F47C0F808432868C0F8484364
S31500029870286803F011FF286800EB8600C0F84075DF
S315000298802868C0F84443B8F1000F02D02868C0F82F
S315000298900443BDE8F0810068D0F804057047000073
S315000298A070B54379234C44F823204279231D03EBF8
S315000298B0C202224C1579204A121BD4082DB1082562
S315000298C0022000EB04401EA130E005680A88C5F8B4
S315000298D0082590F904208978002A4FEA411104DB11
S315000298E002F1E02282F8001405E002F00F0202F112
S315000298F0E02282F8141D90F904100122002909DBE6
S3150002990001F01F0502FA05F54909890001F1E02176
S31500029910C1F800514179002503EBC1010A71417971
S3150002992043F83100032000EB04400EA103F0D2FC01
S31500029930284670BD1424002010400300983F0300FF
S3150002994052544320696E7374616E636520616C7252
S315000299506561647920696E697469616C697A6564A6
S315000299602E0000005254433A20696E697469616C94
S31500029970697A65642E00000090F90400002809DB6C
S3150002998000F01F02012191404009800000F1E02011
S31500029990C0F8001270470A46022100F0BBB94FF424
S315000299A0827100F031BA00680121016070470068D7
S315000299B00121416070472DE9F05F07460C464FF4DE
S315000299C0A07000EB84001FFA80FA38684FF48036E4
S315000299D0A6409B4622F07F45C0F848633868C0F827
S315000299E008633868D0F8048500EB8402D2F8409503
S315000299F0C2F840855146386803F04EFEA9EB0800CE
S31500029A0020F07F40012806D1102004F093F9514638
S31500029A10386803F041FE3868D0F80485C0F844631C
S31500029A20A5EB080121F07F413868012900EB84008B
S31500029A3010D0C0F840553868D0F804156FF07F4C46
S31500029A406A1A521E22F07F42ACEB0B03934217D3E3
S31500029A5062B118E06D1CC0F84055102004F06AF996
S31500029A603868D0F8040540450AD10CE000EB8400C2
S31500029A706D1CC0F840553868D0F80405884202D0FB
S31500029A800D20BDE8F09F01223146384600F042F92A
S31500029A900020F6E713460A460021FFF7A7BC00009E
S31500029AA02DE9F843104D0F4680461E4691466946FB
S31500029AB0286802F0C3FA040014D01C21FCF70FFD3B
S31500029AC001202071C4F81490380BC4F80080C4E950
S31500029AD002606946286802F0D2FA06F085FB002089
S31500029AE0BDE8F8830420FBE72C27030008B5002114
S31500029AF08DF8001000788DF80000022269460248AF
S31500029B00FEF7DAFCC0B208BDF02400207047000060
S31500029B1030B58DB0B0B31D4C1D4B006820610FCB24
S31500029B208DE80F002146684662DF002828D120789A
S31500029B3001258DF83200ADF83050A21C0CA928463A
S31500029B40A8DF00281CD1202104A8FCF7C8FC0220AB
S31500029B50ADF810002178ADF81650ADF814009DF856
S31500029B601D008DF8121040F012008DF821508DF86C
S31500029B701D008DF823506088A21D04A9FFF796FAEE
S31500029B800DB030BDFFE70E20FAE70000F0240020FA
S31500029B90E824030010B503780022072B06D2DFE87B
S31500029BA003F005040610202930000A7010BD0123B7
S31500029BB00B7003898B818388CB81C06888600A74A5
S31500029BC010BD02220A7002898A818288CA81C2680D
S31500029BD08A60807D062802D00020087410BD01200C
S31500029BE0FBE703220A70C2888A810289CA81C06899
S31500029BF0886010BD04230B70C0888881CA818A6080
S31500029C0010BD0520087010BD70B5064D064600242D
S31500029C1055F8241009B130468847641C042CF7D342
S31500029C2070BD00008429002030B50446006887B064
S31500029C300D46806800281FD018216846FCF74FFCA5
S31500029C400195A0680590207910B1012810D107E08E
S31500029C5001208DF8000020690290E068039005E07B
S31500029C6002208DF80000E06800030290606904900B
S31500029C70206881686846884707B030BDF0B585B070
S31500029C8017460C0005463AD0112C38D0082C36D08F
S31500029C901C481D49401AC6080D2C11D0204603F057
S31500029CA0B7FF0246012000EB06402B46174903F098
S31500029CB01CFB2A460721684602F074F902941BE04F
S31500029CC0022000EB06402A46114903F007FB2A460A
S31500029CD00321684602F066F927B13878C00701D039
S31500029CE0012000E002208DF8080000208DF80C000B
S31500029CF041F20110ADF80A00684600F0CFF805B04F
S31500029D00F0BD0000E03F0300983F0300FC3603006D
S31500029D10EC3503000368C3F84413002A02D0006836
S31500029D20C0F80413704700002DE9F84F0E46344977
S31500029D30804601EB5001C007097801D00F0901E006
S31500029D4001F00F074FF00009424601204946FCF791
S31500029D507AFBDFF8B0A004460D46052F4ED2DFE8A7
S31500029D6007F003161B282C00002E47D0012140467F
S31500029D7007F080FC8DF800906846FDF755FC5046CA
S31500029D80D0E904120C431543CAE9044532E00EB188
S31500029D90022114E0002112E04EB10321404607F0F1
S31500029DA069FC4046BDE8F84F012108F089B8012157
S31500029DB005E0002E22D1042101E02EB10321404606
S31500029DC0BDE8F84F07F056BC0021404607F052FCAA
S31500029DD00021404608F074F88DF800906846FDF7B9
S31500029DE023FC5046E243D0E904341A4024EA050132
S31500029DF0CAE904219DF80000FDF73AFCBDE8F88F98
S31500029E00582900201823002010B5006842581AB1BC
S31500029E1003F042FC012010BD002010BD10B504461F
S31500029E20408801F091FAA080024801682046BDE808
S31500029E3010400847A822002010B50446808801F089
S31500029E40CDF96080024801682046BDE81040084707
S31500029E50B82200202DE9F04107460024064E074DA0
S31500029E6005E000BF56F8241038468847641CE87897
S31500029E708442F7DBBDE8F0817C280020D022002056
S31500029E8010B50446408801F05FFAA08002480168D6
S31500029E902046BDE81040084700260300014909682C
S31500029EA0084700007C26030070B58CB00025059596
S31500029EB00695079509952C4609AB05AA41F62F7119
S31500029EC041F601700A9500F0AFFA20B1214905A8C2
S31500029ED000F012FB37E0029502A905A8039500F0EF
S31500029EE0C3FA08B1FDF736FB00211B48039A10E0BE
S31500029EF004EB440552F8213040F8253002EB810389
S31500029F0000EB85055E686E60641C9B68A4B2C91C82
S31500029F10AB60029B5B888B42EADC104C002100BFDF
S31500029F2001EB410304EB830230F8235000EB830379
S31500029F3095815D6815619B68491C53619029EFDB29
S31500029F4005A800F02BFA002801D0FDF703FB0CB0A0
S31500029F5070BD0000402A0300243A0020E44200209B
S31500029F600EB500F011F800F067F90020009001909C
S31500029F7002900449684600F0BFFA002801D0FDF7B6
S31500029F80E9FA0EBD402A030000B585B00020039011
S31500029F90049000900190029003AB6A4641F62F713D
S31500029FA041F6017000F040FA18B9684600F01AFA54
S31500029FB010B1002005B000BD0120FBE710B588B046
S31500029FC00024039404940594069406AB03AA41F66E
S31500029FD03F7141F60270079400F026FA20B10D494E
S31500029FE003A800F089FA0FE0019401A903A80294DC
S31500029FF000F03AFA08B1FDF7ADFA02980649006890
S3150002A000C86003A800F0CAF9002801D0FDF7A2FA39
S3150002A01008B010BD4C2A03004824002000B585B0C4
S3150002A02000200390049000900190029003AB6A46D0
S3150002A03041F63F7141F6027000F0F6F918B968462A
S3150002A04000F0D0F910B1002005B000BD0120FBE7F9
S3150002A0500EB5FFF7E3FF00F0EFF800200090019045
S3150002A06002900449684600F047FA002801D0FDF73D
S3150002A07071FA0EBD4C2A030070B586B0044614214F
S3150002A0806846FCF72CFAA0890125A0F54040ADF8F8
S3150002A090040020782F4E062833D2DFE800F0320380
S3150002A0A003032C4AA08900F0F1FA30B9E08943F69D
S3150002A0B0FE71A0F54040884223D8A07B8DF80800A7
S3150002A0C0207803280FD000208DF80900A06803909D
S3150002A0D0606850B109208DF80000606804906846F7
S3150002A0E005F0E0F80DE00120EEE708208DF800000B
S3150002A0F08DF81050F3E7A08900F0C8FA08B1E0899C
S3150002A10030B17078002801D005F020FA06B070BD93
S3150002A110606830B10B208DF800006068029075709F
S3150002A120DDE70A208DF80000BDF8040005F0B2FA5A
S3150002A130F5E7606848B114208DF800006068029067
S3150002A1404FF6FF70ADF80400C9E713208DF8000042
S3150002A150F6E70000BC22002070B503780546F3B18D
S3150002A1601248134A0321801AC00801EB0044012B4E
S3150002A17001D0032B19D16868002816D120460DA1FB
S3150002A180AA6803F0ABF8AA8920460FA103F0A6F845
S3150002A190EA892046BDE870400FA103F09FB84068E7
S3150002A1A0002802D111490120887070BDF83F0300D2
S3150002A1B0983F03005265636F72642049443A09303E
S3150002A1C0782530347800000046696C652049443AA7
S3150002A1D009307825303478005265636F7264206BDB
S3150002A1E065793A0930782530347800004824002011
S3150002A1F038B504460F480078B0B1A4F57F40FF3861
S3150002A2000FD0684605F020FF88B1052101700121B3
S3150002A2100171C480684605F025FF05F0D7FF0020CE
S3150002A22038BD48F2036038BD48F2016038BD48F2D5
S3150002A230076038BD502300200D4808B5007888B164
S3150002A240684605F001FF80B106210170684605F0F7
S3150002A25009FF0848017809B10121C17305F0B6FF6B
S3150002A260002008BD48F2016008BD48F2076008BD3B
S3150002A27050230020F42A0020F0B587B01421684646
S3150002A280FCF72DF9304C207818B16846FFF7BCFC74
S3150002A29057E0201D01F059FF98BB40F6F87001689F
S3150002A2A0481C02D14FF0102041694FF080500269DC
S3150002A2B040694B1C01D100FB02F1244800220161D6
S3150002A2C0A1F54041C160224902F04AFB002823D190
S3150002A2D021481C23FC221F49006801F09CFE04F061
S3150002A2E06DFD050016D0022D14D000270126062D7D
S3150002A2F014D005A805F0A8FE98B106700C2D1BD245
S3150002A30000E01EE0DFE805F01810181018171817FD
S3150002A3101812141248F20A6007B0F0BD2670676080
S3150002A320B3E748F20760F7E7077105E0032100E0AB
S3150002A3300221017100E0067105A805F093FE05F001
S3150002A34045FF0020E8E70000502300207424002087
S3150002A3503C27030094290020B426030010B586B0DA
S3150002A3600C4800F0CDF8FFF787FF08B1FDF7F2F8C9
S3150002A370094CA07860B114216846FCF7B0F868462B
S3150002A38000F0D6F8002801D0FDF7E4F806B010BDBB
S3150002A39041DFEEE759A102004824002038B5040047
S3150002A3A014D0694605F0F0FFB0B1BDF8000000EB2D
S3150002A3B080010B4800EB8100C16851B1A17A41B11D
S3150002A3C0C168491EC1600020A07238BD48F204600F
S3150002A3D038BD48F2056038BD48F2096038BD000054
S3150002A3E0902A002038B504460E48007888B19CB100
S3150002A3F0684605F029FE90B1042101700021017121
S3150002A4002168C160684605F02DFE05F0DFFE0020DA
S3150002A41038BD48F2016038BD48F2046038BD48F2E2
S3150002A420076038BD502300201FB501A9684605F014
S3150002A43063FF04B010BD07B513460A4669460020FD
S3150002A44005F05AFF0EBD07B513460A4600216846B7
S3150002A45005F052FF0EBD20B119B100680860002058
S3150002A460704748F2046070472DE9FC410E4605002C
S3150002A4702ED06EB301A905F087FF78B36C6800226F
S3150002A4800621B4F8068067882046FEF7D1FFB90098
S3150002A490ADF8000001276A4604F10800091DFEF71F
S3150002A4A0C7FFADF80000404515D1BDF804000D49BF
S3150002A4B000EB800001EB800001210C3001F048FE28
S3150002A4C0346068680C307060AF720020BDE8FC81B1
S3150002A4D048F20460FAE748F20C60F7E7FFE748F251
S3150002A4E00960F3E7902A002018B10323002207F03F
S3150002A4F0A1BE48F2046070470223002207F09ABE0A
S3150002A500094910B50A69042A0AD0084A096942F8B3
S3150002A510210005480121103001F01AFE002010BD6D
S3150002A52048F20B6010BD0000302300208429002071
S3150002A5302DE9F84F044624480078D8B1F4B1122127
S3150002A5402046FBF7CCFF0620DFF88090208000250E
S3150002A55004F1100804F10E0A05EB850109EB8106E8
S3150002A56030897189084487B2706804F0B1FB032808
S3150002A57007D009E048F20160BDE8F88F48F20460AE
S3150002A580FAE72088401E20806088F16808446080CF
S3150002A5902089718908442081608938446081C7F521
S3150002A5A00060A18980B2814200D2A0815346A21DD9
S3150002A5B0211D2846CDF8008005F082FF6D1CADB244
S3150002A5C0052DC9D30020D7E750230020902A00206A
S3150002A5D010B588B00024039404940594069406AB3F
S3150002A5E003AA41F61F714FF4F8500794FFF71CFFB8
S3150002A5F020B10D4903A8FFF77FFF0FE0019401A9DF
S3150002A60003A80294FFF730FF08B1FCF7A3FF0298F4
S3150002A61006490068886003A8FFF7C0FE002801D03B
S3150002A620FCF798FF08B010BD342A03004824002026
S3150002A63000B585B00020039004900090019002902E
S3150002A64003AB6A4641F61F714FF4F850FFF7ECFE72
S3150002A65018B96846FFF7C6FE10B1002005B000BD66
S3150002A6600120FBE70EB5FFF7E3FFFFF7E5FD00204C
S3150002A67000900190029004496846FFF73DFF0028CA
S3150002A68001D0FCF767FF0EBD342A030043F6FE71C4
S3150002A690A0F54040884201D801207047002070474B
S3150002A6A010B504460078182802D1FDF7C1FC2070C7
S3150002A6B010BD10B504460078182802D1FDF7B8FC83
S3150002A6C0207010BD0AB101F030BD01F0E3BC70B5D7
S3150002A6D00D460446B0F81414D0F810040122FDF712
S3150002A6E0ECF900B1057004F13C0204F5826104F153
S3150002A6F0540072DF70BD000070B513460022054695
S3150002A700112900D10122074C33B12179FDF7B4FC9E
S3150002A71000226178284600E06178BDE87040FDF7C6
S3150002A720ABBC0000E8220020F7B517460E0011D098
S3150002A7300098002560B100242146684601F0EAFC33
S3150002A74018B1A0B23946B0476D1C641C142CF3D361
S3150002A7502846FEBD0020FEBD10B5002821D0114BB3
S3150002A7600022001F196803E0814203D80A4649689D
S3150002A7700029F9D152B11368841A9C4204D10068A7
S3150002A78018441060104602E0506000E0186039B1CB
S3150002A79002680B1A934203D10B681A440260496895
S3150002A7A0416010BD6C240020406805F06DBC0000BD
S3150002A7B010B586B09DF80C0020F00F00401C20F06A
S3150002A7C0F00010308DF80C0001A86DDF08B1FCF71F
S3150002A7D0C1FE0E2001F0C4FA04469DF80500009061
S3150002A7E09DF8063012A215A12046FCF741FA204632
S3150002A7F0FBF780FE82B2214603A87CDF08B1FCF794
S3150002A800A9FE0020049005905021ADF81400ADF881
S3150002A81010104FF4C870A021ADF81600ADF8121052
S3150002A82004A87ADF002801D0FCF794FE06B010BD1A
S3150002A8306D69616F6D69616F335F00002573253045
S3150002A840327825303278000070B510B14FF40640E8
S3150002A85070BD1C4C0025E07B08B1E57301E000F0F9
S3150002A860A5F8207808282AD2DFE800F02904080C87
S3150002A87010291422BDE8704000F026B8BDE87040E9
S3150002A88000F082B8BDE8704000F064B8BDE87040E0
S3150002A89000F040B80620207060880A4900EB80006C
S3150002A8A0643901EB80004068BDE8704004F066BA86
S3150002A8B0072020706560BDE8704004F06DBA48F26A
S3150002A8C00E6070BDF42A00201149F0B48A1C0020E3
S3150002A8D00346A1F164050C18A67A4EB1A37200EBE9
S3150002A8E0800405EB8404E66816B9247C012C0AD0A0
S3150002A8F0401C80B20528EED30B704B804B60F0BC37
S3150002A90041F61D5070471080F0BC00F03DB80000C3
S3150002A910F42A00200C48418801EB8102A0F164016F
S3150002A92001EB8201CA6852B1052101700748022172
S3150002A9308180016800230222054801F075BF0422C6
S3150002A94002704968F6E70000F42A00205823002026
S3150002A9507424002038B50A49084803240B68426863
S3150002A960898803EB810153880470DB1C00201B04D9
S3150002A97000909B0B034802F0ABF838BDF42A002086
S3150002A9805823002074240020074910B54888091D61
S3150002A99005F04AFD18B1BDE81040FFF7DBBFBDE880
S3150002A9A01040FFF7B7BF0000F42A002070B5194C1B
S3150002A9B00121207808281AD2DFE800F00419191CB0
S3150002A9C0252929182089134A401C208100206080ED
S3150002A9D0E073643A00EB800312F8233043B100239C
S3150002A9E02518401C80B2AB720528F3D3217070BDC6
S3150002A9F00123F5E76068084940888A88C01C10442C
S3150002AA008880022004E000F009F8062000E0072012
S3150002AA10207070BDF42A0020582300200A490948F4
S3150002AA204988026801EB81030749643901EB830116
S3150002AA304B6803604A6082880A8102228280002073
S3150002AA400874704758230020F42A00202DE9F043A9
S3150002AA50064680883288DFF85C8185B00746502A30
S3150002AA6037D010DC5449554B06F10A05A1EB030118
S3150002AA704FEAD1014FF0020303EB0144352A3AD0E3
S3150002AA80362A07D168E0522A02D0542AF9D102E0C6
S3150002AA9000F024FF82E0142249496846FBF7F8FCDD
S3150002AAA0ADF80270384600F04FFCADF8040000F035
S3150002AAB0C9F90022444698F804103846FDF7DCFA34
S3150002AAC00022E1783846FDF7D7FA6846FFF7A6F97D
S3150002AAD064E0307B012861D1B07A01285ED13089E9
S3150002AAE0A0F52451023959D10121384600F04AFF16
S3150002AAF007F076F952E098F80610FDF7A5FA002855
S3150002AB004CD0002298F806103846FDF7B5FAF288BE
S3150002AB10B2F5857F17D012B120462AA10BE02A880A
S3150002AB20012A03D0204636A102F0D8FB6A88012A00
S3150002AB3004D0204641A102F0D1FB04E0A9880022FC
S3150002AB403846A1DF08B1002125E0012298F8071056
S3150002AB503846FDF791FA21E04FF0000998F8071000
S3150002AB60FDF772FAD0B1002298F807103846FDF7C1
S3150002AB7083FAF28812B1204612A104E0AA88012AB9
S3150002AB8004D020462DA102F0A9FB03E0A87900B16A
S3150002AB90012081464946384606F0CEFD0022364956
S3150002ABA098F80200FDF7EAF905B0BDE8F04306F0B1
S3150002ABB01FB80000A0220020A03F0300983F030018
S3150002ABC078250300556E6578706563746564204761
S3150002ABD041545420737461747573207768696C6587
S3150002ABE02067657474696E67204341522063686109
S3150002ABF0722076616C75653A2030782578000000FF
S3150002AC004D756C7469706C65202825642920434152
S3150002AC1052206368617261637465726973746963F1
S3150002AC207320666F756E642C207573696E67207467
S3150002AC3068652066697273742E000000556E657829
S3150002AC407065637465642043415220636861726172
S3150002AC506374657269737469632076616C756520C5
S3150002AC606C656E67746820282564292C2073746FBE
S3150002AC70726520302E000000B577020070B50446DA
S3150002AC800078002814D1608800F028FE65882846DE
S3150002AC9000F09AF928B107480122C1782846FDF743
S3150002ACA0EBF96088FEF794F9BDE8704007F098B8B2
S3150002ACB070BD0000A022002070B5204C0025257032
S3150002ACC0FDF7B6F96070FDF7B3F9A070FDF7B0F9BC
S3150002ACD0E070FDF7ADF92071FDF7AAF96071FDF795
S3150002ACE0A7F9A071FDF7A4F9E07162780121182A8B
S3150002ACF018D0A278182A15D0E278182A12D022790A
S3150002AD00182A0FD06279182A0CD0A279182A09D0EB
S3150002AD10182807D004F10C000560BFF35F8F21707D
S3150002AD20002070BD0648074A801AC00801EB0040A1
S3150002AD30054902F0CFFA032070BD0000A0220020D0
S3150002AD40A03F0300983F0300002D03007CB5044694
S3150002AD500078082837D1607A58BB207A1C4E4FF605
S3150002AD60FF75012811D0072802D008282BD121E02F
S3150002AD70A08800F033FA0446A84224D0012100F04C
S3150002AD8001FE2046FEF724F91DE0A0886A4601214D
S3150002AD9004F0AAF968B90198007850B1A08800F0C9
S3150002ADA01DFAA8420FD00122F178FDF765F905F0E8
S3150002ADB01FFF08E0F068012805D1BFF35F8F044941
S3150002ADC000200C310860BDE87C4007F009B800009D
S3150002ADD0A022002010B50B48FEF75DFD094A083A8D
S3150002ADE0D2E90434C018D2E9063244F10001C31A8A
S3150002ADF071EB020204D24FF08072801841F1000119
S3150002AE0010BD0000F823002010B5C0B2FEF7C8F846
S3150002AE100446007803F070F801466078012801D0F4
S3150002AE20012000E0002090EA010F08D00449D1E990
S3150002AE300401084303D1BDE8104006F037BD10BD3A
S3150002AE40182300201CB5054AD2E90212CDE90012E8
S3150002AE500022694604F00EFB1CBD0000902503008B
S3150002AE6003484FF6FF71818001210170002070476F
S3150002AE70B02200202DE9FC41804600F065FA00244C
S3150002AE8003250127A0F57F412646FF3908D06A46E9
S3150002AE90082104F029F918B90198841D86880568E5
S3150002AEA032462B4621464046B1DF042804D0082804
S3150002AEB004D00B2808D002E0112000E00020002F69
S3150002AEC000D10B20BDE8FC810027A80701D501258A
S3150002AED0E6E7344303D0002426460325E0E7064886
S3150002AEE006494246401AC008012101EB00400449C6
S3150002AEF002F0F4F9E5E70000A83F0300983F0300DB
S3150002AF00C82F03002DE9FC41804600F01DFAA0F58A
S3150002AF107F410646FF390ED001252A466D1C0027C1
S3150002AF20ADB26B460821304604F028F9040006D07B
S3150002AF30072C33D033E043F20200BDE8FC810199CD
S3150002AF4003230A1D0B604046891DB2DF040004D0AC
S3150002AF500C2C09D0052C09D009E0324608211046EE
S3150002AF6004F084F904461AE0012700E000240821CF
S3150002AF70304604F071F970B102F04AFE0346094800
S3150002AF8009493246401AC008012101EB004007492F
S3150002AF9002F0ABF90324002FBFD100E00C242046B7
S3150002AFA0CBE70000A83F0300983F0300482F0300A9
S3150002AFB004488088A0F57F41FF3901D005F022BE02
S3150002AFC070470000B02200200EB502A9019100F0E0
S3150002AFD0BBF96A46012104F087F808B100200EBDCC
S3150002AFE0019800780EBD00002DE9F04107464FF6A4
S3150002AFF0FF761048B3DF78B102F00AFE02460E4829
S3150002B0000E49401AC008012101EB00400C4902F02A
S3150002B01065F90320BDE8F081064C43F20305A41E40
S3150002B020324661883846AFDFA842F3D16088401CB9
S3150002B0306080F5E7B2220020A83F0300983F030094
S3150002B040FC2E0300428800EB82020C328A4201D9AE
S3150002B050022070478188A1F57F42FF3A06D0018817
S3150002B06021B18068401C01D0002070470120704742
S3150002B070884204D20068401C01D00120704700209B
S3150002B08070473EB5027802230C46B3EB520F17D136
S3150002B090B0F80110ADF80010C1788DF80210818861
S3150002B0A0ADF8041080798DF8060002AA01A920469F
S3150002B0B0FCF78AF9032202A96846FBF722FA08B1CD
S3150002B0C000203EBD01203EBD70B50D460446142843
S3150002B0D010D2FCF7EDFF68B1084904EB840001EBDE
S3150002B0E04000D0F802102960C188A980007AA871B0
S3150002B0F0002070BD43F2020070BD0000E42500206E
S3150002B10070B5018890B0102961D1011D2C226846C4
S3150002B110FBF7BEF99DF804004FF6FF76032134468D
S3150002B120B1EB500F2BD004F063F99DF804006D4685
S3150002B13040080ED001280CD0022820D118E00D9923
S3150002B140281D1131FCF700F818B100BFBDF82C40DC
S3150002B15015E00CAA0BA9072004F01EF90028EED16F
S3150002B1600DE00D99281D491CFFF78BFF0028EDD134
S3150002B1700CAA0BA9072004F00FF90028F1D1BDF89B
S3150002B1800000B44200EB8001124820F8114000EBA7
S3150002B19041000199C0F80210BDF80810C1809DF85F
S3150002B1A00A10017213D0BDF80000ADF82E0000207F
S3150002B1B0ADF83040084E8DF82C000BAD044600BFAA
S3150002B1C056F8241028468847641C022CF8D310B07F
S3150002B1D070BD0000E4250020A42503002DE9F041FE
S3150002B1E04FF6FF760546B04213D00B4F002400BF40
S3150002B1F004EB840037F81000A84206D12046FCF77B
S3150002B20057FF10B12046BDE8F081641CA4B2142C8D
S3150002B210EED33046F7E70000E42500203EB50C46A3
S3150002B220054604F0E5F80BE0BDF80000A04207D0A1
S3150002B2302846029900F00EF810B1BDF800003EBD96
S3150002B24001AA6946072004F0A7F80028ECD14FF6B8
S3150002B250FF703EBD2DE9F0410C46054600F111078F
S3150002B26001F111061022491C401CFBF74AF948B9A4
S3150002B270681C00F04FFA28B1601C00F04BFA08B1C6
S3150002B280012400E0002431463846FBF75DFF3B7897
S3150002B2900222B2EB530F0CD00321B1EB530F08D0AD
S3150002B2A03378B2EB530F04D0B1EB530F01D0012127
S3150002B2B000E00021084201D18C4302D00120BDE802
S3150002B2C0F0810020FBE7018811B9421892780AB191
S3150002B2D001207047491C0829F7D30020704710B592
S3150002B2E00C460346FFF7EFFF00280AD0188821888C
S3150002B2F0884205D10822A11C981CFBF702F908B165
S3150002B300002010BD012010BD142804D2024A00EB11
S3150002B310800022F810107047E425002070B505461B
S3150002B320FFF75CFF0446284603F0E2FE002808D138
S3150002B330142C06D2034B04EB84024FF6FF7123F85A
S3150002B340121070BDE425002010B50446142808D258
S3150002B350FCF7AEFE28B1044904EB840031F8100074
S3150002B36010BD4FF6FF7010BDE42500203EB5044621
S3150002B37004F03EF80EE0019920464631FFF7AFFF92
S3150002B38028B9019920462A31FFF7A9FF10B1BDF865
S3150002B39008003EBD6A4602A9072003F0FDFF002809
S3150002B3A0E9D14FF6FF703EBD06F036B910B50A492F
S3150002B3B041600A4800F0C9FE58B902F05BFB074932
S3150002B3C01C238C22087404488C39001F006800F084
S3150002B3D022FE002010BD000030270300A02B002013
S3150002B3E02DE9F0412D4F002520B17D604FF4064036
S3150002B3F0BDE8F0810879012258B1294E01280CD006
S3150002B400264C4FF002080834022820D0032841D1E6
S3150002B41027E00A7103F0C0FC3AE0002000EB80014D
S3150002B42016F82110022908D0401C80B20528F5D34F
S3150002B4303A707D6041F61D50DAE700EB800006F8AF
S3150002B440205006EB8000406803F098FC20E00D7166
S3150002B450A4F80480002302221248216801F0E4F9CC
S3150002B46016E00D71206803F089FC0D4923686431EA
S3150002B470498801EB810206EB8201D1F804C0C4F8C7
S3150002B48000C04B60A3880B81A4F8048006F8225002
S3150002B4900028ADD07D6048F20D60A9E75023002058
S3150002B4A0902A0020742400200146034802888A421A
S3150002B4B000D0002070470000382500202DE9FC5FEF
S3150002B4C00E008346DDE90C47C6F100009846924617
S3150002B4D0814600D40846012503E000BF90FBFAF03E
S3150002B4E06D1C5045FADAA84500D9454624B1002E0E
S3150002B4F001DB780700D5641EB80702D5B8F1000F44
S3150002B5000AD0F80708D13CB1A54205D220215846F7
