S3150002600028780020C1630200C9630200CB63020044
S31500026010CD630200CF630200D163020000000000DC
S31500026020000000000000000000000000D363020030
S31500026030D563020000000000D7630200D9630200A4
S315000260405D660200DB6302007D6C02008D68020061
S31500026050DB630200DB630200A9650200DB63020068
S31500026060DB630200DB630200DB630200DB63020028
S31500026070DB630200DB630200DB630200DB63020018
S31500026080DB6302000D680200DB630200DB630200D1
S31500026090DB630200DB630200E1680200DB630200ED
S315000260A0DB630200DB630200DB630200DB630200E8
S315000260B0DB630200DB630200000000000000000058
S315000260C0DB630200DB630200DB630200DB630200C8
S315000260D01D680200DB630200DB63020000000000B1
S315000260E000000000000000000000000000000000A8
S315000260F00000000000000000000000000000000098
S315000261000000000000000000000000000000000087
S315000261100000000000000000000000000000000077
S315000261200000000000000000000000000000000067
S315000261300000000000000000000000000000000057
S315000261400000000000000000000000000000000047
S315000261500000000000000000000000000000000037
S315000261600000000000000000000000000000000027
S315000261700000000000000000000000000000000017
S315000261800000000000000000000000000000000007
S3150002619000000000000000000000000000000000F7
S315000261A000000000000000000000000000000000E7
S315000261B000000000000000000000000000000000D7
S315000261C000000000000000000000000000000000C7
S315000261D000000000000000000000000000000000B7
S315000261E000000000000000000000000000000000A7
S315000261F00000000000000000000000000000000097
S31500026200DFF80CD000F092F9004800470DC30200F7
S315000262102878002030B4044654E8000F0D4644E8BE
S315000262200053002BF8D1156030BC704730B40446D9
S3150002623054E8000F40EA010544E80053002BF7D169
S31500026240156030BC704730B4044654E8000F00EACB
S31500026250010544E80053002BF7D1156030BC7047A6
S3150002626030B4044654E8000F80EA010544E80053BE
S31500026270002BF7D1156030BC704730B4044654E8A1
S31500026280000F00EB010544E80053002BF7D115601F
S3150002629030BC704730B4044654E8000FA0EB010549
S315000262A044E80053002BF7D1156030BC704770B438
S315000262B004464FF0000054E8006F0D68AE4207BF77
S315000262C044E80023012044E800630E60002B1CBF53
S315000262D00020F0E770BC704730B4044654E8000F63
S315000262E088422CBF451A054644E80053002BF5D1D7
S315000262F0156030BC7047000030B450E8012F93B2ED
S31500026300C48923448489A34228BF1B1B0489A34250
S3150002631002BFBFF32F8F002007E0C3EA020340E863
S315000263200134002CE9D14FF001000A6030BC7047FD
S3150002633050E8012FC2EA024240E801210029F7D1C2
S31500026340704730B450E8022F1FFAA2F3C488A34262
S3150002635002BFBFF32F8F00200DE0C4892344848936
S31500026360A34228BF1B1BC2EA034340E80234002CA7
S31500026370E8D14FF001000A6030BC704750E8022FA6
S31500026380C2EA224240E802210029F7D170470346B9
S3150002639053E8022FD988B2EB324F4FF0000017BFF5
S315000263A092B241EA014142EA014104E05A68B2EB83
S315000263B0324F08BF012043E80212002AE8D1704793
S315000263C00648804706480047FEE7FEE7FEE7FEE787
S315000263D0FEE7FEE7FEE7FEE7FEE7FEE7E568020008
S315000263E0016202002DE9F05F0546002092469B46B7
S315000263F088460646814640241BE0284641464746D3
S31500026400224600F082F853465A46C01A914110D3EA
S3150002641011461846224600F016F82D1A67EB0108B7
S315000264204F4622460120002100F00DF817EB000925
S315000264304E41201EA4F10104DFDC484631462A46BD
S315000264404346BDE8F09F202A04DB203A00FA02F117
S31500026450002070479140C2F1200320FA03F319434A
S315000264609040704700487047985D030010B5431A84
S31500026470934209D28318881803E010F8011D03F825
S31500026480011D521EF9D210BD40EA01039B0703D03B
S3150002649009E008C9121F08C0042AFAD203E011F85B
S315000264A0013B00F8013B521EF9D210BDD2B201E007
S315000264B000F8012B491EFBD270470022F6E710B501
S315000264C013460A4604461946FFF7F0FF204610BD5A
S315000264D0421C10F8011B0029FBD1801A704730B507
S315000264E004460020034600E05B1C934203D2E05CB4
S315000264F0CD5C401BF8D030BD034611F8012B00F8E5
S31500026500012B002AF9D118467047202A04DB203ACB
S3150002651021FA02F00021704721FA02F3D040C2F1BB
S31500026520200291400843194670470000064C074D69
S3150002653006E0E06840F0010394E80700984710344B
S31500026540AC42F6D3FFF760FE48720300687203009E
S3150002655070B58C1810F8015B15F0070301D110F81D
S31500026560013B2A1106D110F8012B03E010F8016B4A
S3150002657001F8016B5B1EF9D12B0705D40023521ECD
S315000265800DD401F8013BFAE710F8013BCB1A921C35
S3150002659003E013F8015B01F8015B521EF9D5A14233
S315000265A0D8D3002070BD00002DE9F8430025DFF89E
S315000265B094804FF4807601242F460095304607F0EA
S315000265C08FFA38B1D8F80403204203D0304607F0D8
S315000265D07DFA2543361D64007F1CB6B2082FEDD323
S315000265E04FF4BE74204607F07BFA48B1204607F006
S315000265F06DFA45F000456A460121002007F028FAA7
S3150002660015F0FF0F16D0012600242E420ED008EBFD
S315000266108401D1F81005D1F81015C0F304200A4AF6
S31500026620C1F3014152F8242002B190477600641C5E
S31500026630082CEAD3002D02DA68460AF057FABDE8BA
S31500026640F883000000600040C03B0020142008F0E0
S31500026650A1B90121142008F0C1B9000070B54FF4A8
S315000266608076304606F032FC114CB50560B13046F4
S3150002667006F033FC0120C5F80803607920B9012031
S3150002668060712168002088474FF48276304606F012
S315000266901DFC00280AD0304606F01FFC0220C5F871
S315000266A008032168BDE870400120084770BD00005C
S315000266B0402400202DE9F04FA9B04FF00008022037
S315000266C045468DF80880474627900BF029FA0AF0CE
S315000266D0A7FE02AA03A901200BF08CF9DFF8ECA0B1
S315000266E03B4C002863D19DF8080000285FD00120AA
S315000266F02071E17800295CD1E070DAF800000DF132
S315000267000C09E060C84602200DF10E010BF0B0FA4A
S31500026710064608F102000DF1150105E002780B7834
S3150002672000F8013B01F801298842F7D34FF001082E
S31500026730082109F1020004F0FDFD0246254826491A
S31500026740401AC008032101EB004024A107F0EAFB2E
S315000267502C48816D0166C16D4166DDF80E108165BA
S31500026760DDF81210C1650EBB00260DF1A0094FF02F
S31500026770800BB819CDE900B9C2B207AB0021279840
S315000267800BF03AFA68B91F4A002007A958320B18CB
S3150002679000EBC60C94445B78401C8CF81830082831
S315000267A0F5DB761C2B2EE4DB05F05AFB01E0E570E7
S315000267B02571DAF80000E168401A1349884200D9C7
S315000267C0E57029B04046BDE8F08F00006424002041
S315000267D06C240020E87203008872030049534F318B
S315000267E0353639332F4E46432D5620636172642067
S315000267F0666F756E642E205549443A2025730D0A3C
S31500026800000000005C460020A0BB0D0002490248C1
S31500026810091F09680068084728240020042200216D
S31500026820014805F09DB800000040024000F02CBA75
S3150002683070B50E46144900EB400001EBC005144644
S31500026840E86A183520B101280FD0022805D113E0D5
S31500026850284600F04DFAA04201D2002411E0224659
S315000268603146284600F07CFA0BE0284600F040FA52
S31500026870A042F4D20446F2E73146284600F043FA33
S315000268800446204670BD00000C390020F8B51248B7
S31500026890124E04464FF48C7107F0C0FF00281AD03E
S315000268A00025C4F81851D4F818010090F07F344638
S315000268B0FF2806D0A17F11B107F0E0F801E007F04A
S315000268C0F3F865772572D4E9002101B004F10800D6
S315000268D0BDE8F0401047F8BD003000401C3C0020E7
S315000268E007F0DCBEF0B5D34AD3494FF080541368A3
S315000268F0D4F830010978D4F83421451CC1F30311C8
S3150002690007D08446164601270025BCF1060F04D09F
S3150002691013E003F0FF0C0E46F5E7032E05D0042E16
S3150002692003D0052E01D0062E07D1B4F82463DFF872
S315000269300CC3C6F30426CCF80060DEB2062E06D1DE
S31500026940032904D1DFF8FCC2BD4ECCF87460461CA4
S3150002695006D084464FEA0206BCF1060F04D013E0C5
S3150002696003F0FF0C0E46F7E7032E05D0042E03D0E4
S31500026970052E01D0062E07D1D4F84462DFF8C8C22C
S31500026980C6F34236CCF80060DEB2062E08D10329E1
S3150002699006D1AE4ED6F800C02CF0807CC6F800C0F8
S315000269A0461C05D084461646BCF1060F04D014E0F8
S315000269B003F0FF0C0E46F7E7032E05D0042E03D094
S315000269C0052E01D0062E08D14FF08046C6F80C518E
S315000269D0C6F810519C4E361F3560DEB2062E08D11F
S315000269E0032906D1DFF860C203260CF1640CCCF849
S315000269F00060DEB2062E11D103290FD1DFF850C294
S31500026A000526CCF80060924E78363760904E0836EE
S31500026A1035600CF1040C3F26CCF80060461C05D00C
S31500026A2084461646BCF1060F04D087E003F0FF0C3D
S31500026A300E46F7E7032E7CD0042E7FD0052E01D01A
S31500026A40062E7BD1834E3668DFF80CC2CCF8006086
S31500026A50804E361D36680CF1040CCCF800607D4E73
S31500026A60083636680CF1040CCCF80060794E0C3608
S31500026A7036680CF1040CCCF80060764E1036366897
S31500026A800CF1040CCCF80060724E143636680CF128
S31500026A90040CCCF800606F4E18363668DFF8B8C1C1
S31500026AA00CF1200CCCF800606A4E1C3636680CF1EC
S31500026AB0040CCCF80060674E203636680CF1040CE4
S31500026AC0CCF80060634E243636680CF1040CCCF820
S31500026AD00060604E283636680CF1040CCCF8006073
S31500026AE05C4E2C3636680CF1040CCCF80060594E1C
S31500026AF030363668DFF860C10CF1400CCCF8006025
S31500026B00544E343636680CF1040CCCF80060514E03
S31500026B10383636680CF1040CCCF800604D4E3C3623
S31500026B2036680CF1040CCCF800604A4E40363668E2
S31500026B3000E003E00CF1040CCCF80060461C05D022
S31500026B4084461646BCF1060F04D011E003F0FF0C92
S31500026B500E46F7E7032E05D0042E03D0052E01D0EC
S31500026B60062E05D1D4F858423C4E04F04F04346048
S31500026B70441C04D003461146062B02D010E0DBB2B9
S31500026B80FAE7032905D0042903D0052901D00629ED
S31500026B9006D133490B68DB0702D06FF001030B60A5
S31500026BA006280CD1032A0AD0042A08D0052A06D0C0
S31500026BB0062A04D12B48016841F48061016023480A
S31500026BC07438016841F470010160BFF34F8FBFF35F
S31500026BD06F8F4FF01021D1F80002002803DBD1F8A5
S31500026BE00402002822DA204A176020480368002B94
S31500026BF0FCD01523C1F800320468002CFCD0C1F881
S31500026C00043201680029FCD0156001680029FCD015
S31500026C10BFF34F8F0D48F0380168154A01F4E06161
S31500026C2011430160BFF34F8F00BFFDE712491148C0
S31500026C300860F0BDE00F00F0E80F00F040350140BB
S31500026C400DF0ADBA00C007403C050040FCED00E087
S31500026C50105600400404001020C50040E40E004017
S31500026C60000400403C17004004E5014000E40140F6
S31500026C700400FA050090D0039C2400200148006815
S31500026C80004700005024002010B5124C022020615B
S31500026C90606111A0A06104F17800E0614FF4007018
S31500026CA020620020A06260620BA1A164E06204F58A
S31500026CB01E71E1641021A065C4E91410E06509A102
S31500026CC0E01DFFF719FC08A12046FFF715FC20205E
S31500026CD0A07110BD0C3900205465726D696E616C2D
S31500026CE000000000525454005345474745520000E5
S31500026CF00269C1688A4203D88068401A104400E0DB
S31500026D00501A401E70472DE9F047C4681746894657
S31500026D1006464FF000083069A04201D9051B02E081
S31500026D20B168201A0D1AB0686D1E001BA84200D861
S31500026D300546BD4200D33D4670682A462044494670
S31500026D40FFF794FBB0687F1B2C44A844A944A042D9
S31500026D5000D10024F460002FDDD14046BDE8F08763
S31500026D602DE9F04104468846D4E90207C51BE168CD
S31500026D70606816460844B54206D94146FFF776FBD7
S31500026D80B819E060BDE8F0812A464146FFF76EFB7E
S31500026D90761B08EB050132466068FFF767FBE66083
S31500026DA0F0E700000FB4084B10B504A902AA039835
S31500026DB000F02EF8044602A9002000F05AFA2046F6
S31500026DC010BC5DF814FB00007372020002E008C8F2
S31500026DD0121F08C1002AFAD170477047002001E04D
S31500026DE001C1121F002AFBD1704700000121202891
S31500026DF003DA81400548014003E0402802DA2038E0
S31500026E00814009B10120704700207047FC06FFBD92
S31500026E102DE9FF4F8DB00F460546002606E02528D0
S31500026E200BD0DDE90F1290476D1C761C28780028DE
S31500026E30F5D111B03046BDE8F08F0024A246A14636
S31500026E400122EC4900E0044315F8013F203B02FA17
S31500026E5003F00842F7D128782A2810D06FF02F02C3
S31500026E602878A0F13001092914D80AEB8A0102EB2D
S31500026E70410144F0020400EB010A6D1CF0E701CF68
S31500026E805FEA000A03D544F40054CAF1000A44F04A
S31500026E9002046D1C28782E2817D115F8010F44F02C
S31500026EA004042A280ED06FF02F022878A0F13001B0
S31500026EB009290AD809EB890102EB410100EB010914
S31500026EC06D1CF2E757F8049B6D1C28786C280FD0CE
S31500026ED006DC4C2817D068280DD06A2814D104E0A5
S31500026EE0742810D07A280FD10DE044F400140AE079
S31500026EF044F4801401E044F440146978814202D1DA
S31500026F0004F580146D1C6D1C2A786E2A1FD00CDCC9
S31500026F10632A31D004DC002A8BD0582A11D1A3E08F
S31500026F20642A68D0692A0CD165E0732A2ED004DC63
S31500026F306F2A73D0702A04D19BE0752A6FD0782A03
S31500026F406ED01046DDE90F129047761C50E1C4F36D
S31500026F500250022806D0032809D0042801CF09D0FE
S31500026F60066045E101CFF117C0E9006140E101CFBA
S31500026F7006803DE106703BE117F8040B8DF8000030
S31500026F8000208DF80100EB46012003E057F804BB10
S31500026F904FF0FF3061074FF0000102D40DE008F117
S31500026FA00101884649450FDA8045F8DB1BF80810CF
S31500026FB00029F4D108E008F1010188468142FADB92
S31500026FC01BF808100029F6D1DDE90F23AAEB080009
S31500026FD08146214600F036F9304400EB080604E00B
S31500026FE0DDE90F121BF8010B9047B8F10108F7D241
S31500026FF021464846F7E00A21C4F302534FF0000B3C
S315000270000891022B04D001CFC117032B09D00AE045
S31500027010FF1D27F00707F7E8020108E032E01FE04C
S3150002702020E000B2C117042B01D140B2C117031EE2
S3150002703071F1000307DA4FF0000CD0EB0C006CEB99
S3150002704001012D2302E0230504D52B238DF82430DC
S31500027050012303E0E30701D02023F7E7984658E02F
S315000270600A2110E010210EE010204FF0000B0890CC
S315000270700CE010214FF0000B44F004044FF0080915
S31500027080089103E008214FF0000B0891C4F3025364
S31500027090022B04D001CF0021032B06D006E0FF1DF0
S315000270A027F00707F7E8020103E080B2042B00D1BC
S315000270B0C0B24FF0000823072BD5702A07D0DDF89F
S315000270C020C08CF0100C5CEA0B0C05D00EE04023BD
S315000270D08DF82430012308E050EA010306D030235C
S315000270E08DF824308DF8252002239846DDF820C03D
S315000270F08CF0080C5CEA0B0C0BD150EA010301D1AF
S31500027100630706D530238DF824304FF00108A9F124
S315000271100109582A04D038A20B9208AA0A920BE057
S315000271203AA2F9E75B46089AFFF75CF90B9B9B5C70
S315000271300A9A521E0A92137050EA0102F2D10A9872
S31500027140ADEB000000F1200B600702D524F4803479
S3150002715001E04FF00109D94502DDA9EB0B0000E081
S31500027160002000EB0B0141440890AAEB010AE00360
S3150002717006D4DDE90F232146504600F063F80644A3
S315000271804FF0000908E009A911F80900DDE90F121C
S31500027190904709F10109761CC145F4DBE0030CD5E1
S315000271A0DDE90F232146504600F04CF8064404E080
S315000271B0DDE90F1230209047761C0899481E089088
S315000271C00029F5DC08E00A980A990078491C0A9118
S315000271D0DDE90F129047761CBBF10001ABF1010B02
S315000271E0F1DC21465046DDE90F2300F019F806448A
S315000271F06D1C1BE60928010030313233343536372F
S3150002720038396162636465660000000030313233EA
S31500027210343536373839414243444546000000008A
S315000272202DE9F041044600251E461746880404D47B
S3150002723005E039462020B0476D1C641EF9D5284664
S31500027240BDE8F0812DE9F041044600251E46904630
S31500027250C80301D5302700E02027880404D505E0BD
S3150002726041463846B0476D1C641EF9D52846BDE82E
S31500027270F0810A68531C0B601070704710B560B13C
S3150002728059B102780B785208B2EB530F05D1062298
S31500027290401C491CFFF723F908B1002010BD01204C
S315000272A010BD800701D00020704701207047C368D7
S315000272B08B4206D811440069491E814201D8012039
S315000272C070470020704790F82400012801D01F2043
S315000272D07047EE20704710B501220221002001F00E
S315000272E0D9FD08B1072818D107220221012001F091
S315000272F0D1FD08B1072810D100210A22084601F063
S31500027300C9FD08B1072808D110220121022001F087
S31500027310C1FD08B1072800D1002010BD00B5B3B0E9
S31500027320AC216846FFF7C9F830A86DDF08B100F056
S3150002733041F900202EA930AAC0F1050313445B7857
S315000273400B54401C0628F7DB33202D91ADF8AC0018
S31500027350022106208DF80010ADF8B0002BA9099184
S3150002736000218DF802108DF8030001208DF87C00B3
S315000273704FF4F07144F250628DF87D00094829906D
S31500027380CDE92212CDE924126946074800F0FBFB3B
S3150002739008B100F00FF90121034800F0F1FB33B008
S315000273A000BD0000A1F30200D03C00201149124AA0
S315000273B010B5891ACC0868B1032000EB04400FA16E
S315000273C006F0ACFD09F022FB002812D0BDE8104001
S315000273D000F0F0B803210D4800F0A3FC08B100F05C
S315000273E0E9F8042000EB0440BDE8104008A106F0CD
S315000273F095BD10BDE8720300887203004572617381
S315000274006520626F6E64732100000000D03C00208C
S315000274104164766572746973696E6720737461720A
S315000274207465642E0000000070B58CB015460E46D9
S3150002743000236C46C3F10F01415CE1545B1C102B27
S31500027440F8D30D2104F11000FFF737F80020C0F140
S315000274500F02315C2244401C11740328F7D368469C
S3150002746046DF0020C0F10F01214491F82010295473
S31500027470401C0328F6D30CB070BD002001F0E4BB1B
S315000274800149C97800F010BEF022002070B5002430
S31500027490064D06E06868012110F8340007F09EFAEE
S315000274A0641C28788442F5D3002070BD282300206E
S315000274B0F8B516460C4605460A2A01D20720F8BD3B
S315000274C007F086FB18B907F049FB0028F7D1134FDE
S315000274D0102113487D603C70BE60FEF7EEFF00206F
S315000274E0C7E904000F4E0DE005EBC40031680091B8
S315000274F081788DF8011000780B4A694607F0BEFACA
S315000275000028DCD1641EE4B2EED2BDE8F84005489C
S315000275100021064A001D00F05FB800002823002063
S31500027520582F00206459030045B002000D9A02004C
S3150002753072B606F093FD00BF06F0D4FB0028FBD11D
S3150002754011481249401AC408012000EB044010A158
S3150002755006F0E4FC11480068C00700D000BE022015
S3150002756000EB04400EA106F0D9FCBFF34F8F0B4887
S31500027570E43801680E4A01F4E06111430160BFF389
S315000275804F8F00BFFDE70000E87203008872030018
S31500027590466174616C206572726F7200F0ED00E0F4
S315000275A053797374656D207265736574000000000B
S315000275B00400FA050EB500210091CDE901106A46D4
S315000275C044F20100FFF7B4FF0EBD0000014802F0CD
S315000275D0DCBA0000082400203AB1006801294261A1
S315000275E000D000210161002070470720704700008B
S315000275F038B5114808235822416800910F4900689E
S3150002760005F040FA002815D10D4A69460D4802F0E8
S31500027610C1FA04000ED101210A4802F036FB012309
S31500027620094A1946074802F088FA0649012008392C
S315000276300870204638BD0000C05B0300A838002051
S31500027640B52D030008240020FFFF7F0070B5044615
S31500027650007F0D4608B1002070BDA26103F09EFCBA
S31500027660401941F10001C4E90201206900B1256116
S315000276702146BDE8704000200DF03CB901460020CD
S31500027680087701200DF036B930B5EFF3108172B6E6
S315000276900D4A9468012324B10370002900D162B611
S315000276A030BD93604FF0E023D3F88051074C25405C
S315000276B01560C3F88041D3F8844154605A17C3F861
S315000276C0842100220270E8E700390020FC06FFBD93
S315000276D00B498A68002A11D000280FD1EFF31080D7
S315000276E072B60B684FF0E022C2F800314B68C2F85E
S315000276F0043100228A60002800D162B67047000079
S31500027700003900202DE9F041064608680C46411C66
S315000277104FF0A0474FF0010506D005FA00F1C7F871
S315000277200815206806F06EF96068411C02D0002137
S3150002773006F04CF93168A069C1F82405607D227D06
S3150002774031681043C1F86C05D4E900123068C0F8FC
S315000277501425C0F80C15207D012815D1A068411CFE
S3150002776002D0002106F032F9E068411C05D08540BE
S31500027770C7F80855E06806F045F9D4E90212306800
S31500027780C0F80825C0F81015BDE8F0812DE9F041D2
S31500027790064608680C46411C4FF0A0474FF001050B
S315000277A006D005FA00F1C7F80815206806F034F984
S315000277B06068411C02D0002106F011F93168A06907
S315000277C0C1F82405607D217D32680843C2F86C0544
S315000277D0D4E900123068C0F80C15C0F81425207DD3
S315000277E0012815D1A068411C02D0002106F0F7F845
S315000277F0E068411C05D08540C7F80855E06806F0E8
S315000278000BF9D4E902123068C0F80825C0F8101541
S31500027810BDE8F08104F046BC2DE9F04781460588B3
S315000278204A484FF000088AB001784246284600F0DE
S3150002783053FC99F80500400701D4002176E005F5CE
S315000278408077B8B205AB0122072108F0C1FA04001D
S315000278503F48404A4FF00101A0EB02004FEAD00038
S3150002786001EB00460AD0204606F0FAFF02463046F1
S315000278702B46394906F05DFB214629E0284603F0EE
S3150002788003FF4FF6FF71044688422BD18A460698BB
S3150002789003F064FE0446504510D00146284603F024
S315000278A0D3FE2846FFF7ECFDE0B928460BF038FD7B
S315000278B02846FFF7E5FD0028BFD013E008F05EFC7E
S315000278C00446504508D1304624A106F027FB042180
S315000278D028460BF053FDB0E70146284603F0B4FEF6
S315000278E04FF00108B8B22246072108F0E9FA07006C
S315000278F01BD0862F1ED006F0B3FF024630462B461B
S315000279002349009406F01DFB394628460BF036FD46
S315000279100021484608F054F9B8F1000F02D020467B
S3150002792003F09CFE0AB0BDE8F0870121484608F044
S3150002793047F9F7E7142217496846FEF797FDADF8AF
S315000279400250684602F03AFCEFE70000F0220020FF
S31500027950C872030088720300C0660300436F756C29
S3150002796064206E6F7420616C6C6F63617465206E47
S31500027970657720706565725F696420666F7220693B
S315000279806E636F6D696E6720626F6E642E00000013
S31500027990DC670300E45803002DE9FC47002517883D
S315000279A00646158090F82D001446894630B13A46AF
S315000279B02146484600F0B6FB051E09D1B0784FF0C5
S315000279C00C0A18B32088C846001DB84202D9504690
S315000279D0BDE8FC87684679DF0028F9D120880321B3
S315000279E008F8001020881921401C80B2208008F86F
S315000279F000102088401C80B2208000EB0801BDF8F0
S31500027A0000000DF0A6F9218808442080F0780222B1
S31500027A10C8B1218896F9033001F1030C4846BC45EA
S31500027A20D5D8425421884FF0010C491C89B22180D5
S31500027A3000F801C02188491C89B2218009F8013069
S31500027A402088401C20807068B8B1218890F90030E7
S31500027A5001F1030C4846BC45B9D8425421880A2292
S31500027A60491C89B2218042542188491C89B221804D
S31500027A7009F801302088401C2080308950B1CDE9B8
S31500027A8000474B460622022106F108000DF050FA85
S31500027A90051E9DD1308A50B1CDE900474B460722DB
S31500027AA0032106F110000DF043FA051E90D1308B2A
S31500027AB050B1CDE900474B461522142106F11800B4
S31500027AC00DF036FA051E83D1306A30B13B462246A6
S31500027AD0494601F09AFD051EDBD1706A30B13B467C
S31500027AE02246494604F05CFD051ED2D196F82C00CA
S31500027AF038B13B462246494630460BF0A3FD051EE9
S31500027B00C7D1307838B13B4622464946304604F062
S31500027B10D5FD051EBDD128465AE718B504460020F4
S31500027B20ADF8000013466A46204600F006F8002823
S31500027B3002D0BDF80000204418BD70B5E0B1DAB13C
S31500027B40002402E0045D2C44A4B2651C8D4206D2D8
S31500027B501688A642F6D8061976789E42F2D18C424B
S31500027B600AD2A31C005D9BB200B1401E0004000CA9
S31500027B7002D01C188C4201D9002070BD138070BD42
S31500027B8080F8301070472DE9F0410D00044606D00A
S31500027B902CB195F87A000026012803D006E00E20C3
S31500027BA0BDE8F08195F89800012829D0D5F8A00003
S31500027BB0042825D0D5F89C00042821D04FF00108CE
S31500027BC0A6702C2205F17801201DFEF74FFC84F8E1
S31500027BD03060D5F8A4006063D5F8A800A0634FF61C
S31500027BE0FF70A4F8240404F58260C4F82004C4F8E3
S31500027BF02664A4F82A6484F82C64207810B104E080
S31500027C000720CDE7FF2084F8540004F155072046EB
S31500027C10C4F81074FFF757FBA4F8140404F21442D4
S31500027C2039462846FFF7B8FE0028B9D104F23120BA
S31500027C30C4F818042046FFF746FBA4F81C0404F215
S31500027C401C4205F13C00D4F81814FFF7A5FE0028E3
S31500027C50A6D184F85180208BA4F8480084F83C8091
S31500027C60266484F85060606900216064454604F128
S31500027C703C02781E72DF002892D1257090E710B57B
S31500027C800288102A1BD0112A20D0262A1DD1007A5A
S31500027C900C46012801D0022817D1A0780521401CE4
S31500027CA0B0FBF1F201FB1201204600F03AF800287F
S31500027CB00BD0A16B002908D0BDE810400847C27B53
S31500027CC0012A02D18088A1F8240410BD0C460021A5
S31500027CD084F82E148088B4F824148842F5D12079C9
S31500027CE00028F2D10121DFE710B5044690F85400CE
S31500027CF074DF012084F82E04002084F8300484F80E
S31500027D0050000621204602F0EEFD002808D1A17897
S31500027D10204600F006F810B1A16B01B18847002099
S31500027D2010BD2DE9F05F044600780F4698B1A770A2
S31500027D300025C4F82654A4F82A5484F82C54A079B1
S31500027D40012608B1012F09D0E07980B1012F05D0B3
S31500027D50022F03D00BE00820BDE8F09F616B21B132
S31500027D6084F82D640820884701E084F82D5404F233
S31500027D70274100200A5C0AB1304603E0401C06286F
S31500027D80F8D300204FF002084FF0030B012F06D064
S31500027D90022F0CD0032F0FD0042F15D110E0A1799A
S31500027DA029B194F8241011B908B130460DE0E179F1
S31500027DB011B108B1404608E0207A08B1584604E0FD
S31500027DC0607A08B1042000E02846A070616B41B1D8
S31500027DD0032801D0042804D1607910B194F82E0446
S31500027DE098B184F82F5404F13C0018210746FEF797
S31500027DF064FB84F83C6004F12C0008F0F1FA58B1F7
S31500027E0094F82C0084F8510008E084F8305484F881
S31500027E102F6407208847E6E784F8516094F8240027
S31500027E2058B104F1280008F0DBFA20B194F82800D2
S31500027E3084F8520001E084F8526084F85050A27827
S31500027E4004F2264104F582694FF0060A052A64D235
S31500027E50DFE802F07C030F22420084F83160C4F8A6
S31500027E602054C4E9101584F83C808020A4F8480008
S31500027E7055E084F8318094F82420384612B107225E
S31500027E80027001E080F800B0228A8281C4F8205490
S31500027E904160E168B96042E06069B860208BB881F0
S31500027EA094F824003D460028204602D084F83CA0DF
S31500027EB001E084F83C600DF007F850B185F81480B3
S31500027EC00421204602F00FFD38BB052184F831104B
S31500027ED021E084F831B01EE0E069B860208CB881F8
S31500027EE094F824003D460028204602D084F83CA09F
S31500027EF001E084F83C600CF0E7FF48B185F8148095
S31500027F000421204602F0EFFC38B984F831A002E0E1
S31500027F10042084F83100C4F82094A07878B13A4657
S31500027F2004F15400D4F8201472DF00287FF414AF51
S31500027F3094F8301094F8540073DF0028F6D1616B80
S31500027F4011B194F831008847002005E784F83150D2
S31500027F50F5E7000070B5040012D001461C22144851
S31500027F60FEF784FA1248134D0560206850B17ADF95
S31500027F70002806D12068016829604068686005E02B
S31500027F800E2070BD0B487BDF0028FAD108484FF659
S31500027F90FF711438084A20F8041B05493439016078
S31500027FA00021FFF719FB0028EBD0032070BD00006B
S31500027FB04C2B0020A8220020614E030010B5044677
S31500027FC000F0A6F8002805D02146BDE81040024878
S31500027FD004F0D7BD10BD0000782B002070B5154601
S31500027FE00E4604460CF07CFF002809D0054800EB3B
S31500027FF08400C0692A463146BDE8704002F0A0BC42
S3150002800070BD0000682B002010B5044600F080F811
S31500028010002805D02146BDE81040024804F0B1BD53
S3150002802010BD0000802B002010B5044600F070F849
S31500028030002805D02146BDE81040024804F0A1BD43
S3150002804010BD00007C2B002070B50546002400F010
S315000280505FF838B12946044804F093FD08B10224BA
S3150002806000E00124204670BD742B002070B5054641
S31500028070002400F04DF838B12946044804F081FD89
S3150002808008B1022400E00124204670BD702B0020B6
S3150002809010B51821034804F04FFD182800D0C0B2CD
S315000280A010BD0000682B002070B505460C46084638
S315000280B00CF016FF60B1284600F02AF840B10548D8
S315000280C0294600EB8400BDE870401C3004F059BD1F
S315000280D0002070BD682B002070B5054616460C467A
S315000280E008460CF0FDFE00280ED0284600F010F8D7
S315000280F0002809D00548324600EB84002946BDE82F
S3150002810070401C3002F0EABB70BD0000682B0020F4
S31500028110142801D3002070470146014804F031BDFE
S315000281206C2B00207CB5054608880C460930904227
S3150002813001D90C207CBD68466DDF0028FAD1218862
S315000281400820685420881B21401C80B220802954B4
S315000281502088401C80B220802844DDF8011001608E
S31500028160BDF8051081802088801D80B220809DF890
S315000281700010490800D0012129542088401C208083
S3150002818000207CBD10B504F0C1FE002809D10548C7
S315000281904FF0030C00DF002803D1BDE8104004F0C5
S315000281A023BF10BD5C29002018B1034908600020D6
S315000281B070470E2070470000A42200200E480F4987
S315000281C010B5401AC008042101EB00400CA105F0CD
S315000281D0A5FE4FF0FF3100203DDF00280BD1B12173
S315000281E03CDF002807D11348416901208847022055
S315000281F006F048F8002010BDE872030088720300FA
S31500028200496E20626C655F6466755F627574746F31
S315000282106E6C6573735F626F6F746C6F61646572A7
S315000282205F73746172745F66696E616C697A650DFB
S315000282300A00000040290020044810B50068416980
S3150002824000208847BDE81040FFF7B8BFA4220020EF
S3150002825010B588B0044620216846FEF72EF90320A1
S31500028260ADF8000020788DF802009DF80D00172168
S3150002827040F028008DF80D0001208DF810008DF8D1
S315000282801300ADF804108DF812008DF80C008DF86D
S3150002829011006088A21D694601F082F808B010BD7F
S315000282A010B5184C86B01ECC8DE81E0048B1164C8F
S315000282B04FF6FF71A180006800216061217618B136
S315000282C004E00E2006B010BD104860610E48FFF7AC
S315000282D06BFF0028F6D101208DF812004FF6596087
S315000282E0ADF81000A21C04A90120A8DF0028E9D1DC
S315000282F00549684662DF0028E4D10348FFF7A8FF74
S31500028300E0E700008057030040290020899D020013
S3150002831010B5002823D003881C4C102B17D02146F9
S31500028320112B8A8815D0C988512B19D0532B16D1F7
S31500028330C088884213D1207E002810D0FFF77CFF28
S3150002834000280CD06169BDE81040022008478088E9
S3150002835004E08088824202D14FF6FF70A08010BDF1
S3150002836083889342FBD110F8062F022AF7D142885E
S315000283708A42F4D1017A0429F1D00629EFD00529DF
S31500028380EDD0BDE81040801C07F0D2B8402900208D
S315000283902DE9F0410546007B042601272E4C0128D3
S315000283A011D002282CD00226287B314600F08EF806
S315000283B018B1206841690320884720684169022074
S315000283C0BDE8F041084720684FF00008417E49B1F8
S315000283D00621012000F07AF800283BD02068416986
S315000283E00320EDE707760121084600F06FF8002822
S315000283F030D02268112882F81880D5D10626D3E714
S315000284006A7B142A22D80AB3DFF8508005F10E01DE
S3150002841008F10400FEF72AF8697BC8F818102168EB
S315000284204046497E0029BFD1A0F10C010A68011F0E
S31500028430904768B10F28B7D109480A49401AC008BF
S3150002844007EB0040084905F069FDADE70526ABE7F5
S3150002845020684776BDE8F081A42200206829002022
S31500028460E8720300887203009C5D030070B515492B
S3150002847000250A68002A24D04A68002A21D0083139
S31500028480904708281DD0104C0028206845760ED04B
S315000284900621022000F01AF818B12068416903206B
S315000284A08847206841690220BDE8704008470121DB
S315000284B0022000F00BF8002803D02068416903204F
S315000284C0F2E770BD5C290020A422002086B00323B7
S315000284D0ADF8003020238DF814308DF815000022F7
S315000284E00E48019202928DF81610C188ADF804105A
S315000284F002218DF8061005A90491ADF80820CDF8E1
S315000285000CD0808801A9AEDF002804D1BDF8001086
S31500028510032900D00C2006B0704700004029002035
S31500028520114A124B03219A1AD20801EB024270B188
S3150002853001280FD00C4A01219A1AD20801EB0242F5
S3150002854002280AD0032810460AD009A109E01046DB
S3150002855011A106E010461CA103E0104623A100E08B
S3150002856031A105F0DBBC000088720300E87203004B
S31500028570556E6B6E6F776E206576656E74206672C9
S315000285806F6D20626C655F6466755F627574746F89
S315000285906E6C6573732E00004465766963652069A7
S315000285A07320707265706172696E6720746F2065E0
S315000285B06E74657220626F6F746C6F61646572208F
S315000285C06D6F64652E0000004465766963652077E9
S315000285D0696C6C20656E74657220626F6F746C6F65
S315000285E061646572206D6F64652E00005265717557
S315000285F065737420746F20656E74657220626F6F86
S31500028600746C6F61646572206D6F64652066616962
S315000286106C6564206173796E6368726F6E656F75DF
S31500028620736C792E000000005265717565737420B3
S31500028630746F2073656E64206120726573706F6E4D
S31500028640736520746F20636C69656E742066616958
S315000286506C65642E0000000010B50288502A13D102
S31500028660C088CA8890420FD1086900280CD080477A
S3150002867006480749BDE81040401AC008032101EB2D
S31500028680004004A105F04ABC10BD0000E8720300D8
S315000286908872030044525320636861726163746591
S315000286A0726973746963207772697474656E000007
S315000286B086B0ADF810208288A2F57F43FF3B14D026
S315000286C000220092019202920392C388ADF804201E
S315000286D004AACDE90221ADF8003001238DF802305B
S315000286E080886946AEDF06B0704743F20200FAE7B9
S315000286F010B50288502A13D1C088CA8890420FD179
S31500028700086900280CD0804706480749BDE8104092
S31500028710401AC008032101EB004004A105F0FEBB8C
S3150002872010BD0000E87203008872030045525253DE
S315000287302063686172616374657269737469632028
S315000287407772697474656E0086B0ADF810208288FF
S31500028750A2F57F43FF3B14D00022009201920292BF
S315000287600392C388ADF8042004AACDE90221ADF82C
S31500028770003001238DF8023080886946AEDF06B0EC
S31500028780704743F20200FAE72DE9F04701883B4EB3
S3150002879040F2F3194FF6FF7510291BD011293ED06E
S315000287A0122954D0502946D1C188F289841D91429A
S315000287B041D1618902293ED18688304603F014F8F8
S315000287C0050038D004F10C0000F0C4F9A8B329461C
S315000287D030464EE0C17B8788044601292BD1A84644
S315000287E0284603F001F8050017D02F8000202872D2
S315000287F0234843464A460168C5F80A104068C5F848
S315000288000E0004F1100105F10A0003F001F9687285
S31500028810F08900280FD129462AE0042013E0808837
S3150002882002F0E2FF040006D06068FEF727FF08B1F7
S315000288300AF088FD2580BDE8F087FFE76868FEF745
S315000288401DFF0028F7D0BDE8F0470AF07BBD8788F8
S315000288500646384602F0C8FF0400ECD02B464A46CC
S3150002886006F1080104F10A0003F0D2F8607221460B
S315000288703846BDE8F04700F00FBF00004C2B002041
S31500028880A82200202DE9F04F044686880188424836
S3150002889097B0834610290CD0112950D010301929CF
S315000288A06AD01A2974D1217A0C09042C4DD30122DB
S315000288B04CE0394D083DA868C0430B9069680BA887
S315000288C004F083F90B990CA800F080FE2C220CA967
S315000288D06846FDF7CBFD0027E946A84610E000BF33
S315000288E009EB47005FF00005B0F804A008EB85002D
S315000288F05146001D04F005F96D1C1E2DF6D37F1C92
S315000289000098B842ECD8142E05D317B00420BDE85F
S31500028910F04FFEF74FBE3146584604F03DF9314658
S3150002892008F1040004F038F9E07B022830D117B0D0
S315000289303146BDE8F04F1848001D04F02DB917B0B6
S315000289403146BDE8F04F04F0DCB80022314601F0B2
S31500028950C5FF032C01D3012200E000220E48314656
S315000289600C3001F0BBFF022C01D3012200E00022F1
S3150002897009483146083006E0217A002908D1617A91
S31500028980C1F3C002314617B0BDE8F04F01F0A6BFF1
S3150002899017B0BDE8F08F0000702B002010B504461A
S315000289A00748007800280AD0204602F049FD2046F2
S315000289B00AF026FF2046BDE8104002F02BB910BD92
S315000289C0E022002010B51C4C0188606810290ED0E8
S315000289D0112930D1401E60602DD1FEF77CFC0028A3
S315000289E029D02168002926D0BDE810400847F8B9E9
S315000289F000210122084600F04DFA08B1072814D1D9
S31500028A0007220221012000F045FA08B107280CD1FD
S31500028A1004220221002000F03DFA12220121042044
S31500028A2000F038FA20B1072802D0216801B1884740
S31500028A306068401C606010BD20230020F8B5044623
S31500028A4001882648264A0025801AC008042202EB1D
S31500028A50004021292AD013DC214A204B4FF0030083
S31500028A60A3EB02024FEAD2021E4E00EB024010298D
S31500028A7011D0112903D11CA105F050FA7570F8BD69
S31500028A803B291FD05629FAD11BA105F047FAA08827
S31500028A90132176DF1CE01EA105F040FA012070705A
S31500028AA0A188F1801D4804F099F911E01CA105F096
S31500028AB035FA0095A08869468FDF0028DFD0FEF7D9
S31500028AC079FDF8BD1BA105F029FAA088132176DFEE
S31500028AD00028F6D0BDE8F840FEF76CBDE872030048
S31500028AE08872030058240020446973636F6E6E65B2
S31500028AF0637465642E000000474154542053657226
S31500028B007665722054696D656F75742E00000000DB
S31500028B10436F6E6E65637465642E0000C43C00206C
S31500028B205048592075706461746520726571756567
S31500028B3073742E004741545420436C69656E742049
S31500028B4054696D656F75742E000000000078C0F3DD
S31500028B5040007047007800F00100704710B50288A7
S31500028B60502A1CD1831DC088CA88904217D1096930
S31500028B70002914D0D86800BA20F0FF04D87B044339
S31500028B8020468847064807492246401AC00803215C
S31500028B9001EB0040BDE8104003A105F0C3B910BDCA
S31500028BA0E8720300887203005453532063686172AB
S31500028BB06163746572697374696320777269747428
S31500028BC0656E2025640000000149085C70470000BC
S31500028BD03B5903000649095C4FF0A040D0F8100546
S31500028BE0C84010F0010000D0012080F0010070475B
S31500028BF03B5903002DE9FC410646C0074FF000052C
S31500028C000ED0104F00240122385D00950023114634
S31500028C10019504F05DFE641C032CF4D300F046F8C3
S31500028C20B0070DD5074E0024F61C0022305D032343
S31500028C3000951146019504F04BFE641C032CF4D3F7
S31500028C40BDE8FC813859030007490B5C4FF0A0418F
S31500028C50D1F804250120984020EA0203C1F808351C
S31500028C601040C1F80C057047385903000249085CE8
S31500028C70012104F020BF0000385903000249085CB4
S31500028C80002104F018BF0000385903000649095CA8
S31500028C904FF0A040D0F80405C84010F0010000D003
S31500028CA0012080F0010070473859030010B50024F6
S31500028CB02046FFF7DBFF641C032CF9D310BD10B569
S31500028CC000242046FFF7DAFF641C032CF9D310BDFB
S31500028CD010B50246064B4FF0FF3000215C5C944211
S31500028CE001D1084610BD491C0329F7D310BD000067
S31500028CF03B59030070B50C4E0C004FF00005306076
S31500028D000BD0012000F06AF808B1022004E000202E
S31500028D1000F064F800B10B202070706810B9FEF7FD
S31500028D20DAFA0546284670BD2023002010B5002039
S31500028D3000F03EFA08B1062806D1012000F038FA02
S31500028D4008B1062800D1002010BD00002DE9F04729
S31500028D500D468146FFF7BCFF0446032836D2DFF8EC
S31500028D6074801B481C4EA8F1040725B3012D0ED0B2
S31500028D70022D2BD104EB440030444578002D25D03A
S31500028D80F968002922D02846BDE8F047084704EBD7
S31500028D904401755C0E44717849B10E4A4FF4804124
S31500028DA0521E8068FEF752FC08B987F80390B17824
S31500028DB008F80410E2E78068FEF760FC04EB440161
S31500028DC0314418F804008D78A842D7D0BDE8F08760
S31500028DD04059030014230020082F0020032801D243
S31500028DE0FFF7F8BE002070470146224810B5C0883A
S31500028DF004292BD0072932D00A291AD0102937D1B3
S31500028E004FF0A040D0F804154FF480228A43C0F8F0
S31500028E10082501F48021C0F80C1517481749BDE84A
S31500028E201040401AC008032101EB004014A105F0CE
S31500028E3075B8002000F050F808B1FEF7BBFBFFF74B
S31500028E4075FF08B1FEF7B6FB33DF02E0132176DFCA
S31500028E500CE000280CD0BDE81040FEF7ABBBA0F535
S31500028E607F41FF3904D10A48FEF73EFF0828F0D1B8
S31500028E7010BD000058240020E87203008872030027
S31500028E806273705F6576656E745F6B65795F3200DB
S31500028E90D03C002070B50023032810D20D4D00EB04
S31500028EA04004012A02D101290CD00022094E00EB0E
S31500028EB04000304461B1012906D0022906D00723B9
S31500028EC0184670BD0E30C2B22A55F9E74270F7E76E
S31500028ED08270F5E7082F0020044A01460020127A24
S31500028EE0D20702D0084600F04DB870471023002082
S31500028EF070B506461E480024C0E90261B00720D5B7
S31500028F000025012211462846FFF7C4FF6D1C0446C0
S31500028F10032D02D2002CF4D013E094B940F233327E
S31500028F2003211448FEF7C4FA04000AD1FEF7AEFA8A
S31500028F30040006D10F48104A0021001FFEF74CFB21
S31500028F400446F00712D00120FFF754FE74B909480F
S31500028F500A4A00210C38FEF73FFB040006D10548F9
S31500028F60074A01210838FEF737FB0446204670BD42
S31500028F70102300204C590300BD9202004DBE020090
S31500028F807B7402002DE9F05F874C05460026607867
S31500028F90B34618B184F801B002F042FF834F4FF096
S31500028FA001084FF47A694FF4C87A182D61D2DFE8C6
S31500028FB005F00C1212303F4C61F368716871F77A52
S31500028FC07A7A7A7AF0A9CCF0F3F702F029FF3868B8
S31500028FD0FEF754FBD8E00120FFF758FE00284FF0B9
S31500028FE001000BD0FFF742FE0020FFF73FFE022DE5
S31500028FF002D14FF4E1609AE0484698E0FFF73EFE60
S315000290000020FFF73BFE022D01D1C8208FE050461B
S315000290108DE00120FFF73AFE00284FF0010004D050
S31500029020FFF724FE4FF4487081E0FFF727FEECE7D6
S315000290300120FFF72BFE00284FF0010002D0FFF7B8
S3150002904015FED9E7FFF71AFEE1E70120FFF71EFE3C
S3150002905000284FF0010002D0FFF708FE01E0FFF7FB
S315000290600DFE257040F6CD4100223868FEF7EEFA75
S31500029070064644E00120FFF7E7FD257006E025706D
S315000290803DE084F801800220FFF7DEFD002240F277
S315000290906661EAE784F801800220FFF7D5FD002227
S315000290A04FF40051E1E77868FEF7E8FA0646D5F193
S315000290B0110000D02EB10020FFF7D8FD84F802B0CF
S315000290C01DE0012816D980B2C8214843C117C90339
S315000290D041EA5041C0034FF47A72801841F100010F
S315000290E052000023FDF77EF9014600227868FEF75A
S315000290F0ADFA06460020FFF7C1FD84F8028030462D
S31500029100BDE8F09F0020FFF7C1FD00284FF00100E7
S3150002911007D0FFF7ABFD0020FFF7A8FD40F686302B
S3150002912005E0FFF7ABFD0020FFF7A8FD3220410C5A
S31500029130C0034FF47A72801841F100012570520083
S315000291400023FDF74FF901468EE70020FFF79EFD4B
S3150002915048B10020FFF78AFD0120FFF78FFD0022AC
S3150002916040F233310DE00120FFF790FD18B10120E6
S31500029170FFF77CFD83E70020FFF780FD002243F224
S3150002918033313868FEF762FA064678E701E007E00F
S3150002919002E002F045FE72E70120FFF76FFD6EE77F
S315000291A0FFF78DFD6BE700001023002040590300F6
S315000291B001210BF024BF00002DE9F84F0546861C5D
S315000291C000208DF8000091460F464FF0010A6846CE
S315000291D0FEF75AFA1B4C04F21C4860683860D4E960
S315000291E00101194F401A3968081A0EE0012140465A
S315000291F003F0E5FC03F038F80146404603F0DFFCD5
S31500029200D4E90101401A3968081A401C8642EDD891
S31500029210B9F1000F03D0052065F3891002E006209C
S3150002922065F39F5061683A68114004EB8101C8609A
S315000292306068304460609DF80000FEF749FA5046C7
S31500029240BDE8F88F6C340020A423002070B50D46CB
S3150002925004460A2902D10D21FFF7F8FFA068226809
S31500029260411CA1601554D4E90101814204D3204670
S31500029270BDE8704003F0F1BF70BD0000044881688C
S315000292804068814201D101207047002070470000EA
S315000292906C340020034630B5074800210478426842
S315000292A006E000BF02EBC10005789D4203D0491CCF
S315000292B0A142F7DB002030BD2823002000780221DE
S315000292C0FFF744BD1CB5044602F0DEF900236A46E8
S315000292D0092106F0BFFE052805D10348012241797E
S315000292E02046FEF7F9FE1CBDB02200201CB504463E
S315000292F00020009042F6A620ADF8000001208DF86D
S315000293000200084801AA6946006801902046A0DFCB
S31500029310002805D10448012281792046FEF7DCFEA9
S315000293201CBD0000D8570300B022002005494FF0AB
S31500029330FF32082841F8202002D3084480F848204A
S3150002934070470000C03B0020F0B54FF0FF3512B168
S315000293500023082601E008230C260C4C05E000BF7A
S3150002936054F823707F1C04D05B1CB342F8D3284602
S31500029370F0BD26185DB286F8305044F82310002A54
S31500029380F5D1E11881F84800F1E70000C03B002062
S315000293900249084490F9300070470000C03B0020A3
S315000293A02DE9F0438146887891B090460C4600B983
S315000293B001208DF83E002088ADF83C00002500957E
S315000293C0607C69460AF0C6F96E46A07C711C0AF0FA
S315000293D0C1F9E07B00289DF8020002D040F00800A7
S315000293E001E020F008008DF80200217C11B140F066
S315000293F0100001E020F010008DF80200217B11B16F
S3150002940040F0010001E020F001008DF80200217D0C
S3150002941009B1022100E0012161F342008DF8020048
S315000294201C2102A8FDF749F8607BC10601D480061B
S3150002943017D50E950EAFE07C791C0AF08BF99DF8D4
S315000294403800079720F00F00401C20F0F000103083
S315000294508DF838009DF83A0020F00600801C8DF841
S315000294603A00607B8DF80800A07B8DF80900142174
S3150002947009A8FDF722F80FA8CDE90906A088ADF8DC
S315000294803000A06820B1E088ADF82C00A0680D90ED
S31500029490A06998B301950088ADF81000A06901ADE6
S315000294A001A94088ADF81200A069406806950390AC
S315000294B0A069007B0AF04EF9A069691C407B0AF09C
S315000294C049F9A069807A00289DF8060002D040F08A
S315000294D0080001E020F008008DF80600A169C97AAB
S315000294E011B140F0100001E020F010008DF80600E6
S315000294F0A169097A19B140F0010002E00DE020F0FD
S3150002950001008DF80600A169897B09B1022100E0FC
S31500029510012161F342008DF80600E06900B1059071
S31500029520434609AA02A94846AADF11B0BDE8F0835C
S3150002953070B504464FF6FF750A462846AC4209D175
S315000295404FF480742146104603F0F6FA80B2A04228
S315000295500BD070BDFF2CFCD82146104603F0DCFA76
S3150002956090F0010F01D0204670BD284670BD000064
S3150002957070B5084C050009D010342168002907D0BF
S3150002958008682060496828468847F6E70834F4E701
S3150002959070BD0000943B0020054A012120B101283C
S315000295A005D19170FFF7E4BF51700020FAE77047CA
S315000295B0943B002010B5D0E90234D1E90220D11A39
S315000295C0A04101D3012010BD002010BD73B58CB09F
S315000295D00646002000900D9880B100246D46214673
S315000295E00DA803F0CEFA30B1009805EB4000848056
S315000295F00098401C0090641C142CF0D32C2269465F
S315000296003046FCF733FF0EB070BD2DE9F0411788E6
S315000296100646B81D14460D46984202D90C20BDE8EE
S31500029620F0813188072206290AD34FF4486C4FF697
S31500029630FF73614501D9994202D17088062801D289
S315000296401046ECE7604501D99842F9D1994203D018
S31500029650984201D08142F3D80520E855208812218C
S31500029660401C80B2208029542088401C80B2208071
S31500029670411930880BF06DFB2188084480B22080A6
S31500029680411970880BF065FB218808442080002070
S31500029690C5E7FDF78FBF000038B54A7A0F4B62B1B6
S315000296A000220A725969002906D001228DF800208B
S315000296B0ADF802006846884738BD0A7A62B19B68EF
S315000296C04C68024619462046FDF7C0FF0028F3D033
S315000296D0BDE8384009F036BE5B68F1E74C2B002046
S315000296E0F0B585B016460F4604461D4614220B49B0
S315000296F06846FCF7BBFE0A488DF80870ADF80240D2
S31500029700ADF80A608DF80C50017800222046FEF76B
S31500029710E3FC684600F052FD05B0F0BDF8580300C0
S31500029720F022002010B5044612B11088002211E082
S315000297304FF6FF70FAE7030A43EA0023A05C58409B
S31500029740C0F30313584080EA003080B2C3B280EA05
S315000297504310521C8A42EED310BD0000F0B50C46EF
S3150002976006461E481E4987B0401AC708042000EB69
S315000297700740334622461BA104F0DBFB002004907F
S315000297800590ADF8104001900290ADF8124001AA82
S3150002979004A9304690DF05001DD005F061F80346A6
S315000297A0012000EB0740044632461A4904F0C1FB89
S315000297B0BDF8042012B9BDF8060028B1BDF806307E
S315000297C0204615A104F0B5FBBDF808201AB12046C3
S315000297D0214904F0A7FB07B02846F0BD88720300B2
S315000297E0887203005570646174696E6720646174DF
S315000297F061206C656E67746820746F202575206F12
S315000298006E20636F6E6E656374696F6E20307825A5
S31500029810782E0000B45E0300546865207265717587
S3150002982065737465642054582F5258207061636BB7
S315000298306574206C656E67746820697320746F6F37
S31500029840206C6F6E672062792025752F2575206F33
S3150002985063746574732E0000005F030070B50446DE
S315000298600948012103F0C6F9BFF35F8F00250028DE
S3150002987008D1204602F072FC002803D1BFF35F8FA5
S315000298800148056070BD0000BC2200202DE9FF41A1
S315000298900C4620B14FF4064004B0BDE8F0812079B1
S315000298A0002748F2096538B141F61D5601281BD03A
S315000298B0022826D0681DEFE702202071029703973F
S315000298C0E0680190694601A807F0B2FB50B1029820
S315000298D08188E18000882081BDF80010029807F097
S315000298E025FCD9E72846D7E70A4B6A460021A01D80
S315000298F007F056FB38B1074918398F61CF61A84284
S31500029900CAD13046C8E703488188019807F00EFCA1
S31500029910F5E700005823002010B586B01C460190DA
S315000299208DF8081000208DF80B008DF80C008DF8CC
S3150002993009008DF80A0014208DF8140009480490D5
S3150002994003218DF800200E208DF80D108DF80100F0
S3150002995007F05CFF22460221684607F07DFF06B04B
S3150002996010BD00008624002010B5022211460920EF
S3150002997008F0EEFB012008F0C3FB402008F0C6FB0E
S31500029980002008F0CDFB114808F0D6FB07F048FD91
S315000299900F4B01220A210F48FFF7BEFF18B107F04D
S315000299A031FD002010BD0A480A21801C01F0C2FCCC
S315000299B0024609480949401AC008032101EB004042
S315000299C007A104F0AFFA012010BD00001035060011
S315000299D05C4400207C240020E872030088720300A5
S315000299E04E464320416374697665205032502064A6
S315000299F0657669636520666F756E642E204E4643F2
S31500029A004944333A2025730D0A00000070B500243C
S31500029A100F4D10E0686800EBC406307805F094F844
S31500029A207178012901D0012100E0002141403078FE
S31500029A3000F018FB641C28788442EBDBD5E90401AC
S31500029A40084303D0BDE870400AF070BF70BD000045
S31500029A502823002010B50021024803F0CBF880F33A
S31500029A60100010BD8838002010B54FF4AC740146C2
S31500029A7022460548FCF7FAFC0349224601F5AC707A
S31500029A80FEF716FE002010BD842900207047000054
S31500029A9030B58DB0C0B31E4C1E4B006820610FCB93
S31500029AA08DE80F002146684662DF00282AD1207819
S31500029AB001258DF83200ADF83050A21C0CA92846BB
S31500029AC0A8DF00281ED1202104A8FCF7F6FC0220FC
S31500029AD0ADF8100020788DF81200ADF816504FF44C
S31500029AE0AC70ADF814009DF81D008DF8215040F0C1
S31500029AF012008DF81D008DF823506088A21D04A95E
S31500029B00FFF74EFC0DB030BDFFE70E20FAE700006E
S31500029B10DC2A0020905703004FF480328A40016805
S31500029B20C1F848230068C0F8082370474FF4A072B2
S31500029B3002EB810189B200F005BB2DE9F041054631
S31500029B400E464FF4A07000EB860081B228684FF4EF
S31500029B508034B440984622F07F47C0F8084328680C
S31500029B60C0F84843286804F0BBFB286800EB86006F
S31500029B70C0F840752868C0F84443B8F1000F02D017
S31500029B802868C0F80443BDE8F0810068D0F80405EF
S31500029B907047000070B54379234C44F8232042797C
S31500029BA0231D03EBC202224C1579204A121BD4084C
S31500029BB02DB10825022000EB04401EA130E0056805
S31500029BC00A88C5F8082590F904208978002A4FEA00
S31500029BD0411104DB02F1E02282F8001405E002F0F2
S31500029BE00F0202F1E02282F8141D90F904100122FC
S31500029BF0002909DB01F01F0502FA05F5490989006A
S31500029C0001F1E021C1F800514179002503EBC101C0
S31500029C100A71417943F83100032000EB04400EA19A
S31500029C2004F07CF9284670BD24240020007303004A
S31500029C308872030052544320696E7374616E6365C1
S31500029C4020616C726561647920696E697469616C00
S31500029C50697A65642E0000005254433A20696E699F
S31500029C607469616C697A65642E00000090F90400DB
S31500029C70002809DB00F01F02012191404009800003
S31500029C8000F1E020C0F8001270470A46022100F0F7
S31500029C90DFB94FF4827100F055BA00680121016004
S31500029CA0704700680121416070472DE9F05F074661
S31500029CB00C464FF4A07000EB84001FFA80FA386855
S31500029CC04FF48036A6409B4622F07F45C0F8486393
S31500029CD03868C0F808633868D0F8048500EB840257
S31500029CE0D2F84095C2F840855146386804F0F8FA31
S31500029CF0A9EB080020F07F40012806D1102004F0CD
S31500029D0041FE5146386804F0EBFA3868D0F804850B
S31500029D10C0F84463A5EB080121F07F4138680129A8
S31500029D2000EB840010D0C0F840553868D0F804150E
S31500029D306FF07F4C6A1A521E22F07F42ACEB0B0385
S31500029D40934217D362B118E06D1CC0F8405510203B
S31500029D5004F018FE3868D0F8040540450AD10CE034
S31500029D6000EB84006D1CC0F840553868D0F8040535
S31500029D70884202D00D20BDE8F09F012231463846C6
S31500029D8000F066F90020F6E7024605480549401A42
S31500029D90C008042101EB004003A104F0C3B800008F
S31500029DA0E87203008872030044756D6D792065764A
S31500029DB0656E742068616E646C6572207265636597
S31500029DC069766564206576656E742030782578003C
S31500029DD013460A460021FFF783BC00002DE9F8432B
S31500029DE0104D0F4680461E4691466946286802F087
S31500029DF05CFE040014D01C21FCF75FFB01202071DD
S31500029E00C4F81490380BC4F80080C4E902606946AD
S31500029E10286802F06BFE07F03BF80020BDE8F883E5
S31500029E200420FBE7E459030008B500788DF800002A
S31500029E3000208DF80100022269460248FEF784FCE2
S31500029E40C0B208BDF02A00207047000030B58DB0C0
S31500029E50B0B31D4C1D4B006820610FCB8DE80F007F
S31500029E602146684662DF002828D1207801258DF830
S31500029E703200ADF83050A21C0CA92846A8DF0028F3
S31500029E801CD1202104A8FCF718FB0220ADF8100013
S31500029E902178ADF81650ADF814009DF81D008DF826
S31500029EA0121040F012008DF821508DF81D008DF829
S31500029EB023506088A21D04A9FFF772FA0DB030BDC7
S31500029EC0FFE70E20FAE70000F02A0020A057030061
S31500029ED010B503780022072B06D2DFE803F005044B
S31500029EE00610202930000A7010BD01230B70038969
S31500029EF08B818388CB81C06888600A7410BD022278
S31500029F000A7002898A818288CA81C2688A60807DD3
S31500029F10062802D00020087410BD0120FBE70322A8
S31500029F200A70C2888A810289CA81C068886010BDA7
S31500029F3004230B70C0888881CA818A6010BD0520FF
S31500029F40087010BD70B5064D0646002455F824105B
S31500029F5009B130468847641C042CF7D370BD000053
S31500029F60842F002030B50446006887B00D4680680D
S31500029F7000281FD018216846FCF79FFA0195A068B1
S31500029F800590207910B1012810D107E001208DF843
S31500029F90000020690290E068039005E002208DF837
S31500029FA00000E068000302906069049020688168FE
S31500029FB06846884707B030BDF0B585B017460C0035
S31500029FC005463AD0112C38D0082C36D01C481D49EB
S31500029FD0401AC6080D2C11D0204604F041FC024658
S31500029FE0012000EB06402B46174903F0A2FF2A4642
S31500029FF00721684602F0C0FB02941BE0022000EB38
S3150002A00006402A46114903F08DFF2A460321684677
S3150002A01002F0B2FB27B13878C00701D0012000E078
S3150002A02002208DF8080000208DF80C0041F2011084
S3150002A030ADF80A00684600F0CFF805B0F0BD0000A2
S3150002A040D072030088720300A869030098680300AF
S3150002A0500368C3F84413002A02D00068C0F8041348
S3150002A060704700002DE9F84F0E463449804601EB51
S3150002A0705001C007097801D00F0901E001F00F076E
S3150002A0804FF00009424601204946FCF7DCF9DFF8A9
S3150002A090B0A004460D46052F4ED2DFE807F00316A0
S3150002A0A01B282C00002E47D0012140460AF09AFABE
S3150002A0B08DF800906846FDF7E7FA5046D0E904129B
S3150002A0C00C431543CAE9044532E00EB1022114E0FD
S3150002A0D0002112E04EB1032140460AF083FA4046BF
S3150002A0E0BDE8F84F01210AF013BF012105E0002E59
S3150002A0F022D1042101E02EB103214046BDE8F84FEA
S3150002A1000AF070BA002140460AF06CFA0021404675
S3150002A1100AF0FEFE8DF800906846FDF7B5FA504645
S3150002A120E243D0E904341A4024EA0501CAE90421CB
S3150002A1309DF80000FDF7CCFABDE8F88F582F0020F5
S3150002A1402823002010B5006842581AB104F0C8F856
S3150002A150012010BD002010BD10B50446408801F054
S3150002A16093FAA080024801682046BDE810400847DD
S3150002A170B822002010B50446808801F0CFF960802D
S3150002A180024801682046BDE810400847C822002060
S3150002A1902DE9F04107460024064E074D05E000BFB3
S3150002A1A056F8241038468847641CE8788442F7DB60
S3150002A1B0BDE8F0817C2E0020E022002010B5044686
S3150002A1C0408801F061FAA080024801682046BDE895
S3150002A1D010400847B85803000149096808470000BB
S3150002A1E03459030070B586B0044614216846FCF75C
S3150002A1F064F9A0890125A0F54040ADF80400207855
S3150002A2002F4E062833D2DFE800F0320303032C4A2E
S3150002A210A08900F047FB30B9E08943F6FE71A0F54C
S3150002A2204040884223D8A07B8DF808002078032876
S3150002A2300FD000208DF80900A0680390606850B125
S3150002A24009208DF8000060680490684605F054FE07
S3150002A2500DE00120EEE708208DF800008DF8105081
S3150002A260F3E7A08900F01EFB08B1E08930B17078EF
S3150002A270002801D005F094FF06B070BD606830B1C9
S3150002A2800B208DF80000606802907570DDE70A20E9
S3150002A2908DF80000BDF8040006F026F8F5E76068C0
S3150002A2A048B114208DF80000606802904FF6FF70E6
S3150002A2B0ADF80400C9E713208DF80000F6E70000A8
S3150002A2C0CC22002030B404789CB11149114B0322F0
S3150002A2D0C91AC90802EB0143012C12D0032C0ED174
S3150002A2E0416800290BD1828918460BA130BC03F0C4
S3150002A2F019BE4068002802D10D490120487130BCC0
S3150002A300704741680029FAD18289184609A1EDE70A
S3150002A310E87203008872030044656C657465204622
S3150002A320696C652049443A09307825303478000052
S3150002A330582400203A09307825303478000000008D
S3150002A34038B504460F480078B0B1A4F57F40FF380F
S3150002A3500FD0684606F0CCFC88B1052101700121B8
S3150002A3600171C480684606F0D1FC06F083FD002028
S3150002A37038BD48F2036038BD48F2016038BD48F284
S3150002A380076038BD602300200D4808B5007888B103
S3150002A390684606F0ADFC80B106210170684606F0FB
S3150002A3A0B5FC0848017809B10121C17306F062FDC6
S3150002A3B0002008BD48F2016008BD48F2076008BDEA
S3150002A3C060230020D4310020F0B587B014216846FE
S3150002A3D0FCF773F8304C207818B16846FFF7B2FDE7
S3150002A3E058E0201D02F0E8FBA0BB40F6F8700168B9
S3150002A3F0481C02D14FF0102041694FF0805002698B
S3150002A40040694B1C01D100FB02F124480022016184
S3150002A410A1F5C041C160224903F0B4F8002824D155
S3150002A42021481C234FF4EE721E49006802F02AFBF3
S3150002A43005F0EEFA050016D0022D14D000270126EB
S3150002A440062D14D005A806F053FC98B106700C2D03
S3150002A4501BD200E01EE0DFE805F0181018101817EE
S3150002A46018171812141248F20A6007B0F0BD2670C7
S3150002A4706760B2E748F20760F7E7077105E0032174
S3150002A48000E00221017100E0067105A806F03EFC1B
S3150002A49006F0F0FC0020E8E760230020A824002054
S3150002A4A0F4590300942F00206C59030010B586B0AE
S3150002A4B01B4800F00BF9FFF787FF08B1FDF77AF8A2
S3150002A4C0184C6079002828D014216846FBF7F5FF5E
S3150002A4D0684600F013F908B1FDF76CF81248134903
S3150002A4E0BDF80420401AC108032000EB01400446CF
S3150002A4F00FA103F017FDBDF80620204612A103F0B6
S3150002A50011FDBDF806000A2805D3FFF73DFF2046D8
S3150002A5101BA103F003FD06B010BD41DFD1E7000029
S3150002A520C5A2020058240020E872030088720300C4
S3150002A530466F756E642025642076616C69642072AC
S3150002A54065636F7264732E00466F756E64202564B0
S3150002A550206469727479207265636F72647320284D
S3150002A560726561647920746F206265206761726228
S3150002A57061676520636F6C6C6563746564292E0080
S3150002A580546F6F206D616E792064697274792072DE
S3150002A59065636F7264732C206761726261676520FE
S3150002A5A0636F6C6C656374696E672E0038B5040060
S3150002A5B014D0694606F03CFDB0B1BDF8000000EBD0
S3150002A5C080010B4800EB8100C16851B1A17A41B10B
S3150002A5D0C168491EC1600020A07238BD48F20460FD
S3150002A5E038BD48F2056038BD48F2096038BD000042
S3150002A5F0703100201FB501A9684606F0D1FC04B0EF
S3150002A60010BD07B513460A466946002006F0C8FC87
S3150002A6100EBD07B513460A460021684606F0C0FC81
S3150002A6200EBD20B119B1006808600020704748F2DB
S3150002A630046070472DE9FC410E4605002ED06EB32C
S3150002A64001A906F0F5FC78B36C6800220621B4F87D
S3150002A650068067882046FFF765F8B900ADF8000066
S3150002A66001276A4604F10800091DFFF75BF8ADF8F9
S3150002A6700000404515D1BDF804000D4900EB8000ED
S3150002A68001EB800001210C3002F099FA346068680F
S3150002A6900C307060AF720020BDE8FC8148F20460A5
S3150002A6A0FAE748F20C60F7E7FFE748F20960F3E7DA
S3150002A6B07031002018B1032300220AF045BE48F289
S3150002A6C004607047022300220AF03EBE094910B513
S3150002A6D00A69042A0AD0084A096942F8210005488B
S3150002A6E00121103002F06BFA002010BD48F20B6017
S3150002A6F010BD000040230020842F00202DE9F84FD2
S3150002A700044624480078D8B1F4B112212046FBF75A
S3150002A710D4FE0620DFF880902080002504F1100880
S3150002A72004F10E0A05EB850109EB81063089718970
S3150002A730084487B2706805F0F5F8032807D009E0E7
S3150002A74048F20160BDE8F88F48F20460FAE7208813
S3150002A750401E20806088F1680844608020897189E3
S3150002A76008442081608938446081C7F58060A189E8
S3150002A77080B2814200D2A0815346A21D211D2846E5
S3150002A780CDF8008006F0F0FC6D1CADB2052DC9D3E4
S3150002A7900020D7E7602300207031002010B588B072
S3150002A7A00024039404940594069406AB03AA41F686
S3150002A7B01F714FF4F8500794FFF71CFF20B10D49A3
S3150002A7C003A8FFF77FFF0FE0019401A903A80294F3
S3150002A7D0FFF730FF08B1FCF7EDFE02980649006864
S3150002A7E0886003A8FFF7E2FE002801D0FCF7E2FE2C
S3150002A7F008B010BDE85C030058240020F0B585B00F
S3150002A8000026009601960296039603AB6A4641F627
S3150002A8101F714FF4F8500496FFF7ECFE0400194836
S3150002A820194948F20667A0EB01004FEAD0004FF043
S3150002A830030101EB00450ED114496846FFF73AFFC2
S3150002A840040008D0BC4204D12846114903F066FB35
S3150002A85001E0FCF7AFFE0F48C178491CC9B2C170CE
S3150002A860BC4201D0052906D3C67001218170284653
S3150002A87009A103F053FB200001D0FCF79BFE05B0B3
S3150002A880F0BD0000E872030088720300E85C030072
S3150002A89088700300582400206664735F6763282962
S3150002A8A00000000043F6FE71A0F54040884201D840
S3150002A8B0012070470020704710B50446007818281A
S3150002A8C002D1FDF7E5FB207010BD10B504460078F5
S3150002A8D0182802D1FDF7DCFB207010BD0AB102F088
S3150002A8E05BB902F00EB970B50D460446B0F8141401
S3150002A8F0D0F810040122FDF710F900B1057004F139
S3150002A9003C0204F5826104F1540072DF70BD00005E
S3150002A91070B5134600220546112900D10122074CC3
S3150002A92033B12179FDF7D8FB00226178284600E091
S3150002A9306178BDE87040FDF7CFBB0000F822002029
S3150002A940F7B517460E0011D00098002560B1002415
S3150002A9502146684602F015F918B1A0B23946B04749
S3150002A9606D1C641C142CF3D32846FEBD0020FEBDCC
S3150002A970406806F0DDB9000010B586B09DF80C00FF
S3150002A98020F00F00401C20F0F00010308DF80C0073
S3150002A99001A86DDF08B1FCF70DFE0D2001F0CAFD1E
S3150002A9A004469DF8050000909DF8063012A215A1F6
S3150002A9B02046FCF7F7F92046FBF78AFD82B22146CC
S3150002A9C003A87CDF08B1FCF7F5FD00200490059092
S3150002A9D05021ADF81400ADF810104FF4C870A02144
S3150002A9E0ADF81600ADF8121004A87ADF002801D0DF
S3150002A9F0FCF7E0FD06B010BD4469616D65746572D1
S3150002AA005F00000025732530327825303278000049
S3150002AA1070B510B14FF4064070BD1C4C0025E07BAA
S3150002AA2008B1E57301E000F0A5F8207808282AD2DB
S3150002AA30DFE800F02904080C10291422BDE8704052
S3150002AA4000F026B8BDE8704000F082B8BDE870405C
S3150002AA5000F064B8BDE8704000F040B806202070EF
S3150002AA6060880A4900EB8000643901EB8000406887
S3150002AA70BDE8704004F0ACBF072020706560BDE8F9
S3150002AA80704004F0B3BF48F20E6070BDD4310020AE
S3150002AA901149F0B48A1C00200346A1F164050C1882
S3150002AAA0A67A4EB1A37200EB800405EB8404E66835
S3150002AAB016B9247C012C0AD0401C80B20528EED39C
S3150002AAC00B704B804B60F0BC41F61D5070471080F6
S3150002AAD0F0BC00F03DB80000D43100200C4841889B
S3150002AAE001EB8102A0F1640101EB8201CA6852B155
S3150002AAF00521017007480221818001680023012295
S3150002AB00054802F0A3BC042202704968F6E7000079
S3150002AB10D431002068230020A824002038B50A4931
S3150002AB20084803240B684268898803EB810153882D
S3150002AB300470DB1C00201B0400909B0B034802F0F0
S3150002AB40D9FD38BDD431002068230020A824002076
S3150002AB50074910B54888091D06F0BAFA18B1BDE8CA
S3150002AB601040FFF7DBBFBDE81040FFF7B7BF00009C
S3150002AB70D431002070B5194C0121207808281AD248
S3150002AB80DFE800F00419191C252929182089134A1F
S3150002AB90401C208100206080E073643A00EB800351
S3150002ABA012F8233043B100232518401C80B2AB7241
S3150002ABB00528F3D3217070BD0123F5E760680849C3
S3150002ABC040888A88C01C10448880022004E000F075
S3150002ABD009F8062000E00720207070BDD43100205D
S3150002ABE0682300200A4909484988026801EB810363
S3150002ABF00749643901EB83014B6803604A60828826
S3150002AC000A8102228280002008747047682300208D
S3150002AC10D43100202DE9F043064680883288DFF8D9
S3150002AC205C8185B00746502A37D010DC5449554B13
S3150002AC3006F10A05A1EB03014FEAD1014FF0020327
S3150002AC4003EB0144352A3AD0362A07D168E0522A64
S3150002AC5002D0542AF9D102E001F024FA82E0142249
S3150002AC6049496846FBF702FCADF80270384600F027
S3150002AC700BFDADF8040000F003FA0022444698F8F2
S3150002AC8004103846FDF728FA0022E1783846FDF727
S3150002AC9023FA6846FFF760FA64E0307B012861D147
S3150002ACA0B07A01285ED13089A0F52451023959D1F2
S3150002ACB00121384601F04AFA0AF0BAF852E098F849
S3150002ACC00610FDF7F1F900284CD0002298F806107C
S3150002ACD03846FDF701FAF288B2F5857F17D012B130
S3150002ACE020462AA10BE02A88012A03D0204636A153
S3150002ACF003F018F96A88012A04D0204641A103F01C
S3150002AD0011F904E0A98800223846A1DF08B1002122
S3150002AD1025E0012298F807103846FDF7DDF921E013
S3150002AD204FF0000998F80710FDF7BEF9D0B10022DE
S3150002AD3098F807103846FDF7CFF9F28812B1204687
S3150002AD4012A104E0AA88012A04D020462DA103F00C
S3150002AD50E9F803E0A87900B1012081464946384660
S3150002AD6009F0A2FC0022364998F80200FDF736F9EE
S3150002AD7005B0BDE8F04308F05DBB0000B02200203C
S3150002AD80907203008872030030580300556E65788E
S3150002AD90706563746564204741545420737461740A
S3150002ADA07573207768696C652067657474696E6768
S3150002ADB02043415220636861722076616C75653A60
S3150002ADC020307825780000004D756C7469706C65CA
S3150002ADD020282564292043415220636861726163F9
S3150002ADE074657269737469637320666F756E642C19
S3150002ADF0207573696E67207468652066697273745C
S3150002AE002E000000556E6578706563746564204394
S3150002AE104152206368617261637465726973746911
S3150002AE20632076616C7565206C656E677468202890
S3150002AE302564292C2073746F726520302E00000061
S3150002AE401578020070B504460078002814D160888F
S3150002AE5001F028F96588284600F0D4F928B1074898
S3150002AE600122C1782846FDF737F96088FEF72AFAEB
S3150002AE70BDE8704009F0DCBF70BD0000B0220020C2
S3150002AE8070B5204C00252570FDF702F96070FDF7BC
S3150002AE90FFF8A070FDF7FCF8E070FDF7F9F82071F5
S3150002AEA0FDF7F6F86071FDF7F3F8A071FDF7F0F81B
S3150002AEB0E07162780121182A18D0A278182A15D0D2
S3150002AEC0E278182A12D02279182A0FD06279182A23
S3150002AED00CD0A279182A09D0182807D004F10C0040
S3150002AEE00560BFF35F8F2170002070BD0648074AD8
S3150002AEF0801AC00801EB0040054903F00FF8032051
S3150002AF0070BD0000B0220020907203008872030018
S3150002AF10AC5F03007CB504460078082837D1607A16
S3150002AF2058BB207A1C4E4FF6FF75012811D0072810
S3150002AF3002D008282BD121E0A08800F0EFFA0446BF
S3150002AF40A84224D0012101F001F92046FEF7BAF900
S3150002AF501DE0A0886A46012104F0F0FE68B9019856
S3150002AF60007850B1A08800F0D9FAA8420FD0012289
S3150002AF70F178FDF7B1F808F05DFA08E0F06801280B
S3150002AF8005D1BFF35F8F044900200C310860BDE88C
S3150002AF907C4009F04DBF0000B022002010B50B48DE
S3150002AFA0FEF7F3FD094A083AD2E90434C018D2E999
S3150002AFB0063244F10001C31A71EB020204D24FF0C9
S3150002AFC08072801841F1000110BD000008240020A3
S3150002AFD00148C06870470000582400207FB503F07E
S3150002AFE0BDFD08B1FCF7E6FA134D0024134A2868A2
S3150002AFF002908DF8094002A9142003F03FFD08B122
S3150002B000FCF7D8FA6868039003208DF80D000C4A05
S3150002B01003A91F2003F032FD08B1FCF7CBFA012188
S3150002B0201F2003F0DBFC00221E200323009411469E
S3150002B030019402F0A7FC7FBDBC5C0300E9B60200E6
S3150002B040ED0B030010B5C0B2FEF724F904460078F2
S3150002B05003F07AFD01466078012801D0012000E064
S3150002B060002090EA010F08D00449D1E904010843FF
S3150002B07003D1BDE8104009F059BC10BD28230020B9
S3150002B0801CB5054AD2E90212CDE900120022694630
S3150002B09005F01AF81CBD00004858030003484FF695
S3150002B0A0FF7181800121017000207047C0220020BB
S3150002B0B02DE9FC41804600F0E7FA0024032501272A
S3150002B0C0A0F57F412646FF3908D06A46082104F0DA
S3150002B0D035FE18B90198841D8688056832462B46C6
S3150002B0E021464046B1DF042804D0082804D00B28A4
S3150002B0F008D002E0112000E00020002F00D10B2032
S3150002B100BDE8FC810027A80701D50125E6E73443FF
S3150002B11003D0002426460325E0E7064806494246B0
S3150002B120401AC008012101EB0040044902F0FAFE70
S3150002B130E5E7000098720300887203007462030058
S3150002B1402DE9FC41804600F09FFAA0F57F410646B4
S3150002B150FF390ED001252A466D1C0027ADB26B467B
S3150002B1600821304604F034FE040006D0072C33D002
S3150002B17033E043F20200BDE8FC81019903230A1D74
S3150002B1800B604046891DB2DF040004D00C2C09D0A6
S3150002B190052C09D009E032460821104604F090FE3B
S3150002B1A004461AE0012700E000240821304604F094
S3150002B1B07DFE70B103F054FB034609480949324645
S3150002B1C0401AC008012101EB0040074902F0B1FE16
S3150002B1D00324002FBFD100E00C242046CBE7000059
S3150002B1E09872030088720300F461030004488088A1
S3150002B1F0A0F57F41FF3901D008F026B9704700005B
S3150002B200C02200200EB502A9019100F03DFA6A465D
S3150002B210012104F093FD08B100200EBD01980078CB
S3150002B2200EBD00002DE9F04107464FF6FF761048A5
S3150002B230B3DF78B103F014FB02460E480E49401AFA
S3150002B240C008012101EB00400C4902F06BFE03200D
S3150002B250BDE8F081064C43F20305A41E324661881E
S3150002B2603846AFDFA842F3D16088401C6080F5E71C
S3150002B270C22200209872030088720300A8610300AC
S3150002B28000B587B0002100910B46012201910220F0
S3150002B290114602F077FB4FF0A04201210420C2F8CA
S3150002B2A00805124BD3E90E025B6CCDE90202FF20C0
S3150002B2B08DF80B0003208DF80A0004208DF8090092
S3150002B2C005208DF8080048070593049007488DF875
S3150002B2D014100023064A02A91C3001F039FF002887
S3150002B2E001D0FCF767F907B000BD0000BC5C0300A3
S3150002B2F04D3D0300428800EB82020C328A4201D99C
S3150002B300022070478188A1F57F42FF3A06D0018864
S3150002B31021B18068401C01D000207047012070478F
S3150002B320884204D20068401C01D0012070470020E8
S3150002B33070470000F0B5214C1F4E4FF0000C2578E7
S3150002B34018A306EBC5126746B9B1491E8C4516D23B
S3150002B35090F800E00CF1010C03EB1E1E0CF0FF0C42
S3150002B3609EF800E002F801EB10F801EB0EF00F0E6A
S3150002B37013F80EE002F801EBE8E717700AE001782D
S3150002B38003EB111109781170007800F00F00185CB8
S3150002B390507097702078401C00F00300207006EB76
S3150002B3A0C510F0BD30313233343536373839414283
S3150002B3B04344454600000000B44400206C240020AB
S3150002B3C03EB5027802230C46B3EB520F17D1B0F802
S3150002B3D00110ADF80010C1788DF802108188ADF821
S3150002B3E0041080798DF8060002AA01A92046FCF70E
S3150002B3F01BF8032202A96846FBF771F808B1002080
S3150002B4003EBD01203EBD000070B50D46044614281F
S3150002B41010D2FCF77DFE68B1084904EB840001EB0B
S3150002B4204000D0F802102960C188A980007AA8716C
S3150002B430002070BD43F2020070BD0000E42B002024
S3150002B44070B5018890B0102961D1011D2C22684681
S3150002B450FBF70CF89DF804004FF6FF7603213446FD
S3150002B460B1EB500F2BD004F0EDFD9DF804006D46B4
S3150002B47040080ED001280CD0022820D118E00D99E0
S3150002B480281D1131FBF7FAFE18B100BFBDF82C409A
S3150002B49015E00CAA0BA9072004F0A8FD0028EED19E
S3150002B4A00DE00D99281D491CFFF78AFF0028EDD1F2
S3150002B4B00CAA0BA9072004F099FD0028F1D1BDF8CA
S3150002B4C00000B44200EB8001124820F8114000EB64
S3150002B4D041000199C0F80210BDF80810C1809DF81C
S3150002B4E00A10017213D0BDF80000ADF82E0000203C
S3150002B4F0ADF83040084E8DF82C000BAD044600BF67
S3150002B50056F8241028468847641C022CF8D310B03B
