:020000040002F8
:1060000048590020C1630200C9630200CB6302004B
:10601000CD630200CF630200D163020000000000E4
:10602000000000000000000000000000D363020038
:10603000D563020000000000D7630200D9630200AC
:106040004D660200DB630200156B0200256702004B
:10605000DB630200DB630200A9650200DB63020070
:10606000DB630200DB630200DB630200A566020063
:10607000DB630200DB630200DB630200DB63020020
:10608000DB630200B5660200DB630200DB63020033
:10609000DB630200DB63020079670200DB6302005E
:1060A000DB630200DB630200DB630200DB630200F0
:1060B000DB630200DB630200000000000000000060
:1060C000DB630200DB630200DB630200DB630200D0
:1060D000DB630200DB630200DB6302000000000000
:1060E00000000000000000000000000000000000B0
:1060F00000000000000000000000000000000000A0
:10610000000000000000000000000000000000008F
:10611000000000000000000000000000000000007F
:10612000000000000000000000000000000000006F
:10613000000000000000000000000000000000005F
:10614000000000000000000000000000000000004F
:10615000000000000000000000000000000000003F
:10616000000000000000000000000000000000002F
:10617000000000000000000000000000000000001F
:10618000000000000000000000000000000000000F
:1061900000000000000000000000000000000000FF
:1061A00000000000000000000000000000000000EF
:1061B00000000000000000000000000000000000DF
:1061C00000000000000000000000000000000000CF
:1061D00000000000000000000000000000000000BF
:1061E00000000000000000000000000000000000AF
:1061F000000000000000000000000000000000009F
:10620000DFF80CD000F092F900480047B9B5020061
:106210004859002030B4044654E8000F0D4644E8C5
:106220000053002BF8D1156030BC704730B40446E1
:1062300054E8000F40EA010544E80053002BF7D171
:10624000156030BC704730B4044654E8000F00EAD3
:10625000010544E80053002BF7D1156030BC7047AE
:1062600030B4044654E8000F80EA010544E80053C6
:10627000002BF7D1156030BC704730B4044654E8A9
:10628000000F00EB010544E80053002BF7D1156027
:1062900030BC704730B4044654E8000FA0EB010551
:1062A00044E80053002BF7D1156030BC704770B440
:1062B00004464FF0000054E8006F0D68AE4207BF7F
:1062C00044E80023012044E800630E60002B1CBF5B
:1062D0000020F0E770BC704730B4044654E8000F6B
:1062E00088422CBF451A054644E80053002BF5D1DF
:1062F000156030BC7047000030B450E8012F93B2F5
:10630000C48923448489A34228BF1B1B0489A34258
:1063100002BFBFF32F8F002007E0C3EA020340E86B
:106320000134002CE9D14FF001000A6030BC704705
:1063300050E8012FC2EA024240E801210029F7D1CA
:10634000704730B450E8022F1FFAA2F3C488A3426A
:1063500002BFBFF32F8F00200DE0C489234484893E
:10636000A34228BF1B1BC2EA034340E80234002CAF
:10637000E8D14FF001000A6030BC704750E8022FAE
:10638000C2EA224240E802210029F7D170470346C1
:1063900053E8022FD988B2EB324F4FF0000017BFFD
:1063A00092B241EA014142EA014104E05A68B2EB8B
:1063B000324F08BF012043E80212002AE8D170479B
:1063C0000648804706480047FEE7FEE7FEE7FEE78F
:1063D000FEE7FEE7FEE7FEE7FEE7FEE77D67020079
:1063E000016202002DE9F05F0546002092469B46BF
:1063F00088460646814640241BE0284641464746DB
:10640000224600F082F853465A46C01A914110D3F2
:1064100011461846224600F016F82D1A67EB0108BF
:106420004F4622460120002100F00DF817EB00092D
:106430004E41201EA4F10104DFDC484631462A46C5
:106440004346BDE8F09F202A04DB203A00FA02F11F
:10645000002070479140C2F1200320FA03F3194352
:106460009040704700487047D01E030010B5431A93
:10647000934209D28318881803E010F8011D03F82D
:10648000011D521EF9D210BD40EA01039B0703D043
:1064900009E008C9121F08C0042AFAD203E011F863
:1064A000013B00F8013B521EF9D210BDD2B201E00F
:1064B00000F8012B491EFBD270470022F6E710B509
:1064C00013460A4604461946FFF7F0FF204610BD62
:1064D000421C10F8011B0029FBD1801A704730B50F
:1064E00004460020034600E05B1C934203D2E05CBC
:1064F000CD5C401BF8D030BD034611F8012B00F8ED
:10650000012B002AF9D118467047202A04DB203AD3
:1065100021FA02F00021704721FA02F3D040C2F1C3
:10652000200291400843194670470000064C074D71
:1065300006E0E06840F0010394E807009847103453
:10654000AC42F6D3FFF760FEF432030014330300CD
:1065500070B58C1810F8015B15F0070301D110F825
:10656000013B2A1106D110F8012B03E010F8016B52
:1065700001F8016B5B1EF9D12B0705D40023521ED5
:106580000DD401F8013BFAE710F8013BCB1A921C3D
:1065900003E013F8015B01F8015B521EF9D5A1423B
:1065A000D8D3002070BD00002DE9F8430025DFF8A6
:1065B00094804FF4807601242F460095304606F0F3
:1065C00085F938B1D8F80403204203D0304606F0EC
:1065D00073F92543361D64007F1CB6B2082FEDD336
:1065E0004FF4BE74204606F071F948B1204606F01B
:1065F00063F945F000456A460121002006F01EF9C6
:1066000015F0FF0F16D0012600242E420ED008EB05
:106610008401D1F81005D1F81015C0F304200A4AFE
:10662000C1F3014152F8242002B190477600641C66
:10663000082CEAD3002D02DA684608F065FFBDE8B1
:10664000F883000000600040FC33002070B54FF478
:106650008076304605F0DCFB114CB50560B1304664
:1066600005F0DDFB0120C5F80803607920B90120A1
:1066700060712168002088474FF48276304605F02B
:10668000C7FB00280AD0304605F0C9FB0220C5F838
:1066900008032168BDE870400120084770BD000074
:1066A0003024002003220021014804F001BD000035
:1066B00000B0004002490248091F09680068084705
:1066C0001824002000F02CBA70B50E46144900EBD7
:1066D000400001EBC0051446E86A183520B10128D6
:1066E0000FD0022805D113E0284600F04DFAA04251
:1066F00001D2002411E022463146284600F07CFAFF
:106700000BE0284600F040FAA042F4D20446F2E73B
:106710003146284600F043FA0446204670BD00008A
:1067200060310020F8B51248124E04464FF48C71C7
:1067300006F021FF00281AD00025C4F81851D4F81B
:1067400018010090F07F3446FF2806D0A17F11B1D8
:1067500006F08AF801E006F09DF865772572D4E925
:10676000002101B004F10800BDE8F0401047F8BD79
:10677000003000405834002006F068BEF0B5D34A1F
:10678000D3494FF080541368D4F830010978D4F815
:106790003421451CC1F3031107D084461646012756
:1067A0000025BCF1060F04D013E003F0FF0C0E46E9
:1067B000F5E7032E05D0042E03D0052E01D0062EBA
:1067C00007D1B4F82463DFF80CC3C6F30426CCF871
:1067D0000060DEB2062E06D1032904D1DFF8FCC228
:1067E000BD4ECCF87460461C06D084464FEA0206C3
:1067F000BCF1060F04D013E003F0FF0C0E46F7E7E0
:10680000032E05D0042E03D0052E01D0062E07D16D
:10681000D4F84462DFF8C8C2C6F34236CCF8006050
:10682000DEB2062E08D1032906D1AE4ED6F800C03E
:106830002CF0807CC6F800C0461C05D08446164665
:10684000BCF1060F04D014E003F0FF0C0E46F7E78E
:10685000032E05D0042E03D0052E01D0062E08D11C
:106860004FF08046C6F80C51C6F810519C4E361FAA
:106870003560DEB2062E08D1032906D1DFF860C2EA
:1068800003260CF1640CCCF80060DEB2062E11D1A8
:1068900003290FD1DFF850C20526CCF80060924ED4
:1068A00078363760904E083635600CF1040C3F2680
:1068B000CCF80060461C05D084461646BCF1060F95
:1068C00004D087E003F0FF0C0E46F7E7032E7CD0E0
:1068D000042E7FD0052E01D0062E7BD1834E366844
:1068E000DFF80CC2CCF80060804E361D36680CF123
:1068F000040CCCF800607D4E083636680CF1040CB0
:10690000CCF80060794E0C3636680CF1040CCCF8EB
:106910000060764E103636680CF1040CCCF800603E
:10692000724E143636680CF1040CCCF800606F4ED1
:1069300018363668DFF8B8C10CF1200CCCF80060CE
:106940006A4E1C3636680CF1040CCCF80060674EB9
:10695000203636680CF1040CCCF80060634E243607
:1069600036680CF1040CCCF80060604E28363668AE
:106970000CF1040CCCF800605C4E2C3636680CF13F
:10698000040CCCF80060594E30363668DFF860C130
:106990000CF1400CCCF80060544E343636680CF1E3
:1069A000040CCCF80060514E383636680CF1040CFB
:1069B000CCF800604D4E3C3636680CF1040CCCF837
:1069C00000604A4E4036366800E003E00CF1040CEB
:1069D000CCF80060461C05D084461646BCF1060F74
:1069E00004D011E003F0FF0C0E46F7E7032E05D0AC
:1069F000042E03D0052E01D0062E05D1D4F858421E
:106A00003C4E04F04F043460441C04D0034611464D
:106A1000062B02D010E0DBB2FAE7032905D00429E7
:106A200003D0052901D0062906D133490B68DB07BD
:106A300002D06FF001030B6006280CD1032A0AD0A4
:106A4000042A08D0052A06D0062A04D12B4801685A
:106A500041F48061016023487438016841F4700199
:106A60000160BFF34F8FBFF36F8F4FF01021D1F84C
:106A70000002002803DBD1F80402002822DA204AB1
:106A8000176020480368002BFCD01523C1F80032A2
:106A90000468002CFCD0C1F8043201680029FCD045
:106AA000156001680029FCD0BFF34F8F0D48F03806
:106AB0000168154A01F4E06111430160BFF34F8F93
:106AC00000BFFDE7124911480860F0BDE00F00F07B
:106AD000E80F00F0403501400DF0ADBA00C00740AE
:106AE0003C050040FCED00E010560040040400109E
:106AF00020C50040E40E0040000400403C17004068
:106B000004E5014000E401400400FA050090D003D0
:106B10005424002001480068004700004024002061
:106B200010B5124C02202061606111A0A06104F137
:106B30007800E0614FF4007020620020A062606283
:106B40000BA1A164E06204F51E71E1641021A0654F
:106B5000C4E91410E06509A1E01DFFF7CDFC08A110
:106B60002046FFF7C9FC2020A07110BD6031002035
:106B70005465726D696E616C0000000052545400DF
:106B800053454747455200000269C1688A4203D80D
:106B90008068401A104400E0501A401E70472DE9EA
:106BA000F047C4681746894606464FF0000830692A
:106BB000A04201D9051B02E0B168201A0D1AB06885
:106BC0006D1E001BA84200D80546BD4200D33D46BD
:106BD00070682A4620444946FFF748FCB0687F1B8E
:106BE0002C44A844A944A04200D10024F460002F02
:106BF000DDD14046BDE8F0872DE9F04104468846E6
:106C0000D4E90207C51BE168606816460844B5422E
:106C100006D94146FFF72AFCB819E060BDE8F081CB
:106C20002A464146FFF722FC761B08EB0501324657
:106C30006068FFF71BFCE660F0E700000FB4084B4C
:106C400010B504A902AA039800F02EF8044602A980
:106C5000002000F05AFA204610BC5DF814FB00003A
:106C60000B71020002E008C8121F08C1002AFAD105
:106C700070477047002001E001C1121F002AFBD1BC
:106C8000704700000121202803DA814005480140B7
:106C900003E0402802DA2038814009B10120704722
:106CA00000207047FC06FFBD2DE9FF4F8DB00F4659
:106CB0000546002606E025280BD0DDE90F12904797
:106CC0006D1C761C28780028F5D111B03046BDE83F
:106CD000F08F0024A246A1460122EC4900E00443C3
:106CE00015F8013F203B02FA03F00842F7D128785B
:106CF0002A2810D06FF02F022878A0F1300109293E
:106D000014D80AEB8A0102EB410144F0020400EBC3
:106D1000010A6D1CF0E701CF5FEA000A03D544F4D5
:106D20000054CAF1000A44F002046D1C28782E2891
:106D300017D115F8010F44F004042A280ED06FF083
:106D40002F022878A0F1300109290AD809EB89011E
:106D500002EB410100EB01096D1CF2E757F8049BBF
:106D60006D1C28786C280FD006DC4C2817D06828BA
:106D70000DD06A2814D104E0742810D07A280FD1DD
:106D80000DE044F400140AE044F4801401E044F4FB
:106D900040146978814202D104F580146D1C6D1C89
:106DA0002A786E2A1FD00CDC632A31D004DC002A3A
:106DB0008BD0582A11D1A3E0642A68D0692A0CD15B
:106DC00065E0732A2ED004DC6F2A73D0702A04D1B8
:106DD0009BE0752A6FD0782A6ED01046DDE90F123D
:106DE0009047761C50E1C4F30250022806D00328D5
:106DF00009D0042801CF09D0066045E101CFF11781
:106E0000C0E9006140E101CF06803DE106703BE151
:106E100017F8040B8DF8000000208DF80100EB46F8
:106E2000012003E057F804BB4FF0FF3061074FF03B
:106E3000000102D40DE008F10101884649450FDA4E
:106E40008045F8DB1BF808100029F4D108E008F1B0
:106E5000010188468142FADB1BF808100029F6D1AF
:106E6000DDE90F23AAEB08008146214600F036F940
:106E7000304400EB080604E0DDE90F121BF8010BBB
:106E80009047B8F10108F7D221464846F7E00A21B9
:106E9000C4F302534FF0000B0891022B04D001CF32
:106EA000C117032B09D00AE0FF1D27F00707F7E8F9
:106EB000020108E032E01FE020E000B2C117042B1D
:106EC00001D140B2C117031E71F1000307DA4FF080
:106ED000000CD0EB0C006CEB01012D2302E023052C
:106EE00004D52B238DF82430012303E0E30701D0E0
:106EF0002023F7E7984658E00A2110E010210EE021
:106F000010204FF0000B08900CE010214FF0000B08
:106F100044F004044FF00809089103E008214FF001
:106F2000000B0891C4F30253022B04D001CF0021BF
:106F3000032B06D006E0FF1D27F00707F7E8020144
:106F400003E080B2042B00D1C0B24FF00008230749
:106F50002BD5702A07D0DDF820C08CF0100C5CEA2D
:106F60000B0C05D00EE040238DF82430012308E0FF
:106F700050EA010306D030238DF824308DF8252007
:106F800002239846DDF820C08CF0080C5CEA0B0C5C
:106F90000BD150EA010301D1630706D530238DF8E8
:106FA00024304FF00108A9F10109582A04D038A271
:106FB0000B9208AA0A920BE03AA2F9E75B46089AFC
:106FC000FFF710FA0B9B9B5C0A9A521E0A921370F1
:106FD00050EA0102F2D10A98ADEB000000F1200B5B
:106FE000600702D524F4803401E04FF00109D9454F
:106FF00002DDA9EB0B0000E0002000EB0B01414497
:107000000890AAEB010AE00306D4DDE90F2321462C
:10701000504600F063F806444FF0000908E009A963
:1070200011F80900DDE90F12904709F10109761CFA
:10703000C145F4DBE0030CD5DDE90F2321465046C2
:1070400000F04CF8064404E0DDE90F1230209047D0
:10705000761C0899481E08900029F5DC08E00A987B
:107060000A990078491C0A91DDE90F129047761CB5
:10707000BBF10001ABF1010BF1DC21465046DDE92B
:107080000F2300F019F806446D1C1BE609280100C7
:10709000303132333435363738396162636465668E
:1070A0000000000030313233343536373839414250
:1070B00043444546000000002DE9F0410446002508
:1070C0001E461746880404D405E039462020B04700
:1070D0006D1C641EF9D52846BDE8F0812DE9F0410C
:1070E000044600251E469046C80301D5302700E01F
:1070F0002027880404D505E041463846B0476D1C7A
:10710000641EF9D52846BDE8F0810A68531C0B605F
:107110001070704710B560B159B102780B78520801
:10712000B2EB530F05D10622401C491CFFF7D7F9DB
:1071300008B1002010BD012010BD800701D0002043
:10714000704701207047C3688B4206D8114400691C
:10715000491E814201D8012070470020704790F8F5
:107160002400012801D01F207047EE20704710B581
:1071700001220221002001F08BFD08B1072818D15F
:1071800007220221012001F083FD08B1072810D158
:1071900000210A22084601F07BFD08B1072808D12A
:1071A00010220121022001F073FD08B1072800D14F
:1071B000002010BD00B5B3B0AC216846FFF77DF9E3
:1071C00030A86DDF08B100F03DF900202EA930AAEB
:1071D000C0F1050313445B780B54401C0628F7DB11
:1071E00033202D91ADF8AC00022106208DF800105F
:1071F000ADF8B0002BA9099100218DF802108DF88F
:10720000030001208DF87C004FF4F070229044F2CE
:1072100050602390074829906946074800F0FBFB1F
:1072200008B100F00FF90121034800F0F1FB33B081
:1072300000BD0000BDDD0200103500201149124ADA
:1072400010B5891ACC0868B1032000EB04400FA1E7
:1072500005F05AFD08F0E8F8002812D0BDE810400B
:1072600000F0F0B803210D4800F0A3FC08B100F0D5
:10727000E9F8042000EB0440BDE8104008A105F047
:1072800043BD10BD94330300343303004572617372
:107290006520626F6E6473210000000010350020CD
:1072A0004164766572746973696E67207374617284
:1072B0007465642E0000000070B58CB015460E4653
:1072C00000236C46C3F10F01415CE1545B1C102BA1
:1072D000F8D30D2104F11000FFF7EFF80020C0F102
:1072E0000F02315C2244401C11740328F7D3684616
:1072F00046DF0020C0F10F01214491F820102954ED
:10730000401C0328F6D30CB070BD002001F0A4BBD4
:107310000149C97800F010BEDC22002070B50024BD
:10732000064D06E06868012110F8340006F0B8F94F
:10733000641C28788442F5D3002070BD18230020F7
:10734000F8B516460C4605460A2A01D20720F8BDB4
:1073500006F0A0FA18B906F063FA0028F7D1134F27
:10736000102113487D603C70BE60FFF7A6F8002036
:10737000C7E904000F4E0DE005EBC4003168009131
:1073800081788DF8011000780B4A694606F0D8F92B
:107390000028DCD1641EE4B2EED2BDE8F840054816
:1073A0000021064A001D00F05FB8000018230020ED
:1073B00038290020EC1A03009DA8020079960200EB
:1073C00072B605F041FD00BF05F082FB0028FBD13D
:1073D00011481249401AC408012000EB044010A1D2
:1073E00005F092FC11480068C00700D000BE0220E2
:1073F00000EB04400EA105F087FCBFF34F8F0B4854
:10740000E43801680E4A01F4E06111430160BFF302
:107410004F8F00BFFDE700009433030034330300B7
:10742000466174616C206572726F7200F0ED00E06D
:1074300053797374656D2072657365740000000084
:107440000400FA050EB500210091CDE901106A464D
:1074500044F20100FFF7B4FF0EBD0000014802F046
:10746000B6B90000F82300203AB100680129426152
:1074700000D0002101610020704707207047000004
:1074800038B5114808235822416800910F49006817
:1074900004F09BFA002815D10D4A69460D4802F008
:1074A0009BF904000ED101210A4802F010FA0123D1
:1074B000094A1946074802F062F9064901200839CD
:1074C0000870204638BD0000501D0300FC3000202D
:1074D00045FB0200F8230020FFFF7F0070B5044643
:1074E000007F0D4608B1002070BDA26103F0BCF919
:1074F000401941F10001C4E90201206900B1256190
:107500002146BDE87040002009F0F0BB0146002094
:107510000877012009F0EABB30B5EFF3108172B6AD
:107520000D4A9468012324B10370002900D162B68A
:1075300030BD93604FF0E023D3F88051074C2540D5
:107540001560C3F88041D3F8844154605A17C3F8DA
:10755000842100220270E8E754310020FC06FFBDC0
:107560000B498A68002A11D000280FD1EFF3108050
:1075700072B60B684FF0E022C2F800314B68C2F8D7
:10758000043100228A60002800D162B670470000F2
:10759000543100202DE9F041064608680C46411C94
:1075A0004FF0A0474FF0010506D005FA00F1C7F8EB
:1075B0000815206805F01CF96068411C02D0002104
:1075C00005F004F93168A069C1F82405607D227DC9
:1075D00031681043C1F86C05D4E900123068C0F876
:1075E0001425C0F80C15207D012815D1A068411C78
:1075F00002D0002105F0EAF8E068411C05D0854082
:10760000C7F80855E06805F0F3F8D4E902123068CD
:10761000C0F80825C0F81015BDE8F0812DE9F0414B
:10762000064608680C46411C4FF0A0474FF0010584
:1076300006D005FA00F1C7F80815206805F0E2F851
:107640006068411C02D0002105F0C9F83168A069CA
:10765000C1F82405607D217D32680843C2F86C05BD
:10766000D4E900123068C0F80C15C0F81425207D4C
:10767000012815D1A068411C02D0002105F0AFF807
:10768000E068411C05D08540C7F80855E06805F062
:10769000B9F8D4E902123068C0F80825C0F810150E
:1076A000BDE8F08103F054BE2DE9F047814605881E
:1076B0004A484FF000088AB001784246284600F058
:1076C00053FC99F80500400701D4002176E005F548
:1076D0008077B8B205AB0122072107F087F80400D4
:1076E0003F48404A4FF00101A0EB02004FEAD000B2
:1076F00001EB00460AD0204605F05EFF0246304608
:107700002B46394905F00BFB214629E0284603F0BA
:1077100065FB4FF6FF71044688422BD18A460698D6
:1077200003F0C6FA0446504510D00146284603F03F
:1077300035FB2846FFF7ECFDE0B9284608F0B8FC19
:107740002846FFF7E5FD0028BFD013E007F024FA34
:107750000446504508D1304624A105F0D5FA04214D
:10776000284608F0D3FCB0E70146284603F016FB94
:107770004FF00108B8B22246072107F0AFF8070022
:107780001BD0862F1ED005F017FF024630462B4631
:107790002349009405F0CBFA3946284608F0B6FC98
:1077A0000021484606F01AFFB8F1000F02D020462B
:1077B00003F0FEFA0AB0BDE8F0870121484606F062
:1077C0000DFFF7E7142217496846FEF74FFEADF8A4
:1077D0000250684602F004FBEFE70000DC220020C4
:1077E0007433030034330300F8270300436F756CD0
:1077F00064206E6F7420616C6C6F63617465206EC1
:10780000657720706565725F696420666F722069B4
:107810006E636F6D696E6720626F6E642E0000008C
:10782000142903006C1A03002DE9FC470025178872
:107830000646158090F82D001446894630B13A4628
:107840002146484600F0B6FB051E09D1B0784FF03E
:107850000C0A18B32088C846001DB84202D9504609
:10786000BDE8FC87684679DF0028F9D1208803212C
:1078700008F8001020881921401C80B2208008F8E8
:1078800000102088401C80B2208000EB0801BDF869
:10789000000009F06AFC218808442080F078022268
:1078A000C8B1218896F9033001F1030C4846BC4564
:1078B000D5D8425421884FF0010C491C89B221804F
:1078C00000F801C02188491C89B2218009F80130E3
:1078D0002088401C20807068B8B1218890F9003061
:1078E00001F1030C4846BC45B9D8425421880A220C
:1078F000491C89B2218042542188491C89B22180C7
:1079000009F801302088401C2080308950B1CDE931
:1079100000474B460622022106F1080009F014FD3B
:10792000051E9DD1308A50B1CDE900474B46072254
:10793000032106F1100009F007FD051E90D1308BE0
:1079400050B1CDE900474B461522142106F118002D
:1079500009F0FAFC051E83D1306A30B13B4622465D
:10796000494601F01EFD051EDBD1706A30B13B4671
:107970002246494603F004FF051ED2D196F82C009A
:1079800038B13B4622464946304608F023FD051EE5
:10799000C7D1307838B13B4622464946304603F0DD
:1079A0007DFF051EBDD128465AE718B504460020C4
:1079B000ADF8000013466A46204600F006F800289D
:1079C00002D0BDF80000204418BD70B5E0B1DAB1B6
:1079D000002402E0045D2C44A4B2651C8D4206D252
:1079E0001688A642F6D8061976789E42F2D18C42C5
:1079F0000AD2A31C005D9BB200B1401E0004000C23
:107A000002D01C188C4201D9002070BD138070BDBB
:107A100080F8301070472DE9F0410D00044606D083
:107A20002CB195F87A000026012803D006E00E203C
:107A3000BDE8F08195F89800012829D0D5F8A0007C
:107A4000042825D0D5F89C00042821D04FF0010847
:107A5000A6702C2205F17801201DFEF707FD84F8A1
:107A60003060D5F8A4006063D5F8A800A0634FF695
:107A7000FF70A4F8240404F58260C4F82004C4F85C
:107A80002664A4F82A6484F82C64207810B104E0F9
:107A90000720CDE7FF2084F8540004F15507204665
:107AA000C4F81074FFF75BFBA4F8140404F214424A
:107AB00039462846FFF7B8FE0028B9D104F2312034
:107AC000C4F818042046FFF74AFBA4F81C0404F28B
:107AD0001C4205F13C00D4F81814FFF7A5FE00285D
:107AE000A6D184F85180208BA4F8480084F83C800B
:107AF000266484F85060606900216064454604F1A2
:107B00003C02781E72DF002892D1257090E710B5F4
:107B10000288102A1BD0112A20D0262A1DD1007AD3
:107B20000C46012801D0022817D1A0780521401C5D
:107B3000B0FBF1F201FB1201204600F03AF80028F8
:107B40000BD0A16B002908D0BDE810400847C27BCC
:107B5000012A02D18088A1F8240410BD0C4600211E
:107B600084F82E148088B4F824148842F5D1207942
:107B70000028F2D10121DFE710B5044690F8540047
:107B800074DF012084F82E04002084F8300484F887
:107B900050000621204602F00CFB002808D1A178F5
:107BA000204600F006F810B1A16B01B18847002013
:107BB00010BD2DE9F05F044600780F4698B1A7701C
:107BC0000025C4F82654A4F82A5484F82C54A0792B
:107BD000012608B1012F09D0E07980B1012F05D02D
:107BE000022F03D00BE00820BDE8F09F616B21B1AC
:107BF00084F82D640820884701E084F82D5404F2AD
:107C0000274100200A5C0AB1304603E0401C0628E8
:107C1000F8D300204FF002084FF0030B012F06D0DD
:107C2000022F0CD0032F0FD0042F15D110E0A17913
:107C300029B194F8241011B908B130460DE0E1796A
:107C400011B108B1404608E0207A08B1584604E076
:107C5000607A08B1042000E02846A070616B41B151
:107C6000032801D0042804D1607910B194F82E04BF
:107C700098B184F82F5404F13C0018210746FEF710
:107C80001CFC84F83C6004F12C0007F0B7F858B1F4
:107C900094F82C0084F8510008E084F8305484F8FB
:107CA0002F6407208847E6E784F8516094F82400A1
:107CB00058B104F1280007F0A1F820B194F8280089
:107CC00084F8520001E084F8526084F85050A278A1
:107CD00004F2264104F582694FF0060A052A64D2AF
:107CE000DFE802F07C030F22420084F83160C4F820
:107CF0002054C4E9101584F83C808020A4F8480082
:107D000055E084F8318094F82420384612B10722D7
:107D1000027001E080F800B0228A8281C4F8205409
:107D20004160E168B96042E06069B860208BB88169
:107D300094F824003D460028204602D084F83CA058
:107D400001E084F83C6009F0CBFA50B185F814806A
:107D50000421204602F02DFA38BB052184F83110A9
:107D600021E084F831B01EE0E069B860208CB88171
:107D700094F824003D460028204602D084F83CA018
:107D800001E084F83C6009F0ABFA48B185F8148052
:107D90000421204602F00DFA38B984F831A002E03F
:107DA000042084F83100C4F82094A07878B13A46D1
:107DB00004F15400D4F8201472DF00287FF414AFCB
:107DC00094F8301094F8540073DF0028F6D1616BFA
:107DD00011B194F831008847002005E784F831504C
:107DE000F5E7000070B5040012D001461C221448CB
:107DF000FEF73CFB1248134D0560206850B17ADF56
:107E0000002806D12068016829604068686005E0A4
:107E10000E2070BD0B487BDF0028FAD108484FF6D2
:107E2000FF711438084A20F8041B054934390160F1
:107E30000021FFF719FB0028EBD0032070BD0000E4
:107E40002C250020942200207912030010B504464E
:107E500000F0A6F8002805D02146BDE810400248F1
:107E600003F032BE10BD00005825002070B5154645
:107E70000E46044609F040FA002809D0054800EBF8
:107E80008400C0692A463146BDE8704002F0BEB9A0
:107E900070BD00004825002010B5044600F080F8B1
:107EA000002805D02146BDE81040024803F00CBE72
:107EB00010BD00006025002010B5044600F070F8E9
:107EC000002805D02146BDE81040024803F0FCBD63
:107ED00010BD00005C25002070B50546002400F0B0
:107EE0005FF838B12946044803F0EEFD08B10224DA
:107EF00000E00124204670BD5425002070B50546E1
:107F0000002400F04DF838B12946044803F0DCFDA8
:107F100008B1022400E00124204670BD5025002055
:107F200010B51821034803F0AAFD182800D0C0B2EC
:107F300010BD00004825002070B505460C460846D7
:107F400009F0DAF960B1284600F02AF840B1054896
:107F5000294600EB8400BDE870401C3003F0B4BD3E
:107F6000002070BD4825002070B5054616460C4619
:107F7000084609F0C1F900280ED0284600F010F894
:107F8000002809D00548324600EB84002946BDE8A8
:107F900070401C3002F008B970BD00004825002078
:107FA000142801D3002070470146014803F08CBD1E
:107FB0004C2500207CB5054608880C4609309042C7
:107FC00001D90C207CBD68466DDF0028FAD12188DC
:107FD0000820685420881B21401C80B2208029542E
:107FE0002088401C80B220802844DDF80110016008
:107FF000BDF8051081802088801D80B220809DF80A
:108000000010490800D0012129542088401C2080FC
:1080100000207CBD10B503F00BFF002809D10548F6
:108020004FF0030C00DF002803D1BDE8104003F03F
:108030006DBF10BD9024002018B1034908600020D6
:1080400070470E2070470000902200200E480F4914
:1080500010B5401AC008042101EB00400CA104F047
:1080600053FE4FF0FF3100203DDF00280BD1B1213E
:108070003CDF002807D113484169012088470220CE
:1080800004F0F6FF002010BD9433030034330300E6
:10809000496E20626C655F6466755F627574746FAB
:1080A0006E6C6573735F626F6F746C6F6164657221
:1080B0005F73746172745F66696E616C697A650D75
:1080C0000A00000074240020044810B500684169CB
:1080D00000208847BDE81040FFF7B8BF902200207D
:1080E00010B588B0044620216846FEF7E6F9032063
:1080F000ADF8000020788DF802009DF80D001721E2
:1081000040F028008DF80D0001208DF810008DF84A
:108110001300ADF804108DF812008DF80C008DF8E6
:1081200011006088A21D694601F006F808B010BD74
:1081300010B5184C86B01ECC8DE81E0048B1164C08
:108140004FF6FF71A180006800216061217618B1AF
:1081500004E00E2006B010BD104860610E48FFF725
:108160006BFF0028F6D101208DF812004FF6596000
:10817000ADF81000A21C04A90120A8DF0028E9D155
:108180000549684662DF0028E4D10348FFF7A8FFED
:10819000E0E700000819030074240020CD990200D4
:1081A00010B5002823D003881C4C102B17D0214673
:1081B000112B8A8815D0C988512B19D0532B16D171
:1081C000C088884213D1207E002810D0FFF77CFFA2
:1081D00000280CD06169BDE8104002200847808863
:1081E00004E08088824202D14FF6FF70A08010BD6B
:1081F00083889342FBD110F8062F022AF7D14288D8
:108200008A42F4D1017A0429F1D00629EFD0052958
:10821000EDD0BDE81040801C05F098BE742400200D
:108220002DE9F0410546007B042601272E4C01284C
:1082300011D002282CD00226287B314600F08EF87F
:1082400018B12068416903208847206841690220ED
:10825000BDE8F041084720684FF00008417E49B171
:108260000621012000F07AF800283BD020684169FF
:108270000320EDE707760121084600F06FF800289B
:1082800030D02268112882F81880D5D10626D3E78D
:108290006A7B142A22D80AB3DFF8508005F10E0158
:1082A00008F10400FEF7E2F8697BC8F818102168AD
:1082B0004046497E0029BFD1A0F10C010A68011F88
:1082C000904768B10F28B7D109480A49401AC00839
:1082D00007EB0040084904F017FDADE70526ABE7C2
:1082E00020684776BDE8F081902200209C24002081
:1082F0009433030034330300D41E030070B51549D2
:1083000000250A68002A24D04A68002A21D00831B2
:10831000904708281DD0104C0028206845760ED0C4
:108320000621022000F01AF818B1206841690320E4
:108330008847206841690220BDE870400847012154
:10834000022000F00BF8002803D0206841690320C8
:10835000F2E770BD902400209022002086B0032315
:10836000ADF8003020238DF814308DF81500002270
:108370000E48019202928DF81610C188ADF80410D3
:1083800002218DF8061005A90491ADF80820CDF85A
:108390000CD0808801A9AEDF002804D1BDF8001000
:1083A000032900D00C2006B0704700007424002080
:1083B000114A124B03219A1AD20801EB024270B102
:1083C00001280FD00C4A01219A1AD20801EB02426F
:1083D00002280AD0032810460AD009A109E0104655
:1083E00011A106E010461CA103E0104623A100E005
:1083F00031A104F089BC000034330300943303003E
:10840000556E6B6E6F776E206576656E7420667242
:108410006F6D20626C655F6466755F627574746F02
:108420006E6C6573732E0000446576696365206920
:108430007320707265706172696E6720746F206559
:108440006E74657220626F6F746C6F616465722008
:108450006D6F64652E000000446576696365207762
:10846000696C6C20656E74657220626F6F746C6FDE
:1084700061646572206D6F64652E000052657175D0
:1084800065737420746F20656E74657220626F6FFF
:10849000746C6F61646572206D6F646520666169DC
:1084A0006C6564206173796E6368726F6E656F7559
:1084B000736C792E0000000052657175657374202D
:1084C000746F2073656E64206120726573706F6EC7
:1084D000736520746F20636C69656E7420666169D2
:1084E0006C65642E0000000010B50288502A13D17C
:1084F000C088CA8890420FD1086900280CD08047F4
:1085000006480749BDE81040401AC008032101EBA6
:10851000004004A104F0F8BB10BD00009433030038
:10852000343303004452532063686172616374659D
:10853000726973746963207772697474656E000080
:1085400010B50288502A13D1C088CA8890420FD132
:10855000086900280CD0804706480749BDE810404C
:10856000401AC008032101EB004004A104F0CCBB79
:1085700010BD0000943303003433030045525253BE
:1085800020636861726163746572697374696320E2
:108590007772697474656E002DE9F04701883B4E6F
:1085A00040F2F3194FF6FF7510291BD011293ED068
:1085B000122954D0502946D1C188F289841D914294
:1085C00041D1618902293ED18688304602F0B4FC4F
:1085D000050038D004F10C0000F0C8F9A8B3294612
:1085E00030464EE0C17B8788044601292BD1A8463E
:1085F000284602F0A1FC050017D02F800020287229
:10860000234843464A460168C5F80A104068C5F841
:108610000E0004F1100105F10A0002F0A1FD6872DC
:10862000F08900280FD129462AE0042013E0808831
:1086300002F082FC040006D06068FEF767FF08B114
:1086400007F048FD2580BDE8F087FFE76868FEF782
:108650005DFF0028F7D0BDE8F04707F03BBD8788F5
:108660000646384602F068FC0400ECD02B464A4629
:1086700006F1080104F10A0002F072FD6072214661
:108680003846BDE8F04700F0D3BE00002C2500209E
:10869000942200202DE9F04F044686880188424844
:1086A00097B0834610290CD0112950D010301929C9
:1086B0006AD01A2974D1217A0C09042C4DD30122D5
:1086C0004CE0394D083DA868C0430B9069680BA881
:1086D00003F01EFA0B990CA800F044FE2C220CA902
:1086E0006846FDF7C3FE0027E946A84610E000BF34
:1086F00009EB47005FF00005B0F804A008EB850027
:108700005146001D03F0A0F96D1C1E2DF6D37F1CF1
:108710000098B842ECD8142E05D317B00420BDE859
:10872000F04FFEF78FBE3146584603F0D8F9314678
:1087300008F1040003F0D3F9E07B022830D117B030
:108740003146BDE8F04F1848001D03F0C8B917B016
:108750003146BDE8F04F03F077B90022314601F011
:1087600023FD032C01D3012200E000220E483146F4
:108770000C3001F019FD022C01D3012200E000228F
:1087800009483146083006E0217A002908D1617A8B
:10879000C1F3C002314617B0BDE8F04F01F004BD8F
:1087A00017B0BDE8F08F00005025002010B504463A
:1087B0000748007800280AD0204602F0EBF920464E
:1087C00007F0FAFE2046BDE8104001F089BE10BD5A
:1087D000CC22002010B51C4C0188606810290ED0F6
:1087E000112930D1401E60602DD1FEF7C0FC002859
:1087F00029D02168002926D0BDE810400847F8B9E3
:1088000000210122084600F043FA08B1072814D1DC
:1088100007220221012000F03BFA08B107280CD101
:1088200004220221002000F033FA12220121042048
:1088300000F02EFA20B1072802D0216801B1884744
:108840006068401C606010BD0C23002038B50446F1
:1088500001882848284A801AC008042202EB0040F8
:10886000212933D012DC244A224B4FF00300A3EB22
:1088700002024FEAD20200EB0240102911D0112966
:1088800030D1BDE838401DA104F03EBA3B292AD0C2
:10889000562927D11DA104F037FAA088132176DFCD
:1088A0000EE020A104F030FA072000F013FA08B11E
:1088B000FEF7C8FD1E48A18841801E4803F030FA2B
:1088C00000280FD0BDE83840FEF7BCBD1AA104F067
:1088D0001BFA00200090A08869468FDF002801D095
:1088E000FEF7B0FD38BD19A104F00EFAA0881321DF
:1088F00076DFE5E7943303003433030044697363A0
:108900006F6E6E65637465642E00000047415454B9
:10891000205365727665722054696D656F75742E8B
:1089200000000000436F6E6E65637465642E000086
:108930004824002004350020504859207570646197
:10894000746520726571756573742E0047415454C7
:1089500020436C69656E742054696D656F75742E63
:10896000000000000078C0F340007047007800F07D
:108970000100704710B50288502A1AD1821DC088A4
:10898000CB88984215D10969002912D0D068D27BD2
:1089900000BA20F0FF001043884706480649BDE8AA
:1089A0001040401AC008032101EB004003A104F06D
:1089B000ABB910BD94330300343303005453532038
:1089C0006368617261637465726973746963207747
:1089D00072697474656E00000149085C704700009C
:1089E000C31A03000649095C4FF0A040D0F81005F7
:1089F000C84010F0010000D0012080F00100704755
:108A0000C31A03002DE9FC410646C0074FF00005DC
:108A10000ED0104F00240122385D0095002311462E
:108A2000019503F079FE641C032CF4D300F046F8A2
:108A3000B0070DD5074E0024F61C0022305D03233D
:108A400000951146019503F067FE641C032CF4D3D6
:108A5000BDE8FC81C01A030007490B5C4FF0A04140
:108A6000D1F804250120984020EA0203C1F8083516
:108A70001040C1F80C057047C01A03000249085C99
:108A8000012103F00EBF0000C01A03000249085C78
:108A9000002103F006BF0000C01A03000649095C6C
:108AA0004FF0A040D0F80405C84010F0010000D0FD
:108AB000012080F001007047C01A030010B50024A7
:108AC0002046FFF7DBFF641C032CF9D310BD10B563
:108AD00000242046FFF7DAFF641C032CF9D310BDF5
:108AE00010B50246064B4FF0FF3000215C5C94420B
:108AF00001D1084610BD491C0329F7D310BD000061
:108B0000C31A030070B50C4E0C004FF00005306026
:108B10000BD0012000F06AF808B1022004E0002028
:108B200000F064F800B10B202070706810B9FEF7F7
:108B30001EFB0546284670BD0C23002010B5002002
:108B400000F002FA08B1062806D1012000F0FCF975
:108B500008B1062800D1002010BD00002DE9F04723
:108B60000D468146FFF7BCFF0446032836D2DFF8E6
:108B700074801B481C4EA8F1040725B3012D0ED0AC
:108B8000022D2BD104EB440030444578002D25D034
:108B9000F968002922D02846BDE8F047084704EBD1
:108BA0004401755C0E44717849B10E4A4FF480411E
:108BB000521E8068FEF792FC08B987F80390B178DE
:108BC00008F80410E2E78068FEF7A0FC04EB44011B
:108BD000314418F804008D78A842D7D0BDE8F0875A
:108BE000C81A030000230020E8280020032801D22F
:108BF000FFF7F8BE0020704701461D4810B54088B9
:108C0000042922D0072929D00A291AD010292ED1C7
:108C10004FF0A041D1F804054FF480228243C1F8FF
:108C2000082500F48020C1F80C0512481249BDE85F
:108C30001040401AC008032101EB00400FA104F0CE
:108C400063B8BDE8104007F0A3BC132176DF0CE049
:108C500000280CD0BDE81040FEF7F4BBA0F57F4122
:108C6000FF3904D10948FEF787FF0828F0D110BD6D
:108C70004824002094330300343303006273705F90
:108C80006576656E745F6B65795F32001035002024
:108C900070B50023032810D20D4D00EB4004012ACB
:108CA00002D101290CD00022094E00EB40003044D3
:108CB00061B1012906D0022906D00723184670BDEC
:108CC0000E30C2B22A55F9E74270F7E78270F5E735
:108CD000E8280020044A01460020127AD20702D078
:108CE000084600F04DB87047FC22002070B50646DB
:108CF0001E480024C0E90261B00720D500250122EA
:108D000011462846FFF7C4FF6D1C0446032D02D20E
:108D1000002CF4D013E094B940F23332032114480C
:108D2000FEF70EFB04000AD1FEF7F8FA040006D1A4
:108D30000F48104A0021001FFEF796FB0446F0077B
:108D400012D00120FFF75EFE74B909480A4A0021DB
:108D50000C38FEF789FB040006D10548074A0121BB
:108D60000838FEF781FB0446204670BDFC22002037
:108D7000D41A030055900200F1B102000B730200F7
:108D80002DE9F05F6E4C054600266078B34618B1B9
:108D900084F801B002F016FA6A4F4FF001084FF460
:108DA0007A694FF4C87A182D69D2DFE805F00C1300
:108DB00013384754696E727B727BC58484848484C3
:108DC000B3B6BCBFC5C502F0FDF93868FEF79EFB1F
:108DD00006465CE00120FFF761FE00284FF001002D
:108DE00008D0FFF74BFE022D02D14FF4E16008E0FE
:108DF000484606E0FFF74AFE022D01D1C82000E0F8
:108E00005046410CC0034FF47A72801841F10001C2
:108E1000257052000023FDF7E5FA01462AE0012003
:108E2000FFF73CFE00284FF0010004D0FFF726FEBC
:108E30004FF44870E5E7FFF729FEDFE70120FFF771
:108E40002DFE00284FF0010002D0FFF717FECFE7FC
:108E5000FFF71CFED4E70120FFF720FE00284FF0AB
:108E6000010002D0FFF70AFE01E0FFF70FFE2570B8
:108E700040F6CD4100223868FEF730FB064646E05A
:108E80000120FFF7E9FD257008E0012048E025708A
:108E90003DE084F801800220FFF7DEFD002240F271
:108EA0006661E8E784F801800220FFF7D5FD002223
:108EB0004FF40051DFE77868FEF728FB0646D5F14E
:108EC000110000D02EB10020FFF7D8FD84F802B0C9
:108ED0001DE0012816D980B2C8214843C117C90333
:108EE00041EA5041C0034FF47A72801841F1000109
:108EF00052000023FDF776FA014600227868FEF75B
:108F0000EDFA06460020FFF7C1FD84F802803046E6
:108F1000BDE8F09F02F056F9B9E702F053F90020DE
:108F2000FFF7B4FDB3E702F04DF9AEE702F04AF9FE
:108F30000020FFF7ABFDA8E7FFF7C9FDA7E700009A
:108F4000FC220020C81A0300012108F064BA0000C6
:108F50002DE9F84F0546861C00208DF8000091464B
:108F60000F464FF0010A6846FEF7D6FA1B4C04F292
:108F70001C4860683860D4E90101194F401A39680B
:108F8000081A0EE00121404602F0BCFD02F0C2FAD0
:108F90000146404602F0B6FDD4E90101401A3968A5
:108FA000081A401C8642EDD8B9F1000F03D0052005
:108FB00065F3891002E0062065F39F5061683A6806
:108FC000114004EB8101C8606068304460609DF826
:108FD0000000FEF7C5FA5046BDE8F88FC02C00200F
:108FE0009423002070B50D4604460A2902D10D21B4
:108FF000FFF7F8FFA0682268411CA1601554D4E96E
:109000000101814204D32046BDE8704003F049B815
:1090100070BD0000044881684068814201D1012090
:109020007047002070470000C02C0020034630B578
:10903000074800210478426806E000BF02EBC10047
:1090400005789D4203D0491CA142F7DB002030BDCA
:109050001823002000780221FFF780BD1CB50446CC
:1090600001F0BCFE00236A46092105F001FD052838
:1090700005D10348012241792046FEF775FF1CBD4A
:109080009C2200201CB504460020009042F6A62039
:10909000ADF8000001208DF80200084801AA6946D9
:1090A000006801902046A0DF002805D10448012275
:1090B00081792046FEF758FF1CBD000060190300AF
:1090C0009C22002005494FF0FF32082841F820205B
:1090D00002D3084480F8482070470000FC33002089
:1090E000F0B54FF0FF3512B10023082601E0082348
:1090F0000C260C4C05E000BF54F823707F1C04D0F4
:109100005B1CB342F8D32846F0BD26185DB286F842
:10911000305044F82310002AF5D1E11881F84800B6
:10912000F1E70000FC3300200249084490F93000C8
:1091300070470000FC3300202DE9F0438146887819
:1091400091B090460C4600B901208DF83E00208871
:10915000ADF83C0000250095607C694607F0C2F937
:109160006E46A07C711C07F0BDF9E07B00289DF8DD
:10917000020002D040F0080001E020F008008DF865
:109180000200217C11B140F0100001E020F010003D
:109190008DF80200217B11B140F0010001E020F0C8
:1091A00001008DF80200217D09B1022100E00121BA
:1091B00061F342008DF802001C2102A8FDF77DF941
:1091C000607BC10601D4800617D50E950EAFE07CFA
:1091D000791C07F087F99DF83800079720F00F00F9
:1091E000401C20F0F00010308DF838009DF83A0057
:1091F00020F00600801C8DF83A00607B8DF8080096
:10920000A07B8DF80900142109A8FDF756F90FA8D5
:10921000CDE90906A088ADF83000A06820B1E0884B
:10922000ADF82C00A0680D90A06998B30195008856
:10923000ADF81000A06901AD01A94088ADF8120099
:10924000A069406806950390A069007B07F04AF981
:10925000A069691C407B07F045F9A069807A002865
:109260009DF8060002D040F0080001E020F0080060
:109270008DF80600A169C97A11B140F0100001E033
:1092800020F010008DF80600A169097A19B140F0AC
:10929000010002E00DE020F001008DF80600A16958
:1092A000897B09B1022100E0012161F342008DF8C0
:1092B0000600E06900B10590434609AA02A94846A4
:1092C000AADF11B0BDE8F08370B504464FF6FF7514
:1092D0000A462846AC4209D14FF480742146104614
:1092E00002F0CDFB80B2A0420BD070BDFF2CFCD8A9
:1092F0002146104602F0B3FB90F0010F01D020464A
:1093000070BD284670BD000070B5084C050009D03E
:1093100010342168002907D0086820604968284671
:109320008847F6E70834F4E770BD0000E833002012
:10933000054A012120B1012805D19170FFF7E4BF52
:1093400051700020FAE77047E833002010B5D0E9EB
:109350000234D1E90220D11AA04101D3012010BD6D
:10936000002010BD73B58CB00646002000900D980B
:1093700080B100246D4621460DA802F0A5FB30B156
:10938000009805EB400084800098401C0090641C0D
:10939000142CF0D32C2269463046FDF767F80EB046
:1093A00070BD2DE9F04117880646B81D14460D46DC
:1093B000984202D90C20BDE8F081318807220629A5
:1093C0000AD34FF4486C4FF6FF73614501D99942B7
:1093D00002D17088062801D21046ECE7604501D919
:1093E0009842F9D1994203D0984201D08142F3D8F2
:1093F0000520E85520881221401C80B22080295485
:109400002088401C80B220804119308807F0ADFED2
:109410002188084480B220804119708807F0A5FE99
:109420002188084420800020C5E7FEF70BB8000023
:1094300038B54A7A0F4B62B100220A725969002985
:1094400006D001228DF80020ADF80200684688475A
:1094500038BD0A7A62B19B684C68024619462046BC
:10946000FEF73CF80028F3D0BDE8384006F032BEE5
:109470005B68F1E72C250020F0B585B016460F4655
:1094800004461D4614220B496846FCF7EFFF0A48C4
:109490008DF80870ADF80240ADF80A608DF80C50F8
:1094A000017800222046FEF75FFD684600F098FC38
:1094B00005B0F0BD801A0300DC220020F0B50C4698
:1094C00006461E481E4987B0401AC708042000EB14
:1094D0000740334622461BA103F021FC00200490E4
:1094E0000590ADF8104001900290ADF8124001AA2D
:1094F00004A9304690DF05001DD004F05DF8034656
:10950000012000EB0740044632461A4903F007FCED
:10951000BDF8042012B9BDF8060028B1BDF8063028
:10952000204615A103F0FBFBBDF808201AB1204628
:10953000214903F0EDFB07B02846F0BD34330300AA
:10954000343303005570646174696E67206461741C
:1095500061206C656E67746820746F202575206FBC
:109560006E20636F6E6E656374696F6E2030782550
:10957000782E0000EC1F0300546865207265717539
:1095800065737465642054582F5258207061636B62
:109590006574206C656E67746820697320746F6FE2
:1095A000206C6F6E672062792025752F2575206FDE
:1095B00063746574732E00003820030070B5044690
:1095C0000948012102F0B9FABFF35F8F0025002896
:1095D00008D1204601F018FF002803D1BFF35F8FA8
:1095E0000148056070BD0000A82200202DE9FF4160
:1095F0000C4620B14FF4064004B0BDE8F08120795C
:10960000002748F2096538B141F61D5601281BD0E4
:10961000022826D0681DEFE70220207102970397E9
:10962000E0680190694601A806F0E6F950B1029899
:109630008188E18000882081BDF80010029806F042
:1096400059FAD9E72846D7E70A4B6A460021A01DF8
:1096500006F08AF938B1074918398F61CF61A842FD
:10966000CAD13046C8E703488188019806F042FA1B
:10967000F5E700004823002070B500240F4D10E0EE
:10968000686800EBC406307804F0C0F871780129EE
:1096900001D0012100E000214140307800F0F4FACF
:1096A000641C28788442EBDBD5E90401084303D02D
:1096B000BDE8704007F036BB70BD000018230020E5
:1096C00010B50021024802F038FA80F3100010BDF6
:1096D000DC3000207047000030B58DB0B8B31D4CB1
:1096E0001D4B006820610FCB8DE80F0021466846B6
:1096F00062DF002829D1207801258DF83200ADF8ED
:109700003050A21C0CA92846A8DF00281DD120211A
:1097100004A8FCF7D2FE0220ADF8100020788DF8E6
:109720001200ADF816501420ADF814009DF81D007D
:109730008DF8215040F012008DF81D008DF8235057
:109740006088A21D04A9FFF7F7FC0DB030BDFFE74C
:109750000E20FAE7B8240020181903004FF48032D5
:109760008A400168C1F848230068C0F808237047A0
:109770004FF4A07202EB810189B200F0F5BA2DE935
:10978000F04105460E464FF4A07000EB860081B212
:1097900028684FF48034B440984622F07F47C0F8E0
:1097A00008432868C0F84843286803F08FFC2868FD
:1097B00000EB8600C0F840752868C0F84443B8F153
:1097C000000F02D02868C0F80443BDE8F0810068AB
:1097D000D0F804057047000070B54379234C44F875
:1097E00023204279231D03EBC202224C1579204A23
:1097F000121BD4082DB10825022000EB04401EA145
:1098000030E005680A88C5F8082590F904208978B1
:10981000002A4FEA411104DB02F1E02282F8001431
:1098200005E002F00F0202F1E02282F8141D90F927
:1098300004100122002909DB01F01F0502FA05F5D9
:109840004909890001F1E021C1F800514179002561
:1098500003EBC1010A71417943F83100032000EBA9
:1098600004400EA103F050FA284670BD14240020D5
:10987000AC3303003433030052544320696E7374D5
:10988000616E636520616C726561647920696E69DF
:109890007469616C697A65642E0000005254433A21
:1098A00020696E697469616C697A65642E000000D4
:1098B00090F90400002809DB00F01F02012191400B
:1098C0004009800000F1E020C0F8001270470A460D
:1098D000022100F0CFB94FF4827100F045BA006860
:1098E00001210160704700680121416070472DE946
:1098F000F05F07460C464FF4A07000EB84001FFA9F
:1099000080FA38684FF48036A6409B4622F07F45A7
:10991000C0F848633868C0F808633868D0F8048530
:1099200000EB8402D2F84095C2F840855146386871
:1099300003F0CCFBA9EB080020F07F40012806D102
:10994000102003F0A5FE5146386803F0BFFB3868CD
:10995000D0F80485C0F84463A5EB080121F07F41ED
:109960003868012900EB840010D0C0F840553868F1
:10997000D0F804156FF07F4C6A1A521E22F07F4215
:10998000ACEB0B03934217D362B118E06D1CC0F827
:109990004055102003F07CFE3868D0F8040540459F
:1099A0000AD10CE000EB84006D1CC0F8405538680B
:1099B000D0F80405884202D00D20BDE8F09F0122B6
:1099C0003146384600F056F90020F6E702460548D1
:1099D0000549401AC008042101EB004003A103F02F
:1099E00097B90000943303003433030044756D6D60
:1099F00079206576656E742068616E646C6572208E
:109A00007265636569766564206576656E7420307D
:109A10007825780013460A460021FFF72DBD000087
:109A20002DE9F843104D0F4680461E469146694683
:109A3000286801F0DDFF040014D01C21FCF73DFD77
:109A400001202071C4F81490380BC4F80080C4E9D8
:109A500002606946286801F0ECFF05F0FDFE002079
:109A6000BDE8F8830420FBE76C1B0300704700008F
:109A700030B58DB0B8B31D4C1D4B006820610FCBC5
:109A80008DE80F002146684662DF002829D1207842
:109A900001258DF83200ADF83050A21C0CA92846E3
:109AA000A8DF00281DD1202104A8FCF706FD022014
:109AB000ADF8100020788DF81200ADF81650142083
:109AC000ADF814009DF81D008DF8215040F01200F3
:109AD0008DF81D008DF823506088A21D04A9FFF7A2
:109AE0002BFB0DB030BDFFE70E20FAE7CC240020A1
:109AF0002819030010B503780022072B06D2DFE8EF
:109B000003F005040610202930000A7010BD01235F
:109B10000B7003898B818388CB81C06888600A744D
:109B200010BD02220A7002898A818288CA81C268B5
:109B30008A60807D062802D00020087410BD0120B4
:109B4000FBE703220A70C2888A810289CA81C06841
:109B5000886010BD04230B70C0888881CA818A6028
:109B600010BD0520087010BD70B5064D06460024D6
:109B700055F8241009B130468847641C042CF7D3EB
:109B800070BD00006429002030B50446006887B02D
:109B90000D46806800281FD018216846FCF78DFC10
:109BA0000195A0680590207910B1012810D107E037
:109BB00001208DF8000020690290E068039005E024
:109BC00002208DF80000E0680003029060690490B4
:109BD000206881686846884707B030BDF0B585B019
:109BE00017460C0005463AD0112C38D0082C36D038
:109BF0001C481D49401AC6080D2C11D0204603F000
:109C0000DBFC0246012000EB06402B46174903F01F
:109C100086F82A460721684601F09EFE02941BE062
:109C2000022000EB06402A46114903F071F82A464B
:109C30000321684601F090FE27B13878C00701D0B3
:109C4000012000E002208DF8080000208DF80C00B3
:109C500041F20110ADF80A00684600F0CFF805B0F7
:109C6000F0BD00007C33030034330300E02A03001E
:109C7000D02903000368C3F84413002A02D0006807
:109C8000C0F80413704700002DE9F84F0E46344920
:109C9000804601EB5001C007097801D00F0901E0AF
:109CA00001F00F074FF00009424601204946FCF73A
:109CB000CAFBDFF8B0A004460D46052F4ED2DFE800
:109CC00007F003161B282C00002E47D00121404628
:109CD00006F00CFF8DF800906846FDF71DFC50461D
:109CE000D0E904120C431543CAE9044532E00EB131
:109CF000022114E0002112E04EB10321404606F09B
:109D0000F5FE4046BDE8F84F012107F00DBB0121EB
:109D100005E0002E22D1042101E02EB103214046AE
:109D2000BDE8F84F06F0E2BE0021404606F0DEFE38
:109D30000021404607F0F8FA8DF800906846FDF7DC
:109D4000EBFB5046E243D0E904341A4024EA050113
:109D5000CAE904219DF80000FDF702FCBDE8F88F78
:109D6000382900201823002010B5006842581AB185
:109D700003F0ACF9012010BD002010BD10B5044661
:109D8000408801F02BF8A080024801682046BDE819
:109D900010400847A422002010B50446808800F037
:109DA00067FF6080024801682046BDE81040084710
:109DB000B42200202DE9F04107460024064E074D4D
:109DC00005E000BF56F8241038468847641CE87840
:109DD0008442F7DBBDE8F0815C280020CC22002023
:109DE00010B50446408800F0F9FFA08002480168E1
:109DF0002046BDE810400847401A030001490968A1
:109E000008470000BC1A030070B586B00446142150
:109E10006846FCF752FBA0890125A0F54040ADF84B
:109E2000040020782F4E062833D2DFE800F03203FA
:109E300003032C4AA08900F09BF930B9E08943F66E
:109E4000FE71A0F54040884223D8A07B8DF8080021
:109E5000207803280FD000208DF80900A068039017
:109E6000606850B109208DF8000060680490684671
:109E700004F050FD0DE00120EEE708208DF8000011
:109E80008DF81050F3E7A08900F072F908B1E0896D
:109E900030B17078002801D004F090FE06B070BD9B
:109EA000606830B10B208DF800006068029075701A
:109EB000DDE70A208DF80000BDF8040004F022FF61
:109EC000F5E7606848B114208DF8000060680290E2
:109ED0004FF6FF70ADF80400C9E713208DF80000BD
:109EE000F6E70000B822002038B504460F48007895
:109EF000B0B1A4F57F40FF380FD0684605F0DCFB19
:109F000088B10521017001210171C480684605F006
:109F1000E1FB05F093FC002038BD48F2036038BD3A
:109F200048F2016038BD48F2076038BD5023002078
:109F30000D4808B5007888B1684605F0BDFB80B1D2
:109F400006210170684605F0C5FB0848017809B193
:109F50000121017305F072FC002008BD48F2016088
:109F600008BD48F2076008BD50230020282A0020C1
:109F7000F0B587B014216846FCF79FFA304C207882
:109F800018B16846FFF7F0FD57E0201D01F0B7FD5E
:109F900098BB40F6F8700168481C02D14FF01020C1
:109FA00041694FF08050026940694B1C01D100FBB0
:109FB00002F1244800220161A1F54051C16022490B
:109FC00002F004FA002823D121481C238C221F49C7
:109FD000006801F0FAFC04F029FA050016D0022D01
:109FE00014D000270126062D14D005A805F064FB27
:109FF00098B106700C2D1BD200E01EE0DFE805F0E2
:10A0000018101810181718171812141248F20A60AE
:10A0100007B0F0BD26706760B3E748F20760F7E766
:10A02000077105E0032100E00221017100E00671E3
:10A0300005A805F04FFB05F001FC0020E8E7000053
:10A0400050230020602400207C1B03007429002082
:10A05000F41A030038B5040014D0694605F0CCFCAE
:10A06000B0B1BDF8000000EB80010B4800EB8100AF
:10A07000C16851B1A17A41B1C168491EC1600020D7
:10A08000A07238BD48F2046038BD48F2056038BDA2
:10A0900048F2096038BD0000002A00201FB501A960
:10A0A000684605F061FC04B010BD07B513460A46CA
:10A0B0006946002005F058FC0EBD07B513460A4658
:10A0C0000021684605F050FC0EBD20B119B10068B2
:10A0D00008600020704748F204607047F8B50D46EC
:10A0E000040018D0BDB1694605F086FCB0B1BDF8DA
:10A0F00000000C4900EB800001EB800001210C30D6
:10A10000666801F0FFFC2E6060680C30686001201A
:10A11000A0720020F8BD48F20460F8BD48F2096062
:10A12000F8BD0000002A002018B10323002207F028
:10A13000B5BA48F2046070470223002207F0AEBAB5
:10A14000094910B50A69042A0AD0084A096942F87F
:10A15000210005480121103001F0D4FC002010BD81
:10A1600048F20B6010BD000030230020642900205D
:10A1700043F6FE71A0F54040884201D801207047A7
:10A180000020704710B504460078182802D1FDF76A
:10A19000C7FE207010BD10B504460078182802D103
:10A1A000FDF7BEFE207010BD0AB101F098BC01F0B1
:10A1B0004BBC70B50D460446B0F81414D0F810042A
:10A1C0000122FDF7F2FB00B1057004F13C0204F539
:10A1D000826104F1540072DF70BD000070B5134657
:10A1E00000220546112900D10122074C33B1217903
:10A1F000FDF7BAFE00226178284600E06178BDE8EC
:10A200007040FDF7B1BE0000E4220020F7B517460C
:10A210000E0011D00098002560B100242146684648
:10A2200001F052FC18B1A0B23946B0476D1C641C55
:10A23000142CF3D32846FEBD0020FEBD406805F077
:10A240005BBA000010B586B09DF80C0020F00F003E
:10A25000401C20F0F00010308DF80C0001A86DDFDC
:10A2600008B1FDF7EFF80E2001F054FA04469DF80E
:10A27000050000909DF8063012A215A12046FCF7BB
:10A28000DDFC2046FCF724F982B2214603A87CDFDE
:10A2900008B1FDF7D7F80020049005905021ADF8E3
:10A2A0001400ADF810104FF4C870A021ADF81600DE
:10A2B000ADF8121004A87ADF002801D0FDF7C2F82B
:10A2C00006B010BD6D69616F6D69616F335F00002D
:10A2D00025732530327825303278000070B510B102
:10A2E0004FF4064070BD1C4C0025207B08B125733F
:10A2F00001E000F0A5F8207808282AD2DFE800F075
:10A300002904080C10291422BDE8704000F026B87A
:10A31000BDE8704000F082B8BDE8704000F064B85D
:10A32000BDE8704000F040B80620207060880A49FF
:10A3300000EB8000283901EB80004068BDE87040E8
:10A3400004F054B8072020706560BDE8704004F048
:10A350005BB848F20E6070BD282A00201149F0B4A5
:10A360008A1C00200346A1F128050C18A67A4EB1DC
:10A37000A37200EB800405EB8404E66816B9247C24
:10A38000012C0AD0401C80B20228EED30B704B8007
:10A390004B60F0BC41F61D5070471080F0BC00F0DF
:10A3A0003DB80000282A00200C48418801EB8102BA
:10A3B000A0F1280101EB8201CA6852B105210170A8
:10A3C000074802218180016800230122054801F02D
:10A3D00061BF042202704968F6E70000282A0020C5
:10A3E000582300206024002038B50A490848032477
:10A3F0000B684268898803EB810153880470DB1C79
:10A4000000201B0400909B0B034802F097F838BD16
:10A41000282A00205823002060240020074910B576
:10A420004888091D05F038FB18B1BDE81040FFF75A
:10A43000DBBFBDE81040FFF7B7BF0000282A0020AF
:10A4400070B5194C0121207808281AD2DFE800F0F5
:10A450000419191C252929182089134A401C208118
:10A46000002060802073283A00EB800312F823302C
:10A4700043B100232518401C80B2AB720228F3D3ED
:10A48000217070BD0123F5E76068084940888A881B
:10A49000C01C10448880022004E000F009F8062067
:10A4A00000E00720207070BD282A002058230020DB
:10A4B0000A4909484988026801EB8103074928399C
:10A4C00001EB83014B6803604A6082880A810222A3
:10A4D000828000200874704758230020282A00201A
:10A4E0002DE9F043064680883288DFF85C8185B02C
:10A4F0000746502A37D010DC5449554B06F10A055F
:10A50000A1EB03014FEAD1014FF0020303EB014439
:10A51000352A3AD0362A07D168E0522A02D0542A86
:10A52000F9D102E000F014FF82E0142249496846A4
:10A53000FBF79CFFADF80270384600F04FFCADF819
:10A54000040000F0C9F90022444698F80410384687
:10A55000FDF70AFD0022E1783846FDF705FD684663
:10A56000FFF70CFC64E0307B012861D1B07A012850
:10A570005ED13089A0F52451023959D101213846E4
:10A5800000F03AFF06F060FE52E098F80610FDF782
:10A59000D3FC00284CD0002298F806103846FDF76E
:10A5A000E3FCF288B2F5857F17D012B120462AA1CC
:10A5B0000BE02A88012A03D0204636A102F0A8FB2E
:10A5C0006A88012A04D0204641A102F0A1FB04E0E0
:10A5D000A98800223846A1DF08B1002125E0012228
:10A5E00098F807103846FDF7BFFC21E04FF000094E
:10A5F00098F80710FDF7A0FCD0B1002298F80710DA
:10A600003846FDF7B1FCF28812B1204612A104E0F1
:10A61000AA88012A04D020462DA102F079FB03E08C
:10A62000A87900B1012081464946384606F0C0FAB3
:10A630000022364998F80200FDF718FC05B0BDE885
:10A64000F04305F0BFBD00009C2200203C33030016
:10A6500034330300B8190300556E65787065637470
:10A660006564204741545420737461747573207776
:10A6700068696C652067657474696E672043415230
:10A6800020636861722076616C75653A20307825A8
:10A69000780000004D756C7469706C652028256425
:10A6A0002920434152206368617261637465726955
:10A6B000737469637320666F756E642C207573699B
:10A6C0006E67207468652066697273742E000000DE
:10A6D000556E6578706563746564204341522063EC
:10A6E000686172616374657269737469632076610D
:10A6F0006C7565206C656E67746820282564292C4C
:10A700002073746F726520302E000000A576020061
:10A7100070B504460078002814D1608800F018FE57
:10A720006588284600F09AF928B107480122C178C7
:10A730002846FDF719FC6088FEF790FCBDE87040E4
:10A7400006F082BD70BD00009C22002070B5204C38
:10A7500000252570FDF7E4FB6070FDF7E1FBA070BC
:10A76000FDF7DEFBE070FDF7DBFB2071FDF7D8FBAA
:10A770006071FDF7D5FBA071FDF7D2FBE071627847
:10A780000121182A18D0A278182A15D0E278182AA0
:10A7900012D02279182A0FD06279182A0CD0A27907
:10A7A000182A09D0182807D004F10C000560BFF35F
:10A7B0005F8F2170002070BD0648074A801AC008CC
:10A7C00001EB0040054902F09FFA032070BD000034
:10A7D0009C2200203C33030034330300E4200300B8
:10A7E0007CB504460078082837D1607A58BB207AB7
:10A7F0001C4E4FF6FF75012811D0072802D00828FB
:10A800002BD121E0A08800F033FA0446A84224D0DE
:10A81000012100F0F1FD2046FEF720FC1DE0A0889C
:10A820006A46012103F098FF68B90198007850B199
:10A83000A08800F01DFAA8420FD00122F178FDF7A0
:10A8400093FB05F0BFFC08E0F068012805D1BFF3D9
:10A850005F8F044900200C310860BDE87C4006F0A1
:10A86000F3BC00009C22002010B50B48FEF7AFFFA0
:10A87000094A083AD2E90434C018D2E9063244F150
:10A880000001C31A71EB020204D24FF080728018EB
:10A8900041F1000110BD0000F823002010B5C0B246
:10A8A000FEF7C4FB0446007802F0B0FF0146607872
:10A8B000012801D0012000E0002090EA010F08D01B
:10A8C0000449D1E90401084303D1BDE8104006F072
:10A8D00029BA10BD182300201CB5054AD2E902127E
:10A8E000CDE900120022694604F0FCF81CBD00000E
:10A8F000D019030003484FF6FF71818001210170D8
:10A9000000207047AC2200202DE9FC41804600F079
:10A9100065FA002403250127A0F57F412646FF396B
:10A9200008D06A46082103F017FF18B90198841D62
:10A930008688056832462B4621464046B1DF04280A
:10A9400004D0082804D00B2808D002E0112000E031
:10A950000020002F00D10B20BDE8FC810027A807B4
:10A9600001D50125E6E7344303D00024264603251C
:10A97000E0E7064806494246401AC008012101EBBB
:10A980000040044902F0C4F9E5E700004433030045
:10A9900034330300AC2303002DE9FC41804600F072
:10A9A0001DFAA0F57F410646FF390ED001252A4643
:10A9B0006D1C0027ADB26B460821304603F016FF30
:10A9C000040006D0072C33D033E043F20200BDE888
:10A9D000FC81019903230A1D0B604046891DB2DFEB
:10A9E000040004D00C2C09D0052C09D009E0324613
:10A9F0000821104603F072FF04461AE0012700E028
:10AA000000240821304603F05FFF70B102F0D4FD4E
:10AA10000346094809493246401AC008012101EBA2
:10AA20000040074902F07BF90324002FBFD100E06A
:10AA30000C242046CBE700004433030034330300EA
:10AA40002C23030004488088A0F57F41FF3901D002
:10AA500005F0C2BB70470000AC2200200EB502A971
:10AA6000019100F0BBF96A46012103F075FE08B1BF
:10AA700000200EBD019800780EBD00002DE9F041C8
:10AA800007464FF6FF761048B3DF78B102F094FD29
:10AA900002460E480E49401AC008012101EB004051
:10AAA0000C4902F035F90320BDE8F081064C43F271
:10AAB0000305A41E324661883846AFDFA842F3D1B1
:10AAC0006088401C6080F5E7AE220020443303001C
:10AAD00034330300E0220300428800EB82020C3290
:10AAE0008A4201D9022070478188A1F57F42FF3A4E
:10AAF00006D0018821B18068401C01D00020704739
:10AB000001207047884204D20068401C01D0012017
:10AB10007047002070473EB5027802230C46B3EB25
:10AB2000520F17D1B0F80110ADF80010C1788DF8B0
:10AB300002108188ADF8041080798DF8060002AA11
:10AB400001A92046FCF7B8FB032202A96846FBF7DF
:10AB5000C6FC08B100203EBD01203EBD70B50D46CB
:10AB60000446142810D2FDF71BFA68B1084904EB1B
:10AB7000840001EB4000D0F802102960C188A98050
:10AB8000007AA871002070BD43F2020070BD000081
:10AB9000C425002070B5018890B0102961D1011D35
:10ABA0002C226846FBF762FC9DF804004FF6FF7606
:10ABB00003213446B1EB500F2BD003F051FF9DF829
:10ABC00004006D4640080ED001280CD0022820D188
:10ABD00018E00D99281D1131FCF79CFA18B100BF3F
:10ABE000BDF82C4015E00CAA0BA9072003F00CFFC0
:10ABF0000028EED10DE00D99281D491CFFF78BFFB1
:10AC00000028EDD10CAA0BA9072003F0FDFE0028B7
:10AC1000F1D1BDF80000B44200EB8001124820F8E9
:10AC2000114000EB41000199C0F80210BDF8081076
:10AC3000C1809DF80A10017213D0BDF80000ADF874
:10AC40002E000020ADF83040084E8DF82C000BADE2
:10AC5000044600BF56F8241028468847641C022C7E
:10AC6000F8D310B070BD0000C4250020E419030023
:10AC70002DE9F0414FF6FF760546B04213D00B4F59
:10AC8000002400BF04EB840037F81000A84206D16E
:10AC90002046FDF785F910B12046BDE8F081641C1F
:10ACA000A4B2142CEED33046F7E70000C4250020F0
:10ACB0003EB50C46054603F0D3FE0BE0BDF80000A0
:10ACC000A04207D02846029900F00EF810B1BDF856
:10ACD00000003EBD01AA6946072003F095FE00284A
:10ACE000ECD14FF6FF703EBD2DE9F0410C46054614
:10ACF00000F1110701F111061022491C401CFBF75D
:10AD0000EEFB48B9681C00F04DFA28B1601C00F059
:10AD100049FA08B1012400E0002431463846FCF726
:10AD2000F9F93B780222B2EB530F0CD00321B1EBBF
:10AD3000530F08D03378B2EB530F04D0B1EB530F5D
:10AD400001D0012100E00021084201D18C4302D052
:10AD50000120BDE8F0810020FBE7018811B942180D
:10AD600092780AB101207047491C0829F7D30020C6
:10AD7000704710B50C460346FFF7EFFF00280AD0D6
:10AD800018882188884205D10822A11C981CFBF74D
:10AD9000A6FB08B1002010BD012010BD142804D26C
:10ADA000024A00EB800022F810107047C4250020F2
:10ADB00070B50546FFF75CFF0446284603F0D0FC5B
:10ADC000002808D1142C06D2034B04EB84024FF662
:10ADD000FF7123F8121070BDC425002010B5044681
:10ADE000142808D2FDF7DCF828B1044904EB8400EC
:10ADF00031F8100010BD4FF6FF7010BDC4250020C3
:10AE00003EB5044603F02CFE0EE001992046463183
:10AE1000FFF7AFFF28B9019920462A31FFF7A9FFB4
:10AE200010B1BDF808003EBD6A4602A9072003F034
:10AE3000EBFD0028E9D14FF6FF703EBD10B50A4981
:10AE400041600A4800F05BFE58B902F011FB074967
:10AE50001C238C22087404488C39001F006800F001
:10AE6000B4FD002010BD0000701B0300D42A002098
:10AE70002DE9F0412D4F002520B17D604FF40640B3
:10AE8000BDE8F0810879012258B1294E01280CD083
:10AE9000264C4FF002080834022820D0032841D164
:10AEA00027E00A7103F0B0FA3AE0002000EB8001DD
:10AEB00016F82110022908D0401C80B20228F5D3D0
:10AEC0003A707D6041F61D50DAE700EB800006F82D
:10AED000205006EB8000406803F088FA20E00D71F6
:10AEE000A4F80480002301221248216801F0D2F95D
:10AEF00016E00D71206803F079FA0D4923682831B6
:10AF0000498801EB810206EB8201D1F804C0C4F844
:10AF100000C04B60A3880B81A4F8048006F822507F
:10AF20000028ADD07D6048F20D60A9E750230020D5
:10AF3000002A0020602400200146034802888A423B
:10AF400000D0002070470000182500202DE9FC5F8C
:10AF50000E008346DDE90C47C6F100009846924694
:10AF6000814600D40846012503E000BF90FBFAF0BB
:10AF70006D1C5045FADAA84500D9454624B1002E8B
:10AF800001DB780700D5641EB80702D5B8F1000FC1
:10AF90000AD0F80708D13CB1A54205D22021584675
:10AFA000641EFEF71FF8F6E7002E02DA4E462D214A
:10AFB00002E0780703D52B215846FEF713F807F077
:10AFC000030002280BD1B8F1000F08D13CB1A54213
:10AFD00005D230215846641EFEF704F8F6E7CDE9A5
:10AFE0000047434652463146584606F0D3F8BDE87E
:10AFF000FC9F000070B50D46044600684FF4887150
:10B0000002F0FAFA4FF49071206802F0F5FA4FF46A
:10B010009271206802F0F0FA4FF4A271206802F0F9
:10B02000EBFA4FF4AC71206802F0E6FA206812499E
:10B03000C0F804132068690740F30730090E0028A0
:10B0400004DB00F1E02080F8001405E000F00F00C0
:10B0500000F1E02080F8141D206840F3073000283C
:10B0600009DB00F01F02012191404009800000F13E
:10B07000E020C0F8001170BD10034200024600201D
:10B080001268530713D502F00300012802D00228EA
:10B090000CD105E0C2F383100B68801C184404E057
:10B0A0000223086803EB92521044086001207047A5
:10B0B0002DE9F0479146884604464FF480354FF419
:10B0C000A0760027DFF884A016E000BFD4F80403C0
:10B0D00028420DD0A05958B1C4F84853C4F80853B9
:10B0E0003146204601F0F8FF5AF82810F8B2884798
:10B0F000361D6D00B6B27F1C4F45E7D3D4F804036C
:10B100004FF4807110F0010F09D0D4F8000130B174
:10B11000204601F0E1FF5AF8281004208847D4F8AF
:10B1200004034FF4827110F0020F0CD0D4F8040124
:10B13000002808D0204601F0CFFF5AF82810BDE8BB
:10B14000F04705200847BDE8F08700003C240020B8
:10B150000248007A002800D001207047D42A00203D
:10B16000F0B58488A518944200D82246A41AC28853
:10B17000D6189A4200D81346D21A4B880788BB4289
:10B180000CD34088834209D88888A04206D3A842BD
:10B1900004D8C888904201D3B04201D90020F0BD44
:10B1A0000120F0BD0021425C0AB101207047491C1A
:10B1B0001029F8D300207047800701D00020704785
:10B1C00001207047094810B5807850B1012401E092
:10B1D000002CFBD02046FDF751FC641C032CF7D358
:10B1E00010BDBDE81040FDF769BC0000FC22002046
:10B1F0000348017AC90702D00078FDF7C1BD704746
:10B20000FC22002017210180418000210171417141
:10B210001B218171C17170472DE9FE4F2E4F984659
:10B2200092460D00814601D000260DE0684600F0F0
:10B2300089FB6A460021484603F0EAF93878009E07
:10B2400010B99DF8090098B152463146484605F0BC
:10B2500065FB0446014600224846FEF7BFFF0D2C61
:10B2600037D008DCA4B3082C33D00B2C09D130E044
:10B270000520BDE8FE8F112C1ED0A4F540500238E9
:10B2800027D0204602F098F90246144814494B464C
:10B29000401AC008012101EB0040124901F03FFDB6
:10B2A0005FF00305B8F1000F04D03246214648464E
:10B2B000FEF794FC2846DCE72A46F9784846FCF776
:10B2C00053FE5246B9784846FCF74EFE0025E9E7A2
:10B2D000FFE72546E6E70000E42200207C33030078
:10B2E00034330300882A030070B50E460C49154616
:10B2F00004460978FCF720FE00280FD0204603F012
:10B300002DF900282A463146204603D0BDE870407A
:10B3100003F02AB9BDE87040FEF77CBB70BD0000A9
:10B32000DC22002070B5094D0646A978FCF704FE22
:10B330000446E9783046FCF7FFFD014622463046D8
:10B34000BDE870400123FFF767BF0000E422002042
:10B35000F0B585B00546002714216846FBF7ADF827
:10B36000A5F57F40ADF80250FF3825D02846FFF7FD
:10B37000CBFA040022D01B481B49401AC6080B2CEC
:10B3800022D0112C1ED0A4F5405002380ED02046F9
:10B3900002F012F90246012000EB06402B46134949
:10B3A00001F0BDFC2146284604F09CFE10483A46B8
:10B3B00081782846FCF7D8FD05B0F0BD0E208DF849
:10B3C00000000BE00127F1E70F208DF800000220BC
:10B3D00000EB06402A46074901F09AFC6846FEF752
:10B3E000CDFCE3E73C33030034330300B421030016
:10B3F0009C220020082203000A4602494978FCF7F3
:10B40000B3BD00009C2200202DE9F041002786B04A
:10B4100080463E46FFF7C0FA040022D0112C22D00D
:10B420001B481C49401AC508862C1ED0A4F5405064
:10B4300002380ED0204602F0BFF80246012000EB91
:10B440000540434614A101F06AFC2146404604F041
:10B4500049FE39464046FFF7CFFF06B03046BDE80B
:10B46000F0810126F5E70127F3E714221A4968461F
:10B47000FAF7FCFF0220ADF8028000EB05404246DF
:10B4800016A101F045FC6846FEF778FCE1E70000F4
:10B490003C330300343303006773636D5F6C6F6389
:10B4A000616C5F64625F63616368655F757064614E
:10B4B000746528292072657475726E656420257321
:10B4C00020666F7220636F6E6E5F68616E646C657C
:10B4D0003A2025640000000090190300466C617357
:10B4E000682066756C6C2E20436F756C64206E6FDF
:10B4F000742073746F7265206461746120666F726A
:10B5000020636F6E6E5F68616E646C653A202564BF
:10B51000000000002DE9FF410026244800F0ECFA6D
:10B520002248001F074600F0E7FA214C2149A06895
:10B5300000900D6800E000986946284004EB800008
:10B540000C30FFF79BFD0028F5D101AA009901EA14
:10B55000050304EB8303491CDB6842F82030401CE0
:10B5600000910228F2D3019800F0030001280BD0CB
:10B57000022810D10198032101EB90500099BDF8E9
:10B580000A6001EB900005E00198BDF80A60C0F385
:10B59000831008440090384600F0ABFA08B10098D8
:10B5A000A06004B03046BDE8F0810000D830002033
:10B5B000C02C0020942300204FF4804788B03946E7
:10B5C000002001F015FC08B1FBF73CFF01F066FA22
:10B5D000FBF756FF08B1FBF735FF3F4A01213F4813
:10B5E000FBF742FF08B1FBF72DFF3D490120FDF7B6
:10B5F0007DFB08B1FBF726FF69460020FDF782FAC4
:10B6000008B1FBF71FFF9DF80000022861D000255C
:10B6100001F0F8FC08B1FBF715FF01F0DDFE08B101
:10B62000FBF710FF002469460120009401F064FD3F
:10B6300008B1FBF707FF684601F0DEFD08B1FBF734
:10B6400001FFFEF7FFFD0021264800F0E1FA08B1F6
:10B65000FBF7F8FEFBF7AEFD04F000FF1C21684687
:10B66000FAF72BFF4FF4A030CDE900404FF4F02063
:10B6700002901D48059003261C488DF80C6006902A
:10B68000ADF80E408DF810406846FCF7ABFB08B1F2
:10B69000FBF7D8FE03F07CFB15481649401AC0089A
:10B6A00006EB004014A101F02FFB0C4800223946A4
:10B6B0000068FBF713FF08B1FBF7C4FE2846FBF751
:10B6C000BDFD00BF01F004FA0028FBD101F0AEFC83
:10B6D000F8E701259CE700003D0D0300381E03003C
:10B6E000F98B0200F034002029DE02002B940200C6
:10B6F00094330300343303006D69616F6D69616FCA
:10B70000332064657669636520737461727465645F
:10B710002E000000F0B50B30154D20F0070100247D
:10B72000144A0FE003688B420BD38B4205D95E1A93
:10B7300043184768C3E9006700E04368136002C02C
:10B7400004E0021D10680028ECD12046002802D138
:10B75000286808B10020F0BD064A07481060074A73
:10B76000121A22F00702C0E9002401202860D7E75E
:10B770005C240020582400204C3900204849002037
:10B7800070B5144682880E4605462088111D014476
:10B79000921C994201D8FE2A01D90C2070BD521C7E
:10B7A00032542088FF21401C80B2208031542088F0
:10B7B000401C80B220808119288805F0D6FC2188A1
:10B7C000084480B22080AA8842B1A96841B13044BF
:10B7D000FAF74CFE2088A98808442080002070BD1C
:10B7E000072070BD2DE9F047C5881E1DB6FBF5F793
:10B7F0008946B6FBF5F1044605FB176C40791668DF
:10B800006843DDF820A0F718001F874200D9C61A48
:10B81000166001E02468491E0029FBD1A5EB0C0746
:10B820008846B74216D818E004EB0C00001D09EB5F
:10B830000803BAF1000F3A4602D00146184600E06C
:10B840001946FAF713FE2468F61B4FF0000CB844B3
:10B85000B54201D9374600E02F46002EE4D1BDE8BD
:10B86000F087000030B5024651B101F0D5FA002151
:10B87000074C08E034F821301568AB4202D1116062
:10B88000002030BD491C8142F4D3052030BD0000AA
:10B8900000000000BFF35F8F00F016B9F8B50F4647
:10B8A000017814460546012901D1687830B1208815
:10B8B000821C9A4232D8012902D006E00720F8BD46
:10B8C00069780144891C994228D8181A801E86B2CA
:10B8D000ADF800602188B81C084469467DDF002867
:10B8E000EDD12978022904D06878BDF80020904273
:10B8F00005D3BDF80000B04201D809200AE00820B5
:10B90000012905D16978B14202D8ADF8001001E0F3
:10B91000ADF80060BDF80010FE2901D90C20F8BD7B
:10B920002288491CB9542188491C89B22180785445
:10B930002088401C2080BDF8001008442080002092
:10B94000F8BD0000034A00219268C0E9002181602F
:10B9500070470000E422002070B586B00D46064610
:10B96000144614216846FAF7A8FD8DF80050ADF88A
:10B9700002402046FFF732FAADF80400142269466F
:10B980003046FAF773FD06B070BD70B54FF6FF751F
:10B990000E46A84201D1002000E0401C84B208E01D
:10B9A0002146304600F090F808B1204670BD641C76
:10B9B000A4B2FF2CF4D9284670BD10B5FAF7E7FC05
:10B9C00008B1002010BD112010BD10B531B1B2FB7F
:10B9D000F3F403FB14241CB1092010BD0E2010BD8C
:10B9E00001600021416081608281C381084610BDF1
:10B9F00070B50C460546FAF77FFC002802D0218876
:10BA00002868084470BD10B50A8849888A4203D165
:10BA1000FAF7B4FC012010BD002010BD70B50C4633
:10BA20000546FAF78EFC002802D061882868084491
:10BA300070BD10B50A8849888A4203D1FAF778FCAC
:10BA4000012010BD002010BD01F01F0301229A400B
:10BA5000D243490900EB8100114600F059B80A466B
:10BA600001F01F030121994010B552090C4600EB6B
:10BA7000820000F05DF8204000D0012010BD2DE9CB
:10BA8000F04180460D460024481E012101EB50176D
:10BA900016E058F82400C04390FAA0F0B0FA80F005
:10BAA00020280CD200EB4416AE4208D23146404664
:10BAB000FFF7D5FF0028ECD13046BDE8F081641CCB
:10BAC000A742E6D82846F8E74A0950F8220001F0D4
:10BAD0001F0201219140084000D00120704701F071
