S31500026000986A0020C1630200C9630200CB630200E2
S31500026010CD630200CF630200D163020000000000DC
S31500026020000000000000000000000000D363020030
S31500026030D563020000000000D7630200D9630200A4
S3150002604081660200DB630200496B020059670200A7
S31500026050DB630200DB630200CD650200DB63020044
S31500026060DB630200DB630200DB630200DB63020028
S31500026070DB630200DB630200DB630200DB63020018
S31500026080DB630200D9660200DB630200DB63020007
S31500026090DB630200DB630200AD670200DB63020022
S315000260A0DB630200DB630200DB630200DB630200E8
S315000260B0DB630200DB630200000000000000000058
S315000260C0DB630200DB630200DB630200DB630200C8
S315000260D0E9660200DB630200DB63020000000000E7
S315000260E000000000000000000000000000000000A8
S315000260F00000000000000000000000000000000098
S315000261000000000000000000000000000000000087
S315000261100000000000000000000000000000000077
S315000261200000000000000000000000000000000067
S315000261300000000000000000000000000000000057
S315000261400000000000000000000000000000000047
S315000261500000000000000000000000000000000037
S315000261600000000000000000000000000000000027
S315000261700000000000000000000000000000000017
S315000261800000000000000000000000000000000007
S3150002619000000000000000000000000000000000F7
S315000261A000000000000000000000000000000000E7
S315000261B000000000000000000000000000000000D7
S315000261C000000000000000000000000000000000C7
S315000261D000000000000000000000000000000000B7
S315000261E000000000000000000000000000000000A7
S315000261F00000000000000000000000000000000097
S31500026200DFF80CD000F0A4F90048004789C002006C
S31500026210986A002030B4044654E8000F0D4644E85C
S315000262200053002BF8D1156030BC704730B40446D9
S3150002623054E8000F40EA010544E80053002BF7D169
S31500026240156030BC704730B4044654E8000F00EACB
S31500026250010544E80053002BF7D1156030BC7047A6
S3150002626030B4044654E8000F80EA010544E80053BE
S31500026270002BF7D1156030BC704730B4044654E8A1
S31500026280000F00EB010544E80053002BF7D115601F
S3150002629030BC704730B4044654E8000FA0EB010549
S315000262A044E80053002BF7D1156030BC704770B438
S315000262B004464FF0000054E8006F0D68AE4207BF77
S315000262C044E80023012044E800630E60002B1CBF53
S315000262D00020F0E770BC704730B4044654E8000F63
S315000262E088422CBF451A054644E80053002BF5D1D7
S315000262F0156030BC7047000030B450E8012F93B2ED
S31500026300C48923448489A34228BF1B1B0489A34250
S3150002631002BFBFF32F8F002007E0C3EA020340E863
S315000263200134002CE9D14FF001000A6030BC7047FD
S3150002633050E8012FC2EA024240E801210029F7D1C2
S31500026340704730B450E8022F1FFAA2F3C488A34262
S3150002635002BFBFF32F8F00200DE0C4892344848936
S31500026360A34228BF1B1BC2EA034340E80234002CA7
S31500026370E8D14FF001000A6030BC704750E8022FA6
S31500026380C2EA224240E802210029F7D170470346B9
S3150002639053E8022FD988B2EB324F4FF0000017BFF5
S315000263A092B241EA014142EA014104E05A68B2EB83
S315000263B0324F08BF012043E80212002AE8D1704793
S315000263C00648804706480047FEE7FEE7FEE7FEE787
S315000263D0FEE7FEE7FEE7FEE7FEE7FEE7B16702003D
S315000263E0016202002DE9F05F0546002092469B46B7
S315000263F088460646814640241BE0284641464746D3
S31500026400224600F094F853465A46C01A914110D3D8
S3150002641011461846224600F016F82D1A67EB0108B7
S315000264204F4622460120002100F00DF817EB000925
S315000264304E41201EA4F10104DFDC484631462A46BD
S315000264404346BDE8F09F202A04DB203A00FA02F117
S31500026450002070479140C2F1200320FA03F319434A
S315000264609040704700487047B03203000649074A19
S315000264700868504343F239021044086040087047E6
S3150002648001490860704700006C2400206D4EC64129
S3150002649010B5431A934209D28318881803E010F8FC
S315000264A0011D03F8011D521EF9D210BD40EA010377
S315000264B09B0703D009E008C9121F08C0042AFAD2B2
S315000264C003E011F8013B00F8013B521EF9D210BD60
S315000264D0D2B201E000F8012B491EFBD2704700221E
S315000264E0F6E710B513460A4604461946FFF7F0FFCB
S315000264F0204610BD421C10F8011B0029FBD1801A50
S31500026500704730B504460020034600E05B1C934208
S3150002651003D2E05CCD5C401BF8D030BD034611F8D7
S31500026520012B00F8012B002AF9D118467047202AC0
S3150002653004DB203A21FA02F00021704721FA02F325
S31500026540D040C2F12002914008431946704700002C
S31500026550064C074D06E0E06840F0010394E80700A8
S3150002656098471034AC42F6D3FFF74EFE604703005D
S315000265708047030070B58C1810F8015B15F007030D
S3150002658001D110F8013B2A1106D110F8012B03E0C4
S3150002659010F8016B01F8016B5B1EF9D12B0705D4CC
S315000265A00023521E0DD401F8013BFAE710F8013B15
S315000265B0CB1A921C03E013F8015B01F8015B521E31
S315000265C0F9D5A142D8D3002070BD00002DE9F843C9
S315000265D00025DFF894804FF4807601242F4600953B
S315000265E0304606F0AFFF38B1D8F80403204203D094
S315000265F0304606F09DFF2543361D64007F1CB6B269
S31500026600082FEDD34FF4BE74204606F09BFF48B127
S31500026610204606F08DFF45F000456A46012100201E
S3150002662006F048FF15F0FF0F16D0012600242E4271
S315000266300ED008EB8401D1F81005D1F81015C0F37D
S3150002664004200A4AC1F3014152F8242002B19047BC
S315000266507600641C082CEAD3002D02DA684609F09B
S3150002666073FFBDE8F883000000600040C8350020D3
S31500026670142007F0BDBE0121142007F0DDBE000084
S3150002668070B54FF48076304606F080F9114CB505A8
S3150002669060B1304606F081F90120C5F80803607939
S315000266A020B9012060712168002088474FF4827664
S315000266B0304606F06BF900280AD0304606F06DF92E
S315000266C00220C5F808032168BDE87040012008478A
S315000266D070BD00003024002002490248091F0968E3
S315000266E0006808471824002004220021014805F00A
S315000266F039BA00000040024000F02CBA70B50E46CE
S31500026700144900EB400001EBC0051446E86A18354F
S3150002671020B101280FD0022805D113E0284600F047
S315000267204DFAA04201D2002411E022463146284603
S3150002673000F07CFA0BE0284600F040FAA042F4D2C0
S315000267400446F2E73146284600F043FA044620465C
S3150002675070BD000014330020F8B51248124E0446EC
S315000267604FF48C7107F088FD00281AD00025C4F872
S315000267701851D4F818010090F07F3446FF2806D04D
S31500026780A17F11B106F0ACFE01E006F0BFFE65770F
S315000267902572D4E9002101B004F10800BDE8F040F9
S315000267A01047F8BD003000402436002007F0A6BC92
S315000267B0F0B5D34AD3494FF080541368D4F8300168
S315000267C00978D4F83421451CC1F3031107D0844655
S315000267D0164601270025BCF1060F04D013E003F08C
S315000267E0FF0C0E46F5E7032E05D0042E03D0052E28
S315000267F001D0062E07D1B4F82463DFF80CC3C6F322
S315000268000426CCF80060DEB2062E06D1032904D196
S31500026810DFF8FCC2BD4ECCF87460461C06D0844636
S315000268204FEA0206BCF1060F04D013E003F0FF0C98
S315000268300E46F7E7032E05D0042E03D0052E01D00F
S31500026840062E07D1D4F84462DFF8C8C2C6F3423630
S31500026850CCF80060DEB2062E08D1032906D1AE4E70
S31500026860D6F800C02CF0807CC6F800C0461C05D0C5
S3150002687084461646BCF1060F04D014E003F0FF0C62
S315000268800E46F7E7032E05D0042E03D0052E01D0BF
S31500026890062E08D14FF08046C6F80C51C6F81051A4
S315000268A09C4E361F3560DEB2062E08D1032906D16C
S315000268B0DFF860C203260CF1640CCCF80060DEB28D
S315000268C0062E11D103290FD1DFF850C20526CCF8C6
S315000268D00060924E78363760904E083635600CF17D
S315000268E0040C3F26CCF80060461C05D084461646AA
S315000268F0BCF1060F04D087E003F0FF0C0E46F7E763
S31500026900032E7CD0042E7FD0052E01D0062E7BD1FD
S31500026910834E3668DFF80CC2CCF80060804E361D16
S3150002692036680CF1040CCCF800607D4E08363668E9
S315000269300CF1040CCCF80060794E0C3636680CF17A
S31500026940040CCCF80060764E103636680CF1040C56
S31500026950CCF80060724E143636680CF1040CCCF892
S3150002696000606F4E18363668DFF8B8C10CF1200C9D
S31500026970CCF800606A4E1C3636680CF1040CCCF872
S315000269800060674E203636680CF1040CCCF80060C5
S31500026990634E243636680CF1040CCCF80060604E67
S315000269A0283636680CF1040CCCF800605C4E2C36A6
S315000269B036680CF1040CCCF80060594E3036366855
S315000269C0DFF860C10CF1400CCCF80060544E34364E
S315000269D036680CF1040CCCF80060514E3836366835
S315000269E00CF1040CCCF800604D4E3C3636680CF1C6
S315000269F0040CCCF800604A4E4036366800E003E0EC
S31500026A000CF1040CCCF80060461C05D084461646F0
S31500026A10BCF1060F04D011E003F0FF0C0E46F7E7B7
S31500026A20032E05D0042E03D0052E01D0062E05D145
S31500026A30D4F858423C4E04F04F043460441C04D04F
S31500026A4003461146062B02D010E0DBB2FAE7032911
S31500026A5005D0042903D0052901D0062906D13349D8
S31500026A600B68DB0702D06FF001030B6006280CD11E
S31500026A70032A0AD0042A08D0052A06D0062A04D1F7
S31500026A802B48016841F4806101602348743801682B
S31500026A9041F470010160BFF34F8FBFF36F8F4FF068
S31500026AA01021D1F80002002803DBD1F804020028E5
S31500026AB022DA204A176020480368002BFCD01523EF
S31500026AC0C1F800320468002CFCD0C1F80432016817
S31500026AD00029FCD0156001680029FCD0BFF34F8F56
S31500026AE00D48F0380168154A01F4E061114301606E
S31500026AF0BFF34F8F00BFFDE7124911480860F0BD92
S31500026B00E00F00F0E80F00F0403501400DF0ADBA9D
S31500026B1000C007403C050040FCED00E01056004076
S31500026B200404001020C50040E40E004000040040AA
S31500026B303C17004004E5014000E401400400FA0568
S31500026B400090D00368240020014800680047000036
S31500026B504024002010B5124C02202061606111A071
S31500026B60A06104F17800E0614FF400702062002019
S31500026B70A06260620BA1A164E06204F51E71E16489
S31500026B801021A065C4E91410E06509A1E01DFFF714
S31500026B90C5FC08A12046FFF7C1FC2020A07110BD4C
S31500026BA0143300205465726D696E616C000000003A
S31500026BB05254540053454747455200000269C16882
S31500026BC08A4203D88068401A104400E0501A401ED8
S31500026BD070472DE9F047C4681746894606464FF0C6
S31500026BE000083069A04201D9051B02E0B168201AEB
S31500026BF00D1AB0686D1E001BA84200D80546BD429C
S31500026C0000D33D4670682A4620444946FFF740FCB9
S31500026C10B0687F1B2C44A844A944A04200D100249A
S31500026C20F460002FDDD14046BDE8F0872DE9F04142
S31500026C3004468846D4E90207C51BE1686068164621
S31500026C400844B54206D94146FFF722FCB819E0606E
S31500026C50BDE8F0812A464146FFF71AFC761B08EB8F
S31500026C60050132466068FFF713FCE660F0E70000B4
S31500026C700FB4084B10B504A902AA039800F02EF827
S31500026C80044602A9002000F05AFA204610BC5DF81C
S31500026C9014FB00003F71020002E008C8121F08C17F
S31500026CA0002AFAD170477047002001E001C1121F85
S31500026CB0002AFBD1704700000121202803DA814017
S31500026CC00548014003E0402802DA2038814009B134
S31500026CD00120704700207047FC06FFBD2DE9FF4FDB
S31500026CE08DB00F460546002606E025280BD0DDE9C5
S31500026CF00F1290476D1C761C28780028F5D111B02A
S31500026D003046BDE8F08F0024A246A1460122EC4996
S31500026D1000E0044315F8013F203B02FA03F0084263
S31500026D20F7D128782A2810D06FF02F022878A0F100
S31500026D303001092914D80AEB8A0102EB410144F019
S31500026D40020400EB010A6D1CF0E701CF5FEA000ABC
S31500026D5003D544F40054CAF1000A44F002046D1C3F
S31500026D6028782E2817D115F8010F44F004042A2892
S31500026D700ED06FF02F022878A0F1300109290AD827
S31500026D8009EB890102EB410100EB01096D1CF2E7F7
S31500026D9057F8049B6D1C28786C280FD006DC4C280B
S31500026DA017D068280DD06A2814D104E0742810D0B0
S31500026DB07A280FD10DE044F400140AE044F480145A
S31500026DC001E044F440146978814202D104F580144A
S31500026DD06D1C6D1C2A786E2A1FD00CDC632A31D0FA
S31500026DE004DC002A8BD0582A11D1A3E0642A68D089
S31500026DF0692A0CD165E0732A2ED004DC6F2A73D07F
S31500026E00702A04D19BE0752A6FD0782A6ED010467C
S31500026E10DDE90F129047761C50E1C4F302500228B6
S31500026E2006D0032809D0042801CF09D0066045E11F
S31500026E3001CFF117C0E9006140E101CF06803DE1D3
S31500026E4006703BE117F8040B8DF8000000208DF860
S31500026E500100EB46012003E057F804BB4FF0FF3078
S31500026E6061074FF0000102D40DE008F101018846E6
S31500026E7049450FDA8045F8DB1BF808100029F4D1E2
S31500026E8008E008F1010188468142FADB1BF8081086
S31500026E900029F6D1DDE90F23AAEB08008146214637
S31500026EA000F036F9304400EB080604E0DDE90F1283
S31500026EB01BF8010B9047B8F10108F7D22146484664
S31500026EC0F7E00A21C4F302534FF0000B0891022B9C
S31500026ED004D001CFC117032B09D00AE0FF1D27F00A
S31500026EE00707F7E8020108E032E01FE020E000B2FF
S31500026EF0C117042B01D140B2C117031E71F1000361
S31500026F0007DA4FF0000CD0EB0C006CEB01012D23DD
S31500026F1002E0230504D52B238DF82430012303E058
S31500026F20E30701D02023F7E7984658E00A2110E04C
S31500026F3010210EE010204FF0000B08900CE01021FB
S31500026F404FF0000B44F004044FF00809089103E0E7
S31500026F5008214FF0000B0891C4F30253022B04D010
S31500026F6001CF0021032B06D006E0FF1D27F00707FD
S31500026F70F7E8020103E080B2042B00D1C0B24FF061
S31500026F80000823072BD5702A07D0DDF820C08CF025
S31500026F90100C5CEA0B0C05D00EE040238DF8243071
S31500026FA0012308E050EA010306D030238DF824308D
S31500026FB08DF8252002239846DDF820C08CF0080CB7
S31500026FC05CEA0B0C0BD150EA010301D1630706D52B
S31500026FD030238DF824304FF00108A9F10109582A0F
S31500026FE004D038A20B9208AA0A920BE03AA2F9E759
S31500026FF05B46089AFFF7F6F90B9B9B5C0A9A521EB0
S315000270000A92137050EA0102F2D10A98ADEB00001F
S3150002701000F1200B600702D524F4803401E04FF022
S315000270200109D94502DDA9EB0B0000E0002000EBC7
S315000270300B0141440890AAEB010AE00306D4DDE9FC
S315000270400F232146504600F063F806444FF000092C
S3150002705008E009A911F80900DDE90F12904709F1C4
S315000270600109761CC145F4DBE0030CD5DDE90F23EB
S315000270702146504600F04CF8064404E0DDE90F12C2
S3150002708030209047761C0899481E08900029F5DCA6
S3150002709008E00A980A990078491C0A91DDE90F125C
S315000270A09047761CBBF10001ABF1010BF1DC2146E6
S315000270B05046DDE90F2300F019F806446D1C1BE665
S315000270C009280100303132333435363738396162B6
S315000270D0636465660000000030313233343536377A
S315000270E03839414243444546000000002DE9F0414B
S315000270F0044600251E461746880404D405E0394690
S315000271002020B0476D1C641EF9D52846BDE8F081E3
S315000271102DE9F041044600251E469046C80301D5D6
S31500027120302700E02027880404D505E0414638468A
S31500027130B0476D1C641EF9D52846BDE8F0810A6881
S31500027140531C0B601070704710B560B159B10278CC
S315000271500B785208B2EB530F05D10622401C491C8C
S31500027160FFF7CFF908B1002010BD012010BD80073E
S3150002717001D00020704701207047C3688B4206D8B1
S3150002718011440069491E814201D80120704700203E
S3150002719070470000F0B587B03B4C0025ADF818509B
S315000271A02069401C2061902800D92561A069E8B3B6
S315000271B0401EA06102208DF80000112701268DF8DD
S315000271C00170ADF80460207C00F001008DF8060025
S315000271D0FFF74CF9C82190FBF1F201FB12001430C3
S315000271E081B2ADF80C10A0690490E06805902748BA
S315000271F0067047702269828002F0010302EB4202A6
S31500027200837120F8221000EB8207049B7B600598AD
S31500027210B8601F4F07EB820242F80C1DC2E901302B
S3150002722003F0F0F803F05EF8A07800E002E001282F
S3150002723002D004E01748BCE7A57003F009FA2069FA
S315000272400C21B0FBF1F201FB120018B1684602F004
S31500027250D9FB01E02561E6700F4810490325401A63
S31500027260C00805EB00400EA1226906F08DFB2069DD
S31500027270B0FBF5F105FB1100ADF8180006A802F007
S31500027280DBFD07B0F0BD000048240020CC430020FF
S315000272900C3B00200075120000480300A0470300C3
S315000272A0646174614E756D626572203A25640000F0
S315000272B090F82400012801D01F207047EE20704765
S315000272C010B501220221002001F0DAFD08B10728DB
S315000272D018D107220221012001F0D2FD08B10728A8
S315000272E010D100210A22084601F0CAFD08B107287A
S315000272F008D110220121022001F0C2FD08B107289F
S3150002730000D1002010BD000000B5B3B0AC21684624
S31500027310FFF7E5F830A86DDF08B100F041F900206B
S315000273202EA930AAC0F1050313445B780B54401C06
S315000273300628F7DB33202D91ADF8AC00022106209A
S315000273408DF80010ADF8B0002BA9099100218DF837
S3150002735002108DF8030001208DF87C004FF4F071C5
S3150002736044F250628DF87D0009482990CDE9221237
S31500027370CDE924126946074800F0FBFB08B100F08C
S315000273800FF90121034800F0F1FB33B000BD000004
S31500027390FDED0200D83600201149124A10B5891AAD
S315000273A0CC0868B1032000EB04400FA106F0E8FA0E
S315000273B009F05AF8002812D0BDE8104000F0F0B8E3
S315000273C003210D4800F0A3FC08B100F0E9F80420FF
S315000273D000EB0440BDE8104008A106F0D1BA10BD8A
S315000273E000480300A0470300457261736520626F7F
S315000273F06E64732100000000D83600204164766571
S3150002740072746973696E6720737461727465642E2F
S315000274100000000070B58CB015460E4600236C467F
S31500027420C3F10F01415CE1545B1C102BF8D30D2113
S3150002743004F11000FFF753F80020C0F10F02315C8F
S315000274402244401C11740328F7D3684646DF002005
S31500027450C0F10F01214491F820102954401C032841
S31500027460F6D30CB070BD002001F0E4BB0149C97827
S3150002747000F010BEE022002070B50024064D06E0A2
S315000274806868012110F8340006F0D6FF641C2878DB
S315000274908442F5D3002070BD18230020F8B51646A5
S315000274A00C4605460A2A01D20720F8BD07F0BEF8A7
S315000274B018B907F081F80028F7D1134F10211348A5
S315000274C07D603C70BE60FFF70AF80020C7E9040041
S315000274D00F4E0DE005EBC4003168009181788DF8FE
S315000274E0011000780B4A694606F0F6FF0028DCD147
S315000274F0641EE4B2EED2BDE8F84005480021064A11
S31500027500001D00F05FB8000018230020602900204B
S31500027510742E03004DB302000599020072B606F0FE
S31500027520CFFA00BF06F010F90028FBD11148124924
S31500027530401AC408012000EB044010A106F020FA0C
S3150002754011480068C00700D000BE022000EB0440CC
S315000275500EA106F015FABFF34F8F0B48E438016807
S315000275600E4A01F4E06111430160BFF34F8F00BF81
S31500027570FDE7000000480300A0470300466174616E
S315000275806C206572726F7200F0ED00E053797374CD
S31500027590656D207265736574000000000400FA05CB
S315000275A00EB500210091CDE901106A4644F20100B0
S315000275B0FFF7B4FF0EBD0000014802F0EEBA00006C
S315000275C0F82300203AB100680129426100D0002167
S315000275D001610020704707207047000038B5114846
S315000275E008235822416800910F49006804F0ABFF56
S315000275F0002815D10D4A69460D4802F0D3FA040057
S315000276000ED101210A4802F048FB0123094A194614
S31500027610074802F09AFA06490120083908702046FE
S3150002762038BD0000D0300300B0320020750C0300D4
S31500027630F8230020FFFF7F0070B50446007F0D4649
S3150002764008B1002070BDA26103F034FE401941F179
S315000276500001C4E90201206900B125612146BDE8A5
S31500027660704000200AF002BD014600200877012082
S315000276700AF0FCBC30B5EFF3108172B60D4A94687D
S31500027680012324B10370002900D162B630BD936094
S315000276904FF0E023D3F88051074C25401560C3F81C
S315000276A08041D3F8844154605A17C3F884210022DA
S315000276B00270E8E708330020FC06FFBD0B498A6822
S315000276C0002A11D000280FD1EFF3108072B60B6892
S315000276D04FF0E022C2F800314B68C2F804310022B2
S315000276E08A60002800D162B6704700000833002085
S315000276F02DE9F041064608680C46411C4FF0A047AA
S315000277004FF0010506D005FA00F1C7F80815206802
S3150002771005F0AAFE6068411C02D0002105F088FE31
S315000277203168A069C1F82405607D227D3168104365
S31500027730C1F86C05D4E900123068C0F81425C0F807
S315000277400C15207D012815D1A068411C02D000210C
S3150002775005F06EFEE068411C05D08540C7F8085565
S31500027760E06805F081FED4E902123068C0F8082507
S31500027770C0F81015BDE8F0812DE9F041064608680B
S315000277800C46411C4FF0A0474FF0010506D005FA02
S3150002779000F1C7F80815206805F070FE6068411C04
S315000277A002D0002105F04DFE3168A069C1F824051A
S315000277B0607D217D32680843C2F86C05D4E9001267
S315000277C03068C0F80C15C0F81425207D012815D1A3
S315000277D0A068411C02D0002105F033FEE068411C7E
S315000277E005D08540C7F80855E06805F047FED4E99C
S315000277F002123068C0F80825C0F81015BDE8F081FD
S3150002780004F00EBB2DE9F047814605884A484FF041
S3150002781000088AB001784246284600F053FC99F8DF
S315000278200500400701D4002176E005F58077B8B25D
S3150002783005AB0122072107F0F9FF04003F48404A41
S315000278404FF00101A0EB02004FEAD00001EB004627
S315000278500AD0204606F032FD024630462B4639490A
S3150002786006F099F8214629E0284604F00FF84FF66B
S31500027870FF71044688422BD18A46069803F070FFB0
S315000278800446504510D00146284603F0DFFF28463D
S31500027890FFF7ECFDE0B9284609F0A2FC2846FFF7FF
S315000278A0E5FD0028BFD013E008F096F904465045DE
S315000278B008D1304624A106F063F80421284609F0CF
S315000278C0BDFCB0E70146284603F0C0FF4FF00108B1
S315000278D0B8B22246072108F021F807001BD0862FEE
S315000278E01ED006F0EBFC024630462B462349009496
S315000278F006F059F83946284609F0A0FC0021484608
S3150002790007F08CFEB8F1000F02D0204603F0A8FF64
S315000279100AB0BDE8F0870121484607F07FFEF7E787
S31500027920142217496846FEF7B3FDADF802506846C1
S3150002793002F04CFCEFE70000E0220020E0470300E3
S31500027940A0470300D83B0300436F756C64206E6F3B
S315000279507420616C6C6F63617465206E657720704C
S315000279606565725F696420666F7220696E636F6D0A
S31500027970696E6720626F6E642E000000F43C03009D
S31500027980F42D03002DE9FC470025178806461580CD
S3150002799090F82D001446894630B13A4621464846AB
S315000279A000F0B6FB051E09D1B0784FF00C0A18B3E9
S315000279B02088C846001DB84202D95046BDE8FC8759
S315000279C0684679DF0028F9D12088032108F80010DB
S315000279D020881921401C80B2208008F800102088D7
S315000279E0401C80B2208000EB0801BDF800000AF0BE
S315000279F06CFD218808442080F0780222C8B12188D3
S31500027A0096F9033001F1030C4846BC45D5D84254D9
S31500027A1021884FF0010C491C89B2218000F801C06F
S31500027A202188491C89B2218009F801302088401C2E
S31500027A3020807068B8B1218890F9003001F1030CFA
S31500027A404846BC45B9D8425421880A22491C89B203
S31500027A50218042542188491C89B2218009F80130CB
S31500027A602088401C2080308950B1CDE900474B4622
S31500027A700622022106F108000AF016FE051E9DD115
S31500027A80308A50B1CDE900474B460722032106F161
S31500027A9010000AF009FE051E90D1308B50B1CDE9D7
S31500027AA000474B461522142106F118000AF0FCFD88
S31500027AB0051E83D1306A30B13B462246494601F063
S31500027AC09AFD051EDBD1706A30B13B462246494615
S31500027AD004F014FC051ED2D196F82C0038B13B46B0
S31500027AE022464946304609F00DFD051EC7D13078BB
S31500027AF038B13B4622464946304604F08DFC051E07
S31500027B00BDD128465AE718B504460020ADF8000054
S31500027B1013466A46204600F006F8002802D0BDF851
S31500027B200000204418BD70B5E0B1DAB1002402E0CD
S31500027B30045D2C44A4B2651C8D4206D21688A64268
S31500027B40F6D8061976789E42F2D18C420AD2A31C46
S31500027B50005D9BB200B1401E0004000C02D01C184E
S31500027B608C4201D9002070BD138070BD80F83010A0
S31500027B7070472DE9F0410D00044606D02CB195F868
S31500027B807A000026012803D006E00E20BDE8F08127
S31500027B9095F89800012829D0D5F8A000042825D008
S31500027BA0D5F89C00042821D04FF00108A6702C229B
S31500027BB005F17801201DFEF76BFC84F83060D5F8DC
S31500027BC0A4006063D5F8A800A0634FF6FF70A4F87E
S31500027BD0240404F58260C4F82004C4F82664A4F8D8
S31500027BE02A6484F82C64207810B104E00720CDE7DB
S31500027BF0FF2084F8540004F155072046C4F8107497
S31500027C00FFF756FBA4F8140404F214423946284638
S31500027C10FFF7B8FE0028B9D104F23120C4F81804DF
S31500027C202046FFF745FBA4F81C0404F21C4205F1AA
S31500027C303C00D4F81814FFF7A5FE0028A6D184F854
S31500027C405180208BA4F8480084F83C80266484F88E
S31500027C505060606900216064454604F13C02781E6A
S31500027C6072DF002892D1257090E710B50288102A9B
S31500027C701BD0112A20D0262A1DD1007A0C460128B3
S31500027C8001D0022817D1A0780521401CB0FBF1F2E1
S31500027C9001FB1201204600F03AF800280BD0A16B36
S31500027CA0002908D0BDE810400847C27B012A02D14C
S31500027CB08088A1F8240410BD0C46002184F82E14F5
S31500027CC08088B4F824148842F5D120790028F2D1AC
S31500027CD00121DFE710B5044690F8540074DF012055
S31500027CE084F82E04002084F8300484F8500006211B
S31500027CF0204602F05CFF002808D1A178204600F059
S31500027D0006F810B1A16B01B18847002010BD2DE91C
S31500027D10F05F044600780F4698B1A7700025C4F8B4
S31500027D202654A4F82A5484F82C54A079012608B1C2
S31500027D30012F09D0E07980B1012F05D0022F03D09F
S31500027D400BE00820BDE8F09F616B21B184F82D6439
S31500027D500820884701E084F82D5404F227410020C8
S31500027D600A5C0AB1304603E0401C0628F8D300201C
S31500027D704FF002084FF0030B012F06D0022F0CD052
S31500027D80032F0FD0042F15D110E0A17929B194F851
S31500027D90241011B908B130460DE0E17911B108B1EC
S31500027DA0404608E0207A08B1584604E0607A08B1F5
S31500027DB0042000E02846A070616B41B1032801D07F
S31500027DC0042804D1607910B194F82E0498B184F88D
S31500027DD02F5404F13C0018210746FEF780FB84F875
S31500027DE03C6004F12C0008F029F858B194F82C00F4
S31500027DF084F8510008E084F8305484F82F64072090
S31500027E008847E6E784F8516094F8240058B104F1F3
S31500027E10280008F013F820B194F8280084F85200DC
S31500027E2001E084F8526084F85050A27804F22641A8
S31500027E3004F582694FF0060A052A64D2DFE802F0E9
S31500027E407C030F22420084F83160C4F82054C4E94E
S31500027E50101584F83C808020A4F8480055E084F888
S31500027E60318094F82420384612B10722027001E0CC
S31500027E7080F800B0228A8281C4F820544160E16809
S31500027E80B96042E06069B860208BB88194F824003A
S31500027E903D460028204602D084F83CA001E084F842
S31500027EA03C600AF0CDFB50B185F8148004212046CF
S31500027EB002F07DFE38BB052184F8311021E084F8FA
S31500027EC031B01EE0E069B860208CB88194F82400D5
S31500027ED03D460028204602D084F83CA001E084F802
S31500027EE03C600AF0ADFB48B185F8148004212046B7
S31500027EF002F05DFE38B984F831A002E0042084F86D
S31500027F003100C4F82094A07878B13A4604F15400BE
S31500027F10D4F8201472DF00287FF414AF94F83010DE
S31500027F2094F8540073DF0028F6D1616B11B194F80E
S31500027F3031008847002005E784F83150F5E7000054
S31500027F4070B5040012D001461C221448FEF7A0FAAE
S31500027F501248134D0560206850B17ADF002806D119
S31500027F602068016829604068686005E00E2070BDDF
S31500027F700B487BDF0028FAD108484FF6FF71143808
S31500027F80084A20F8041B0549343901600021FFF72D
S31500027F9019FB0028EBD0032070BD000054250020F9
S31500027FA096220020D925030010B5044600F0A6F853
S31500027FB0002805D02146BDE81040024804F042BB25
S31500027FC010BD00008025002070B515460E460446F9
S31500027FD00AF042FB002809D0054800EB8400C0697C
S31500027FE02A463146BDE8704002F00EBE70BD000062
S31500027FF07025002010B5044600F080F8002805D050
S315000280002146BDE81040024804F01CBB10BD00002A
S315000280108825002010B5044600F070F8002805D027
S315000280202146BDE81040024804F00CBB10BD00001A
S315000280308425002070B50546002400F05FF838B1AB
S315000280402946044804F0FEFA08B1022400E001249D
S31500028050204670BD7C25002070B50546002400F040
S315000280604DF838B12946044804F0ECFA08B1022466
S3150002807000E00124204670BD7825002010B51821A5
S31500028080034804F0BAFA182800D0C0B210BD0000A6
S315000280907025002070B505460C4608460AF0DCFA43
S315000280A060B1284600F02AF840B10548294600EB9F
S315000280B08400BDE870401C3004F0C4BA002070BDD4
S315000280C07025002070B5054616460C4608460AF08D
S315000280D0C3FA00280ED0284600F010F8002809D06E
S315000280E00548324600EB84002946BDE870401C3044
S315000280F002F058BD70BD000070250020142801D37F
S31500028100002070470146014804F09CBA74250020FD
S315000281107CB5054608880C460930904201D90C20E8
S315000281207CBD68466DDF0028FAD121880820685494
S3150002813020881B21401C80B2208029542088401CA4
S3150002814080B220802844DDF801100160BDF80510D8
S3150002815081802088801D80B220809DF80010490809
S3150002816000D0012129542088401C208000207CBD9B
S3150002817010B504F01BFC002809D105484FF0030C8A
S3150002818000DF002803D1BDE8104004F07DBC10BD1D
S31500028190B824002018B103490860002070470E2059
S315000281A070470000902200200E480F4910B5401A71
S315000281B0C008042101EB00400CA105F0E1FB4FF0E1
S315000281C0FF3100203DDF00280BD1B1213CDF002822
S315000281D007D11348416901208847022005F084FD32
S315000281E0002010BD00480300A0470300496E20622C
S315000281F06C655F6466755F627574746F6E6C6573C9
S31500028200735F626F6F746C6F616465725F737461C2
S3150002821072745F66696E616C697A650D0A000000A8
S315000282209C240020044810B5006841690020884754
S31500028230BDE81040FFF7B8BF9022002010B588B005
S31500028240044620216846FEF74AF90320ADF80000ED
S3150002825020788DF802009DF80D00172140F02800C5
S315000282608DF80D0001208DF810008DF81300ADF881
S3150002827004108DF812008DF80C008DF8110060883C
S31500028280A21D694601F082F808B010BD10B5184C5F
S3150002829086B01ECC8DE81E0048B1164C4FF6FF7113
S315000282A0A180006800216061217618B104E00E20E9
S315000282B006B010BD104860610E48FFF76BFF00283C
S315000282C0F6D101208DF812004FF65960ADF8100074
S315000282D0A21C04A90120A8DF0028E9D105496846A5
S315000282E062DF0028E4D10348FFF7A8FFE0E70000B9
S315000282F0902C03009C240020999D020010B50028B2
S3150002830023D003881C4C102B17D02146112B8A88A8
S3150002831015D0C988512B19D0532B16D1C088884243
S3150002832013D1207E002810D0FFF77CFF00280CD046
S315000283306169BDE8104002200847808804E0808811
S31500028340824202D14FF6FF70A08010BD838893420D
S31500028350FBD110F8062F022AF7D142888A42F4D1BD
S31500028360017A0429F1D00629EFD00529EDD0BDE81E
S315000283701040801C06F00ABE9C2400202DE9F04124
S315000283800546007B042601272E4C012811D002281F
S315000283902CD00226287B314600F08EF818B12068D0
S315000283A0416903208847206841690220BDE8F041FF
S315000283B0084720684FF00008417E49B10621012096
S315000283C000F07AF800283BD0206841690320EDE7E7
S315000283D007760121084600F06FF8002830D022689F
S315000283E0112882F81880D5D10626D3E76A7B142A8B
S315000283F022D80AB3DFF8508005F10E0108F1040015
S31500028400FEF746F8697BC8F8181021684046497E8F
S315000284100029BFD1A0F10C010A68011F904768B17B
S315000284200F28B7D109480A49401AC00807EB00408D
S31500028430084905F0A5FAADE70526ABE720684776B9
S31500028440BDE8F08190220020C424002000480300E9
S31500028450A0470300B432030070B5154900250A6827
S31500028460002A24D04A68002A21D0083190470828D9
S315000284701DD0104C0028206845760ED00621022019
S3150002848000F01AF818B1206841690320884720686D
S3150002849041690220BDE8704008470121022000F030
S315000284A00BF8002803D0206841690320F2E770BD6B
S315000284B0B82400209022002086B00323ADF80030B5
S315000284C020238DF814308DF8150000220E480192F3
S315000284D002928DF81610C188ADF8041002218DF8AB
S315000284E0061005A90491ADF80820CDF80CD08088B5
S315000284F001A9AEDF002804D1BDF80010032900D07F
S315000285000C2006B0704700009C240020114A124B32
S3150002851003219A1AD20801EB024270B101280FD048
S315000285200C4A01219A1AD20801EB024202280AD009
S31500028530032810460AD009A109E0104611A106E057
S3150002854010461CA103E0104623A100E031A105F06C
S3150002855017BA0000A047030000480300556E6B6E71
S315000285606F776E206576656E742066726F6D206217
S315000285706C655F6466755F627574746F6E6C657345
S31500028580732E0000446576696365206973207072F4
S3150002859065706172696E6720746F20656E746572AC
S315000285A020626F6F746C6F61646572206D6F6465B3
S315000285B02E0000004465766963652077696C6C203D
S315000285C0656E74657220626F6F746C6F616465723A
S315000285D0206D6F64652E0000526571756573742097
S315000285E0746F20656E74657220626F6F746C6F6152
S315000285F0646572206D6F6465206661696C656420CE
S315000286006173796E6368726F6E656F75736C792EBE
S31500028610000000005265717565737420746F2073D3
S31500028620656E64206120726573706F6E7365207467
S315000286306F20636C69656E74206661696C65642E71
S315000286400000000010B50288502A13D1C088CA88DB
S3150002865090420FD1086900280CD080470648074986
S31500028660BDE81040401AC008032101EB004004A1F6
S3150002867005F086B910BD000000480300A0470300BC
S3150002868044525320636861726163746572697374DC
S315000286906963207772697474656E000086B0ADF8FE
S315000286A010208288A2F57F43FF3B14D0002200925D
S315000286B0019202920392C388ADF8042004AACDE97E
S315000286C00221ADF8003001238DF802308088694618
S315000286D0AEDF06B0704743F20200FAE710B5028831
S315000286E0502A13D1C088CA8890420FD1086900283F
S315000286F00CD0804706480749BDE81040401AC0081A
S31500028700032101EB004004A105F03AB910BD0000B7
S3150002871000480300A0470300455252532063686194
S3150002872072616374657269737469632077726974BE
S3150002873074656E0086B0ADF810208288A2F57F437C
S31500028740FF3B14D000220092019202920392C38848
S31500028750ADF8042004AACDE90221ADF800300123C8
S315000287608DF8023080886946AEDF06B0704743F264
S315000287700200FAE72DE9F04701883B4E40F2F31971
S315000287804FF6FF7510291BD011293ED0122954D05D
S31500028790502946D1C188F289841D914241D161890D
S315000287A002293ED18688304603F020F9050038D0EA
S315000287B004F10C0000F0C4F9A8B3294630464EE095
S315000287C0C17B8788044601292BD1A846284603F097
S315000287D00DF9050017D02F80002028722348434642
S315000287E04A460168C5F80A104068C5F80E0004F149
S315000287F0100105F10A0003F00DFA6872F0890028EB
S315000288000FD129462AE0042013E0808803F0EEF80F
S31500028810040006D06068FEF727FF08B108F0F2FCF4
S315000288202580BDE8F087FFE76868FEF71DFF002890
S31500028830F7D0BDE8F04708F0E5BC8788064638461B
S3150002884003F0D4F80400ECD02B464A4606F10801A0
S3150002885004F10A0003F0DEF9607221463846BDE8EB
S31500028860F04700F00FBF000054250020962200209A
S315000288702DE9F04F044686880188424897B0834620
S3150002888010290CD0112950D0103019296AD01A2972
S3150002889074D1217A0C09042C4DD301224CE0394DB6
S315000288A0083DA868C0430B9069680BA803F0EEFE6A
S315000288B00B990CA800F080FE2C220CA96846FDF745
S315000288C0E7FD0027E946A84610E000BF09EB47008E
S315000288D05FF00005B0F804A008EB85005146001DC4
S315000288E003F070FE6D1C1E2DF6D37F1C0098B84255
S315000288F0ECD8142E05D317B00420BDE8F04FFEF7CE
S315000289004FBE3146584603F0A8FE314608F1040030
S3150002891003F0A3FEE07B022830D117B03146BDE852
S31500028920F04F1848001D03F098BE17B03146BDE857
S31500028930F04F03F047BE0022314602F033F9032C12
S3150002894001D3012200E000220E4831460C3002F02B
S3150002895029F9022C01D3012200E0002209483146FE
S31500028960083006E0217A002908D1617AC1F3C002F3
S31500028970314617B0BDE8F04F02F014B917B0BDE8A2
S31500028980F08F00007825002010B5044607480078CD
S3150002899000280AD0204602F055FE204608F090FE36
S315000289A02046BDE8104002F0C1BA10BDD022002018
S315000289B010B51C4C0188606810290ED0112930D1DF
S315000289C0401E60602DD1FEF77BFC002829D021686D
S315000289D0002926D0BDE810400847F8B90021012237
S315000289E0084600F04DFA08B1072814D107220221E1
S315000289F0012000F045FA08B107280CD10422022111
S31500028A00002000F03DFA12220121042000F038FA7B
S31500028A1020B1072802D0216801B188476068401C4E
S31500028A20606010BD10230020F8B504460188264870
S31500028A30264A0025801AC008042202EB004021299A
S31500028A402AD013DC214A204B4FF00300A3EB02028B
S31500028A504FEAD2021E4E00EB0240102911D0112914
S31500028A6003D11CA104F08CFF7570F8BD3B291FD001
S31500028A705629FAD11BA104F083FFA088132176DFC1
S31500028A801CE01EA104F07CFF01207070A188718198
S31500028A901D4803F003FF11E01CA104F071FF0095CD
S31500028AA0A08869468FDF0028DFD0FEF779FDF8BD82
S31500028AB01BA104F065FFA088132176DF0028F6D0FB
S31500028AC0BDE8F840FEF76CBD00480300A04703006E
S31500028AD048240020446973636F6E6E65637465642F
S31500028AE02E00000047415454205365727665722069
S31500028AF054696D656F75742E00000000436F6E6ECB
S31500028B0065637465642E0000CC36002050485920F7
S31500028B1075706461746520726571756573742E0073
S31500028B204741545420436C69656E742054696D65DF
S31500028B306F75742E000000000078C0F34000704785
S31500028B40007800F00100704710B50288502A1CD147
S31500028B50831DC088CA88904217D10969002914D09A
S31500028B60D86800BA20F0FF04D87B04432046884721
S31500028B70064807492246401AC008032101EB004075
S31500028B80BDE8104003A104F0FFBE10BD004803007B
S31500028B90A04703005453532063686172616374658E
S31500028BA0726973746963207772697474656E2025BD
S31500028BB0640000000149085C704700004B2E030068
S31500028BC00649095C4FF0A040D0F81005C84010F0E5
S31500028BD0010000D0012080F0010070474B2E0300F7
S31500028BE02DE9FC410646C0074FF000050ED0104F96
S31500028BF000240122385D009500231146019504F0F8
S31500028C00ABFB641C032CF4D300F046F8B0070DD579
S31500028C10074E0024F61C0022305D03230095114600
S31500028C20019504F099FB641C032CF4D3BDE8FC8186
S31500028C30482E030007490B5C4FF0A041D1F80425EA
S31500028C400120984020EA0203C1F808351040C1F815
S31500028C500C057047482E03000249085C012104F006
S31500028C605CBC0000482E03000249085C002104F0A7
S31500028C7054BC0000482E03000649095C4FF0A04090
S31500028C80D0F80405C84010F0010000D0012080F0A1
S31500028C9001007047482E030010B500242046FFF756
S31500028CA0DBFF641C032CF9D310BD10B5002420464B
S31500028CB0FFF7DAFF641C032CF9D310BD10B5024688
S31500028CC0064B4FF0FF3000215C5C944201D108460E
S31500028CD010BD491C0329F7D310BD00004B2E03001B
S31500028CE070B50C4E0C004FF0000530600BD0012021
S31500028CF000F06AF808B1022004E0002000F064F8EF
S31500028D0000B10B202070706810B9FEF7D9FA05463B
S31500028D10284670BD1023002010B5002000F03EFA50
S31500028D2008B1062806D1012000F038FA08B1062853
S31500028D3000D1002010BD00002DE9F0470D46814606
S31500028D40FFF7BCFF0446032836D2DFF874801B48BF
S31500028D501C4EA8F1040725B3012D0ED0022D2BD1EE
S31500028D6004EB440030444578002D25D0F9680029EB
S31500028D7022D02846BDE8F047084704EB4401755C5B
S31500028D800E44717849B10E4A4FF48041521E8068F2
S31500028D90FEF752FC08B987F80390B17808F8041078
S31500028DA0E2E78068FEF760FC04EB4401314418F800
S31500028DB004008D78A842D7D0BDE8F087502E030074
S31500028DC00423002010290020032801D2FFF7F8BE51
S31500028DD0002070470146224810B5408904292BD04D
S31500028DE0072932D00A291AD0102937D14FF0A040CC
S31500028DF0D0F804154FF480228A43C0F8082501F4FE
S31500028E008021C0F80C1517481749BDE81040401AD2
S31500028E10C008032101EB004014A104F0B1BD0020FB
S31500028E2000F050F808B1FEF7BBFBFFF775FF08B17B
S31500028E30FEF7B6FB33DF02E0132176DF0CE00028F3
S31500028E400CD0BDE81040FEF7ABBBA0F57F41FF3961
S31500028E5004D10A48FEF73EFF0828F0D110BD0000F3
S31500028E604824002000480300A04703006273705F95
S31500028E706576656E745F6B65795F3200D836002061
S31500028E8070B50023032810D20D4D00EB4004012AD1
S31500028E9002D101290CD00022094E00EB40003044D9
S31500028EA061B1012906D0022906D00723184670BDF2
S31500028EB00E30C2B22A55F9E74270F7E78270F5E73B
S31500028EC010290020044A01460020127AD20702D055
S31500028ED0084600F04DB870470023002070B50646DC
S31500028EE01E480024C0E90261B00720D500250122F0
S31500028EF011462846FFF7C4FF6D1C0446032D02D215
S31500028F00002CF4D013E094B940F233320321144812
S31500028F10FEF7C4FA04000AD1FEF7AEFA040006D13F
S31500028F200F48104A0021001FFEF74CFB0446F007CB
S31500028F3012D00120FFF754FE74B909480A4A0021EB
S31500028F400C38FEF73FFB040006D10548074A01210B
S31500028F500838FEF737FB0446204670BD0023002082
S31500028F605C2E0300A9920200BDBC020067740200D7
S31500028F702DE9F05F874C054600266078B34618B1A6
S31500028F8084F801B002F084FE834F4FF001084FF4DB
S31500028F907A694FF4C87A182D61D2DFE805F00C120F
S31500028FA012303F4C61F368716871F77A7A7A7A7A8D
S31500028FB0F0A9CCF0F3F702F06BFE3868FEF754FB2B
S31500028FC0D8E00120FFF758FE00284FF001000BD031
S31500028FD0FFF742FE0020FFF73FFE022D02D14FF4BB
S31500028FE0E1609AE0484698E0FFF73EFE0020FFF770
S31500028FF03BFE022D01D1C8208FE050468DE00120B4
S31500029000FFF73AFE00284FF0010004D0FFF724FED6
S315000290104FF4487081E0FFF727FEECE70120FFF7E7
S315000290202BFE00284FF0010002D0FFF715FED9E70C
S31500029030FFF71AFEE1E70120FFF71EFE00284FF0B8
S31500029040010002D0FFF708FE01E0FFF70DFE2570D2
S3150002905040F6CD4100223868FEF7EEFA064644E0B5
S315000290600120FFF7E7FD257006E025703DE084F854
S3150002907001800220FFF7DEFD002240F26661EAE788
S3150002908084F801800220FFF7D5FD00224FF400513B
S31500029090E1E77868FEF7E8FA0646D5F1110000D056
S315000290A02EB10020FFF7D8FD84F802B01DE001289A
S315000290B016D980B2C8214843C117C90341EA5041B3
S315000290C0C0034FF47A72801841F100015200002366
S315000290D0FDF788F9014600227868FEF7ADFA0646E2
S315000290E00020FFF7C1FD84F802803046BDE8F09FFC
S315000290F00020FFF7C1FD00284FF0010007D0FFF75F
S31500029100ABFD0020FFF7A8FD40F6863005E0FFF72D
S31500029110ABFD0020FFF7A8FD3220410CC0034FF43F
S315000291207A72801841F10001257052000023FDF782
S3150002913059F901468EE70020FFF79EFD48B100204F
S31500029140FFF78AFD0120FFF78FFD002240F233313F
S315000291500DE00120FFF790FD18B10120FFF77CFD1D
S3150002916083E70020FFF780FD002243F2333138689F
S31500029170FEF762FA064678E701E007E002E002F04F
S3150002918087FD72E70120FFF76FFD6EE7FFF78DFDA2
S315000291906BE7000000230020502E0300012109F096
S315000291A0EABA00002DE9F84F0546861C00208DF824
S315000291B0000091460F464FF0010A6846FEF75AFA3A
S315000291C01B4C04F21C4860683860D4E90101194F4F
S315000291D0401A3968081A0EE00121404603F050FA97
S315000291E002F000FF0146404603F04AFAD4E90101C3
S315000291F0401A3968081A401C8642EDD8B9F1000FA8
S3150002920003D0052065F3891002E0062065F39F501E
S3150002921061683A68114004EB8101C86060683044B5
S3150002922060609DF80000FEF749FA5046BDE8F88FE7
S31500029230742E00209423002070B50D4604460A2998
S3150002924002D10D21FFF7F8FFA0682268411CA16038
S315000292501554D4E90101814204D32046BDE8704089
S3150002926003F03FBD70BD000004488168406881423A
S3150002927001D101207047002070470000742E0020A3
S31500029280034630B5074800210478426806E000BF6D
S3150002929002EBC10005789D4203D0491CA142F7DBCF
S315000292A0002030BD1823002000780221FFF744BDBC
S315000292B01CB5044602F0EAFA00236A46092106F0C2
S315000292C0F7FB052805D10348012241792046FEF71E
S315000292D0F9FE1CBDA02200201CB504460020009009
S315000292E042F6A620ADF8000001208DF802000848DB
S315000292F001AA6946006801902046A0DF002805D130
S315000293000448012281792046FEF7DCFE1CBD0000DE
S31500029310E82C0300A022002005494FF0FF3208285E
S3150002932041F8202002D3084480F848207047000004
S31500029330C8350020F0B54FF0FF3512B100230826DC
S3150002934001E008230C260C4C05E000BF54F82370FC
S315000293507F1C04D05B1CB342F8D32846F0BD261806
S315000293605DB286F8305044F82310002AF5D1E11890
S3150002937081F84800F1E70000C83500200249084498
S3150002938090F9300070470000C83500202DE9F043FF
S315000293908146887891B090460C4600B901208DF836
S315000293A03E002088ADF83C0000250095607C6946A9
S315000293B008F030F96E46A07C711C08F02BF9E07BB0
S315000293C000289DF8020002D040F0080001E020F0DB
S315000293D008008DF80200217C11B140F0100001E076
S315000293E020F010008DF80200217B11B140F001003F
S315000293F001E020F001008DF80200217D09B1022171
S3150002940000E0012161F342008DF802001C2102A84E
S31500029410FDF765F8607BC10601D4800617D50E9567
S315000294200EAFE07C791C08F0F5F89DF83800079736
S3150002943020F00F00401C20F0F00010308DF83800AC
S315000294409DF83A0020F00600801C8DF83A00607BF9
S315000294508DF80800A07B8DF80900142109A8FDF7F4
S315000294603EF80FA8CDE90906A088ADF83000A0683D
S3150002947020B1E088ADF82C00A0680D90A06998B3E1
S3150002948001950088ADF81000A06901AD01A94088D8
S31500029490ADF81200A069406806950390A069007BAA
S315000294A008F0B8F8A069691C407B08F0B3F8A06917
S315000294B0807A00289DF8060002D040F0080001E0FC
S315000294C020F008008DF80600A169C97A11B140F0B2
S315000294D0100001E020F010008DF80600A169097A5B
S315000294E019B140F0010002E00DE020F001008DF814
S315000294F00600A169897B09B1022100E0012161F31D
S3150002950042008DF80600E06900B10590434609AABB
S3150002951002A94846AADF11B0BDE8F08370B5044639
S315000295204FF6FF750A462846AC4209D14FF48074BD
S315000295302146104603F061F880B2A0420BD070BDFE
S31500029540FF2CFCD82146104603F047F890F0010F95
S3150002955001D0204670BD284670BD000070B5084C8B
S31500029560050009D010342168002907D00868206058
S31500029570496828468847F6E70834F4E770BD0000D4
S315000295809C350020054A012120B1012805D19170A0
S31500029590FFF7E4BF51700020FAE770479C350020C0
S315000295A010B5D0E90234D1E90220D11AA04101D383
S315000295B0012010BD002010BD73B58CB006460020F8
S315000295C000900D9880B100246D4621460DA803F047
S315000295D039F830B1009805EB400084800098401CB1
S315000295E00090641C142CF0D32C2269463046FCF7FA
S315000295F04FFF0EB070BD2DE9F04117880646B81D23
S3150002960014460D46984202D90C20BDE8F0813188F5
S31500029610072206290AD34FF4486C4FF6FF736145B9
S3150002962001D9994202D17088062801D21046ECE788
S31500029630604501D99842F9D1994203D0984201D0A6
S315000296408142F3D80520E85520881221401C80B2B9
S31500029650208029542088401C80B2208041193088FD
S3150002966008F033FF2188084480B2208041197088AF
S3150002967008F02BFF2188084420800020C5E7FDF76B
S315000296808FBF000038B54A7A0F4B62B100220A72C8
S315000296905969002906D001228DF80020ADF8020092
S315000296A06846884738BD0A7A62B19B684C680246AA
S315000296B019462046FDF7C0FF0028F3D0BDE8384022
S315000296C007F0A0BD5B68F1E754250020F0B585B030
S315000296D016460F4604461D4614220B496846FCF7F9
S315000296E0D7FE0A488DF80870ADF80240ADF80A6058
S315000296F08DF80C50017800222046FEF7E3FC6846FE
S3150002970000F064FD05B0F0BD082E0300E022002043
S3150002971010B5044612B11088002211E04FF6FF7010
S31500029720FAE7030A43EA0023A05C5840C0F3031396
S31500029730584080EA003080B2C3B280EA4310521C1D
S315000297408A42EED310BD0000F0B50C4606461E480E
S315000297501E4987B0401AC708042000EB074033466B
S3150002976022461BA104F017F9002004900590ADF8DB
S31500029770104001900290ADF8124001AA04A93046A9
S3150002978090DF05001DD004F099FD0346012000EB91
S315000297900740044632461A4904F0FDF8BDF8042093
S315000297A012B9BDF8060028B1BDF80630204615A14B
S315000297B004F0F1F8BDF808201AB12046214904F058
S315000297C0E3F807B02846F0BDA0470300A047030010
S315000297D05570646174696E672064617461206C659A
S315000297E06E67746820746F202575206F6E20636F14
S315000297F06E6E656374696F6E20307825782E000070
S31500029800CC3303005468652072657175657374659F
S31500029810642054582F5258207061636B6574206C13
S31500029820656E67746820697320746F6F206C6F6E43
S31500029830672062792025752F2575206F63746574FC
S31500029840732E00001834030070B50446094801213E
S3150002985002F031FFBFF35F8F0025002808D12046B2
S3150002986002F03AFB002803D1BFF35F8F014805607F
S3150002987070BD0000AC2200202DE9FF410C4620B14C
S315000298804FF4064004B0BDE8F0812079002748F283
S31500029890096538B141F61D5601281BD0022826D08B
S315000298A0681DEFE70220207102970397E068019096
S315000298B0694601A807F0EAF850B102988188E1806A
S315000298C000882081BDF80010029807F05DF9D9E7FB
S315000298D02846D7E70A4B6A460021A01D07F08EF8F4
S315000298E038B1074918398F61CF61A842CAD13046CB
S315000298F0C8E703488188019807F046F9F5E70000B2
S315000299004823002070B500240F4D10E0686800EB74
S31500029910C406307804F046FE7178012901D001218F
S3150002992000E000214140307800F0A4FB641C287856
S315000299308442EBDBD5E90401084303D0BDE870405D
S3150002994008F0B0BB70BD00001823002010B500213E
S31500029950024802F0B0FE80F3100010BD90320020E3
S3150002996070B586B0054600788DF800006878002448
S315000299708DF801008DF8044028798DF80500A87944
S315000299808DF806008DF80740287A1C4E8DF80800DF
S31500029990A9883088814227D0401C80B230808DF859
S315000299A002408DF8030000EB40008DF8094015F8DF
S315000299B020108DF80A108DF80C4005EB80008DF80A
S315000299C00B408DF80D4001798DF80E108DF8104080
S315000299D08DF80F408DF81140007A8DF8120013228F
S315000299E069460748FEF75AFEA8883188884203D19D
S315000299F03480002006B070BD0120FBE794220020CF
S31500029A00E024002000B585B001788DF80010417879
S31500029A108DF8011000218DF8021001218DF8031036
S31500029A2081881322090A8DF8041001798DF8051030
S31500029A3081798DF806100189090A8DF80710017AD5
S31500029A408DF808108189090A8DF80910017B8DF8B5
S31500029A500A100169090E8DF80B100169090C8DF8BF
S31500029A600C10018A090A8DF80D10017C8DF80E1072
S31500029A704169090E8DF80F104169090C8DF8101015
S31500029A80818A090A8DF81110007D8DF81200694647
S31500029A900248FEF703FE05B0002000BDE0240020C8
S31500029AA07047000030B58DB0B8B31D4C1D4B006831
S31500029AB020610FCB8DE80F002146684662DF002841
S31500029AC029D1207801258DF83200ADF83050A21C3C
S31500029AD00CA92846A8DF00281DD1202104A8FCF7DE
S31500029AE0FEFC0220ADF8100020788DF81200ADF8C9
S31500029AF016501320ADF814009DF81D008DF8215064
S31500029B0040F012008DF81D008DF823506088A21DCA
S31500029B1004A9FFF73BFC0DB030BDFFE70E20FAE7C4
S31500029B20E0240020A02C03004FF480328A40016812
S31500029B30C1F848230068C0F8082370474FF4A072A2
S31500029B4002EB810189B200F005BB2DE9F041054621
S31500029B500E464FF4A07000EB860081B228684FF4DF
S31500029B608034B440984622F07F47C0F808432868FC
S31500029B70C0F84843286804F0E5F8286800EB860038
S31500029B80C0F840752868C0F84443B8F1000F02D007
S31500029B902868C0F80443BDE8F0810068D0F80405DF
S31500029BA07047000070B54379234C44F8232042796C
S31500029BB0231D03EBC202224C1579204A121BD4083C
S31500029BC02DB10825022000EB04401EA130E00568F5
S31500029BD00A88C5F8082590F904208978002A4FEAF0
S31500029BE0411104DB02F1E02282F8001405E002F0E2
S31500029BF00F0202F1E02282F8141D90F904100122EC
S31500029C00002909DB01F01F0502FA05F54909890059
S31500029C1001F1E021C1F800514179002503EBC101B0
S31500029C200A71417943F83100032000EB04400EA18A
S31500029C3003F0A6FE284670BD14240020184803002F
S31500029C40A047030052544320696E7374616E6365C4
S31500029C5020616C726561647920696E697469616CF0
S31500029C60697A65642E0000005254433A20696E698F
S31500029C707469616C697A65642E00000090F90400CB
S31500029C80002809DB00F01F020121914040098000F3
S31500029C9000F1E020C0F8001270470A46022100F0E7
S31500029CA0DFB94FF4827100F055BA006801210160F4
S31500029CB0704700680121416070472DE9F05F074651
S31500029CC00C464FF4A07000EB84001FFA80FA386845
S31500029CD04FF48036A6409B4622F07F45C0F8486383
S31500029CE03868C0F808633868D0F8048500EB840247
S31500029CF0D2F84095C2F840855146386804F022F8F9
S31500029D00A9EB080020F07F40012806D1102004F0BC
S31500029D1067FB5146386804F015F83868D0F80485B0
S31500029D20C0F84463A5EB080121F07F413868012998
S31500029D3000EB840010D0C0F840553868D0F80415FE
S31500029D406FF07F4C6A1A521E22F07F42ACEB0B0375
S31500029D50934217D362B118E06D1CC0F8405510202B
S31500029D6004F03EFB3868D0F8040540450AD10CE001
S31500029D7000EB84006D1CC0F840553868D0F8040525
S31500029D80884202D00D20BDE8F09F012231463846B6
S31500029D9000F066F90020F6E7024605480549401A32
S31500029DA0C008042101EB004003A103F0EDBD000051
S31500029DB000480300A047030044756D6D792065765F
S31500029DC0656E742068616E646C6572207265636587
S31500029DD069766564206576656E742030782578002C
S31500029DE013460A460021FFF771BC00002DE9F8432D
S31500029DF0104D0F4680461E4691466946286802F077
S31500029E00B5FB040014D01C21FCF769FB012020716C
S31500029E10C4F81490380BC4F80080C4E9026069469D
S31500029E20286802F0C4FB06F061FD0020BDE8F88355
S31500029E300420FBE7F42E030008B500788DF8000035
S31500029E4000208DF80100022269460248FEF772FCE4
S31500029E50C0B208BDF42400207047000030B58DB0B2
S31500029E60B0B31D4C1D4B006820610FCB8DE80F006F
S31500029E702146684662DF002828D1207801258DF820
S31500029E803200ADF83050A21C0CA92846A8DF0028E3
S31500029E901CD1202104A8FCF722FB0220ADF81000F9
S31500029EA02178ADF81650ADF814009DF81D008DF816
S31500029EB0121040F012008DF821508DF81D008DF819
S31500029EC023506088A21D04A9FFF760FA0DB030BDC9
S31500029ED0FFE70E20FAE70000F4240020B02C03006E
S31500029EE010B503780022072B06D2DFE803F005043B
S31500029EF00610202930000A7010BD01230B70038959
S31500029F008B818388CB81C06888600A7410BD022267
S31500029F100A7002898A818288CA81C2688A60807DC3
S31500029F20062802D00020087410BD0120FBE7032298
S31500029F300A70C2888A810289CA81C068886010BD97
S31500029F4004230B70C0888881CA818A6010BD0520EF
S31500029F50087010BD70B5064D0646002455F824104B
S31500029F6009B130468847641C042CF7D370BD000043
S31500029F708C29002030B50446006887B00D468068FB
S31500029F8000281FD018216846FCF7A9FA0195A06897
S31500029F900590207910B1012810D107E001208DF833
S31500029FA0000020690290E068039005E002208DF827
S31500029FB00000E068000302906069049020688168EE
S31500029FC06846884707B030BDF0B585B017460C0025
S31500029FD005463AD0112C38D0082C36D01C481D49DB
S31500029FE0401AC6080D2C11D0204604F067F9024625
S31500029FF0012000EB06402B46174903F0CCFC2A460B
S3150002A0000721684602F066FA02941BE0022000EB82
S3150002A01006402A46114903F0B7FC2A460321684640
S3150002A02002F058FA27B13878C00701D0012000E0C3
S3150002A03002208DF8080000208DF80C0041F2011074
S3150002A040ADF80A00684600F0CFF805B0F0BD000092
S3150002A050E8470300A0470300C03E0300B03D0300EB
S3150002A0600368C3F84413002A02D00068C0F8041338
S3150002A070704700002DE9F84F0E463449804601EB41
S3150002A0805001C007097801D00F0901E001F00F075E
S3150002A0904FF00009424601204946FCF7D4F9DFF8A1
S3150002A0A0B0A004460D46052F4ED2DFE807F0031690
S3150002A0B01B282C00002E47D00121404607F06EFED9
S3150002A0C08DF800906846FDF7D5FA5046D0E904129D
S3150002A0D00C431543CAE9044532E00EB1022114E0ED
S3150002A0E0002112E04EB10321404607F057FE4046DA
S3150002A0F0BDE8F84F012108F0C7BA012105E0002E9C
S3150002A10022D1042101E02EB103214046BDE8F84FD9
S3150002A11007F044BE0021404607F040FE00214046BB
S3150002A12008F0B2FA8DF800906846FDF7A3FA504699
S3150002A130E243D0E904341A4024EA0501CAE90421BB
S3150002A1409DF80000FDF7BAFABDE8F88F60290020F5
S3150002A1501823002010B5006842581AB103F0F2FD28
S3150002A160012010BD002010BD10B50446408801F044
S3150002A1708DFBA080024801682046BDE810400847D2
S3150002A180A822002010B50446808801F0C9FA608032
S3150002A190024801682046BDE810400847B822002060
S3150002A1A02DE9F04107460024064E074D05E000BFA3
S3150002A1B056F8241038468847641CE8788442F7DB50
S3150002A1C0BDE8F08184280020D022002010B5044684
S3150002A1D0408801F05BFBA080024801682046BDE88A
S3150002A1E010400847C82D03000149096808470000C6
S3150002A1F0442E030070B58CB000250595069507958B
S3150002A20009952C4609AB05AA41F62F7141F6017054
S3150002A2100A9500F053FB48B1284905A800F0B6FBA1
S3150002A220002801D0FDF7BCF90CB070BD029502A959
S3150002A23005A8039500F062FB08B1FDF7B1F900210C
S3150002A2401F48039A11E000BF04EB440552F821307F
S3150002A25040F8253002EB810300EB85055E686E60EF
S3150002A260641C9B68A4B2C91CAB60029B5B888B42D0
S3150002A270EADC144D002100BF01EB410205EB82032B
S3150002A28030F8226000EB82029E8156681E61926857
S3150002A290491C5A619029EFDB05A800F0EBFA08B1D8
S3150002A2A0FDF77EF9084809492246401AC0080321EB
S3150002A2B001EB004006A103F067FBB5E70432030099
S3150002A2C00C3B0020CC43002000480300A0470300BB
S3150002A2D0616476206461746120636F756E74203ADE
S3150002A2E025640000F0B585B0002600960196029618
S3150002A2F0039603AB6A4641F62F7141F60170049646
S3150002A30000F0DCFA04001C481C4948F20667A0EB80
S3150002A31001004FEAD0004FF0030101EB00450ED1D8
S3150002A3201749684600F02AFB040008D0BC4204D153
S3150002A3302846144903F024FB01E0FDF731F91248DF
S3150002A3404179491CC9B24171BC4201D0052906D3E3
S3150002A35046710121817028460CA103F011FB2000F1
S3150002A36001D0FDF71DF928464FF4D8720AA103F071
S3150002A3700BFB05B0F0BD000000480300A047030038
S3150002A38004320300A0450300482400206664735F7C
S3150002A390676328290000000064617461203A25641D
S3150002A3A00000000010B588B00024039404940594BC
S3150002A3B0069406AB03AA41F63F7141F60270079472
S3150002A3C000F07CFA20B10D4903A800F0DFFA0FE095
S3150002A3D0019401A903A8029400F090FA08B1FDF7CE
S3150002A3E0DFF8029806490068086103A800F042FAFD
S3150002A3F0002801D0FDF7D4F808B010BD10320300D2
S3150002A40048240020F0B585B00026009601960296F3
S3150002A410039603AB6A4641F63F7141F60270049613
S3150002A42000F04CFA04001948194948F20667A0EBF5
S3150002A43001004FEAD0004FF0030101EB00450ED1B7
S3150002A4401449684600F09AFA040008D0BC4204D1C6
S3150002A4502846114903F094FA01E0FDF7A1F80F48E6
S3150002A4608179491CC9B28171BC4201D0052906D342
S3150002A470867101218170284609A103F081FA200024
S3150002A48001D0FDF78DF805B0F0BD000000480300CD
S3150002A490A047030010320300A04503004824002011
S3150002A4A06664735F676328290000000070B586B092
S3150002A4B0044614216846FCF712F8A0890125A0F586
S3150002A4C04040ADF8040020782F4E062833D2DFE84C
S3150002A4D000F0320303032C4AA08900F047FB30B98F
S3150002A4E0E08943F6FE71A0F54040884223D8A07B5E
S3150002A4F08DF80800207803280FD000208DF8090077
S3150002A500A0680390606850B109208DF80000606869
S3150002A5100490684605F01EFA0DE00120EEE70820D9
S3150002A5208DF800008DF81050F3E7A08900F01EFBAD
S3150002A53008B1E08930B17078002801D005F05EFBE1
S3150002A54006B070BD606830B10B208DF800006068FF
S3150002A55002907570DDE70A208DF80000BDF8040050
S3150002A56005F0F0FBF5E7606848B114208DF80000AD
S3150002A570606802904FF6FF70ADF80400C9E7132039
S3150002A5808DF80000F6E70000BC22002030B4047803
S3150002A5909CB11149114B0322C91AC90802EB0143A6
S3150002A5A0012C12D0032C0ED1416800290BD18289CD
S3150002A5B018460BA130BC03F0E7B94068002802D167
S3150002A5C00D490120087230BC704741680029FAD152
S3150002A5D08289184609A1EDE700480300A047030057
S3150002A5E044656C6574652046696C652049443A0980
S3150002A5F03078253034780000482400203A09307833
S3150002A600253034780000000038B504460F4800783B
S3150002A610B0B1A4F57F40FF380FD0684606F096F831
S3150002A62088B10521017001210171C480684606F0D6
S3150002A6309BF806F04DF9002038BD48F2036038BD9C
S3150002A64048F2016038BD48F2076038BD5023002049
S3150002A6500D4808B5007888B1684606F077F880B1EB
S3150002A66006210170684606F07FF80848017809B1AC
S3150002A6700121C17306F02CF9002008BD48F20160E1
S3150002A68008BD48F2076008BD50230020DC2B0020DD
S3150002A690F0B587B014216846FBF721FF304C2078CD
S3150002A6A018B16846FFF756FC58E0201D01F0E5FF99
S3150002A6B0A0BB40F6F8700168481C02D14FF010208A
S3150002A6C041694FF08050026940694B1C01D100FB81
S3150002A6D002F1244800220161A1F5C041C16022496C
S3150002A6E002F094FC002824D121481C234FF4EE7278
S3150002A6F01E49006801F027FF04F0B8FE050016D0D7
S3150002A700022D14D000270126062D14D005A806F026
S3150002A7101DF898B106700C2D1BD200E01EE0DFE892
S3150002A72005F018101810181718171812141248F2F4
S3150002A7300A6007B0F0BD26706760B2E748F20760AC
S3150002A740F7E7077105E0032100E00221017100E04D
S3150002A750067105A806F008F806F0BAF80020E8E740
S3150002A7605023002078240020042F03009C29002077
S3150002A7707C2E030010B586B01B4800F00BF9FFF7DC
S3150002A78087FF08B1FCF70CFF184C207A002828D066
S3150002A79014216846FBF7A3FE684600F013F908B1D8
S3150002A7A0FCF7FEFE12481349BDF80420401AC10800
S3150002A7B0032000EB014004460FA103F0E5F8BDF8C3
S3150002A7C00620204612A103F0DFF8BDF806000A288B
S3150002A7D005D3FFF73DFF20461BA103F0D1F806B0D3
S3150002A7E010BD41DFD1E700008DA5020048240020FC
S3150002A7F000480300A0470300466F756E6420256477
S3150002A8002076616C6964207265636F7264732E00D0
S3150002A810466F756E642025642064697274792072AD
S3150002A82065636F7264732028726561647920746F40
S3150002A830206265206761726261676520636F6C6C76
S3150002A8406563746564292E00546F6F206D616E799D
S3150002A850206469727479207265636F7264732C2046
S3150002A8606761726261676520636F6C6C65637469A8
S3150002A8706E672E0038B5040014D0694606F006F954
S3150002A880B0B1BDF8000000EB80010B4800EB81007F
S3150002A890C16851B1A17A41B1C168491EC1600020A7
S3150002A8A0A07238BD48F2046038BD48F2056038BD72
S3150002A8B048F2096038BD0000782B00201FB501A9B7
S3150002A8C0684606F09BF804B010BD07B513460A4663
S3150002A8D06946002006F092F80EBD07B513460A46F1
S3150002A8E00021684606F08AF80EBD20B119B100684B
S3150002A8F008600020704748F2046070472DE9FC4169
S3150002A9000E4605002ED06EB301A906F0BFF878B345
S3150002A9106C6800220621B4F8068067882046FEF796
S3150002A920F7FEB900ADF8000001276A4604F10800F7
S3150002A930091DFEF7EDFEADF80000404515D1BDF844
S3150002A94004000D4900EB800001EB800001210C3070
S3150002A95001F096FE346068680C307060AF720020B9
S3150002A960BDE8FC8148F20460FAE748F20C60F7E7BA
S3150002A970FFE748F20960F3E7782B002018B10323BA
S3150002A980002208F03BB848F2046070470223002216
S3150002A99008F034B8094910B50A69042A0AD0084AE7
S3150002A9A0096942F8210005480121103001F068FECC
S3150002A9B0002010BD48F20B6010BD000030230020BD
S3150002A9C08C2900202DE9F84F044624480078D8B196
S3150002A9D0F4B112212046FBF782FD0620DFF88090B3
S3150002A9E02080002504F1100804F10E0A05EB85010A
S3150002A9F009EB810630897189084487B2706804F0D0
S3150002AA00BFFC032807D009E048F20160BDE8F88FD1
S3150002AA1048F20460FAE72088401E20806088F168C8
S3150002AA2008446080208971890844208160893844FD
S3150002AA306081C7F58060A18980B2814200D2A0817F
S3150002AA405346A21D211D2846CDF8008006F0BAF80D
S3150002AA506D1CADB2052DC9D30020D7E750230020C7
S3150002AA60782B002010B588B0002403940494059432
S3150002AA70069406AB03AA41F61F714FF4F8500794E9
S3150002AA80FFF71CFF20B10D4903A8FFF77FFF0FE078
S3150002AA90019401A903A80294FFF730FF08B1FCF75D
S3150002AAA07FFD029806490068C86003A8FFF7E2FE28
S3150002AAB0002801D0FCF774FD08B010BDF831030080
S3150002AAC048240020F0B585B000260096019602962D
S3150002AAD0039603AB6A4641F61F714FF4F85004968B
S3150002AAE0FFF7ECFE04001948194948F20667A0EB85
S3150002AAF001004FEAD0004FF0030101EB00450ED1F1
S3150002AB0014496846FFF73AFF040008D0BC4204D154
S3150002AB102846114902F034FF01E0FCF741FD0F48D7
S3150002AB200179491CC9B20171BC4201D0052906D37B
S3150002AB30067101218170284609A102F021FF200039
S3150002AB4001D0FCF72DFD05B0F0BD00000048030062
S3150002AB50A0470300F8310300A04503004824002063
S3150002AB606664735F676328290000000043F6FE717E
S3150002AB70A0F54040884201D8012070470020704766
S3150002AB8010B504460078182802D1FDF777FA20702E
S3150002AB9010BD10B504460078182802D1FDF76EFAEA
S3150002ABA0207010BD0AB101F058BD01F00BBD70B5A1
S3150002ABB00D460446B0F81414D0F810040122FCF72E
S3150002ABC0A2FF00B1057004F13C0204F5826104F1B2
S3150002ABD0540072DF70BD000070B5134600220546B0
S3150002ABE0112900D10122074C33B12179FDF76AFA06
S3150002ABF000226178284600E06178BDE87040FDF7E2
S3150002AC0061BA0000E8220020F7B517460E0011D0FF
S3150002AC100098002560B100242146684601F012FD25
S3150002AC2018B1A0B23946B0476D1C641C142CF3D37C
S3150002AC302846FEBD0020FEBD10B5002821D0114BCE
S3150002AC400022001F196803E0814203D80A464968B8
S3150002AC500029F9D152B11368841A9C4204D10068C2
S3150002AC6018441060104602E0506000E0186039B1E6
S3150002AC7002680B1A934203D10B681A4402604968B0
S3150002AC80416010BD70240020406805F07FBD0000C1
S3150002AC9010B586B09DF80C0020F00F00401C20F085
S3150002ACA0F00010308DF80C0001A86DDF08B1FCF73A
S3150002ACB077FC0E2001F0ECFA04469DF805000090A0
S3150002ACC09DF8063012A215A12046FBF7D1FF2046B9
S3150002ACD0FBF710FC82B2214603A87CDF08B1FCF721
S3150002ACE05FFC0020049005905021ADF81400ADF8E9
S3150002ACF010104FF4C870A021ADF81600ADF812106E
S3150002AD0004A87ADF002801D0FCF74AFC06B010BD81
S3150002AD106D69616F6D69616F335F00002573253060
S3150002AD20327825303278000070B510B14FF4064003
S3150002AD3070BD1C4C0025E07B08B1E57301E000F014
S3150002AD40A5F8207808282AD2DFE800F02904080CA2
S3150002AD5010291422BDE8704000F026B8BDE8704004
S3150002AD6000F082B8BDE8704000F064B8BDE87040FB
S3150002AD7000F040B80620207060880A4900EB800087
S3150002AD80643901EB80004068BDE8704004F04EBBB8
S3150002AD90072020706560BDE8704004F055BB48F29C
S3150002ADA00E6070BDDC2B00201149F0B48A1C002015
S3150002ADB00346A1F164050C18A67A4EB1A37200EB04
S3150002ADC0800405EB8404E66816B9247C012C0AD0BB
S3150002ADD0401C80B20528EED30B704B804B60F0BC52
S3150002ADE041F61D5070471080F0BC00F03DB80000DF
S3150002ADF0DC2B00200C48418801EB8102A0F16401A2
S3150002AE0001EB8201CA6852B105210170074802218D
S3150002AE108180016800230122054802F05BB8042202
S3150002AE2002704968F6E70000DC2B00205823002058
S3150002AE307824002038B50A49084803240B6842687A
S3150002AE40898803EB810153880470DB1C00201B04F4
S3150002AE5000909B0B034802F091F938BDDC2B0020D1
S3150002AE605823002078240020074910B54888091D78
S3150002AE7005F05CFE18B1BDE81040FFF7DBBFBDE888
S3150002AE801040FFF7B7BF0000DC2B002070B5194C4D
S3150002AE900121207808281AD2DFE800F00419191CCB
S3150002AEA0252929182089134A401C20810020608008
S3150002AEB0E073643A00EB800312F8233043B10023B7
S3150002AEC02518401C80B2AB720528F3D3217070BDE1
S3150002AED00123F5E76068084940888A88C01C104447
S3150002AEE08880022004E000F009F8062000E007202E
S3150002AEF0207070BDDC2B0020582300200A49094827
S3150002AF004988026801EB81030749643901EB830131
S3150002AF104B6803604A6082880A810222828000208E
S3150002AF200874704758230020DC2B00202DE9F043DB
S3150002AF30064680883288DFF85C8185B00746502A4B
S3150002AF4037D010DC5449554B06F10A05A1EB030133
S3150002AF504FEAD1014FF0020303EB0144352A3AD0FE
S3150002AF60362A07D168E0522A02D0542AF9D102E0E1
S3150002AF7000F056FF82E0142249496846FBF788FA38
S3150002AF80ADF80270384600F081FCADF8040000F01E
S3150002AF90FBF90022444698F804103846FDF792F869
S3150002AFA00022E1783846FDF78DF86846FFF7DCF8AF
S3150002AFB064E0307B012861D1B07A01285ED1308904
S3150002AFC0A0F52451023959D10121384600F07CFFFF
S3150002AFD007F0EAFA52E098F80610FDF75BF8002847
S3150002AFE04CD0002298F806103846FDF76BF8F28826
S3150002AFF0B2F5857F17D012B120462AA10BE02A8826
S3150002B000012A03D0204636A102F0BEFC6A88012A34
S3150002B01004D0204641A102F0B7FC04E0A988002230
S3150002B0203846A1DF08B1002125E0012298F8071071
S3150002B0303846FDF747F821E04FF0000998F8071067
S3150002B040FDF728F8D0B1002298F807103846FDF728
S3150002B05039F8F28812B1204612A104E0AA88012A20
S3150002B06004D020462DA102F08FFC03E0A87900B19E
S3150002B070012081464946384606F0F2FE002236494C
S3150002B08098F80200FCF7A0FF05B0BDE8F04306F011
S3150002B09031B90000A0220020A8470300A047030000
S3150002B0A0402D0300556E65787065637465642047AC
S3150002B0B041545420737461747573207768696C65A2
S3150002B0C02067657474696E67204341522063686124
S3150002B0D0722076616C75653A20307825780000001A
S3150002B0E04D756C7469706C6520282564292043416E
S3150002B0F0522063686172616374657269737469630D
S3150002B1007320666F756E642C207573696E67207482
S3150002B11068652066697273742E000000556E657844
S3150002B120706563746564204341522063686172618D
S3150002B1306374657269737469632076616C756520E0
S3150002B1406C656E67746820282564292C2073746FD9
S3150002B150726520302E0000000178020070B50446A8
S3150002B1600078002814D1608800F05AFE65882846C7
S3150002B17000F0CCF928B107480122C1782846FCF72D
S3150002B180A1FF6088FEF794F8BDE8704007F00CBA9C
S3150002B19070BD0000A022002070B5204C002525704D
S3150002B1A0FCF76CFF6070FCF769FFA070FCF766FFA6
S3150002B1B0E070FCF763FF2071FCF760FF6071FCF73B
S3150002B1C05DFFA071FCF75AFFE07162780121182A2F
S3150002B1D018D0A278182A15D0E278182A12D0227925
S3150002B1E0182A0FD06279182A0CD0A279182A09D007
S3150002B1F0182807D004F10C000560BFF35F8F217099
S3150002B200002070BD0648074A801AC00801EB0040BC
S3150002B210054902F0B5FB032070BD0000A022002004
S3150002B220A8470300A0470300C43403007CB50446C4
S3150002B2300078082837D1607A58BB207A1C4E4FF620
S3150002B240FF75012811D0072802D008282BD121E04A
S3150002B250A08800F065FA0446A84224D0012100F035
S3150002B26033FE2046FEF724F81DE0A0886A46012137
S3150002B27004F092FA68B90198007850B1A08800F0FB
S3150002B2804FFAA8420FD00122F178FCF71BFF06F015
S3150002B29031F808E0F068012805D1BFF35F8F044951
S3150002B2A000200C310860BDE87C4007F07DB9000043
S3150002B2B0A022002010B50B48FEF76FFC094A083A97
S3150002B2C0D2E90434C018D2E9063244F10001C31AA5
S3150002B2D071EB020204D24FF08072801841F1000134
S3150002B2E010BD0000F82300201CB503F065F908B173
S3150002B2F0FCF756F9114C124A694620680090002064
S3150002B3008DF80100142003F0E7F808B1FCF748F9BC
S3150002B3106068019003208DF805000A4A01A91F20E2
S3150002B32003F0DAF808B1FCF73BF901211F2003F01C
S3150002B33083F805490C20C1F800071CBDCC31030077
S3150002B340EDB80200490603007800005010B5C0B2FD
S3150002B350FDF796FF0446007803F024F9014660786B
S3150002B360012801D0012000E0002090EA010F08D058
S3150002B3700449D1E90401084303D1BDE8104006F0AF
S3150002B38091BE10BD182300201CB5054AD2E902124F
S3150002B390CDE900120022694604F0C4FB1CBD000080
S3150002B3A0582D030003484FF6FF7181800121017079
S3150002B3B000207047B02200202DE9FC41804600F0B3
S3150002B3C065FA002403250127A0F57F412646FF39A9
S3150002B3D008D06A46082104F0DFF918B90198841DDD
S3150002B3E08688056832462B4621464046B1DF042848
S3150002B3F004D0082804D00B2808D002E0112000E06F
S3150002B4000020002F00D10B20BDE8FC810027A807F1
S3150002B41001D50125E6E7344303D000242646032559
S3150002B420E0E7064806494246401AC008012101EBF8
S3150002B4300040044902F0A8FAE5E70000B04703001D
S3150002B440A04703008C3703002DE9FC41804600F03B
S3150002B4501DFAA0F57F410646FF390ED001252A4680
S3150002B4606D1C0027ADB26B460821304604F0DEF9AA
S3150002B470040006D0072C33D033E043F20200BDE8C5
S3150002B480FC81019903230A1D0B604046891DB2DF28
S3150002B490040004D00C2C09D0052C09D009E0324650
S3150002B4A00821104604F03AFA04461AE0012700E0A1
S3150002B4B000240821304604F027FA70B102F0FEFE9D
S3150002B4C00346094809493246401AC008012101EBE0
S3150002B4D00040074902F05FFA0324002FBFD100E0C3
S3150002B4E00C242046CBE70000B0470300A047030028
S3150002B4F00C37030004488088A0F57F41FF3901D04C
S3150002B50005F002BF70470000B02200200EB502A966
