S31500026000485C0020C1630200C9630200CB63020040
S31500026010CD630200CF630200D163020000000000DC
S31500026020000000000000000000000000D363020030
S31500026030D563020000000000D7630200D9630200A4
S315000260404D660200DB630200156B02002567020043
S31500026050DB630200DB630200A9650200DB63020068
S31500026060DB630200DB630200DB630200A56602005B
S31500026070DB630200DB630200DB630200DB63020018
S31500026080DB630200B5660200DB630200DB6302002B
S31500026090DB630200DB63020079670200DB63020056
S315000260A0DB630200DB630200DB630200DB630200E8
S315000260B0DB630200DB630200000000000000000058
S315000260C0DB630200DB630200DB630200DB630200C8
S315000260D0DB630200DB630200DB63020000000000F8
S315000260E000000000000000000000000000000000A8
S315000260F00000000000000000000000000000000098
S315000261000000000000000000000000000000000087
S315000261100000000000000000000000000000000077
S315000261200000000000000000000000000000000067
S315000261300000000000000000000000000000000057
S315000261400000000000000000000000000000000047
S315000261500000000000000000000000000000000037
S315000261600000000000000000000000000000000027
S315000261700000000000000000000000000000000017
S315000261800000000000000000000000000000000007
S3150002619000000000000000000000000000000000F7
S315000261A000000000000000000000000000000000E7
S315000261B000000000000000000000000000000000D7
S315000261C000000000000000000000000000000000C7
S315000261D000000000000000000000000000000000B7
S315000261E000000000000000000000000000000000A7
S315000261F00000000000000000000000000000000097
S31500026200DFF80CD000F092F900480047C1B6020050
S31500026210485C002030B4044654E8000F0D4644E8BA
S315000262200053002BF8D1156030BC704730B40446D9
S3150002623054E8000F40EA010544E80053002BF7D169
S31500026240156030BC704730B4044654E8000F00EACB
S31500026250010544E80053002BF7D1156030BC7047A6
S3150002626030B4044654E8000F80EA010544E80053BE
S31500026270002BF7D1156030BC704730B4044654E8A1
S31500026280000F00EB010544E80053002BF7D115601F
S3150002629030BC704730B4044654E8000FA0EB010549
S315000262A044E80053002BF7D1156030BC704770B438
S315000262B004464FF0000054E8006F0D68AE4207BF77
S315000262C044E80023012044E800630E60002B1CBF53
S315000262D00020F0E770BC704730B4044654E8000F63
S315000262E088422CBF451A054644E80053002BF5D1D7
S315000262F0156030BC7047000030B450E8012F93B2ED
S31500026300C48923448489A34228BF1B1B0489A34250
S3150002631002BFBFF32F8F002007E0C3EA020340E863
S315000263200134002CE9D14FF001000A6030BC7047FD
S3150002633050E8012FC2EA024240E801210029F7D1C2
S31500026340704730B450E8022F1FFAA2F3C488A34262
S3150002635002BFBFF32F8F00200DE0C4892344848936
S31500026360A34228BF1B1BC2EA034340E80234002CA7
S31500026370E8D14FF001000A6030BC704750E8022FA6
S31500026380C2EA224240E802210029F7D170470346B9
S3150002639053E8022FD988B2EB324F4FF0000017BFF5
S315000263A092B241EA014142EA014104E05A68B2EB83
S315000263B0324F08BF012043E80212002AE8D1704793
S315000263C00648804706480047FEE7FEE7FEE7FEE787
S315000263D0FEE7FEE7FEE7FEE7FEE7FEE77D67020071
S315000263E0016202002DE9F05F0546002092469B46B7
S315000263F088460646814640241BE0284641464746D3
S31500026400224600F082F853465A46C01A914110D3EA
S3150002641011461846224600F016F82D1A67EB0108B7
S315000264204F4622460120002100F00DF817EB000925
S315000264304E41201EA4F10104DFDC484631462A46BD
S315000264404346BDE8F09F202A04DB203A00FA02F117
S31500026450002070479140C2F1200320FA03F319434A
S3150002646090407047004870479837030010B5431AAA
S31500026470934209D28318881803E010F8011D03F825
S31500026480011D521EF9D210BD40EA01039B0703D03B
S3150002649009E008C9121F08C0042AFAD203E011F85B
S315000264A0013B00F8013B521EF9D210BDD2B201E007
S315000264B000F8012B491EFBD270470022F6E710B501
S315000264C013460A4604461946FFF7F0FF204610BD5A
S315000264D0421C10F8011B0029FBD1801A704730B507
S315000264E004460020034600E05B1C934203D2E05CB4
S315000264F0CD5C401BF8D030BD034611F8012B00F8E5
S31500026500012B002AF9D118467047202A04DB203ACB
S3150002651021FA02F00021704721FA02F3D040C2F1BB
S31500026520200291400843194670470000064C074D69
S3150002653006E0E06840F0010394E80700984710344B
S31500026540AC42F6D3FFF760FEBC4B0300DC4B030004
S3150002655070B58C1810F8015B15F0070301D110F81D
S31500026560013B2A1106D110F8012B03E010F8016B4A
S3150002657001F8016B5B1EF9D12B0705D40023521ECD
S315000265800DD401F8013BFAE710F8013BCB1A921C35
S3150002659003E013F8015B01F8015B521EF9D5A14233
S315000265A0D8D3002070BD00002DE9F8430025DFF89E
S315000265B094804FF4807601242F460095304606F0EB
S315000265C00DFA38B1D8F80403204203D0304606F05B
S315000265D0FBF92543361D64007F1CB6B2082FEDD3A6
S315000265E04FF4BE74204606F0F9F948B1204606F08B
S315000265F0EBF945F000456A460121002006F09AF9BA
S3150002660015F0FF0F16D0012600242E420ED008EBFD
S315000266108401D1F81005D1F81015C0F304200A4AF6
S31500026620C1F3014152F8242002B190477600641C5E
S31500026630082CEAD3002D02DA684609F007F9BDE80C
S31500026640F883000000600040DC36002070B54FF48D
S315000266508076304605F0C2FC114CB50560B1304675
S3150002666005F0C3FC0120C5F80803607920B90120B2
S3150002667060712168002088474FF48276304605F023
S31500026680ADFC00280AD0304605F0AFFC0220C5F862
S3150002669008032168BDE870400120084770BD00006C
S315000266A04024002003220021014804F0CBBB000055
S315000266B000B0004002490248091F096800680847FD
S315000266C02824002000F02CBA70B50E46144900EBBF
S315000266D0400001EBC0051446E86A183520B10128CE
S315000266E00FD0022805D113E0284600F04DFAA04249
S315000266F001D2002411E022463146284600F07CFAF7
S315000267000BE0284600F040FAA042F4D20446F2E733
S315000267103146284600F043FA0446204670BD000082
S3150002672028340020F8B51248124E04464FF48C71F4
S3150002673006F0D2FF00281AD00025C4F81851D4F862
S3150002674018010090F07F3446FF2806D0A17F11B1D0
S3150002675006F006F901E006F019F965772572D4E923
S31500026760002101B004F10800BDE8F0401047F8BD71
S31500026770003000403837002006F0F0BEF0B5D34AAC
S31500026780D3494FF080541368D4F830010978D4F80D
S315000267903421451CC1F3031107D08446164601274E
S315000267A00025BCF1060F04D013E003F0FF0C0E46E1
S315000267B0F5E7032E05D0042E03D0052E01D0062EB2
S315000267C007D1B4F82463DFF80CC3C6F30426CCF869
S315000267D00060DEB2062E06D1032904D1DFF8FCC220
S315000267E0BD4ECCF87460461C06D084464FEA0206BB
S315000267F0BCF1060F04D013E003F0FF0C0E46F7E7D8
S31500026800032E05D0042E03D0052E01D0062E07D165
S31500026810D4F84462DFF8C8C2C6F34236CCF8006048
S31500026820DEB2062E08D1032906D1AE4ED6F800C036
S315000268302CF0807CC6F800C0461C05D0844616465D
S31500026840BCF1060F04D014E003F0FF0C0E46F7E786
S31500026850032E05D0042E03D0052E01D0062E08D114
S315000268604FF08046C6F80C51C6F810519C4E361FA2
S315000268703560DEB2062E08D1032906D1DFF860C2E2
S3150002688003260CF1640CCCF80060DEB2062E11D1A0
S3150002689003290FD1DFF850C20526CCF80060924ECC
S315000268A078363760904E083635600CF1040C3F2678
S315000268B0CCF80060461C05D084461646BCF1060F8D
S315000268C004D087E003F0FF0C0E46F7E7032E7CD0D8
S315000268D0042E7FD0052E01D0062E7BD1834E36683C
S315000268E0DFF80CC2CCF80060804E361D36680CF11B
S315000268F0040CCCF800607D4E083636680CF1040CA8
S31500026900CCF80060794E0C3636680CF1040CCCF8E3
S315000269100060764E103636680CF1040CCCF8006036
S31500026920724E143636680CF1040CCCF800606F4EC9
S3150002693018363668DFF8B8C10CF1200CCCF80060C6
S315000269406A4E1C3636680CF1040CCCF80060674EB1
S31500026950203636680CF1040CCCF80060634E2436FF
S3150002696036680CF1040CCCF80060604E28363668A6
S315000269700CF1040CCCF800605C4E2C3636680CF137
S31500026980040CCCF80060594E30363668DFF860C128
S315000269900CF1400CCCF80060544E343636680CF1DB
S315000269A0040CCCF80060514E383636680CF1040CF3
S315000269B0CCF800604D4E3C3636680CF1040CCCF82F
S315000269C000604A4E4036366800E003E00CF1040CE3
S315000269D0CCF80060461C05D084461646BCF1060F6C
S315000269E004D011E003F0FF0C0E46F7E7032E05D0A4
S315000269F0042E03D0052E01D0062E05D1D4F8584216
S31500026A003C4E04F04F043460441C04D00346114645
S31500026A10062B02D010E0DBB2FAE7032905D00429DF
S31500026A2003D0052901D0062906D133490B68DB07B5
S31500026A3002D06FF001030B6006280CD1032A0AD09C
S31500026A40042A08D0052A06D0062A04D12B48016852
S31500026A5041F48061016023487438016841F4700191
S31500026A600160BFF34F8FBFF36F8F4FF01021D1F844
S31500026A700002002803DBD1F80402002822DA204AA9
S31500026A80176020480368002BFCD01523C1F800329A
S31500026A900468002CFCD0C1F8043201680029FCD03D
S31500026AA0156001680029FCD0BFF34F8F0D48F038FE
S31500026AB00168154A01F4E06111430160BFF34F8F8B
S31500026AC000BFFDE7124911480860F0BDE00F00F073
S31500026AD0E80F00F0403501400DF0ADBA00C00740A6
S31500026AE03C050040FCED00E0105600400404001096
S31500026AF020C50040E40E0040000400403C17004060
S31500026B0004E5014000E401400400FA050090D003C8
S31500026B106424002001480068004700005024002039
S31500026B2010B5124C02202061606111A0A06104F12F
S31500026B307800E0614FF4007020620020A06260627B
S31500026B400BA1A164E06204F51E71E1641021A06547
S31500026B50C4E91410E06509A1E01DFFF7CDFC08A108
S31500026B602046FFF7C9FC2020A07110BD2834002062
S31500026B705465726D696E616C0000000052545400D7
S31500026B8053454747455200000269C1688A4203D805
S31500026B908068401A104400E0501A401E70472DE9E2
S31500026BA0F047C4681746894606464FF00008306922
S31500026BB0A04201D9051B02E0B168201A0D1AB0687D
S31500026BC06D1E001BA84200D80546BD4200D33D46B5
S31500026BD070682A4620444946FFF748FCB0687F1B86
S31500026BE02C44A844A944A04200D10024F460002FFA
S31500026BF0DDD14046BDE8F0872DE9F04104468846DE
S31500026C00D4E90207C51BE168606816460844B54226
S31500026C1006D94146FFF72AFCB819E060BDE8F081C3
S31500026C202A464146FFF722FC761B08EB050132464F
S31500026C306068FFF71BFCE660F0E700000FB4084B44
S31500026C4010B504A902AA039800F02EF8044602A978
S31500026C50002000F05AFA204610BC5DF814FB000032
S31500026C600B71020002E008C8121F08C1002AFAD1FD
S31500026C7070477047002001E001C1121F002AFBD1B4
S31500026C80704700000121202803DA814005480140AF
S31500026C9003E0402802DA2038814009B1012070471A
S31500026CA000207047FC06FFBD2DE9FF4F8DB00F4651
S31500026CB00546002606E025280BD0DDE90F1290478F
S31500026CC06D1C761C28780028F5D111B03046BDE837
S31500026CD0F08F0024A246A1460122EC4900E00443BB
S31500026CE015F8013F203B02FA03F00842F7D1287853
S31500026CF02A2810D06FF02F022878A0F13001092936
S31500026D0014D80AEB8A0102EB410144F0020400EBBB
S31500026D10010A6D1CF0E701CF5FEA000A03D544F4CD
S31500026D200054CAF1000A44F002046D1C28782E2889
S31500026D3017D115F8010F44F004042A280ED06FF07B
S31500026D402F022878A0F1300109290AD809EB890116
S31500026D5002EB410100EB01096D1CF2E757F8049BB7
S31500026D606D1C28786C280FD006DC4C2817D06828B2
S31500026D700DD06A2814D104E0742810D07A280FD1D5
S31500026D800DE044F400140AE044F4801401E044F4F3
S31500026D9040146978814202D104F580146D1C6D1C81
S31500026DA02A786E2A1FD00CDC632A31D004DC002A32
S31500026DB08BD0582A11D1A3E0642A68D0692A0CD153
S31500026DC065E0732A2ED004DC6F2A73D0702A04D1B0
S31500026DD09BE0752A6FD0782A6ED01046DDE90F1235
S31500026DE09047761C50E1C4F30250022806D00328CD
S31500026DF009D0042801CF09D0066045E101CFF11779
S31500026E00C0E9006140E101CF06803DE106703BE149
S31500026E1017F8040B8DF8000000208DF80100EB46F0
S31500026E20012003E057F804BB4FF0FF3061074FF033
S31500026E30000102D40DE008F10101884649450FDA46
S31500026E408045F8DB1BF808100029F4D108E008F1A8
S31500026E50010188468142FADB1BF808100029F6D1A7
S31500026E60DDE90F23AAEB08008146214600F036F938
S31500026E70304400EB080604E0DDE90F121BF8010BB3
S31500026E809047B8F10108F7D221464846F7E00A21B1
S31500026E90C4F302534FF0000B0891022B04D001CF2A
S31500026EA0C117032B09D00AE0FF1D27F00707F7E8F1
S31500026EB0020108E032E01FE020E000B2C117042B15
S31500026EC001D140B2C117031E71F1000307DA4FF078
S31500026ED0000CD0EB0C006CEB01012D2302E0230524
S31500026EE004D52B238DF82430012303E0E30701D0D8
S31500026EF02023F7E7984658E00A2110E010210EE019
S31500026F0010204FF0000B08900CE010214FF0000B00
S31500026F1044F004044FF00809089103E008214FF0F9
S31500026F20000B0891C4F30253022B04D001CF0021B7
S31500026F30032B06D006E0FF1D27F00707F7E802013C
S31500026F4003E080B2042B00D1C0B24FF00008230741
S31500026F502BD5702A07D0DDF820C08CF0100C5CEA25
S31500026F600B0C05D00EE040238DF82430012308E0F7
S31500026F7050EA010306D030238DF824308DF82520FF
S31500026F8002239846DDF820C08CF0080C5CEA0B0C54
S31500026F900BD150EA010301D1630706D530238DF8E0
S31500026FA024304FF00108A9F10109582A04D038A269
S31500026FB00B9208AA0A920BE03AA2F9E75B46089AF4
S31500026FC0FFF710FA0B9B9B5C0A9A521E0A921370E9
S31500026FD050EA0102F2D10A98ADEB000000F1200B53
S31500026FE0600702D524F4803401E04FF00109D94547
S31500026FF002DDA9EB0B0000E0002000EB0B0141448F
S315000270000890AAEB010AE00306D4DDE90F23214624
S31500027010504600F063F806444FF0000908E009A95B
S3150002702011F80900DDE90F12904709F10109761CF2
S31500027030C145F4DBE0030CD5DDE90F2321465046BA
S3150002704000F04CF8064404E0DDE90F1230209047C8
S31500027050761C0899481E08900029F5DC08E00A9873
S315000270600A990078491C0A91DDE90F129047761CAD
S31500027070BBF10001ABF1010BF1DC21465046DDE923
S315000270800F2300F019F806446D1C1BE609280100BF
S315000270903031323334353637383961626364656686
S315000270A00000000030313233343536373839414248
S315000270B043444546000000002DE9F0410446002500
S315000270C01E461746880404D405E039462020B047F8
S315000270D06D1C641EF9D52846BDE8F0812DE9F04104
S315000270E0044600251E469046C80301D5302700E017
S315000270F02027880404D505E041463846B0476D1C72
S31500027100641EF9D52846BDE8F0810A68531C0B6057
S315000271101070704710B560B159B102780B785208F9
S31500027120B2EB530F05D10622401C491CFFF7D7F9D3
S3150002713008B1002010BD012010BD800701D000203B
S31500027140704701207047C3688B4206D81144006914
S31500027150491E814201D8012070470020704790F8ED
S315000271602400012801D01F207047EE20704710B579
S3150002717001220221002001F073FC08B1072818D170
S3150002718007220221012001F06BFC08B1072810D169
S3150002719000210A22084601F063FC08B1072808D13B
S315000271A010220121022001F05BFC08B1072800D160
S315000271B0002010BD00B5B3B0AC216846FFF77DF9DB
S315000271C030A86DDF08B100F03DF900202EA930AAE3
S315000271D0C0F1050313445B780B54401C0628F7DB09
S315000271E033202D91ADF8AC00022106208DF8001057
S315000271F0ADF8B0002BA9099100218DF802108DF887
S31500027200030001208DF87C004FF4F070229044F2C6
S3150002721050602390074829906946074800F0FBFB17
S3150002722008B100F00FF90121034800F0F1FB33B079
S3150002723000BD000001E10200103800201149124A87
S3150002724010B5891ACC0868B1032000EB04400FA1DF
S3150002725005F0E2FD08F08AFA002812D0BDE81040D7
S3150002726000F0F0B803210D4800F0A3FC08B100F0CD
S31500027270E9F8042000EB0440BDE8104008A105F03F
S31500027280CBBD10BD5C4C0300FC4B03004572617321
S315000272906520626F6E6473210000000010380020C2
S315000272A04164766572746973696E6720737461727C
S315000272B07465642E0000000070B58CB015460E464B
S315000272C000236C46C3F10F01415CE1545B1C102B99
S315000272D0F8D30D2104F11000FFF7EFF80020C0F1FA
S315000272E00F02315C2244401C11740328F7D368460E
S315000272F046DF0020C0F10F01214491F820102954E5
S31500027300401C0328F6D30CB070BD002001F08CBAE5
S315000273100149C97800F010BEEC22002070B50024A5
S31500027320064D06E06868012110F8340006F06AFA94
S31500027330641C28788442F5D3002070BD28230020DF
S31500027340F8B516460C4605460A2A01D20720F8BDAC
S3150002735006F052FB18B906F015FB0028F7D1134FB9
S31500027360102113487D603C70BE60FFF7A6F800202E
S31500027370C7E904000F4E0DE005EBC4003168009129
S3150002738081788DF8011000780B4A694606F08AFA70
S315000273900028DCD1641EE4B2EED2BDE8F84005480E
S315000273A00021064A001D00F05FB8000028230020D5
S315000273B0002C00209433030031A6020049940200F7
S315000273C072B605F0C9FD00BF05F00AFC0028FBD124
S315000273D011481249401AC408012000EB044010A1CA
S315000273E005F01AFD11480068C00700D000BE022051
S315000273F000EB04400EA105F00FFDBFF34F8F0B48C3
S31500027400E43801680E4A01F4E06111430160BFF3FA
S315000274104F8F00BFFDE700005C4C0300FC4B0300EE
S31500027420466174616C206572726F7200F0ED00E065
S3150002743053797374656D207265736574000000007C
S315000274400400FA050EB500210091CDE901106A4645
S3150002745044F20100FFF7B4FF0EBD0000014802F03E
S315000274609EB80000082400203AB100680129426152
S3150002747000D00021016100207047072070470000FC
S3150002748038B5114808235822416800910F4900680F
S3150002749004F081FB002815D10D4A69460D4802F019
S315000274A083F804000ED101210A4802F0F8F80123FC
S315000274B0094A1946074802F04AF8064901200839DE
S315000274C00870204638BD0000F0350300C4330020A2
S315000274D0F90B030008240020FFFF7F0070B5044665
S315000274E0007F0D4608B1002070BDA26103F080F84E
S315000274F0401941F10001C4E90201206900B1256188
S315000275002146BDE8704000200AF07CBF01460020FB
S31500027510087701200AF076BF30B5EFF3108172B614
S315000275200D4A9468012324B10370002900D162B682
S3150002753030BD93604FF0E023D3F88051074C2540CD
S315000275401560C3F88041D3F8844154605A17C3F8D2
S31500027550842100220270E8E71C340020FC06FFBDED
S315000275600B498A68002A11D000280FD1EFF3108048
S3150002757072B60B684FF0E022C2F800314B68C2F8CF
S31500027580043100228A60002800D162B670470000EA
S315000275901C3400202DE9F041064608680C46411CC1
S315000275A04FF0A0474FF0010506D005FA00F1C7F8E3
S315000275B00815206805F098F96068411C02D0002180
S315000275C005F076F93168A069C1F82405607D227D4F
S315000275D031681043C1F86C05D4E900123068C0F86E
S315000275E01425C0F80C15207D012815D1A068411C70
S315000275F002D0002105F05CF9E068411C05D0854007
S31500027600C7F80855E06805F06FF9D4E90212306848
S31500027610C0F80825C0F81015BDE8F0812DE9F04143
S31500027620064608680C46411C4FF0A0474FF001057C
S3150002763006D005FA00F1C7F80815206805F05EF9CC
S315000276406068411C02D0002105F03BF93168A0694F
S31500027650C1F82405607D217D32680843C2F86C05B5
S31500027660D4E900123068C0F80C15C0F81425207D44
S31500027670012815D1A068411C02D0002105F021F98C
S31500027680E068411C05D08540C7F80855E06805F05A
S3150002769035F9D4E902123068C0F80825C0F8101589
S315000276A0BDE8F08103F0D8BE2DE9F0478146058892
S315000276B04A484FF000088AB001784246284600F050
S315000276C053FC99F80500400701D4002176E005F540
S315000276D08077B8B205AB0122072107F029FA040028
S315000276E03F48404A4FF00101A0EB02004FEAD000AA
S315000276F001EB00460AD0204606F010F80246304654
S315000277002B46394905F093FB214629E0284603F02A
S315000277102FFA4FF6FF71044688422BD18A46069805
S3150002772003F090F90446504510D00146284603F06E
S31500027730FFF92846FFF7ECFDE0B9284609F012FDED
S315000277402846FFF7E5FD0028BFD013E007F0C6FB89
S315000277500446504508D1304624A105F05DFB0421BC
S31500027760284609F02DFDB0E70146284603F0E0F968
S315000277704FF00108B8B22246072107F051FA070076
S315000277801BD0862F1ED005F0C9FF024630462B4677
S315000277902349009405F053FB3946284609F010FDAB
S315000277A00021484607F0BCF8B8F1000F02D0204687
S315000277B003F0C8F90AB0BDE8F0870121484607F090
S315000277C0AFF8F7E7142217496846FEF74FFEADF801
S315000277D00250684602F0C8F9EFE70000EC220020EA
S315000277E03C4C0300FC4B0300C0400300436F756C26
S315000277F064206E6F7420616C6C6F63617465206EB9
S31500027800657720706565725F696420666F722069AC
S315000278106E636F6D696E6720626F6E642E00000084
S31500027820DC410300143303002DE9FC4700251788C9
S315000278300646158090F82D001446894630B13A4620
S315000278402146484600F0B6FB051E09D1B0784FF036
S315000278500C0A18B32088C846001DB84202D9504601
S31500027860BDE8FC87684679DF0028F9D12088032124
S3150002787008F8001020881921401C80B2208008F8E0
S3150002788000102088401C80B2208000EB0801BDF861
S3150002789000000AF0F6FF218808442080F0780222D0
S315000278A0C8B1218896F9033001F1030C4846BC455C
S315000278B0D5D8425421884FF0010C491C89B2218047
S315000278C000F801C02188491C89B2218009F80130DB
S315000278D02088401C20807068B8B1218890F9003059
S315000278E001F1030C4846BC45B9D8425421880A2204
S315000278F0491C89B2218042542188491C89B22180BF
S3150002790009F801302088401C2080308950B1CDE929
S3150002791000474B460622022106F108000BF0A0F8AA
S31500027920051E9DD1308A50B1CDE900474B4607224C
S31500027930032106F110000BF093F8051E90D1308B4F
S3150002794050B1CDE900474B461522142106F1180025
S315000279500BF086F8051E83D1306A30B13B462246CB
S31500027960494601F006FC051EDBD1706A30B13B4682
S315000279702246494603F0EAFF051ED2D196F82C00AC
S3150002798038B13B4622464946304609F07DFD051E82
S31500027990C7D1307838B13B4622464946304604F0D4
S315000279A063F8051EBDD128465AE718B504460020DD
S315000279B0ADF8000013466A46204600F006F8002895
S315000279C002D0BDF80000204418BD70B5E0B1DAB1AE
S315000279D0002402E0045D2C44A4B2651C8D4206D24A
S315000279E01688A642F6D8061976789E42F2D18C42BD
S315000279F00AD2A31C005D9BB200B1401E0004000C1B
S31500027A0002D01C188C4201D9002070BD138070BDB3
S31500027A1080F8301070472DE9F0410D00044606D07B
S31500027A202CB195F87A000026012803D006E00E2034
S31500027A30BDE8F08195F89800012829D0D5F8A00074
S31500027A40042825D0D5F89C00042821D04FF001083F
S31500027A50A6702C2205F17801201DFEF707FD84F899
S31500027A603060D5F8A4006063D5F8A800A0634FF68D
S31500027A70FF70A4F8240404F58260C4F82004C4F854
S31500027A802664A4F82A6484F82C64207810B104E0F1
S31500027A900720CDE7FF2084F8540004F1550720465D
S31500027AA0C4F81074FFF75BFBA4F8140404F2144242
S31500027AB039462846FFF7B8FE0028B9D104F231202C
S31500027AC0C4F818042046FFF74AFBA4F81C0404F283
S31500027AD01C4205F13C00D4F81814FFF7A5FE002855
S31500027AE0A6D184F85180208BA4F8480084F83C8003
S31500027AF0266484F85060606900216064454604F19A
S31500027B003C02781E72DF002892D1257090E710B5EC
S31500027B100288102A1BD0112A20D0262A1DD1007ACB
S31500027B200C46012801D0022817D1A0780521401C55
S31500027B30B0FBF1F201FB1201204600F03AF80028F0
S31500027B400BD0A16B002908D0BDE810400847C27BC4
S31500027B50012A02D18088A1F8240410BD0C46002116
S31500027B6084F82E148088B4F824148842F5D120793A
S31500027B700028F2D10121DFE710B5044690F854003F
S31500027B8074DF012084F82E04002084F8300484F87F
S31500027B9050000621204602F0D0F9002808D1A1782B
S31500027BA0204600F006F810B1A16B01B1884700200B
S31500027BB010BD2DE9F05F044600780F4698B1A77014
S31500027BC00025C4F82654A4F82A5484F82C54A07923
S31500027BD0012608B1012F09D0E07980B1012F05D025
S31500027BE0022F03D00BE00820BDE8F09F616B21B1A4
S31500027BF084F82D640820884701E084F82D5404F2A5
S31500027C00274100200A5C0AB1304603E0401C0628E0
S31500027C10F8D300204FF002084FF0030B012F06D0D5
S31500027C20022F0CD0032F0FD0042F15D110E0A1790B
S31500027C3029B194F8241011B908B130460DE0E17962
S31500027C4011B108B1404608E0207A08B1584604E06E
S31500027C50607A08B1042000E02846A070616B41B149
S31500027C60032801D0042804D1607910B194F82E04B7
S31500027C7098B184F82F5404F13C0018210746FEF708
S31500027C801CFC84F83C6004F12C0007F059FA58B148
S31500027C9094F82C0084F8510008E084F8305484F8F3
S31500027CA02F6407208847E6E784F8516094F8240099
S31500027CB058B104F1280007F043FA20B194F82800DD
S31500027CC084F8520001E084F8526084F85050A27899
S31500027CD004F2264104F582694FF0060A052A64D2A7
S31500027CE0DFE802F07C030F22420084F83160C4F818
S31500027CF02054C4E9101584F83C808020A4F848007A
S31500027D0055E084F8318094F82420384612B10722CF
S31500027D10027001E080F800B0228A8281C4F8205401
S31500027D204160E168B96042E06069B860208BB88161
S31500027D3094F824003D460028204602D084F83CA050
S31500027D4001E084F83C600AF057FE50B185F81480D1
S31500027D500421204602F0F1F838BB052184F83110DF
S31500027D6021E084F831B01EE0E069B860208CB88169
S31500027D7094F824003D460028204602D084F83CA010
S31500027D8001E084F83C600AF037FE48B185F81480B9
S31500027D900421204602F0D1F838B984F831A002E075
S31500027DA0042084F83100C4F82094A07878B13A46C9
S31500027DB004F15400D4F8201472DF00287FF414AFC3
S31500027DC094F8301094F8540073DF0028F6D1616BF2
S31500027DD011B194F831008847002005E784F8315044
S31500027DE0F5E7000070B5040012D001461C221448C3
S31500027DF0FEF73CFB1248134D0560206850B17ADF4E
S31500027E00002806D12068016829604068686005E09C
S31500027E100E2070BD0B487BDF0028FAD108484FF6CA
S31500027E20FF711438084A20F8041B054934390160E9
S31500027E300021FFF719FB0028EBD0032070BD0000DC
S31500027E40F4270020A42200209129030010B504463D
S31500027E5000F0A6F8002805D02146BDE810400248E9
S31500027E6003F018BF10BD00002028002070B515468B
S31500027E700E4604460AF0CCFD002809D0054800EB60
S31500027E808400C0692A463146BDE8704002F082B8D5
S31500027E9070BD00001028002010B5044600F080F8DE
S31500027EA0002805D02146BDE81040024803F0F2BE84
S31500027EB010BD00002828002010B5044600F070F816
S31500027EC0002805D02146BDE81040024803F0E2BE74
S31500027ED010BD00002428002070B50546002400F0DD
S31500027EE05FF838B12946044803F0D4FE08B10224EB
S31500027EF000E00124204670BD1C28002070B505460E
S31500027F00002400F04DF838B12946044803F0C2FEB9
S31500027F1008B1022400E00124204670BD1828002082
S31500027F2010B51821034803F090FE182800D0C0B2FD
S31500027F3010BD00001028002070B505460C46084604
S31500027F400AF066FD60B1284600F02AF840B10548FD
S31500027F50294600EB8400BDE870401C3003F09ABE4F
S31500027F60002070BD1028002070B5054616460C4646
S31500027F7008460AF04DFD00280ED0284600F010F8FB
S31500027F80002809D00548324600EB84002946BDE8A0
S31500027F9070401C3001F0CCBF70BD000010280020DC
S31500027FA0142801D3002070470146014803F072BE2F
S31500027FB0142800207CB5054608880C4609309042F4
S31500027FC001D90C207CBD68466DDF0028FAD12188D4
S31500027FD00820685420881B21401C80B22080295426
S31500027FE02088401C80B220802844DDF80110016000
S31500027FF0BDF8051081802088801D80B220809DF802
S315000280000010490800D0012129542088401C2080F4
S3150002801000207CBD0E480F4910B5401AC008042145
S3150002802001EB00400CA104F0F7FE4FF0FF310020F7
S315000280303DDF00280BD1B1213CDF002807D11348D0
S31500028040416901208847022005F09AF8002010BDF8
S315000280505C4C0300FC4B0300496E20626C655F6456
S3150002806066755F627574746F6E6C6573735F626F4B
S315000280706F746C6F616465725F73746172745F664C
S31500028080696E616C697A650D0A000000402700205E
S31500028090044810B50068416900208847BDE81040D1
S315000280A0FFF7B8BFA022002010B5002823D003880E
S315000280B01C4C102B17D02146112B8A8815D0C98843
S315000280C0512B19D0532B16D1C088884213D1207E4A
S315000280D0002810D0FFF7DCFF00280CD06169BDE84C
S315000280E0104002200847808804E08088824202D13C
S315000280F04FF6FF70A08010BD83889342FBD110F823
S31500028100062F022AF7D142888A42F4D1017A04293B
S31500028110F1D00629EFD00529EDD0BDE81040801C2C
S3150002812006F0B6B8402700202DE9F0410546007B4F
S31500028130042601272E4C012811D002282CD0022613
S31500028140287B314600F08EF818B120684169032079
S315000281508847206841690220BDE8F0410847206847
S315000281604FF00008417E49B10621012000F07AF85D
S3150002817000283BD0206841690320EDE707760121FC
S31500028180084600F06FF8002830D02268112882F8DD
S315000281901880D5D10626D3E76A7B142A22D80AB3D9
S315000281A0DFF8508005F10E0108F10400FEF75EF9D2
S315000281B0697BC8F8181021684046497E0029BFD15C
S315000281C0A0F10C010A68011F904768B10F28B7D1C8
S315000281D009480A49401AC00807EB0040084904F05A
S315000281E01BFEADE70526ABE720684776BDE8F081C2
S315000281F0A0220020682700205C4C0300FC4B0300F1
S315000282009C37030070B5154900250A68002A24D058
S315000282104A68002A21D00831904708281DD0104C00
S315000282200028206845760ED00621022000F01AF8B2
S3150002823018B12068416903208847206841690220F5
S31500028240BDE8704008470121022000F00BF8002823
S3150002825003D0206841690320F2E770BD5C27002045
S31500028260A022002086B00323ADF8003020238DF82B
S3150002827014308DF8150000220E48019202928DF8F4
S315000282801610C188ADF8041002218DF8061005A952
S315000282900491ADF80820CDF80CD0808801A9AEDF94
S315000282A0002804D1BDF80010032900D00C2006B026
S315000282B0704700004027002010B50288502A13D1CB
S315000282C0C088CA8890420FD1086900280CD080471E
S315000282D006480749BDE81040401AC008032101EBD1
S315000282E0004004A104F098BD10BD00005C4C0300E0
S315000282F0FC4B0300445253206368617261637465E8
S31500028300726973746963207772697474656E0000AA
S3150002831010B50288502A13D1C088CA8890420FD15C
S31500028320086900280CD0804706480749BDE8104076
S31500028330401AC008032101EB004004A104F06CBD01
S3150002834010BD00005C4C0300FC4B03004552525327
S31500028350206368617261637465726973746963200C
S315000283607772697474656E002DE9F04701883B4E99
S3150002837040F2F3194FF6FF7510291BD011293ED092
S31500028380122954D0502946D1C188F289841D9142BE
S3150002839041D1618902293ED18688304602F096FC97
S315000283A0050038D004F10C0000F0C8F9A8B329463C
S315000283B030464EE0C17B8788044601292BD1A84668
S315000283C0284602F083FC050017D02F800020287271
S315000283D0234843464A460168C5F80A104068C5F86C
S315000283E00E0004F1100105F10A0002F083FD687225
S315000283F0F08900280FD129462AE0042013E080885C
S3150002840002F064FC040006D06068FFF77FF808B14A
S3150002841008F0BAFE2580BDE8F087FFE76868FFF737
S3150002842075F80028F7D0BDE8F04708F0ADBE87889A
S315000284300646384602F04AFC0400ECD02B464A4671
S3150002844006F1080104F10A0002F054FD60722146A9
S315000284503846BDE8F04700F0D3BE0000F4270020FE
S31500028460A42200202DE9F04F04468688018842485E
S3150002847097B0834610290CD0112950D010301929F3
S315000284806AD01A2974D1217A0C09042C4DD30122FF
S315000284904CE0394D083DA868C0430B9069680BA8AB
S315000284A003F01CFC0B990CA800F044FE2C220CA92C
S315000284B06846FDF7DBFF0027E946A84610E000BF45
S315000284C009EB47005FF00005B0F804A008EB850051
S315000284D05146001D03F09EFB6D1C1E2DF6D37F1C1C
S315000284E00098B842ECD8142E05D317B00420BDE884
S315000284F0F04FFEF7A7BF3146584603F0D6FB31468A
S3150002850008F1040003F0D1FBE07B022830D117B05A
S315000285103146BDE8F04F1848001D03F0C6BB17B040
S315000285203146BDE8F04F03F075BB0022314601F03B
S31500028530FFFC032C01D3012200E000220E48314643
S315000285400C3001F0F5FC022C01D3012200E00022DE
S3150002855009483146083006E0217A002908D1617AB5
S31500028560C1F3C002314617B0BDE8F04F01F0E0BCDE
S3150002857017B0BDE8F08F00001828002010B5044699
S315000285800748007800280AD0204602F0CDF9204696
S3150002859009F05AF82046BDE8104001F065BE10BD4C
S315000285A0DC22002010B51C4C0188606810290ED010
S315000285B0112930D1401E60602DD1FEF7D8FD00286A
S315000285C029D02168002926D0BDE810400847F8B90D
S315000285D000210122084600F043FA08B1072814D107
S315000285E007220221012000F03BFA08B107280CD12C
S315000285F004220221002000F033FA12220121042073
S3150002860000F02EFA20B1072802D0216801B188476E
S315000286106068401C606010BD1C23002038B504460B
S3150002862001882848284A801AC008042202EB004022
S31500028630212933D012DC244A224B4FF00300A3EB4C
S3150002864002024FEAD20200EB0240102911D0112990
S3150002865030D1BDE838401DA104F0DEBB3B292AD04B
S31500028660562927D11DA104F0D7FBA088132176DF56
S315000286700EE020A104F0D0FB072000F013FA08B1A7
S31500028680FEF7E0FE1E48A18841801E4803F02EFC3C
S3150002869000280FD0BDE83840FEF7D4BE1AA104F078
S315000286A0BBFB00200090A08869468FDF002801D01E
S315000286B0FEF7C8FE38BD19A104F0AEFBA08813214F
S315000286C076DFE5E75C4C0300FC4B03004469736309
S315000286D06F6E6E65637465642E00000047415454E4
S315000286E0205365727665722054696D656F75742EB6
S315000286F000000000436F6E6E65637465642E0000B1
S3150002870058240020043800205048592075706461AE
S31500028710746520726571756573742E0047415454F1
S3150002872020436C69656E742054696D656F75742E8D
S31500028730000000000078C0F340007047007800F0A7
S315000287400100704710B50288502A1AD1821DC088CE
S31500028750CB88984215D10969002912D0D068D27BFC
S3150002876000BA20F0FF001043884706480649BDE8D4
S315000287701040401AC008032101EB004003A104F097
S315000287804BBB10BD5C4C0300FC4B030054535320FF
S315000287906368617261637465726973746963207771
S315000287A072697474656E00000149085C70470000C6
S315000287B06B3303000649095C4FF0A040D0F8100560
S315000287C0C84010F0010000D0012080F0010070477F
S315000287D06B3303002DE9FC410646C0074FF0000546
S315000287E00ED0104F00240122385D00950023114659
S315000287F0019503F0F1FF641C032CF4D300F046F854
S31500028800B0070DD5074E0024F61C0022305D032367
S3150002881000951146019503F0DFFF641C032CF4D387
S31500028820BDE8FC816833030007490B5C4FF0A041A9
S31500028830D1F804250120984020EA0203C1F8083540
S315000288401040C1F80C057047683303000249085C02
S31500028850012104F0ADB80000683303000249085C48
S31500028860002104F0A5B80000683303000649095C3C
S315000288704FF0A040D0F80405C84010F0010000D027
S31500028880012080F0010070476833030010B5002410
S315000288902046FFF7DBFF641C032CF9D310BD10B58D
S315000288A000242046FFF7DAFF641C032CF9D310BD1F
S315000288B010B50246064B4FF0FF3000215C5C944235
S315000288C001D1084610BD491C0329F7D310BD00008B
S315000288D06B33030070B50C4E0C004FF00005306090
S315000288E00BD0012000F06AF808B1022004E0002053
S315000288F000F064F800B10B202070706810B9FEF722
S3150002890036FC0546284670BD1C23002010B5002003
S3150002891000F002FA08B1062806D1012000F0FCF99F
S3150002892008B1062800D1002010BD00002DE9F0474D
S315000289300D468146FFF7BCFF0446032836D2DFF810
S3150002894074801B481C4EA8F1040725B3012D0ED0D6
S31500028950022D2BD104EB440030444578002D25D05E
S31500028960F968002922D02846BDE8F047084704EBFB
S315000289704401755C0E44717849B10E4A4FF4804148
S31500028980521E8068FEF7AAFD08B987F80390B178EF
S3150002899008F80410E2E78068FEF7B8FD04EB44012C
S315000289A0314418F804008D78A842D7D0BDE8F08784
S315000289B07033030010230020B02B0020032801D2BD
S315000289C0FFF7F8BE0020704701461D4810B54088E3
S315000289D0042922D0072929D00A291AD010292ED1F2
S315000289E04FF0A041D1F804054FF480228243C1F82A
S315000289F0082500F48020C1F80C0512481249BDE88A
S31500028A001040401AC008032101EB00400FA104F0F8
S31500028A1003BABDE8104008F003BE132176DF0CE06E
S31500028A2000280CD0BDE81040FEF70CBDA0F57F4132
S31500028A30FF3904D10948FFF79FF80828F0D110BD85
S31500028A40582400205C4C0300FC4B03006273705FE9
S31500028A506576656E745F6B65795F3200103800204B
S31500028A6070B50023032810D20D4D00EB4004012AF5
S31500028A7002D101290CD00022094E00EB40003044FD
S31500028A8061B1012906D0022906D00723184670BD16
S31500028A900E30C2B22A55F9E74270F7E78270F5E75F
S31500028AA0B02B0020044A01460020127AD20702D0D7
S31500028AB0084600F04DB870470C23002070B50646F4
S31500028AC01E480024C0E90261B00720D50025012214
S31500028AD011462846FFF7C4FF6D1C0446032D02D239
S31500028AE0002CF4D013E094B940F233320321144837
S31500028AF0FEF726FC04000AD1FEF710FC040006D19C
S31500028B000F48104A0021001FFEF7AEFC0446F0078C
S31500028B1012D00120FFF75EFE74B909480A4A002105
S31500028B200C38FEF7A1FC040006D10548074A0121CC
S31500028B300838FEF799FC0446204670BD0C23002037
S31500028B407C330300258E0200F9B202000B73020089
S31500028B502DE9F05F6E4C054600266078B34618B1E3
S31500028B6084F801B002F0B2FB6A4F4FF001084FF4ED
S31500028B707A694FF4C87A182D69D2DFE805F00C132A
S31500028B8013384754696E727B727BC58484848484ED
S31500028B90B3B6BCBFC5C502F099FB3868FEF7B6FC92
S31500028BA006465CE00120FFF761FE00284FF0010057
S31500028BB008D0FFF74BFE022D02D14FF4E16008E028
S31500028BC0484606E0FFF74AFE022D01D1C82000E022
S31500028BD05046410CC0034FF47A72801841F10001ED
S31500028BE0257052000023FDF7FDFB01462AE0012015
S31500028BF0FFF73CFE00284FF0010004D0FFF726FEE7
S31500028C004FF44870E5E7FFF729FEDFE70120FFF79B
S31500028C102DFE00284FF0010002D0FFF717FECFE726
S31500028C20FFF71CFED4E70120FFF720FE00284FF0D5
S31500028C30010002D0FFF70AFE01E0FFF70FFE2570E2
S31500028C4040F6CD4100223868FEF748FC064646E06B
S31500028C500120FFF7E9FD257008E0012048E02570B4
S31500028C603DE084F801800220FFF7DEFD002240F29B
S31500028C706661E8E784F801800220FFF7D5FD00224D
S31500028C804FF40051DFE77868FEF740FC0646D5F15F
S31500028C90110000D02EB10020FFF7D8FD84F802B0F3
S31500028CA01DE0012816D980B2C8214843C117C9035D
S31500028CB041EA5041C0034FF47A72801841F1000133
S31500028CC052000023FDF78EFB014600227868FEF76C
S31500028CD005FC06460020FFF7C1FD84F802803046F7
S31500028CE0BDE8F09F02F0F2FAB9E702F0EFFA0020CF
S31500028CF0FFF7B4FDB3E702F0E9FAAEE702F0E6FAEF
S31500028D000020FFF7ABFDA8E7FFF7C9FDA7E70000C4
S31500028D100C23002070330300012109F008BF000074
S31500028D202DE9F84F0546861C00208DF80000914675
S31500028D300F464FF0010A6846FEF7EEFB1B4C04F2A3
S31500028D401C4860683860D4E90101194F401A396835
S31500028D50081A0EE00121404602F0BAFF02F05EFC5C
S31500028D600146404602F0B4FFD4E90101401A3968CF
S31500028D70081A401C8642EDD8B9F1000F03D005202F
S31500028D8065F3891002E0062065F39F5061683A6830
S31500028D90114004EB8101C8606068304460609DF850
S31500028DA00000FEF7DDFB5046BDE8F88F882F002055
S31500028DB0A423002070B50D4604460A2902D10D21CE
S31500028DC0FFF7F8FFA0682268411CA1601554D4E998
S31500028DD00101814204D32046BDE8704003F0C1B9C7
S31500028DE070BD0000044881684068814201D10120BB
S31500028DF07047002070470000882F0020034630B5D8
S31500028E00074800210478426806E000BF02EBC10071
S31500028E1005789D4203D0491CA142F7DB002030BDF4
S31500028E202823002000780221FFF780BD1CB50446E6
S31500028E3001F09EFE00236A46092105F0BBFF0528C4
S31500028E4005D10348012241792046FFF78DF81CBD62
S31500028E50AC2200201CB504460020009042F6A62053
S31500028E60ADF8000001208DF80200084801AA694603
S31500028E70006801902046A0DF002805D1044801229F
S31500028E8081792046FFF770F81CBD00000832030006
S31500028E90AC22002005494FF0FF32082841F8202075
S31500028EA002D3084480F8482070470000DC360020D0
S31500028EB0F0B54FF0FF3512B10023082601E0082372
S31500028EC00C260C4C05E000BF54F823707F1C04D01E
S31500028ED05B1CB342F8D32846F0BD26185DB286F86D
S31500028EE0305044F82310002AF5D1E11881F84800E1
S31500028EF0F1E70000DC3600200249084490F9300010
S31500028F0070470000DC3600202DE9F0438146887860
S31500028F1091B090460C4600B901208DF83E0020889B
S31500028F20ADF83C0000250095607C694608F022FBFE
S31500028F306E46A07C711C08F01DFBE07B00289DF8A4
S31500028F40020002D040F0080001E020F008008DF88F
S31500028F500200217C11B140F0100001E020F0100067
S31500028F608DF80200217B11B140F0010001E020F0F2
S31500028F7001008DF80200217D09B1022100E00121E4
S31500028F8061F342008DF802001C2102A8FDF795FA52
S31500028F90607BC10601D4800617D50E950EAFE07C24
S31500028FA0791C08F0E7FA9DF83800079720F00F00C1
S31500028FB0401C20F0F00010308DF838009DF83A0081
S31500028FC020F00600801C8DF83A00607B8DF80800C0
S31500028FD0A07B8DF80900142109A8FDF76EFA0FA8E7
S31500028FE0CDE90906A088ADF83000A06820B1E08876
S31500028FF0ADF82C00A0680D90A06998B30195008881
S31500029000ADF81000A06901AD01A94088ADF81200C3
S31500029010A069406806950390A069007B08F0AAFA49
S31500029020A069691C407B08F0A5FAA069807A00282D
S315000290309DF8060002D040F0080001E020F008008A
S315000290408DF80600A169C97A11B140F0100001E05D
S3150002905020F010008DF80600A169097A19B140F0D6
S31500029060010002E00DE020F001008DF80600A16982
S31500029070897B09B1022100E0012161F342008DF8EA
S315000290800600E06900B10590434609AA02A94846CE
S31500029090AADF11B0BDE8F08370B504464FF6FF753E
S315000290A00A462846AC4209D14FF48074214610463E
S315000290B002F0CBFD80B2A0420BD070BDFF2CFCD8D3
S315000290C02146104602F0B1FD90F0010F01D0204674
S315000290D070BD284670BD000070B5084C050009D069
S315000290E010342168002907D008682060496828469C
S315000290F08847F6E70834F4E770BD0000B036002072
S31500029100054A012120B1012805D19170FFF7E4BF7C
S3150002911051700020FAE77047B036002010B5D0E94A
S315000291200234D1E90220D11AA04101D3012010BD97
S31500029130002010BD73B58CB00646002000900D9835
S3150002914080B100246D4621460DA802F0A3FD30B180
S31500029150009805EB400084800098401C0090641C37
S31500029160142CF0D32C2269463046FDF77FF90EB057
S3150002917070BD2DE9F04117880646B81D14460D4606
S31500029180984202D90C20BDE8F081318807220629CF
S315000291900AD34FF4486C4FF6FF73614501D99942E1
S315000291A002D17088062801D21046ECE7604501D943
S315000291B09842F9D1994203D0984201D08142F3D81C
S315000291C00520E85520881221401C80B220802954AF
S315000291D02088401C80B220804119308809F051FB5A
S315000291E02188084480B220804119708809F049FB21
S315000291F02188084420800020C5E7FEF723B9000035
S3150002920038B54A7A0F4B62B100220A7259690029AF
S3150002921006D001228DF80020ADF802006846884784
S3150002922038BD0A7A62B19B684C68024619462046E6
S31500029230FEF754F90028F3D0BDE8384007F0A4BF82
S315000292405B68F1E7F4270020F0B585B016460F46B5
S3150002925004461D4614220B496846FDF707F90A48DB
S315000292608DF80870ADF80240ADF80A608DF80C5022
S31500029270017800222046FEF777FE684600F074FC6D
S3150002928005B0F0BD28330300EC220020F0B50C46F1
S3150002929006461E481E4987B0401AC708042000EB3E
S315000292A00740334622461BA103F0C1FD002004906D
S315000292B00590ADF8104001900290ADF8124001AA57
S315000292C004A9304690DF05001DD004F027FA0346B4
S315000292D0012000EB0740044632461A4903F0A7FD77
S315000292E0BDF8042012B9BDF8060028B1BDF8063053
S315000292F0204615A103F09BFDBDF808201AB12046B1
S31500029300214903F08DFD07B02846F0BDFC4B030052
S31500029310FC4B03005570646174696E672064617466
S3150002932061206C656E67746820746F202575206FE6
S315000293306E20636F6E6E656374696F6E203078257A
S31500029340782E0000B4380300546865207265717582
S3150002935065737465642054582F5258207061636B8C
S315000293606574206C656E67746820697320746F6F0C
S31500029370206C6F6E672062792025752F2575206F08
S3150002938063746574732E00000039030070B50446D9
S315000293900948012102F0B7FCBFF35F8F00250028C0
S315000293A008D1204602F0B4F8002803D1BFF35F8F3C
S315000293B00148056070BD0000B82200202DE9FF417A
S315000293C00C4620B14FF4064004B0BDE8F081207986
S315000293D0002748F2096538B141F61D5601281BD00F
S315000293E0022826D0681DEFE7022020710297039714
S315000293F0E0680190694601A806F0A0FC50B1029807
S315000294008188E18000882081BDF80010029806F06C
S3150002941013FDD9E72846D7E70A4B6A460021A01D65
S3150002942006F044FC38B1074918398F61CF61A8426A
S31500029430CAD13046C8E703488188019806F0FCFC89
S31500029440F5E700005823002070B500240F4D10E008
S31500029450686800EBC406307804F08AFA717801294C
S3150002946001D0012100E000214140307800F0D0FA1D
S31500029470641C28788442EBDBD5E90401084303D057
S31500029480BDE8704008F0DABF70BD00002823002056
S3150002949010B50021024802F036FC80F3100010BD20
S315000294A0A43300207047000030B58DB0B8B31D4C10
S315000294B01D4B006820610FCB8DE80F0021466846E0
S315000294C062DF002829D1207801258DF83200ADF817
S315000294D03050A21C0CA92846A8DF00281DD1202145
S315000294E004A8FCF7EAFF0220ADF8100020788DF8F8
S315000294F01200ADF816501420ADF814009DF81D00A8
S315000295008DF8215040F012008DF81D008DF8235081
S315000295106088A21D04A9FFF7F7FC0DB030BDFFE776
S315000295200E20FAE784270020C03103004FF4803270
S315000295308A400168C1F848230068C0F808237047CA
S315000295404FF4A07202EB810189B200F0D1BA2DE983
S31500029550F04105460E464FF4A07000EB860081B23C
S3150002956028684FF48034B440984622F07F47C0F80A
S3150002957008432868C0F84843286803F02FFE286885
S3150002958000EB8600C0F840752868C0F84443B8F17D
S31500029590000F02D02868C0F80443BDE8F0810068D5
S315000295A0D0F804057047000070B54379234C44F89F
S315000295B023204279231D03EBC202224C1579204A4D
S315000295C0121BD4082DB10825022000EB04401EA16F
S315000295D030E005680A88C5F8082590F904208978DC
S315000295E0002A4FEA411104DB02F1E02282F800145C
S315000295F005E002F00F0202F1E02282F8141D90F952
S3150002960004100122002909DB01F01F0502FA05F503
S315000296104909890001F1E021C1F80051417900258B
S3150002962003EBC1010A71417943F83100032000EBD3
S3150002963004400EA103F0F0FB284670BD242400204E
S31500029640744C0300FC4B030052544320696E73743E
S31500029650616E636520616C726561647920696E6909
S315000296607469616C697A65642E0000005254433A4B
S3150002967020696E697469616C697A65642E000000FE
S3150002968090F90400002809DB00F01F020121914035
S315000296904009800000F1E020C0F8001270470A4637
S315000296A0022100F0ABB94FF4827100F021BA0068D2
S315000296B001210160704700680121416070472DE970
S315000296C0F05F07460C464FF4A07000EB84001FFAC9
S315000296D080FA38684FF48036A6409B4622F07F45D2
S315000296E0C0F848633868C0F808633868D0F804855B
S315000296F000EB8402D2F84095C2F84085514638689C
S3150002970003F06CFDA9EB080020F07F40012806D18A
S31500029710102004F06FF85146386803F05FFD386890
S31500029720D0F80485C0F84463A5EB080121F07F4117
S315000297303868012900EB840010D0C0F8405538681B
S31500029740D0F804156FF07F4C6A1A521E22F07F423F
S31500029750ACEB0B03934217D362B118E06D1CC0F851
S315000297604055102004F046F83868D0F80405404504
S315000297700AD10CE000EB84006D1CC0F84055386835
S31500029780D0F80405884202D00D20BDE8F09F0122E0
S315000297903146384600F032F90020F6E713460A460B
S315000297A00021FFF751BD00002DE9F843104D0F4689
S315000297B080461E4691466946286802F0FFF9040073
S315000297C014D01C21FCF779FE01202071C4F81490F4
S315000297D0380BC4F80080C4E902606946286802F0C2
S315000297E00EFA06F0DBF90020BDE8F8830420FBE759
S315000297F0143403007047000030B58DB0B8B31D4C69
S315000298001D4B006820610FCB8DE80F00214668468C
S3150002981062DF002829D1207801258DF83200ADF8C3
S315000298203050A21C0CA92846A8DF00281DD12021F1
S3150002983004A8FCF742FE0220ADF8100020788DF84D
S315000298401200ADF816501420ADF814009DF81D0054
S315000298508DF8215040F012008DF81D008DF823502E
S315000298606088A21D04A9FFF74FFB0DB030BDFFE7CC
S315000298700E20FAE798270020D031030010B50378AE
S315000298800022072B06D2DFE803F005040610202982
S3150002989030000A7010BD01230B7003898B81838807
S315000298A0CB81C06888600A7410BD02220A700289E0
S315000298B08A818288CA81C2688A60807D062802D02F
S315000298C00020087410BD0120FBE703220A70C2883B
S315000298D08A810289CA81C068886010BD04230B7020
S315000298E0C0888881CA818A6010BD0520087010BDB3
S315000298F070B5064D0646002455F8241009B13046C7
S315000299008847641C042CF7D370BD00002C2C002061
S3150002991030B50446006887B00D46806800281FD01F
S3150002992018216846FCF7C9FD0195A06805902079C3
S3150002993010B1012810D107E001208DF8000020693E
S315000299400290E068039005E002208DF80000E068CE
S31500029950000302906069049020688168684688471F
S3150002996007B030BDF0B585B017460C0005463AD0B3
S31500029970112C38D0082C36D01C481D49401AC6086E
S315000299800D2C11D0204603F0C9FE0246012000EB41
S3150002999006402B46174903F04AFA2A46072168462B
S315000299A002F0C0F802941BE0022000EB06402A46B1
S315000299B0114903F035FA2A460321684602F0B2F845
S315000299C027B13878C00701D0012000E002208DF8C7
S315000299D0080000208DF80C0041F20110ADF80A00D3
S315000299E0684600F0CFF805B0F0BD0000444C030015
S315000299F0FC4B0300A8430300984203000368C3F824
S31500029A004413002A02D00068C0F80413704700000D
S31500029A102DE9F84F0E463449804601EB5001C00746
S31500029A20097801D00F0901E001F00F074FF0000994
S31500029A30424601204946FCF706FDDFF8B0A004467F
S31500029A400D46052F4ED2DFE807F003161B282C0021
S31500029A50002E47D00121404608F0BCFB8DF800904D
S31500029A606846FDF759FD5046D0E904120C431543EA
S31500029A70CAE9044532E00EB1022114E0002112E0E7
S31500029A804EB10321404608F0A5FB4046BDE8F84F1B
S31500029A90012108F0D5BF012105E0002E22D10421C3
S31500029AA001E02EB103214046BDE8F84F08F092BB13
S31500029AB00021404608F08EFB0021404608F0C0FF18
S31500029AC08DF800906846FDF727FD5046E243D0E93F
S31500029AD004341A4024EA0501CAE904219DF800006B
S31500029AE0FDF73EFDBDE8F88F002C0020282300205C
S31500029AF010B5006842581AB103F070FB012010BD80
S31500029B00002010BD10B50446408801F031F8A0804F
S31500029B10024801682046BDE810400847B4220020EA
S31500029B2010B50446808800F06DFF60800248016827
S31500029B302046BDE810400847C42200202DE9F04126
S31500029B4007460024064E074D05E000BF56F82410CE
S31500029B5038468847641CE8788442F7DBBDE8F08122
S31500029B60242B0020DC22002010B50446408800F099
S31500029B70FFFFA080024801682046BDE81040084762
S31500029B80E83203000149096808470000643303000C
S31500029B9070B586B0044614216846FCF78EFCA0898F
S31500029BA00125A0F54040ADF8040020782F4E062886
S31500029BB033D2DFE800F0320303032C4AA08900F017
S31500029BC09BF930B9E08943F6FE71A0F54040884220
S31500029BD023D8A07B8DF80800207803280FD0002018
S31500029BE08DF80900A0680390606850B109208DF8CD
S31500029BF0000060680490684605F02EF80DE001202A
S31500029C00EEE708208DF800008DF81050F3E7A089E2
S31500029C1000F072F908B1E08930B17078002801D0FD
S31500029C2005F06EF906B070BD606830B10B208DF894
S31500029C300000606802907570DDE70A208DF800006A
S31500029C40BDF8040005F000FAF5E7606848B1142093
S31500029C508DF80000606802904FF6FF70ADF80400C0
S31500029C60C9E713208DF80000F6E70000C82200209D
S31500029C7038B504460F480078B0B1A4F57F40FF38E6
S31500029C800FD0684605F0BAFE88B1052101700121A0
S31500029C900171C480684605F0BFFE05F071FF002021
S31500029CA038BD48F2036038BD48F2016038BD48F25B
S31500029CB0076038BD602300200D4808B5007888B1DA
S31500029CC0684605F09BFE80B106210170684605F0E4
S31500029CD0A3FE0848017809B10121017305F050FF7E
S31500029CE0002008BD48F2016008BD48F2076008BDC1
S31500029CF060230020F02C0020F0B587B014216846BE
S31500029D00FCF7DBFB304C207818B16846FFF7F0FD14
S31500029D1057E0201D01F0D9FF98BB40F6F8700168A4
S31500029D20481C02D14FF0102041694FF08050026961
S31500029D3040694B1C01D100FB02F12448002201615B
S31500029D40A1F54051C160224902F0A0FB002823D1AF
S31500029D5021481C238C221F49006801F01CFF04F0D5
S31500029D6007FD050016D0022D14D000270126062D68
S31500029D7014D005A805F042FE98B106700C2D1BD230
S31500029D8000E01EE0DFE805F0181018101817181783
S31500029D901812141248F20A6007B0F0BD2670676006
S31500029DA0B3E748F20760F7E7077105E0032100E031
S31500029DB00221017100E0067105A805F02DFE05F0ED
S31500029DC0DFFE0020E8E70000602300207024002068
S31500029DD0243403003C2C00209C33030038B50400D5
S31500029DE014D0694605F0AAFFB0B1BDF8000000EB39
S31500029DF080010B4800EB8100C16851B1A17A41B1E3
S31500029E00C168491EC1600020A07238BD48F20460D4
S31500029E1038BD48F2056038BD48F2096038BD000019
S31500029E20C82C00201FB501A9684605F03FFF04B003
S31500029E3010BD07B513460A466946002005F036FFEF
S31500029E400EBD07B513460A460021684605F02EFFE9
S31500029E500EBD20B119B1006808600020704748F2B3
S31500029E6004607047F8B50D46040018D0BDB16946C6
S31500029E7005F064FFB0B1BDF800000C4900EB8000AC
S31500029E8001EB800001210C30666801F021FF2E6093
S31500029E9060680C3068600120A0720020F8BD48F2AC
S31500029EA00460F8BD48F20960F8BD0000C82C002025
S31500029EB018B10323002208F07DBF48F20460704700
S31500029EC00223002208F076BF094910B50A69042A5E
S31500029ED00AD0084A096942F82100054801211030D2
S31500029EE001F0F6FE002010BD48F20B6010BD000026
S31500029EF0402300202C2C002043F6FE71A0F54040A2
S31500029F00884201D8012070470020704710B50446E8
S31500029F100078182802D1FEF703F8207010BD10B59C
S31500029F2004460078182802D1FDF7FAFF207010BD0A
S31500029F300AB101F0BABE01F06DBE70B50D46044617
S31500029F40B0F81414D0F810040122FDF72EFD00B16A
S31500029F50057004F13C0204F5826104F1540072DFDB
S31500029F6070BD000070B5134600220546112900D1C6
S31500029F700122074C33B12179FDF7F6FF0022617801
S31500029F80284600E06178BDE87040FDF7EDBF0000AD
S31500029F90F4220020F7B517460E0011D000980025CE
S31500029FA060B100242146684601F074FE18B1A0B2E1
S31500029FB03946B0476D1C641C142CF3D32846FEBDEB
S31500029FC00020FEBD406805F039BD000010B586B020
S31500029FD09DF80C0020F00F00401C20F0F00010301D
S31500029FE08DF80C0001A86DDF08B1FDF72BFA0E20E3
S31500029FF001F076FC04469DF8050000909DF80630B7
S3150002A00012A215A12046FCF719FE2046FCF760FABB
S3150002A01082B2214603A87CDF08B1FDF713FA0020BD
S3150002A020049005905021ADF81400ADF810104FF4CD
S3150002A030C870A021ADF81600ADF8121004A87ADF98
S3150002A040002801D0FDF7FEF906B010BD6D69616FFB
S3150002A0506D69616F335F00002573253032782530D4
S3150002A0603278000070B510B14FF4064070BD1C4C3A
S3150002A0700025207B08B1257301E000F0A5F82078C1
S3150002A08008282AD2DFE800F02904080C1029142235
S3150002A090BDE8704000F026B8BDE8704000F082B816
S3150002A0A0BDE8704000F064B8BDE8704000F040B80A
S3150002A0B00620207060880A4900EB8000283901EBEF
S3150002A0C080004068BDE8704004F032BB0720207073
S3150002A0D06560BDE8704004F039BB48F20E6070BDA1
S3150002A0E0F02C00201149F0B48A1C00200346A1F18D
S3150002A0F028050C18A67A4EB1A37200EB800405EB74
S3150002A1008404E66816B9247C012C0AD0401C80B26D
S3150002A1100228EED30B704B804B60F0BC41F61D500B
S3150002A12070471080F0BC00F03DB80000F02C002013
S3150002A1300C48418801EB8102A0F1280101EB820162
S3150002A140CA6852B10521017007480221818001685F
S3150002A15000230122054802F0FDB804220270496874
S3150002A160F6E70000F02C002068230020702400206F
S3150002A17038B50A49084803240B684268898803EB04
S3150002A180810153880470DB1C00201B0400909B0B8A
S3150002A190034802F033FA38BDF02C00206823002071
S3150002A1A070240020074910B54888091D05F016FEDF
S3150002A1B018B1BDE81040FFF7DBBFBDE81040FFF75E
S3150002A1C0B7BF0000F02C002070B5194C0121207891
S3150002A1D008281AD2DFE800F00419191C25292918C3
S3150002A1E02089134A401C2081002060802073283A6F
S3150002A1F000EB800312F8233043B100232518401CDC
S3150002A20080B2AB720228F3D3217070BD0123F5E749
S3150002A2106068084940888A88C01C104488800220E9
S3150002A22004E000F009F8062000E00720207070BD67
S3150002A230F02C0020682300200A4909484988026850
S3150002A24001EB81030749283901EB83014B6803605F
S3150002A2504A6082880A81022282800020087470473E
S3150002A26068230020F02C00202DE9F0430646808862
S3150002A2703288DFF85C8185B00746502A37D010DC79
S3150002A2805449554B06F10A05A1EB03014FEAD101E8
S3150002A2904FF0020303EB0144352A3AD0362A07D19E
S3150002A2A068E0522A02D0542AF9D102E001F0D4F829
S3150002A2B082E0142249496846FCF7D8F8ADF80270E4
S3150002A2C0384600F055FCADF8040000F0CFF9002244
S3150002A2D0444698F804103846FDF746FE0022E17817
S3150002A2E03846FDF741FE6846FFF70CFC64E0307B1A
S3150002A2F0012861D1B07A01285ED13089A0F52451B6
S3150002A300023959D10121384601F0FAF808F028FB42
S3150002A31052E098F80610FDF70FFE00284CD00022F6
S3150002A32098F806103846FDF71FFEF288B2F5857FCB
S3150002A33017D012B120462AA10BE02A88012A03D09F
S3150002A340204636A102F06CFD6A88012A04D0204616
S3150002A35041A102F065FD04E0A98800223846A1DF8A
S3150002A36008B1002125E0012298F807103846FDF7CA
S3150002A370FBFD21E04FF0000998F80710FDF7DCFD20
S3150002A380D0B1002298F807103846FDF7EDFDF288A5
S3150002A39012B1204612A104E0AA88012A04D020465E
S3150002A3A02DA102F03DFD03E0A87900B1012081460E
S3150002A3B04946384607F070FF0022364998F80200EF
S3150002A3C0FDF754FD05B0BDE8F04306F055BF0000A9
S3150002A3D0AC220020044C0300FC4B03006032030055
S3150002A3E0556E6578706563746564204741545420E0
S3150002A3F0737461747573207768696C652067657418
S3150002A40074696E67204341522063686172207661E7
S3150002A4106C75653A20307825780000004D756C74AD
S3150002A42069706C652028256429204341522063689F
S3150002A4306172616374657269737469637320666FAE
S3150002A440756E642C207573696E6720746865206664
S3150002A450697273742E000000556E657870656374B8
S3150002A4606564204341522063686172616374657258
S3150002A47069737469632076616C7565206C656E67B5
S3150002A480746820282564292C2073746F7265203025
S3150002A4902E000000A576020070B50446007800285A
S3150002A4A014D1608800F0D8FF6588284600F0A0F92C
S3150002A4B028B107480122C1782846FDF755FD608874
S3150002A4C0FEF7B4FCBDE8704008F04ABA70BD000061
S3150002A4D0AC22002070B5204C00252570FDF720FD2A
S3150002A4E06070FDF71DFDA070FDF71AFDE070FDF727
S3150002A4F017FD2071FDF714FD6071FDF711FDA071C6
S3150002A500FDF70EFDE07162780121182A18D0A278B3
S3150002A510182A15D0E278182A12D02279182A0FD0D2
S3150002A5206279182A0CD0A279182A09D0182807D0DD
S3150002A53004F10C000560BFF35F8F2170002070BD2F
S3150002A5400648074A801AC00801EB0040054902F096
S3150002A55063FC032070BD0000AC220020044C030003
S3150002A560FC4B0300AC3903007CB50446007808288E
S3150002A57037D1607A58BB207A1C4E4FF6FF750128F8
S3150002A58011D0072802D008282BD121E0A08800F09C
S3150002A59039FA0446A84224D0012100F0B1FF204630
S3150002A5A0FEF744FC1DE0A0886A46012104F076FA13
S3150002A5B068B90198007850B1A08800F023FAA84241
S3150002A5C00FD00122F178FDF7CFFC06F055FE08E028
S3150002A5D0F068012805D1BFF35F8F044900200C31D2
S3150002A5E00860BDE87C4008F0BBB90000AC22002040
S3150002A5F010B50B48FEF7D3FF094A083AD2E90434EC
S3150002A600C018D2E9063244F10001C31A71EB020204
S3150002A61004D24FF08072801841F1000110BD000093
S3150002A6200824002001488068704700005824002052
S3150002A63010B5C0B2FEF7E2FB0446007803F098F9C3
S3150002A64001466078012801D0012000E0002090EA4E
S3150002A650010F08D00449D1E90401084303D1BDE83A
S3150002A660104007F0EBBE10BD282300201CB5054A9A
S3150002A670D2E90212CDE900120022694604F0D4FBA7
S3150002A6801CBD00007832030003484FF6FF7181803B
S3150002A6900121017000207047BC2200202DE9FC41F7
S3150002A6A0804600F065FA002403250127A0F57F41C4
S3150002A6B02646FF3908D06A46082104F0EFF918B990
S3150002A6C00198841D8688056832462B4621464046F7
S3150002A6D0B1DF042804D0082804D00B2808D002E0F1
S3150002A6E0112000E00020002F00D10B20BDE8FC81E4
S3150002A6F00027A80701D50125E6E7344303D0002445
S3150002A70026460325E0E7064806494246401AC0089F
S3150002A710012101EB0040044902F082FBE5E700005B
S3150002A7200C4C0300FC4B0300743C03002DE9FC4176
S3150002A730804600F01DFAA0F57F410646FF390ED08D
S3150002A74001252A466D1C0027ADB26B46082130460C
S3150002A75004F0EEF9040006D0072C33D033E043F2BE
S3150002A7600200BDE8FC81019903230A1D0B604046E5
S3150002A770891DB2DF040004D00C2C09D0052C09D0A7
S3150002A78009E032460821104604F04AFA04461AE065
S3150002A790012700E000240821304604F037FA70B1A0
S3150002A7A002F0BCFF0346094809493246401AC0086E
S3150002A7B0012101EB0040074902F039FB0324002F77
S3150002A7C0BFD100E00C242046CBE700000C4C03006E
S3150002A7D0FC4B0300F43B030004488088A0F57F414C
S3150002A7E0FF3901D006F052BD70470000BC2200209E
S3150002A7F00EB502A9019100F0BBF96A46012104F0E7
S3150002A8004DF908B100200EBD019800780EBD00007A
S3150002A8102DE9F04107464FF6FF761048B3DF78B1CF
S3150002A82002F07CFF02460E480E49401AC00801217A
S3150002A83001EB00400C4902F0F3FA0320BDE8F08177
S3150002A840064C43F20305A41E324661883846AFDF42
S3150002A850A842F3D16088401C6080F5E7BE22002042
S3150002A8600C4C0300FC4B0300A83B0300428800EBA0
S3150002A87082020C328A4201D9022070478188A1F5F0
S3150002A8807F42FF3A06D0018821B18068401C01D080
S3150002A8900020704701207047884204D20068401C9D
S3150002A8A001D001207047002070473EB5027802238E
S3150002A8B00C46B3EB520F17D1B0F80110ADF80010E9
S3150002A8C0C1788DF802108188ADF8041080798DF870
S3150002A8D0060002AA01A92046FCF7EEFC032202A901
S3150002A8E06846FBF7FCFD08B100203EBD01203EBDD7
S3150002A8F070B50D460446142810D2FDF751FB68B117
S3150002A900084904EB840001EB4000D0F802102960EC
S3150002A910C188A980007AA871002070BD43F20200A6
S3150002A92070BD00008C28002070B5018890B01029F7
S3150002A93061D1011D2C226846FBF798FD9DF80400A3
S3150002A9404FF6FF7603213446B1EB500F2BD004F0BD
S3150002A95029FA9DF804006D4640080ED001280CD055
S3150002A960022820D118E00D99281D1131FCF7D2FBDF
S3150002A97018B100BFBDF82C4015E00CAA0BA90720A0
S3150002A98004F0E4F90028EED10DE00D99281D491CCA
S3150002A990FFF78BFF0028EDD10CAA0BA9072004F0C4
S3150002A9A0D5F90028F1D1BDF80000B44200EB8001D0
S3150002A9B0124820F8114000EB41000199C0F802103C
S3150002A9C0BDF80810C1809DF80A10017213D0BDF8B7
S3150002A9D00000ADF82E000020ADF83040084E8DF88C
S3150002A9E02C000BAD044600BF56F8241028468847B3
S3150002A9F0641C022CF8D310B070BD00008C28002015
S3150002AA008C3203002DE9F0414FF6FF760546B0423F
S3150002AA1013D00B4F002400BF04EB840037F810005C
S3150002AA20A84206D12046FDF7BBFA10B12046BDE882
S3150002AA30F081641CA4B2142CEED33046F7E7000072
S3150002AA408C2800203EB50C46054604F0ABF90BE017
S3150002AA50BDF80000A04207D02846029900F00EF881
S3150002AA6010B1BDF800003EBD01AA6946072004F0F8
S3150002AA706DF90028ECD14FF6FF703EBD2DE9F0418D
S3150002AA800C46054600F1110701F111061022491C78
S3150002AA90401CFBF724FD48B9681C00F04DFA28B1AA
S3150002AAA0601C00F049FA08B1012400E00024314696
S3150002AAB03846FCF72FFB3B780222B2EB530F0CD041
S3150002AAC00321B1EB530F08D03378B2EB530F04D006
S3150002AAD0B1EB530F01D0012100E00021084201D160
S3150002AAE08C4302D00120BDE8F0810020FBE70188FB
S3150002AAF011B9421892780AB101207047491C0829F7
S3150002AB00F7D30020704710B50C460346FFF7EFFF58
S3150002AB1000280AD018882188884205D10822A11C5B
S3150002AB20981CFBF7DCFC08B1002010BD012010BD0B
S3150002AB30142804D2024A00EB800022F81010704753
S3150002AB408C28002070B50546FFF75CFF04462846B0
S3150002AB5003F0A8FF002808D1142C06D2034B04EBFD
S3150002AB6084024FF6FF7123F8121070BD8C28002064
S3150002AB7010B50446142808D2FDF712FA28B1044982
S3150002AB8004EB840031F8100010BD4FF6FF7010BDC3
S3150002AB908C2800203EB5044604F004F90EE0019923
S3150002ABA020464631FFF7AFFF28B9019920462A31E0
S3150002ABB0FFF7A9FF10B1BDF808003EBD6A4602A91B
S3150002ABC0072004F0C3F80028E9D14FF6FF703EBD16
S3150002ABD010B50A4941600A4801F077F858B902F0FF
S3150002ABE0CFFC07491C238C22087404488C39001FA9
S3150002ABF0006800F0D0FF002010BD000018340300EA
S3150002AC009C2D00202DE9F0412D4F002520B17D60BD
S3150002AC104FF40640BDE8F0810879012258B1294E69
S3150002AC2001280CD0264C4FF002080834022820D006
S3150002AC30032841D127E00A7103F088FD3AE000209B
S3150002AC4000EB800116F82110022908D0401C80B2C0
S3150002AC500228F5D33A707D6041F61D50DAE700EB23
S3150002AC60800006F8205006EB8000406803F060FD85
S3150002AC7020E00D71A4F80480002301221248216805
S3150002AC8001F068FB16E00D71206803F051FD0D49D5
S3150002AC9023682831498801EB810206EB8201D1F84B
S3150002ACA004C0C4F800C04B60A3880B81A4F80480DA
S3150002ACB006F822500028ADD07D6048F20D60A9E763
S3150002ACC060230020C82C002070240020014603487F
S3150002ACD002888A4200D0002070470000E027002048
S3150002ACE02DE9FC5F0E008346DDE90C47C6F1000044
S3150002ACF098469246814600D40846012503E000BFE5
S3150002AD0090FBFAF06D1C5045FADAA84500D9454683
S3150002AD1024B1002E01DB780700D5641EB80702D5E0
S3150002AD20B8F1000F0AD0F80708D13CB1A54205D206
S3150002AD3020215846641EFEF73DF8F6E7002E02DA99
S3150002AD404E462D2102E0780703D52B215846FEF701
S3150002AD5031F807F0030002280BD1B8F1000F08D131
S3150002AD603CB1A54205D230215846641EFEF722F8B0
S3150002AD70F6E7CDE90047434652463146584607F0C4
S3150002AD8095FDBDE8FC9F000070B50D4604460068BF
S3150002AD904FF4887102F0E2FC4FF49071206802F0E1
S3150002ADA0DDFC4FF49271206802F0D8FC4FF4A271D8
S3150002ADB0206802F0D3FC4FF4AC71206802F0CEFC9E
S3150002ADC020681249C0F804132068690740F3073067
S3150002ADD0090E002804DB00F1E02080F8001405E0EB
S3150002ADE000F00F0000F1E02080F8141D206840F307
S3150002ADF00730002809DB00F01F02012191404009BB
S3150002AE00800000F1E020C0F8001170BD100342007E
S3150002AE10024600201268530713D502F003000128E8
S3150002AE2002D002280CD105E0C2F383100B68801C05
S3150002AE30184404E00223086803EB925210440860A7
S3150002AE40012070472DE9F0479146884604464FF4A3
S3150002AE5080354FF4A0760027DFF884A016E000BF05
S3150002AE60D4F8040328420DD0A05958B1C4F8485367
S3150002AE70C4F808533146204602F0B6F95AF82810AB
S3150002AE80F8B28847361D6D00B6B27F1C4F45E7D330
S3150002AE90D4F804034FF4807110F0010F09D0D4F8EE
S3150002AEA0000130B1204602F09FF95AF8281004201A
S3150002AEB08847D4F804034FF4827110F0020F0CD0C5
S3150002AEC0D4F80401002808D0204602F08DF95AF879
S3150002AED02810BDE8F04705200847BDE8F0870000C6
S3150002AEE04C2400200248007A002800D00120704736
S3150002AEF09C2D0020F0B58488A518944200D82246DD
S3150002AF00A41AC288D6189A4200D81346D21A4B8877
S3150002AF100788BB420CD34088834209D88888A0425E
S3150002AF2006D3A84204D8C888904201D3B04201D9B8
S3150002AF300020F0BD0120F0BD0021425C0AB10120D3
S3150002AF407047491C1029F8D300207047800701D0AA
S3150002AF5000207047012070472DE9F04300252C465A
S3150002AF601D80402A02D20120BDE8F083002202277A
S3150002AF704FF0080C4FF020084FF0800990B10128DD
S3150002AF8012D0022813D0032814D00C701E88001F7A
S3150002AF90761C521C92B2491C1E80C0B2402AEDD3C6
S3150002AFA02846E1E70F70F1E781F800C0EEE781F885
S3150002AFB00080EBE781F80090E8E7F0B500241C80FA
S3150002AFC0042A01D20120F0BD0022022608274FF0F2
S3150002AFD0200C4FF0800E10F0030506D0012D06D08E
S3150002AFE0022D06D0032D09D106E00E7006E00F7081
S3150002AFF004E081F800C001E081F800E01D88521CDF
S3150002B0006D1C800892B2491C1D80042AE3D3204697
S3150002B010F0BD00002DE9FF4F83B00C4611A99A46F8
S3150002B02091E82802DDE9146700200090059909B12C
S3150002B030022200E000220021398056494FF0020C1C
S3150002B040097869B122440CEB82121A80DFF8488132
S3150002B0502A8881214FF0040B72B1402E0ED311E0E3
S3150002B06022442121DFF834810CEB82024FF0040BDB
S3150002B0701A80052E02D305E0412E03D2012007B025
S3150002B080BDE8F08F14B12A881AB12FE00121198088
S3150002B0902CE0BAF1000F0BD0109A4AB9039A127833
S3150002B0A022F0010242F00203039A13702A88EAB9D7
S3150002B0B009F8011B3988491C761E3980B6B215E09B
S3150002B0C0039889B202AB405C32464946C446E04721
S3150002B0D03988BDF8082011443980BDF80810894422
S3150002B0E0711A8EB210B92988491C29802988A14271
S3150002B0F002D20028E4D04AE0A0BB34E0009898B916
S3150002B100109830B1621E039992B24EF21200491C97
S3150002B11003E022464FF6FF70039904F00BFF1099E5
S3150002B12001B9C04380B200908DF80400009801A9CD
S3150002B130000A8DF80500288802AB001B3246085C1F
S3150002B1404946C446E0473988BDF80820114439808B
S3150002B150BDF808108944711A8EB218B92988491C9B
S3150002B160298002E013E004F1020A059931B12A8826
S3150002B1705245C3D391B2514503D008E02988A14272
S3150002B18005D189F800B03988491C398077E70D2046
S3150002B19075E700009822002059AF0200BBAF0200FB
S3150002B1A02DE9FF5F8846DDE90E710026DDF844B021
S3150002B1B00E8081463E800078924600F01F001728D6
S3150002B1C001D009267EE0039800287BD0014605259A
S3150002B1D000241046FBF771F9A11E01EBC80245E0F7
S3150002B1E009EBD50105F007030878D84000F0010302
S3150002B1F0681C09EBD00C00F007009CF800C02CFA82
S3150002B20000FC0CF0010043EA4000012802D00228AB
S3150002B21005D001E0641CA4B263070ED016E00AEB67
S3150002B220D40E04F007089EF800C0012303FA08F3BF
S3150002B2304CEA030C8EF800C0ECE791F800C0052337
S3150002B240B3EB5C1F02D14978032911D008B1032858
S3150002B25006D11098844201D31D2609E0641CA4B2CB
S3150002B2600398B4EBC00F03D2AD1CADB2AA42B7DC51
S3150002B270E00838800F98048026BB600721D1388801
S3150002B28002281ED9801E82B2BBF1000F02D04EF2F6
S3150002B290120001E04FF6FF70514604F04BFEBBF17F
S3150002B2A0000F00D1C0433A88AAF1020180B2515C74
S3150002B2B0C3B28B4205D1AAF10101515CB1EB102F49
S3150002B2C000D0152604B03046BDE8F09F094810B5F7
S3150002B2D0807850B1012401E0002CFBD02046FDF716
S3150002B2E0B5FA641C032CF7D310BDBDE81040FDF778
S3150002B2F0CDBA00000C2300200348017AC90702D008
S3150002B3000078FDF725BC70470C2300201721018029
S3150002B31041800021017141711B218171C171704708
S3150002B3202DE9FE4F2E4F984692460D00814601D0DA
S3150002B33000260DE0684600F0EBFB6A46002148460F
S3150002B34003F008FB3878009E10B99DF8090098B101
S3150002B35052463146484606F029FB0446014600227B
S3150002B3604846FEF7FFFD0D2C37D008DCA4B3082CA7
S3150002B37033D00B2C09D130E00520BDE8FE8F112C0D
S3150002B3801ED0A4F54050023827D0204602F0C6F956
S3150002B3900246144814494B46401AC008012101EBE3
S3150002B3A00040124901F043FD5FF00305B8F1000FBA
S3150002B3B004D0324621464846FEF7D4FA2846DCE750
S3150002B3C02A46F9784846FCF7CFFD5246B9784846F0
S3150002B3D0FCF7CAFD0025E9E7FFE72546E6E7000098
S3150002B3E0F4220020444C0300FC4B030050430300AC
S3150002B3F070B50E460C49154604460978FCF79CFDC5
S3150002B40000280FD0204603F04BFA00282A46314680
S3150002B410204603D0BDE8704003F048BABDE870404C
S3150002B420FEF7BCB970BD0000EC22002070B5094DD4
S3150002B4300646A978FCF780FD0446E9783046FCF713
S3150002B4407BFD014622463046BDE870400123FFF7E8
S3150002B45067BF0000F4220020F0B585B0054600273C
S3150002B46014216846FBF729F8A5F57F40ADF802508E
S3150002B470FF3825D02846FFF711F9040022D01B48D1
S3150002B4801B49401AC6080B2C22D0112C1ED0A4F53B
S3150002B490405002380ED0204602F040F90246012002
S3150002B4A000EB06402B46134901F0C1FC2146284613
S3150002B4B005F072FE10483A4681782846FCF754FD9C
S3150002B4C005B0F0BD0E208DF800000BE00127F1E774
S3150002B4D00F208DF80000022000EB06402A4607499D
S3150002B4E001F09EFC6846FEF70DFBE3E7044C030001
S3150002B4F0FC4B03007C3A0300AC220020D03A030046
S3150002B5000A4602494978FCF72FBD0000AC2200200A
